{
  "_format": "hh-sol-artifact-1",
  "contractName": "DelegateApprovals",
  "sourceName": "contracts/DelegateApprovals.sol",
  "abi": [
    {
      "inputs": [
        {
          "internalType": "address",
          "name": "_owner",
          "type": "address"
        },
        {
          "internalType": "address",
          "name": "_associatedContract",
          "type": "address"
        }
      ],
      "stateMutability": "nonpayable",
      "type": "constructor"
    },
    {
      "anonymous": false,
      "inputs": [
        {
          "indexed": true,
          "internalType": "address",
          "name": "authoriser",
          "type": "address"
        },
        {
          "indexed": false,
          "internalType": "address",
          "name": "delegate",
          "type": "address"
        }
      ],
      "name": "Approval",
      "type": "event"
    },
    {
      "anonymous": false,
      "inputs": [
        {
          "indexed": false,
          "internalType": "address",
          "name": "associatedContract",
          "type": "address"
        }
      ],
      "name": "AssociatedContractUpdated",
      "type": "event"
    },
    {
      "anonymous": false,
      "inputs": [
        {
          "indexed": false,
          "internalType": "address",
          "name": "oldOwner",
          "type": "address"
        },
        {
          "indexed": false,
          "internalType": "address",
          "name": "newOwner",
          "type": "address"
        }
      ],
      "name": "OwnerChanged",
      "type": "event"
    },
    {
      "anonymous": false,
      "inputs": [
        {
          "indexed": false,
          "internalType": "address",
          "name": "newOwner",
          "type": "address"
        }
      ],
      "name": "OwnerNominated",
      "type": "event"
    },
    {
      "anonymous": false,
      "inputs": [
        {
          "indexed": true,
          "internalType": "address",
          "name": "authoriser",
          "type": "address"
        },
        {
          "indexed": false,
          "internalType": "address",
          "name": "delegate",
          "type": "address"
        }
      ],
      "name": "WithdrawApproval",
      "type": "event"
    },
    {
      "inputs": [],
      "name": "acceptOwnership",
      "outputs": [],
      "stateMutability": "nonpayable",
      "type": "function"
    },
    {
      "inputs": [
        {
          "internalType": "address",
          "name": "",
          "type": "address"
        },
        {
          "internalType": "address",
          "name": "",
          "type": "address"
        }
      ],
      "name": "approval",
      "outputs": [
        {
          "internalType": "bool",
          "name": "",
          "type": "bool"
        }
      ],
      "stateMutability": "view",
      "type": "function"
    },
    {
      "inputs": [],
      "name": "associatedContract",
      "outputs": [
        {
          "internalType": "address",
          "name": "",
          "type": "address"
        }
      ],
      "stateMutability": "view",
      "type": "function"
    },
    {
      "inputs": [
        {
          "internalType": "address",
          "name": "_owner",
          "type": "address"
        }
      ],
      "name": "nominateNewOwner",
      "outputs": [],
      "stateMutability": "nonpayable",
      "type": "function"
    },
    {
      "inputs": [],
      "name": "nominatedOwner",
      "outputs": [
        {
          "internalType": "address",
          "name": "",
          "type": "address"
        }
      ],
      "stateMutability": "view",
      "type": "function"
    },
    {
      "inputs": [],
      "name": "owner",
      "outputs": [
        {
          "internalType": "address",
          "name": "",
          "type": "address"
        }
      ],
      "stateMutability": "view",
      "type": "function"
    },
    {
      "inputs": [
        {
          "internalType": "address",
          "name": "authoriser",
          "type": "address"
        },
        {
          "internalType": "address",
          "name": "delegate",
          "type": "address"
        }
      ],
      "name": "setApproval",
      "outputs": [],
      "stateMutability": "nonpayable",
      "type": "function"
    },
    {
      "inputs": [
        {
          "internalType": "address",
          "name": "_associatedContract",
          "type": "address"
        }
      ],
      "name": "setAssociatedContract",
      "outputs": [],
      "stateMutability": "nonpayable",
      "type": "function"
    },
    {
      "inputs": [
        {
          "internalType": "address",
          "name": "authoriser",
          "type": "address"
        },
        {
          "internalType": "address",
          "name": "delegate",
          "type": "address"
        }
      ],
      "name": "withdrawApproval",
      "outputs": [],
      "stateMutability": "nonpayable",
      "type": "function"
    }
  ],
  "bytecode": "0x60806040523480156200001157600080fd5b5060405162000f6e38038062000f6e8339818101604052810190620000379190620001c5565b818181600073ffffffffffffffffffffffffffffffffffffffff168173ffffffffffffffffffffffffffffffffffffffff161415620000ad576040517f08c379a0000000000000000000000000000000000000000000000000000000008152600401620000a49062000288565b60405180910390fd5b806000806101000a81548173ffffffffffffffffffffffffffffffffffffffff021916908373ffffffffffffffffffffffffffffffffffffffff1602179055507fb532073b38c83145e3e5135377a08bf9aab55bc0fd7c1179cd4fb995d2a5159c600082604051620001219291906200025b565b60405180910390a15080600260006101000a81548173ffffffffffffffffffffffffffffffffffffffff021916908373ffffffffffffffffffffffffffffffffffffffff1602179055507f73f20cff579e8a4086fa607db83867595f1b6a798e718c0bfa0b94a404128e03816040516200019c91906200023e565b60405180910390a15050505062000332565b600081519050620001bf8162000318565b92915050565b60008060408385031215620001d957600080fd5b6000620001e985828601620001ae565b9250506020620001fc85828601620001ae565b9150509250929050565b6200021181620002bb565b82525050565b600062000226601983620002aa565b91506200023382620002ef565b602082019050919050565b600060208201905062000255600083018462000206565b92915050565b600060408201905062000272600083018562000206565b62000281602083018462000206565b9392505050565b60006020820190508181036000830152620002a38162000217565b9050919050565b600082825260208201905092915050565b6000620002c882620002cf565b9050919050565b600073ffffffffffffffffffffffffffffffffffffffff82169050919050565b7f4f776e657220616464726573732063616e6e6f74206265203000000000000000600082015250565b6200032381620002bb565b81146200032f57600080fd5b50565b610c2c80620003426000396000f3fe608060405234801561001057600080fd5b50600436106100935760003560e01c806379ba50971161006657806379ba50971461010a5780638da5cb5b14610114578063aefc4ccb14610132578063b3c1235414610150578063e1270b6e1461016c57610093565b80631627540c1461009857806352f445ca146100b457806353a47bb7146100d05780635f0736a1146100ee575b600080fd5b6100b260048036038101906100ad91906108f8565b61019c565b005b6100ce60048036038101906100c991906108f8565b6102a5565b005b6100d86103ae565b6040516100e591906109e4565b60405180910390f35b61010860048036038101906101039190610921565b6103d4565b005b610112610542565b005b61011c6106f3565b60405161012991906109e4565b60405180910390f35b61013a610717565b60405161014791906109e4565b60405180910390f35b61016a60048036038101906101659190610921565b61073d565b005b61018660048036038101906101819190610921565b6108b4565b6040516101939190610a28565b60405180910390f35b60008054906101000a900473ffffffffffffffffffffffffffffffffffffffff1673ffffffffffffffffffffffffffffffffffffffff163373ffffffffffffffffffffffffffffffffffffffff161461022a576040517f08c379a000000000000000000000000000000000000000000000000000000000815260040161022190610a63565b60405180910390fd5b80600160006101000a81548173ffffffffffffffffffffffffffffffffffffffff021916908373ffffffffffffffffffffffffffffffffffffffff1602179055507f906a1c6bd7e3091ea86693dd029a831c19049ce77f1dce2ce0bab1cacbabce228160405161029a91906109e4565b60405180910390a150565b60008054906101000a900473ffffffffffffffffffffffffffffffffffffffff1673ffffffffffffffffffffffffffffffffffffffff163373ffffffffffffffffffffffffffffffffffffffff1614610333576040517f08c379a000000000000000000000000000000000000000000000000000000000815260040161032a90610a63565b60405180910390fd5b80600260006101000a81548173ffffffffffffffffffffffffffffffffffffffff021916908373ffffffffffffffffffffffffffffffffffffffff1602179055507f73f20cff579e8a4086fa607db83867595f1b6a798e718c0bfa0b94a404128e03816040516103a391906109e4565b60405180910390a150565b600160009054906101000a900473ffffffffffffffffffffffffffffffffffffffff1681565b600260009054906101000a900473ffffffffffffffffffffffffffffffffffffffff1673ffffffffffffffffffffffffffffffffffffffff163373ffffffffffffffffffffffffffffffffffffffff1614610464576040517f08c379a000000000000000000000000000000000000000000000000000000000815260040161045b90610a83565b60405180910390fd5b600360008373ffffffffffffffffffffffffffffffffffffffff1673ffffffffffffffffffffffffffffffffffffffff16815260200190815260200160002060008273ffffffffffffffffffffffffffffffffffffffff1673ffffffffffffffffffffffffffffffffffffffff16815260200190815260200160002060006101000a81549060ff02191690558173ffffffffffffffffffffffffffffffffffffffff167f16097899efec09cc50ee9db7218e30a5d8d6d2b2549c23e79568bf4a1a8c6f748260405161053691906109e4565b60405180910390a25050565b600160009054906101000a900473ffffffffffffffffffffffffffffffffffffffff1673ffffffffffffffffffffffffffffffffffffffff163373ffffffffffffffffffffffffffffffffffffffff16146105d2576040517f08c379a00000000000000000000000000000000000000000000000000000000081526004016105c990610a43565b60405180910390fd5b7fb532073b38c83145e3e5135377a08bf9aab55bc0fd7c1179cd4fb995d2a5159c60008054906101000a900473ffffffffffffffffffffffffffffffffffffffff16600160009054906101000a900473ffffffffffffffffffffffffffffffffffffffff166040516106459291906109ff565b60405180910390a1600160009054906101000a900473ffffffffffffffffffffffffffffffffffffffff166000806101000a81548173ffffffffffffffffffffffffffffffffffffffff021916908373ffffffffffffffffffffffffffffffffffffffff1602179055506000600160006101000a81548173ffffffffffffffffffffffffffffffffffffffff021916908373ffffffffffffffffffffffffffffffffffffffff160217905550565b60008054906101000a900473ffffffffffffffffffffffffffffffffffffffff1681565b600260009054906101000a900473ffffffffffffffffffffffffffffffffffffffff1681565b600260009054906101000a900473ffffffffffffffffffffffffffffffffffffffff1673ffffffffffffffffffffffffffffffffffffffff163373ffffffffffffffffffffffffffffffffffffffff16146107cd576040517f08c379a00000000000000000000000000000000000000000000000000000000081526004016107c490610a83565b60405180910390fd5b6001600360008473ffffffffffffffffffffffffffffffffffffffff1673ffffffffffffffffffffffffffffffffffffffff16815260200190815260200160002060008373ffffffffffffffffffffffffffffffffffffffff1673ffffffffffffffffffffffffffffffffffffffff16815260200190815260200160002060006101000a81548160ff0219169083151502179055508173ffffffffffffffffffffffffffffffffffffffff167ff37f546c25e850257cc0c94f92bec94a17e2f0e884ddda268a25d8144b70eb6a826040516108a891906109e4565b60405180910390a25050565b60036020528160005260406000206020528060005260406000206000915091509054906101000a900460ff1681565b6000813590506108f281610bdf565b92915050565b60006020828403121561090a57600080fd5b6000610918848285016108e3565b91505092915050565b6000806040838503121561093457600080fd5b6000610942858286016108e3565b9250506020610953858286016108e3565b9150509250929050565b61096681610ab4565b82525050565b61097581610ac6565b82525050565b6000610988603583610aa3565b915061099382610af2565b604082019050919050565b60006109ab602f83610aa3565b91506109b682610b41565b604082019050919050565b60006109ce603483610aa3565b91506109d982610b90565b604082019050919050565b60006020820190506109f9600083018461095d565b92915050565b6000604082019050610a14600083018561095d565b610a21602083018461095d565b9392505050565b6000602082019050610a3d600083018461096c565b92915050565b60006020820190508181036000830152610a5c8161097b565b9050919050565b60006020820190508181036000830152610a7c8161099e565b9050919050565b60006020820190508181036000830152610a9c816109c1565b9050919050565b600082825260208201905092915050565b6000610abf82610ad2565b9050919050565b60008115159050919050565b600073ffffffffffffffffffffffffffffffffffffffff82169050919050565b7f596f75206d757374206265206e6f6d696e61746564206265666f726520796f7560008201527f2063616e20616363657074206f776e6572736869700000000000000000000000602082015250565b7f4f6e6c792074686520636f6e7472616374206f776e6572206d6179207065726660008201527f6f726d207468697320616374696f6e0000000000000000000000000000000000602082015250565b7f4f6e6c7920746865206173736f63696174656420636f6e74726163742063616e60008201527f20706572666f726d207468697320616374696f6e000000000000000000000000602082015250565b610be881610ab4565b8114610bf357600080fd5b5056fea26469706673582212203c9944da865959f4eb744eb77869f59322a9a4feefa57686e8f439964b20cbd164736f6c63430008040033",
  "linkReferences": {},
  "deployedLinkReferences": {}
}