{
  "_format": "hh-sol-artifact-1",
  "contractName": "DelegateApprovals",
  "sourceName": "contracts/DelegateApprovals.sol",
  "abi": [
    {
      "inputs": [
        {
          "internalType": "address",
          "name": "_owner",
          "type": "address"
        },
        {
          "internalType": "address",
          "name": "_associatedContract",
          "type": "address"
        }
      ],
      "stateMutability": "nonpayable",
      "type": "constructor"
    },
    {
      "anonymous": false,
      "inputs": [
        {
          "indexed": true,
          "internalType": "address",
          "name": "authoriser",
          "type": "address"
        },
        {
          "indexed": false,
          "internalType": "address",
          "name": "delegate",
          "type": "address"
        }
      ],
      "name": "Approval",
      "type": "event"
    },
    {
      "anonymous": false,
      "inputs": [
        {
          "indexed": false,
          "internalType": "address",
          "name": "associatedContract",
          "type": "address"
        }
      ],
      "name": "AssociatedContractUpdated",
      "type": "event"
    },
    {
      "anonymous": false,
      "inputs": [
        {
          "indexed": false,
          "internalType": "address",
          "name": "oldOwner",
          "type": "address"
        },
        {
          "indexed": false,
          "internalType": "address",
          "name": "newOwner",
          "type": "address"
        }
      ],
      "name": "OwnerChanged",
      "type": "event"
    },
    {
      "anonymous": false,
      "inputs": [
        {
          "indexed": false,
          "internalType": "address",
          "name": "newOwner",
          "type": "address"
        }
      ],
      "name": "OwnerNominated",
      "type": "event"
    },
    {
      "anonymous": false,
      "inputs": [
        {
          "indexed": true,
          "internalType": "address",
          "name": "authoriser",
          "type": "address"
        },
        {
          "indexed": false,
          "internalType": "address",
          "name": "delegate",
          "type": "address"
        }
      ],
      "name": "WithdrawApproval",
      "type": "event"
    },
    {
      "inputs": [],
      "name": "acceptOwnership",
      "outputs": [],
      "stateMutability": "nonpayable",
      "type": "function"
    },
    {
      "inputs": [
        {
          "internalType": "address",
          "name": "",
          "type": "address"
        },
        {
          "internalType": "address",
          "name": "",
          "type": "address"
        }
      ],
      "name": "approval",
      "outputs": [
        {
          "internalType": "bool",
          "name": "",
          "type": "bool"
        }
      ],
      "stateMutability": "view",
      "type": "function"
    },
    {
      "inputs": [],
      "name": "associatedContract",
      "outputs": [
        {
          "internalType": "address",
          "name": "",
          "type": "address"
        }
      ],
      "stateMutability": "view",
      "type": "function"
    },
    {
      "inputs": [
        {
          "internalType": "address",
          "name": "_owner",
          "type": "address"
        }
      ],
      "name": "nominateNewOwner",
      "outputs": [],
      "stateMutability": "nonpayable",
      "type": "function"
    },
    {
      "inputs": [],
      "name": "nominatedOwner",
      "outputs": [
        {
          "internalType": "address",
          "name": "",
          "type": "address"
        }
      ],
      "stateMutability": "view",
      "type": "function"
    },
    {
      "inputs": [],
      "name": "owner",
      "outputs": [
        {
          "internalType": "address",
          "name": "",
          "type": "address"
        }
      ],
      "stateMutability": "view",
      "type": "function"
    },
    {
      "inputs": [
        {
          "internalType": "address",
          "name": "authoriser",
          "type": "address"
        },
        {
          "internalType": "address",
          "name": "delegate",
          "type": "address"
        }
      ],
      "name": "setApproval",
      "outputs": [],
      "stateMutability": "nonpayable",
      "type": "function"
    },
    {
      "inputs": [
        {
          "internalType": "address",
          "name": "_associatedContract",
          "type": "address"
        }
      ],
      "name": "setAssociatedContract",
      "outputs": [],
      "stateMutability": "nonpayable",
      "type": "function"
    },
    {
      "inputs": [
        {
          "internalType": "address",
          "name": "authoriser",
          "type": "address"
        },
        {
          "internalType": "address",
          "name": "delegate",
          "type": "address"
        }
      ],
      "name": "withdrawApproval",
      "outputs": [],
      "stateMutability": "nonpayable",
      "type": "function"
    }
  ],
  "bytecode": "0x608060405234801561001057600080fd5b5060405161076e38038061076e83398101604081905261002f9161015a565b8181816001600160a01b03811661008c5760405162461bcd60e51b815260206004820152601960248201527f4f776e657220616464726573732063616e6e6f74206265203000000000000000604482015260640160405180910390fd5b600080546001600160a01b0319166001600160a01b03831690811782556040805192835260208301919091527fb532073b38c83145e3e5135377a08bf9aab55bc0fd7c1179cd4fb995d2a5159c910160405180910390a150600280546001600160a01b0319166001600160a01b0383169081179091556040519081527f73f20cff579e8a4086fa607db83867595f1b6a798e718c0bfa0b94a404128e039060200160405180910390a15050505061018c565b80516001600160a01b038116811461015557600080fd5b919050565b6000806040838503121561016c578182fd5b6101758361013e565b91506101836020840161013e565b90509250929050565b6105d38061019b6000396000f3fe608060405234801561001057600080fd5b50600436106100935760003560e01c806379ba50971161006657806379ba5097146101035780638da5cb5b1461010b578063aefc4ccb1461011e578063b3c1235414610131578063e1270b6e1461014457600080fd5b80631627540c1461009857806352f445ca146100ad57806353a47bb7146100c05780635f0736a1146100f0575b600080fd5b6100ab6100a63660046104a7565b610182565b005b6100ab6100bb3660046104a7565b61020a565b6001546100d3906001600160a01b031681565b6040516001600160a01b0390911681526020015b60405180910390f35b6100ab6100fe3660046104c8565b610282565b6100ab610314565b6000546100d3906001600160a01b031681565b6002546100d3906001600160a01b031681565b6100ab61013f3660046104c8565b6103fe565b6101726101523660046104c8565b600360209081526000928352604080842090915290825290205460ff1681565b60405190151581526020016100e7565b6000546001600160a01b031633146101b55760405162461bcd60e51b81526004016101ac906104fa565b60405180910390fd5b600180546001600160a01b0319166001600160a01b0383169081179091556040519081527f906a1c6bd7e3091ea86693dd029a831c19049ce77f1dce2ce0bab1cacbabce22906020015b60405180910390a150565b6000546001600160a01b031633146102345760405162461bcd60e51b81526004016101ac906104fa565b600280546001600160a01b0319166001600160a01b0383169081179091556040519081527f73f20cff579e8a4086fa607db83867595f1b6a798e718c0bfa0b94a404128e03906020016101ff565b6002546001600160a01b031633146102ac5760405162461bcd60e51b81526004016101ac90610549565b6001600160a01b03828116600081815260036020908152604080832094861680845294825291829020805460ff19169055905192835290917f16097899efec09cc50ee9db7218e30a5d8d6d2b2549c23e79568bf4a1a8c6f7491015b60405180910390a25050565b6001546001600160a01b0316331461038c5760405162461bcd60e51b815260206004820152603560248201527f596f75206d757374206265206e6f6d696e61746564206265666f726520796f7560448201527402063616e20616363657074206f776e65727368697605c1b60648201526084016101ac565b600054600154604080516001600160a01b0393841681529290911660208301527fb532073b38c83145e3e5135377a08bf9aab55bc0fd7c1179cd4fb995d2a5159c910160405180910390a160018054600080546001600160a01b03199081166001600160a01b03841617909155169055565b6002546001600160a01b031633146104285760405162461bcd60e51b81526004016101ac90610549565b6001600160a01b03828116600081815260036020908152604080832094861680845294825291829020805460ff19166001179055905192835290917ff37f546c25e850257cc0c94f92bec94a17e2f0e884ddda268a25d8144b70eb6a9101610308565b80356001600160a01b03811681146104a257600080fd5b919050565b6000602082840312156104b8578081fd5b6104c18261048b565b9392505050565b600080604083850312156104da578081fd5b6104e38361048b565b91506104f16020840161048b565b90509250929050565b6020808252602f908201527f4f6e6c792074686520636f6e7472616374206f776e6572206d6179207065726660408201526e37b936903a3434b99030b1ba34b7b760891b606082015260800190565b60208082526034908201527f4f6e6c7920746865206173736f63696174656420636f6e74726163742063616e604082015273103832b93337b936903a3434b99030b1ba34b7b760611b60608201526080019056fea2646970667358221220431103ae8b89adbac6548c20b54bff707439f953d36847381850ec986697f4aa64736f6c63430008040033",
  "linkReferences": {},
  "deployedLinkReferences": {}
}