{
  "_format": "hh-sol-artifact-1",
  "contractName": "Depot",
  "sourceName": "contracts/Depot.sol",
  "abi": [
    {
      "inputs": [
        {
          "internalType": "address",
          "name": "_owner",
          "type": "address"
        },
        {
          "internalType": "address",
          "name": "_fundsWallet",
          "type": "address"
        },
        {
          "internalType": "contract ISynthetix",
          "name": "_synthetix",
          "type": "address"
        },
        {
          "internalType": "contract ISynth",
          "name": "_synth",
          "type": "address"
        },
        {
          "internalType": "contract IFeePool",
          "name": "_feePool",
          "type": "address"
        },
        {
          "internalType": "address",
          "name": "_oracle",
          "type": "address"
        },
        {
          "internalType": "uint256",
          "name": "_usdToEthPrice",
          "type": "uint256"
        },
        {
          "internalType": "uint256",
          "name": "_usdToSnxPrice",
          "type": "uint256"
        }
      ],
      "stateMutability": "nonpayable",
      "type": "constructor"
    },
    {
      "anonymous": false,
      "inputs": [
        {
          "indexed": true,
          "internalType": "address",
          "name": "fromAddress",
          "type": "address"
        },
        {
          "indexed": true,
          "internalType": "address",
          "name": "toAddress",
          "type": "address"
        },
        {
          "indexed": false,
          "internalType": "uint256",
          "name": "fromETHAmount",
          "type": "uint256"
        },
        {
          "indexed": false,
          "internalType": "uint256",
          "name": "toAmount",
          "type": "uint256"
        },
        {
          "indexed": true,
          "internalType": "uint256",
          "name": "depositIndex",
          "type": "uint256"
        }
      ],
      "name": "ClearedDeposit",
      "type": "event"
    },
    {
      "anonymous": false,
      "inputs": [
        {
          "indexed": false,
          "internalType": "string",
          "name": "fromCurrency",
          "type": "string"
        },
        {
          "indexed": false,
          "internalType": "uint256",
          "name": "fromAmount",
          "type": "uint256"
        },
        {
          "indexed": false,
          "internalType": "string",
          "name": "toCurrency",
          "type": "string"
        },
        {
          "indexed": false,
          "internalType": "uint256",
          "name": "toAmount",
          "type": "uint256"
        }
      ],
      "name": "Exchange",
      "type": "event"
    },
    {
      "anonymous": false,
      "inputs": [
        {
          "indexed": false,
          "internalType": "address",
          "name": "newFundsWallet",
          "type": "address"
        }
      ],
      "name": "FundsWalletUpdated",
      "type": "event"
    },
    {
      "anonymous": false,
      "inputs": [
        {
          "indexed": false,
          "internalType": "uint256",
          "name": "amount",
          "type": "uint256"
        }
      ],
      "name": "MinimumDepositAmountUpdated",
      "type": "event"
    },
    {
      "anonymous": false,
      "inputs": [
        {
          "indexed": true,
          "internalType": "address",
          "name": "receiver",
          "type": "address"
        },
        {
          "indexed": false,
          "internalType": "uint256",
          "name": "amount",
          "type": "uint256"
        }
      ],
      "name": "NonPayableContract",
      "type": "event"
    },
    {
      "anonymous": false,
      "inputs": [
        {
          "indexed": false,
          "internalType": "address",
          "name": "newOracle",
          "type": "address"
        }
      ],
      "name": "OracleUpdated",
      "type": "event"
    },
    {
      "anonymous": false,
      "inputs": [
        {
          "indexed": false,
          "internalType": "address",
          "name": "oldOwner",
          "type": "address"
        },
        {
          "indexed": false,
          "internalType": "address",
          "name": "newOwner",
          "type": "address"
        }
      ],
      "name": "OwnerChanged",
      "type": "event"
    },
    {
      "anonymous": false,
      "inputs": [
        {
          "indexed": false,
          "internalType": "address",
          "name": "newOwner",
          "type": "address"
        }
      ],
      "name": "OwnerNominated",
      "type": "event"
    },
    {
      "anonymous": false,
      "inputs": [
        {
          "indexed": false,
          "internalType": "bool",
          "name": "isPaused",
          "type": "bool"
        }
      ],
      "name": "PauseChanged",
      "type": "event"
    },
    {
      "anonymous": false,
      "inputs": [
        {
          "indexed": false,
          "internalType": "uint256",
          "name": "priceStalePeriod",
          "type": "uint256"
        }
      ],
      "name": "PriceStalePeriodUpdated",
      "type": "event"
    },
    {
      "anonymous": false,
      "inputs": [
        {
          "indexed": false,
          "internalType": "uint256",
          "name": "newEthPrice",
          "type": "uint256"
        },
        {
          "indexed": false,
          "internalType": "uint256",
          "name": "newSynthetixPrice",
          "type": "uint256"
        },
        {
          "indexed": false,
          "internalType": "uint256",
          "name": "timeSent",
          "type": "uint256"
        }
      ],
      "name": "PricesUpdated",
      "type": "event"
    },
    {
      "anonymous": false,
      "inputs": [
        {
          "indexed": false,
          "internalType": "address",
          "name": "newBeneficiary",
          "type": "address"
        }
      ],
      "name": "SelfDestructBeneficiaryUpdated",
      "type": "event"
    },
    {
      "anonymous": false,
      "inputs": [
        {
          "indexed": false,
          "internalType": "uint256",
          "name": "selfDestructDelay",
          "type": "uint256"
        }
      ],
      "name": "SelfDestructInitiated",
      "type": "event"
    },
    {
      "anonymous": false,
      "inputs": [],
      "name": "SelfDestructTerminated",
      "type": "event"
    },
    {
      "anonymous": false,
      "inputs": [
        {
          "indexed": false,
          "internalType": "address",
          "name": "beneficiary",
          "type": "address"
        }
      ],
      "name": "SelfDestructed",
      "type": "event"
    },
    {
      "anonymous": false,
      "inputs": [
        {
          "indexed": true,
          "internalType": "address",
          "name": "user",
          "type": "address"
        },
        {
          "indexed": false,
          "internalType": "uint256",
          "name": "amount",
          "type": "uint256"
        },
        {
          "indexed": true,
          "internalType": "uint256",
          "name": "depositIndex",
          "type": "uint256"
        }
      ],
      "name": "SynthDeposit",
      "type": "event"
    },
    {
      "anonymous": false,
      "inputs": [
        {
          "indexed": false,
          "internalType": "address",
          "name": "user",
          "type": "address"
        },
        {
          "indexed": false,
          "internalType": "uint256",
          "name": "amount",
          "type": "uint256"
        },
        {
          "indexed": false,
          "internalType": "uint256",
          "name": "minimum",
          "type": "uint256"
        }
      ],
      "name": "SynthDepositNotAccepted",
      "type": "event"
    },
    {
      "anonymous": false,
      "inputs": [
        {
          "indexed": true,
          "internalType": "address",
          "name": "user",
          "type": "address"
        },
        {
          "indexed": false,
          "internalType": "uint256",
          "name": "amount",
          "type": "uint256"
        },
        {
          "indexed": true,
          "internalType": "uint256",
          "name": "depositIndex",
          "type": "uint256"
        }
      ],
      "name": "SynthDepositRemoved",
      "type": "event"
    },
    {
      "anonymous": false,
      "inputs": [
        {
          "indexed": false,
          "internalType": "contract ISynth",
          "name": "newSynthContract",
          "type": "address"
        }
      ],
      "name": "SynthUpdated",
      "type": "event"
    },
    {
      "anonymous": false,
      "inputs": [
        {
          "indexed": false,
          "internalType": "address",
          "name": "user",
          "type": "address"
        },
        {
          "indexed": false,
          "internalType": "uint256",
          "name": "amount",
          "type": "uint256"
        }
      ],
      "name": "SynthWithdrawal",
      "type": "event"
    },
    {
      "anonymous": false,
      "inputs": [
        {
          "indexed": false,
          "internalType": "contract ISynthetix",
          "name": "newSynthetixContract",
          "type": "address"
        }
      ],
      "name": "SynthetixUpdated",
      "type": "event"
    },
    {
      "stateMutability": "payable",
      "type": "fallback"
    },
    {
      "inputs": [],
      "name": "ORACLE_FUTURE_LIMIT",
      "outputs": [
        {
          "internalType": "uint256",
          "name": "",
          "type": "uint256"
        }
      ],
      "stateMutability": "view",
      "type": "function"
    },
    {
      "inputs": [],
      "name": "SELFDESTRUCT_DELAY",
      "outputs": [
        {
          "internalType": "uint256",
          "name": "",
          "type": "uint256"
        }
      ],
      "stateMutability": "view",
      "type": "function"
    },
    {
      "inputs": [],
      "name": "acceptOwnership",
      "outputs": [],
      "stateMutability": "nonpayable",
      "type": "function"
    },
    {
      "inputs": [],
      "name": "depositEndIndex",
      "outputs": [
        {
          "internalType": "uint256",
          "name": "",
          "type": "uint256"
        }
      ],
      "stateMutability": "view",
      "type": "function"
    },
    {
      "inputs": [],
      "name": "depositStartIndex",
      "outputs": [
        {
          "internalType": "uint256",
          "name": "",
          "type": "uint256"
        }
      ],
      "stateMutability": "view",
      "type": "function"
    },
    {
      "inputs": [
        {
          "internalType": "uint256",
          "name": "amount",
          "type": "uint256"
        }
      ],
      "name": "depositSynths",
      "outputs": [],
      "stateMutability": "nonpayable",
      "type": "function"
    },
    {
      "inputs": [
        {
          "internalType": "uint256",
          "name": "",
          "type": "uint256"
        }
      ],
      "name": "deposits",
      "outputs": [
        {
          "internalType": "address",
          "name": "user",
          "type": "address"
        },
        {
          "internalType": "uint256",
          "name": "amount",
          "type": "uint256"
        }
      ],
      "stateMutability": "view",
      "type": "function"
    },
    {
      "inputs": [],
      "name": "exchangeEtherForSynthetix",
      "outputs": [
        {
          "internalType": "uint256",
          "name": "",
          "type": "uint256"
        }
      ],
      "stateMutability": "payable",
      "type": "function"
    },
    {
      "inputs": [
        {
          "internalType": "uint256",
          "name": "guaranteedEtherRate",
          "type": "uint256"
        },
        {
          "internalType": "uint256",
          "name": "guaranteedSynthetixRate",
          "type": "uint256"
        }
      ],
      "name": "exchangeEtherForSynthetixAtRate",
      "outputs": [
        {
          "internalType": "uint256",
          "name": "",
          "type": "uint256"
        }
      ],
      "stateMutability": "payable",
      "type": "function"
    },
    {
      "inputs": [],
      "name": "exchangeEtherForSynths",
      "outputs": [
        {
          "internalType": "uint256",
          "name": "",
          "type": "uint256"
        }
      ],
      "stateMutability": "payable",
      "type": "function"
    },
    {
      "inputs": [
        {
          "internalType": "uint256",
          "name": "guaranteedRate",
          "type": "uint256"
        }
      ],
      "name": "exchangeEtherForSynthsAtRate",
      "outputs": [
        {
          "internalType": "uint256",
          "name": "",
          "type": "uint256"
        }
      ],
      "stateMutability": "payable",
      "type": "function"
    },
    {
      "inputs": [
        {
          "internalType": "uint256",
          "name": "synthAmount",
          "type": "uint256"
        }
      ],
      "name": "exchangeSynthsForSynthetix",
      "outputs": [
        {
          "internalType": "uint256",
          "name": "",
          "type": "uint256"
        }
      ],
      "stateMutability": "nonpayable",
      "type": "function"
    },
    {
      "inputs": [
        {
          "internalType": "uint256",
          "name": "synthAmount",
          "type": "uint256"
        },
        {
          "internalType": "uint256",
          "name": "guaranteedRate",
          "type": "uint256"
        }
      ],
      "name": "exchangeSynthsForSynthetixAtRate",
      "outputs": [
        {
          "internalType": "uint256",
          "name": "",
          "type": "uint256"
        }
      ],
      "stateMutability": "nonpayable",
      "type": "function"
    },
    {
      "inputs": [],
      "name": "feePool",
      "outputs": [
        {
          "internalType": "contract IFeePool",
          "name": "",
          "type": "address"
        }
      ],
      "stateMutability": "view",
      "type": "function"
    },
    {
      "inputs": [],
      "name": "fundsWallet",
      "outputs": [
        {
          "internalType": "address",
          "name": "",
          "type": "address"
        }
      ],
      "stateMutability": "view",
      "type": "function"
    },
    {
      "inputs": [],
      "name": "initiateSelfDestruct",
      "outputs": [],
      "stateMutability": "nonpayable",
      "type": "function"
    },
    {
      "inputs": [],
      "name": "initiationTime",
      "outputs": [
        {
          "internalType": "uint256",
          "name": "",
          "type": "uint256"
        }
      ],
      "stateMutability": "view",
      "type": "function"
    },
    {
      "inputs": [],
      "name": "lastPauseTime",
      "outputs": [
        {
          "internalType": "uint256",
          "name": "",
          "type": "uint256"
        }
      ],
      "stateMutability": "view",
      "type": "function"
    },
    {
      "inputs": [],
      "name": "lastPriceUpdateTime",
      "outputs": [
        {
          "internalType": "uint256",
          "name": "",
          "type": "uint256"
        }
      ],
      "stateMutability": "view",
      "type": "function"
    },
    {
      "inputs": [],
      "name": "minimumDepositAmount",
      "outputs": [
        {
          "internalType": "uint256",
          "name": "",
          "type": "uint256"
        }
      ],
      "stateMutability": "view",
      "type": "function"
    },
    {
      "inputs": [
        {
          "internalType": "address",
          "name": "_owner",
          "type": "address"
        }
      ],
      "name": "nominateNewOwner",
      "outputs": [],
      "stateMutability": "nonpayable",
      "type": "function"
    },
    {
      "inputs": [],
      "name": "nominatedOwner",
      "outputs": [
        {
          "internalType": "address",
          "name": "",
          "type": "address"
        }
      ],
      "stateMutability": "view",
      "type": "function"
    },
    {
      "inputs": [],
      "name": "oracle",
      "outputs": [
        {
          "internalType": "address",
          "name": "",
          "type": "address"
        }
      ],
      "stateMutability": "view",
      "type": "function"
    },
    {
      "inputs": [],
      "name": "owner",
      "outputs": [
        {
          "internalType": "address",
          "name": "",
          "type": "address"
        }
      ],
      "stateMutability": "view",
      "type": "function"
    },
    {
      "inputs": [],
      "name": "paused",
      "outputs": [
        {
          "internalType": "bool",
          "name": "",
          "type": "bool"
        }
      ],
      "stateMutability": "view",
      "type": "function"
    },
    {
      "inputs": [],
      "name": "priceStalePeriod",
      "outputs": [
        {
          "internalType": "uint256",
          "name": "",
          "type": "uint256"
        }
      ],
      "stateMutability": "view",
      "type": "function"
    },
    {
      "inputs": [],
      "name": "pricesAreStale",
      "outputs": [
        {
          "internalType": "bool",
          "name": "",
          "type": "bool"
        }
      ],
      "stateMutability": "view",
      "type": "function"
    },
    {
      "inputs": [],
      "name": "selfDestruct",
      "outputs": [],
      "stateMutability": "nonpayable",
      "type": "function"
    },
    {
      "inputs": [],
      "name": "selfDestructBeneficiary",
      "outputs": [
        {
          "internalType": "address",
          "name": "",
          "type": "address"
        }
      ],
      "stateMutability": "view",
      "type": "function"
    },
    {
      "inputs": [],
      "name": "selfDestructInitiated",
      "outputs": [
        {
          "internalType": "bool",
          "name": "",
          "type": "bool"
        }
      ],
      "stateMutability": "view",
      "type": "function"
    },
    {
      "inputs": [
        {
          "internalType": "address",
          "name": "_fundsWallet",
          "type": "address"
        }
      ],
      "name": "setFundsWallet",
      "outputs": [],
      "stateMutability": "nonpayable",
      "type": "function"
    },
    {
      "inputs": [
        {
          "internalType": "uint256",
          "name": "_amount",
          "type": "uint256"
        }
      ],
      "name": "setMinimumDepositAmount",
      "outputs": [],
      "stateMutability": "nonpayable",
      "type": "function"
    },
    {
      "inputs": [
        {
          "internalType": "address",
          "name": "_oracle",
          "type": "address"
        }
      ],
      "name": "setOracle",
      "outputs": [],
      "stateMutability": "nonpayable",
      "type": "function"
    },
    {
      "inputs": [
        {
          "internalType": "bool",
          "name": "_paused",
          "type": "bool"
        }
      ],
      "name": "setPaused",
      "outputs": [],
      "stateMutability": "nonpayable",
      "type": "function"
    },
    {
      "inputs": [
        {
          "internalType": "uint256",
          "name": "_time",
          "type": "uint256"
        }
      ],
      "name": "setPriceStalePeriod",
      "outputs": [],
      "stateMutability": "nonpayable",
      "type": "function"
    },
    {
      "inputs": [
        {
          "internalType": "address",
          "name": "_beneficiary",
          "type": "address"
        }
      ],
      "name": "setSelfDestructBeneficiary",
      "outputs": [],
      "stateMutability": "nonpayable",
      "type": "function"
    },
    {
      "inputs": [
        {
          "internalType": "contract ISynth",
          "name": "_synth",
          "type": "address"
        }
      ],
      "name": "setSynth",
      "outputs": [],
      "stateMutability": "nonpayable",
      "type": "function"
    },
    {
      "inputs": [
        {
          "internalType": "contract ISynthetix",
          "name": "_synthetix",
          "type": "address"
        }
      ],
      "name": "setSynthetix",
      "outputs": [],
      "stateMutability": "nonpayable",
      "type": "function"
    },
    {
      "inputs": [
        {
          "internalType": "address",
          "name": "",
          "type": "address"
        }
      ],
      "name": "smallDeposits",
      "outputs": [
        {
          "internalType": "uint256",
          "name": "",
          "type": "uint256"
        }
      ],
      "stateMutability": "view",
      "type": "function"
    },
    {
      "inputs": [],
      "name": "synth",
      "outputs": [
        {
          "internalType": "contract ISynth",
          "name": "",
          "type": "address"
        }
      ],
      "stateMutability": "view",
      "type": "function"
    },
    {
      "inputs": [],
      "name": "synthetix",
      "outputs": [
        {
          "internalType": "contract ISynthetix",
          "name": "",
          "type": "address"
        }
      ],
      "stateMutability": "view",
      "type": "function"
    },
    {
      "inputs": [
        {
          "internalType": "uint256",
          "name": "amount",
          "type": "uint256"
        }
      ],
      "name": "synthetixReceivedForEther",
      "outputs": [
        {
          "internalType": "uint256",
          "name": "",
          "type": "uint256"
        }
      ],
      "stateMutability": "view",
      "type": "function"
    },
    {
      "inputs": [
        {
          "internalType": "uint256",
          "name": "amount",
          "type": "uint256"
        }
      ],
      "name": "synthetixReceivedForSynths",
      "outputs": [
        {
          "internalType": "uint256",
          "name": "",
          "type": "uint256"
        }
      ],
      "stateMutability": "view",
      "type": "function"
    },
    {
      "inputs": [
        {
          "internalType": "uint256",
          "name": "amount",
          "type": "uint256"
        }
      ],
      "name": "synthsReceivedForEther",
      "outputs": [
        {
          "internalType": "uint256",
          "name": "",
          "type": "uint256"
        }
      ],
      "stateMutability": "view",
      "type": "function"
    },
    {
      "inputs": [],
      "name": "terminateSelfDestruct",
      "outputs": [],
      "stateMutability": "nonpayable",
      "type": "function"
    },
    {
      "inputs": [
        {
          "internalType": "address",
          "name": "from",
          "type": "address"
        },
        {
          "internalType": "uint256",
          "name": "amount",
          "type": "uint256"
        },
        {
          "internalType": "bytes",
          "name": "data",
          "type": "bytes"
        }
      ],
      "name": "tokenFallback",
      "outputs": [
        {
          "internalType": "bool",
          "name": "",
          "type": "bool"
        }
      ],
      "stateMutability": "nonpayable",
      "type": "function"
    },
    {
      "inputs": [],
      "name": "totalSellableDeposits",
      "outputs": [
        {
          "internalType": "uint256",
          "name": "",
          "type": "uint256"
        }
      ],
      "stateMutability": "view",
      "type": "function"
    },
    {
      "inputs": [
        {
          "internalType": "uint256",
          "name": "newEthPrice",
          "type": "uint256"
        },
        {
          "internalType": "uint256",
          "name": "newSynthetixPrice",
          "type": "uint256"
        },
        {
          "internalType": "uint256",
          "name": "timeSent",
          "type": "uint256"
        }
      ],
      "name": "updatePrices",
      "outputs": [],
      "stateMutability": "nonpayable",
      "type": "function"
    },
    {
      "inputs": [],
      "name": "usdToEthPrice",
      "outputs": [
        {
          "internalType": "uint256",
          "name": "",
          "type": "uint256"
        }
      ],
      "stateMutability": "view",
      "type": "function"
    },
    {
      "inputs": [],
      "name": "usdToSnxPrice",
      "outputs": [
        {
          "internalType": "uint256",
          "name": "",
          "type": "uint256"
        }
      ],
      "stateMutability": "view",
      "type": "function"
    },
    {
      "inputs": [],
      "name": "withdrawMyDepositedSynths",
      "outputs": [],
      "stateMutability": "nonpayable",
      "type": "function"
    },
    {
      "inputs": [
        {
          "internalType": "uint256",
          "name": "amount",
          "type": "uint256"
        }
      ],
      "name": "withdrawSynthetix",
      "outputs": [],
      "stateMutability": "nonpayable",
      "type": "function"
    }
  ],
  "bytecode": "0x6080604052612a30600a5573__$b8d33eeb36ac0d1e81cd70156e0043e778$__63907af6c06040518163ffffffff1660e01b815260040160206040518083038186803b1580156200004f57600080fd5b505af415801562000064573d6000803e3d6000fd5b505050506040513d601f19601f820116820180604052508101906200008a9190620005df565b603262000098919062000752565b601255348015620000a857600080fd5b5060405162005986380380620059868339818101604052810190620000ce91906200051c565b8780600073ffffffffffffffffffffffffffffffffffffffff168173ffffffffffffffffffffffffffffffffffffffff16141562000143576040517f08c379a00000000000000000000000000000000000000000000000000000000081526004016200013a906200071f565b60405180910390fd5b806000806101000a81548173ffffffffffffffffffffffffffffffffffffffff021916908373ffffffffffffffffffffffffffffffffffffffff1602179055507fb532073b38c83145e3e5135377a08bf9aab55bc0fd7c1179cd4fb995d2a5159c600082604051620001b7929190620006ae565b60405180910390a150600073ffffffffffffffffffffffffffffffffffffffff168173ffffffffffffffffffffffffffffffffffffffff16141562000233576040517f08c379a00000000000000000000000000000000000000000000000000000000081526004016200022a90620006db565b60405180910390fd5b80600360016101000a81548173ffffffffffffffffffffffffffffffffffffffff021916908373ffffffffffffffffffffffffffffffffffffffff1602179055507fd5da63a0b864b315bc04128dedbc93888c8529ee6cf47ce664dc204339228c5381604051620002a5919062000691565b60405180910390a150600073ffffffffffffffffffffffffffffffffffffffff1660008054906101000a900473ffffffffffffffffffffffffffffffffffffffff1673ffffffffffffffffffffffffffffffffffffffff16141562000341576040517f08c379a00000000000000000000000000000000000000000000000000000000081526004016200033890620006fd565b60405180910390fd5b86600860006101000a81548173ffffffffffffffffffffffffffffffffffffffff021916908373ffffffffffffffffffffffffffffffffffffffff16021790555085600560016101000a81548173ffffffffffffffffffffffffffffffffffffffff021916908373ffffffffffffffffffffffffffffffffffffffff16021790555084600660006101000a81548173ffffffffffffffffffffffffffffffffffffffff021916908373ffffffffffffffffffffffffffffffffffffffff16021790555083600760006101000a81548173ffffffffffffffffffffffffffffffffffffffff021916908373ffffffffffffffffffffffffffffffffffffffff16021790555082600960006101000a81548173ffffffffffffffffffffffffffffffffffffffff021916908373ffffffffffffffffffffffffffffffffffffffff16021790555081600d8190555080600c8190555042600b8190555050505050505050506200097f565b600081519050620004ba81620008fd565b92915050565b600081519050620004d18162000917565b92915050565b600081519050620004e88162000931565b92915050565b600081519050620004ff816200094b565b92915050565b600081519050620005168162000965565b92915050565b600080600080600080600080610100898b0312156200053a57600080fd5b60006200054a8b828c01620004a9565b98505060206200055d8b828c01620004a9565b9750506040620005708b828c01620004ee565b9650506060620005838b828c01620004d7565b9550506080620005968b828c01620004c0565b94505060a0620005a98b828c01620004a9565b93505060c0620005bc8b828c0162000505565b92505060e0620005cf8b828c0162000505565b9150509295985092959890939650565b600060208284031215620005f257600080fd5b6000620006028482850162000505565b91505092915050565b6200061681620007b3565b82525050565b60006200062b60228362000741565b915062000638826200085c565b604082019050919050565b60006200065260118362000741565b91506200065f82620008ab565b602082019050919050565b60006200067960198362000741565b91506200068682620008d4565b602082019050919050565b6000602082019050620006a860008301846200060b565b92915050565b6000604082019050620006c560008301856200060b565b620006d460208301846200060b565b9392505050565b60006020820190508181036000830152620006f6816200061c565b9050919050565b60006020820190508181036000830152620007188162000643565b9050919050565b600060208201905081810360008301526200073a816200066a565b9050919050565b600082825260208201905092915050565b60006200075f8262000823565b91506200076c8362000823565b9250817fffffffffffffffffffffffffffffffffffffffffffffffffffffffffffffffff0483118215151615620007a857620007a76200082d565b5b828202905092915050565b6000620007c08262000803565b9050919050565b6000620007d482620007b3565b9050919050565b6000620007e882620007b3565b9050919050565b6000620007fc82620007b3565b9050919050565b600073ffffffffffffffffffffffffffffffffffffffff82169050919050565b6000819050919050565b7f4e487b7100000000000000000000000000000000000000000000000000000000600052601160045260246000fd5b7f4f776e6572206d757374206e6f7420626520746865207a65726f20616464726560008201527f7373000000000000000000000000000000000000000000000000000000000000602082015250565b7f4f776e6572206d75737420626520736574000000000000000000000000000000600082015250565b7f4f776e657220616464726573732063616e6e6f74206265203000000000000000600082015250565b6200090881620007b3565b81146200091457600080fd5b50565b6200092281620007c7565b81146200092e57600080fd5b50565b6200093c81620007db565b81146200094857600080fd5b50565b6200095681620007ef565b81146200096257600080fd5b50565b620009708162000823565b81146200097c57600080fd5b50565b614ff7806200098f6000396000f3fe6080604052600436106103035760003560e01c80637a2a652611610190578063b8225dec116100dc578063c8d889f211610095578063ec1d06871161006f578063ec1d068714610b26578063f782b3ef14610b51578063fd12167f14610b7c578063fec9f9da14610ba757610304565b8063c8d889f214610a97578063dc8fa6c214610ad4578063e6d76a7614610afd57610304565b8063b8225dec14610985578063ba34251b146109b0578063bd32aa44146109db578063c0ee0b8a146109f2578063c58aaae614610a2f578063c6abb7c714610a5a57610304565b806391b4ded911610149578063a461fc8211610123578063a461fc82146108c8578063aab483d6146108f3578063ae2e933b1461091c578063b02c43d01461094757610304565b806391b4ded9146108495780639cb8a26a14610874578063a3d8829b1461088b57610304565b80637a2a6526146107655780637adbf973146107835780637d43c206146107ac5780637dc0d1d0146107dc57806381b797dc146108075780638da5cb5b1461081e57610304565b80633278c9601161024f57806353a47bb71161020857806364e39b87116101e257806364e39b87146106cf5780636d5ab4a9146106f8578063759b52251461072357806379ba50971461074e57610304565b806353a47bb71461063c5780635b7b5b35146106675780635c975abb146106a457610304565b80633278c960146105525780633b2b49b9146105695780633d160de9146105925780633ed620a4146105bd57806349b9a7af146105e65780634d0387fb1461061157610304565b806316c38b3c116102bc57806320714f881161029657806320714f88146104aa5780632194f3a2146104d357806321cf3514146104fe57806329f3533c1461052957610304565b806316c38b3c1461043857806317c70de4146104615780631f9301151461048c57610304565b8063080c279a1461030f5780630c928bc21461033a5780630c928f051461036a578063115f4fee146103a757806315ef856d146103d25780631627540c1461040f57610304565b5b61030c610bd0565b50005b34801561031b57600080fd5b50610324611458565b6040516103319190614439565b60405180910390f35b610354600480360381019061034f9190613bef565b61145e565b6040516103619190614439565b60405180910390f35b34801561037657600080fd5b50610391600480360381019061038c9190613bef565b61154b565b60405161039e9190614439565b60405180910390f35b3480156103b357600080fd5b506103bc611618565b6040516103c99190614116565b60405180910390f35b3480156103de57600080fd5b506103f960048036038101906103f49190613bef565b61163e565b6040516104069190614439565b60405180910390f35b34801561041b57600080fd5b5061043660048036038101906104319190613abb565b6118ab565b005b34801561044457600080fd5b5061045f600480360381019061045a9190613b4b565b6119b4565b005b34801561046d57600080fd5b50610476611ae3565b6040516104839190614439565b60405180910390f35b610494610bd0565b6040516104a19190614439565b60405180910390f35b3480156104b657600080fd5b506104d160048036038101906104cc9190613abb565b611ae9565b005b3480156104df57600080fd5b506104e8611c62565b6040516104f59190613fce565b60405180910390f35b34801561050a57600080fd5b50610513611c88565b6040516105209190614439565b60405180910390f35b34801561053557600080fd5b50610550600480360381019061054b9190613bef565b611c8e565b005b34801561055e57600080fd5b50610567611d5f565b005b34801561057557600080fd5b50610590600480360381019061058b9190613b9d565b611e3e565b005b34801561059e57600080fd5b506105a7611f47565b6040516105b491906140e0565b60405180910390f35b3480156105c957600080fd5b506105e460048036038101906105df9190613c7d565b611f67565b005b3480156105f257600080fd5b506105fb6120e5565b6040516106089190614439565b60405180910390f35b34801561061d57600080fd5b506106266120eb565b6040516106339190614439565b60405180910390f35b34801561064857600080fd5b506106516120f1565b60405161065e9190613fce565b60405180910390f35b34801561067357600080fd5b5061068e60048036038101906106899190613c41565b612117565b60405161069b9190614439565b60405180910390f35b3480156106b057600080fd5b506106b9612206565b6040516106c691906140e0565b60405180910390f35b3480156106db57600080fd5b506106f660048036038101906106f19190613abb565b612219565b005b34801561070457600080fd5b5061070d612344565b60405161071a9190614439565b60405180910390f35b34801561072f57600080fd5b5061073861234a565b6040516107459190614131565b60405180910390f35b34801561075a57600080fd5b50610763612370565b005b61076d612521565b60405161077a9190614439565b60405180910390f35b34801561078f57600080fd5b506107aa60048036038101906107a59190613abb565b612721565b005b6107c660048036038101906107c19190613c41565b61284c565b6040516107d39190614439565b60405180910390f35b3480156107e857600080fd5b506107f161297e565b6040516107fe9190613fce565b60405180910390f35b34801561081357600080fd5b5061081c6129a4565b005b34801561082a57600080fd5b50610833612d1f565b6040516108409190613fce565b60405180910390f35b34801561085557600080fd5b5061085e612d43565b60405161086b9190614439565b60405180910390f35b34801561088057600080fd5b50610889612d49565b005b34801561089757600080fd5b506108b260048036038101906108ad9190613bef565b612eef565b6040516108bf9190614439565b60405180910390f35b3480156108d457600080fd5b506108dd612fbc565b6040516108ea9190614439565b60405180910390f35b3480156108ff57600080fd5b5061091a60048036038101906109159190613bef565b612fc3565b005b34801561092857600080fd5b50610931613151565b60405161093e91906140fb565b60405180910390f35b34801561095357600080fd5b5061096e60048036038101906109699190613bef565b613177565b60405161097c929190614080565b60405180910390f35b34801561099157600080fd5b5061099a6131bb565b6040516109a791906140e0565b60405180910390f35b3480156109bc57600080fd5b506109c56131ce565b6040516109d29190614439565b60405180910390f35b3480156109e757600080fd5b506109f06131d4565b005b3480156109fe57600080fd5b50610a196004803603810190610a149190613ae4565b6132c0565b604051610a2691906140e0565b60405180910390f35b348015610a3b57600080fd5b50610a44613557565b604051610a519190613fce565b60405180910390f35b348015610a6657600080fd5b50610a816004803603810190610a7c9190613abb565b61357d565b604051610a8e9190614439565b60405180910390f35b348015610aa357600080fd5b50610abe6004803603810190610ab99190613bef565b613595565b604051610acb9190614439565b60405180910390f35b348015610ae057600080fd5b50610afb6004803603810190610af69190613bef565b6135c0565b005b348015610b0957600080fd5b50610b246004803603810190610b1f9190613bef565b613675565b005b348015610b3257600080fd5b50610b3b6137d6565b604051610b489190614439565b60405180910390f35b348015610b5d57600080fd5b50610b666137dc565b604051610b739190614439565b60405180910390f35b348015610b8857600080fd5b50610b916137e2565b604051610b9e9190614439565b60405180910390f35b348015610bb357600080fd5b50610bce6004803603810190610bc99190613bc6565b6137e8565b005b6000610bda611f47565b15610c1a576040517f08c379a0000000000000000000000000000000000000000000000000000000008152600401610c11906143b9565b60405180910390fd5b600560009054906101000a900460ff1615610c6a576040517f08c379a0000000000000000000000000000000000000000000000000000000008152600401610c6190614399565b60405180910390fd5b600080610c82600d54346138f190919063ffffffff16565b905060008190506000600f5490505b600082118015610ca2575060105481105b1561138e576000600e60008381526020019081526020016000206040518060400160405290816000820160009054906101000a900473ffffffffffffffffffffffffffffffffffffffff1673ffffffffffffffffffffffffffffffffffffffff1673ffffffffffffffffffffffffffffffffffffffff1681526020016001820154815250509050600073ffffffffffffffffffffffffffffffffffffffff16816000015173ffffffffffffffffffffffffffffffffffffffff161415610d8357610d786001600f5461392990919063ffffffff16565b600f8190555061137a565b8281602001511115611096576000610da884836020015161393f90919063ffffffff16565b90506040518060400160405280836000015173ffffffffffffffffffffffffffffffffffffffff16815260200182815250600e600085815260200190815260200160002060008201518160000160006101000a81548173ffffffffffffffffffffffffffffffffffffffff021916908373ffffffffffffffffffffffffffffffffffffffff16021790555060208201518160010155905050610e558460115461393f90919063ffffffff16565b601181905550610e70600d548561395590919063ffffffff16565b9550816000015173ffffffffffffffffffffffffffffffffffffffff166108fc879081150290604051600060405180830381858888f19350505050610f6f57600860009054906101000a900473ffffffffffffffffffffffffffffffffffffffff1673ffffffffffffffffffffffffffffffffffffffff166108fc879081150290604051600060405180830381858888f19350505050158015610f17573d6000803e3d6000fd5b50816000015173ffffffffffffffffffffffffffffffffffffffff167ff2435d3901399daa085f8b58d2409fff9b83ce4ca97c1f144b532f5a08b1c96c87604051610f629190614439565b60405180910390a2610fdc565b82826000015173ffffffffffffffffffffffffffffffffffffffff163373ffffffffffffffffffffffffffffffffffffffff167f6d957e9e816107f67cb7118461e3c259e96896f80223c9af2972596c2fdd401c8988604051610fd3929190614454565b60405180910390a45b600660009054906101000a900473ffffffffffffffffffffffffffffffffffffffff1673ffffffffffffffffffffffffffffffffffffffff1663a9059cbb33866040518363ffffffff1660e01b8152600401611039929190614080565b602060405180830381600087803b15801561105357600080fd5b505af1158015611067573d6000803e3d6000fd5b505050506040513d601f19601f8201168201806040525081019061108b9190613b74565b506000935050611379565b8281602001511161137857600e6000838152602001908152602001600020600080820160006101000a81549073ffffffffffffffffffffffffffffffffffffffff0219169055600182016000905550506110fc6001600f5461392990919063ffffffff16565b600f8190555061111b816020015160115461393f90919063ffffffff16565b60118190555061113a600d54826020015161395590919063ffffffff16565b9450806000015173ffffffffffffffffffffffffffffffffffffffff166108fc869081150290604051600060405180830381858888f1935050505061123957600860009054906101000a900473ffffffffffffffffffffffffffffffffffffffff1673ffffffffffffffffffffffffffffffffffffffff166108fc869081150290604051600060405180830381858888f193505050501580156111e1573d6000803e3d6000fd5b50806000015173ffffffffffffffffffffffffffffffffffffffff167ff2435d3901399daa085f8b58d2409fff9b83ce4ca97c1f144b532f5a08b1c96c8660405161122c9190614439565b60405180910390a26112aa565b81816000015173ffffffffffffffffffffffffffffffffffffffff163373ffffffffffffffffffffffffffffffffffffffff167f6d957e9e816107f67cb7118461e3c259e96896f80223c9af2972596c2fdd401c8885602001516040516112a1929190614454565b60405180910390a45b600660009054906101000a900473ffffffffffffffffffffffffffffffffffffffff1673ffffffffffffffffffffffffffffffffffffffff1663a9059cbb3383602001516040518363ffffffff1660e01b815260040161130b929190614080565b602060405180830381600087803b15801561132557600080fd5b505af1158015611339573d6000803e3d6000fd5b505050506040513d601f19601f8201168201806040525081019061135d9190613b74565b5061137581602001518461393f90919063ffffffff16565b92505b5b5b508080611386906148ef565b915050610c91565b5060008111156113f4573373ffffffffffffffffffffffffffffffffffffffff166108fc6113c7600d548461395590919063ffffffff16565b9081150290604051600060405180830381858888f193505050501580156113f2573d6000803e3d6000fd5b505b6000611409828461393f90919063ffffffff16565b9050600081111561144e577fdb1741ffc6844b04a9284bb6337fb0ccfe543a493ef0ac8e725242201e93d4bd34826040516114459291906142fb565b60405180910390a15b8094505050505090565b60125481565b6000611468611f47565b156114a8576040517f08c379a000000000000000000000000000000000000000000000000000000000815260040161149f906143b9565b60405180910390fd5b600560009054906101000a900460ff16156114f8576040517f08c379a00000000000000000000000000000000000000000000000000000000081526004016114ef90614399565b60405180910390fd5b600d54821461153c576040517f08c379a0000000000000000000000000000000000000000000000000000000008152600401611533906143f9565b60405180910390fd5b611544610bd0565b9050919050565b600080611563600d54846138f190919063ffffffff16565b9050600760009054906101000a900473ffffffffffffffffffffffffffffffffffffffff1673ffffffffffffffffffffffffffffffffffffffff1663b7fcfa69826040518263ffffffff1660e01b81526004016115c09190614439565b60206040518083038186803b1580156115d857600080fd5b505afa1580156115ec573d6000803e3d6000fd5b505050506040513d601f19601f820116820180604052508101906116109190613c18565b915050919050565b600660009054906101000a900473ffffffffffffffffffffffffffffffffffffffff1681565b6000611648611f47565b15611688576040517f08c379a000000000000000000000000000000000000000000000000000000000815260040161167f906143b9565b60405180910390fd5b600560009054906101000a900460ff16156116d8576040517f08c379a00000000000000000000000000000000000000000000000000000000081526004016116cf90614399565b60405180910390fd5b60006116e383612eef565b9050600660009054906101000a900473ffffffffffffffffffffffffffffffffffffffff1673ffffffffffffffffffffffffffffffffffffffff166323b872dd33600860009054906101000a900473ffffffffffffffffffffffffffffffffffffffff16866040518463ffffffff1660e01b815260040161176693929190614049565b602060405180830381600087803b15801561178057600080fd5b505af1158015611794573d6000803e3d6000fd5b505050506040513d601f19601f820116820180604052508101906117b89190613b74565b50600560019054906101000a900473ffffffffffffffffffffffffffffffffffffffff1673ffffffffffffffffffffffffffffffffffffffff1663a9059cbb33836040518363ffffffff1660e01b8152600401611816929190614080565b602060405180830381600087803b15801561183057600080fd5b505af1158015611844573d6000803e3d6000fd5b505050506040513d601f19601f820116820180604052508101906118689190613b74565b507fdb1741ffc6844b04a9284bb6337fb0ccfe543a493ef0ac8e725242201e93d4bd838260405161189a92919061426c565b60405180910390a180915050919050565b60008054906101000a900473ffffffffffffffffffffffffffffffffffffffff1673ffffffffffffffffffffffffffffffffffffffff163373ffffffffffffffffffffffffffffffffffffffff1614611939576040517f08c379a00000000000000000000000000000000000000000000000000000000081526004016119309061424c565b60405180910390fd5b80600160006101000a81548173ffffffffffffffffffffffffffffffffffffffff021916908373ffffffffffffffffffffffffffffffffffffffff1602179055507f906a1c6bd7e3091ea86693dd029a831c19049ce77f1dce2ce0bab1cacbabce22816040516119a99190613fce565b60405180910390a150565b60008054906101000a900473ffffffffffffffffffffffffffffffffffffffff1673ffffffffffffffffffffffffffffffffffffffff163373ffffffffffffffffffffffffffffffffffffffff1614611a42576040517f08c379a0000000000000000000000000000000000000000000000000000000008152600401611a399061424c565b60405180910390fd5b600560009054906101000a900460ff1615158115151415611a6257611ae0565b80600560006101000a81548160ff021916908315150217905550600560009054906101000a900460ff1615611a9957426004819055505b7f8fb6c181ee25a520cf3dd6565006ef91229fcfe5a989566c2a3b8c115570cec5600560009054906101000a900460ff16604051611ad791906140e0565b60405180910390a15b50565b60025481565b60008054906101000a900473ffffffffffffffffffffffffffffffffffffffff1673ffffffffffffffffffffffffffffffffffffffff163373ffffffffffffffffffffffffffffffffffffffff1614611b77576040517f08c379a0000000000000000000000000000000000000000000000000000000008152600401611b6e9061424c565b60405180910390fd5b600073ffffffffffffffffffffffffffffffffffffffff168173ffffffffffffffffffffffffffffffffffffffff161415611be7576040517f08c379a0000000000000000000000000000000000000000000000000000000008152600401611bde906141ec565b60405180910390fd5b80600360016101000a81548173ffffffffffffffffffffffffffffffffffffffff021916908373ffffffffffffffffffffffffffffffffffffffff1602179055507fd5da63a0b864b315bc04128dedbc93888c8529ee6cf47ce664dc204339228c5381604051611c579190613fce565b60405180910390a150565b600860009054906101000a900473ffffffffffffffffffffffffffffffffffffffff1681565b600a5481565b60008054906101000a900473ffffffffffffffffffffffffffffffffffffffff1673ffffffffffffffffffffffffffffffffffffffff163373ffffffffffffffffffffffffffffffffffffffff1614611d1c576040517f08c379a0000000000000000000000000000000000000000000000000000000008152600401611d139061424c565b60405180910390fd5b80600a819055507f456c8075c5b512d696c9a215b96d7146add8797e2050899ad8a97fd4a648ac93600a54604051611d549190614439565b60405180910390a150565b60008054906101000a900473ffffffffffffffffffffffffffffffffffffffff1673ffffffffffffffffffffffffffffffffffffffff163373ffffffffffffffffffffffffffffffffffffffff1614611ded576040517f08c379a0000000000000000000000000000000000000000000000000000000008152600401611de49061424c565b60405180910390fd5b60006002819055506000600360006101000a81548160ff0219169083151502179055507f6adcc7125002935e0aa31697538ebbd65cfddf20431eb6ecdcfc3e238bfd082c60405160405180910390a1565b60008054906101000a900473ffffffffffffffffffffffffffffffffffffffff1673ffffffffffffffffffffffffffffffffffffffff163373ffffffffffffffffffffffffffffffffffffffff1614611ecc576040517f08c379a0000000000000000000000000000000000000000000000000000000008152600401611ec39061424c565b60405180910390fd5b80600660006101000a81548173ffffffffffffffffffffffffffffffffffffffff021916908373ffffffffffffffffffffffffffffffffffffffff1602179055507f765d601a1e833e9d1cda08533c41d3a9e68ea99952d60e479a8e8fa63c390d4181604051611f3c9190614116565b60405180910390a150565b600042611f61600a54600b5461392990919063ffffffff16565b10905090565b600960009054906101000a900473ffffffffffffffffffffffffffffffffffffffff1673ffffffffffffffffffffffffffffffffffffffff163373ffffffffffffffffffffffffffffffffffffffff1614611ff7576040517f08c379a0000000000000000000000000000000000000000000000000000000008152600401611fee9061422c565b60405180910390fd5b80600b541061203b576040517f08c379a00000000000000000000000000000000000000000000000000000000081526004016120329061418c565b60405180910390fd5b61025842612049919061451b565b811061208a576040517f08c379a0000000000000000000000000000000000000000000000000000000008152600401612081906141cc565b60405180910390fd5b82600d8190555081600c8190555080600b819055507fa6b830b74e52d7d1140e76252f225dc7bed28782519845600bbd3182341dc115600d54600c54600b546040516120d89392919061447d565b60405180910390a1505050565b600b5481565b60115481565b600160009054906101000a900473ffffffffffffffffffffffffffffffffffffffff1681565b6000612121611f47565b15612161576040517f08c379a0000000000000000000000000000000000000000000000000000000008152600401612158906143b9565b60405180910390fd5b600560009054906101000a900460ff16156121b1576040517f08c379a00000000000000000000000000000000000000000000000000000000081526004016121a890614399565b60405180910390fd5b600c5482146121f5576040517f08c379a00000000000000000000000000000000000000000000000000000000081526004016121ec906143f9565b60405180910390fd5b6121fe8361163e565b905092915050565b600560009054906101000a900460ff1681565b60008054906101000a900473ffffffffffffffffffffffffffffffffffffffff1673ffffffffffffffffffffffffffffffffffffffff163373ffffffffffffffffffffffffffffffffffffffff16146122a7576040517f08c379a000000000000000000000000000000000000000000000000000000000815260040161229e9061424c565b60405180910390fd5b80600860006101000a81548173ffffffffffffffffffffffffffffffffffffffff021916908373ffffffffffffffffffffffffffffffffffffffff1602179055507f4deb077bf9c4bc824cc2c989e01a5e53b0a4ecc44c5039d46abc9ffc88f8a050600860009054906101000a900473ffffffffffffffffffffffffffffffffffffffff166040516123399190613fce565b60405180910390a150565b600f5481565b600560019054906101000a900473ffffffffffffffffffffffffffffffffffffffff1681565b600160009054906101000a900473ffffffffffffffffffffffffffffffffffffffff1673ffffffffffffffffffffffffffffffffffffffff163373ffffffffffffffffffffffffffffffffffffffff1614612400576040517f08c379a00000000000000000000000000000000000000000000000000000000081526004016123f79061416c565b60405180910390fd5b7fb532073b38c83145e3e5135377a08bf9aab55bc0fd7c1179cd4fb995d2a5159c60008054906101000a900473ffffffffffffffffffffffffffffffffffffffff16600160009054906101000a900473ffffffffffffffffffffffffffffffffffffffff16604051612473929190613fe9565b60405180910390a1600160009054906101000a900473ffffffffffffffffffffffffffffffffffffffff166000806101000a81548173ffffffffffffffffffffffffffffffffffffffff021916908373ffffffffffffffffffffffffffffffffffffffff1602179055506000600160006101000a81548173ffffffffffffffffffffffffffffffffffffffff021916908373ffffffffffffffffffffffffffffffffffffffff160217905550565b600061252b611f47565b1561256b576040517f08c379a0000000000000000000000000000000000000000000000000000000008152600401612562906143b9565b60405180910390fd5b600560009054906101000a900460ff16156125bb576040517f08c379a00000000000000000000000000000000000000000000000000000000081526004016125b290614399565b60405180910390fd5b60006125c634613595565b9050600860009054906101000a900473ffffffffffffffffffffffffffffffffffffffff1673ffffffffffffffffffffffffffffffffffffffff166108fc349081150290604051600060405180830381858888f19350505050158015612630573d6000803e3d6000fd5b50600560019054906101000a900473ffffffffffffffffffffffffffffffffffffffff1673ffffffffffffffffffffffffffffffffffffffff1663a9059cbb33836040518363ffffffff1660e01b815260040161268e929190614080565b602060405180830381600087803b1580156126a857600080fd5b505af11580156126bc573d6000803e3d6000fd5b505050506040513d601f19601f820116820180604052508101906126e09190613b74565b507fdb1741ffc6844b04a9284bb6337fb0ccfe543a493ef0ac8e725242201e93d4bd348260405161271292919061434a565b60405180910390a18091505090565b60008054906101000a900473ffffffffffffffffffffffffffffffffffffffff1673ffffffffffffffffffffffffffffffffffffffff163373ffffffffffffffffffffffffffffffffffffffff16146127af576040517f08c379a00000000000000000000000000000000000000000000000000000000081526004016127a69061424c565b60405180910390fd5b80600960006101000a81548173ffffffffffffffffffffffffffffffffffffffff021916908373ffffffffffffffffffffffffffffffffffffffff1602179055507f3df77beb5db05fcdd70a30fc8adf3f83f9501b68579455adbd100b8180940394600960009054906101000a900473ffffffffffffffffffffffffffffffffffffffff166040516128419190613fce565b60405180910390a150565b6000612856611f47565b15612896576040517f08c379a000000000000000000000000000000000000000000000000000000000815260040161288d906143b9565b60405180910390fd5b600560009054906101000a900460ff16156128e6576040517f08c379a00000000000000000000000000000000000000000000000000000000081526004016128dd90614399565b60405180910390fd5b600d54831461292a576040517f08c379a00000000000000000000000000000000000000000000000000000000081526004016129219061414c565b60405180910390fd5b600c54821461296e576040517f08c379a0000000000000000000000000000000000000000000000000000000008152600401612965906141ac565b60405180910390fd5b612976612521565b905092915050565b600960009054906101000a900473ffffffffffffffffffffffffffffffffffffffff1681565b600080600f5490505b601054811015612b3b576000600e60008381526020019081526020016000206040518060400160405290816000820160009054906101000a900473ffffffffffffffffffffffffffffffffffffffff1673ffffffffffffffffffffffffffffffffffffffff1673ffffffffffffffffffffffffffffffffffffffff16815260200160018201548152505090503373ffffffffffffffffffffffffffffffffffffffff16816000015173ffffffffffffffffffffffffffffffffffffffff161415612b2757612a8881602001518461392990919063ffffffff16565b9250600e6000838152602001908152602001600020600080820160006101000a81549073ffffffffffffffffffffffffffffffffffffffff02191690556001820160009055505081816000015173ffffffffffffffffffffffffffffffffffffffff167f3aa2b18eace5e5727a4ab525921b9b0a1ca1afdb0f96b599e3ab2d76cb5e7f728360200151604051612b1e9190614439565b60405180910390a35b508080612b33906148ef565b9150506129ad565b50612b518160115461393f90919063ffffffff16565b601181905550612ba9601360003373ffffffffffffffffffffffffffffffffffffffff1673ffffffffffffffffffffffffffffffffffffffff168152602001908152602001600020548261392990919063ffffffff16565b90506000601360003373ffffffffffffffffffffffffffffffffffffffff1673ffffffffffffffffffffffffffffffffffffffff1681526020019081526020016000208190555060008111612c33576040517f08c379a0000000000000000000000000000000000000000000000000000000008152600401612c2a9061420c565b60405180910390fd5b600660009054906101000a900473ffffffffffffffffffffffffffffffffffffffff1673ffffffffffffffffffffffffffffffffffffffff1663a9059cbb33836040518363ffffffff1660e01b8152600401612c90929190614080565b602060405180830381600087803b158015612caa57600080fd5b505af1158015612cbe573d6000803e3d6000fd5b505050506040513d601f19601f82011682018060405250810190612ce29190613b74565b507faf6ec623f558c7b3527ff6c9c09432c7d81a3d38bd2e1eaaee2efe7aac23c28b3382604051612d14929190614080565b60405180910390a150565b60008054906101000a900473ffffffffffffffffffffffffffffffffffffffff1681565b60045481565b60008054906101000a900473ffffffffffffffffffffffffffffffffffffffff1673ffffffffffffffffffffffffffffffffffffffff163373ffffffffffffffffffffffffffffffffffffffff1614612dd7576040517f08c379a0000000000000000000000000000000000000000000000000000000008152600401612dce9061424c565b60405180910390fd5b600360009054906101000a900460ff16612e26576040517f08c379a0000000000000000000000000000000000000000000000000000000008152600401612e1d906142db565b60405180910390fd5b426224ea00600254612e38919061451b565b10612e78576040517f08c379a0000000000000000000000000000000000000000000000000000000008152600401612e6f90614419565b60405180910390fd5b6000600360019054906101000a900473ffffffffffffffffffffffffffffffffffffffff1690507f8a09e1677ced846cb537dc2b172043bd05a1a81ad7e0033a7ef8ba762df990b781604051612ece9190613fce565b60405180910390a18073ffffffffffffffffffffffffffffffffffffffff16ff5b600080600760009054906101000a900473ffffffffffffffffffffffffffffffffffffffff1673ffffffffffffffffffffffffffffffffffffffff1663b7fcfa69846040518263ffffffff1660e01b8152600401612f4d9190614439565b60206040518083038186803b158015612f6557600080fd5b505afa158015612f79573d6000803e3d6000fd5b505050506040513d601f19601f82011682018060405250810190612f9d9190613c18565b9050612fb4600c548261395590919063ffffffff16565b915050919050565b6224ea0081565b60008054906101000a900473ffffffffffffffffffffffffffffffffffffffff1673ffffffffffffffffffffffffffffffffffffffff163373ffffffffffffffffffffffffffffffffffffffff1614613051576040517f08c379a00000000000000000000000000000000000000000000000000000000081526004016130489061424c565b60405180910390fd5b73__$b8d33eeb36ac0d1e81cd70156e0043e778$__63907af6c06040518163ffffffff1660e01b815260040160206040518083038186803b15801561309557600080fd5b505af41580156130a9573d6000803e3d6000fd5b505050506040513d601f19601f820116820180604052508101906130cd9190613c18565b811161310e576040517f08c379a0000000000000000000000000000000000000000000000000000000008152600401613105906142bb565b60405180910390fd5b806012819055507fa39eacd162ee82c70b2b030a1bc8fe89adcccc61122fad4821a8772dbcc542676012546040516131469190614439565b60405180910390a150565b600760009054906101000a900473ffffffffffffffffffffffffffffffffffffffff1681565b600e6020528060005260406000206000915090508060000160009054906101000a900473ffffffffffffffffffffffffffffffffffffffff16908060010154905082565b600360009054906101000a900460ff1681565b600d5481565b60008054906101000a900473ffffffffffffffffffffffffffffffffffffffff1673ffffffffffffffffffffffffffffffffffffffff163373ffffffffffffffffffffffffffffffffffffffff1614613262576040517f08c379a00000000000000000000000000000000000000000000000000000000081526004016132599061424c565b60405180910390fd5b426002819055506001600360006101000a81548160ff0219169083151502179055507fcbd94ca75b8dc45c9d80c77e851670e78843c0d75180cb81db3e2158228fa9a66224ea006040516132b69190614439565b60405180910390a1565b6000600660009054906101000a900473ffffffffffffffffffffffffffffffffffffffff1673ffffffffffffffffffffffffffffffffffffffff163373ffffffffffffffffffffffffffffffffffffffff1614613352576040517f08c379a0000000000000000000000000000000000000000000000000000000008152600401613349906143d9565b60405180910390fd5b601254831015613433576133ae83601360008773ffffffffffffffffffffffffffffffffffffffff1673ffffffffffffffffffffffffffffffffffffffff1681526020019081526020016000205461392990919063ffffffff16565b601360008673ffffffffffffffffffffffffffffffffffffffff1673ffffffffffffffffffffffffffffffffffffffff168152602001908152602001600020819055507fbc3a12638d840d60760c64b39c73985a6498cf6eb8176f124995b0e07236cbd28484601254604051613426939291906140a9565b60405180910390a1613550565b60405180604001604052808573ffffffffffffffffffffffffffffffffffffffff16815260200184815250600e6000601054815260200190815260200160002060008201518160000160006101000a81548173ffffffffffffffffffffffffffffffffffffffff021916908373ffffffffffffffffffffffffffffffffffffffff160217905550602082015181600101559050506010548473ffffffffffffffffffffffffffffffffffffffff167fd9acabe6e09d178728ba5c366661c5be0621b4770f216305b059ec175b37e0b4856040516135109190614439565b60405180910390a361352e600160105461392990919063ffffffff16565b6010819055506135498360115461392990919063ffffffff16565b6011819055505b9392505050565b600360019054906101000a900473ffffffffffffffffffffffffffffffffffffffff1681565b60136020528060005260406000206000915090505481565b6000806135ad600d54846138f190919063ffffffff16565b90506135b881612eef565b915050919050565b600660009054906101000a900473ffffffffffffffffffffffffffffffffffffffff1673ffffffffffffffffffffffffffffffffffffffff166323b872dd3330846040518463ffffffff1660e01b815260040161361f93929190614012565b602060405180830381600087803b15801561363957600080fd5b505af115801561364d573d6000803e3d6000fd5b505050506040513d601f19601f820116820180604052508101906136719190613b74565b5050565b60008054906101000a900473ffffffffffffffffffffffffffffffffffffffff1673ffffffffffffffffffffffffffffffffffffffff163373ffffffffffffffffffffffffffffffffffffffff1614613703576040517f08c379a00000000000000000000000000000000000000000000000000000000081526004016136fa9061424c565b60405180910390fd5b600560019054906101000a900473ffffffffffffffffffffffffffffffffffffffff1673ffffffffffffffffffffffffffffffffffffffff1663a9059cbb60008054906101000a900473ffffffffffffffffffffffffffffffffffffffff16836040518363ffffffff1660e01b8152600401613780929190614080565b602060405180830381600087803b15801561379a57600080fd5b505af11580156137ae573d6000803e3d6000fd5b505050506040513d601f19601f820116820180604052508101906137d29190613b74565b5050565b600c5481565b61025881565b60105481565b60008054906101000a900473ffffffffffffffffffffffffffffffffffffffff1673ffffffffffffffffffffffffffffffffffffffff163373ffffffffffffffffffffffffffffffffffffffff1614613876576040517f08c379a000000000000000000000000000000000000000000000000000000000815260040161386d9061424c565b60405180910390fd5b80600560016101000a81548173ffffffffffffffffffffffffffffffffffffffff021916908373ffffffffffffffffffffffffffffffffffffffff1602179055507f46e9c68bd7831071bdd478f1ae4c4a52463961a9d620383a0a121dbfc0e0f06d816040516138e69190614131565b60405180910390a150565b6000601260ff16600a61390491906145f5565b613917838561399490919063ffffffff16565b6139219190614571565b905092915050565b60008183613937919061451b565b905092915050565b6000818361394d919061476d565b905092915050565b600061398c8261397e601260ff16600a61396f91906145f5565b8661399490919063ffffffff16565b6139aa90919063ffffffff16565b905092915050565b600081836139a29190614713565b905092915050565b600081836139b89190614571565b905092915050565b60006139d36139ce846144d9565b6144b4565b9050828152602081018484840111156139eb57600080fd5b6139f68482856148af565b509392505050565b600081359050613a0d81614f4e565b92915050565b600081359050613a2281614f65565b92915050565b600081519050613a3781614f65565b92915050565b600082601f830112613a4e57600080fd5b8135613a5e8482602086016139c0565b91505092915050565b600081359050613a7681614f7c565b92915050565b600081359050613a8b81614f93565b92915050565b600081359050613aa081614faa565b92915050565b600081519050613ab581614faa565b92915050565b600060208284031215613acd57600080fd5b6000613adb848285016139fe565b91505092915050565b600080600060608486031215613af957600080fd5b6000613b07868287016139fe565b9350506020613b1886828701613a91565b925050604084013567ffffffffffffffff811115613b3557600080fd5b613b4186828701613a3d565b9150509250925092565b600060208284031215613b5d57600080fd5b6000613b6b84828501613a13565b91505092915050565b600060208284031215613b8657600080fd5b6000613b9484828501613a28565b91505092915050565b600060208284031215613baf57600080fd5b6000613bbd84828501613a67565b91505092915050565b600060208284031215613bd857600080fd5b6000613be684828501613a7c565b91505092915050565b600060208284031215613c0157600080fd5b6000613c0f84828501613a91565b91505092915050565b600060208284031215613c2a57600080fd5b6000613c3884828501613aa6565b91505092915050565b60008060408385031215613c5457600080fd5b6000613c6285828601613a91565b9250506020613c7385828601613a91565b9150509250929050565b600080600060608486031215613c9257600080fd5b6000613ca086828701613a91565b9350506020613cb186828701613a91565b9250506040613cc286828701613a91565b9150509250925092565b613cd58161480d565b82525050565b613ce4816147a1565b82525050565b613cf3816147b3565b82525050565b613d028161481f565b82525050565b613d1181614843565b82525050565b613d2081614867565b82525050565b6000613d33602b8361450a565b9150613d3e826149e3565b604082019050919050565b6000613d5660358361450a565b9150613d6182614a32565b604082019050919050565b6000613d7960238361450a565b9150613d8482614a81565b604082019050919050565b6000613d9c602f8361450a565b9150613da782614ad0565b604082019050919050565b6000613dbf60308361450a565b9150613dca82614b1f565b604082019050919050565b6000613de260288361450a565b9150613ded82614b6e565b604082019050919050565b6000613e0560218361450a565b9150613e1082614bbd565b604082019050919050565b6000613e2860278361450a565b9150613e3382614c0c565b604082019050919050565b6000613e4b602f8361450a565b9150613e5682614c5b565b604082019050919050565b6000613e6e60048361450a565b9150613e7982614caa565b602082019050919050565b6000613e9160308361450a565b9150613e9c82614cd3565b604082019050919050565b6000613eb460288361450a565b9150613ebf82614d22565b604082019050919050565b6000613ed760038361450a565b9150613ee282614d71565b602082019050919050565b6000613efa603c8361450a565b9150613f0582614d9a565b604082019050919050565b6000613f1d602f8361450a565b9150613f2882614de9565b604082019050919050565b6000613f4060038361450a565b9150613f4b82614e38565b602082019050919050565b6000613f63602f8361450a565b9150613f6e82614e61565b604082019050919050565b6000613f8660258361450a565b9150613f9182614eb0565b604082019050919050565b6000613fa960278361450a565b9150613fb482614eff565b604082019050919050565b613fc881614803565b82525050565b6000602082019050613fe36000830184613cdb565b92915050565b6000604082019050613ffe6000830185613cdb565b61400b6020830184613cdb565b9392505050565b60006060820190506140276000830186613cdb565b6140346020830185613ccc565b6140416040830184613fbf565b949350505050565b600060608201905061405e6000830186613cdb565b61406b6020830185613cdb565b6140786040830184613fbf565b949350505050565b60006040820190506140956000830185613cdb565b6140a26020830184613fbf565b9392505050565b60006060820190506140be6000830186613cdb565b6140cb6020830185613fbf565b6140d86040830184613fbf565b949350505050565b60006020820190506140f56000830184613cea565b92915050565b60006020820190506141106000830184613cf9565b92915050565b600060208201905061412b6000830184613d08565b92915050565b60006020820190506141466000830184613d17565b92915050565b6000602082019050818103600083015261416581613d26565b9050919050565b6000602082019050818103600083015261418581613d49565b9050919050565b600060208201905081810360008301526141a581613d6c565b9050919050565b600060208201905081810360008301526141c581613d8f565b9050919050565b600060208201905081810360008301526141e581613db2565b9050919050565b6000602082019050818103600083015261420581613dd5565b9050919050565b6000602082019050818103600083015261422581613df8565b9050919050565b6000602082019050818103600083015261424581613e1b565b9050919050565b6000602082019050818103600083015261426581613e3e565b9050919050565b6000608082019050818103600083015261428581613e61565b90506142946020830185613fbf565b81810360408301526142a581613f33565b90506142b46060830184613fbf565b9392505050565b600060208201905081810360008301526142d481613e84565b9050919050565b600060208201905081810360008301526142f481613ea7565b9050919050565b6000608082019050818103600083015261431481613eca565b90506143236020830185613fbf565b818103604083015261433481613e61565b90506143436060830184613fbf565b9392505050565b6000608082019050818103600083015261436381613eca565b90506143726020830185613fbf565b818103604083015261438381613f33565b90506143926060830184613fbf565b9392505050565b600060208201905081810360008301526143b281613eed565b9050919050565b600060208201905081810360008301526143d281613f10565b9050919050565b600060208201905081810360008301526143f281613f56565b9050919050565b6000602082019050818103600083015261441281613f79565b9050919050565b6000602082019050818103600083015261443281613f9c565b9050919050565b600060208201905061444e6000830184613fbf565b92915050565b60006040820190506144696000830185613fbf565b6144766020830184613fbf565b9392505050565b60006060820190506144926000830186613fbf565b61449f6020830185613fbf565b6144ac6040830184613fbf565b949350505050565b60006144be6144cf565b90506144ca82826148be565b919050565b6000604051905090565b600067ffffffffffffffff8211156144f4576144f3614996565b5b6144fd826149c5565b9050602081019050919050565b600082825260208201905092915050565b600061452682614803565b915061453183614803565b9250827fffffffffffffffffffffffffffffffffffffffffffffffffffffffffffffffff0382111561456657614565614938565b5b828201905092915050565b600061457c82614803565b915061458783614803565b92508261459757614596614967565b5b828204905092915050565b6000808291508390505b60018511156145ec578086048111156145c8576145c7614938565b5b60018516156145d75780820291505b80810290506145e5856149d6565b94506145ac565b94509492505050565b600061460082614803565b915061460b83614803565b92506146387fffffffffffffffffffffffffffffffffffffffffffffffffffffffffffffffff8484614640565b905092915050565b600082614650576001905061470c565b8161465e576000905061470c565b8160018114614674576002811461467e576146ad565b600191505061470c565b60ff8411156146905761468f614938565b5b8360020a9150848211156146a7576146a6614938565b5b5061470c565b5060208310610133831016604e8410600b84101617156146e25782820a9050838111156146dd576146dc614938565b5b61470c565b6146ef84848460016145a2565b9250905081840481111561470657614705614938565b5b81810290505b9392505050565b600061471e82614803565b915061472983614803565b9250817fffffffffffffffffffffffffffffffffffffffffffffffffffffffffffffffff048311821515161561476257614761614938565b5b828202905092915050565b600061477882614803565b915061478383614803565b92508282101561479657614795614938565b5b828203905092915050565b60006147ac826147e3565b9050919050565b60008115159050919050565b60006147ca826147a1565b9050919050565b60006147dc826147a1565b9050919050565b600073ffffffffffffffffffffffffffffffffffffffff82169050919050565b6000819050919050565b60006148188261488b565b9050919050565b600061482a82614831565b9050919050565b600061483c826147e3565b9050919050565b600061484e82614855565b9050919050565b6000614860826147e3565b9050919050565b600061487282614879565b9050919050565b6000614884826147e3565b9050919050565b60006148968261489d565b9050919050565b60006148a8826147e3565b9050919050565b82818337600083830152505050565b6148c7826149c5565b810181811067ffffffffffffffff821117156148e6576148e5614996565b5b80604052505050565b60006148fa82614803565b91507fffffffffffffffffffffffffffffffffffffffffffffffffffffffffffffffff82141561492d5761492c614938565b5b600182019050919050565b7f4e487b7100000000000000000000000000000000000000000000000000000000600052601160045260246000fd5b7f4e487b7100000000000000000000000000000000000000000000000000000000600052601260045260246000fd5b7f4e487b7100000000000000000000000000000000000000000000000000000000600052604160045260246000fd5b6000601f19601f8301169050919050565b60008160011c9050919050565b7f47756172616e74656564206574686572207261746520776f756c64206e6f742060008201527f6265207265636569766564000000000000000000000000000000000000000000602082015250565b7f596f75206d757374206265206e6f6d696e61746564206265666f726520796f7560008201527f2063616e20616363657074206f776e6572736869700000000000000000000000602082015250565b7f54696d65206d757374206265206c61746572207468616e206c6173742075706460008201527f6174650000000000000000000000000000000000000000000000000000000000602082015250565b7f47756172616e746565642073796e746865746978207261746520776f756c642060008201527f6e6f742062652072656365697665640000000000000000000000000000000000602082015250565b7f54696d65206d757374206265206c657373207468616e206e6f77202b204f524160008201527f434c455f4655545552455f4c494d495400000000000000000000000000000000602082015250565b7f42656e6566696369617279206d757374206e6f7420626520746865207a65726f60008201527f2061646472657373000000000000000000000000000000000000000000000000602082015250565b7f596f752068617665206e6f206465706f7369747320746f20776974686472617760008201527f2e00000000000000000000000000000000000000000000000000000000000000602082015250565b7f4f6e6c7920746865206f7261636c652063616e20706572666f726d207468697360008201527f20616374696f6e00000000000000000000000000000000000000000000000000602082015250565b7f4f6e6c792074686520636f6e7472616374206f776e6572206d6179207065726660008201527f6f726d207468697320616374696f6e0000000000000000000000000000000000602082015250565b7f7355534400000000000000000000000000000000000000000000000000000000600082015250565b7f4d696e696d756d206465706f73697420616d6f756e74206d757374206265206760008201527f726561746572207468616e20554e495400000000000000000000000000000000602082015250565b7f53656c6620646573747275637420686173206e6f7420796574206265656e206960008201527f6e69746961746564000000000000000000000000000000000000000000000000602082015250565b7f4554480000000000000000000000000000000000000000000000000000000000600082015250565b7f5468697320616374696f6e2063616e6e6f7420626520706572666f726d65642060008201527f7768696c652074686520636f6e74726163742069732070617573656400000000602082015250565b7f507269636573206d757374206e6f74206265207374616c6520746f207065726660008201527f6f726d207468697320616374696f6e0000000000000000000000000000000000602082015250565b7f534e580000000000000000000000000000000000000000000000000000000000600082015250565b7f4f6e6c79207468652073796e746820636f6e74726163742063616e207065726660008201527f6f726d207468697320616374696f6e0000000000000000000000000000000000602082015250565b7f47756172616e74656564207261746520776f756c64206e6f742062652072656360008201527f6569766564000000000000000000000000000000000000000000000000000000602082015250565b7f53656c662064657374727563742064656c617920686173206e6f74207965742060008201527f656c617073656400000000000000000000000000000000000000000000000000602082015250565b614f57816147a1565b8114614f6257600080fd5b50565b614f6e816147b3565b8114614f7957600080fd5b50565b614f85816147bf565b8114614f9057600080fd5b50565b614f9c816147d1565b8114614fa757600080fd5b50565b614fb381614803565b8114614fbe57600080fd5b5056fea26469706673582212206151d7f7790418c57378c5b09897f21011e45b5d9499cf5f4ad8e5394603847964736f6c63430008040033",
  "linkReferences": {
    "contracts/SafeDecimalMath.sol": {
      "SafeDecimalMath": [
        {
          "length": 20,
          "start": 12
        },
        {
          "length": 20,
          "start": 14818
        }
      ]
    }
  },
  "deployedLinkReferences": {
    "contracts/SafeDecimalMath.sol": {
      "SafeDecimalMath": [
        {
          "length": 20,
          "start": 12371
        }
      ]
    }
  }
}