{
  "_format": "hh-sol-artifact-1",
  "contractName": "EscrowChecker",
  "sourceName": "contracts/EscrowChecker.sol",
  "abi": [
    {
      "inputs": [
        {
          "internalType": "contract SynthetixEscrow",
          "name": "_esc",
          "type": "address"
        }
      ],
      "stateMutability": "nonpayable",
      "type": "constructor"
    },
    {
      "inputs": [
        {
          "internalType": "address",
          "name": "account",
          "type": "address"
        }
      ],
      "name": "checkAccountSchedule",
      "outputs": [
        {
          "internalType": "uint256[16]",
          "name": "",
          "type": "uint256[16]"
        }
      ],
      "stateMutability": "view",
      "type": "function"
    },
    {
      "inputs": [],
      "name": "synthetix_escrow",
      "outputs": [
        {
          "internalType": "contract SynthetixEscrow",
          "name": "",
          "type": "address"
        }
      ],
      "stateMutability": "view",
      "type": "function"
    }
  ],
  "bytecode": "0x608060405234801561001057600080fd5b506040516104a03803806104a083398101604081905261002f91610054565b600080546001600160a01b0319166001600160a01b0392909216919091179055610082565b600060208284031215610065578081fd5b81516001600160a01b038116811461007b578182fd5b9392505050565b61040f806100916000396000f3fe608060405234801561001057600080fd5b50600436106100365760003560e01c8063449d0eb11461003b5780639514c23214610064575b600080fd5b61004e61004936600461025f565b61008f565b60405161005b9190610329565b60405180910390f35b600054610077906001600160a01b031681565b6040516001600160a01b03909116815260200161005b565b610097610240565b61009f610240565b60008054604051631025b3b560e11b81526001600160a01b0386811660048301529091169063204b676a9060240160206040518083038186803b1580156100e557600080fd5b505afa1580156100f9573d6000803e3d6000fd5b505050506040513d601f19601f8201168201806040525081019061011d9190610311565b905060005b81811015610237576000805460405163da7bd3e960e01b81526001600160a01b038881166004830152602482018590529091169063da7bd3e990604401604080518083038186803b15801561017657600080fd5b505afa15801561018a573d6000803e3d6000fd5b505050506040513d601f19601f820116820180604052508101906101ae919061028d565b8051909150846101bf846002610373565b601081106101dd57634e487b7160e01b600052603260045260246000fd5b60200201528060016020020151846101f6846002610373565b61020190600161035b565b6010811061021f57634e487b7160e01b600052603260045260246000fd5b6020020152508061022f81610392565b915050610122565b50909392505050565b6040518061020001604052806010906020820280368337509192915050565b600060208284031215610270578081fd5b81356001600160a01b0381168114610286578182fd5b9392505050565b60006040828403121561029e578081fd5b82601f8301126102ac578081fd5b6040516040810181811067ffffffffffffffff821117156102cf576102cf6103c3565b80604052508083856040860111156102e5578384fd5b835b60028110156103065781518352602092830192909101906001016102e7565b509195945050505050565b600060208284031215610322578081fd5b5051919050565b6102008101818360005b6010811015610352578151835260209283019290910190600101610333565b50505092915050565b6000821982111561036e5761036e6103ad565b500190565b600081600019048311821515161561038d5761038d6103ad565b500290565b60006000198214156103a6576103a66103ad565b5060010190565b634e487b7160e01b600052601160045260246000fd5b634e487b7160e01b600052604160045260246000fdfea264697066735822122039b49bc3707786932ccf3c6986484b0fe32f8bc5cf6fc92c01d67ffca88e13d464736f6c63430008040033",
  "linkReferences": {},
  "deployedLinkReferences": {}
}