{
  "_format": "hh-sol-artifact-1",
  "contractName": "EscrowChecker",
  "sourceName": "contracts/EscrowChecker.sol",
  "abi": [
    {
      "inputs": [
        {
          "internalType": "contract SynthetixEscrow",
          "name": "_esc",
          "type": "address"
        }
      ],
      "stateMutability": "nonpayable",
      "type": "constructor"
    },
    {
      "inputs": [
        {
          "internalType": "address",
          "name": "account",
          "type": "address"
        }
      ],
      "name": "checkAccountSchedule",
      "outputs": [
        {
          "internalType": "uint256[16]",
          "name": "",
          "type": "uint256[16]"
        }
      ],
      "stateMutability": "view",
      "type": "function"
    },
    {
      "inputs": [],
      "name": "synthetix_escrow",
      "outputs": [
        {
          "internalType": "contract SynthetixEscrow",
          "name": "",
          "type": "address"
        }
      ],
      "stateMutability": "view",
      "type": "function"
    }
  ],
  "bytecode": "0x608060405234801561001057600080fd5b506040516109d73803806109d78339818101604052810190610032919061008d565b806000806101000a81548173ffffffffffffffffffffffffffffffffffffffff021916908373ffffffffffffffffffffffffffffffffffffffff16021790555050610111565b600081519050610087816100fa565b92915050565b60006020828403121561009f57600080fd5b60006100ad84828501610078565b91505092915050565b60006100c1826100da565b9050919050565b60006100d3826100b6565b9050919050565b600073ffffffffffffffffffffffffffffffffffffffff82169050919050565b610103816100c8565b811461010e57600080fd5b50565b6108b7806101206000396000f3fe608060405234801561001057600080fd5b50600436106100365760003560e01c8063449d0eb11461003b5780639514c2321461006b575b600080fd5b61005560048036038101906100509190610441565b610089565b60405161006291906105ab565b60405180910390f35b610073610346565b60405161008091906105c7565b60405180910390f35b61009161036a565b61009961036a565b60008060009054906101000a900473ffffffffffffffffffffffffffffffffffffffff1673ffffffffffffffffffffffffffffffffffffffff1663204b676a856040518263ffffffff1660e01b81526004016100f59190610567565b60206040518083038186803b15801561010d57600080fd5b505afa158015610121573d6000803e3d6000fd5b505050506040513d601f19601f820116820180604052508101906101459190610493565b905060005b8181101561033b5760008060009054906101000a900473ffffffffffffffffffffffffffffffffffffffff1673ffffffffffffffffffffffffffffffffffffffff1663da7bd3e987846040518363ffffffff1660e01b81526004016101b0929190610582565b604080518083038186803b1580156101c757600080fd5b505afa1580156101db573d6000803e3d6000fd5b505050506040513d601f19601f820116820180604052508101906101ff919061046a565b90508060006002811061023b577f4e487b7100000000000000000000000000000000000000000000000000000000600052603260045260246000fd5b60200201518460028461024e91906106b0565b60108110610285577f4e487b7100000000000000000000000000000000000000000000000000000000600052603260045260246000fd5b602002018181525050806001600281106102c8577f4e487b7100000000000000000000000000000000000000000000000000000000600052603260045260246000fd5b60200201518460016002856102dd91906106b0565b6102e7919061065a565b6010811061031e577f4e487b7100000000000000000000000000000000000000000000000000000000600052603260045260246000fd5b6020020181815250505080806103339061079b565b91505061014a565b508192505050919050565b60008054906101000a900473ffffffffffffffffffffffffffffffffffffffff1681565b604051806102000160405280601090602082028036833780820191505090505090565b60006103a061039b84610607565b6105e2565b905080828560208602820111156103b657600080fd5b60005b858110156103e657816103cc888261042c565b8452602084019350602083019250506001810190506103b9565b5050509392505050565b6000813590506103ff81610853565b92915050565b600082601f83011261041657600080fd5b600261042384828561038d565b91505092915050565b60008151905061043b8161086a565b92915050565b60006020828403121561045357600080fd5b6000610461848285016103f0565b91505092915050565b60006040828403121561047c57600080fd5b600061048a84828501610405565b91505092915050565b6000602082840312156104a557600080fd5b60006104b38482850161042c565b91505092915050565b60006104c88383610549565b60208301905092915050565b6104dd8161070a565b82525050565b6104ec81610637565b6104f6818461064f565b92506105018261062d565b8060005b8381101561053257815161051987826104bc565b965061052483610642565b925050600181019050610505565b505050505050565b61054381610746565b82525050565b6105528161073c565b82525050565b6105618161073c565b82525050565b600060208201905061057c60008301846104d4565b92915050565b600060408201905061059760008301856104d4565b6105a46020830184610558565b9392505050565b6000610200820190506105c160008301846104e3565b92915050565b60006020820190506105dc600083018461053a565b92915050565b60006105ec6105fd565b90506105f8828261076a565b919050565b6000604051905090565b600067ffffffffffffffff82111561062257610621610813565b5b602082029050919050565b6000819050919050565b600060109050919050565b6000602082019050919050565b600081905092915050565b60006106658261073c565b91506106708361073c565b9250827fffffffffffffffffffffffffffffffffffffffffffffffffffffffffffffffff038211156106a5576106a46107e4565b5b828201905092915050565b60006106bb8261073c565b91506106c68361073c565b9250817fffffffffffffffffffffffffffffffffffffffffffffffffffffffffffffffff04831182151516156106ff576106fe6107e4565b5b828202905092915050565b60006107158261071c565b9050919050565b600073ffffffffffffffffffffffffffffffffffffffff82169050919050565b6000819050919050565b600061075182610758565b9050919050565b60006107638261071c565b9050919050565b61077382610842565b810181811067ffffffffffffffff8211171561079257610791610813565b5b80604052505050565b60006107a68261073c565b91507fffffffffffffffffffffffffffffffffffffffffffffffffffffffffffffffff8214156107d9576107d86107e4565b5b600182019050919050565b7f4e487b7100000000000000000000000000000000000000000000000000000000600052601160045260246000fd5b7f4e487b7100000000000000000000000000000000000000000000000000000000600052604160045260246000fd5b6000601f19601f8301169050919050565b61085c8161070a565b811461086757600080fd5b50565b6108738161073c565b811461087e57600080fd5b5056fea264697066735822122080d563e6b86538ad5854acc1b5cd74651655209a6553488db1b8c5c8a90efce564736f6c63430008040033",
  "linkReferences": {},
  "deployedLinkReferences": {}
}