{
  "_format": "hh-sol-artifact-1",
  "contractName": "EternalStorage",
  "sourceName": "contracts/EternalStorage.sol",
  "abi": [
    {
      "inputs": [
        {
          "internalType": "address",
          "name": "_owner",
          "type": "address"
        },
        {
          "internalType": "address",
          "name": "_associatedContract",
          "type": "address"
        }
      ],
      "stateMutability": "nonpayable",
      "type": "constructor"
    },
    {
      "anonymous": false,
      "inputs": [
        {
          "indexed": false,
          "internalType": "address",
          "name": "associatedContract",
          "type": "address"
        }
      ],
      "name": "AssociatedContractUpdated",
      "type": "event"
    },
    {
      "anonymous": false,
      "inputs": [
        {
          "indexed": false,
          "internalType": "address",
          "name": "oldOwner",
          "type": "address"
        },
        {
          "indexed": false,
          "internalType": "address",
          "name": "newOwner",
          "type": "address"
        }
      ],
      "name": "OwnerChanged",
      "type": "event"
    },
    {
      "anonymous": false,
      "inputs": [
        {
          "indexed": false,
          "internalType": "address",
          "name": "newOwner",
          "type": "address"
        }
      ],
      "name": "OwnerNominated",
      "type": "event"
    },
    {
      "inputs": [],
      "name": "acceptOwnership",
      "outputs": [],
      "stateMutability": "nonpayable",
      "type": "function"
    },
    {
      "inputs": [],
      "name": "associatedContract",
      "outputs": [
        {
          "internalType": "address",
          "name": "",
          "type": "address"
        }
      ],
      "stateMutability": "view",
      "type": "function"
    },
    {
      "inputs": [
        {
          "internalType": "bytes32",
          "name": "record",
          "type": "bytes32"
        }
      ],
      "name": "deleteAddressValue",
      "outputs": [],
      "stateMutability": "nonpayable",
      "type": "function"
    },
    {
      "inputs": [
        {
          "internalType": "bytes32",
          "name": "record",
          "type": "bytes32"
        }
      ],
      "name": "deleteBooleanValue",
      "outputs": [],
      "stateMutability": "nonpayable",
      "type": "function"
    },
    {
      "inputs": [
        {
          "internalType": "bytes32",
          "name": "record",
          "type": "bytes32"
        }
      ],
      "name": "deleteBytes32Value",
      "outputs": [],
      "stateMutability": "nonpayable",
      "type": "function"
    },
    {
      "inputs": [
        {
          "internalType": "bytes32",
          "name": "record",
          "type": "bytes32"
        }
      ],
      "name": "deleteBytesValue",
      "outputs": [],
      "stateMutability": "nonpayable",
      "type": "function"
    },
    {
      "inputs": [
        {
          "internalType": "bytes32",
          "name": "record",
          "type": "bytes32"
        }
      ],
      "name": "deleteIntValue",
      "outputs": [],
      "stateMutability": "nonpayable",
      "type": "function"
    },
    {
      "inputs": [
        {
          "internalType": "bytes32",
          "name": "record",
          "type": "bytes32"
        }
      ],
      "name": "deleteStringValue",
      "outputs": [],
      "stateMutability": "nonpayable",
      "type": "function"
    },
    {
      "inputs": [
        {
          "internalType": "bytes32",
          "name": "record",
          "type": "bytes32"
        }
      ],
      "name": "deleteUIntValue",
      "outputs": [],
      "stateMutability": "nonpayable",
      "type": "function"
    },
    {
      "inputs": [
        {
          "internalType": "bytes32",
          "name": "record",
          "type": "bytes32"
        }
      ],
      "name": "getAddressValue",
      "outputs": [
        {
          "internalType": "address",
          "name": "",
          "type": "address"
        }
      ],
      "stateMutability": "view",
      "type": "function"
    },
    {
      "inputs": [
        {
          "internalType": "bytes32",
          "name": "record",
          "type": "bytes32"
        }
      ],
      "name": "getBooleanValue",
      "outputs": [
        {
          "internalType": "bool",
          "name": "",
          "type": "bool"
        }
      ],
      "stateMutability": "view",
      "type": "function"
    },
    {
      "inputs": [
        {
          "internalType": "bytes32",
          "name": "record",
          "type": "bytes32"
        }
      ],
      "name": "getBytes32Value",
      "outputs": [
        {
          "internalType": "bytes32",
          "name": "",
          "type": "bytes32"
        }
      ],
      "stateMutability": "view",
      "type": "function"
    },
    {
      "inputs": [
        {
          "internalType": "bytes32",
          "name": "record",
          "type": "bytes32"
        }
      ],
      "name": "getBytesValue",
      "outputs": [
        {
          "internalType": "bytes",
          "name": "",
          "type": "bytes"
        }
      ],
      "stateMutability": "view",
      "type": "function"
    },
    {
      "inputs": [
        {
          "internalType": "bytes32",
          "name": "record",
          "type": "bytes32"
        }
      ],
      "name": "getIntValue",
      "outputs": [
        {
          "internalType": "int256",
          "name": "",
          "type": "int256"
        }
      ],
      "stateMutability": "view",
      "type": "function"
    },
    {
      "inputs": [
        {
          "internalType": "bytes32",
          "name": "record",
          "type": "bytes32"
        }
      ],
      "name": "getStringValue",
      "outputs": [
        {
          "internalType": "string",
          "name": "",
          "type": "string"
        }
      ],
      "stateMutability": "view",
      "type": "function"
    },
    {
      "inputs": [
        {
          "internalType": "bytes32",
          "name": "record",
          "type": "bytes32"
        }
      ],
      "name": "getUIntValue",
      "outputs": [
        {
          "internalType": "uint256",
          "name": "",
          "type": "uint256"
        }
      ],
      "stateMutability": "view",
      "type": "function"
    },
    {
      "inputs": [
        {
          "internalType": "address",
          "name": "_owner",
          "type": "address"
        }
      ],
      "name": "nominateNewOwner",
      "outputs": [],
      "stateMutability": "nonpayable",
      "type": "function"
    },
    {
      "inputs": [],
      "name": "nominatedOwner",
      "outputs": [
        {
          "internalType": "address",
          "name": "",
          "type": "address"
        }
      ],
      "stateMutability": "view",
      "type": "function"
    },
    {
      "inputs": [],
      "name": "owner",
      "outputs": [
        {
          "internalType": "address",
          "name": "",
          "type": "address"
        }
      ],
      "stateMutability": "view",
      "type": "function"
    },
    {
      "inputs": [
        {
          "internalType": "bytes32",
          "name": "record",
          "type": "bytes32"
        },
        {
          "internalType": "address",
          "name": "value",
          "type": "address"
        }
      ],
      "name": "setAddressValue",
      "outputs": [],
      "stateMutability": "nonpayable",
      "type": "function"
    },
    {
      "inputs": [
        {
          "internalType": "address",
          "name": "_associatedContract",
          "type": "address"
        }
      ],
      "name": "setAssociatedContract",
      "outputs": [],
      "stateMutability": "nonpayable",
      "type": "function"
    },
    {
      "inputs": [
        {
          "internalType": "bytes32",
          "name": "record",
          "type": "bytes32"
        },
        {
          "internalType": "bool",
          "name": "value",
          "type": "bool"
        }
      ],
      "name": "setBooleanValue",
      "outputs": [],
      "stateMutability": "nonpayable",
      "type": "function"
    },
    {
      "inputs": [
        {
          "internalType": "bytes32",
          "name": "record",
          "type": "bytes32"
        },
        {
          "internalType": "bytes32",
          "name": "value",
          "type": "bytes32"
        }
      ],
      "name": "setBytes32Value",
      "outputs": [],
      "stateMutability": "nonpayable",
      "type": "function"
    },
    {
      "inputs": [
        {
          "internalType": "bytes32",
          "name": "record",
          "type": "bytes32"
        },
        {
          "internalType": "bytes",
          "name": "value",
          "type": "bytes"
        }
      ],
      "name": "setBytesValue",
      "outputs": [],
      "stateMutability": "nonpayable",
      "type": "function"
    },
    {
      "inputs": [
        {
          "internalType": "bytes32",
          "name": "record",
          "type": "bytes32"
        },
        {
          "internalType": "int256",
          "name": "value",
          "type": "int256"
        }
      ],
      "name": "setIntValue",
      "outputs": [],
      "stateMutability": "nonpayable",
      "type": "function"
    },
    {
      "inputs": [
        {
          "internalType": "bytes32",
          "name": "record",
          "type": "bytes32"
        },
        {
          "internalType": "string",
          "name": "value",
          "type": "string"
        }
      ],
      "name": "setStringValue",
      "outputs": [],
      "stateMutability": "nonpayable",
      "type": "function"
    },
    {
      "inputs": [
        {
          "internalType": "bytes32",
          "name": "record",
          "type": "bytes32"
        },
        {
          "internalType": "uint256",
          "name": "value",
          "type": "uint256"
        }
      ],
      "name": "setUIntValue",
      "outputs": [],
      "stateMutability": "nonpayable",
      "type": "function"
    }
  ],
  "bytecode": "0x608060405234801561001057600080fd5b5060405161102938038061102983398101604081905261002f9161015a565b8181816001600160a01b03811661008c5760405162461bcd60e51b815260206004820152601960248201527f4f776e657220616464726573732063616e6e6f74206265203000000000000000604482015260640160405180910390fd5b600080546001600160a01b0319166001600160a01b03831690811782556040805192835260208301919091527fb532073b38c83145e3e5135377a08bf9aab55bc0fd7c1179cd4fb995d2a5159c910160405180910390a150600280546001600160a01b0319166001600160a01b0383169081179091556040519081527f73f20cff579e8a4086fa607db83867595f1b6a798e718c0bfa0b94a404128e039060200160405180910390a15050505061018c565b80516001600160a01b038116811461015557600080fd5b919050565b6000806040838503121561016c578182fd5b6101758361013e565b91506101836020840161013e565b90509250929050565b610e8e8061019b6000396000f3fe608060405234801561001057600080fd5b50600436106101a95760003560e01c806353a47bb7116100f9578063a209a29c11610097578063ba69fcaa11610071578063ba69fcaa146103e2578063bdc963d8146103f5578063c9a52d2c14610415578063f58660661461042857600080fd5b8063a209a29c146103a9578063a77aa49e146103bc578063aefc4ccb146103cf57600080fd5b80638267a9ee116100d35780638267a9ee146103505780638da5cb5b146103635780639007127b1461037657806393fe42481461039657600080fd5b806353a47bb7146103225780635a2bf25a1461033557806379ba50971461034857600080fd5b806325cf512d116101665780633eba9ed2116101405780633eba9ed21461029b57806344bfa56e146102ae5780634c77e5ba146102ce57806352f445ca1461030f57600080fd5b806325cf512d146102625780633562fd20146102755780633cc1635c1461028857600080fd5b8063025ec81a146101ae578063043106c0146101e15780630c55d925146101f6578063124f2418146102095780631627540c1461021c57806317e7dd221461022f575b600080fd5b6101ce6101bc366004610c17565b60009081526007602052604090205490565b6040519081526020015b60405180910390f35b6101f46101ef366004610c17565b61043b565b005b6101f4610204366004610c17565b61048c565b6101f4610217366004610c17565b6104d0565b6101f461022a366004610bf6565b61050b565b61025261023d366004610c17565b60009081526008602052604090205460ff1690565b60405190151581526020016101d8565b6101f4610270366004610c8d565b61058a565b6101f4610283366004610c8d565b6105c6565b6101f4610296366004610c17565b610602565b6101f46102a9366004610c5a565b610644565b6102c16102bc366004610c17565b61068e565b6040516101d89190610d51565b6102f76102dc366004610c17565b6000908152600560205260409020546001600160a01b031690565b6040516001600160a01b0390911681526020016101d8565b6101f461031d366004610bf6565b610730565b6001546102f7906001600160a01b031681565b6101f4610343366004610c2f565b6107a8565b6101f4610800565b6101f461035e366004610c17565b6108ea565b6000546102f7906001600160a01b031681565b6101ce610384366004610c17565b60009081526009602052604090205490565b6101f46103a4366004610c17565b610925565b6102c16103b7366004610c17565b610960565b6101f46103ca366004610c8d565b61097d565b6002546102f7906001600160a01b031681565b6101f46103f0366004610c17565b6109b9565b6101ce610403366004610c17565b60009081526003602052604090205490565b6101f4610423366004610cae565b6109fa565b6101f4610436366004610cae565b610a48565b6002546001600160a01b0316331461046e5760405162461bcd60e51b815260040161046590610db3565b60405180910390fd5b600090815260056020526040902080546001600160a01b0319169055565b6002546001600160a01b031633146104b65760405162461bcd60e51b815260040161046590610db3565b60008181526006602052604081206104cd91610a91565b50565b6002546001600160a01b031633146104fa5760405162461bcd60e51b815260040161046590610db3565b600090815260076020526040812055565b6000546001600160a01b031633146105355760405162461bcd60e51b815260040161046590610d64565b600180546001600160a01b0319166001600160a01b0383169081179091556040519081527f906a1c6bd7e3091ea86693dd029a831c19049ce77f1dce2ce0bab1cacbabce22906020015b60405180910390a150565b6002546001600160a01b031633146105b45760405162461bcd60e51b815260040161046590610db3565b60009182526007602052604090912055565b6002546001600160a01b031633146105f05760405162461bcd60e51b815260040161046590610db3565b60009182526003602052604090912055565b6002546001600160a01b0316331461062c5760405162461bcd60e51b815260040161046590610db3565b6000908152600860205260409020805460ff19169055565b6002546001600160a01b0316331461066e5760405162461bcd60e51b815260040161046590610db3565b600091825260086020526040909120805460ff1916911515919091179055565b60008181526006602052604090208054606091906106ab90610e07565b80601f01602080910402602001604051908101604052809291908181526020018280546106d790610e07565b80156107245780601f106106f957610100808354040283529160200191610724565b820191906000526020600020905b81548152906001019060200180831161070757829003601f168201915b50505050509050919050565b6000546001600160a01b0316331461075a5760405162461bcd60e51b815260040161046590610d64565b600280546001600160a01b0319166001600160a01b0383169081179091556040519081527f73f20cff579e8a4086fa607db83867595f1b6a798e718c0bfa0b94a404128e039060200161057f565b6002546001600160a01b031633146107d25760405162461bcd60e51b815260040161046590610db3565b60009182526005602052604090912080546001600160a01b0319166001600160a01b03909216919091179055565b6001546001600160a01b031633146108785760405162461bcd60e51b815260206004820152603560248201527f596f75206d757374206265206e6f6d696e61746564206265666f726520796f7560448201527402063616e20616363657074206f776e65727368697605c1b6064820152608401610465565b600054600154604080516001600160a01b0393841681529290911660208301527fb532073b38c83145e3e5135377a08bf9aab55bc0fd7c1179cd4fb995d2a5159c910160405180910390a160018054600080546001600160a01b03199081166001600160a01b03841617909155169055565b6002546001600160a01b031633146109145760405162461bcd60e51b815260040161046590610db3565b600090815260096020526040812055565b6002546001600160a01b0316331461094f5760405162461bcd60e51b815260040161046590610db3565b600090815260036020526040812055565b60008181526004602052604090208054606091906106ab90610e07565b6002546001600160a01b031633146109a75760405162461bcd60e51b815260040161046590610db3565b60009182526009602052604090912055565b6002546001600160a01b031633146109e35760405162461bcd60e51b815260040161046590610db3565b60008181526004602052604081206104cd91610a91565b6002546001600160a01b03163314610a245760405162461bcd60e51b815260040161046590610db3565b60008281526006602090815260409091208251610a4392840190610acb565b505050565b6002546001600160a01b03163314610a725760405162461bcd60e51b815260040161046590610db3565b60008281526004602090815260409091208251610a4392840190610acb565b508054610a9d90610e07565b6000825580601f10610aad575050565b601f0160209004906000526020600020908101906104cd9190610b4f565b828054610ad790610e07565b90600052602060002090601f016020900481019282610af95760008555610b3f565b82601f10610b1257805160ff1916838001178555610b3f565b82800160010185558215610b3f579182015b82811115610b3f578251825591602001919060010190610b24565b50610b4b929150610b4f565b5090565b5b80821115610b4b5760008155600101610b50565b600067ffffffffffffffff80841115610b7f57610b7f610e42565b604051601f8501601f19908116603f01168101908282118183101715610ba757610ba7610e42565b81604052809350858152868686011115610bc057600080fd5b858560208301376000602087830101525050509392505050565b80356001600160a01b0381168114610bf157600080fd5b919050565b600060208284031215610c07578081fd5b610c1082610bda565b9392505050565b600060208284031215610c28578081fd5b5035919050565b60008060408385031215610c41578081fd5b82359150610c5160208401610bda565b90509250929050565b60008060408385031215610c6c578182fd5b8235915060208301358015158114610c82578182fd5b809150509250929050565b60008060408385031215610c9f578182fd5b50508035926020909101359150565b60008060408385031215610cc0578182fd5b82359150602083013567ffffffffffffffff811115610cdd578182fd5b8301601f81018513610ced578182fd5b610cfc85823560208401610b64565b9150509250929050565b60008151808452815b81811015610d2b57602081850181015186830182015201610d0f565b81811115610d3c5782602083870101525b50601f01601f19169290920160200192915050565b602081526000610c106020830184610d06565b6020808252602f908201527f4f6e6c792074686520636f6e7472616374206f776e6572206d6179207065726660408201526e37b936903a3434b99030b1ba34b7b760891b606082015260800190565b60208082526034908201527f4f6e6c7920746865206173736f63696174656420636f6e74726163742063616e604082015273103832b93337b936903a3434b99030b1ba34b7b760611b606082015260800190565b600181811c90821680610e1b57607f821691505b60208210811415610e3c57634e487b7160e01b600052602260045260246000fd5b50919050565b634e487b7160e01b600052604160045260246000fdfea2646970667358221220536c166579a4b0d571f86957c886dccb0d1e9cab5e40bf08a4724a06089357a664736f6c63430008040033",
  "linkReferences": {},
  "deployedLinkReferences": {}
}