{
  "_format": "hh-sol-artifact-1",
  "contractName": "EternalStorage",
  "sourceName": "contracts/EternalStorage.sol",
  "abi": [
    {
      "inputs": [
        {
          "internalType": "address",
          "name": "_owner",
          "type": "address"
        },
        {
          "internalType": "address",
          "name": "_associatedContract",
          "type": "address"
        }
      ],
      "stateMutability": "nonpayable",
      "type": "constructor"
    },
    {
      "anonymous": false,
      "inputs": [
        {
          "indexed": false,
          "internalType": "address",
          "name": "associatedContract",
          "type": "address"
        }
      ],
      "name": "AssociatedContractUpdated",
      "type": "event"
    },
    {
      "anonymous": false,
      "inputs": [
        {
          "indexed": false,
          "internalType": "address",
          "name": "oldOwner",
          "type": "address"
        },
        {
          "indexed": false,
          "internalType": "address",
          "name": "newOwner",
          "type": "address"
        }
      ],
      "name": "OwnerChanged",
      "type": "event"
    },
    {
      "anonymous": false,
      "inputs": [
        {
          "indexed": false,
          "internalType": "address",
          "name": "newOwner",
          "type": "address"
        }
      ],
      "name": "OwnerNominated",
      "type": "event"
    },
    {
      "inputs": [],
      "name": "acceptOwnership",
      "outputs": [],
      "stateMutability": "nonpayable",
      "type": "function"
    },
    {
      "inputs": [],
      "name": "associatedContract",
      "outputs": [
        {
          "internalType": "address",
          "name": "",
          "type": "address"
        }
      ],
      "stateMutability": "view",
      "type": "function"
    },
    {
      "inputs": [
        {
          "internalType": "bytes32",
          "name": "record",
          "type": "bytes32"
        }
      ],
      "name": "deleteAddressValue",
      "outputs": [],
      "stateMutability": "nonpayable",
      "type": "function"
    },
    {
      "inputs": [
        {
          "internalType": "bytes32",
          "name": "record",
          "type": "bytes32"
        }
      ],
      "name": "deleteBooleanValue",
      "outputs": [],
      "stateMutability": "nonpayable",
      "type": "function"
    },
    {
      "inputs": [
        {
          "internalType": "bytes32",
          "name": "record",
          "type": "bytes32"
        }
      ],
      "name": "deleteBytes32Value",
      "outputs": [],
      "stateMutability": "nonpayable",
      "type": "function"
    },
    {
      "inputs": [
        {
          "internalType": "bytes32",
          "name": "record",
          "type": "bytes32"
        }
      ],
      "name": "deleteBytesValue",
      "outputs": [],
      "stateMutability": "nonpayable",
      "type": "function"
    },
    {
      "inputs": [
        {
          "internalType": "bytes32",
          "name": "record",
          "type": "bytes32"
        }
      ],
      "name": "deleteIntValue",
      "outputs": [],
      "stateMutability": "nonpayable",
      "type": "function"
    },
    {
      "inputs": [
        {
          "internalType": "bytes32",
          "name": "record",
          "type": "bytes32"
        }
      ],
      "name": "deleteStringValue",
      "outputs": [],
      "stateMutability": "nonpayable",
      "type": "function"
    },
    {
      "inputs": [
        {
          "internalType": "bytes32",
          "name": "record",
          "type": "bytes32"
        }
      ],
      "name": "deleteUIntValue",
      "outputs": [],
      "stateMutability": "nonpayable",
      "type": "function"
    },
    {
      "inputs": [
        {
          "internalType": "bytes32",
          "name": "record",
          "type": "bytes32"
        }
      ],
      "name": "getAddressValue",
      "outputs": [
        {
          "internalType": "address",
          "name": "",
          "type": "address"
        }
      ],
      "stateMutability": "view",
      "type": "function"
    },
    {
      "inputs": [
        {
          "internalType": "bytes32",
          "name": "record",
          "type": "bytes32"
        }
      ],
      "name": "getBooleanValue",
      "outputs": [
        {
          "internalType": "bool",
          "name": "",
          "type": "bool"
        }
      ],
      "stateMutability": "view",
      "type": "function"
    },
    {
      "inputs": [
        {
          "internalType": "bytes32",
          "name": "record",
          "type": "bytes32"
        }
      ],
      "name": "getBytes32Value",
      "outputs": [
        {
          "internalType": "bytes32",
          "name": "",
          "type": "bytes32"
        }
      ],
      "stateMutability": "view",
      "type": "function"
    },
    {
      "inputs": [
        {
          "internalType": "bytes32",
          "name": "record",
          "type": "bytes32"
        }
      ],
      "name": "getBytesValue",
      "outputs": [
        {
          "internalType": "bytes",
          "name": "",
          "type": "bytes"
        }
      ],
      "stateMutability": "view",
      "type": "function"
    },
    {
      "inputs": [
        {
          "internalType": "bytes32",
          "name": "record",
          "type": "bytes32"
        }
      ],
      "name": "getIntValue",
      "outputs": [
        {
          "internalType": "int256",
          "name": "",
          "type": "int256"
        }
      ],
      "stateMutability": "view",
      "type": "function"
    },
    {
      "inputs": [
        {
          "internalType": "bytes32",
          "name": "record",
          "type": "bytes32"
        }
      ],
      "name": "getStringValue",
      "outputs": [
        {
          "internalType": "string",
          "name": "",
          "type": "string"
        }
      ],
      "stateMutability": "view",
      "type": "function"
    },
    {
      "inputs": [
        {
          "internalType": "bytes32",
          "name": "record",
          "type": "bytes32"
        }
      ],
      "name": "getUIntValue",
      "outputs": [
        {
          "internalType": "uint256",
          "name": "",
          "type": "uint256"
        }
      ],
      "stateMutability": "view",
      "type": "function"
    },
    {
      "inputs": [
        {
          "internalType": "address",
          "name": "_owner",
          "type": "address"
        }
      ],
      "name": "nominateNewOwner",
      "outputs": [],
      "stateMutability": "nonpayable",
      "type": "function"
    },
    {
      "inputs": [],
      "name": "nominatedOwner",
      "outputs": [
        {
          "internalType": "address",
          "name": "",
          "type": "address"
        }
      ],
      "stateMutability": "view",
      "type": "function"
    },
    {
      "inputs": [],
      "name": "owner",
      "outputs": [
        {
          "internalType": "address",
          "name": "",
          "type": "address"
        }
      ],
      "stateMutability": "view",
      "type": "function"
    },
    {
      "inputs": [
        {
          "internalType": "bytes32",
          "name": "record",
          "type": "bytes32"
        },
        {
          "internalType": "address",
          "name": "value",
          "type": "address"
        }
      ],
      "name": "setAddressValue",
      "outputs": [],
      "stateMutability": "nonpayable",
      "type": "function"
    },
    {
      "inputs": [
        {
          "internalType": "address",
          "name": "_associatedContract",
          "type": "address"
        }
      ],
      "name": "setAssociatedContract",
      "outputs": [],
      "stateMutability": "nonpayable",
      "type": "function"
    },
    {
      "inputs": [
        {
          "internalType": "bytes32",
          "name": "record",
          "type": "bytes32"
        },
        {
          "internalType": "bool",
          "name": "value",
          "type": "bool"
        }
      ],
      "name": "setBooleanValue",
      "outputs": [],
      "stateMutability": "nonpayable",
      "type": "function"
    },
    {
      "inputs": [
        {
          "internalType": "bytes32",
          "name": "record",
          "type": "bytes32"
        },
        {
          "internalType": "bytes32",
          "name": "value",
          "type": "bytes32"
        }
      ],
      "name": "setBytes32Value",
      "outputs": [],
      "stateMutability": "nonpayable",
      "type": "function"
    },
    {
      "inputs": [
        {
          "internalType": "bytes32",
          "name": "record",
          "type": "bytes32"
        },
        {
          "internalType": "bytes",
          "name": "value",
          "type": "bytes"
        }
      ],
      "name": "setBytesValue",
      "outputs": [],
      "stateMutability": "nonpayable",
      "type": "function"
    },
    {
      "inputs": [
        {
          "internalType": "bytes32",
          "name": "record",
          "type": "bytes32"
        },
        {
          "internalType": "int256",
          "name": "value",
          "type": "int256"
        }
      ],
      "name": "setIntValue",
      "outputs": [],
      "stateMutability": "nonpayable",
      "type": "function"
    },
    {
      "inputs": [
        {
          "internalType": "bytes32",
          "name": "record",
          "type": "bytes32"
        },
        {
          "internalType": "string",
          "name": "value",
          "type": "string"
        }
      ],
      "name": "setStringValue",
      "outputs": [],
      "stateMutability": "nonpayable",
      "type": "function"
    },
    {
      "inputs": [
        {
          "internalType": "bytes32",
          "name": "record",
          "type": "bytes32"
        },
        {
          "internalType": "uint256",
          "name": "value",
          "type": "uint256"
        }
      ],
      "name": "setUIntValue",
      "outputs": [],
      "stateMutability": "nonpayable",
      "type": "function"
    }
  ],
  "bytecode": "0x60806040523480156200001157600080fd5b50604051620023e8380380620023e88339818101604052810190620000379190620001c5565b818181600073ffffffffffffffffffffffffffffffffffffffff168173ffffffffffffffffffffffffffffffffffffffff161415620000ad576040517f08c379a0000000000000000000000000000000000000000000000000000000008152600401620000a49062000288565b60405180910390fd5b806000806101000a81548173ffffffffffffffffffffffffffffffffffffffff021916908373ffffffffffffffffffffffffffffffffffffffff1602179055507fb532073b38c83145e3e5135377a08bf9aab55bc0fd7c1179cd4fb995d2a5159c600082604051620001219291906200025b565b60405180910390a15080600260006101000a81548173ffffffffffffffffffffffffffffffffffffffff021916908373ffffffffffffffffffffffffffffffffffffffff1602179055507f73f20cff579e8a4086fa607db83867595f1b6a798e718c0bfa0b94a404128e03816040516200019c91906200023e565b60405180910390a15050505062000332565b600081519050620001bf8162000318565b92915050565b60008060408385031215620001d957600080fd5b6000620001e985828601620001ae565b9250506020620001fc85828601620001ae565b9150509250929050565b6200021181620002bb565b82525050565b600062000226601983620002aa565b91506200023382620002ef565b602082019050919050565b600060208201905062000255600083018462000206565b92915050565b600060408201905062000272600083018562000206565b62000281602083018462000206565b9392505050565b60006020820190508181036000830152620002a38162000217565b9050919050565b600082825260208201905092915050565b6000620002c882620002cf565b9050919050565b600073ffffffffffffffffffffffffffffffffffffffff82169050919050565b7f4f776e657220616464726573732063616e6e6f74206265203000000000000000600082015250565b6200032381620002bb565b81146200032f57600080fd5b50565b6120a680620003426000396000f3fe608060405234801561001057600080fd5b50600436106101a95760003560e01c806353a47bb7116100f9578063a209a29c11610097578063ba69fcaa11610071578063ba69fcaa1461049e578063bdc963d8146104ba578063c9a52d2c146104ea578063f586606614610506576101a9565b8063a209a29c14610434578063a77aa49e14610464578063aefc4ccb14610480576101a9565b80638267a9ee116100d35780638267a9ee146103ae5780638da5cb5b146103ca5780639007127b146103e857806393fe424814610418576101a9565b806353a47bb71461036a5780635a2bf25a1461038857806379ba5097146103a4576101a9565b806325cf512d116101665780633eba9ed2116101405780633eba9ed2146102d257806344bfa56e146102ee5780634c77e5ba1461031e57806352f445ca1461034e576101a9565b806325cf512d1461027e5780633562fd201461029a5780633cc1635c146102b6576101a9565b8063025ec81a146101ae578063043106c0146101de5780630c55d925146101fa578063124f2418146102165780631627540c1461023257806317e7dd221461024e575b600080fd5b6101c860048036038101906101c3919061186a565b610522565b6040516101d59190611bec565b60405180910390f35b6101f860048036038101906101f3919061186a565b61053f565b005b610214600480360381019061020f919061186a565b610608565b005b610230600480360381019061022b919061186a565b6106ba565b005b61024c60048036038101906102479190611841565b610764565b005b6102686004803603810190610263919061186a565b61086d565b6040516102759190611bd1565b60405180910390f35b6102986004803603810190610293919061190b565b610897565b005b6102b460048036038101906102af9190611a2b565b610943565b005b6102d060048036038101906102cb919061186a565b6109ef565b005b6102ec60048036038101906102e791906118cf565b610aa5565b005b6103086004803603810190610303919061186a565b610b64565b6040516103159190611c07565b60405180910390f35b6103386004803603810190610333919061186a565b610c09565b6040516103459190611b8d565b60405180910390f35b61036860048036038101906103639190611841565b610c46565b005b610372610d4f565b60405161037f9190611b8d565b60405180910390f35b6103a2600480360381019061039d9190611893565b610d75565b005b6103ac610e5b565b005b6103c860048036038101906103c3919061186a565b61100c565b005b6103d26110b6565b6040516103df9190611b8d565b60405180910390f35b61040260048036038101906103fd919061186a565b6110da565b60405161040f9190611c29565b60405180910390f35b610432600480360381019061042d919061186a565b6110f7565b005b61044e6004803603810190610449919061186a565b6111a1565b60405161045b9190611c44565b60405180910390f35b61047e6004803603810190610479919061199b565b611246565b005b6104886112f2565b6040516104959190611b8d565b60405180910390f35b6104b860048036038101906104b3919061186a565b611318565b005b6104d460048036038101906104cf919061186a565b6113ca565b6040516104e19190611cc6565b60405180910390f35b61050460048036038101906104ff9190611947565b6113e7565b005b610520600480360381019061051b91906119d7565b6114a3565b005b600060076000838152602001908152602001600020549050919050565b600260009054906101000a900473ffffffffffffffffffffffffffffffffffffffff1673ffffffffffffffffffffffffffffffffffffffff163373ffffffffffffffffffffffffffffffffffffffff16146105cf576040517f08c379a00000000000000000000000000000000000000000000000000000000081526004016105c690611ca6565b60405180910390fd5b6005600082815260200190815260200160002060006101000a81549073ffffffffffffffffffffffffffffffffffffffff021916905550565b600260009054906101000a900473ffffffffffffffffffffffffffffffffffffffff1673ffffffffffffffffffffffffffffffffffffffff163373ffffffffffffffffffffffffffffffffffffffff1614610698576040517f08c379a000000000000000000000000000000000000000000000000000000000815260040161068f90611ca6565b60405180910390fd5b6006600082815260200190815260200160002060006106b7919061155f565b50565b600260009054906101000a900473ffffffffffffffffffffffffffffffffffffffff1673ffffffffffffffffffffffffffffffffffffffff163373ffffffffffffffffffffffffffffffffffffffff161461074a576040517f08c379a000000000000000000000000000000000000000000000000000000000815260040161074190611ca6565b60405180910390fd5b600760008281526020019081526020016000206000905550565b60008054906101000a900473ffffffffffffffffffffffffffffffffffffffff1673ffffffffffffffffffffffffffffffffffffffff163373ffffffffffffffffffffffffffffffffffffffff16146107f2576040517f08c379a00000000000000000000000000000000000000000000000000000000081526004016107e990611c86565b60405180910390fd5b80600160006101000a81548173ffffffffffffffffffffffffffffffffffffffff021916908373ffffffffffffffffffffffffffffffffffffffff1602179055507f906a1c6bd7e3091ea86693dd029a831c19049ce77f1dce2ce0bab1cacbabce22816040516108629190611b8d565b60405180910390a150565b60006008600083815260200190815260200160002060009054906101000a900460ff169050919050565b600260009054906101000a900473ffffffffffffffffffffffffffffffffffffffff1673ffffffffffffffffffffffffffffffffffffffff163373ffffffffffffffffffffffffffffffffffffffff1614610927576040517f08c379a000000000000000000000000000000000000000000000000000000000815260040161091e90611ca6565b60405180910390fd5b8060076000848152602001908152602001600020819055505050565b600260009054906101000a900473ffffffffffffffffffffffffffffffffffffffff1673ffffffffffffffffffffffffffffffffffffffff163373ffffffffffffffffffffffffffffffffffffffff16146109d3576040517f08c379a00000000000000000000000000000000000000000000000000000000081526004016109ca90611ca6565b60405180910390fd5b8060036000848152602001908152602001600020819055505050565b600260009054906101000a900473ffffffffffffffffffffffffffffffffffffffff1673ffffffffffffffffffffffffffffffffffffffff163373ffffffffffffffffffffffffffffffffffffffff1614610a7f576040517f08c379a0000000000000000000000000000000000000000000000000000000008152600401610a7690611ca6565b60405180910390fd5b6008600082815260200190815260200160002060006101000a81549060ff021916905550565b600260009054906101000a900473ffffffffffffffffffffffffffffffffffffffff1673ffffffffffffffffffffffffffffffffffffffff163373ffffffffffffffffffffffffffffffffffffffff1614610b35576040517f08c379a0000000000000000000000000000000000000000000000000000000008152600401610b2c90611ca6565b60405180910390fd5b806008600084815260200190815260200160002060006101000a81548160ff0219169083151502179055505050565b6060600660008381526020019081526020016000208054610b8490611e3e565b80601f0160208091040260200160405190810160405280929190818152602001828054610bb090611e3e565b8015610bfd5780601f10610bd257610100808354040283529160200191610bfd565b820191906000526020600020905b815481529060010190602001808311610be057829003601f168201915b50505050509050919050565b60006005600083815260200190815260200160002060009054906101000a900473ffffffffffffffffffffffffffffffffffffffff169050919050565b60008054906101000a900473ffffffffffffffffffffffffffffffffffffffff1673ffffffffffffffffffffffffffffffffffffffff163373ffffffffffffffffffffffffffffffffffffffff1614610cd4576040517f08c379a0000000000000000000000000000000000000000000000000000000008152600401610ccb90611c86565b60405180910390fd5b80600260006101000a81548173ffffffffffffffffffffffffffffffffffffffff021916908373ffffffffffffffffffffffffffffffffffffffff1602179055507f73f20cff579e8a4086fa607db83867595f1b6a798e718c0bfa0b94a404128e0381604051610d449190611b8d565b60405180910390a150565b600160009054906101000a900473ffffffffffffffffffffffffffffffffffffffff1681565b600260009054906101000a900473ffffffffffffffffffffffffffffffffffffffff1673ffffffffffffffffffffffffffffffffffffffff163373ffffffffffffffffffffffffffffffffffffffff1614610e05576040517f08c379a0000000000000000000000000000000000000000000000000000000008152600401610dfc90611ca6565b60405180910390fd5b806005600084815260200190815260200160002060006101000a81548173ffffffffffffffffffffffffffffffffffffffff021916908373ffffffffffffffffffffffffffffffffffffffff1602179055505050565b600160009054906101000a900473ffffffffffffffffffffffffffffffffffffffff1673ffffffffffffffffffffffffffffffffffffffff163373ffffffffffffffffffffffffffffffffffffffff1614610eeb576040517f08c379a0000000000000000000000000000000000000000000000000000000008152600401610ee290611c66565b60405180910390fd5b7fb532073b38c83145e3e5135377a08bf9aab55bc0fd7c1179cd4fb995d2a5159c60008054906101000a900473ffffffffffffffffffffffffffffffffffffffff16600160009054906101000a900473ffffffffffffffffffffffffffffffffffffffff16604051610f5e929190611ba8565b60405180910390a1600160009054906101000a900473ffffffffffffffffffffffffffffffffffffffff166000806101000a81548173ffffffffffffffffffffffffffffffffffffffff021916908373ffffffffffffffffffffffffffffffffffffffff1602179055506000600160006101000a81548173ffffffffffffffffffffffffffffffffffffffff021916908373ffffffffffffffffffffffffffffffffffffffff160217905550565b600260009054906101000a900473ffffffffffffffffffffffffffffffffffffffff1673ffffffffffffffffffffffffffffffffffffffff163373ffffffffffffffffffffffffffffffffffffffff161461109c576040517f08c379a000000000000000000000000000000000000000000000000000000000815260040161109390611ca6565b60405180910390fd5b600960008281526020019081526020016000206000905550565b60008054906101000a900473ffffffffffffffffffffffffffffffffffffffff1681565b600060096000838152602001908152602001600020549050919050565b600260009054906101000a900473ffffffffffffffffffffffffffffffffffffffff1673ffffffffffffffffffffffffffffffffffffffff163373ffffffffffffffffffffffffffffffffffffffff1614611187576040517f08c379a000000000000000000000000000000000000000000000000000000000815260040161117e90611ca6565b60405180910390fd5b600360008281526020019081526020016000206000905550565b60606004600083815260200190815260200160002080546111c190611e3e565b80601f01602080910402602001604051908101604052809291908181526020018280546111ed90611e3e565b801561123a5780601f1061120f5761010080835404028352916020019161123a565b820191906000526020600020905b81548152906001019060200180831161121d57829003601f168201915b50505050509050919050565b600260009054906101000a900473ffffffffffffffffffffffffffffffffffffffff1673ffffffffffffffffffffffffffffffffffffffff163373ffffffffffffffffffffffffffffffffffffffff16146112d6576040517f08c379a00000000000000000000000000000000000000000000000000000000081526004016112cd90611ca6565b60405180910390fd5b8060096000848152602001908152602001600020819055505050565b600260009054906101000a900473ffffffffffffffffffffffffffffffffffffffff1681565b600260009054906101000a900473ffffffffffffffffffffffffffffffffffffffff1673ffffffffffffffffffffffffffffffffffffffff163373ffffffffffffffffffffffffffffffffffffffff16146113a8576040517f08c379a000000000000000000000000000000000000000000000000000000000815260040161139f90611ca6565b60405180910390fd5b6004600082815260200190815260200160002060006113c7919061159f565b50565b600060036000838152602001908152602001600020549050919050565b600260009054906101000a900473ffffffffffffffffffffffffffffffffffffffff1673ffffffffffffffffffffffffffffffffffffffff163373ffffffffffffffffffffffffffffffffffffffff1614611477576040517f08c379a000000000000000000000000000000000000000000000000000000000815260040161146e90611ca6565b60405180910390fd5b8060066000848152602001908152602001600020908051906020019061149e9291906115df565b505050565b600260009054906101000a900473ffffffffffffffffffffffffffffffffffffffff1673ffffffffffffffffffffffffffffffffffffffff163373ffffffffffffffffffffffffffffffffffffffff1614611533576040517f08c379a000000000000000000000000000000000000000000000000000000000815260040161152a90611ca6565b60405180910390fd5b8060046000848152602001908152602001600020908051906020019061155a929190611665565b505050565b50805461156b90611e3e565b6000825580601f1061157d575061159c565b601f01602090049060005260206000209081019061159b91906116eb565b5b50565b5080546115ab90611e3e565b6000825580601f106115bd57506115dc565b601f0160209004906000526020600020908101906115db91906116eb565b5b50565b8280546115eb90611e3e565b90600052602060002090601f01602090048101928261160d5760008555611654565b82601f1061162657805160ff1916838001178555611654565b82800160010185558215611654579182015b82811115611653578251825591602001919060010190611638565b5b50905061166191906116eb565b5090565b82805461167190611e3e565b90600052602060002090601f01602090048101928261169357600085556116da565b82601f106116ac57805160ff19168380011785556116da565b828001600101855582156116da579182015b828111156116d95782518255916020019190600101906116be565b5b5090506116e791906116eb565b5090565b5b808211156117045760008160009055506001016116ec565b5090565b600061171b61171684611d06565b611ce1565b90508281526020810184848401111561173357600080fd5b61173e848285611dfc565b509392505050565b600061175961175484611d37565b611ce1565b90508281526020810184848401111561177157600080fd5b61177c848285611dfc565b509392505050565b60008135905061179381611ffd565b92915050565b6000813590506117a881612014565b92915050565b6000813590506117bd8161202b565b92915050565b600082601f8301126117d457600080fd5b81356117e4848260208601611708565b91505092915050565b6000813590506117fc81612042565b92915050565b600082601f83011261181357600080fd5b8135611823848260208601611746565b91505092915050565b60008135905061183b81612059565b92915050565b60006020828403121561185357600080fd5b600061186184828501611784565b91505092915050565b60006020828403121561187c57600080fd5b600061188a848285016117ae565b91505092915050565b600080604083850312156118a657600080fd5b60006118b4858286016117ae565b92505060206118c585828601611784565b9150509250929050565b600080604083850312156118e257600080fd5b60006118f0858286016117ae565b925050602061190185828601611799565b9150509250929050565b6000806040838503121561191e57600080fd5b600061192c858286016117ae565b925050602061193d858286016117ae565b9150509250929050565b6000806040838503121561195a57600080fd5b6000611968858286016117ae565b925050602083013567ffffffffffffffff81111561198557600080fd5b611991858286016117c3565b9150509250929050565b600080604083850312156119ae57600080fd5b60006119bc858286016117ae565b92505060206119cd858286016117ed565b9150509250929050565b600080604083850312156119ea57600080fd5b60006119f8858286016117ae565b925050602083013567ffffffffffffffff811115611a1557600080fd5b611a2185828601611802565b9150509250929050565b60008060408385031215611a3e57600080fd5b6000611a4c858286016117ae565b9250506020611a5d8582860161182c565b9150509250929050565b611a7081611da0565b82525050565b611a7f81611db2565b82525050565b611a8e81611dbe565b82525050565b6000611a9f82611d68565b611aa98185611d7e565b9350611ab9818560208601611e0b565b611ac281611eff565b840191505092915050565b611ad681611dc8565b82525050565b6000611ae782611d73565b611af18185611d8f565b9350611b01818560208601611e0b565b611b0a81611eff565b840191505092915050565b6000611b22603583611d8f565b9150611b2d82611f10565b604082019050919050565b6000611b45602f83611d8f565b9150611b5082611f5f565b604082019050919050565b6000611b68603483611d8f565b9150611b7382611fae565b604082019050919050565b611b8781611df2565b82525050565b6000602082019050611ba26000830184611a67565b92915050565b6000604082019050611bbd6000830185611a67565b611bca6020830184611a67565b9392505050565b6000602082019050611be66000830184611a76565b92915050565b6000602082019050611c016000830184611a85565b92915050565b60006020820190508181036000830152611c218184611a94565b905092915050565b6000602082019050611c3e6000830184611acd565b92915050565b60006020820190508181036000830152611c5e8184611adc565b905092915050565b60006020820190508181036000830152611c7f81611b15565b9050919050565b60006020820190508181036000830152611c9f81611b38565b9050919050565b60006020820190508181036000830152611cbf81611b5b565b9050919050565b6000602082019050611cdb6000830184611b7e565b92915050565b6000611ceb611cfc565b9050611cf78282611e70565b919050565b6000604051905090565b600067ffffffffffffffff821115611d2157611d20611ed0565b5b611d2a82611eff565b9050602081019050919050565b600067ffffffffffffffff821115611d5257611d51611ed0565b5b611d5b82611eff565b9050602081019050919050565b600081519050919050565b600081519050919050565b600082825260208201905092915050565b600082825260208201905092915050565b6000611dab82611dd2565b9050919050565b60008115159050919050565b6000819050919050565b6000819050919050565b600073ffffffffffffffffffffffffffffffffffffffff82169050919050565b6000819050919050565b82818337600083830152505050565b60005b83811015611e29578082015181840152602081019050611e0e565b83811115611e38576000848401525b50505050565b60006002820490506001821680611e5657607f821691505b60208210811415611e6a57611e69611ea1565b5b50919050565b611e7982611eff565b810181811067ffffffffffffffff82111715611e9857611e97611ed0565b5b80604052505050565b7f4e487b7100000000000000000000000000000000000000000000000000000000600052602260045260246000fd5b7f4e487b7100000000000000000000000000000000000000000000000000000000600052604160045260246000fd5b6000601f19601f8301169050919050565b7f596f75206d757374206265206e6f6d696e61746564206265666f726520796f7560008201527f2063616e20616363657074206f776e6572736869700000000000000000000000602082015250565b7f4f6e6c792074686520636f6e7472616374206f776e6572206d6179207065726660008201527f6f726d207468697320616374696f6e0000000000000000000000000000000000602082015250565b7f4f6e6c7920746865206173736f63696174656420636f6e74726163742063616e60008201527f20706572666f726d207468697320616374696f6e000000000000000000000000602082015250565b61200681611da0565b811461201157600080fd5b50565b61201d81611db2565b811461202857600080fd5b50565b61203481611dbe565b811461203f57600080fd5b50565b61204b81611dc8565b811461205657600080fd5b50565b61206281611df2565b811461206d57600080fd5b5056fea2646970667358221220c4bd5b1e666cf687489b6d9ee0db869314780c8be2f72f27f81e076104f5085b64736f6c63430008040033",
  "linkReferences": {},
  "deployedLinkReferences": {}
}