{
  "_format": "hh-sol-artifact-1",
  "contractName": "ExchangeRates",
  "sourceName": "contracts/ExchangeRates.sol",
  "abi": [
    {
      "inputs": [
        {
          "internalType": "address",
          "name": "_owner",
          "type": "address"
        },
        {
          "internalType": "address",
          "name": "_dvdxOracle",
          "type": "address"
        },
        {
          "internalType": "bytes4[]",
          "name": "_currencyKeys",
          "type": "bytes4[]"
        },
        {
          "internalType": "uint256[]",
          "name": "_newRates",
          "type": "uint256[]"
        },
        {
          "internalType": "address",
          "name": "_chainlinkToken",
          "type": "address"
        },
        {
          "internalType": "address",
          "name": "_chainlinkOracle",
          "type": "address"
        },
        {
          "internalType": "bytes32",
          "name": "_chainlinkJobId",
          "type": "bytes32"
        }
      ],
      "stateMutability": "nonpayable",
      "type": "constructor"
    },
    {
      "anonymous": false,
      "inputs": [
        {
          "indexed": true,
          "internalType": "bytes32",
          "name": "id",
          "type": "bytes32"
        }
      ],
      "name": "ChainlinkCancelled",
      "type": "event"
    },
    {
      "anonymous": false,
      "inputs": [
        {
          "indexed": true,
          "internalType": "bytes32",
          "name": "id",
          "type": "bytes32"
        }
      ],
      "name": "ChainlinkFulfilled",
      "type": "event"
    },
    {
      "anonymous": false,
      "inputs": [
        {
          "indexed": true,
          "internalType": "bytes32",
          "name": "id",
          "type": "bytes32"
        }
      ],
      "name": "ChainlinkRequested",
      "type": "event"
    },
    {
      "anonymous": false,
      "inputs": [
        {
          "indexed": false,
          "internalType": "bytes4",
          "name": "currencyKey",
          "type": "bytes4"
        },
        {
          "indexed": false,
          "internalType": "uint256",
          "name": "entryPoint",
          "type": "uint256"
        },
        {
          "indexed": false,
          "internalType": "uint256",
          "name": "upperLimit",
          "type": "uint256"
        },
        {
          "indexed": false,
          "internalType": "uint256",
          "name": "lowerLimit",
          "type": "uint256"
        }
      ],
      "name": "InversePriceConfigured",
      "type": "event"
    },
    {
      "anonymous": false,
      "inputs": [
        {
          "indexed": false,
          "internalType": "bytes4",
          "name": "currencyKey",
          "type": "bytes4"
        }
      ],
      "name": "InversePriceFrozen",
      "type": "event"
    },
    {
      "anonymous": false,
      "inputs": [
        {
          "indexed": false,
          "internalType": "address",
          "name": "newOracle",
          "type": "address"
        }
      ],
      "name": "OracleUpdated",
      "type": "event"
    },
    {
      "anonymous": false,
      "inputs": [
        {
          "indexed": false,
          "internalType": "address",
          "name": "oldOwner",
          "type": "address"
        },
        {
          "indexed": false,
          "internalType": "address",
          "name": "newOwner",
          "type": "address"
        }
      ],
      "name": "OwnerChanged",
      "type": "event"
    },
    {
      "anonymous": false,
      "inputs": [
        {
          "indexed": false,
          "internalType": "address",
          "name": "newOwner",
          "type": "address"
        }
      ],
      "name": "OwnerNominated",
      "type": "event"
    },
    {
      "anonymous": false,
      "inputs": [
        {
          "indexed": false,
          "internalType": "bytes4",
          "name": "currencyKey",
          "type": "bytes4"
        }
      ],
      "name": "RateDeleted",
      "type": "event"
    },
    {
      "anonymous": false,
      "inputs": [
        {
          "indexed": false,
          "internalType": "uint256",
          "name": "rateStalePeriod",
          "type": "uint256"
        }
      ],
      "name": "RateStalePeriodUpdated",
      "type": "event"
    },
    {
      "anonymous": false,
      "inputs": [
        {
          "indexed": false,
          "internalType": "bytes4[]",
          "name": "currencyKeys",
          "type": "bytes4[]"
        },
        {
          "indexed": false,
          "internalType": "uint256[]",
          "name": "newRates",
          "type": "uint256[]"
        }
      ],
      "name": "RatesUpdated",
      "type": "event"
    },
    {
      "anonymous": false,
      "inputs": [
        {
          "indexed": false,
          "internalType": "address",
          "name": "newBeneficiary",
          "type": "address"
        }
      ],
      "name": "SelfDestructBeneficiaryUpdated",
      "type": "event"
    },
    {
      "anonymous": false,
      "inputs": [
        {
          "indexed": false,
          "internalType": "uint256",
          "name": "selfDestructDelay",
          "type": "uint256"
        }
      ],
      "name": "SelfDestructInitiated",
      "type": "event"
    },
    {
      "anonymous": false,
      "inputs": [],
      "name": "SelfDestructTerminated",
      "type": "event"
    },
    {
      "anonymous": false,
      "inputs": [
        {
          "indexed": false,
          "internalType": "address",
          "name": "beneficiary",
          "type": "address"
        }
      ],
      "name": "SelfDestructed",
      "type": "event"
    },
    {
      "inputs": [],
      "name": "SELFDESTRUCT_DELAY",
      "outputs": [
        {
          "internalType": "uint256",
          "name": "",
          "type": "uint256"
        }
      ],
      "stateMutability": "view",
      "type": "function"
    },
    {
      "inputs": [],
      "name": "acceptOwnership",
      "outputs": [],
      "stateMutability": "nonpayable",
      "type": "function"
    },
    {
      "inputs": [
        {
          "internalType": "bytes4[]",
          "name": "currencyKeys",
          "type": "bytes4[]"
        }
      ],
      "name": "anyRateIsStale",
      "outputs": [
        {
          "internalType": "bool",
          "name": "",
          "type": "bool"
        }
      ],
      "stateMutability": "view",
      "type": "function"
    },
    {
      "inputs": [
        {
          "internalType": "bytes4",
          "name": "currencyKey",
          "type": "bytes4"
        }
      ],
      "name": "deleteRate",
      "outputs": [],
      "stateMutability": "nonpayable",
      "type": "function"
    },
    {
      "inputs": [],
      "name": "dvdxOracle",
      "outputs": [
        {
          "internalType": "address",
          "name": "",
          "type": "address"
        }
      ],
      "stateMutability": "view",
      "type": "function"
    },
    {
      "inputs": [
        {
          "internalType": "bytes4",
          "name": "sourceCurrencyKey",
          "type": "bytes4"
        },
        {
          "internalType": "uint256",
          "name": "sourceAmount",
          "type": "uint256"
        },
        {
          "internalType": "bytes4",
          "name": "destinationCurrencyKey",
          "type": "bytes4"
        }
      ],
      "name": "effectiveValue",
      "outputs": [
        {
          "internalType": "uint256",
          "name": "",
          "type": "uint256"
        }
      ],
      "stateMutability": "view",
      "type": "function"
    },
    {
      "inputs": [
        {
          "internalType": "bytes32",
          "name": "_requestId",
          "type": "bytes32"
        },
        {
          "internalType": "uint256",
          "name": "_price",
          "type": "uint256"
        }
      ],
      "name": "fulfill",
      "outputs": [],
      "stateMutability": "nonpayable",
      "type": "function"
    },
    {
      "inputs": [],
      "name": "getChainlinkToken",
      "outputs": [
        {
          "internalType": "address",
          "name": "",
          "type": "address"
        }
      ],
      "stateMutability": "view",
      "type": "function"
    },
    {
      "inputs": [],
      "name": "getOracle",
      "outputs": [
        {
          "internalType": "address",
          "name": "",
          "type": "address"
        }
      ],
      "stateMutability": "view",
      "type": "function"
    },
    {
      "inputs": [],
      "name": "initiateSelfDestruct",
      "outputs": [],
      "stateMutability": "nonpayable",
      "type": "function"
    },
    {
      "inputs": [],
      "name": "initiationTime",
      "outputs": [
        {
          "internalType": "uint256",
          "name": "",
          "type": "uint256"
        }
      ],
      "stateMutability": "view",
      "type": "function"
    },
    {
      "inputs": [
        {
          "internalType": "bytes4",
          "name": "",
          "type": "bytes4"
        }
      ],
      "name": "inversePricing",
      "outputs": [
        {
          "internalType": "uint256",
          "name": "entryPoint",
          "type": "uint256"
        },
        {
          "internalType": "uint256",
          "name": "upperLimit",
          "type": "uint256"
        },
        {
          "internalType": "uint256",
          "name": "lowerLimit",
          "type": "uint256"
        },
        {
          "internalType": "bool",
          "name": "frozen",
          "type": "bool"
        }
      ],
      "stateMutability": "view",
      "type": "function"
    },
    {
      "inputs": [
        {
          "internalType": "uint256",
          "name": "",
          "type": "uint256"
        }
      ],
      "name": "invertedKeys",
      "outputs": [
        {
          "internalType": "bytes4",
          "name": "",
          "type": "bytes4"
        }
      ],
      "stateMutability": "view",
      "type": "function"
    },
    {
      "inputs": [
        {
          "internalType": "bytes4",
          "name": "currencyKey",
          "type": "bytes4"
        }
      ],
      "name": "lastRateUpdateTimeForCurrency",
      "outputs": [
        {
          "internalType": "uint256",
          "name": "",
          "type": "uint256"
        }
      ],
      "stateMutability": "view",
      "type": "function"
    },
    {
      "inputs": [
        {
          "internalType": "bytes4",
          "name": "",
          "type": "bytes4"
        }
      ],
      "name": "lastRateUpdateTimes",
      "outputs": [
        {
          "internalType": "uint256",
          "name": "",
          "type": "uint256"
        }
      ],
      "stateMutability": "view",
      "type": "function"
    },
    {
      "inputs": [
        {
          "internalType": "bytes4[]",
          "name": "currencyKeys",
          "type": "bytes4[]"
        }
      ],
      "name": "lastRateUpdateTimesForCurrencies",
      "outputs": [
        {
          "internalType": "uint256[]",
          "name": "",
          "type": "uint256[]"
        }
      ],
      "stateMutability": "view",
      "type": "function"
    },
    {
      "inputs": [
        {
          "internalType": "address",
          "name": "_owner",
          "type": "address"
        }
      ],
      "name": "nominateNewOwner",
      "outputs": [],
      "stateMutability": "nonpayable",
      "type": "function"
    },
    {
      "inputs": [],
      "name": "nominatedOwner",
      "outputs": [
        {
          "internalType": "address",
          "name": "",
          "type": "address"
        }
      ],
      "stateMutability": "view",
      "type": "function"
    },
    {
      "inputs": [],
      "name": "oracleJobId",
      "outputs": [
        {
          "internalType": "bytes32",
          "name": "",
          "type": "bytes32"
        }
      ],
      "stateMutability": "view",
      "type": "function"
    },
    {
      "inputs": [],
      "name": "owner",
      "outputs": [
        {
          "internalType": "address",
          "name": "",
          "type": "address"
        }
      ],
      "stateMutability": "view",
      "type": "function"
    },
    {
      "inputs": [
        {
          "internalType": "bytes4",
          "name": "currencyKey",
          "type": "bytes4"
        }
      ],
      "name": "rateForCurrency",
      "outputs": [
        {
          "internalType": "uint256",
          "name": "",
          "type": "uint256"
        }
      ],
      "stateMutability": "view",
      "type": "function"
    },
    {
      "inputs": [
        {
          "internalType": "bytes4",
          "name": "currencyKey",
          "type": "bytes4"
        }
      ],
      "name": "rateIsFrozen",
      "outputs": [
        {
          "internalType": "bool",
          "name": "",
          "type": "bool"
        }
      ],
      "stateMutability": "view",
      "type": "function"
    },
    {
      "inputs": [
        {
          "internalType": "bytes4",
          "name": "currencyKey",
          "type": "bytes4"
        }
      ],
      "name": "rateIsStale",
      "outputs": [
        {
          "internalType": "bool",
          "name": "",
          "type": "bool"
        }
      ],
      "stateMutability": "view",
      "type": "function"
    },
    {
      "inputs": [],
      "name": "rateStalePeriod",
      "outputs": [
        {
          "internalType": "uint256",
          "name": "",
          "type": "uint256"
        }
      ],
      "stateMutability": "view",
      "type": "function"
    },
    {
      "inputs": [
        {
          "internalType": "bytes4",
          "name": "",
          "type": "bytes4"
        }
      ],
      "name": "rates",
      "outputs": [
        {
          "internalType": "uint256",
          "name": "",
          "type": "uint256"
        }
      ],
      "stateMutability": "view",
      "type": "function"
    },
    {
      "inputs": [
        {
          "internalType": "bytes4[]",
          "name": "currencyKeys",
          "type": "bytes4[]"
        }
      ],
      "name": "ratesForCurrencies",
      "outputs": [
        {
          "internalType": "uint256[]",
          "name": "",
          "type": "uint256[]"
        }
      ],
      "stateMutability": "view",
      "type": "function"
    },
    {
      "inputs": [
        {
          "internalType": "bytes4",
          "name": "currencyKey",
          "type": "bytes4"
        }
      ],
      "name": "removeInversePricing",
      "outputs": [],
      "stateMutability": "nonpayable",
      "type": "function"
    },
    {
      "inputs": [
        {
          "internalType": "bytes4",
          "name": "currencyKey",
          "type": "bytes4"
        },
        {
          "internalType": "string",
          "name": "asset",
          "type": "string"
        }
      ],
      "name": "requestCryptoPrice",
      "outputs": [],
      "stateMutability": "nonpayable",
      "type": "function"
    },
    {
      "inputs": [],
      "name": "selfDestruct",
      "outputs": [],
      "stateMutability": "nonpayable",
      "type": "function"
    },
    {
      "inputs": [],
      "name": "selfDestructBeneficiary",
      "outputs": [
        {
          "internalType": "address",
          "name": "",
          "type": "address"
        }
      ],
      "stateMutability": "view",
      "type": "function"
    },
    {
      "inputs": [],
      "name": "selfDestructInitiated",
      "outputs": [
        {
          "internalType": "bool",
          "name": "",
          "type": "bool"
        }
      ],
      "stateMutability": "view",
      "type": "function"
    },
    {
      "inputs": [
        {
          "internalType": "address",
          "name": "_dvdxOracle",
          "type": "address"
        }
      ],
      "name": "setDVDXOracle",
      "outputs": [],
      "stateMutability": "nonpayable",
      "type": "function"
    },
    {
      "inputs": [
        {
          "internalType": "bytes4",
          "name": "currencyKey",
          "type": "bytes4"
        },
        {
          "internalType": "uint256",
          "name": "entryPoint",
          "type": "uint256"
        },
        {
          "internalType": "uint256",
          "name": "upperLimit",
          "type": "uint256"
        },
        {
          "internalType": "uint256",
          "name": "lowerLimit",
          "type": "uint256"
        }
      ],
      "name": "setInversePricing",
      "outputs": [],
      "stateMutability": "nonpayable",
      "type": "function"
    },
    {
      "inputs": [
        {
          "internalType": "uint256",
          "name": "_time",
          "type": "uint256"
        }
      ],
      "name": "setRateStalePeriod",
      "outputs": [],
      "stateMutability": "nonpayable",
      "type": "function"
    },
    {
      "inputs": [
        {
          "internalType": "address",
          "name": "_beneficiary",
          "type": "address"
        }
      ],
      "name": "setSelfDestructBeneficiary",
      "outputs": [],
      "stateMutability": "nonpayable",
      "type": "function"
    },
    {
      "inputs": [],
      "name": "terminateSelfDestruct",
      "outputs": [],
      "stateMutability": "nonpayable",
      "type": "function"
    },
    {
      "inputs": [
        {
          "internalType": "bytes4[]",
          "name": "currencyKeys",
          "type": "bytes4[]"
        },
        {
          "internalType": "uint256[]",
          "name": "newRates",
          "type": "uint256[]"
        },
        {
          "internalType": "uint256",
          "name": "timeSent",
          "type": "uint256"
        }
      ],
      "name": "updateRates",
      "outputs": [
        {
          "internalType": "bool",
          "name": "",
          "type": "bool"
        }
      ],
      "stateMutability": "nonpayable",
      "type": "function"
    },
    {
      "inputs": [],
      "name": "withdrawLink",
      "outputs": [],
      "stateMutability": "nonpayable",
      "type": "function"
    },
    {
      "inputs": [
        {
          "internalType": "uint256",
          "name": "",
          "type": "uint256"
        }
      ],
      "name": "xdrParticipants",
      "outputs": [
        {
          "internalType": "bytes4",
          "name": "",
          "type": "bytes4"
        }
      ],
      "stateMutability": "view",
      "type": "function"
    }
  ],
  "bytecode": "0x608060405260016004556301dfe200600d553480156200001e57600080fd5b506040516200451d3803806200451d833981016040819052620000419162000cf1565b86806001600160a01b0381166200009f5760405162461bcd60e51b815260206004820152601960248201527f4f776e657220616464726573732063616e6e6f7420626520300000000000000060448201526064015b60405180910390fd5b600680546001600160a01b0319166001600160a01b038316908117909155604080516000815260208101929092527fb532073b38c83145e3e5135377a08bf9aab55bc0fd7c1179cd4fb995d2a5159c910160405180910390a1506001600160a01b0381166200015c5760405162461bcd60e51b815260206004820152602260248201527f4f776e6572206d757374206e6f7420626520746865207a65726f206164647265604482015261737360f01b606482015260840162000096565b60098054610100600160a81b0319166101006001600160a01b038416908102919091179091556040519081527fd5da63a0b864b315bc04128dedbc93888c8529ee6cf47ce664dc204339228c539060200160405180910390a1508351855114620002215760405162461bcd60e51b815260206004820152602f60248201527f43757272656e6379206b6579206c656e67746820616e642072617465206c656e60448201526e33ba341036bab9ba1036b0ba31b41760891b606482015260840162000096565b600c80546001600160a01b0319166001600160a01b03881617905560408051630241ebdb60e61b8152905173__$b8d33eeb36ac0d1e81cd70156e0043e778$__9163907af6c0916004808301926020929190829003018186803b1580156200028857600080fd5b505af41580156200029d573d6000803e3d6000fd5b505050506040513d601f19601f82011682018060405250810190620002c3919062000e24565b630aaa688f60e31b60008190527f083aed0354b3df3053da7459f8afde9a67790d302b2c0aab796ad8716aafcb7991909155600b6020908152427f75c3e0353eb08a2828cc8ffa435e3f92fcc62aef060862902d39c2b802217a2f556040805160a081018252928352631cd0555160e21b918301919091526339a1a42360e11b908201526339a2aaa960e11b6060820152630734742560e41b60808201526200037190600e90600562000ba6565b506200037f858542620003c6565b50600280546001600160a01b0319166001600160a01b038516179055600380546001600160a01b0319166001600160a01b038416179055600f555062000fb2945050505050565b60008251845114620004415760405162461bcd60e51b815260206004820152603860248201527f43757272656e6379206b6579206172726179206c656e677468206d757374206d60448201527f61746368207261746573206172726179206c656e6774682e0000000000000000606482015260840162000096565b6200044f6102584262000f11565b82106200049f5760405162461bcd60e51b815260206004820152601f60248201527f54696d6520697320746f6f2066617220696e746f207468652066757475726500604482015260640162000096565b60005b8451811015620007bc57838181518110620004cd57634e487b7160e01b600052603260045260246000fd5b6020026020010151600014156200054d5760405162461bcd60e51b815260206004820152603960248201527f5a65726f206973206e6f7420612076616c696420726174652c20706c6561736560448201527f2063616c6c2064656c6574655261746520696e73746561642e00000000000000606482015260840162000096565b8481815181106200056e57634e487b7160e01b600052603260045260246000fd5b60200260200101516001600160e01b031916630aaa688f60e31b1415620005f25760405162461bcd60e51b815260206004820152603160248201527f52617465206f6620555344782063616e6e6f7420626520757064617465642c2060448201527034ba13b99030b63bb0bcb9902aa724aa1760791b606482015260840162000096565b600b60008683815181106200061757634e487b7160e01b600052603260045260246000fd5b60200260200101516001600160e01b0319166001600160e01b0319168152602001908152602001600020548310156200065057620007a7565b620006b28582815181106200067557634e487b7160e01b600052603260045260246000fd5b60200260200101518583815181106200069e57634e487b7160e01b600052603260045260246000fd5b60200260200101516200080d60201b60201c565b848281518110620006d357634e487b7160e01b600052603260045260246000fd5b6020026020010181815250508381815181106200070057634e487b7160e01b600052603260045260246000fd5b6020026020010151600a60008784815181106200072d57634e487b7160e01b600052603260045260246000fd5b60200260200101516001600160e01b0319166001600160e01b03191681526020019081526020016000208190555082600b60008784815181106200078157634e487b7160e01b600052603260045260246000fd5b6020908102919091018101516001600160e01b0319168252810191909152604001600020555b80620007b38162000f68565b915050620004a2565b507f7a72efae5f6b256f1ca71728b01f9dd7004ff3770dcaef4c44872b94d9f9e91b8484604051620007f092919062000e3d565b60405180910390a1620008038262000952565b5060019392505050565b6001600160e01b03198216600090815260116020526040812080546200083757829150506200094c565b6001600160e01b031984166000908152600a6020526040902054600382015460ff16620009485760006200087f6002846000015462000b7560201b62001caa1790919060201c565b9050848111620008935760009150620008b0565b620008ad858262000b8a60201b62001cbf1790919060201c565b91505b82600101548210620008c95782600101549150620008dd565b82600201548211620008dd57826002015491505b8260010154821480620008f35750826002015482145b15620009465760038301805460ff191660011790556040516001600160e01b0319871681527f684252d859279842b23fadbb3debd086980415e4b545844875fd4189cac852a89060200160405180910390a15b505b9150505b92915050565b6000805b6005811015620009f257620009db82600a6000600e85600581106200098b57634e487b7160e01b600052603260045260246000fd5b600891828204019190066004029054906101000a900460e01b6001600160e01b0319166001600160e01b03191681526020019081526020016000205462000b9860201b62001ccb1790919060201c565b915080620009e98162000f68565b91505062000956565b50622c222960e91b60009081527ffdd61a22d0b5a4a499c25bf97900dec5a599e946f9e7e97be7026fa208fcbadb829055600b6020527f7cc0138a3ea55e873434f479cb6068a8e6a895fb02308a6e11c012d4576868e083905560408051600180825281830190925290816020016020820280368337019050509050622c222960e91b8160008151811062000a9757634e487b7160e01b600052603260045260246000fd5b6001600160e01b031992909216602092830291909101909101526040805160018082528183019092526000918160200160208202803683375050622c222960e91b6000908152600a6020527ffdd61a22d0b5a4a499c25bf97900dec5a599e946f9e7e97be7026fa208fcbadb5483519394509284925062000b2857634e487b7160e01b600052603260045260246000fd5b6020026020010181815250507f7a72efae5f6b256f1ca71728b01f9dd7004ff3770dcaef4c44872b94d9f9e91b828260405162000b6792919062000e3d565b60405180910390a150505050565b600062000b83828462000f2c565b9392505050565b600062000b83828462000f4e565b600062000b83828462000f11565b60018301918390821562000c345791602002820160005b8382111562000c0057835183826101000a81548163ffffffff021916908360e01c0217905550926020019260040160208160030104928301926001030262000bbd565b801562000c325782816101000a81549063ffffffff021916905560040160208160030104928301926001030262000c00565b505b5062000c4292915062000c46565b5090565b5b8082111562000c42576000815560010162000c47565b80516001600160a01b038116811462000c7557600080fd5b919050565b600082601f83011262000c8b578081fd5b8151602062000ca462000c9e8362000eeb565b62000eb8565b80838252828201915082860187848660051b890101111562000cc4578586fd5b855b8581101562000ce45781518452928401929084019060010162000cc6565b5090979650505050505050565b600080600080600080600060e0888a03121562000d0c578283fd5b62000d178862000c5d565b9650602062000d28818a0162000c5d565b60408a01519097506001600160401b038082111562000d45578586fd5b818b0191508b601f83011262000d59578586fd5b815162000d6a62000c9e8262000eeb565b8082825285820191508585018f878560051b880101111562000d8a57898afd5b8995505b8386101562000dc45780516001600160e01b03198116811462000daf578a8bfd5b83526001959095019491860191860162000d8e565b5060608e0151909a50945050508083111562000dde578586fd5b505062000dee8a828b0162000c7a565b94505062000dff6080890162000c5d565b925062000e0f60a0890162000c5d565b915060c0880151905092959891949750929550565b60006020828403121562000e36578081fd5b5051919050565b604080825283519082018190526000906020906060840190828701845b8281101562000e825781516001600160e01b0319168452928401929084019060010162000e5a565b50505083810382850152845180825285830191830190845b8181101562000ce45783518352928401929184019160010162000e9a565b604051601f8201601f191681016001600160401b038111828210171562000ee35762000ee362000f9c565b604052919050565b60006001600160401b0382111562000f075762000f0762000f9c565b5060051b60200190565b6000821982111562000f275762000f2762000f86565b500190565b600081600019048311821515161562000f495762000f4962000f86565b500290565b60008282101562000f635762000f6362000f86565b500390565b600060001982141562000f7f5762000f7f62000f86565b5060010190565b634e487b7160e01b600052601160045260246000fd5b634e487b7160e01b600052604160045260246000fd5b61355b8062000fc26000396000f3fe608060405234801561001057600080fd5b506004361061023d5760003560e01c8063833b1fce1161013b578063bd32aa44116100b8578063d24bdad51161007c578063d24bdad5146104ea578063d95bb9a1146104fd578063de5eb83214610557578063e1686e7214610577578063ea3d41091461059757600080fd5b8063bd32aa441461047a578063c0e59e4d14610482578063c17266eb146104ac578063c58aaae6146104bf578063cf8f261d146104d757600080fd5b8063a461fc82116100ff578063a461fc821461040d578063aa687daf14610417578063ad752d671461042a578063af1ff9721461045a578063b8225dec1461046d57600080fd5b8063833b1fce146103cf57806389f8ab94146103d75780638da5cb5b146103ea5780638dc654a2146103fd5780639cb8a26a1461040557600080fd5b80633278c960116101c957806353a47bb71161018d57806353a47bb71461036e5780635dc2944a1461038157806370d5061f146103a157806379ba5097146103b457806379cb657a146103bc57600080fd5b80633278c9601461031a5780633608069414610322578063370d62ad1461033557806339d66fc0146103485780634357855e1461035b57600080fd5b806317c70de41161021057806317c70de4146102a65780631d2fed16146102af57806320714f88146102d25780632de3e75f146102e55780632ea913d4146102ee57600080fd5b80630b426b66146102425780630ee4951b146102575780631627540c14610273578063165d35e114610286575b600080fd5b610255610250366004612daa565b6105aa565b005b610260600d5481565b6040519081526020015b60405180910390f35b610255610281366004612daa565b610632565b61028e6106aa565b6040516001600160a01b03909116815260200161026a565b61026060085481565b6102c26102bd366004612e0a565b6106c3565b604051901515815260200161026a565b6102556102e0366004612daa565b610703565b610260600f5481565b6103016102fc36600461303a565b6107ea565b6040516001600160e01b0319909116815260200161026a565b610255610821565b610255610330366004612f0e565b610885565b6102c2610343366004612dd8565b61095b565b610260610356366004612fc7565b610a3a565b610255610369366004612eed565b610ad8565b60075461028e906001600160a01b031681565b61039461038f366004612dd8565b610cf3565b60405161026a91906131ca565b600c5461028e906001600160a01b031681565b610255610df2565b6102556103ca36600461303a565b610edc565b61028e610f3b565b6103946103e5366004612dd8565b610f4f565b60065461028e906001600160a01b031681565b610255611047565b6102556111cb565b6102606224ea0081565b61030161042536600461303a565b611319565b6102c2610438366004612f0e565b6001600160e01b03191660009081526011602052604090206003015460ff1690565b610260610468366004612f0e565b611346565b6009546102c29060ff1681565b610255611362565b610260610490366004612f0e565b6001600160e01b0319166000908152600b602052604090205490565b6102556104ba366004613002565b6113dc565b60095461028e9061010090046001600160a01b031681565b6102556104e5366004612f28565b6116d3565b6102556104f8366004612f0e565b6119dc565b61053561050b366004612f0e565b60116020526000908152604090208054600182015460028301546003909301549192909160ff1684565b604080519485526020850193909352918301521515606082015260800161026a565b610260610565366004612f0e565b600a6020526000908152604090205481565b610260610585366004612f0e565b600b6020526000908152604090205481565b6102c26105a5366004612f0e565b611c57565b6006546001600160a01b031633146105dd5760405162461bcd60e51b81526004016105d490613266565b60405180910390fd5b600c80546001600160a01b0319166001600160a01b0383169081179091556040519081527f3df77beb5db05fcdd70a30fc8adf3f83f9501b68579455adbd100b8180940394906020015b60405180910390a150565b6006546001600160a01b0316331461065c5760405162461bcd60e51b81526004016105d490613266565b600780546001600160a01b0319166001600160a01b0383169081179091556040519081527f906a1c6bd7e3091ea86693dd029a831c19049ce77f1dce2ce0bab1cacbabce2290602001610627565b60006106be6002546001600160a01b031690565b905090565b600c546000906001600160a01b031633146106f05760405162461bcd60e51b81526004016105d49061321f565b6106fb848484611cd7565b949350505050565b6006546001600160a01b0316331461072d5760405162461bcd60e51b81526004016105d490613266565b6001600160a01b0381166107945760405162461bcd60e51b815260206004820152602860248201527f42656e6566696369617279206d757374206e6f7420626520746865207a65726f604482015267206164647265737360c01b60648201526084016105d4565b60098054610100600160a81b0319166101006001600160a01b038416908102919091179091556040519081527fd5da63a0b864b315bc04128dedbc93888c8529ee6cf47ce664dc204339228c5390602001610627565b601281815481106107fa57600080fd5b9060005260206000209060089182820401919006600402915054906101000a900460e01b81565b6006546001600160a01b0316331461084b5760405162461bcd60e51b81526004016105d490613266565b600060088190556009805460ff191690556040517f6adcc7125002935e0aa31697538ebbd65cfddf20431eb6ecdcfc3e238bfd082c9190a1565b600c546001600160a01b031633146108af5760405162461bcd60e51b81526004016105d49061321f565b6001600160e01b031981166000908152600a60205260409020546109045760405162461bcd60e51b815260206004820152600c60248201526b52617465206973207a65726f60a01b60448201526064016105d4565b6001600160e01b031981166000818152600a60209081526040808320839055600b82528083209290925590519182527f2cefb058ca1556b021b67f710e3df89c564650f01fef8cd944cbb14d7358680b9101610627565b6000805b8251811015610a315782818151811061098857634e487b7160e01b600052603260045260246000fd5b60200260200101516001600160e01b031916630aaa688f60e31b14158015610a11575042610a0f600d54600b60008786815181106109d657634e487b7160e01b600052603260045260246000fd5b60200260200101516001600160e01b0319166001600160e01b031916815260200190815260200160002054611ccb90919063ffffffff16565b105b15610a1f5750600192915050565b610a2a600182613308565b905061095f565b50600092915050565b600083610a4681611c57565b15610a635760405162461bcd60e51b81526004016105d4906131dd565b82610a6d81611c57565b15610a8a5760405162461bcd60e51b81526004016105d4906131dd565b6001600160e01b03198681169085161415610aa757849250610acf565b610acc610ab385611346565b610ac6610abf89611346565b88906120f9565b90612111565b92505b50509392505050565b81610ae56102584261347d565b60008281526010602052604090205411610b375760405162461bcd60e51b815260206004820152601360248201527214995c5d595cdd081a185cc8195e1c1a5c9959606a1b60448201526064016105d4565b60008381526005602052604090205483906001600160a01b03163314610bb05760405162461bcd60e51b815260206004820152602860248201527f536f75726365206d75737420626520746865206f7261636c65206f6620746865604482015267081c995c5d595cdd60c21b60648201526084016105d4565b60008181526005602052604080822080546001600160a01b03191690555182917f7cc135e0cebb02c3480ae5d74d377283180a2601f8f644edf7987b009316c63a91a26000848152601060205260408082206001808201549154835182815280850190945260e09290921b939192908160200160208202803683370190505090508281600081518110610c5357634e487b7160e01b600052603260045260246000fd5b6001600160e01b031992909216602092830291909101909101526040805160018082528183019092526000918160200160208202803683370190505090508681600081518110610cb357634e487b7160e01b600052603260045260246000fd5b602002602001018181525050610cca828285611cd7565b50505060009586525050601060205250506040822091825550600101805463ffffffff19169055565b6060600082516001600160401b03811115610d1e57634e487b7160e01b600052604160045260246000fd5b604051908082528060200260200182016040528015610d47578160200160208202803683370190505b50905060005b83518160ff161015610deb57600a6000858360ff1681518110610d8057634e487b7160e01b600052603260045260246000fd5b60200260200101516001600160e01b0319166001600160e01b031916815260200190815260200160002054828260ff1681518110610dce57634e487b7160e01b600052603260045260246000fd5b602090810291909101015280610de3816134af565b915050610d4d565b5092915050565b6007546001600160a01b03163314610e6a5760405162461bcd60e51b815260206004820152603560248201527f596f75206d757374206265206e6f6d696e61746564206265666f726520796f7560448201527402063616e20616363657074206f776e65727368697605c1b60648201526084016105d4565b600654600754604080516001600160a01b0393841681529290911660208301527fb532073b38c83145e3e5135377a08bf9aab55bc0fd7c1179cd4fb995d2a5159c910160405180910390a160078054600680546001600160a01b03199081166001600160a01b03841617909155169055565b6006546001600160a01b03163314610f065760405162461bcd60e51b81526004016105d490613266565b600d8190556040518181527f16529d8c407b08938da67de7fa4319199baffce4f5d1971f812cc770b0237e6690602001610627565b60006106be6003546001600160a01b031690565b6060600082516001600160401b03811115610f7a57634e487b7160e01b600052604160045260246000fd5b604051908082528060200260200182016040528015610fa3578160200160208202803683370190505b50905060005b83518160ff161015610deb57600b6000858360ff1681518110610fdc57634e487b7160e01b600052603260045260246000fd5b60200260200101516001600160e01b0319166001600160e01b031916815260200190815260200160002054828260ff168151811061102a57634e487b7160e01b600052603260045260246000fd5b60209081029190910101528061103f816134af565b915050610fa9565b6006546001600160a01b031633146110715760405162461bcd60e51b81526004016105d490613266565b60006110856002546001600160a01b031690565b6040516370a0823160e01b81523060048201529091506001600160a01b0382169063a9059cbb90339083906370a082319060240160206040518083038186803b1580156110d157600080fd5b505afa1580156110e5573d6000803e3d6000fd5b505050506040513d601f19601f820116820180604052508101906111099190613052565b6040516001600160e01b031960e085901b1681526001600160a01b0390921660048301526024820152604401602060405180830381600087803b15801561114f57600080fd5b505af1158015611163573d6000803e3d6000fd5b505050506040513d601f19601f820116820180604052508101906111879190612ecd565b6111c85760405162461bcd60e51b81526020600482015260126024820152712ab730b13632903a37903a3930b739b332b960711b60448201526064016105d4565b50565b6006546001600160a01b031633146111f55760405162461bcd60e51b81526004016105d490613266565b60095460ff166112585760405162461bcd60e51b815260206004820152602860248201527f53656c6620646573747275637420686173206e6f7420796574206265656e20696044820152671b9a5d1a585d195960c21b60648201526084016105d4565b426224ea0060085461126a9190613308565b106112c75760405162461bcd60e51b815260206004820152602760248201527f53656c662064657374727563742064656c617920686173206e6f742079657420604482015266195b185c1cd95960ca1b60648201526084016105d4565b6009546040516101009091046001600160a01b0316808252907f8a09e1677ced846cb537dc2b172043bd05a1a81ad7e0033a7ef8ba762df990b79060200160405180910390a1806001600160a01b0316ff5b600e816005811061132957600080fd5b60089182820401919006600402915054906101000a900460e01b81565b6001600160e01b0319166000908152600a602052604090205490565b6006546001600160a01b0316331461138c5760405162461bcd60e51b81526004016105d490613266565b426008556009805460ff191660011790556040517fcbd94ca75b8dc45c9d80c77e851670e78843c0d75180cb81db3e2158228fa9a6906113d2906224ea00815260200190565b60405180910390a1565b6006546001600160a01b031633146114065760405162461bcd60e51b81526004016105d490613266565b600083116114565760405162461bcd60e51b815260206004820152601a60248201527f656e747279506f696e74206d7573742062652061626f7665203000000000000060448201526064016105d4565b600081116114a65760405162461bcd60e51b815260206004820152601a60248201527f6c6f7765724c696d6974206d7573742062652061626f7665203000000000000060448201526064016105d4565b8282116115055760405162461bcd60e51b815260206004820152602760248201527f75707065724c696d6974206d7573742062652061626f76652074686520656e746044820152661c9e541bda5b9d60ca1b60648201526084016105d4565b611510836002611caa565b82106115755760405162461bcd60e51b815260206004820152602e60248201527f75707065724c696d6974206d757374206265206c657373207468616e20646f7560448201526d189b1948195b9d1c9e541bda5b9d60921b60648201526084016105d4565b8281106115d45760405162461bcd60e51b815260206004820152602760248201527f6c6f7765724c696d6974206d7573742062652062656c6f772074686520656e746044820152661c9e541bda5b9d60ca1b60648201526084016105d4565b6001600160e01b0319841660009081526011602052604090205461165057601280546001810182556000919091527fbb8a6a4669ba250d26cd7a459eca9d215f8307e33aebe50379bc5a3617ec34446008820401805463ffffffff60079093166004026101000a928302191660e087901c929092029190911790555b6001600160e01b031984166000818152601160209081526040918290208681556001810186905560028101859055600301805460ff19169055815192835282018590528101839052606081018290527f2133db505c9d92361db62ae15e94eb366fc5188c73bb9943966e6176c026c79e906080015b60405180910390a150505050565b6006546001600160a01b031633146116fd5760405162461bcd60e51b81526004016105d490613266565b6000611713600f5430634357855e60e01b612129565b60408051808201909152600381526273796d60e81b602082015290915061173c9082908461214e565b61178b6040518060400160405280600781526020016618dbdb9d995c9d60ca1b815250604051806040016040528060038152602001621554d160ea1b8152508361214e9092919063ffffffff16565b60408051600580825260c08201909252600091816020015b60608152602001906001900390816117a3579050509050604051806040016040528060048152602001636461746160e01b815250816000815181106117f857634e487b7160e01b600052603260045260246000fd5b6020026020010181905250828160018151811061182557634e487b7160e01b600052603260045260246000fd5b60200260200101819052506040518060400160405280600581526020016471756f746560d81b8152508160028151811061186f57634e487b7160e01b600052603260045260246000fd5b6020026020010181905250604051806040016040528060038152602001621554d160ea1b815250816003815181106118b757634e487b7160e01b600052603260045260246000fd5b602002602001018190525060405180604001604052806005815260200164707269636560d81b8152508160048151811061190157634e487b7160e01b600052603260045260246000fd5b6020026020010181905250611941604051806040016040528060088152602001670c6dee0f2a0c2e8d60c31b81525082846121719092919063ffffffff16565b60408051808201909152600581526474696d657360d81b6020820152611971908390670de0b6b3a76400006121f7565b604080518082019091524281526001600160e01b031985166020820152601060006119a485670de0b6b3a7640000612215565b8152602080820192909252604001600020825181559101516001909101805463ffffffff191660e09290921c91909117905550505050565b6006546001600160a01b03163314611a065760405162461bcd60e51b81526004016105d490613266565b6001600160e01b0319811660009081526011602052604081208181556001810182905560028101829055600301805460ff191690555b60125460ff82161015611c0457816001600160e01b03191660128260ff1681548110611a7857634e487b7160e01b600052603260045260246000fd5b90600052602060002090600891828204019190066004029054906101000a900460e01b6001600160e01b0319161415611bf25760128160ff1681548110611acf57634e487b7160e01b600052603260045260246000fd5b90600052602060002090600891828204019190066004026101000a81549063ffffffff021916905560126001601280549050611b0b919061347d565b81548110611b2957634e487b7160e01b600052603260045260246000fd5b90600052602060002090600891828204019190066004029054906101000a900460e01b60128260ff1681548110611b7057634e487b7160e01b600052603260045260246000fd5b90600052602060002090600891828204019190066004026101000a81548163ffffffff021916908360e01c02179055506012805480611bbf57634e487b7160e01b600052603160045260246000fd5b600082815260209020600860001990920191820401805463ffffffff600460078516026101000a02191690559055611c04565b80611bfc816134af565b915050611a3c565b50604080516001600160e01b03198316815260006020820181905291810182905260608101919091527f2133db505c9d92361db62ae15e94eb366fc5188c73bb9943966e6176c026c79e90608001610627565b6000630aaa688f60e31b6001600160e01b031983161415611c7a57506000919050565b600d546001600160e01b031983166000908152600b60205260409020544291611ca39190611ccb565b1092915050565b6000611cb6828461341f565b90505b92915050565b6000611cb6828461347d565b6000611cb68284613308565b60008251845114611d505760405162461bcd60e51b815260206004820152603860248201527f43757272656e6379206b6579206172726179206c656e677468206d757374206d60448201527f61746368207261746573206172726179206c656e6774682e000000000000000060648201526084016105d4565b611d5c61025842613308565b8210611daa5760405162461bcd60e51b815260206004820152601f60248201527f54696d6520697320746f6f2066617220696e746f20746865206675747572650060448201526064016105d4565b60005b84518110156120ac57838181518110611dd657634e487b7160e01b600052603260045260246000fd5b602002602001015160001415611e545760405162461bcd60e51b815260206004820152603960248201527f5a65726f206973206e6f7420612076616c696420726174652c20706c6561736560448201527f2063616c6c2064656c6574655261746520696e73746561642e0000000000000060648201526084016105d4565b848181518110611e7457634e487b7160e01b600052603260045260246000fd5b60200260200101516001600160e01b031916630aaa688f60e31b1415611ef65760405162461bcd60e51b815260206004820152603160248201527f52617465206f6620555344782063616e6e6f7420626520757064617465642c2060448201527034ba13b99030b63bb0bcb9902aa724aa1760791b60648201526084016105d4565b600b6000868381518110611f1a57634e487b7160e01b600052603260045260246000fd5b60200260200101516001600160e01b0319166001600160e01b031916815260200190815260200160002054831015611f515761209a565b611fa9858281518110611f7457634e487b7160e01b600052603260045260246000fd5b6020026020010151858381518110611f9c57634e487b7160e01b600052603260045260246000fd5b602002602001015161222f565b848281518110611fc957634e487b7160e01b600052603260045260246000fd5b602002602001018181525050838181518110611ff557634e487b7160e01b600052603260045260246000fd5b6020026020010151600a600087848151811061202157634e487b7160e01b600052603260045260246000fd5b60200260200101516001600160e01b0319166001600160e01b03191681526020019081526020016000208190555082600b600087848151811061207457634e487b7160e01b600052603260045260246000fd5b6020908102919091018101516001600160e01b0319168252810191909152604001600020555b806120a481613494565b915050611dad565b507f7a72efae5f6b256f1ca71728b01f9dd7004ff3770dcaef4c44872b94d9f9e91b84846040516120de929190613173565b60405180910390a16120ef82612346565b5060019392505050565b6000611cb6838361210c6012600a613377565b61253c565b6000611cb683836121246012600a613377565b61258b565b612131612cdc565b612139612cdc565b612145818686866125ad565b95945050505050565b608083015161215d90836125ea565b608083015161216c90826125ea565b505050565b608083015161218090836125ea565b61218d8360800151612601565b60005b81518110156121e9576121d78282815181106121bc57634e487b7160e01b600052603260045260246000fd5b602002602001015185608001516125ea90919063ffffffff16565b806121e181613494565b915050612190565b5061216c836080015161260c565b608083015161220690836125ea565b608083015161216c9082612617565b600354600090611cb6906001600160a01b0316848461267a565b6001600160e01b03198216600090815260116020526040812080546122575782915050611cb9565b6001600160e01b031984166000908152600a6020526040902054600382015460ff166106fb57815460009061228d906002611caa565b905084811161229f57600091506122ac565b6122a98186611cbf565b91505b826001015482106122c357826001015491506122d6565b826002015482116122d657826002015491505b82600101548214806122eb5750826002015482145b1561233d5760038301805460ff191660011790556040516001600160e01b0319871681527f684252d859279842b23fadbb3debd086980415e4b545844875fd4189cac852a89060200160405180910390a15b50949350505050565b6000805b60058110156123cb576123b782600a6000600e856005811061237c57634e487b7160e01b600052603260045260246000fd5b60088104919091015460079091166004026101000a900460e01b6001600160e01b031916815260208101919091526040016000205490611ccb565b9150806123c381613494565b91505061234a565b50622c222960e91b60009081527ffdd61a22d0b5a4a499c25bf97900dec5a599e946f9e7e97be7026fa208fcbadb829055600b6020527f7cc0138a3ea55e873434f479cb6068a8e6a895fb02308a6e11c012d4576868e083905560408051600180825281830190925290816020016020820280368337019050509050622c222960e91b8160008151811061246f57634e487b7160e01b600052603260045260246000fd5b6001600160e01b031992909216602092830291909101909101526040805160018082528183019092526000918160200160208202803683375050622c222960e91b6000908152600a6020527ffdd61a22d0b5a4a499c25bf97900dec5a599e946f9e7e97be7026fa208fcbadb548351939450928492506124ff57634e487b7160e01b600052603260045260246000fd5b6020026020010181815250507f7a72efae5f6b256f1ca71728b01f9dd7004ff3770dcaef4c44872b94d9f9e91b82826040516116c5929190613173565b60008061254a600a84613320565b6125548686611caa565b61255e9190613320565b9050600561256d600a836134cf565b106125805761257d600a82613308565b90505b612145600a82613320565b60008061255e846125a76125a086600a61341f565b8890611caa565b90612703565b6125b5612cdc565b6125c5856080015161010061270f565b50509183526001600160a01b031660208301526001600160e01b031916604082015290565b6125f78260038351612774565b61216c8282612881565b6111c88160046128a8565b6111c88160076128a8565b67ffffffffffffffff198112156126365761263282826128bd565b5050565b6001600160401b0381131561264f5761263282826128ff565b600081126126635761263282600083612774565b6126328260016126758460001961343e565b612774565b60045460009061268b816001613308565b600455835160408086015160808701515191516000936320214ca360e11b936126c39386938493923092918a916001916024016130e4565b60408051601f198184030181529190526020810180516001600160e01b03166001600160e01b0319909316929092179091529050610acc86838684612922565b6000611cb68284613320565b60408051808201909152606081526000602082015261272f6020836134cf565b156127575761273f6020836134cf565b61274a90602061347d565b6127549083613308565b91505b506020828101829052604080518085526000815290920101905290565b6017816001600160401b03161161279e576127988360e0600585901b168317612a8f565b50505050565b60ff816001600160401b0316116127da576127c4836018611fe0600586901b1617612a8f565b50612798836001600160401b0383166001612ab4565b61ffff816001600160401b03161161281757612801836019611fe0600586901b1617612a8f565b50612798836001600160401b0383166002612ab4565b63ffffffff816001600160401b0316116128565761284083601a611fe0600586901b1617612a8f565b50612798836001600160401b0383166004612ab4565b61286b83601b611fe0600586901b1617612a8f565b50612798836001600160401b0383166008612ab4565b604080518082019091526060815260006020820152611cb683846000015151848551612ada565b61216c82601f611fe0600585901b1617612a8f565b6128c88260c3612a8f565b50612632826128d98360001961343e565b6040516020016128eb91815260200190565b604051602081830303815290604052612bc4565b61290a8260c2612a8f565b5061263282826040516020016128eb91815260200190565b6040516bffffffffffffffffffffffff193060601b1660208201526034810184905260009060540160408051808303601f1901815282825280516020918201206000818152600590925291812080546001600160a01b0319166001600160a01b038a1617905590925082917fb5e6e01e79f91267dc17b4e6314d5d4d03593d2ceee0fbb452b750bd70ea5af99190a2600254604051630200057560e51b81526001600160a01b0390911690634000aea0906129e59088908790879060040161314c565b602060405180830381600087803b1580156129ff57600080fd5b505af1158015612a13573d6000803e3d6000fd5b505050506040513d601f19601f82011682018060405250810190612a379190612ecd565b6106fb5760405162461bcd60e51b815260206004820152602360248201527f756e61626c6520746f207472616e73666572416e6443616c6c20746f206f7261604482015262636c6560e81b60648201526084016105d4565b604080518082019091526060815260006020820152611cb68384600001515184612bd1565b6040805180820190915260608152600060208201526106fb848560000151518585612c2d565b6040805180820190915260608152600060208201528251821115612afd57600080fd5b6020850151612b0c8386613308565b1115612b3f57612b3f85612b2f87602001518786612b2a9190613308565b612cae565b612b3a90600261341f565b612cc5565b600080865180518760208301019350808887011115612b5e5787860182525b505050602084015b60208410612b9e5780518252612b7d602083613308565b9150612b8a602082613308565b9050612b9760208561347d565b9350612b66565b51815160001960208690036101000a019081169019919091161790525083949350505050565b6125f78260028351612774565b60408051808201909152606081526000602082015283602001518310612c0657612c068485602001516002612b3a919061341f565b835180516020858301018481535080851415612c23576001810182525b5093949350505050565b6040805180820190915260608152600060208201526020850151612c518584613308565b1115612c6557612c6585612b2f8685613308565b60006001612c7584610100613377565b612c7f919061347d565b9050855183868201018583198251161781525080518487011115612ca35783860181525b509495945050505050565b600081831115612cbf575081611cb9565b50919050565b8151612cd1838361270f565b506127988382612881565b6040805160a0810182526000808252602080830182905282840182905260608084018390528451808601909552845283015290608082015290565b600082601f830112612d27578081fd5b81356020612d3c612d37836132e5565b6132b5565b80838252828201915082860187848660051b8901011115612d5b578586fd5b855b85811015612d8057612d6e82612d8d565b84529284019290840190600101612d5d565b5090979650505050505050565b80356001600160e01b031981168114612da557600080fd5b919050565b600060208284031215612dbb578081fd5b81356001600160a01b0381168114612dd1578182fd5b9392505050565b600060208284031215612de9578081fd5b81356001600160401b03811115612dfe578182fd5b6106fb84828501612d17565b600080600060608486031215612e1e578182fd5b83356001600160401b0380821115612e34578384fd5b612e4087838801612d17565b9450602091508186013581811115612e56578485fd5b86019050601f81018713612e68578384fd5b8035612e76612d37826132e5565b8082825284820191508484018a868560051b8701011115612e95578788fd5b8794505b83851015612eb7578035835260019490940193918501918501612e99565b5096999698505050506040949094013593505050565b600060208284031215612ede578081fd5b81518015158114612dd1578182fd5b60008060408385031215612eff578182fd5b50508035926020909101359150565b600060208284031215612f1f578081fd5b611cb682612d8d565b60008060408385031215612f3a578182fd5b612f4383612d8d565b91506020808401356001600160401b0380821115612f5f578384fd5b818601915086601f830112612f72578384fd5b813581811115612f8457612f8461350f565b612f96601f8201601f191685016132b5565b91508082528784828501011115612fab578485fd5b8084840185840137810190920192909252919491935090915050565b600080600060608486031215612fdb578283fd5b612fe484612d8d565b925060208401359150612ff960408501612d8d565b90509250925092565b60008060008060808587031215613017578081fd5b61302085612d8d565b966020860135965060408601359560600135945092505050565b60006020828403121561304b578081fd5b5035919050565b600060208284031215613063578081fd5b5051919050565b6000815180845260208085019450808401835b83811015612ca35781518752958201959082019060010161307d565b60008151808452815b818110156130be576020818501810151868301820152016130a2565b818111156130cf5782602083870101525b50601f01601f19169290920160200192915050565b6001600160a01b0389811682526020820189905260408201889052861660608201526001600160e01b03198516608082015260a0810184905260c0810183905261010060e0820181905260009061313d83820185613099565b9b9a5050505050505050505050565b60018060a01b03841681528260208201526060604082015260006121456060830184613099565b604080825283519082018190526000906020906060840190828701845b828110156131b65781516001600160e01b03191684529284019290840190600101613190565b50505083810382850152610acc818661306a565b602081526000611cb6602083018461306a565b60208082526022908201527f52617465207374616c65206f72206e6f6e6578697374616e742063757272656e604082015261637960f01b606082015260800190565b60208082526027908201527f4f6e6c7920746865206f7261636c652063616e20706572666f726d20746869736040820152661030b1ba34b7b760c91b606082015260800190565b6020808252602f908201527f4f6e6c792074686520636f6e7472616374206f776e6572206d6179207065726660408201526e37b936903a3434b99030b1ba34b7b760891b606082015260800190565b604051601f8201601f191681016001600160401b03811182821017156132dd576132dd61350f565b604052919050565b60006001600160401b038211156132fe576132fe61350f565b5060051b60200190565b6000821982111561331b5761331b6134e3565b500190565b60008261332f5761332f6134f9565b500490565b600181815b8085111561336f578160001904821115613355576133556134e3565b8085161561336257918102915b93841c9390800290613339565b509250929050565b6000611cb6838360008261338d57506001611cb9565b8161339a57506000611cb9565b81600181146133b057600281146133ba576133d6565b6001915050611cb9565b60ff8411156133cb576133cb6134e3565b50506001821b611cb9565b5060208310610133831016604e8410600b84101617156133f9575081810a611cb9565b6134038383613334565b8060001904821115613417576134176134e3565b029392505050565b6000816000190483118215151615613439576134396134e3565b500290565b60008083128015600160ff1b85018412161561345c5761345c6134e3565b6001600160ff1b0384018313811615613477576134776134e3565b50500390565b60008282101561348f5761348f6134e3565b500390565b60006000198214156134a8576134a86134e3565b5060010190565b600060ff821660ff8114156134c6576134c66134e3565b60010192915050565b6000826134de576134de6134f9565b500690565b634e487b7160e01b600052601160045260246000fd5b634e487b7160e01b600052601260045260246000fd5b634e487b7160e01b600052604160045260246000fdfea264697066735822122072f8ef8e9860997bd69f0126148f0b664eb9f5ca99bb3f51cbd97a3337dafaef64736f6c63430008040033",
  "linkReferences": {
    "contracts/SafeDecimalMath.sol": {
      "SafeDecimalMath": [
        {
          "length": 20,
          "start": 590
        }
      ]
    }
  },
  "deployedLinkReferences": {}
}