{
  "_format": "hh-sol-artifact-1",
  "contractName": "ExchangeRates",
  "sourceName": "contracts/ExchangeRates.sol",
  "abi": [
    {
      "inputs": [
        {
          "internalType": "address",
          "name": "_owner",
          "type": "address"
        },
        {
          "internalType": "address",
          "name": "_snxOracle",
          "type": "address"
        },
        {
          "internalType": "bytes4[]",
          "name": "_currencyKeys",
          "type": "bytes4[]"
        },
        {
          "internalType": "uint256[]",
          "name": "_newRates",
          "type": "uint256[]"
        },
        {
          "internalType": "address",
          "name": "_chainlinkToken",
          "type": "address"
        },
        {
          "internalType": "address",
          "name": "_chainlinkOracle",
          "type": "address"
        },
        {
          "internalType": "bytes32",
          "name": "_chainlinkJobId",
          "type": "bytes32"
        }
      ],
      "stateMutability": "nonpayable",
      "type": "constructor"
    },
    {
      "anonymous": false,
      "inputs": [
        {
          "indexed": true,
          "internalType": "bytes32",
          "name": "id",
          "type": "bytes32"
        }
      ],
      "name": "ChainlinkCancelled",
      "type": "event"
    },
    {
      "anonymous": false,
      "inputs": [
        {
          "indexed": true,
          "internalType": "bytes32",
          "name": "id",
          "type": "bytes32"
        }
      ],
      "name": "ChainlinkFulfilled",
      "type": "event"
    },
    {
      "anonymous": false,
      "inputs": [
        {
          "indexed": true,
          "internalType": "bytes32",
          "name": "id",
          "type": "bytes32"
        }
      ],
      "name": "ChainlinkRequested",
      "type": "event"
    },
    {
      "anonymous": false,
      "inputs": [
        {
          "indexed": false,
          "internalType": "bytes4",
          "name": "currencyKey",
          "type": "bytes4"
        },
        {
          "indexed": false,
          "internalType": "uint256",
          "name": "entryPoint",
          "type": "uint256"
        },
        {
          "indexed": false,
          "internalType": "uint256",
          "name": "upperLimit",
          "type": "uint256"
        },
        {
          "indexed": false,
          "internalType": "uint256",
          "name": "lowerLimit",
          "type": "uint256"
        }
      ],
      "name": "InversePriceConfigured",
      "type": "event"
    },
    {
      "anonymous": false,
      "inputs": [
        {
          "indexed": false,
          "internalType": "bytes4",
          "name": "currencyKey",
          "type": "bytes4"
        }
      ],
      "name": "InversePriceFrozen",
      "type": "event"
    },
    {
      "anonymous": false,
      "inputs": [
        {
          "indexed": false,
          "internalType": "address",
          "name": "newOracle",
          "type": "address"
        }
      ],
      "name": "OracleUpdated",
      "type": "event"
    },
    {
      "anonymous": false,
      "inputs": [
        {
          "indexed": false,
          "internalType": "address",
          "name": "oldOwner",
          "type": "address"
        },
        {
          "indexed": false,
          "internalType": "address",
          "name": "newOwner",
          "type": "address"
        }
      ],
      "name": "OwnerChanged",
      "type": "event"
    },
    {
      "anonymous": false,
      "inputs": [
        {
          "indexed": false,
          "internalType": "address",
          "name": "newOwner",
          "type": "address"
        }
      ],
      "name": "OwnerNominated",
      "type": "event"
    },
    {
      "anonymous": false,
      "inputs": [
        {
          "indexed": false,
          "internalType": "bytes4",
          "name": "currencyKey",
          "type": "bytes4"
        }
      ],
      "name": "RateDeleted",
      "type": "event"
    },
    {
      "anonymous": false,
      "inputs": [
        {
          "indexed": false,
          "internalType": "uint256",
          "name": "rateStalePeriod",
          "type": "uint256"
        }
      ],
      "name": "RateStalePeriodUpdated",
      "type": "event"
    },
    {
      "anonymous": false,
      "inputs": [
        {
          "indexed": false,
          "internalType": "bytes4[]",
          "name": "currencyKeys",
          "type": "bytes4[]"
        },
        {
          "indexed": false,
          "internalType": "uint256[]",
          "name": "newRates",
          "type": "uint256[]"
        }
      ],
      "name": "RatesUpdated",
      "type": "event"
    },
    {
      "anonymous": false,
      "inputs": [
        {
          "indexed": false,
          "internalType": "address",
          "name": "newBeneficiary",
          "type": "address"
        }
      ],
      "name": "SelfDestructBeneficiaryUpdated",
      "type": "event"
    },
    {
      "anonymous": false,
      "inputs": [
        {
          "indexed": false,
          "internalType": "uint256",
          "name": "selfDestructDelay",
          "type": "uint256"
        }
      ],
      "name": "SelfDestructInitiated",
      "type": "event"
    },
    {
      "anonymous": false,
      "inputs": [],
      "name": "SelfDestructTerminated",
      "type": "event"
    },
    {
      "anonymous": false,
      "inputs": [
        {
          "indexed": false,
          "internalType": "address",
          "name": "beneficiary",
          "type": "address"
        }
      ],
      "name": "SelfDestructed",
      "type": "event"
    },
    {
      "inputs": [],
      "name": "SELFDESTRUCT_DELAY",
      "outputs": [
        {
          "internalType": "uint256",
          "name": "",
          "type": "uint256"
        }
      ],
      "stateMutability": "view",
      "type": "function"
    },
    {
      "inputs": [],
      "name": "acceptOwnership",
      "outputs": [],
      "stateMutability": "nonpayable",
      "type": "function"
    },
    {
      "inputs": [
        {
          "internalType": "bytes4[]",
          "name": "currencyKeys",
          "type": "bytes4[]"
        }
      ],
      "name": "anyRateIsStale",
      "outputs": [
        {
          "internalType": "bool",
          "name": "",
          "type": "bool"
        }
      ],
      "stateMutability": "view",
      "type": "function"
    },
    {
      "inputs": [
        {
          "internalType": "bytes4",
          "name": "currencyKey",
          "type": "bytes4"
        }
      ],
      "name": "deleteRate",
      "outputs": [],
      "stateMutability": "nonpayable",
      "type": "function"
    },
    {
      "inputs": [
        {
          "internalType": "bytes4",
          "name": "sourceCurrencyKey",
          "type": "bytes4"
        },
        {
          "internalType": "uint256",
          "name": "sourceAmount",
          "type": "uint256"
        },
        {
          "internalType": "bytes4",
          "name": "destinationCurrencyKey",
          "type": "bytes4"
        }
      ],
      "name": "effectiveValue",
      "outputs": [
        {
          "internalType": "uint256",
          "name": "",
          "type": "uint256"
        }
      ],
      "stateMutability": "view",
      "type": "function"
    },
    {
      "inputs": [
        {
          "internalType": "bytes32",
          "name": "_requestId",
          "type": "bytes32"
        },
        {
          "internalType": "uint256",
          "name": "_price",
          "type": "uint256"
        }
      ],
      "name": "fulfill",
      "outputs": [],
      "stateMutability": "nonpayable",
      "type": "function"
    },
    {
      "inputs": [],
      "name": "getChainlinkToken",
      "outputs": [
        {
          "internalType": "address",
          "name": "",
          "type": "address"
        }
      ],
      "stateMutability": "view",
      "type": "function"
    },
    {
      "inputs": [],
      "name": "getOracle",
      "outputs": [
        {
          "internalType": "address",
          "name": "",
          "type": "address"
        }
      ],
      "stateMutability": "view",
      "type": "function"
    },
    {
      "inputs": [],
      "name": "initiateSelfDestruct",
      "outputs": [],
      "stateMutability": "nonpayable",
      "type": "function"
    },
    {
      "inputs": [],
      "name": "initiationTime",
      "outputs": [
        {
          "internalType": "uint256",
          "name": "",
          "type": "uint256"
        }
      ],
      "stateMutability": "view",
      "type": "function"
    },
    {
      "inputs": [
        {
          "internalType": "bytes4",
          "name": "",
          "type": "bytes4"
        }
      ],
      "name": "inversePricing",
      "outputs": [
        {
          "internalType": "uint256",
          "name": "entryPoint",
          "type": "uint256"
        },
        {
          "internalType": "uint256",
          "name": "upperLimit",
          "type": "uint256"
        },
        {
          "internalType": "uint256",
          "name": "lowerLimit",
          "type": "uint256"
        },
        {
          "internalType": "bool",
          "name": "frozen",
          "type": "bool"
        }
      ],
      "stateMutability": "view",
      "type": "function"
    },
    {
      "inputs": [
        {
          "internalType": "uint256",
          "name": "",
          "type": "uint256"
        }
      ],
      "name": "invertedKeys",
      "outputs": [
        {
          "internalType": "bytes4",
          "name": "",
          "type": "bytes4"
        }
      ],
      "stateMutability": "view",
      "type": "function"
    },
    {
      "inputs": [
        {
          "internalType": "bytes4",
          "name": "currencyKey",
          "type": "bytes4"
        }
      ],
      "name": "lastRateUpdateTimeForCurrency",
      "outputs": [
        {
          "internalType": "uint256",
          "name": "",
          "type": "uint256"
        }
      ],
      "stateMutability": "view",
      "type": "function"
    },
    {
      "inputs": [
        {
          "internalType": "bytes4",
          "name": "",
          "type": "bytes4"
        }
      ],
      "name": "lastRateUpdateTimes",
      "outputs": [
        {
          "internalType": "uint256",
          "name": "",
          "type": "uint256"
        }
      ],
      "stateMutability": "view",
      "type": "function"
    },
    {
      "inputs": [
        {
          "internalType": "bytes4[]",
          "name": "currencyKeys",
          "type": "bytes4[]"
        }
      ],
      "name": "lastRateUpdateTimesForCurrencies",
      "outputs": [
        {
          "internalType": "uint256[]",
          "name": "",
          "type": "uint256[]"
        }
      ],
      "stateMutability": "view",
      "type": "function"
    },
    {
      "inputs": [
        {
          "internalType": "address",
          "name": "_owner",
          "type": "address"
        }
      ],
      "name": "nominateNewOwner",
      "outputs": [],
      "stateMutability": "nonpayable",
      "type": "function"
    },
    {
      "inputs": [],
      "name": "nominatedOwner",
      "outputs": [
        {
          "internalType": "address",
          "name": "",
          "type": "address"
        }
      ],
      "stateMutability": "view",
      "type": "function"
    },
    {
      "inputs": [],
      "name": "oracleJobId",
      "outputs": [
        {
          "internalType": "bytes32",
          "name": "",
          "type": "bytes32"
        }
      ],
      "stateMutability": "view",
      "type": "function"
    },
    {
      "inputs": [],
      "name": "owner",
      "outputs": [
        {
          "internalType": "address",
          "name": "",
          "type": "address"
        }
      ],
      "stateMutability": "view",
      "type": "function"
    },
    {
      "inputs": [
        {
          "internalType": "bytes4",
          "name": "currencyKey",
          "type": "bytes4"
        }
      ],
      "name": "rateForCurrency",
      "outputs": [
        {
          "internalType": "uint256",
          "name": "",
          "type": "uint256"
        }
      ],
      "stateMutability": "view",
      "type": "function"
    },
    {
      "inputs": [
        {
          "internalType": "bytes4",
          "name": "currencyKey",
          "type": "bytes4"
        }
      ],
      "name": "rateIsFrozen",
      "outputs": [
        {
          "internalType": "bool",
          "name": "",
          "type": "bool"
        }
      ],
      "stateMutability": "view",
      "type": "function"
    },
    {
      "inputs": [
        {
          "internalType": "bytes4",
          "name": "currencyKey",
          "type": "bytes4"
        }
      ],
      "name": "rateIsStale",
      "outputs": [
        {
          "internalType": "bool",
          "name": "",
          "type": "bool"
        }
      ],
      "stateMutability": "view",
      "type": "function"
    },
    {
      "inputs": [],
      "name": "rateStalePeriod",
      "outputs": [
        {
          "internalType": "uint256",
          "name": "",
          "type": "uint256"
        }
      ],
      "stateMutability": "view",
      "type": "function"
    },
    {
      "inputs": [
        {
          "internalType": "bytes4",
          "name": "",
          "type": "bytes4"
        }
      ],
      "name": "rates",
      "outputs": [
        {
          "internalType": "uint256",
          "name": "",
          "type": "uint256"
        }
      ],
      "stateMutability": "view",
      "type": "function"
    },
    {
      "inputs": [
        {
          "internalType": "bytes4[]",
          "name": "currencyKeys",
          "type": "bytes4[]"
        }
      ],
      "name": "ratesForCurrencies",
      "outputs": [
        {
          "internalType": "uint256[]",
          "name": "",
          "type": "uint256[]"
        }
      ],
      "stateMutability": "view",
      "type": "function"
    },
    {
      "inputs": [
        {
          "internalType": "bytes4",
          "name": "currencyKey",
          "type": "bytes4"
        }
      ],
      "name": "removeInversePricing",
      "outputs": [],
      "stateMutability": "nonpayable",
      "type": "function"
    },
    {
      "inputs": [
        {
          "internalType": "bytes4",
          "name": "currencyKey",
          "type": "bytes4"
        },
        {
          "internalType": "string",
          "name": "asset",
          "type": "string"
        }
      ],
      "name": "requestCryptoPrice",
      "outputs": [],
      "stateMutability": "nonpayable",
      "type": "function"
    },
    {
      "inputs": [],
      "name": "selfDestruct",
      "outputs": [],
      "stateMutability": "nonpayable",
      "type": "function"
    },
    {
      "inputs": [],
      "name": "selfDestructBeneficiary",
      "outputs": [
        {
          "internalType": "address",
          "name": "",
          "type": "address"
        }
      ],
      "stateMutability": "view",
      "type": "function"
    },
    {
      "inputs": [],
      "name": "selfDestructInitiated",
      "outputs": [
        {
          "internalType": "bool",
          "name": "",
          "type": "bool"
        }
      ],
      "stateMutability": "view",
      "type": "function"
    },
    {
      "inputs": [
        {
          "internalType": "bytes4",
          "name": "currencyKey",
          "type": "bytes4"
        },
        {
          "internalType": "uint256",
          "name": "entryPoint",
          "type": "uint256"
        },
        {
          "internalType": "uint256",
          "name": "upperLimit",
          "type": "uint256"
        },
        {
          "internalType": "uint256",
          "name": "lowerLimit",
          "type": "uint256"
        }
      ],
      "name": "setInversePricing",
      "outputs": [],
      "stateMutability": "nonpayable",
      "type": "function"
    },
    {
      "inputs": [
        {
          "internalType": "uint256",
          "name": "_time",
          "type": "uint256"
        }
      ],
      "name": "setRateStalePeriod",
      "outputs": [],
      "stateMutability": "nonpayable",
      "type": "function"
    },
    {
      "inputs": [
        {
          "internalType": "address",
          "name": "_snxOracle",
          "type": "address"
        }
      ],
      "name": "setSNXOracle",
      "outputs": [],
      "stateMutability": "nonpayable",
      "type": "function"
    },
    {
      "inputs": [
        {
          "internalType": "address",
          "name": "_beneficiary",
          "type": "address"
        }
      ],
      "name": "setSelfDestructBeneficiary",
      "outputs": [],
      "stateMutability": "nonpayable",
      "type": "function"
    },
    {
      "inputs": [],
      "name": "snxOracle",
      "outputs": [
        {
          "internalType": "address",
          "name": "",
          "type": "address"
        }
      ],
      "stateMutability": "view",
      "type": "function"
    },
    {
      "inputs": [],
      "name": "terminateSelfDestruct",
      "outputs": [],
      "stateMutability": "nonpayable",
      "type": "function"
    },
    {
      "inputs": [
        {
          "internalType": "bytes4[]",
          "name": "currencyKeys",
          "type": "bytes4[]"
        },
        {
          "internalType": "uint256[]",
          "name": "newRates",
          "type": "uint256[]"
        },
        {
          "internalType": "uint256",
          "name": "timeSent",
          "type": "uint256"
        }
      ],
      "name": "updateRates",
      "outputs": [
        {
          "internalType": "bool",
          "name": "",
          "type": "bool"
        }
      ],
      "stateMutability": "nonpayable",
      "type": "function"
    },
    {
      "inputs": [],
      "name": "withdrawLink",
      "outputs": [],
      "stateMutability": "nonpayable",
      "type": "function"
    },
    {
      "inputs": [
        {
          "internalType": "uint256",
          "name": "",
          "type": "uint256"
        }
      ],
      "name": "xdrParticipants",
      "outputs": [
        {
          "internalType": "bytes4",
          "name": "",
          "type": "bytes4"
        }
      ],
      "stateMutability": "view",
      "type": "function"
    }
  ],
  "bytecode": "0x60806040526001600455612a30600d553480156200001c57600080fd5b50604051620084e2380380620084e2833981810160405281019062000042919062001496565b8680600073ffffffffffffffffffffffffffffffffffffffff168173ffffffffffffffffffffffffffffffffffffffff161415620000b7576040517f08c379a0000000000000000000000000000000000000000000000000000000008152600401620000ae906200194a565b60405180910390fd5b80600660006101000a81548173ffffffffffffffffffffffffffffffffffffffff021916908373ffffffffffffffffffffffffffffffffffffffff1602179055507fb532073b38c83145e3e5135377a08bf9aab55bc0fd7c1179cd4fb995d2a5159c6000826040516200012c9291906200181b565b60405180910390a150600073ffffffffffffffffffffffffffffffffffffffff168173ffffffffffffffffffffffffffffffffffffffff161415620001a8576040517f08c379a00000000000000000000000000000000000000000000000000000000081526004016200019f9062001906565b60405180910390fd5b80600960016101000a81548173ffffffffffffffffffffffffffffffffffffffff021916908373ffffffffffffffffffffffffffffffffffffffff1602179055507fd5da63a0b864b315bc04128dedbc93888c8529ee6cf47ce664dc204339228c53816040516200021a9190620017fe565b60405180910390a15083518551146200026a576040517f08c379a00000000000000000000000000000000000000000000000000000000081526004016200026190620018a0565b60405180910390fd5b85600c60006101000a81548173ffffffffffffffffffffffffffffffffffffffff021916908373ffffffffffffffffffffffffffffffffffffffff16021790555073__$b8d33eeb36ac0d1e81cd70156e0043e778$__63907af6c06040518163ffffffff1660e01b815260040160206040518083038186803b158015620002f057600080fd5b505af415801562000305573d6000803e3d6000fd5b505050506040513d601f19601f820116820180604052508101906200032b919062001575565b600a60007f73555344000000000000000000000000000000000000000000000000000000007bffffffffffffffffffffffffffffffffffffffffffffffffffffffff191681526020019081526020016000208190555042600b60007f73555344000000000000000000000000000000000000000000000000000000007bffffffffffffffffffffffffffffffffffffffffffffffffffffffff19168152602001908152602001600020819055506040518060a001604052807f73555344000000000000000000000000000000000000000000000000000000007bffffffffffffffffffffffffffffffffffffffffffffffffffffffff19167bffffffffffffffffffffffffffffffffffffffffffffffffffffffff191681526020017f73415544000000000000000000000000000000000000000000000000000000007bffffffffffffffffffffffffffffffffffffffffffffffffffffffff19167bffffffffffffffffffffffffffffffffffffffffffffffffffffffff191681526020017f73434846000000000000000000000000000000000000000000000000000000007bffffffffffffffffffffffffffffffffffffffffffffffffffffffff19167bffffffffffffffffffffffffffffffffffffffffffffffffffffffff191681526020017f73455552000000000000000000000000000000000000000000000000000000007bffffffffffffffffffffffffffffffffffffffffffffffffffffffff19167bffffffffffffffffffffffffffffffffffffffffffffffffffffffff191681526020017f73474250000000000000000000000000000000000000000000000000000000007bffffffffffffffffffffffffffffffffffffffffffffffffffffffff19167bffffffffffffffffffffffffffffffffffffffffffffffffffffffff1916815250600e906005620005e792919062001230565b50620005fb8585426200063260201b60201c565b506200060d8362000b8360201b60201c565b6200061e8262000bc760201b60201c565b80600f819055505050505050505062001f3d565b600082518451146200067b576040517f08c379a0000000000000000000000000000000000000000000000000000000008152600401620006729062001928565b60405180910390fd5b610258426200068b919062001a98565b8210620006cf576040517f08c379a0000000000000000000000000000000000000000000000000000000008152600401620006c690620018c2565b60405180910390fd5b60005b845181101562000b2b57600084828151811062000718577f4e487b7100000000000000000000000000000000000000000000000000000000600052603260045260246000fd5b6020026020010151141562000764576040517f08c379a00000000000000000000000000000000000000000000000000000000081526004016200075b906200196c565b60405180910390fd5b7f7355534400000000000000000000000000000000000000000000000000000000858281518110620007bf577f4e487b7100000000000000000000000000000000000000000000000000000000600052603260045260246000fd5b60200260200101517bffffffffffffffffffffffffffffffffffffffffffffffffffffffff191614156200082a576040517f08c379a00000000000000000000000000000000000000000000000000000000081526004016200082190620018e4565b60405180910390fd5b600b600086838151811062000868577f4e487b7100000000000000000000000000000000000000000000000000000000600052603260045260246000fd5b60200260200101517bffffffffffffffffffffffffffffffffffffffffffffffffffffffff19167bffffffffffffffffffffffffffffffffffffffffffffffffffffffff1916815260200190815260200160002054831015620008cb5762000b15565b6200095f85828151811062000909577f4e487b7100000000000000000000000000000000000000000000000000000000600052603260045260246000fd5b60200260200101518583815181106200094b577f4e487b7100000000000000000000000000000000000000000000000000000000600052603260045260246000fd5b602002602001015162000c0b60201b60201c565b84828151811062000999577f4e487b7100000000000000000000000000000000000000000000000000000000600052603260045260246000fd5b602002602001018181525050838181518110620009df577f4e487b7100000000000000000000000000000000000000000000000000000000600052603260045260246000fd5b6020026020010151600a600087848151811062000a25577f4e487b7100000000000000000000000000000000000000000000000000000000600052603260045260246000fd5b60200260200101517bffffffffffffffffffffffffffffffffffffffffffffffffffffffff19167bffffffffffffffffffffffffffffffffffffffffffffffffffffffff191681526020019081526020016000208190555082600b600087848151811062000abc577f4e487b7100000000000000000000000000000000000000000000000000000000600052603260045260246000fd5b60200260200101517bffffffffffffffffffffffffffffffffffffffffffffffffffffffff19167bffffffffffffffffffffffffffffffffffffffffffffffffffffffff19168152602001908152602001600020819055505b808062000b229062001c3b565b915050620006d2565b507f7a72efae5f6b256f1ca71728b01f9dd7004ff3770dcaef4c44872b94d9f9e91b848460405162000b5f92919062001848565b60405180910390a162000b788262000de660201b60201c565b600190509392505050565b80600260006101000a81548173ffffffffffffffffffffffffffffffffffffffff021916908373ffffffffffffffffffffffffffffffffffffffff16021790555050565b80600360006101000a81548173ffffffffffffffffffffffffffffffffffffffff021916908373ffffffffffffffffffffffffffffffffffffffff16021790555050565b60008060116000857bffffffffffffffffffffffffffffffffffffffffffffffffffffffff19167bffffffffffffffffffffffffffffffffffffffffffffffffffffffff191681526020019081526020016000209050600081600001541162000c78578291505062000de0565b6000600a6000867bffffffffffffffffffffffffffffffffffffffffffffffffffffffff19167bffffffffffffffffffffffffffffffffffffffffffffffffffffffff191681526020019081526020016000205490508160030160009054906101000a900460ff1662000dda57600062000d0660028460000154620011e860201b620030e81790919060201c565b905084811162000d1a576000915062000d37565b62000d3485826200120060201b620030fe1790919060201c565b91505b8260010154821062000d50578260010154915062000d65565b8260020154821162000d6457826002015491505b5b826001015482148062000d7b5750826002015482145b1562000dd85760018360030160006101000a81548160ff0219169083151502179055507f684252d859279842b23fadbb3debd086980415e4b545844875fd4189cac852a88660405162000dcf919062001883565b60405180910390a15b505b80925050505b92915050565b6000805b600581101562000eca5762000eb282600a6000600e856005811062000e38577f4e487b7100000000000000000000000000000000000000000000000000000000600052603260045260246000fd5b600891828204019190066004029054906101000a900460e01b7bffffffffffffffffffffffffffffffffffffffffffffffffffffffff19167bffffffffffffffffffffffffffffffffffffffffffffffffffffffff19168152602001908152602001600020546200121860201b620031141790919060201c565b9150808062000ec19062001c3b565b91505062000dea565b5080600a60007f58445200000000000000000000000000000000000000000000000000000000007bffffffffffffffffffffffffffffffffffffffffffffffffffffffff191681526020019081526020016000208190555081600b60007f58445200000000000000000000000000000000000000000000000000000000007bffffffffffffffffffffffffffffffffffffffffffffffffffffffff19168152602001908152602001600020819055506000600167ffffffffffffffff81111562000fbd577f4e487b7100000000000000000000000000000000000000000000000000000000600052604160045260246000fd5b60405190808252806020026020018201604052801562000fec5781602001602082028036833780820191505090505b5090507f5844520000000000000000000000000000000000000000000000000000000000816000815181106200104b577f4e487b7100000000000000000000000000000000000000000000000000000000600052603260045260246000fd5b60200260200101907bffffffffffffffffffffffffffffffffffffffffffffffffffffffff191690817bffffffffffffffffffffffffffffffffffffffffffffffffffffffff1916815250506000600167ffffffffffffffff811115620010db577f4e487b7100000000000000000000000000000000000000000000000000000000600052604160045260246000fd5b6040519080825280602002602001820160405280156200110a5781602001602082028036833780820191505090505b509050600a60007f58445200000000000000000000000000000000000000000000000000000000007bffffffffffffffffffffffffffffffffffffffffffffffffffffffff1916815260200190815260200160002054816000815181106200119b577f4e487b7100000000000000000000000000000000000000000000000000000000600052603260045260246000fd5b6020026020010181815250507f7a72efae5f6b256f1ca71728b01f9dd7004ff3770dcaef4c44872b94d9f9e91b8282604051620011da92919062001848565b60405180910390a150505050565b60008183620011f8919062001af5565b905092915050565b6000818362001210919062001b56565b905092915050565b6000818362001228919062001a98565b905092915050565b826005600701600890048101928215620012c45791602002820160005b838211156200129057835183826101000a81548163ffffffff021916908360e01c021790555092602001926004016020816003010492830192600103026200124d565b8015620012c25782816101000a81549063ffffffff021916905560040160208160030104928301926001030262001290565b505b509050620012d39190620012d7565b5090565b5b80821115620012f2576000816000905550600101620012d8565b5090565b60006200130d6200130784620019b7565b6200198e565b905080838252602082019050828560208602820111156200132d57600080fd5b60005b8581101562001361578162001346888262001468565b84526020840193506020830192505060018101905062001330565b5050509392505050565b6000620013826200137c84620019e6565b6200198e565b90508083825260208201905082856020860282011115620013a257600080fd5b60005b85811015620013d65781620013bb88826200147f565b845260208401935060208301925050600181019050620013a5565b5050509392505050565b600081519050620013f18162001ed5565b92915050565b600082601f8301126200140957600080fd5b81516200141b848260208601620012f6565b91505092915050565b600082601f8301126200143657600080fd5b8151620014488482602086016200136b565b91505092915050565b600081519050620014628162001eef565b92915050565b600081519050620014798162001f09565b92915050565b600081519050620014908162001f23565b92915050565b600080600080600080600060e0888a031215620014b257600080fd5b6000620014c28a828b01620013e0565b9750506020620014d58a828b01620013e0565b965050604088015167ffffffffffffffff811115620014f357600080fd5b620015018a828b01620013f7565b955050606088015167ffffffffffffffff8111156200151f57600080fd5b6200152d8a828b0162001424565b9450506080620015408a828b01620013e0565b93505060a0620015538a828b01620013e0565b92505060c0620015668a828b0162001451565b91505092959891949750929550565b6000602082840312156200158857600080fd5b600062001598848285016200147f565b91505092915050565b6000620015af8383620016ba565b60208301905092915050565b6000620015c98383620017ed565b60208301905092915050565b620015e08162001b91565b82525050565b6000620015f38262001a35565b620015ff818562001a65565b93506200160c8362001a15565b8060005b8381101562001643578151620016278882620015a1565b9750620016348362001a4b565b92505060018101905062001610565b5085935050505092915050565b60006200165d8262001a40565b62001669818562001a76565b9350620016768362001a25565b8060005b83811015620016ad578151620016918882620015bb565b97506200169e8362001a58565b9250506001810190506200167a565b5085935050505092915050565b620016c58162001baf565b82525050565b620016d68162001baf565b82525050565b6000620016eb602f8362001a87565b9150620016f88262001cf8565b604082019050919050565b600062001712601f8362001a87565b91506200171f8262001d47565b602082019050919050565b60006200173960318362001a87565b9150620017468262001d70565b604082019050919050565b60006200176060228362001a87565b91506200176d8262001dbf565b604082019050919050565b60006200178760388362001a87565b9150620017948262001e0e565b604082019050919050565b6000620017ae60198362001a87565b9150620017bb8262001e5d565b602082019050919050565b6000620017d560398362001a87565b9150620017e28262001e86565b604082019050919050565b620017f88162001bfb565b82525050565b6000602082019050620018156000830184620015d5565b92915050565b6000604082019050620018326000830185620015d5565b620018416020830184620015d5565b9392505050565b60006040820190508181036000830152620018648185620015e6565b905081810360208301526200187a818462001650565b90509392505050565b60006020820190506200189a6000830184620016cb565b92915050565b60006020820190508181036000830152620018bb81620016dc565b9050919050565b60006020820190508181036000830152620018dd8162001703565b9050919050565b60006020820190508181036000830152620018ff816200172a565b9050919050565b60006020820190508181036000830152620019218162001751565b9050919050565b60006020820190508181036000830152620019438162001778565b9050919050565b6000602082019050818103600083015262001965816200179f565b9050919050565b600060208201905081810360008301526200198781620017c6565b9050919050565b60006200199a620019ad565b9050620019a8828262001c05565b919050565b6000604051905090565b600067ffffffffffffffff821115620019d557620019d462001cb8565b5b602082029050602081019050919050565b600067ffffffffffffffff82111562001a045762001a0362001cb8565b5b602082029050602081019050919050565b6000819050602082019050919050565b6000819050602082019050919050565b600081519050919050565b600081519050919050565b6000602082019050919050565b6000602082019050919050565b600082825260208201905092915050565b600082825260208201905092915050565b600082825260208201905092915050565b600062001aa58262001bfb565b915062001ab28362001bfb565b9250827fffffffffffffffffffffffffffffffffffffffffffffffffffffffffffffffff0382111562001aea5762001ae962001c89565b5b828201905092915050565b600062001b028262001bfb565b915062001b0f8362001bfb565b9250817fffffffffffffffffffffffffffffffffffffffffffffffffffffffffffffffff048311821515161562001b4b5762001b4a62001c89565b5b828202905092915050565b600062001b638262001bfb565b915062001b708362001bfb565b92508282101562001b865762001b8562001c89565b5b828203905092915050565b600062001b9e8262001bdb565b9050919050565b6000819050919050565b60007fffffffff0000000000000000000000000000000000000000000000000000000082169050919050565b600073ffffffffffffffffffffffffffffffffffffffff82169050919050565b6000819050919050565b62001c108262001ce7565b810181811067ffffffffffffffff8211171562001c325762001c3162001cb8565b5b80604052505050565b600062001c488262001bfb565b91507fffffffffffffffffffffffffffffffffffffffffffffffffffffffffffffffff82141562001c7e5762001c7d62001c89565b5b600182019050919050565b7f4e487b7100000000000000000000000000000000000000000000000000000000600052601160045260246000fd5b7f4e487b7100000000000000000000000000000000000000000000000000000000600052604160045260246000fd5b6000601f19601f8301169050919050565b7f43757272656e6379206b6579206c656e67746820616e642072617465206c656e60008201527f677468206d757374206d617463682e0000000000000000000000000000000000602082015250565b7f54696d6520697320746f6f2066617220696e746f207468652066757475726500600082015250565b7f52617465206f6620735553442063616e6e6f7420626520757064617465642c2060008201527f6974277320616c7761797320554e49542e000000000000000000000000000000602082015250565b7f4f776e6572206d757374206e6f7420626520746865207a65726f20616464726560008201527f7373000000000000000000000000000000000000000000000000000000000000602082015250565b7f43757272656e6379206b6579206172726179206c656e677468206d757374206d60008201527f61746368207261746573206172726179206c656e6774682e0000000000000000602082015250565b7f4f776e657220616464726573732063616e6e6f74206265203000000000000000600082015250565b7f5a65726f206973206e6f7420612076616c696420726174652c20706c6561736560008201527f2063616c6c2064656c6574655261746520696e73746561642e00000000000000602082015250565b62001ee08162001b91565b811462001eec57600080fd5b50565b62001efa8162001ba5565b811462001f0657600080fd5b50565b62001f148162001baf565b811462001f2057600080fd5b50565b62001f2e8162001bfb565b811462001f3a57600080fd5b50565b6165958062001f4d6000396000f3fe608060405234801561001057600080fd5b506004361061023d5760003560e01c8063833b1fce1161013b578063bd32aa44116100b8578063d24bdad51161007c578063d24bdad51461067e578063d95bb9a11461069a578063de5eb832146106cd578063e1686e72146106fd578063ea3d41091461072d5761023d565b8063bd32aa44146105ee578063c0e59e4d146105f8578063c17266eb14610628578063c58aaae614610644578063cf8f261d146106625761023d565b8063a461fc82116100ff578063a461fc8214610522578063aa687daf14610540578063ad752d6714610570578063af1ff972146105a0578063b8225dec146105d05761023d565b8063833b1fce146104a257806389f8ab94146104c05780638da5cb5b146104f05780638dc654a21461050e5780639cb8a26a146105185761023d565b80633278c960116101c95780634357855e1161018d5780634357855e1461041257806353a47bb71461042e5780635dc2944a1461044c57806379ba50971461047c57806379cb657a146104865761023d565b80633278c960146103705780633372b2b11461037a5780633608069414610396578063370d62ad146103b257806339d66fc0146103e25761023d565b80631d2fed16116102105780631d2fed16146102b857806320714f88146102e85780632de3e75f146103045780632ea913d41461032257806331131496146103525761023d565b80630ee4951b146102425780631627540c14610260578063165d35e11461027c57806317c70de41461029a575b600080fd5b61024a61075d565b60405161025791906157c6565b60405180910390f35b61027a60048036038101906102759190614b1d565b610763565b005b61028461086e565b60405161029191906152c2565b60405180910390f35b6102a261087d565b6040516102af91906157c6565b60405180910390f35b6102d260048036038101906102cd9190614b87565b610883565b6040516102df919061544b565b60405180910390f35b61030260048036038101906102fd9190614b1d565b610929565b005b61030c610aa4565b6040516103199190615466565b60405180910390f35b61033c60048036038101906103379190614d9a565b610aaa565b6040516103499190615481565b60405180910390f35b61035a610ae1565b60405161036791906152c2565b60405180910390f35b610378610b07565b005b610394600480360381019061038f9190614b1d565b610be8565b005b6103b060048036038101906103ab9190614c6b565b610d15565b005b6103cc60048036038101906103c79190614b46565b610f1d565b6040516103d9919061544b565b60405180910390f35b6103fc60048036038101906103f79190614ce8565b61108f565b60405161040991906157c6565b60405180910390f35b61042c60048036038101906104279190614c2f565b6111b4565b005b610436611563565b60405161044391906152c2565b60405180910390f35b61046660048036038101906104619190614b46565b611589565b6040516104739190615429565b60405180910390f35b610484611708565b005b6104a0600480360381019061049b9190614d9a565b6118bc565b005b6104aa61198f565b6040516104b791906152c2565b60405180910390f35b6104da60048036038101906104d59190614b46565b61199e565b6040516104e79190615429565b60405180910390f35b6104f8611b1d565b60405161050591906152c2565b60405180910390f35b610516611b43565b005b610520611d36565b005b61052a611ede565b60405161053791906157c6565b60405180910390f35b61055a60048036038101906105559190614d9a565b611ee5565b6040516105679190615481565b60405180910390f35b61058a60048036038101906105859190614c6b565b611f12565b604051610597919061544b565b60405180910390f35b6105ba60048036038101906105b59190614c6b565b611f7d565b6040516105c791906157c6565b60405180910390f35b6105d8611fd8565b6040516105e5919061544b565b60405180910390f35b6105f6611feb565b005b610612600480360381019061060d9190614c6b565b6120d9565b60405161061f91906157c6565b60405180910390f35b610642600480360381019061063d9190614d37565b612134565b005b61064c612586565b60405161065991906152c2565b60405180910390f35b61067c60048036038101906106779190614c94565b6125ac565b005b61069860048036038101906106939190614c6b565b612af3565b005b6106b460048036038101906106af9190614c6b565b612fb9565b6040516106c494939291906157e1565b60405180910390f35b6106e760048036038101906106e29190614c6b565b612ff6565b6040516106f491906157c6565b60405180910390f35b61071760048036038101906107129190614c6b565b61300e565b60405161072491906157c6565b60405180910390f35b61074760048036038101906107429190614c6b565b613026565b604051610754919061544b565b60405180910390f35b600d5481565b600660009054906101000a900473ffffffffffffffffffffffffffffffffffffffff1673ffffffffffffffffffffffffffffffffffffffff163373ffffffffffffffffffffffffffffffffffffffff16146107f3576040517f08c379a00000000000000000000000000000000000000000000000000000000081526004016107ea90615626565b60405180910390fd5b80600760006101000a81548173ffffffffffffffffffffffffffffffffffffffff021916908373ffffffffffffffffffffffffffffffffffffffff1602179055507f906a1c6bd7e3091ea86693dd029a831c19049ce77f1dce2ce0bab1cacbabce228160405161086391906152c2565b60405180910390a150565b600061087861312a565b905090565b60085481565b6000600c60009054906101000a900473ffffffffffffffffffffffffffffffffffffffff1673ffffffffffffffffffffffffffffffffffffffff163373ffffffffffffffffffffffffffffffffffffffff1614610915576040517f08c379a000000000000000000000000000000000000000000000000000000000815260040161090c90615606565b60405180910390fd5b610920848484613154565b90509392505050565b600660009054906101000a900473ffffffffffffffffffffffffffffffffffffffff1673ffffffffffffffffffffffffffffffffffffffff163373ffffffffffffffffffffffffffffffffffffffff16146109b9576040517f08c379a00000000000000000000000000000000000000000000000000000000081526004016109b090615626565b60405180910390fd5b600073ffffffffffffffffffffffffffffffffffffffff168173ffffffffffffffffffffffffffffffffffffffff161415610a29576040517f08c379a0000000000000000000000000000000000000000000000000000000008152600401610a20906155e6565b60405180910390fd5b80600960016101000a81548173ffffffffffffffffffffffffffffffffffffffff021916908373ffffffffffffffffffffffffffffffffffffffff1602179055507fd5da63a0b864b315bc04128dedbc93888c8529ee6cf47ce664dc204339228c5381604051610a9991906152c2565b60405180910390a150565b600f5481565b60128181548110610aba57600080fd5b9060005260206000209060089182820401919006600402915054906101000a900460e01b81565b600c60009054906101000a900473ffffffffffffffffffffffffffffffffffffffff1681565b600660009054906101000a900473ffffffffffffffffffffffffffffffffffffffff1673ffffffffffffffffffffffffffffffffffffffff163373ffffffffffffffffffffffffffffffffffffffff1614610b97576040517f08c379a0000000000000000000000000000000000000000000000000000000008152600401610b8e90615626565b60405180910390fd5b60006008819055506000600960006101000a81548160ff0219169083151502179055507f6adcc7125002935e0aa31697538ebbd65cfddf20431eb6ecdcfc3e238bfd082c60405160405180910390a1565b600660009054906101000a900473ffffffffffffffffffffffffffffffffffffffff1673ffffffffffffffffffffffffffffffffffffffff163373ffffffffffffffffffffffffffffffffffffffff1614610c78576040517f08c379a0000000000000000000000000000000000000000000000000000000008152600401610c6f90615626565b60405180910390fd5b80600c60006101000a81548173ffffffffffffffffffffffffffffffffffffffff021916908373ffffffffffffffffffffffffffffffffffffffff1602179055507f3df77beb5db05fcdd70a30fc8adf3f83f9501b68579455adbd100b8180940394600c60009054906101000a900473ffffffffffffffffffffffffffffffffffffffff16604051610d0a91906152c2565b60405180910390a150565b600c60009054906101000a900473ffffffffffffffffffffffffffffffffffffffff1673ffffffffffffffffffffffffffffffffffffffff163373ffffffffffffffffffffffffffffffffffffffff1614610da5576040517f08c379a0000000000000000000000000000000000000000000000000000000008152600401610d9c90615606565b60405180910390fd5b6000600a6000837bffffffffffffffffffffffffffffffffffffffffffffffffffffffff19167bffffffffffffffffffffffffffffffffffffffffffffffffffffffff191681526020019081526020016000205411610e39576040517f08c379a0000000000000000000000000000000000000000000000000000000008152600401610e30906155c6565b60405180910390fd5b600a6000827bffffffffffffffffffffffffffffffffffffffffffffffffffffffff19167bffffffffffffffffffffffffffffffffffffffffffffffffffffffff1916815260200190815260200160002060009055600b6000827bffffffffffffffffffffffffffffffffffffffffffffffffffffffff19167bffffffffffffffffffffffffffffffffffffffffffffffffffffffff19168152602001908152602001600020600090557f2cefb058ca1556b021b67f710e3df89c564650f01fef8cd944cbb14d7358680b81604051610f129190615481565b60405180910390a150565b600080600090505b8251811015611084577f7355534400000000000000000000000000000000000000000000000000000000838281518110610f88577f4e487b7100000000000000000000000000000000000000000000000000000000600052603260045260246000fd5b60200260200101517bffffffffffffffffffffffffffffffffffffffffffffffffffffffff19161415801561106157504261105f600d54600b6000878681518110610ffc577f4e487b7100000000000000000000000000000000000000000000000000000000600052603260045260246000fd5b60200260200101517bffffffffffffffffffffffffffffffffffffffffffffffffffffffff19167bffffffffffffffffffffffffffffffffffffffffffffffffffffffff191681526020019081526020016000205461311490919063ffffffff16565b105b1561107057600191505061108a565b60018161107d9190615973565b9050610f25565b60009150505b919050565b60008361109b81613026565b156110db576040517f08c379a00000000000000000000000000000000000000000000000000000000081526004016110d290615546565b60405180910390fd5b826110e581613026565b15611125576040517f08c379a000000000000000000000000000000000000000000000000000000000815260040161111c90615546565b60405180910390fd5b837bffffffffffffffffffffffffffffffffffffffffffffffffffffffff1916867bffffffffffffffffffffffffffffffffffffffffffffffffffffffff19161415611173578492506111ab565b6111a861117f85611f7d565b61119a61118b89611f7d565b8861367690919063ffffffff16565b61369b90919063ffffffff16565b92505b50509392505050565b81610258426111c39190615c59565b60106000838152602001908152602001600020600001541161121a576040517f08c379a000000000000000000000000000000000000000000000000000000000815260040161121190615686565b60405180910390fd5b826005600082815260200190815260200160002060009054906101000a900473ffffffffffffffffffffffffffffffffffffffff1673ffffffffffffffffffffffffffffffffffffffff163373ffffffffffffffffffffffffffffffffffffffff16146112bc576040517f08c379a00000000000000000000000000000000000000000000000000000000081526004016112b3906156e6565b60405180910390fd5b6005600082815260200190815260200160002060006101000a81549073ffffffffffffffffffffffffffffffffffffffff0219169055807f7cc135e0cebb02c3480ae5d74d377283180a2601f8f644edf7987b009316c63a60405160405180910390a260006010600086815260200190815260200160002060010160009054906101000a900460e01b90506000601060008781526020019081526020016000206000015490506000600167ffffffffffffffff8111156113a5577f4e487b7100000000000000000000000000000000000000000000000000000000600052604160045260246000fd5b6040519080825280602002602001820160405280156113d35781602001602082028036833780820191505090505b5090508281600081518110611411577f4e487b7100000000000000000000000000000000000000000000000000000000600052603260045260246000fd5b60200260200101907bffffffffffffffffffffffffffffffffffffffffffffffffffffffff191690817bffffffffffffffffffffffffffffffffffffffffffffffffffffffff1916815250506000600167ffffffffffffffff8111156114a0577f4e487b7100000000000000000000000000000000000000000000000000000000600052604160045260246000fd5b6040519080825280602002602001820160405280156114ce5781602001602082028036833780820191505090505b509050868160008151811061150c577f4e487b7100000000000000000000000000000000000000000000000000000000600052603260045260246000fd5b602002602001018181525050611523828285613154565b50601060008981526020019081526020016000206000808201600090556001820160006101000a81549063ffffffff021916905550505050505050505050565b600760009054906101000a900473ffffffffffffffffffffffffffffffffffffffff1681565b60606000825167ffffffffffffffff8111156115ce577f4e487b7100000000000000000000000000000000000000000000000000000000600052604160045260246000fd5b6040519080825280602002602001820160405280156115fc5781602001602082028036833780820191505090505b50905060005b83518160ff1610156116fe57600a6000858360ff168151811061164e577f4e487b7100000000000000000000000000000000000000000000000000000000600052603260045260246000fd5b60200260200101517bffffffffffffffffffffffffffffffffffffffffffffffffffffffff19167bffffffffffffffffffffffffffffffffffffffffffffffffffffffff1916815260200190815260200160002054828260ff16815181106116df577f4e487b7100000000000000000000000000000000000000000000000000000000600052603260045260246000fd5b60200260200101818152505080806116f690615e14565b915050611602565b5080915050919050565b600760009054906101000a900473ffffffffffffffffffffffffffffffffffffffff1673ffffffffffffffffffffffffffffffffffffffff163373ffffffffffffffffffffffffffffffffffffffff1614611798576040517f08c379a000000000000000000000000000000000000000000000000000000000815260040161178f90615526565b60405180910390fd5b7fb532073b38c83145e3e5135377a08bf9aab55bc0fd7c1179cd4fb995d2a5159c600660009054906101000a900473ffffffffffffffffffffffffffffffffffffffff16600760009054906101000a900473ffffffffffffffffffffffffffffffffffffffff1660405161180d9291906152dd565b60405180910390a1600760009054906101000a900473ffffffffffffffffffffffffffffffffffffffff16600660006101000a81548173ffffffffffffffffffffffffffffffffffffffff021916908373ffffffffffffffffffffffffffffffffffffffff1602179055506000600760006101000a81548173ffffffffffffffffffffffffffffffffffffffff021916908373ffffffffffffffffffffffffffffffffffffffff160217905550565b600660009054906101000a900473ffffffffffffffffffffffffffffffffffffffff1673ffffffffffffffffffffffffffffffffffffffff163373ffffffffffffffffffffffffffffffffffffffff161461194c576040517f08c379a000000000000000000000000000000000000000000000000000000000815260040161194390615626565b60405180910390fd5b80600d819055507f16529d8c407b08938da67de7fa4319199baffce4f5d1971f812cc770b0237e66600d5460405161198491906157c6565b60405180910390a150565b60006119996136c0565b905090565b60606000825167ffffffffffffffff8111156119e3577f4e487b7100000000000000000000000000000000000000000000000000000000600052604160045260246000fd5b604051908082528060200260200182016040528015611a115781602001602082028036833780820191505090505b50905060005b83518160ff161015611b1357600b6000858360ff1681518110611a63577f4e487b7100000000000000000000000000000000000000000000000000000000600052603260045260246000fd5b60200260200101517bffffffffffffffffffffffffffffffffffffffffffffffffffffffff19167bffffffffffffffffffffffffffffffffffffffffffffffffffffffff1916815260200190815260200160002054828260ff1681518110611af4577f4e487b7100000000000000000000000000000000000000000000000000000000600052603260045260246000fd5b6020026020010181815250508080611b0b90615e14565b915050611a17565b5080915050919050565b600660009054906101000a900473ffffffffffffffffffffffffffffffffffffffff1681565b600660009054906101000a900473ffffffffffffffffffffffffffffffffffffffff1673ffffffffffffffffffffffffffffffffffffffff163373ffffffffffffffffffffffffffffffffffffffff1614611bd3576040517f08c379a0000000000000000000000000000000000000000000000000000000008152600401611bca90615626565b60405180910390fd5b6000611bdd61312a565b90508073ffffffffffffffffffffffffffffffffffffffff1663a9059cbb338373ffffffffffffffffffffffffffffffffffffffff166370a08231306040518263ffffffff1660e01b8152600401611c3591906152c2565b60206040518083038186803b158015611c4d57600080fd5b505afa158015611c61573d6000803e3d6000fd5b505050506040513d601f19601f82011682018060405250810190611c859190614dc3565b6040518363ffffffff1660e01b8152600401611ca2929190615306565b602060405180830381600087803b158015611cbc57600080fd5b505af1158015611cd0573d6000803e3d6000fd5b505050506040513d601f19601f82011682018060405250810190611cf49190614c06565b611d33576040517f08c379a0000000000000000000000000000000000000000000000000000000008152600401611d2a90615646565b60405180910390fd5b50565b600660009054906101000a900473ffffffffffffffffffffffffffffffffffffffff1673ffffffffffffffffffffffffffffffffffffffff163373ffffffffffffffffffffffffffffffffffffffff1614611dc6576040517f08c379a0000000000000000000000000000000000000000000000000000000008152600401611dbd90615626565b60405180910390fd5b600960009054906101000a900460ff16611e15576040517f08c379a0000000000000000000000000000000000000000000000000000000008152600401611e0c90615666565b60405180910390fd5b426224ea00600854611e279190615973565b10611e67576040517f08c379a0000000000000000000000000000000000000000000000000000000008152600401611e5e90615726565b60405180910390fd5b6000600960019054906101000a900473ffffffffffffffffffffffffffffffffffffffff1690507f8a09e1677ced846cb537dc2b172043bd05a1a81ad7e0033a7ef8ba762df990b781604051611ebd91906152c2565b60405180910390a18073ffffffffffffffffffffffffffffffffffffffff16ff5b6224ea0081565b600e8160058110611ef557600080fd5b60089182820401919006600402915054906101000a900460e01b81565b600060116000837bffffffffffffffffffffffffffffffffffffffffffffffffffffffff19167bffffffffffffffffffffffffffffffffffffffffffffffffffffffff1916815260200190815260200160002060030160009054906101000a900460ff169050919050565b6000600a6000837bffffffffffffffffffffffffffffffffffffffffffffffffffffffff19167bffffffffffffffffffffffffffffffffffffffffffffffffffffffff19168152602001908152602001600020549050919050565b600960009054906101000a900460ff1681565b600660009054906101000a900473ffffffffffffffffffffffffffffffffffffffff1673ffffffffffffffffffffffffffffffffffffffff163373ffffffffffffffffffffffffffffffffffffffff161461207b576040517f08c379a000000000000000000000000000000000000000000000000000000000815260040161207290615626565b60405180910390fd5b426008819055506001600960006101000a81548160ff0219169083151502179055507fcbd94ca75b8dc45c9d80c77e851670e78843c0d75180cb81db3e2158228fa9a66224ea006040516120cf91906157c6565b60405180910390a1565b6000600b6000837bffffffffffffffffffffffffffffffffffffffffffffffffffffffff19167bffffffffffffffffffffffffffffffffffffffffffffffffffffffff19168152602001908152602001600020549050919050565b600660009054906101000a900473ffffffffffffffffffffffffffffffffffffffff1673ffffffffffffffffffffffffffffffffffffffff163373ffffffffffffffffffffffffffffffffffffffff16146121c4576040517f08c379a00000000000000000000000000000000000000000000000000000000081526004016121bb90615626565b60405180910390fd5b60008311612207576040517f08c379a00000000000000000000000000000000000000000000000000000000081526004016121fe906157a6565b60405180910390fd5b6000811161224a576040517f08c379a000000000000000000000000000000000000000000000000000000000815260040161224190615746565b60405180910390fd5b82821161228c576040517f08c379a000000000000000000000000000000000000000000000000000000000815260040161228390615786565b60405180910390fd5b6122a06002846130e890919063ffffffff16565b82106122e1576040517f08c379a00000000000000000000000000000000000000000000000000000000081526004016122d890615706565b60405180910390fd5b828110612323576040517f08c379a000000000000000000000000000000000000000000000000000000000815260040161231a906156c6565b60405180910390fd5b600060116000867bffffffffffffffffffffffffffffffffffffffffffffffffffffffff19167bffffffffffffffffffffffffffffffffffffffffffffffffffffffff1916815260200190815260200160002060000154116123cb5760128490806001815401808255809150506001900390600052602060002090600891828204019190066004029091909190916101000a81548163ffffffff021916908360e01c02179055505b8260116000867bffffffffffffffffffffffffffffffffffffffffffffffffffffffff19167bffffffffffffffffffffffffffffffffffffffffffffffffffffffff19168152602001908152602001600020600001819055508160116000867bffffffffffffffffffffffffffffffffffffffffffffffffffffffff19167bffffffffffffffffffffffffffffffffffffffffffffffffffffffff19168152602001908152602001600020600101819055508060116000867bffffffffffffffffffffffffffffffffffffffffffffffffffffffff19167bffffffffffffffffffffffffffffffffffffffffffffffffffffffff1916815260200190815260200160002060020181905550600060116000867bffffffffffffffffffffffffffffffffffffffffffffffffffffffff19167bffffffffffffffffffffffffffffffffffffffffffffffffffffffff1916815260200190815260200160002060030160006101000a81548160ff0219169083151502179055507f2133db505c9d92361db62ae15e94eb366fc5188c73bb9943966e6176c026c79e8484848460405161257894939291906154e1565b60405180910390a150505050565b600960019054906101000a900473ffffffffffffffffffffffffffffffffffffffff1681565b600660009054906101000a900473ffffffffffffffffffffffffffffffffffffffff1673ffffffffffffffffffffffffffffffffffffffff163373ffffffffffffffffffffffffffffffffffffffff161461263c576040517f08c379a000000000000000000000000000000000000000000000000000000000815260040161263390615626565b60405180910390fd5b6000612652600f5430634357855e60e01b6136ea565b905061269e6040518060400160405280600381526020017f73796d0000000000000000000000000000000000000000000000000000000000815250838361371b9092919063ffffffff16565b61271d6040518060400160405280600781526020017f636f6e76657274000000000000000000000000000000000000000000000000008152506040518060400160405280600381526020017f55534400000000000000000000000000000000000000000000000000000000008152508361371b9092919063ffffffff16565b6000600567ffffffffffffffff811115612760577f4e487b7100000000000000000000000000000000000000000000000000000000600052604160045260246000fd5b60405190808252806020026020018201604052801561279357816020015b606081526020019060019003908161277e5790505b5090506040518060400160405280600481526020017f646174610000000000000000000000000000000000000000000000000000000081525081600081518110612806577f4e487b7100000000000000000000000000000000000000000000000000000000600052603260045260246000fd5b6020026020010181905250828160018151811061284c577f4e487b7100000000000000000000000000000000000000000000000000000000600052603260045260246000fd5b60200260200101819052506040518060400160405280600581526020017f71756f7465000000000000000000000000000000000000000000000000000000815250816002815181106128c7577f4e487b7100000000000000000000000000000000000000000000000000000000600052603260045260246000fd5b60200260200101819052506040518060400160405280600381526020017f555344000000000000000000000000000000000000000000000000000000000081525081600381518110612942577f4e487b7100000000000000000000000000000000000000000000000000000000600052603260045260246000fd5b60200260200101819052506040518060400160405280600581526020017f7072696365000000000000000000000000000000000000000000000000000000815250816004815181106129bd577f4e487b7100000000000000000000000000000000000000000000000000000000600052603260045260246000fd5b6020026020010181905250612a126040518060400160405280600881526020017f636f707950617468000000000000000000000000000000000000000000000000815250828461374e9092919063ffffffff16565b612a646040518060400160405280600581526020017f74696d6573000000000000000000000000000000000000000000000000000000815250670de0b6b3a7640000846137fb9092919063ffffffff16565b6040518060400160405280428152602001857bffffffffffffffffffffffffffffffffffffffffffffffffffffffff191681525060106000612aae85670de0b6b3a764000061382e565b81526020019081526020016000206000820151816000015560208201518160010160006101000a81548163ffffffff021916908360e01c021790555090505050505050565b600660009054906101000a900473ffffffffffffffffffffffffffffffffffffffff1673ffffffffffffffffffffffffffffffffffffffff163373ffffffffffffffffffffffffffffffffffffffff1614612b83576040517f08c379a0000000000000000000000000000000000000000000000000000000008152600401612b7a90615626565b60405180910390fd5b600060116000837bffffffffffffffffffffffffffffffffffffffffffffffffffffffff19167bffffffffffffffffffffffffffffffffffffffffffffffffffffffff1916815260200190815260200160002060000181905550600060116000837bffffffffffffffffffffffffffffffffffffffffffffffffffffffff19167bffffffffffffffffffffffffffffffffffffffffffffffffffffffff1916815260200190815260200160002060010181905550600060116000837bffffffffffffffffffffffffffffffffffffffffffffffffffffffff19167bffffffffffffffffffffffffffffffffffffffffffffffffffffffff1916815260200190815260200160002060020181905550600060116000837bffffffffffffffffffffffffffffffffffffffffffffffffffffffff19167bffffffffffffffffffffffffffffffffffffffffffffffffffffffff1916815260200190815260200160002060030160006101000a81548160ff02191690831515021790555060005b6012805490508160ff161015612f7657817bffffffffffffffffffffffffffffffffffffffffffffffffffffffff191660128260ff1681548110612d6e577f4e487b7100000000000000000000000000000000000000000000000000000000600052603260045260246000fd5b90600052602060002090600891828204019190066004029054906101000a900460e01b7bffffffffffffffffffffffffffffffffffffffffffffffffffffffff19161415612f635760128160ff1681548110612df3577f4e487b7100000000000000000000000000000000000000000000000000000000600052603260045260246000fd5b90600052602060002090600891828204019190066004026101000a81549063ffffffff021916905560126001601280549050612e2f9190615c59565b81548110612e66577f4e487b7100000000000000000000000000000000000000000000000000000000600052603260045260246000fd5b90600052602060002090600891828204019190066004029054906101000a900460e01b60128260ff1681548110612ec6577f4e487b7100000000000000000000000000000000000000000000000000000000600052603260045260246000fd5b90600052602060002090600891828204019190066004026101000a81548163ffffffff021916908360e01c02179055506012805480612f2e577f4e487b7100000000000000000000000000000000000000000000000000000000600052603160045260246000fd5b60019003818190600052602060002090600891828204019190066004026101000a81549063ffffffff02191690559055612f76565b8080612f6e90615e14565b915050612d01565b507f2133db505c9d92361db62ae15e94eb366fc5188c73bb9943966e6176c026c79e816000806000604051612fae949392919061549c565b60405180910390a150565b60116020528060005260406000206000915090508060000154908060010154908060020154908060030160009054906101000a900460ff16905084565b600a6020528060005260406000206000915090505481565b600b6020528060005260406000206000915090505481565b60007f7355534400000000000000000000000000000000000000000000000000000000827bffffffffffffffffffffffffffffffffffffffffffffffffffffffff1916141561307857600090506130e3565b426130df600d54600b6000867bffffffffffffffffffffffffffffffffffffffffffffffffffffffff19167bffffffffffffffffffffffffffffffffffffffffffffffffffffffff191681526020019081526020016000205461311490919063ffffffff16565b1090505b919050565b600081836130f69190615b6b565b905092915050565b6000818361310c9190615c59565b905092915050565b600081836131229190615973565b905092915050565b6000600260009054906101000a900473ffffffffffffffffffffffffffffffffffffffff16905090565b6000825184511461319a576040517f08c379a0000000000000000000000000000000000000000000000000000000008152600401613191906156a6565b60405180910390fd5b610258426131a89190615973565b82106131e9576040517f08c379a00000000000000000000000000000000000000000000000000000000081526004016131e090615586565b60405180910390fd5b60005b8451811015613628576000848281518110613230577f4e487b7100000000000000000000000000000000000000000000000000000000600052603260045260246000fd5b60200260200101511415613279576040517f08c379a000000000000000000000000000000000000000000000000000000000815260040161327090615766565b60405180910390fd5b7f73555344000000000000000000000000000000000000000000000000000000008582815181106132d3577f4e487b7100000000000000000000000000000000000000000000000000000000600052603260045260246000fd5b60200260200101517bffffffffffffffffffffffffffffffffffffffffffffffffffffffff1916141561333b576040517f08c379a0000000000000000000000000000000000000000000000000000000008152600401613332906155a6565b60405180910390fd5b600b6000868381518110613378577f4e487b7100000000000000000000000000000000000000000000000000000000600052603260045260246000fd5b60200260200101517bffffffffffffffffffffffffffffffffffffffffffffffffffffffff19167bffffffffffffffffffffffffffffffffffffffffffffffffffffffff19168152602001908152602001600020548310156133d957613615565b613463858281518110613415577f4e487b7100000000000000000000000000000000000000000000000000000000600052603260045260246000fd5b6020026020010151858381518110613456577f4e487b7100000000000000000000000000000000000000000000000000000000600052603260045260246000fd5b6020026020010151613865565b84828151811061349c577f4e487b7100000000000000000000000000000000000000000000000000000000600052603260045260246000fd5b6020026020010181815250508381815181106134e1577f4e487b7100000000000000000000000000000000000000000000000000000000600052603260045260246000fd5b6020026020010151600a6000878481518110613526577f4e487b7100000000000000000000000000000000000000000000000000000000600052603260045260246000fd5b60200260200101517bffffffffffffffffffffffffffffffffffffffffffffffffffffffff19167bffffffffffffffffffffffffffffffffffffffffffffffffffffffff191681526020019081526020016000208190555082600b60008784815181106135bc577f4e487b7100000000000000000000000000000000000000000000000000000000600052603260045260246000fd5b60200260200101517bffffffffffffffffffffffffffffffffffffffffffffffffffffffff19167bffffffffffffffffffffffffffffffffffffffffffffffffffffffff19168152602001908152602001600020819055505b808061362090615dcb565b9150506131ec565b507f7a72efae5f6b256f1ca71728b01f9dd7004ff3770dcaef4c44872b94d9f9e91b848460405161365a9291906153f2565b60405180910390a161366b82613a26565b600190509392505050565b60006136938383601260ff16600a61368e9190615a4d565b613e14565b905092915050565b60006136b88383601260ff16600a6136b39190615a4d565b613e7e565b905092915050565b6000600360009054906101000a900473ffffffffffffffffffffffffffffffffffffffff16905090565b6136f2614884565b6136fa614884565b61371185858584613eef909392919063ffffffff16565b9150509392505050565b613732828460800151613f9f90919063ffffffff16565b613749818460800151613f9f90919063ffffffff16565b505050565b613765828460800151613f9f90919063ffffffff16565b6137728360800151613fc4565b60005b81518110156137e8576137d58282815181106137ba577f4e487b7100000000000000000000000000000000000000000000000000000000600052603260045260246000fd5b60200260200101518560800151613f9f90919063ffffffff16565b80806137e090615dcb565b915050613775565b506137f68360800151613fd2565b505050565b613812828460800151613f9f90919063ffffffff16565b613829818460800151613fe090919063ffffffff16565b505050565b600061385d600360009054906101000a900473ffffffffffffffffffffffffffffffffffffffff16848461408d565b905092915050565b60008060116000857bffffffffffffffffffffffffffffffffffffffffffffffffffffffff19167bffffffffffffffffffffffffffffffffffffffffffffffffffffffff19168152602001908152602001600020905060008160000154116138d05782915050613a20565b6000600a6000867bffffffffffffffffffffffffffffffffffffffffffffffffffffffff19167bffffffffffffffffffffffffffffffffffffffffffffffffffffffff191681526020019081526020016000205490508160030160009054906101000a900460ff16613a1a576000613956600284600001546130e890919063ffffffff16565b9050848111613968576000915061397e565b61397b85826130fe90919063ffffffff16565b91505b8260010154821061399557826001015491506139a9565b826002015482116139a857826002015491505b5b82600101548214806139be5750826002015482145b15613a185760018360030160006101000a81548160ff0219169083151502179055507f684252d859279842b23fadbb3debd086980415e4b545844875fd4189cac852a886604051613a0f9190615481565b60405180910390a15b505b80925050505b92915050565b6000805b6005811015613afe57613ae982600a6000600e8560058110613a75577f4e487b7100000000000000000000000000000000000000000000000000000000600052603260045260246000fd5b600891828204019190066004029054906101000a900460e01b7bffffffffffffffffffffffffffffffffffffffffffffffffffffffff19167bffffffffffffffffffffffffffffffffffffffffffffffffffffffff191681526020019081526020016000205461311490919063ffffffff16565b91508080613af690615dcb565b915050613a2a565b5080600a60007f58445200000000000000000000000000000000000000000000000000000000007bffffffffffffffffffffffffffffffffffffffffffffffffffffffff191681526020019081526020016000208190555081600b60007f58445200000000000000000000000000000000000000000000000000000000007bffffffffffffffffffffffffffffffffffffffffffffffffffffffff19168152602001908152602001600020819055506000600167ffffffffffffffff811115613bf0577f4e487b7100000000000000000000000000000000000000000000000000000000600052604160045260246000fd5b604051908082528060200260200182016040528015613c1e5781602001602082028036833780820191505090505b5090507f584452000000000000000000000000000000000000000000000000000000000081600081518110613c7c577f4e487b7100000000000000000000000000000000000000000000000000000000600052603260045260246000fd5b60200260200101907bffffffffffffffffffffffffffffffffffffffffffffffffffffffff191690817bffffffffffffffffffffffffffffffffffffffffffffffffffffffff1916815250506000600167ffffffffffffffff811115613d0b577f4e487b7100000000000000000000000000000000000000000000000000000000600052604160045260246000fd5b604051908082528060200260200182016040528015613d395781602001602082028036833780820191505090505b509050600a60007f58445200000000000000000000000000000000000000000000000000000000007bffffffffffffffffffffffffffffffffffffffffffffffffffffffff191681526020019081526020016000205481600081518110613dc9577f4e487b7100000000000000000000000000000000000000000000000000000000600052603260045260246000fd5b6020026020010181815250507f7a72efae5f6b256f1ca71728b01f9dd7004ff3770dcaef4c44872b94d9f9e91b8282604051613e069291906153f2565b60405180910390a150505050565b600080600a83613e2491906159c9565b613e3785876130e890919063ffffffff16565b613e4191906159c9565b90506005600a82613e529190615e6c565b10613e6757600a81613e649190615973565b90505b600a81613e7491906159c9565b9150509392505050565b600080613eb284613ea4600a86613e959190615b6b565b886130e890919063ffffffff16565b61415990919063ffffffff16565b90506005600a82613ec39190615e6c565b10613ed857600a81613ed59190615973565b90505b600a81613ee591906159c9565b9150509392505050565b613ef7614884565b613f07856080015161010061416f565b508385600001818152505082856020019073ffffffffffffffffffffffffffffffffffffffff16908173ffffffffffffffffffffffffffffffffffffffff16815250508185604001907bffffffffffffffffffffffffffffffffffffffffffffffffffffffff191690817bffffffffffffffffffffffffffffffffffffffffffffffffffffffff191681525050849050949350505050565b613fac82600383516141d9565b613fbf818361435e90919063ffffffff16565b505050565b613fcf816004614380565b50565b613fdd816007614380565b50565b7fffffffffffffffffffffffffffffffffffffffffffffffff00000000000000008112156140175761401282826143a2565b614089565b67ffffffffffffffff811315614036576140318282614419565b614088565b6000811261404f5761404a826000836141d9565b614087565b614086826001837fffffffffffffffffffffffffffffffffffffffffffffffffffffffffffffffff6140819190615bc5565b6141d9565b5b5b5b5050565b60008060045490506001816140a29190615973565b6004819055506000634042994660e01b60008087600001513089604001518760018c60800151600001516040516024016140e398979695949392919061532f565b604051602081830303815290604052907bffffffffffffffffffffffffffffffffffffffffffffffffffffffff19166020820180517bffffffffffffffffffffffffffffffffffffffffffffffffffffffff8381831617835250505050905061414e86838684614465565b925050509392505050565b6000818361416791906159c9565b905092915050565b6141776148f1565b60006020836141869190615e6c565b146141b2576020826141989190615e6c565b60206141a49190615c59565b826141af9190615973565b91505b81836020018181525050604051808452600081528281016020016040525082905092915050565b60178167ffffffffffffffff16116142105761420a8160058460ff16901b60ff16178461460990919063ffffffff16565b50614359565b60ff8167ffffffffffffffff16116142665761423f601860058460ff16901b178461460990919063ffffffff16565b506142608167ffffffffffffffff166001856146299092919063ffffffff16565b50614358565b61ffff8167ffffffffffffffff16116142bd57614296601960058460ff16901b178461460990919063ffffffff16565b506142b78167ffffffffffffffff166002856146299092919063ffffffff16565b50614357565b63ffffffff8167ffffffffffffffff1611614316576142ef601a60058460ff16901b178461460990919063ffffffff16565b506143108167ffffffffffffffff166004856146299092919063ffffffff16565b50614356565b614333601b60058460ff16901b178461460990919063ffffffff16565b506143548167ffffffffffffffff166008856146299092919063ffffffff16565b505b5b5b5b505050565b6143666148f1565b6143788384600001515184855161464b565b905092915050565b61439d601f60058360ff16901b178361460990919063ffffffff16565b505050565b6143c060036005600660ff16901b178361460990919063ffffffff16565b5061441582827fffffffffffffffffffffffffffffffffffffffffffffffffffffffffffffffff6143f19190615bc5565b60405160200161440191906157c6565b60405160208183030381529060405261473a565b5050565b61443760026005600660ff16901b178361460990919063ffffffff16565b50614461828260405160200161444d91906157c6565b60405160208183030381529060405261473a565b5050565b6000308460405160200161447a929190615296565b604051602081830303815290604052805190602001209050846005600083815260200190815260200160002060006101000a81548173ffffffffffffffffffffffffffffffffffffffff021916908373ffffffffffffffffffffffffffffffffffffffff160217905550807fb5e6e01e79f91267dc17b4e6314d5d4d03593d2ceee0fbb452b750bd70ea5af960405160405180910390a2600260009054906101000a900473ffffffffffffffffffffffffffffffffffffffff1673ffffffffffffffffffffffffffffffffffffffff16634000aea08685856040518463ffffffff1660e01b8152600401614570939291906153b4565b602060405180830381600087803b15801561458a57600080fd5b505af115801561459e573d6000803e3d6000fd5b505050506040513d601f19601f820116820180604052508101906145c29190614c06565b614601576040517f08c379a00000000000000000000000000000000000000000000000000000000081526004016145f890615566565b60405180910390fd5b949350505050565b6146116148f1565b614621838460000151518461475f565b905092915050565b6146316148f1565b6146428485600001515185856147b6565b90509392505050565b6146536148f1565b825182111561466157600080fd5b846020015182856146729190615973565b11156146a7576146a6856002614697886020015188876146929190615973565b614844565b6146a19190615b6b565b614860565b5b6000808651805187602083010193508088870111156146c65787860182525b60208701925050505b6020841061470d57805182526020826146e89190615973565b91506020816146f79190615973565b90506020846147069190615c59565b93506146cf565b60006001856020036101000a03905080198251168184511681811785525050508692505050949350505050565b61474782600283516141d9565b61475a818361435e90919063ffffffff16565b505050565b6147676148f1565b8360200151831061478d5761478c84600286602001516147879190615b6b565b614860565b5b83518051602085830101848153818614156147a9576001820183525b5050508390509392505050565b6147be6148f1565b846020015184836147cf9190615973565b11156147f7576147f685600286856147e79190615973565b6147f19190615b6b565b614860565b5b60006001836101006148099190615a4d565b6148139190615c59565b905085518386820101858319825116178152815185880111156148365784870182525b505085915050949350505050565b6000818311156148565782905061485a565b8190505b92915050565b600082600001519050614873838361416f565b5061487e838261435e565b50505050565b6040518060a0016040528060008019168152602001600073ffffffffffffffffffffffffffffffffffffffff16815260200160007bffffffffffffffffffffffffffffffffffffffffffffffffffffffff19168152602001600081526020016148eb6148f1565b81525090565b604051806040016040528060608152602001600081525090565b600061491e6149198461584b565b615826565b9050808382526020820190508285602086028201111561493d57600080fd5b60005b8581101561496d57816149538882614ab4565b845260208401935060208301925050600181019050614940565b5050509392505050565b600061498a61498584615877565b615826565b905080838252602082019050828560208602820111156149a957600080fd5b60005b858110156149d957816149bf8882614af3565b8452602084019350602083019250506001810190506149ac565b5050509392505050565b60006149f66149f1846158a3565b615826565b905082815260208101848484011115614a0e57600080fd5b614a19848285615d58565b509392505050565b600081359050614a30816164ec565b92915050565b600082601f830112614a4757600080fd5b8135614a5784826020860161490b565b91505092915050565b600082601f830112614a7157600080fd5b8135614a81848260208601614977565b91505092915050565b600081519050614a9981616503565b92915050565b600081359050614aae8161651a565b92915050565b600081359050614ac381616531565b92915050565b600082601f830112614ada57600080fd5b8135614aea8482602086016149e3565b91505092915050565b600081359050614b0281616548565b92915050565b600081519050614b1781616548565b92915050565b600060208284031215614b2f57600080fd5b6000614b3d84828501614a21565b91505092915050565b600060208284031215614b5857600080fd5b600082013567ffffffffffffffff811115614b7257600080fd5b614b7e84828501614a36565b91505092915050565b600080600060608486031215614b9c57600080fd5b600084013567ffffffffffffffff811115614bb657600080fd5b614bc286828701614a36565b935050602084013567ffffffffffffffff811115614bdf57600080fd5b614beb86828701614a60565b9250506040614bfc86828701614af3565b9150509250925092565b600060208284031215614c1857600080fd5b6000614c2684828501614a8a565b91505092915050565b60008060408385031215614c4257600080fd5b6000614c5085828601614a9f565b9250506020614c6185828601614af3565b9150509250929050565b600060208284031215614c7d57600080fd5b6000614c8b84828501614ab4565b91505092915050565b60008060408385031215614ca757600080fd5b6000614cb585828601614ab4565b925050602083013567ffffffffffffffff811115614cd257600080fd5b614cde85828601614ac9565b9150509250929050565b600080600060608486031215614cfd57600080fd5b6000614d0b86828701614ab4565b9350506020614d1c86828701614af3565b9250506040614d2d86828701614ab4565b9150509250925092565b60008060008060808587031215614d4d57600080fd5b6000614d5b87828801614ab4565b9450506020614d6c87828801614af3565b9350506040614d7d87828801614af3565b9250506060614d8e87828801614af3565b91505092959194509250565b600060208284031215614dac57600080fd5b6000614dba84828501614af3565b91505092915050565b600060208284031215614dd557600080fd5b6000614de384828501614b08565b91505092915050565b6000614df88383614f05565b60208301905092915050565b6000614e108383615261565b60208301905092915050565b614e2581615c8d565b82525050565b6000614e36826158f4565b614e40818561592f565b9350614e4b836158d4565b8060005b83811015614e7c578151614e638882614dec565b9750614e6e83615915565b925050600181019050614e4f565b5085935050505092915050565b6000614e94826158ff565b614e9e8185615940565b9350614ea9836158e4565b8060005b83811015614eda578151614ec18882614e04565b9750614ecc83615922565b925050600181019050614ead565b5085935050505092915050565b614ef081615c9f565b82525050565b614eff81615cab565b82525050565b614f0e81615cb5565b82525050565b614f1d81615cb5565b82525050565b6000614f2e8261590a565b614f388185615951565b9350614f48818560208601615d67565b614f5181615f2a565b840191505092915050565b614f6d614f6882615d22565b615e3e565b82525050565b614f7c81615d46565b82525050565b6000614f8f603583615962565b9150614f9a82615f55565b604082019050919050565b6000614fb2602283615962565b9150614fbd82615fa4565b604082019050919050565b6000614fd5602383615962565b9150614fe082615ff3565b604082019050919050565b6000614ff8601f83615962565b915061500382616042565b602082019050919050565b600061501b603183615962565b91506150268261606b565b604082019050919050565b600061503e600c83615962565b9150615049826160ba565b602082019050919050565b6000615061602883615962565b915061506c826160e3565b604082019050919050565b6000615084602783615962565b915061508f82616132565b604082019050919050565b60006150a7602f83615962565b91506150b282616181565b604082019050919050565b60006150ca601283615962565b91506150d5826161d0565b602082019050919050565b60006150ed602883615962565b91506150f8826161f9565b604082019050919050565b6000615110601383615962565b915061511b82616248565b602082019050919050565b6000615133603883615962565b915061513e82616271565b604082019050919050565b6000615156602783615962565b9150615161826162c0565b604082019050919050565b6000615179602883615962565b91506151848261630f565b604082019050919050565b600061519c602e83615962565b91506151a78261635e565b604082019050919050565b60006151bf602783615962565b91506151ca826163ad565b604082019050919050565b60006151e2601a83615962565b91506151ed826163fc565b602082019050919050565b6000615205603983615962565b915061521082616425565b604082019050919050565b6000615228602783615962565b915061523382616474565b604082019050919050565b600061524b601a83615962565b9150615256826164c3565b602082019050919050565b61526a81615d0b565b82525050565b61527981615d0b565b82525050565b61529061528b82615d0b565b615e62565b82525050565b60006152a28285614f5c565b6014820191506152b2828461527f565b6020820191508190509392505050565b60006020820190506152d76000830184614e1c565b92915050565b60006040820190506152f26000830185614e1c565b6152ff6020830184614e1c565b9392505050565b600060408201905061531b6000830185614e1c565b6153286020830184615270565b9392505050565b600061010082019050615345600083018b614e1c565b615352602083018a615270565b61535f6040830189614ef6565b61536c6060830188614e1c565b6153796080830187614f14565b61538660a0830186615270565b61539360c0830185615270565b81810360e08301526153a58184614f23565b90509998505050505050505050565b60006060820190506153c96000830186614e1c565b6153d66020830185615270565b81810360408301526153e88184614f23565b9050949350505050565b6000604082019050818103600083015261540c8185614e2b565b905081810360208301526154208184614e89565b90509392505050565b600060208201905081810360008301526154438184614e89565b905092915050565b60006020820190506154606000830184614ee7565b92915050565b600060208201905061547b6000830184614ef6565b92915050565b60006020820190506154966000830184614f14565b92915050565b60006080820190506154b16000830187614f14565b6154be6020830186614f73565b6154cb6040830185614f73565b6154d86060830184614f73565b95945050505050565b60006080820190506154f66000830187614f14565b6155036020830186615270565b6155106040830185615270565b61551d6060830184615270565b95945050505050565b6000602082019050818103600083015261553f81614f82565b9050919050565b6000602082019050818103600083015261555f81614fa5565b9050919050565b6000602082019050818103600083015261557f81614fc8565b9050919050565b6000602082019050818103600083015261559f81614feb565b9050919050565b600060208201905081810360008301526155bf8161500e565b9050919050565b600060208201905081810360008301526155df81615031565b9050919050565b600060208201905081810360008301526155ff81615054565b9050919050565b6000602082019050818103600083015261561f81615077565b9050919050565b6000602082019050818103600083015261563f8161509a565b9050919050565b6000602082019050818103600083015261565f816150bd565b9050919050565b6000602082019050818103600083015261567f816150e0565b9050919050565b6000602082019050818103600083015261569f81615103565b9050919050565b600060208201905081810360008301526156bf81615126565b9050919050565b600060208201905081810360008301526156df81615149565b9050919050565b600060208201905081810360008301526156ff8161516c565b9050919050565b6000602082019050818103600083015261571f8161518f565b9050919050565b6000602082019050818103600083015261573f816151b2565b9050919050565b6000602082019050818103600083015261575f816151d5565b9050919050565b6000602082019050818103600083015261577f816151f8565b9050919050565b6000602082019050818103600083015261579f8161521b565b9050919050565b600060208201905081810360008301526157bf8161523e565b9050919050565b60006020820190506157db6000830184615270565b92915050565b60006080820190506157f66000830187615270565b6158036020830186615270565b6158106040830185615270565b61581d6060830184614ee7565b95945050505050565b6000615830615841565b905061583c8282615d9a565b919050565b6000604051905090565b600067ffffffffffffffff82111561586657615865615efb565b5b602082029050602081019050919050565b600067ffffffffffffffff82111561589257615891615efb565b5b602082029050602081019050919050565b600067ffffffffffffffff8211156158be576158bd615efb565b5b6158c782615f2a565b9050602081019050919050565b6000819050602082019050919050565b6000819050602082019050919050565b600081519050919050565b600081519050919050565b600081519050919050565b6000602082019050919050565b6000602082019050919050565b600082825260208201905092915050565b600082825260208201905092915050565b600082825260208201905092915050565b600082825260208201905092915050565b600061597e82615d0b565b915061598983615d0b565b9250827fffffffffffffffffffffffffffffffffffffffffffffffffffffffffffffffff038211156159be576159bd615e9d565b5b828201905092915050565b60006159d482615d0b565b91506159df83615d0b565b9250826159ef576159ee615ecc565b5b828204905092915050565b6000808291508390505b6001851115615a4457808604811115615a2057615a1f615e9d565b5b6001851615615a2f5780820291505b8081029050615a3d85615f48565b9450615a04565b94509492505050565b6000615a5882615d0b565b9150615a6383615d0b565b9250615a907fffffffffffffffffffffffffffffffffffffffffffffffffffffffffffffffff8484615a98565b905092915050565b600082615aa85760019050615b64565b81615ab65760009050615b64565b8160018114615acc5760028114615ad657615b05565b6001915050615b64565b60ff841115615ae857615ae7615e9d565b5b8360020a915084821115615aff57615afe615e9d565b5b50615b64565b5060208310610133831016604e8410600b8410161715615b3a5782820a905083811115615b3557615b34615e9d565b5b615b64565b615b4784848460016159fa565b92509050818404811115615b5e57615b5d615e9d565b5b81810290505b9392505050565b6000615b7682615d0b565b9150615b8183615d0b565b9250817fffffffffffffffffffffffffffffffffffffffffffffffffffffffffffffffff0483118215151615615bba57615bb9615e9d565b5b828202905092915050565b6000615bd082615ce1565b9150615bdb83615ce1565b9250827f800000000000000000000000000000000000000000000000000000000000000001821260008412151615615c1657615c15615e9d565b5b827f7fffffffffffffffffffffffffffffffffffffffffffffffffffffffffffffff018213600084121615615c4e57615c4d615e9d565b5b828203905092915050565b6000615c6482615d0b565b9150615c6f83615d0b565b925082821015615c8257615c81615e9d565b5b828203905092915050565b6000615c9882615ceb565b9050919050565b60008115159050919050565b6000819050919050565b60007fffffffff0000000000000000000000000000000000000000000000000000000082169050919050565b6000819050919050565b600073ffffffffffffffffffffffffffffffffffffffff82169050919050565b6000819050919050565b600060ff82169050919050565b6000615d2d82615d34565b9050919050565b6000615d3f82615ceb565b9050919050565b6000615d5182615d0b565b9050919050565b82818337600083830152505050565b60005b83811015615d85578082015181840152602081019050615d6a565b83811115615d94576000848401525b50505050565b615da382615f2a565b810181811067ffffffffffffffff82111715615dc257615dc1615efb565b5b80604052505050565b6000615dd682615d0b565b91507fffffffffffffffffffffffffffffffffffffffffffffffffffffffffffffffff821415615e0957615e08615e9d565b5b600182019050919050565b6000615e1f82615d15565b915060ff821415615e3357615e32615e9d565b5b600182019050919050565b6000615e4982615e50565b9050919050565b6000615e5b82615f3b565b9050919050565b6000819050919050565b6000615e7782615d0b565b9150615e8283615d0b565b925082615e9257615e91615ecc565b5b828206905092915050565b7f4e487b7100000000000000000000000000000000000000000000000000000000600052601160045260246000fd5b7f4e487b7100000000000000000000000000000000000000000000000000000000600052601260045260246000fd5b7f4e487b7100000000000000000000000000000000000000000000000000000000600052604160045260246000fd5b6000601f19601f8301169050919050565b60008160601b9050919050565b60008160011c9050919050565b7f596f75206d757374206265206e6f6d696e61746564206265666f726520796f7560008201527f2063616e20616363657074206f776e6572736869700000000000000000000000602082015250565b7f52617465207374616c65206f72206e6f6e6578697374616e742063757272656e60008201527f6379000000000000000000000000000000000000000000000000000000000000602082015250565b7f756e61626c6520746f207472616e73666572416e6443616c6c20746f206f726160008201527f636c650000000000000000000000000000000000000000000000000000000000602082015250565b7f54696d6520697320746f6f2066617220696e746f207468652066757475726500600082015250565b7f52617465206f6620735553442063616e6e6f7420626520757064617465642c2060008201527f6974277320616c7761797320554e49542e000000000000000000000000000000602082015250565b7f52617465206973207a65726f0000000000000000000000000000000000000000600082015250565b7f42656e6566696369617279206d757374206e6f7420626520746865207a65726f60008201527f2061646472657373000000000000000000000000000000000000000000000000602082015250565b7f4f6e6c7920746865206f7261636c652063616e20706572666f726d207468697360008201527f20616374696f6e00000000000000000000000000000000000000000000000000602082015250565b7f4f6e6c792074686520636f6e7472616374206f776e6572206d6179207065726660008201527f6f726d207468697320616374696f6e0000000000000000000000000000000000602082015250565b7f556e61626c6520746f207472616e736665720000000000000000000000000000600082015250565b7f53656c6620646573747275637420686173206e6f7420796574206265656e206960008201527f6e69746961746564000000000000000000000000000000000000000000000000602082015250565b7f5265717565737420686173206578706972656400000000000000000000000000600082015250565b7f43757272656e6379206b6579206172726179206c656e677468206d757374206d60008201527f61746368207261746573206172726179206c656e6774682e0000000000000000602082015250565b7f6c6f7765724c696d6974206d7573742062652062656c6f772074686520656e7460008201527f7279506f696e7400000000000000000000000000000000000000000000000000602082015250565b7f536f75726365206d75737420626520746865206f7261636c65206f662074686560008201527f2072657175657374000000000000000000000000000000000000000000000000602082015250565b7f75707065724c696d6974206d757374206265206c657373207468616e20646f7560008201527f626c6520656e747279506f696e74000000000000000000000000000000000000602082015250565b7f53656c662064657374727563742064656c617920686173206e6f74207965742060008201527f656c617073656400000000000000000000000000000000000000000000000000602082015250565b7f6c6f7765724c696d6974206d7573742062652061626f76652030000000000000600082015250565b7f5a65726f206973206e6f7420612076616c696420726174652c20706c6561736560008201527f2063616c6c2064656c6574655261746520696e73746561642e00000000000000602082015250565b7f75707065724c696d6974206d7573742062652061626f76652074686520656e7460008201527f7279506f696e7400000000000000000000000000000000000000000000000000602082015250565b7f656e747279506f696e74206d7573742062652061626f76652030000000000000600082015250565b6164f581615c8d565b811461650057600080fd5b50565b61650c81615c9f565b811461651757600080fd5b50565b61652381615cab565b811461652e57600080fd5b50565b61653a81615cb5565b811461654557600080fd5b50565b61655181615d0b565b811461655c57600080fd5b5056fea2646970667358221220d0ecec651992d2a1cee32e3039cc65c0d211884fdde7ac4dbed8ee8243ea1b8664736f6c63430008040033",
  "linkReferences": {
    "contracts/SafeDecimalMath.sol": {
      "SafeDecimalMath": [
        {
          "length": 20,
          "start": 685
        }
      ]
    }
  },
  "deployedLinkReferences": {}
}