{
  "_format": "hh-sol-artifact-1",
  "contractName": "ExternStateToken",
  "sourceName": "contracts/ExternStateToken.sol",
  "abi": [
    {
      "inputs": [
        {
          "internalType": "address",
          "name": "_proxy",
          "type": "address"
        },
        {
          "internalType": "contract TokenState",
          "name": "_tokenState",
          "type": "address"
        },
        {
          "internalType": "string",
          "name": "_name",
          "type": "string"
        },
        {
          "internalType": "string",
          "name": "_symbol",
          "type": "string"
        },
        {
          "internalType": "uint256",
          "name": "_totalSupply",
          "type": "uint256"
        },
        {
          "internalType": "uint8",
          "name": "_decimals",
          "type": "uint8"
        },
        {
          "internalType": "address",
          "name": "_owner",
          "type": "address"
        }
      ],
      "stateMutability": "nonpayable",
      "type": "constructor"
    },
    {
      "anonymous": false,
      "inputs": [
        {
          "indexed": true,
          "internalType": "address",
          "name": "owner",
          "type": "address"
        },
        {
          "indexed": true,
          "internalType": "address",
          "name": "spender",
          "type": "address"
        },
        {
          "indexed": false,
          "internalType": "uint256",
          "name": "value",
          "type": "uint256"
        }
      ],
      "name": "Approval",
      "type": "event"
    },
    {
      "anonymous": false,
      "inputs": [
        {
          "indexed": false,
          "internalType": "address",
          "name": "oldOwner",
          "type": "address"
        },
        {
          "indexed": false,
          "internalType": "address",
          "name": "newOwner",
          "type": "address"
        }
      ],
      "name": "OwnerChanged",
      "type": "event"
    },
    {
      "anonymous": false,
      "inputs": [
        {
          "indexed": false,
          "internalType": "address",
          "name": "newOwner",
          "type": "address"
        }
      ],
      "name": "OwnerNominated",
      "type": "event"
    },
    {
      "anonymous": false,
      "inputs": [
        {
          "indexed": false,
          "internalType": "address",
          "name": "proxyAddress",
          "type": "address"
        }
      ],
      "name": "ProxyUpdated",
      "type": "event"
    },
    {
      "anonymous": false,
      "inputs": [
        {
          "indexed": false,
          "internalType": "address",
          "name": "newBeneficiary",
          "type": "address"
        }
      ],
      "name": "SelfDestructBeneficiaryUpdated",
      "type": "event"
    },
    {
      "anonymous": false,
      "inputs": [
        {
          "indexed": false,
          "internalType": "uint256",
          "name": "selfDestructDelay",
          "type": "uint256"
        }
      ],
      "name": "SelfDestructInitiated",
      "type": "event"
    },
    {
      "anonymous": false,
      "inputs": [],
      "name": "SelfDestructTerminated",
      "type": "event"
    },
    {
      "anonymous": false,
      "inputs": [
        {
          "indexed": false,
          "internalType": "address",
          "name": "beneficiary",
          "type": "address"
        }
      ],
      "name": "SelfDestructed",
      "type": "event"
    },
    {
      "anonymous": false,
      "inputs": [
        {
          "indexed": false,
          "internalType": "address",
          "name": "newTokenState",
          "type": "address"
        }
      ],
      "name": "TokenStateUpdated",
      "type": "event"
    },
    {
      "anonymous": false,
      "inputs": [
        {
          "indexed": true,
          "internalType": "address",
          "name": "from",
          "type": "address"
        },
        {
          "indexed": true,
          "internalType": "address",
          "name": "to",
          "type": "address"
        },
        {
          "indexed": false,
          "internalType": "uint256",
          "name": "value",
          "type": "uint256"
        }
      ],
      "name": "Transfer",
      "type": "event"
    },
    {
      "inputs": [],
      "name": "SELFDESTRUCT_DELAY",
      "outputs": [
        {
          "internalType": "uint256",
          "name": "",
          "type": "uint256"
        }
      ],
      "stateMutability": "view",
      "type": "function"
    },
    {
      "inputs": [],
      "name": "acceptOwnership",
      "outputs": [],
      "stateMutability": "nonpayable",
      "type": "function"
    },
    {
      "inputs": [
        {
          "internalType": "address",
          "name": "owner",
          "type": "address"
        },
        {
          "internalType": "address",
          "name": "spender",
          "type": "address"
        }
      ],
      "name": "allowance",
      "outputs": [
        {
          "internalType": "uint256",
          "name": "",
          "type": "uint256"
        }
      ],
      "stateMutability": "view",
      "type": "function"
    },
    {
      "inputs": [
        {
          "internalType": "address",
          "name": "spender",
          "type": "address"
        },
        {
          "internalType": "uint256",
          "name": "value",
          "type": "uint256"
        }
      ],
      "name": "approve",
      "outputs": [
        {
          "internalType": "bool",
          "name": "",
          "type": "bool"
        }
      ],
      "stateMutability": "nonpayable",
      "type": "function"
    },
    {
      "inputs": [
        {
          "internalType": "address",
          "name": "account",
          "type": "address"
        }
      ],
      "name": "balanceOf",
      "outputs": [
        {
          "internalType": "uint256",
          "name": "",
          "type": "uint256"
        }
      ],
      "stateMutability": "view",
      "type": "function"
    },
    {
      "inputs": [],
      "name": "decimals",
      "outputs": [
        {
          "internalType": "uint8",
          "name": "",
          "type": "uint8"
        }
      ],
      "stateMutability": "view",
      "type": "function"
    },
    {
      "inputs": [],
      "name": "initiateSelfDestruct",
      "outputs": [],
      "stateMutability": "nonpayable",
      "type": "function"
    },
    {
      "inputs": [],
      "name": "initiationTime",
      "outputs": [
        {
          "internalType": "uint256",
          "name": "",
          "type": "uint256"
        }
      ],
      "stateMutability": "view",
      "type": "function"
    },
    {
      "inputs": [],
      "name": "name",
      "outputs": [
        {
          "internalType": "string",
          "name": "",
          "type": "string"
        }
      ],
      "stateMutability": "view",
      "type": "function"
    },
    {
      "inputs": [
        {
          "internalType": "address",
          "name": "_owner",
          "type": "address"
        }
      ],
      "name": "nominateNewOwner",
      "outputs": [],
      "stateMutability": "nonpayable",
      "type": "function"
    },
    {
      "inputs": [],
      "name": "nominatedOwner",
      "outputs": [
        {
          "internalType": "address",
          "name": "",
          "type": "address"
        }
      ],
      "stateMutability": "view",
      "type": "function"
    },
    {
      "inputs": [],
      "name": "owner",
      "outputs": [
        {
          "internalType": "address",
          "name": "",
          "type": "address"
        }
      ],
      "stateMutability": "view",
      "type": "function"
    },
    {
      "inputs": [],
      "name": "proxy",
      "outputs": [
        {
          "internalType": "contract Proxy",
          "name": "",
          "type": "address"
        }
      ],
      "stateMutability": "view",
      "type": "function"
    },
    {
      "inputs": [],
      "name": "selfDestruct",
      "outputs": [],
      "stateMutability": "nonpayable",
      "type": "function"
    },
    {
      "inputs": [],
      "name": "selfDestructBeneficiary",
      "outputs": [
        {
          "internalType": "address",
          "name": "",
          "type": "address"
        }
      ],
      "stateMutability": "view",
      "type": "function"
    },
    {
      "inputs": [],
      "name": "selfDestructInitiated",
      "outputs": [
        {
          "internalType": "bool",
          "name": "",
          "type": "bool"
        }
      ],
      "stateMutability": "view",
      "type": "function"
    },
    {
      "inputs": [
        {
          "internalType": "address",
          "name": "sender",
          "type": "address"
        }
      ],
      "name": "setMessageSender",
      "outputs": [],
      "stateMutability": "nonpayable",
      "type": "function"
    },
    {
      "inputs": [
        {
          "internalType": "address payable",
          "name": "_proxy",
          "type": "address"
        }
      ],
      "name": "setProxy",
      "outputs": [],
      "stateMutability": "nonpayable",
      "type": "function"
    },
    {
      "inputs": [
        {
          "internalType": "address",
          "name": "_beneficiary",
          "type": "address"
        }
      ],
      "name": "setSelfDestructBeneficiary",
      "outputs": [],
      "stateMutability": "nonpayable",
      "type": "function"
    },
    {
      "inputs": [
        {
          "internalType": "contract TokenState",
          "name": "_tokenState",
          "type": "address"
        }
      ],
      "name": "setTokenState",
      "outputs": [],
      "stateMutability": "nonpayable",
      "type": "function"
    },
    {
      "inputs": [],
      "name": "symbol",
      "outputs": [
        {
          "internalType": "string",
          "name": "",
          "type": "string"
        }
      ],
      "stateMutability": "view",
      "type": "function"
    },
    {
      "inputs": [],
      "name": "terminateSelfDestruct",
      "outputs": [],
      "stateMutability": "nonpayable",
      "type": "function"
    },
    {
      "inputs": [],
      "name": "tokenState",
      "outputs": [
        {
          "internalType": "contract TokenState",
          "name": "",
          "type": "address"
        }
      ],
      "stateMutability": "view",
      "type": "function"
    },
    {
      "inputs": [],
      "name": "totalSupply",
      "outputs": [
        {
          "internalType": "uint256",
          "name": "",
          "type": "uint256"
        }
      ],
      "stateMutability": "view",
      "type": "function"
    }
  ],
  "bytecode": "0x60806040526005805460ff60a01b191690553480156200001e57600080fd5b50604051620014d5380380620014d583398101604081905262000041916200042c565b8681806001600160a01b038116620000a05760405162461bcd60e51b815260206004820152601960248201527f4f776e657220616464726573732063616e6e6f7420626520300000000000000060448201526064015b60405180910390fd5b600080546001600160a01b0319166001600160a01b03831690811782556040805192835260208301919091527fb532073b38c83145e3e5135377a08bf9aab55bc0fd7c1179cd4fb995d2a5159c910160405180910390a1506001600160a01b0381166200015b5760405162461bcd60e51b815260206004820152602260248201527f4f776e6572206d757374206e6f7420626520746865207a65726f206164647265604482015261737360f01b606482015260840162000097565b60038054610100600160a81b0319166101006001600160a01b038416908102919091179091556040519081527fd5da63a0b864b315bc04128dedbc93888c8529ee6cf47ce664dc204339228c539060200160405180910390a1506000546001600160a01b0316620002035760405162461bcd60e51b815260206004820152601160248201527013dddb995c881b5d5cdd081899481cd95d607a1b604482015260640162000097565b600480546001600160a01b0319166001600160a01b0383169081179091556040519081527ffc80377ca9c49cc11ae6982f390a42db976d5530af7c43889264b13fbbd7c57e9060200160405180910390a150600680546001600160a01b0319166001600160a01b038816179055845162000285906007906020880190620002c1565b5083516200029b906008906020870190620002c1565b5050600991909155600a805460ff191660ff909216919091179055506200055f92505050565b828054620002cf90620004f3565b90600052602060002090601f016020900481019282620002f357600085556200033e565b82601f106200030e57805160ff19168380011785556200033e565b828001600101855582156200033e579182015b828111156200033e57825182559160200191906001019062000321565b506200034c92915062000350565b5090565b5b808211156200034c576000815560010162000351565b8051620003748162000546565b919050565b600082601f8301126200038a578081fd5b81516001600160401b0380821115620003a757620003a762000530565b604051601f8301601f19908116603f01168101908282118183101715620003d257620003d262000530565b81604052838152602092508683858801011115620003ee578485fd5b8491505b83821015620004115785820183015181830184015290820190620003f2565b838211156200042257848385830101525b9695505050505050565b600080600080600080600060e0888a03121562000447578283fd5b8751620004548162000546565b6020890151909750620004678162000546565b60408901519096506001600160401b038082111562000484578485fd5b620004928b838c0162000379565b965060608a0151915080821115620004a8578485fd5b50620004b78a828b0162000379565b9450506080880151925060a088015160ff81168114620004d5578283fd5b9150620004e560c0890162000367565b905092959891949750929550565b600181811c908216806200050857607f821691505b602082108114156200052a57634e487b7160e01b600052602260045260246000fd5b50919050565b634e487b7160e01b600052604160045260246000fd5b6001600160a01b03811681146200055c57600080fd5b50565b610f66806200056f6000396000f3fe608060405234801561001057600080fd5b50600436106101585760003560e01c806395d89b41116100c3578063bc67f8321161007c578063bc67f832146102b3578063bd32aa44146102c6578063c58aaae6146102ce578063dd62ed3e146102e6578063e90dd9e2146102f9578063ec5568891461030c57600080fd5b806395d89b411461026657806397107d6d1461026e5780639cb8a26a146102815780639f76980714610289578063a461fc821461029c578063b8225dec146102a657600080fd5b8063313ce56711610115578063313ce567146101e65780633278c9601461020557806353a47bb71461020d57806370a082311461023857806379ba50971461024b5780638da5cb5b1461025357600080fd5b806306fdde031461015d578063095ea7b31461017b5780631627540c1461019e57806317c70de4146101b357806318160ddd146101ca57806320714f88146101d3575b600080fd5b61016561031f565b6040516101729190610e5a565b60405180910390f35b61018e610189366004610d90565b6103ad565b6040519015158152602001610172565b6101b16101ac366004610d3c565b61045e565b005b6101bc60025481565b604051908152602001610172565b6101bc60095481565b6101b16101e1366004610d3c565b6104e6565b600a546101f39060ff1681565b60405160ff9091168152602001610172565b6101b16105cd565b600154610220906001600160a01b031681565b6040516001600160a01b039091168152602001610172565b6101bc610246366004610d3c565b610631565b6101b16106b5565b600054610220906001600160a01b031681565b61016561079f565b6101b161027c366004610d3c565b6107ac565b6101b1610824565b6101b1610297366004610d3c565b610972565b6101bc6224ea0081565b60035461018e9060ff1681565b6101b16102c1366004610d3c565b610a35565b6101b1610abf565b6003546102209061010090046001600160a01b031681565b6101bc6102f4366004610d58565b610b39565b600654610220906001600160a01b031681565b600454610220906001600160a01b031681565b6007805461032c90610ee0565b80601f016020809104026020016040519081016040528092919081815260200182805461035890610ee0565b80156103a55780601f1061037a576101008083540402835291602001916103a5565b820191906000526020600020905b81548152906001019060200180831161038857829003601f168201915b505050505081565b6004546000906001600160a01b031633146103d557600580546001600160a01b031916331790555b600554600654604051633691826360e21b81526001600160a01b0392831660048201819052868416602483015260448201869052929091169063da46098c90606401600060405180830381600087803b15801561043157600080fd5b505af1158015610445573d6000803e3d6000fd5b50505050610454818585610bc6565b5060019392505050565b6000546001600160a01b031633146104915760405162461bcd60e51b815260040161048890610e6d565b60405180910390fd5b600180546001600160a01b0319166001600160a01b0383169081179091556040519081527f906a1c6bd7e3091ea86693dd029a831c19049ce77f1dce2ce0bab1cacbabce22906020015b60405180910390a150565b6000546001600160a01b031633146105105760405162461bcd60e51b815260040161048890610e6d565b6001600160a01b0381166105775760405162461bcd60e51b815260206004820152602860248201527f42656e6566696369617279206d757374206e6f7420626520746865207a65726f604482015267206164647265737360c01b6064820152608401610488565b60038054610100600160a81b0319166101006001600160a01b038416908102919091179091556040519081527fd5da63a0b864b315bc04128dedbc93888c8529ee6cf47ce664dc204339228c53906020016104db565b6000546001600160a01b031633146105f75760405162461bcd60e51b815260040161048890610e6d565b600060028190556003805460ff191690556040517f6adcc7125002935e0aa31697538ebbd65cfddf20431eb6ecdcfc3e238bfd082c9190a1565b6006546040516370a0823160e01b81526001600160a01b03838116600483015260009216906370a082319060240160206040518083038186803b15801561067757600080fd5b505afa15801561068b573d6000803e3d6000fd5b505050506040513d601f19601f820116820180604052508101906106af9190610dbb565b92915050565b6001546001600160a01b0316331461072d5760405162461bcd60e51b815260206004820152603560248201527f596f75206d757374206265206e6f6d696e61746564206265666f726520796f7560448201527402063616e20616363657074206f776e65727368697605c1b6064820152608401610488565b600054600154604080516001600160a01b0393841681529290911660208301527fb532073b38c83145e3e5135377a08bf9aab55bc0fd7c1179cd4fb995d2a5159c910160405180910390a160018054600080546001600160a01b03199081166001600160a01b03841617909155169055565b6008805461032c90610ee0565b6000546001600160a01b031633146107d65760405162461bcd60e51b815260040161048890610e6d565b600480546001600160a01b0319166001600160a01b0383169081179091556040519081527ffc80377ca9c49cc11ae6982f390a42db976d5530af7c43889264b13fbbd7c57e906020016104db565b6000546001600160a01b0316331461084e5760405162461bcd60e51b815260040161048890610e6d565b60035460ff166108b15760405162461bcd60e51b815260206004820152602860248201527f53656c6620646573747275637420686173206e6f7420796574206265656e20696044820152671b9a5d1a585d195960c21b6064820152608401610488565b426224ea006002546108c39190610ebc565b106109205760405162461bcd60e51b815260206004820152602760248201527f53656c662064657374727563742064656c617920686173206e6f742079657420604482015266195b185c1cd95960ca1b6064820152608401610488565b6003546040516101009091046001600160a01b0316808252907f8a09e1677ced846cb537dc2b172043bd05a1a81ad7e0033a7ef8ba762df990b79060200160405180910390a1806001600160a01b0316ff5b6004546001600160a01b0316331461099757600580546001600160a01b031916331790555b6000546005546001600160a01b03908116911614610a0e5760405162461bcd60e51b815260206004820152602e60248201527f5468697320616374696f6e2063616e206f6e6c7920626520706572666f726d6560448201526d3210313c903a34329037bbb732b960911b6064820152608401610488565b600680546001600160a01b0319166001600160a01b038316179055610a3281610c8d565b50565b6004546001600160a01b03163314610a9d5760405162461bcd60e51b815260206004820152602560248201527f4f6e6c79207468652070726f78792063616e2063616c6c20746869732066756e60448201526431ba34b7b760d91b6064820152608401610488565b600580546001600160a01b0319166001600160a01b0392909216919091179055565b6000546001600160a01b03163314610ae95760405162461bcd60e51b815260040161048890610e6d565b426002556003805460ff191660011790556040517fcbd94ca75b8dc45c9d80c77e851670e78843c0d75180cb81db3e2158228fa9a690610b2f906224ea00815260200190565b60405180910390a1565b600654604051636eb1769f60e11b81526001600160a01b0384811660048301528381166024830152600092169063dd62ed3e9060440160206040518083038186803b158015610b8757600080fd5b505afa158015610b9b573d6000803e3d6000fd5b505050506040513d601f19601f82011682018060405250810190610bbf9190610dbb565b9392505050565b60045460408051602081018490526001600160a01b039092169163907dff97910160405160208183030381529060405260037f8c5be1e5ebec7d5bd14f71427d1e84f3dd0314c0f7b2291e5b200ac8c7c3b925610c29886001600160a01b031690565b6001600160a01b03881660006040518763ffffffff1660e01b8152600401610c5696959493929190610e1e565b600060405180830381600087803b158015610c7057600080fd5b505af1158015610c84573d6000803e3d6000fd5b50505050505050565b600454604080516001600160a01b0384811660208301529092169163907dff97910160405160208183030381529060405260017fa538c4dcfe9fb148efee2952bafe34982d2d07d5fbb38ae5b44abf659a46bfd860008060006040518763ffffffff1660e01b8152600401610d0796959493929190610e1e565b600060405180830381600087803b158015610d2157600080fd5b505af1158015610d35573d6000803e3d6000fd5b5050505050565b600060208284031215610d4d578081fd5b8135610bbf81610f1b565b60008060408385031215610d6a578081fd5b8235610d7581610f1b565b91506020830135610d8581610f1b565b809150509250929050565b60008060408385031215610da2578182fd5b8235610dad81610f1b565b946020939093013593505050565b600060208284031215610dcc578081fd5b5051919050565b60008151808452815b81811015610df857602081850181015186830182015201610ddc565b81811115610e095782602083870101525b50601f01601f19169290920160200192915050565b60c081526000610e3160c0830189610dd3565b60208301979097525060408101949094526060840192909252608083015260a090910152919050565b602081526000610bbf6020830184610dd3565b6020808252602f908201527f4f6e6c792074686520636f6e7472616374206f776e6572206d6179207065726660408201526e37b936903a3434b99030b1ba34b7b760891b606082015260800190565b60008219821115610edb57634e487b7160e01b81526011600452602481fd5b500190565b600181811c90821680610ef457607f821691505b60208210811415610f1557634e487b7160e01b600052602260045260246000fd5b50919050565b6001600160a01b0381168114610a3257600080fdfea2646970667358221220357051a124a9185f5809f35ddb4ba5e92268cc7adf6cb6489bfd3eaa798fb64564736f6c63430008040033",
  "linkReferences": {},
  "deployedLinkReferences": {}
}