{
  "_format": "hh-sol-artifact-1",
  "contractName": "ExternStateToken",
  "sourceName": "contracts/ExternStateToken.sol",
  "abi": [
    {
      "inputs": [
        {
          "internalType": "address",
          "name": "_proxy",
          "type": "address"
        },
        {
          "internalType": "contract TokenState",
          "name": "_tokenState",
          "type": "address"
        },
        {
          "internalType": "string",
          "name": "_name",
          "type": "string"
        },
        {
          "internalType": "string",
          "name": "_symbol",
          "type": "string"
        },
        {
          "internalType": "uint256",
          "name": "_totalSupply",
          "type": "uint256"
        },
        {
          "internalType": "uint8",
          "name": "_decimals",
          "type": "uint8"
        },
        {
          "internalType": "address",
          "name": "_owner",
          "type": "address"
        }
      ],
      "stateMutability": "nonpayable",
      "type": "constructor"
    },
    {
      "anonymous": false,
      "inputs": [
        {
          "indexed": true,
          "internalType": "address",
          "name": "owner",
          "type": "address"
        },
        {
          "indexed": true,
          "internalType": "address",
          "name": "spender",
          "type": "address"
        },
        {
          "indexed": false,
          "internalType": "uint256",
          "name": "value",
          "type": "uint256"
        }
      ],
      "name": "Approval",
      "type": "event"
    },
    {
      "anonymous": false,
      "inputs": [
        {
          "indexed": false,
          "internalType": "address",
          "name": "oldOwner",
          "type": "address"
        },
        {
          "indexed": false,
          "internalType": "address",
          "name": "newOwner",
          "type": "address"
        }
      ],
      "name": "OwnerChanged",
      "type": "event"
    },
    {
      "anonymous": false,
      "inputs": [
        {
          "indexed": false,
          "internalType": "address",
          "name": "newOwner",
          "type": "address"
        }
      ],
      "name": "OwnerNominated",
      "type": "event"
    },
    {
      "anonymous": false,
      "inputs": [
        {
          "indexed": false,
          "internalType": "address",
          "name": "proxyAddress",
          "type": "address"
        }
      ],
      "name": "ProxyUpdated",
      "type": "event"
    },
    {
      "anonymous": false,
      "inputs": [
        {
          "indexed": false,
          "internalType": "address",
          "name": "newBeneficiary",
          "type": "address"
        }
      ],
      "name": "SelfDestructBeneficiaryUpdated",
      "type": "event"
    },
    {
      "anonymous": false,
      "inputs": [
        {
          "indexed": false,
          "internalType": "uint256",
          "name": "selfDestructDelay",
          "type": "uint256"
        }
      ],
      "name": "SelfDestructInitiated",
      "type": "event"
    },
    {
      "anonymous": false,
      "inputs": [],
      "name": "SelfDestructTerminated",
      "type": "event"
    },
    {
      "anonymous": false,
      "inputs": [
        {
          "indexed": false,
          "internalType": "address",
          "name": "beneficiary",
          "type": "address"
        }
      ],
      "name": "SelfDestructed",
      "type": "event"
    },
    {
      "anonymous": false,
      "inputs": [
        {
          "indexed": false,
          "internalType": "address",
          "name": "newTokenState",
          "type": "address"
        }
      ],
      "name": "TokenStateUpdated",
      "type": "event"
    },
    {
      "anonymous": false,
      "inputs": [
        {
          "indexed": true,
          "internalType": "address",
          "name": "from",
          "type": "address"
        },
        {
          "indexed": true,
          "internalType": "address",
          "name": "to",
          "type": "address"
        },
        {
          "indexed": false,
          "internalType": "uint256",
          "name": "value",
          "type": "uint256"
        }
      ],
      "name": "Transfer",
      "type": "event"
    },
    {
      "inputs": [],
      "name": "SELFDESTRUCT_DELAY",
      "outputs": [
        {
          "internalType": "uint256",
          "name": "",
          "type": "uint256"
        }
      ],
      "stateMutability": "view",
      "type": "function"
    },
    {
      "inputs": [],
      "name": "acceptOwnership",
      "outputs": [],
      "stateMutability": "nonpayable",
      "type": "function"
    },
    {
      "inputs": [
        {
          "internalType": "address",
          "name": "owner",
          "type": "address"
        },
        {
          "internalType": "address",
          "name": "spender",
          "type": "address"
        }
      ],
      "name": "allowance",
      "outputs": [
        {
          "internalType": "uint256",
          "name": "",
          "type": "uint256"
        }
      ],
      "stateMutability": "view",
      "type": "function"
    },
    {
      "inputs": [
        {
          "internalType": "address",
          "name": "spender",
          "type": "address"
        },
        {
          "internalType": "uint256",
          "name": "value",
          "type": "uint256"
        }
      ],
      "name": "approve",
      "outputs": [
        {
          "internalType": "bool",
          "name": "",
          "type": "bool"
        }
      ],
      "stateMutability": "nonpayable",
      "type": "function"
    },
    {
      "inputs": [
        {
          "internalType": "address",
          "name": "account",
          "type": "address"
        }
      ],
      "name": "balanceOf",
      "outputs": [
        {
          "internalType": "uint256",
          "name": "",
          "type": "uint256"
        }
      ],
      "stateMutability": "view",
      "type": "function"
    },
    {
      "inputs": [],
      "name": "decimals",
      "outputs": [
        {
          "internalType": "uint8",
          "name": "",
          "type": "uint8"
        }
      ],
      "stateMutability": "view",
      "type": "function"
    },
    {
      "inputs": [],
      "name": "initiateSelfDestruct",
      "outputs": [],
      "stateMutability": "nonpayable",
      "type": "function"
    },
    {
      "inputs": [],
      "name": "initiationTime",
      "outputs": [
        {
          "internalType": "uint256",
          "name": "",
          "type": "uint256"
        }
      ],
      "stateMutability": "view",
      "type": "function"
    },
    {
      "inputs": [],
      "name": "name",
      "outputs": [
        {
          "internalType": "string",
          "name": "",
          "type": "string"
        }
      ],
      "stateMutability": "view",
      "type": "function"
    },
    {
      "inputs": [
        {
          "internalType": "address",
          "name": "_owner",
          "type": "address"
        }
      ],
      "name": "nominateNewOwner",
      "outputs": [],
      "stateMutability": "nonpayable",
      "type": "function"
    },
    {
      "inputs": [],
      "name": "nominatedOwner",
      "outputs": [
        {
          "internalType": "address",
          "name": "",
          "type": "address"
        }
      ],
      "stateMutability": "view",
      "type": "function"
    },
    {
      "inputs": [],
      "name": "owner",
      "outputs": [
        {
          "internalType": "address",
          "name": "",
          "type": "address"
        }
      ],
      "stateMutability": "view",
      "type": "function"
    },
    {
      "inputs": [],
      "name": "proxy",
      "outputs": [
        {
          "internalType": "contract Proxy",
          "name": "",
          "type": "address"
        }
      ],
      "stateMutability": "view",
      "type": "function"
    },
    {
      "inputs": [],
      "name": "selfDestruct",
      "outputs": [],
      "stateMutability": "nonpayable",
      "type": "function"
    },
    {
      "inputs": [],
      "name": "selfDestructBeneficiary",
      "outputs": [
        {
          "internalType": "address",
          "name": "",
          "type": "address"
        }
      ],
      "stateMutability": "view",
      "type": "function"
    },
    {
      "inputs": [],
      "name": "selfDestructInitiated",
      "outputs": [
        {
          "internalType": "bool",
          "name": "",
          "type": "bool"
        }
      ],
      "stateMutability": "view",
      "type": "function"
    },
    {
      "inputs": [
        {
          "internalType": "address",
          "name": "sender",
          "type": "address"
        }
      ],
      "name": "setMessageSender",
      "outputs": [],
      "stateMutability": "nonpayable",
      "type": "function"
    },
    {
      "inputs": [
        {
          "internalType": "address payable",
          "name": "_proxy",
          "type": "address"
        }
      ],
      "name": "setProxy",
      "outputs": [],
      "stateMutability": "nonpayable",
      "type": "function"
    },
    {
      "inputs": [
        {
          "internalType": "address",
          "name": "_beneficiary",
          "type": "address"
        }
      ],
      "name": "setSelfDestructBeneficiary",
      "outputs": [],
      "stateMutability": "nonpayable",
      "type": "function"
    },
    {
      "inputs": [
        {
          "internalType": "contract TokenState",
          "name": "_tokenState",
          "type": "address"
        }
      ],
      "name": "setTokenState",
      "outputs": [],
      "stateMutability": "nonpayable",
      "type": "function"
    },
    {
      "inputs": [],
      "name": "symbol",
      "outputs": [
        {
          "internalType": "string",
          "name": "",
          "type": "string"
        }
      ],
      "stateMutability": "view",
      "type": "function"
    },
    {
      "inputs": [],
      "name": "terminateSelfDestruct",
      "outputs": [],
      "stateMutability": "nonpayable",
      "type": "function"
    },
    {
      "inputs": [],
      "name": "tokenState",
      "outputs": [
        {
          "internalType": "contract TokenState",
          "name": "",
          "type": "address"
        }
      ],
      "stateMutability": "view",
      "type": "function"
    },
    {
      "inputs": [],
      "name": "totalSupply",
      "outputs": [
        {
          "internalType": "uint256",
          "name": "",
          "type": "uint256"
        }
      ],
      "stateMutability": "view",
      "type": "function"
    }
  ],
  "bytecode": "0x60806040526000600560146101000a81548160ff0219169083151502179055503480156200002c57600080fd5b5060405162002cb938038062002cb9833981810160405281019062000052919062000561565b868180600073ffffffffffffffffffffffffffffffffffffffff168173ffffffffffffffffffffffffffffffffffffffff161415620000c8576040517f08c379a0000000000000000000000000000000000000000000000000000000008152600401620000bf9062000782565b60405180910390fd5b806000806101000a81548173ffffffffffffffffffffffffffffffffffffffff021916908373ffffffffffffffffffffffffffffffffffffffff1602179055507fb532073b38c83145e3e5135377a08bf9aab55bc0fd7c1179cd4fb995d2a5159c6000826040516200013c92919062000711565b60405180910390a150600073ffffffffffffffffffffffffffffffffffffffff168173ffffffffffffffffffffffffffffffffffffffff161415620001b8576040517f08c379a0000000000000000000000000000000000000000000000000000000008152600401620001af906200073e565b60405180910390fd5b80600360016101000a81548173ffffffffffffffffffffffffffffffffffffffff021916908373ffffffffffffffffffffffffffffffffffffffff1602179055507fd5da63a0b864b315bc04128dedbc93888c8529ee6cf47ce664dc204339228c53816040516200022a9190620006d7565b60405180910390a150600073ffffffffffffffffffffffffffffffffffffffff1660008054906101000a900473ffffffffffffffffffffffffffffffffffffffff1673ffffffffffffffffffffffffffffffffffffffff161415620002c6576040517f08c379a0000000000000000000000000000000000000000000000000000000008152600401620002bd9062000760565b60405180910390fd5b80600460006101000a81548173ffffffffffffffffffffffffffffffffffffffff021916908373ffffffffffffffffffffffffffffffffffffffff1602179055507ffc80377ca9c49cc11ae6982f390a42db976d5530af7c43889264b13fbbd7c57e81604051620003389190620006f4565b60405180910390a15085600660006101000a81548173ffffffffffffffffffffffffffffffffffffffff021916908373ffffffffffffffffffffffffffffffffffffffff16021790555084600790805190602001906200039a929190620003e3565b508360089080519060200190620003b3929190620003e3565b508260098190555081600a60006101000a81548160ff021916908360ff1602179055505050505050505062000ac9565b828054620003f190620008e5565b90600052602060002090601f01602090048101928262000415576000855562000461565b82601f106200043057805160ff191683800117855562000461565b8280016001018555821562000461579182015b828111156200046057825182559160200191906001019062000443565b5b50905062000470919062000474565b5090565b5b808211156200048f57600081600090555060010162000475565b5090565b6000620004aa620004a484620007cd565b620007a4565b905082815260208101848484011115620004c357600080fd5b620004d0848285620008af565b509392505050565b600081519050620004e98162000a61565b92915050565b600081519050620005008162000a7b565b92915050565b600082601f8301126200051857600080fd5b81516200052a84826020860162000493565b91505092915050565b600081519050620005448162000a95565b92915050565b6000815190506200055b8162000aaf565b92915050565b600080600080600080600060e0888a0312156200057d57600080fd5b60006200058d8a828b01620004d8565b9750506020620005a08a828b01620004ef565b965050604088015167ffffffffffffffff811115620005be57600080fd5b620005cc8a828b0162000506565b955050606088015167ffffffffffffffff811115620005ea57600080fd5b620005f88a828b0162000506565b94505060806200060b8a828b0162000533565b93505060a06200061e8a828b016200054a565b92505060c0620006318a828b01620004d8565b91505092959891949750929550565b6200064b8162000873565b82525050565b6200065c8162000814565b82525050565b60006200067160228362000803565b91506200067e82620009c0565b604082019050919050565b60006200069860118362000803565b9150620006a58262000a0f565b602082019050919050565b6000620006bf60198362000803565b9150620006cc8262000a38565b602082019050919050565b6000602082019050620006ee600083018462000651565b92915050565b60006020820190506200070b600083018462000640565b92915050565b600060408201905062000728600083018562000651565b62000737602083018462000651565b9392505050565b60006020820190508181036000830152620007598162000662565b9050919050565b600060208201905081810360008301526200077b8162000689565b9050919050565b600060208201905081810360008301526200079d81620006b0565b9050919050565b6000620007b0620007c3565b9050620007be82826200091b565b919050565b6000604051905090565b600067ffffffffffffffff821115620007eb57620007ea62000980565b5b620007f682620009af565b9050602081019050919050565b600082825260208201905092915050565b600062000821826200083c565b9050919050565b6000620008358262000814565b9050919050565b600073ffffffffffffffffffffffffffffffffffffffff82169050919050565b6000819050919050565b600060ff82169050919050565b6000620008808262000887565b9050919050565b600062000894826200089b565b9050919050565b6000620008a8826200083c565b9050919050565b60005b83811015620008cf578082015181840152602081019050620008b2565b83811115620008df576000848401525b50505050565b60006002820490506001821680620008fe57607f821691505b6020821081141562000915576200091462000951565b5b50919050565b6200092682620009af565b810181811067ffffffffffffffff8211171562000948576200094762000980565b5b80604052505050565b7f4e487b7100000000000000000000000000000000000000000000000000000000600052602260045260246000fd5b7f4e487b7100000000000000000000000000000000000000000000000000000000600052604160045260246000fd5b6000601f19601f8301169050919050565b7f4f776e6572206d757374206e6f7420626520746865207a65726f20616464726560008201527f7373000000000000000000000000000000000000000000000000000000000000602082015250565b7f4f776e6572206d75737420626520736574000000000000000000000000000000600082015250565b7f4f776e657220616464726573732063616e6e6f74206265203000000000000000600082015250565b62000a6c8162000814565b811462000a7857600080fd5b50565b62000a868162000828565b811462000a9257600080fd5b50565b62000aa0816200085c565b811462000aac57600080fd5b50565b62000aba8162000866565b811462000ac657600080fd5b50565b6121e08062000ad96000396000f3fe608060405234801561001057600080fd5b50600436106101585760003560e01c806395d89b41116100c3578063bc67f8321161007c578063bc67f83214610359578063bd32aa4414610375578063c58aaae61461037f578063dd62ed3e1461039d578063e90dd9e2146103cd578063ec556889146103eb57610158565b806395d89b41146102bd57806397107d6d146102db5780639cb8a26a146102f75780639f76980714610301578063a461fc821461031d578063b8225dec1461033b57610158565b8063313ce56711610115578063313ce5671461021f5780633278c9601461023d57806353a47bb71461024757806370a082311461026557806379ba5097146102955780638da5cb5b1461029f57610158565b806306fdde031461015d578063095ea7b31461017b5780631627540c146101ab57806317c70de4146101c757806318160ddd146101e557806320714f8814610203575b600080fd5b610165610409565b6040516101729190611b35565b60405180910390f35b610195600480360381019061019091906116e4565b610497565b6040516101a29190611a14565b60405180910390f35b6101c560048036038101906101c09190611656565b6105fe565b005b6101cf610707565b6040516101dc9190611c37565b60405180910390f35b6101ed61070d565b6040516101fa9190611c37565b60405180910390f35b61021d60048036038101906102189190611656565b610713565b005b61022761088c565b6040516102349190611c52565b60405180910390f35b61024561089f565b005b61024f61097e565b60405161025c919061197e565b60405180910390f35b61027f600480360381019061027a9190611656565b6109a4565b60405161028c9190611c37565b60405180910390f35b61029d610a58565b005b6102a7610c09565b6040516102b4919061197e565b60405180910390f35b6102c5610c2d565b6040516102d29190611b35565b60405180910390f35b6102f560048036038101906102f0919061167f565b610cbb565b005b6102ff610dc4565b005b61031b60048036038101906103169190611720565b610f6a565b005b6103256110fe565b6040516103329190611c37565b60405180910390f35b610343611105565b6040516103509190611a14565b60405180910390f35b610373600480360381019061036e9190611656565b611118565b005b61037d6111ec565b005b6103876112d8565b604051610394919061197e565b60405180910390f35b6103b760048036038101906103b291906116a8565b6112fe565b6040516103c49190611c37565b60405180910390f35b6103d56113b5565b6040516103e29190611b1a565b60405180910390f35b6103f36113db565b6040516104009190611aff565b60405180910390f35b6007805461041690611e77565b80601f016020809104026020016040519081016040528092919081815260200182805461044290611e77565b801561048f5780601f106104645761010080835404028352916020019161048f565b820191906000526020600020905b81548152906001019060200180831161047257829003601f168201915b505050505081565b6000600460009054906101000a900473ffffffffffffffffffffffffffffffffffffffff1673ffffffffffffffffffffffffffffffffffffffff163373ffffffffffffffffffffffffffffffffffffffff16146105305733600560006101000a81548173ffffffffffffffffffffffffffffffffffffffff021916908373ffffffffffffffffffffffffffffffffffffffff1602179055505b6000600560009054906101000a900473ffffffffffffffffffffffffffffffffffffffff169050600660009054906101000a900473ffffffffffffffffffffffffffffffffffffffff1673ffffffffffffffffffffffffffffffffffffffff1663da46098c8286866040518463ffffffff1660e01b81526004016105b6939291906119dd565b600060405180830381600087803b1580156105d057600080fd5b505af11580156105e4573d6000803e3d6000fd5b505050506105f3818585611401565b600191505092915050565b60008054906101000a900473ffffffffffffffffffffffffffffffffffffffff1673ffffffffffffffffffffffffffffffffffffffff163373ffffffffffffffffffffffffffffffffffffffff161461068c576040517f08c379a000000000000000000000000000000000000000000000000000000000815260040161068390611bb7565b60405180910390fd5b80600160006101000a81548173ffffffffffffffffffffffffffffffffffffffff021916908373ffffffffffffffffffffffffffffffffffffffff1602179055507f906a1c6bd7e3091ea86693dd029a831c19049ce77f1dce2ce0bab1cacbabce22816040516106fc919061197e565b60405180910390a150565b60025481565b60095481565b60008054906101000a900473ffffffffffffffffffffffffffffffffffffffff1673ffffffffffffffffffffffffffffffffffffffff163373ffffffffffffffffffffffffffffffffffffffff16146107a1576040517f08c379a000000000000000000000000000000000000000000000000000000000815260040161079890611bb7565b60405180910390fd5b600073ffffffffffffffffffffffffffffffffffffffff168173ffffffffffffffffffffffffffffffffffffffff161415610811576040517f08c379a000000000000000000000000000000000000000000000000000000000815260040161080890611b97565b60405180910390fd5b80600360016101000a81548173ffffffffffffffffffffffffffffffffffffffff021916908373ffffffffffffffffffffffffffffffffffffffff1602179055507fd5da63a0b864b315bc04128dedbc93888c8529ee6cf47ce664dc204339228c5381604051610881919061197e565b60405180910390a150565b600a60009054906101000a900460ff1681565b60008054906101000a900473ffffffffffffffffffffffffffffffffffffffff1673ffffffffffffffffffffffffffffffffffffffff163373ffffffffffffffffffffffffffffffffffffffff161461092d576040517f08c379a000000000000000000000000000000000000000000000000000000000815260040161092490611bb7565b60405180910390fd5b60006002819055506000600360006101000a81548160ff0219169083151502179055507f6adcc7125002935e0aa31697538ebbd65cfddf20431eb6ecdcfc3e238bfd082c60405160405180910390a1565b600160009054906101000a900473ffffffffffffffffffffffffffffffffffffffff1681565b6000600660009054906101000a900473ffffffffffffffffffffffffffffffffffffffff1673ffffffffffffffffffffffffffffffffffffffff166370a08231836040518263ffffffff1660e01b8152600401610a01919061197e565b60206040518083038186803b158015610a1957600080fd5b505afa158015610a2d573d6000803e3d6000fd5b505050506040513d601f19601f82011682018060405250810190610a519190611749565b9050919050565b600160009054906101000a900473ffffffffffffffffffffffffffffffffffffffff1673ffffffffffffffffffffffffffffffffffffffff163373ffffffffffffffffffffffffffffffffffffffff1614610ae8576040517f08c379a0000000000000000000000000000000000000000000000000000000008152600401610adf90611b57565b60405180910390fd5b7fb532073b38c83145e3e5135377a08bf9aab55bc0fd7c1179cd4fb995d2a5159c60008054906101000a900473ffffffffffffffffffffffffffffffffffffffff16600160009054906101000a900473ffffffffffffffffffffffffffffffffffffffff16604051610b5b9291906119b4565b60405180910390a1600160009054906101000a900473ffffffffffffffffffffffffffffffffffffffff166000806101000a81548173ffffffffffffffffffffffffffffffffffffffff021916908373ffffffffffffffffffffffffffffffffffffffff1602179055506000600160006101000a81548173ffffffffffffffffffffffffffffffffffffffff021916908373ffffffffffffffffffffffffffffffffffffffff160217905550565b60008054906101000a900473ffffffffffffffffffffffffffffffffffffffff1681565b60088054610c3a90611e77565b80601f0160208091040260200160405190810160405280929190818152602001828054610c6690611e77565b8015610cb35780601f10610c8857610100808354040283529160200191610cb3565b820191906000526020600020905b815481529060010190602001808311610c9657829003601f168201915b505050505081565b60008054906101000a900473ffffffffffffffffffffffffffffffffffffffff1673ffffffffffffffffffffffffffffffffffffffff163373ffffffffffffffffffffffffffffffffffffffff1614610d49576040517f08c379a0000000000000000000000000000000000000000000000000000000008152600401610d4090611bb7565b60405180910390fd5b80600460006101000a81548173ffffffffffffffffffffffffffffffffffffffff021916908373ffffffffffffffffffffffffffffffffffffffff1602179055507ffc80377ca9c49cc11ae6982f390a42db976d5530af7c43889264b13fbbd7c57e81604051610db99190611999565b60405180910390a150565b60008054906101000a900473ffffffffffffffffffffffffffffffffffffffff1673ffffffffffffffffffffffffffffffffffffffff163373ffffffffffffffffffffffffffffffffffffffff1614610e52576040517f08c379a0000000000000000000000000000000000000000000000000000000008152600401610e4990611bb7565b60405180910390fd5b600360009054906101000a900460ff16610ea1576040517f08c379a0000000000000000000000000000000000000000000000000000000008152600401610e9890611bd7565b60405180910390fd5b426224ea00600254610eb39190611ca5565b10610ef3576040517f08c379a0000000000000000000000000000000000000000000000000000000008152600401610eea90611c17565b60405180910390fd5b6000600360019054906101000a900473ffffffffffffffffffffffffffffffffffffffff1690507f8a09e1677ced846cb537dc2b172043bd05a1a81ad7e0033a7ef8ba762df990b781604051610f49919061197e565b60405180910390a18073ffffffffffffffffffffffffffffffffffffffff16ff5b600460009054906101000a900473ffffffffffffffffffffffffffffffffffffffff1673ffffffffffffffffffffffffffffffffffffffff163373ffffffffffffffffffffffffffffffffffffffff16146110015733600560006101000a81548173ffffffffffffffffffffffffffffffffffffffff021916908373ffffffffffffffffffffffffffffffffffffffff1602179055505b60008054906101000a900473ffffffffffffffffffffffffffffffffffffffff1673ffffffffffffffffffffffffffffffffffffffff16600560009054906101000a900473ffffffffffffffffffffffffffffffffffffffff1673ffffffffffffffffffffffffffffffffffffffff16146110b1576040517f08c379a00000000000000000000000000000000000000000000000000000000081526004016110a890611bf7565b60405180910390fd5b80600660006101000a81548173ffffffffffffffffffffffffffffffffffffffff021916908373ffffffffffffffffffffffffffffffffffffffff1602179055506110fb816114ee565b50565b6224ea0081565b600360009054906101000a900460ff1681565b600460009054906101000a900473ffffffffffffffffffffffffffffffffffffffff1673ffffffffffffffffffffffffffffffffffffffff163373ffffffffffffffffffffffffffffffffffffffff16146111a8576040517f08c379a000000000000000000000000000000000000000000000000000000000815260040161119f90611b77565b60405180910390fd5b80600560006101000a81548173ffffffffffffffffffffffffffffffffffffffff021916908373ffffffffffffffffffffffffffffffffffffffff16021790555050565b60008054906101000a900473ffffffffffffffffffffffffffffffffffffffff1673ffffffffffffffffffffffffffffffffffffffff163373ffffffffffffffffffffffffffffffffffffffff161461127a576040517f08c379a000000000000000000000000000000000000000000000000000000000815260040161127190611bb7565b60405180910390fd5b426002819055506001600360006101000a81548160ff0219169083151502179055507fcbd94ca75b8dc45c9d80c77e851670e78843c0d75180cb81db3e2158228fa9a66224ea006040516112ce9190611c37565b60405180910390a1565b600360019054906101000a900473ffffffffffffffffffffffffffffffffffffffff1681565b6000600660009054906101000a900473ffffffffffffffffffffffffffffffffffffffff1673ffffffffffffffffffffffffffffffffffffffff1663dd62ed3e84846040518363ffffffff1660e01b815260040161135d9291906119b4565b60206040518083038186803b15801561137557600080fd5b505afa158015611389573d6000803e3d6000fd5b505050506040513d601f19601f820116820180604052508101906113ad9190611749565b905092915050565b600660009054906101000a900473ffffffffffffffffffffffffffffffffffffffff1681565b600460009054906101000a900473ffffffffffffffffffffffffffffffffffffffff1681565b600460009054906101000a900473ffffffffffffffffffffffffffffffffffffffff1673ffffffffffffffffffffffffffffffffffffffff1663907dff97826040516020016114509190611c37565b60405160208183030381529060405260037f8c5be1e5ebec7d5bd14f71427d1e84f3dd0314c0f7b2291e5b200ac8c7c3b92561148b886115ca565b611494886115ca565b60006040518763ffffffff1660e01b81526004016114b796959493929190611a97565b600060405180830381600087803b1580156114d157600080fd5b505af11580156114e5573d6000803e3d6000fd5b50505050505050565b600460009054906101000a900473ffffffffffffffffffffffffffffffffffffffff1673ffffffffffffffffffffffffffffffffffffffff1663907dff978260405160200161153d919061197e565b60405160208183030381529060405260017fa538c4dcfe9fb148efee2952bafe34982d2d07d5fbb38ae5b44abf659a46bfd860008060006040518763ffffffff1660e01b815260040161159596959493929190611a2f565b600060405180830381600087803b1580156115af57600080fd5b505af11580156115c3573d6000803e3d6000fd5b5050505050565b60008173ffffffffffffffffffffffffffffffffffffffff1660001b9050919050565b6000813590506115fc8161214e565b92915050565b60008135905061161181612165565b92915050565b6000813590506116268161217c565b92915050565b60008135905061163b81612193565b92915050565b60008151905061165081612193565b92915050565b60006020828403121561166857600080fd5b6000611676848285016115ed565b91505092915050565b60006020828403121561169157600080fd5b600061169f84828501611602565b91505092915050565b600080604083850312156116bb57600080fd5b60006116c9858286016115ed565b92505060206116da858286016115ed565b9150509250929050565b600080604083850312156116f757600080fd5b6000611705858286016115ed565b92505060206117168582860161162c565b9150509250929050565b60006020828403121561173257600080fd5b600061174084828501611617565b91505092915050565b60006020828403121561175b57600080fd5b600061176984828501611641565b91505092915050565b61177b81611d88565b82525050565b61178a81611cfb565b82525050565b61179981611d1f565b82525050565b6117a881611d2b565b82525050565b60006117b982611c6d565b6117c38185611c83565b93506117d3818560208601611e44565b6117dc81611f07565b840191505092915050565b6117f081611d9a565b82525050565b6117ff81611dbe565b82525050565b61180e81611de2565b82525050565b61181d81611dfc565b82525050565b61182c81611e0e565b82525050565b600061183d82611c78565b6118478185611c94565b9350611857818560208601611e44565b61186081611f07565b840191505092915050565b6000611878603583611c94565b915061188382611f25565b604082019050919050565b600061189b602583611c94565b91506118a682611f74565b604082019050919050565b60006118be602883611c94565b91506118c982611fc3565b604082019050919050565b60006118e1602f83611c94565b91506118ec82612012565b604082019050919050565b6000611904602883611c94565b915061190f82612061565b604082019050919050565b6000611927602e83611c94565b9150611932826120b0565b604082019050919050565b600061194a602783611c94565b9150611955826120ff565b604082019050919050565b61196981611d71565b82525050565b61197881611d7b565b82525050565b60006020820190506119936000830184611781565b92915050565b60006020820190506119ae6000830184611772565b92915050565b60006040820190506119c96000830185611781565b6119d66020830184611781565b9392505050565b60006060820190506119f26000830186611781565b6119ff6020830185611781565b611a0c6040830184611960565b949350505050565b6000602082019050611a296000830184611790565b92915050565b600060c0820190508181036000830152611a4981896117ae565b9050611a586020830188611814565b611a65604083018761179f565b611a726060830186611805565b611a7f6080830185611805565b611a8c60a0830184611805565b979650505050505050565b600060c0820190508181036000830152611ab181896117ae565b9050611ac06020830188611823565b611acd604083018761179f565b611ada606083018661179f565b611ae7608083018561179f565b611af460a0830184611805565b979650505050505050565b6000602082019050611b1460008301846117e7565b92915050565b6000602082019050611b2f60008301846117f6565b92915050565b60006020820190508181036000830152611b4f8184611832565b905092915050565b60006020820190508181036000830152611b708161186b565b9050919050565b60006020820190508181036000830152611b908161188e565b9050919050565b60006020820190508181036000830152611bb0816118b1565b9050919050565b60006020820190508181036000830152611bd0816118d4565b9050919050565b60006020820190508181036000830152611bf0816118f7565b9050919050565b60006020820190508181036000830152611c108161191a565b9050919050565b60006020820190508181036000830152611c308161193d565b9050919050565b6000602082019050611c4c6000830184611960565b92915050565b6000602082019050611c67600083018461196f565b92915050565b600081519050919050565b600081519050919050565b600082825260208201905092915050565b600082825260208201905092915050565b6000611cb082611d71565b9150611cbb83611d71565b9250827fffffffffffffffffffffffffffffffffffffffffffffffffffffffffffffffff03821115611cf057611cef611ea9565b5b828201905092915050565b6000611d0682611d51565b9050919050565b6000611d1882611d51565b9050919050565b60008115159050919050565b6000819050919050565b6000611d4082611cfb565b9050919050565b6000819050919050565b600073ffffffffffffffffffffffffffffffffffffffff82169050919050565b6000819050919050565b600060ff82169050919050565b6000611d9382611e20565b9050919050565b6000611da582611dac565b9050919050565b6000611db782611d51565b9050919050565b6000611dc982611dd0565b9050919050565b6000611ddb82611d51565b9050919050565b6000611df5611df083611d47565b611f18565b9050919050565b6000611e0782611d71565b9050919050565b6000611e1982611d71565b9050919050565b6000611e2b82611e32565b9050919050565b6000611e3d82611d51565b9050919050565b60005b83811015611e62578082015181840152602081019050611e47565b83811115611e71576000848401525b50505050565b60006002820490506001821680611e8f57607f821691505b60208210811415611ea357611ea2611ed8565b5b50919050565b7f4e487b7100000000000000000000000000000000000000000000000000000000600052601160045260246000fd5b7f4e487b7100000000000000000000000000000000000000000000000000000000600052602260045260246000fd5b6000601f19601f8301169050919050565b60008160001b9050919050565b7f596f75206d757374206265206e6f6d696e61746564206265666f726520796f7560008201527f2063616e20616363657074206f776e6572736869700000000000000000000000602082015250565b7f4f6e6c79207468652070726f78792063616e2063616c6c20746869732066756e60008201527f6374696f6e000000000000000000000000000000000000000000000000000000602082015250565b7f42656e6566696369617279206d757374206e6f7420626520746865207a65726f60008201527f2061646472657373000000000000000000000000000000000000000000000000602082015250565b7f4f6e6c792074686520636f6e7472616374206f776e6572206d6179207065726660008201527f6f726d207468697320616374696f6e0000000000000000000000000000000000602082015250565b7f53656c6620646573747275637420686173206e6f7420796574206265656e206960008201527f6e69746961746564000000000000000000000000000000000000000000000000602082015250565b7f5468697320616374696f6e2063616e206f6e6c7920626520706572666f726d6560008201527f6420627920746865206f776e6572000000000000000000000000000000000000602082015250565b7f53656c662064657374727563742064656c617920686173206e6f74207965742060008201527f656c617073656400000000000000000000000000000000000000000000000000602082015250565b61215781611cfb565b811461216257600080fd5b50565b61216e81611d0d565b811461217957600080fd5b50565b61218581611d35565b811461219057600080fd5b50565b61219c81611d71565b81146121a757600080fd5b5056fea2646970667358221220e976d2837f889470cf0fce0157440e18950e0103c7f55ad4514fab057c324f5264736f6c63430008040033",
  "linkReferences": {},
  "deployedLinkReferences": {}
}