{
  "_format": "hh-sol-artifact-1",
  "contractName": "FeePoolState",
  "sourceName": "contracts/FeePoolState.sol",
  "abi": [
    {
      "inputs": [
        {
          "internalType": "address",
          "name": "_owner",
          "type": "address"
        },
        {
          "internalType": "contract IFeePool",
          "name": "_feePool",
          "type": "address"
        }
      ],
      "stateMutability": "nonpayable",
      "type": "constructor"
    },
    {
      "anonymous": false,
      "inputs": [
        {
          "indexed": true,
          "internalType": "address",
          "name": "account",
          "type": "address"
        },
        {
          "indexed": false,
          "internalType": "uint256",
          "name": "debtRatio",
          "type": "uint256"
        },
        {
          "indexed": false,
          "internalType": "uint256",
          "name": "feePeriodCloseIndex",
          "type": "uint256"
        }
      ],
      "name": "IssuanceDebtRatioEntry",
      "type": "event"
    },
    {
      "anonymous": false,
      "inputs": [
        {
          "indexed": false,
          "internalType": "address",
          "name": "oldOwner",
          "type": "address"
        },
        {
          "indexed": false,
          "internalType": "address",
          "name": "newOwner",
          "type": "address"
        }
      ],
      "name": "OwnerChanged",
      "type": "event"
    },
    {
      "anonymous": false,
      "inputs": [
        {
          "indexed": false,
          "internalType": "address",
          "name": "newOwner",
          "type": "address"
        }
      ],
      "name": "OwnerNominated",
      "type": "event"
    },
    {
      "anonymous": false,
      "inputs": [
        {
          "indexed": false,
          "internalType": "address",
          "name": "newBeneficiary",
          "type": "address"
        }
      ],
      "name": "SelfDestructBeneficiaryUpdated",
      "type": "event"
    },
    {
      "anonymous": false,
      "inputs": [
        {
          "indexed": false,
          "internalType": "uint256",
          "name": "selfDestructDelay",
          "type": "uint256"
        }
      ],
      "name": "SelfDestructInitiated",
      "type": "event"
    },
    {
      "anonymous": false,
      "inputs": [],
      "name": "SelfDestructTerminated",
      "type": "event"
    },
    {
      "anonymous": false,
      "inputs": [
        {
          "indexed": false,
          "internalType": "address",
          "name": "beneficiary",
          "type": "address"
        }
      ],
      "name": "SelfDestructed",
      "type": "event"
    },
    {
      "inputs": [],
      "name": "FEE_PERIOD_LENGTH",
      "outputs": [
        {
          "internalType": "uint8",
          "name": "",
          "type": "uint8"
        }
      ],
      "stateMutability": "view",
      "type": "function"
    },
    {
      "inputs": [],
      "name": "SELFDESTRUCT_DELAY",
      "outputs": [
        {
          "internalType": "uint256",
          "name": "",
          "type": "uint256"
        }
      ],
      "stateMutability": "view",
      "type": "function"
    },
    {
      "inputs": [],
      "name": "acceptOwnership",
      "outputs": [],
      "stateMutability": "nonpayable",
      "type": "function"
    },
    {
      "inputs": [
        {
          "internalType": "address",
          "name": "",
          "type": "address"
        },
        {
          "internalType": "uint256",
          "name": "",
          "type": "uint256"
        }
      ],
      "name": "accountIssuanceLedger",
      "outputs": [
        {
          "internalType": "uint256",
          "name": "debtPercentage",
          "type": "uint256"
        },
        {
          "internalType": "uint256",
          "name": "debtEntryIndex",
          "type": "uint256"
        }
      ],
      "stateMutability": "view",
      "type": "function"
    },
    {
      "inputs": [
        {
          "internalType": "address",
          "name": "account",
          "type": "address"
        },
        {
          "internalType": "uint256",
          "name": "debtRatio",
          "type": "uint256"
        },
        {
          "internalType": "uint256",
          "name": "debtEntryIndex",
          "type": "uint256"
        },
        {
          "internalType": "uint256",
          "name": "currentPeriodStartDebtIndex",
          "type": "uint256"
        }
      ],
      "name": "appendAccountIssuanceRecord",
      "outputs": [],
      "stateMutability": "nonpayable",
      "type": "function"
    },
    {
      "inputs": [
        {
          "internalType": "address",
          "name": "account",
          "type": "address"
        },
        {
          "internalType": "uint256",
          "name": "closingDebtIndex",
          "type": "uint256"
        }
      ],
      "name": "applicableIssuanceData",
      "outputs": [
        {
          "internalType": "uint256",
          "name": "",
          "type": "uint256"
        },
        {
          "internalType": "uint256",
          "name": "",
          "type": "uint256"
        }
      ],
      "stateMutability": "view",
      "type": "function"
    },
    {
      "inputs": [],
      "name": "feePool",
      "outputs": [
        {
          "internalType": "address",
          "name": "",
          "type": "address"
        }
      ],
      "stateMutability": "view",
      "type": "function"
    },
    {
      "inputs": [
        {
          "internalType": "address",
          "name": "account",
          "type": "address"
        },
        {
          "internalType": "uint256",
          "name": "index",
          "type": "uint256"
        }
      ],
      "name": "getAccountsDebtEntry",
      "outputs": [
        {
          "internalType": "uint256",
          "name": "debtPercentage",
          "type": "uint256"
        },
        {
          "internalType": "uint256",
          "name": "debtEntryIndex",
          "type": "uint256"
        }
      ],
      "stateMutability": "view",
      "type": "function"
    },
    {
      "inputs": [
        {
          "internalType": "address[]",
          "name": "accounts",
          "type": "address[]"
        },
        {
          "internalType": "uint256[]",
          "name": "ratios",
          "type": "uint256[]"
        },
        {
          "internalType": "uint256",
          "name": "periodToInsert",
          "type": "uint256"
        },
        {
          "internalType": "uint256",
          "name": "feePeriodCloseIndex",
          "type": "uint256"
        }
      ],
      "name": "importIssuerData",
      "outputs": [],
      "stateMutability": "nonpayable",
      "type": "function"
    },
    {
      "inputs": [],
      "name": "initiateSelfDestruct",
      "outputs": [],
      "stateMutability": "nonpayable",
      "type": "function"
    },
    {
      "inputs": [],
      "name": "initiationTime",
      "outputs": [
        {
          "internalType": "uint256",
          "name": "",
          "type": "uint256"
        }
      ],
      "stateMutability": "view",
      "type": "function"
    },
    {
      "inputs": [
        {
          "internalType": "address",
          "name": "_owner",
          "type": "address"
        }
      ],
      "name": "nominateNewOwner",
      "outputs": [],
      "stateMutability": "nonpayable",
      "type": "function"
    },
    {
      "inputs": [],
      "name": "nominatedOwner",
      "outputs": [
        {
          "internalType": "address",
          "name": "",
          "type": "address"
        }
      ],
      "stateMutability": "view",
      "type": "function"
    },
    {
      "inputs": [],
      "name": "owner",
      "outputs": [
        {
          "internalType": "address",
          "name": "",
          "type": "address"
        }
      ],
      "stateMutability": "view",
      "type": "function"
    },
    {
      "inputs": [],
      "name": "selfDestruct",
      "outputs": [],
      "stateMutability": "nonpayable",
      "type": "function"
    },
    {
      "inputs": [],
      "name": "selfDestructBeneficiary",
      "outputs": [
        {
          "internalType": "address",
          "name": "",
          "type": "address"
        }
      ],
      "stateMutability": "view",
      "type": "function"
    },
    {
      "inputs": [],
      "name": "selfDestructInitiated",
      "outputs": [
        {
          "internalType": "bool",
          "name": "",
          "type": "bool"
        }
      ],
      "stateMutability": "view",
      "type": "function"
    },
    {
      "inputs": [
        {
          "internalType": "contract IFeePool",
          "name": "_feePool",
          "type": "address"
        }
      ],
      "name": "setFeePool",
      "outputs": [],
      "stateMutability": "nonpayable",
      "type": "function"
    },
    {
      "inputs": [
        {
          "internalType": "address",
          "name": "_beneficiary",
          "type": "address"
        }
      ],
      "name": "setSelfDestructBeneficiary",
      "outputs": [],
      "stateMutability": "nonpayable",
      "type": "function"
    },
    {
      "inputs": [],
      "name": "terminateSelfDestruct",
      "outputs": [],
      "stateMutability": "nonpayable",
      "type": "function"
    }
  ],
  "bytecode": "0x60806040523480156200001157600080fd5b5060405162001482380380620014828339810160408190526200003491620001e2565b62375f0082806001600160a01b038116620000965760405162461bcd60e51b815260206004820152601960248201527f4f776e657220616464726573732063616e6e6f7420626520300000000000000060448201526064015b60405180910390fd5b600080546001600160a01b0319166001600160a01b03831690811782556040805192835260208301919091527fb532073b38c83145e3e5135377a08bf9aab55bc0fd7c1179cd4fb995d2a5159c910160405180910390a1506001600160a01b038116620001515760405162461bcd60e51b815260206004820152602260248201527f4f776e6572206d757374206e6f7420626520746865207a65726f206164647265604482015261737360f01b60648201526084016200008d565b60038054610100600160a81b0319166101006001600160a01b038416908102919091179091556040519081527fd5da63a0b864b315bc04128dedbc93888c8529ee6cf47ce664dc204339228c539060200160405180910390a150620001b7814262000220565b60045550600580546001600160a01b0319166001600160a01b0392909216919091179055506200025e565b60008060408385031215620001f5578182fd5b8251620002028162000245565b6020840151909250620002158162000245565b809150509250929050565b600082198211156200024057634e487b7160e01b81526011600452602481fd5b500190565b6001600160a01b03811681146200025b57600080fd5b50565b611214806200026e6000396000f3fe608060405234801561001057600080fd5b506004361061012c5760003560e01c806394e1a448116100ad578063b8225dec11610071578063b8225dec1461025c578063bd32aa4414610279578063c58aaae614610281578063cff2ddad14610299578063d29c000a146102b357600080fd5b806394e1a448146102115780639cb8a26a14610224578063a461fc821461022c578063ae2e933b14610236578063b326f84e1461024957600080fd5b806339a3f63f116100f457806339a3f63f1461019057806353a47bb7146101a357806379ba5097146101ce5780637de65545146101d65780638da5cb5b146101fe57600080fd5b80631627540c1461013157806317c70de41461014657806319db22281461016257806320714f88146101755780633278c96014610188575b600080fd5b61014461013f366004610f0e565b6102c6565b005b61014f60025481565b6040519081526020015b60405180910390f35b610144610170366004610f0e565b61034e565b610144610183366004610f0e565b61039a565b610144610481565b61014461019e366004610f96565b6104e5565b6001546101b6906001600160a01b031681565b6040516001600160a01b039091168152602001610159565b61014461079b565b6101e96101e4366004610f31565b610885565b60408051928352602083019190915201610159565b6000546101b6906001600160a01b031681565b61014461021f366004610f5c565b6108b5565b610144610979565b61014f6224ea0081565b6005546101b6906001600160a01b031681565b6101e9610257366004610f31565b610ac7565b6003546102699060ff1681565b6040519015158152602001610159565b610144610bb2565b6003546101b69061010090046001600160a01b031681565b6102a1600681565b60405160ff9091168152602001610159565b6101e96102c1366004610f31565b610c2c565b6000546001600160a01b031633146102f95760405162461bcd60e51b81526004016102f090611069565b60405180910390fd5b600180546001600160a01b0319166001600160a01b0383169081179091556040519081527f906a1c6bd7e3091ea86693dd029a831c19049ce77f1dce2ce0bab1cacbabce22906020015b60405180910390a150565b6000546001600160a01b031633146103785760405162461bcd60e51b81526004016102f090611069565b600580546001600160a01b0319166001600160a01b0392909216919091179055565b6000546001600160a01b031633146103c45760405162461bcd60e51b81526004016102f090611069565b6001600160a01b03811661042b5760405162461bcd60e51b815260206004820152602860248201527f42656e6566696369617279206d757374206e6f7420626520746865207a65726f604482015267206164647265737360c01b60648201526084016102f0565b60038054610100600160a81b0319166101006001600160a01b038416908102919091179091556040519081527fd5da63a0b864b315bc04128dedbc93888c8529ee6cf47ce664dc204339228c5390602001610343565b6000546001600160a01b031633146104ab5760405162461bcd60e51b81526004016102f090611069565b600060028190556003805460ff191690556040517f6adcc7125002935e0aa31697538ebbd65cfddf20431eb6ecdcfc3e238bfd082c9190a1565b6000546001600160a01b0316331461050f5760405162461bcd60e51b81526004016102f090611069565b60045442106105725760405162461bcd60e51b815260206004820152602960248201527f43616e206f6e6c7920706572666f726d207468697320616374696f6e206475726044820152680696e672073657475760bc1b60648201526084016102f0565b82518451146105b55760405162461bcd60e51b815260206004820152600f60248201526e098cadccee8d040dad2e6dac2e8c6d608b1b60448201526064016102f0565b60005b84518160ff16101561079457838160ff16815181106105e757634e487b7160e01b600052603260045260246000fd5b602002602001015160066000878460ff168151811061061657634e487b7160e01b600052603260045260246000fd5b60200260200101516001600160a01b03166001600160a01b03168152602001908152602001600020846006811061065d57634e487b7160e01b600052603260045260246000fd5b60020201600001819055508160066000878460ff168151811061069057634e487b7160e01b600052603260045260246000fd5b60200260200101516001600160a01b03166001600160a01b0316815260200190815260200160002084600681106106d757634e487b7160e01b600052603260045260246000fd5b6002020160010181905550848160ff168151811061070557634e487b7160e01b600052603260045260246000fd5b60200260200101516001600160a01b03167f3846bc3c5dca9c6ef89995aa7b28d43a5a99aa2e3ea230494da474b8d4b29aea858360ff168151811061075a57634e487b7160e01b600052603260045260246000fd5b60200260200101518460405161077a929190918252602082015260400190565b60405180910390a28061078c8161117a565b9150506105b8565b5050505050565b6001546001600160a01b031633146108135760405162461bcd60e51b815260206004820152603560248201527f596f75206d757374206265206e6f6d696e61746564206265666f726520796f7560448201527402063616e20616363657074206f776e65727368697605c1b60648201526084016102f0565b600054600154604080516001600160a01b0393841681529290911660208301527fb532073b38c83145e3e5135377a08bf9aab55bc0fd7c1179cd4fb995d2a5159c910160405180910390a160018054600080546001600160a01b03199081166001600160a01b03841617909155169055565b600660205281600052604060002081600681106108a157600080fd5b600202018054600190910154909250905082565b6005546001600160a01b031633146109295760405162461bcd60e51b815260206004820152603160248201527f4f6e6c792074686520466565506f6f6c20636f6e74726163742063616e207065604482015270393337b936903a3434b99030b1ba34b7b760791b60648201526084016102f0565b6001600160a01b0384166000908152600660205260409020600101548111156109555761095584610d4c565b506001600160a01b0392909216600090815260066020526040902090815560010155565b6000546001600160a01b031633146109a35760405162461bcd60e51b81526004016102f090611069565b60035460ff16610a065760405162461bcd60e51b815260206004820152602860248201527f53656c6620646573747275637420686173206e6f7420796574206265656e20696044820152671b9a5d1a585d195960c21b60648201526084016102f0565b426224ea00600254610a18919061110d565b10610a755760405162461bcd60e51b815260206004820152602760248201527f53656c662064657374727563742064656c617920686173206e6f742079657420604482015266195b185c1cd95960ca1b60648201526084016102f0565b6003546040516101009091046001600160a01b0316808252907f8a09e1677ced846cb537dc2b172043bd05a1a81ad7e0033a7ef8ba762df990b79060200160405180910390a1806001600160a01b0316ff5b60008060068310610b265760405162461bcd60e51b815260206004820152602360248201527f696e646578206578636565647320746865204645455f504552494f445f4c454e60448201526208ea8960eb1b60648201526084016102f0565b6001600160a01b03841660009081526006602081905260409091209084908110610b6057634e487b7160e01b600052603260045260246000fd5b60020201546001600160a01b038516600090815260066020819052604090912091935084908110610ba157634e487b7160e01b600052603260045260246000fd5b600202016001015490509250929050565b6000546001600160a01b03163314610bdc5760405162461bcd60e51b81526004016102f090611069565b426002556003805460ff191660011790556040517fcbd94ca75b8dc45c9d80c77e851670e78843c0d75180cb81db3e2158228fa9a690610c22906224ea00815260200190565b60405180910390a1565b6001600160a01b0382166000908152600660208190526040808320815160c0810190925283928392919083835b82821015610c95578382600202016040518060400160405290816000820154815260200160018201548152505081526020019060010190610c59565b50505050905060005b6006811015610d4257818160068110610cc757634e487b7160e01b600052603260045260246000fd5b6020020151602001518510610d3057818160068110610cf657634e487b7160e01b600052603260045260246000fd5b602002015151828260068110610d1c57634e487b7160e01b600052603260045260246000fd5b602002015160200151935093505050610d45565b80610d3a8161115f565b915050610c9e565b50505b9250929050565b6000610d5a60026006611125565b60ff1690505b6006811015610e9b576000610d7682600161110d565b6001600160a01b038416600090815260066020819052604090912091925083908110610db257634e487b7160e01b600052603260045260246000fd5b60020201546001600160a01b03841660009081526006602081905260409091209083908110610df157634e487b7160e01b600052603260045260246000fd5b60020201556001600160a01b03831660009081526006602081905260409091209083908110610e3057634e487b7160e01b600052603260045260246000fd5b600202016001015460066000856001600160a01b03166001600160a01b031681526020019081526020016000208260068110610e7c57634e487b7160e01b600052603260045260246000fd5b6002020160010181905550508080610e9390611148565b915050610d60565b5050565b600082601f830112610eaf578081fd5b81356020610ec4610ebf836110e9565b6110b8565b80838252828201915082860187848660051b8901011115610ee3578586fd5b855b85811015610f0157813584529284019290840190600101610ee5565b5090979650505050505050565b600060208284031215610f1f578081fd5b8135610f2a816111c6565b9392505050565b60008060408385031215610f43578081fd5b8235610f4e816111c6565b946020939093013593505050565b60008060008060808587031215610f71578182fd5b8435610f7c816111c6565b966020860135965060408601359560600135945092505050565b60008060008060808587031215610fab578384fd5b843567ffffffffffffffff80821115610fc2578586fd5b818701915087601f830112610fd5578586fd5b81356020610fe5610ebf836110e9565b8083825282820191508286018c848660051b8901011115611004578a8bfd5b8a96505b8487101561102f57803561101b816111c6565b835260019690960195918301918301611008565b5098505088013592505080821115611045578485fd5b5061105287828801610e9f565b949794965050505060408301359260600135919050565b6020808252602f908201527f4f6e6c792074686520636f6e7472616374206f776e6572206d6179207065726660408201526e37b936903a3434b99030b1ba34b7b760891b606082015260800190565b604051601f8201601f1916810167ffffffffffffffff811182821017156110e1576110e16111b0565b604052919050565b600067ffffffffffffffff821115611103576111036111b0565b5060051b60200190565b600082198211156111205761112061119a565b500190565b600060ff821660ff84168082101561113f5761113f61119a565b90039392505050565b6000816111575761115761119a565b506000190190565b60006000198214156111735761117361119a565b5060010190565b600060ff821660ff8114156111915761119161119a565b60010192915050565b634e487b7160e01b600052601160045260246000fd5b634e487b7160e01b600052604160045260246000fd5b6001600160a01b03811681146111db57600080fd5b5056fea2646970667358221220111bf924608f095bf32f1a2948bb3993957806007c4081ecf2de955c9b3c703464736f6c63430008040033",
  "linkReferences": {},
  "deployedLinkReferences": {}
}