{
  "_format": "hh-sol-artifact-1",
  "contractName": "FeePool",
  "sourceName": "contracts/FeePool.sol",
  "abi": [
    {
      "inputs": [
        {
          "internalType": "address",
          "name": "_proxy",
          "type": "address"
        },
        {
          "internalType": "address",
          "name": "_owner",
          "type": "address"
        },
        {
          "internalType": "contract Synthetix",
          "name": "_synthetix",
          "type": "address"
        },
        {
          "internalType": "contract FeePoolState",
          "name": "_feePoolState",
          "type": "address"
        },
        {
          "internalType": "contract FeePoolEternalStorage",
          "name": "_feePoolEternalStorage",
          "type": "address"
        },
        {
          "internalType": "contract ISynthetixState",
          "name": "_synthetixState",
          "type": "address"
        },
        {
          "internalType": "contract ISynthetixEscrow",
          "name": "_rewardEscrow",
          "type": "address"
        },
        {
          "internalType": "address",
          "name": "_feeAuthority",
          "type": "address"
        },
        {
          "internalType": "uint256",
          "name": "_transferFeeRate",
          "type": "uint256"
        },
        {
          "internalType": "uint256",
          "name": "_exchangeFeeRate",
          "type": "uint256"
        }
      ],
      "stateMutability": "nonpayable",
      "type": "constructor"
    },
    {
      "anonymous": false,
      "inputs": [
        {
          "indexed": false,
          "internalType": "uint256",
          "name": "newFeeRate",
          "type": "uint256"
        }
      ],
      "name": "ExchangeFeeUpdated",
      "type": "event"
    },
    {
      "anonymous": false,
      "inputs": [
        {
          "indexed": false,
          "internalType": "uint256",
          "name": "feePeriodId",
          "type": "uint256"
        }
      ],
      "name": "FeePeriodClosed",
      "type": "event"
    },
    {
      "anonymous": false,
      "inputs": [
        {
          "indexed": false,
          "internalType": "uint256",
          "name": "newFeePeriodDuration",
          "type": "uint256"
        }
      ],
      "name": "FeePeriodDurationUpdated",
      "type": "event"
    },
    {
      "anonymous": false,
      "inputs": [
        {
          "indexed": false,
          "internalType": "address",
          "name": "account",
          "type": "address"
        },
        {
          "indexed": false,
          "internalType": "uint256",
          "name": "xdrAmount",
          "type": "uint256"
        },
        {
          "indexed": false,
          "internalType": "uint256",
          "name": "snxRewards",
          "type": "uint256"
        }
      ],
      "name": "FeesClaimed",
      "type": "event"
    },
    {
      "anonymous": false,
      "inputs": [
        {
          "indexed": true,
          "internalType": "address",
          "name": "account",
          "type": "address"
        },
        {
          "indexed": false,
          "internalType": "uint256",
          "name": "debtRatio",
          "type": "uint256"
        },
        {
          "indexed": false,
          "internalType": "uint256",
          "name": "debtEntryIndex",
          "type": "uint256"
        },
        {
          "indexed": false,
          "internalType": "uint256",
          "name": "feePeriodStartingDebtIndex",
          "type": "uint256"
        }
      ],
      "name": "IssuanceDebtRatioEntry",
      "type": "event"
    },
    {
      "anonymous": false,
      "inputs": [
        {
          "indexed": false,
          "internalType": "address",
          "name": "oldOwner",
          "type": "address"
        },
        {
          "indexed": false,
          "internalType": "address",
          "name": "newOwner",
          "type": "address"
        }
      ],
      "name": "OwnerChanged",
      "type": "event"
    },
    {
      "anonymous": false,
      "inputs": [
        {
          "indexed": false,
          "internalType": "address",
          "name": "newOwner",
          "type": "address"
        }
      ],
      "name": "OwnerNominated",
      "type": "event"
    },
    {
      "anonymous": false,
      "inputs": [
        {
          "indexed": false,
          "internalType": "address",
          "name": "proxyAddress",
          "type": "address"
        }
      ],
      "name": "ProxyUpdated",
      "type": "event"
    },
    {
      "anonymous": false,
      "inputs": [
        {
          "indexed": false,
          "internalType": "address",
          "name": "newBeneficiary",
          "type": "address"
        }
      ],
      "name": "SelfDestructBeneficiaryUpdated",
      "type": "event"
    },
    {
      "anonymous": false,
      "inputs": [
        {
          "indexed": false,
          "internalType": "uint256",
          "name": "selfDestructDelay",
          "type": "uint256"
        }
      ],
      "name": "SelfDestructInitiated",
      "type": "event"
    },
    {
      "anonymous": false,
      "inputs": [],
      "name": "SelfDestructTerminated",
      "type": "event"
    },
    {
      "anonymous": false,
      "inputs": [
        {
          "indexed": false,
          "internalType": "address",
          "name": "beneficiary",
          "type": "address"
        }
      ],
      "name": "SelfDestructed",
      "type": "event"
    },
    {
      "anonymous": false,
      "inputs": [
        {
          "indexed": false,
          "internalType": "uint256",
          "name": "newFeeRate",
          "type": "uint256"
        }
      ],
      "name": "TransferFeeUpdated",
      "type": "event"
    },
    {
      "inputs": [],
      "name": "FEE_ADDRESS",
      "outputs": [
        {
          "internalType": "address",
          "name": "",
          "type": "address"
        }
      ],
      "stateMutability": "view",
      "type": "function"
    },
    {
      "inputs": [],
      "name": "FEE_PERIOD_LENGTH",
      "outputs": [
        {
          "internalType": "uint8",
          "name": "",
          "type": "uint8"
        }
      ],
      "stateMutability": "view",
      "type": "function"
    },
    {
      "inputs": [],
      "name": "MAX_EXCHANGE_FEE_RATE",
      "outputs": [
        {
          "internalType": "uint256",
          "name": "",
          "type": "uint256"
        }
      ],
      "stateMutability": "view",
      "type": "function"
    },
    {
      "inputs": [],
      "name": "MAX_FEE_PERIOD_DURATION",
      "outputs": [
        {
          "internalType": "uint256",
          "name": "",
          "type": "uint256"
        }
      ],
      "stateMutability": "view",
      "type": "function"
    },
    {
      "inputs": [],
      "name": "MAX_TRANSFER_FEE_RATE",
      "outputs": [
        {
          "internalType": "uint256",
          "name": "",
          "type": "uint256"
        }
      ],
      "stateMutability": "view",
      "type": "function"
    },
    {
      "inputs": [],
      "name": "MIN_FEE_PERIOD_DURATION",
      "outputs": [
        {
          "internalType": "uint256",
          "name": "",
          "type": "uint256"
        }
      ],
      "stateMutability": "view",
      "type": "function"
    },
    {
      "inputs": [],
      "name": "SELFDESTRUCT_DELAY",
      "outputs": [
        {
          "internalType": "uint256",
          "name": "",
          "type": "uint256"
        }
      ],
      "stateMutability": "view",
      "type": "function"
    },
    {
      "inputs": [],
      "name": "TARGET_THRESHOLD",
      "outputs": [
        {
          "internalType": "uint256",
          "name": "",
          "type": "uint256"
        }
      ],
      "stateMutability": "view",
      "type": "function"
    },
    {
      "inputs": [],
      "name": "acceptOwnership",
      "outputs": [],
      "stateMutability": "nonpayable",
      "type": "function"
    },
    {
      "inputs": [
        {
          "internalType": "uint256",
          "name": "value",
          "type": "uint256"
        }
      ],
      "name": "amountReceivedFromExchange",
      "outputs": [
        {
          "internalType": "uint256",
          "name": "",
          "type": "uint256"
        }
      ],
      "stateMutability": "view",
      "type": "function"
    },
    {
      "inputs": [
        {
          "internalType": "uint256",
          "name": "value",
          "type": "uint256"
        }
      ],
      "name": "amountReceivedFromTransfer",
      "outputs": [
        {
          "internalType": "uint256",
          "name": "",
          "type": "uint256"
        }
      ],
      "stateMutability": "view",
      "type": "function"
    },
    {
      "inputs": [
        {
          "internalType": "address",
          "name": "account",
          "type": "address"
        },
        {
          "internalType": "uint256",
          "name": "debtRatio",
          "type": "uint256"
        },
        {
          "internalType": "uint256",
          "name": "debtEntryIndex",
          "type": "uint256"
        }
      ],
      "name": "appendAccountIssuanceRecord",
      "outputs": [],
      "stateMutability": "nonpayable",
      "type": "function"
    },
    {
      "inputs": [
        {
          "internalType": "address",
          "name": "account",
          "type": "address"
        }
      ],
      "name": "approveClaimOnBehalf",
      "outputs": [],
      "stateMutability": "nonpayable",
      "type": "function"
    },
    {
      "inputs": [
        {
          "internalType": "bytes4",
          "name": "currencyKey",
          "type": "bytes4"
        }
      ],
      "name": "claimFees",
      "outputs": [
        {
          "internalType": "bool",
          "name": "",
          "type": "bool"
        }
      ],
      "stateMutability": "nonpayable",
      "type": "function"
    },
    {
      "inputs": [
        {
          "internalType": "address",
          "name": "claimingForAddress",
          "type": "address"
        },
        {
          "internalType": "bytes4",
          "name": "currencyKey",
          "type": "bytes4"
        }
      ],
      "name": "claimOnBehalf",
      "outputs": [
        {
          "internalType": "bool",
          "name": "",
          "type": "bool"
        }
      ],
      "stateMutability": "nonpayable",
      "type": "function"
    },
    {
      "inputs": [],
      "name": "closeCurrentFeePeriod",
      "outputs": [],
      "stateMutability": "nonpayable",
      "type": "function"
    },
    {
      "inputs": [],
      "name": "delegates",
      "outputs": [
        {
          "internalType": "contract DelegateApprovals",
          "name": "",
          "type": "address"
        }
      ],
      "stateMutability": "view",
      "type": "function"
    },
    {
      "inputs": [
        {
          "internalType": "address",
          "name": "account",
          "type": "address"
        },
        {
          "internalType": "uint256",
          "name": "period",
          "type": "uint256"
        }
      ],
      "name": "effectiveDebtRatioForPeriod",
      "outputs": [
        {
          "internalType": "uint256",
          "name": "",
          "type": "uint256"
        }
      ],
      "stateMutability": "view",
      "type": "function"
    },
    {
      "inputs": [
        {
          "internalType": "uint256",
          "name": "value",
          "type": "uint256"
        }
      ],
      "name": "exchangeFeeIncurred",
      "outputs": [
        {
          "internalType": "uint256",
          "name": "",
          "type": "uint256"
        }
      ],
      "stateMutability": "view",
      "type": "function"
    },
    {
      "inputs": [],
      "name": "exchangeFeeRate",
      "outputs": [
        {
          "internalType": "uint256",
          "name": "",
          "type": "uint256"
        }
      ],
      "stateMutability": "view",
      "type": "function"
    },
    {
      "inputs": [
        {
          "internalType": "uint256",
          "name": "value",
          "type": "uint256"
        }
      ],
      "name": "exchangedAmountToReceive",
      "outputs": [
        {
          "internalType": "uint256",
          "name": "",
          "type": "uint256"
        }
      ],
      "stateMutability": "view",
      "type": "function"
    },
    {
      "inputs": [],
      "name": "feeAuthority",
      "outputs": [
        {
          "internalType": "address",
          "name": "",
          "type": "address"
        }
      ],
      "stateMutability": "view",
      "type": "function"
    },
    {
      "inputs": [
        {
          "internalType": "bytes4",
          "name": "currencyKey",
          "type": "bytes4"
        },
        {
          "internalType": "uint256",
          "name": "amount",
          "type": "uint256"
        }
      ],
      "name": "feePaid",
      "outputs": [],
      "stateMutability": "nonpayable",
      "type": "function"
    },
    {
      "inputs": [],
      "name": "feePeriodDuration",
      "outputs": [
        {
          "internalType": "uint256",
          "name": "",
          "type": "uint256"
        }
      ],
      "stateMutability": "view",
      "type": "function"
    },
    {
      "inputs": [],
      "name": "feePoolEternalStorage",
      "outputs": [
        {
          "internalType": "contract FeePoolEternalStorage",
          "name": "",
          "type": "address"
        }
      ],
      "stateMutability": "view",
      "type": "function"
    },
    {
      "inputs": [],
      "name": "feePoolState",
      "outputs": [
        {
          "internalType": "contract FeePoolState",
          "name": "",
          "type": "address"
        }
      ],
      "stateMutability": "view",
      "type": "function"
    },
    {
      "inputs": [
        {
          "internalType": "address",
          "name": "account",
          "type": "address"
        },
        {
          "internalType": "bytes4",
          "name": "currencyKey",
          "type": "bytes4"
        }
      ],
      "name": "feesAvailable",
      "outputs": [
        {
          "internalType": "uint256",
          "name": "",
          "type": "uint256"
        },
        {
          "internalType": "uint256",
          "name": "",
          "type": "uint256"
        }
      ],
      "stateMutability": "view",
      "type": "function"
    },
    {
      "inputs": [
        {
          "internalType": "address",
          "name": "account",
          "type": "address"
        }
      ],
      "name": "feesByPeriod",
      "outputs": [
        {
          "internalType": "uint256[2][3]",
          "name": "results",
          "type": "uint256[2][3]"
        }
      ],
      "stateMutability": "view",
      "type": "function"
    },
    {
      "inputs": [
        {
          "internalType": "address",
          "name": "account",
          "type": "address"
        }
      ],
      "name": "feesClaimable",
      "outputs": [
        {
          "internalType": "bool",
          "name": "",
          "type": "bool"
        }
      ],
      "stateMutability": "view",
      "type": "function"
    },
    {
      "inputs": [
        {
          "internalType": "address",
          "name": "_claimingAddress",
          "type": "address"
        }
      ],
      "name": "getLastFeeWithdrawal",
      "outputs": [
        {
          "internalType": "uint256",
          "name": "",
          "type": "uint256"
        }
      ],
      "stateMutability": "view",
      "type": "function"
    },
    {
      "inputs": [],
      "name": "getPenaltyThresholdRatio",
      "outputs": [
        {
          "internalType": "uint256",
          "name": "",
          "type": "uint256"
        }
      ],
      "stateMutability": "view",
      "type": "function"
    },
    {
      "inputs": [
        {
          "internalType": "uint256",
          "name": "feePeriodIndex",
          "type": "uint256"
        },
        {
          "internalType": "uint256",
          "name": "feePeriodId",
          "type": "uint256"
        },
        {
          "internalType": "uint256",
          "name": "startingDebtIndex",
          "type": "uint256"
        },
        {
          "internalType": "uint256",
          "name": "startTime",
          "type": "uint256"
        },
        {
          "internalType": "uint256",
          "name": "feesToDistribute",
          "type": "uint256"
        },
        {
          "internalType": "uint256",
          "name": "feesClaimed",
          "type": "uint256"
        },
        {
          "internalType": "uint256",
          "name": "rewardsToDistribute",
          "type": "uint256"
        },
        {
          "internalType": "uint256",
          "name": "rewardsClaimed",
          "type": "uint256"
        }
      ],
      "name": "importFeePeriod",
      "outputs": [],
      "stateMutability": "nonpayable",
      "type": "function"
    },
    {
      "inputs": [],
      "name": "initiateSelfDestruct",
      "outputs": [],
      "stateMutability": "nonpayable",
      "type": "function"
    },
    {
      "inputs": [],
      "name": "initiationTime",
      "outputs": [
        {
          "internalType": "uint256",
          "name": "",
          "type": "uint256"
        }
      ],
      "stateMutability": "view",
      "type": "function"
    },
    {
      "inputs": [
        {
          "internalType": "address",
          "name": "_owner",
          "type": "address"
        }
      ],
      "name": "nominateNewOwner",
      "outputs": [],
      "stateMutability": "nonpayable",
      "type": "function"
    },
    {
      "inputs": [],
      "name": "nominatedOwner",
      "outputs": [
        {
          "internalType": "address",
          "name": "",
          "type": "address"
        }
      ],
      "stateMutability": "view",
      "type": "function"
    },
    {
      "inputs": [],
      "name": "owner",
      "outputs": [
        {
          "internalType": "address",
          "name": "",
          "type": "address"
        }
      ],
      "stateMutability": "view",
      "type": "function"
    },
    {
      "inputs": [],
      "name": "proxy",
      "outputs": [
        {
          "internalType": "contract Proxy",
          "name": "",
          "type": "address"
        }
      ],
      "stateMutability": "view",
      "type": "function"
    },
    {
      "inputs": [
        {
          "internalType": "uint256",
          "name": "",
          "type": "uint256"
        }
      ],
      "name": "recentFeePeriods",
      "outputs": [
        {
          "internalType": "uint256",
          "name": "feePeriodId",
          "type": "uint256"
        },
        {
          "internalType": "uint256",
          "name": "startingDebtIndex",
          "type": "uint256"
        },
        {
          "internalType": "uint256",
          "name": "startTime",
          "type": "uint256"
        },
        {
          "internalType": "uint256",
          "name": "feesToDistribute",
          "type": "uint256"
        },
        {
          "internalType": "uint256",
          "name": "feesClaimed",
          "type": "uint256"
        },
        {
          "internalType": "uint256",
          "name": "rewardsToDistribute",
          "type": "uint256"
        },
        {
          "internalType": "uint256",
          "name": "rewardsClaimed",
          "type": "uint256"
        }
      ],
      "stateMutability": "view",
      "type": "function"
    },
    {
      "inputs": [
        {
          "internalType": "address",
          "name": "account",
          "type": "address"
        }
      ],
      "name": "removeClaimOnBehalf",
      "outputs": [],
      "stateMutability": "nonpayable",
      "type": "function"
    },
    {
      "inputs": [],
      "name": "rewardEscrow",
      "outputs": [
        {
          "internalType": "contract ISynthetixEscrow",
          "name": "",
          "type": "address"
        }
      ],
      "stateMutability": "view",
      "type": "function"
    },
    {
      "inputs": [
        {
          "internalType": "uint256",
          "name": "amount",
          "type": "uint256"
        }
      ],
      "name": "rewardsMinted",
      "outputs": [],
      "stateMutability": "nonpayable",
      "type": "function"
    },
    {
      "inputs": [],
      "name": "selfDestruct",
      "outputs": [],
      "stateMutability": "nonpayable",
      "type": "function"
    },
    {
      "inputs": [],
      "name": "selfDestructBeneficiary",
      "outputs": [
        {
          "internalType": "address",
          "name": "",
          "type": "address"
        }
      ],
      "stateMutability": "view",
      "type": "function"
    },
    {
      "inputs": [],
      "name": "selfDestructInitiated",
      "outputs": [
        {
          "internalType": "bool",
          "name": "",
          "type": "bool"
        }
      ],
      "stateMutability": "view",
      "type": "function"
    },
    {
      "inputs": [
        {
          "internalType": "contract DelegateApprovals",
          "name": "_delegates",
          "type": "address"
        }
      ],
      "name": "setDelegateApprovals",
      "outputs": [],
      "stateMutability": "nonpayable",
      "type": "function"
    },
    {
      "inputs": [
        {
          "internalType": "uint256",
          "name": "_exchangeFeeRate",
          "type": "uint256"
        }
      ],
      "name": "setExchangeFeeRate",
      "outputs": [],
      "stateMutability": "nonpayable",
      "type": "function"
    },
    {
      "inputs": [
        {
          "internalType": "address",
          "name": "_feeAuthority",
          "type": "address"
        }
      ],
      "name": "setFeeAuthority",
      "outputs": [],
      "stateMutability": "nonpayable",
      "type": "function"
    },
    {
      "inputs": [
        {
          "internalType": "uint256",
          "name": "_feePeriodDuration",
          "type": "uint256"
        }
      ],
      "name": "setFeePeriodDuration",
      "outputs": [],
      "stateMutability": "nonpayable",
      "type": "function"
    },
    {
      "inputs": [
        {
          "internalType": "contract FeePoolState",
          "name": "_feePoolState",
          "type": "address"
        }
      ],
      "name": "setFeePoolState",
      "outputs": [],
      "stateMutability": "nonpayable",
      "type": "function"
    },
    {
      "inputs": [
        {
          "internalType": "address",
          "name": "sender",
          "type": "address"
        }
      ],
      "name": "setMessageSender",
      "outputs": [],
      "stateMutability": "nonpayable",
      "type": "function"
    },
    {
      "inputs": [
        {
          "internalType": "address payable",
          "name": "_proxy",
          "type": "address"
        }
      ],
      "name": "setProxy",
      "outputs": [],
      "stateMutability": "nonpayable",
      "type": "function"
    },
    {
      "inputs": [
        {
          "internalType": "address",
          "name": "_beneficiary",
          "type": "address"
        }
      ],
      "name": "setSelfDestructBeneficiary",
      "outputs": [],
      "stateMutability": "nonpayable",
      "type": "function"
    },
    {
      "inputs": [
        {
          "internalType": "contract Synthetix",
          "name": "_synthetix",
          "type": "address"
        }
      ],
      "name": "setSynthetix",
      "outputs": [],
      "stateMutability": "nonpayable",
      "type": "function"
    },
    {
      "inputs": [
        {
          "internalType": "uint256",
          "name": "_percent",
          "type": "uint256"
        }
      ],
      "name": "setTargetThreshold",
      "outputs": [],
      "stateMutability": "nonpayable",
      "type": "function"
    },
    {
      "inputs": [
        {
          "internalType": "uint256",
          "name": "_transferFeeRate",
          "type": "uint256"
        }
      ],
      "name": "setTransferFeeRate",
      "outputs": [],
      "stateMutability": "nonpayable",
      "type": "function"
    },
    {
      "inputs": [],
      "name": "synthetix",
      "outputs": [
        {
          "internalType": "contract Synthetix",
          "name": "",
          "type": "address"
        }
      ],
      "stateMutability": "view",
      "type": "function"
    },
    {
      "inputs": [],
      "name": "synthetixState",
      "outputs": [
        {
          "internalType": "contract ISynthetixState",
          "name": "",
          "type": "address"
        }
      ],
      "stateMutability": "view",
      "type": "function"
    },
    {
      "inputs": [],
      "name": "terminateSelfDestruct",
      "outputs": [],
      "stateMutability": "nonpayable",
      "type": "function"
    },
    {
      "inputs": [
        {
          "internalType": "bytes4",
          "name": "currencyKey",
          "type": "bytes4"
        }
      ],
      "name": "totalFeesAvailable",
      "outputs": [
        {
          "internalType": "uint256",
          "name": "",
          "type": "uint256"
        }
      ],
      "stateMutability": "view",
      "type": "function"
    },
    {
      "inputs": [],
      "name": "totalRewardsAvailable",
      "outputs": [
        {
          "internalType": "uint256",
          "name": "",
          "type": "uint256"
        }
      ],
      "stateMutability": "view",
      "type": "function"
    },
    {
      "inputs": [
        {
          "internalType": "uint256",
          "name": "value",
          "type": "uint256"
        }
      ],
      "name": "transferFeeIncurred",
      "outputs": [
        {
          "internalType": "uint256",
          "name": "",
          "type": "uint256"
        }
      ],
      "stateMutability": "view",
      "type": "function"
    },
    {
      "inputs": [],
      "name": "transferFeeRate",
      "outputs": [
        {
          "internalType": "uint256",
          "name": "",
          "type": "uint256"
        }
      ],
      "stateMutability": "view",
      "type": "function"
    },
    {
      "inputs": [
        {
          "internalType": "uint256",
          "name": "value",
          "type": "uint256"
        }
      ],
      "name": "transferredAmountToReceive",
      "outputs": [
        {
          "internalType": "uint256",
          "name": "",
          "type": "uint256"
        }
      ],
      "stateMutability": "view",
      "type": "function"
    }
  ],
  "bytecode": "0x6080604052600a73__$b8d33eeb36ac0d1e81cd70156e0043e778$__63907af6c06040518163ffffffff1660e01b815260040160206040518083038186803b1580156200004b57600080fd5b505af415801562000060573d6000803e3d6000fd5b505050506040513d601f19601f820116820180604052508101906200008691906200095d565b62000092919062000bed565b600c55600a73__$b8d33eeb36ac0d1e81cd70156e0043e778$__63907af6c06040518163ffffffff1660e01b815260040160206040518083038186803b158015620000dc57600080fd5b505af4158015620000f1573d6000803e3d6000fd5b505050506040513d601f19601f820116820180604052508101906200011791906200095d565b62000123919062000bed565b600e5562093a80602755606473__$b8d33eeb36ac0d1e81cd70156e0043e778$__63907af6c06040518163ffffffff1660e01b815260040160206040518083038186803b1580156200017457600080fd5b505af415801562000189573d6000803e3d6000fd5b505050506040513d601f19601f82011682018060405250810190620001af91906200095d565b600a620001bd919062000c25565b620001c9919062000bed565b602855348015620001d957600080fd5b506040516200a1513803806200a1518339818101604052810190620001ff91906200086d565b621baf80898b81600073ffffffffffffffffffffffffffffffffffffffff168173ffffffffffffffffffffffffffffffffffffffff16141562000279576040517f08c379a0000000000000000000000000000000000000000000000000000000008152600401620002709062000b5d565b60405180910390fd5b806000806101000a81548173ffffffffffffffffffffffffffffffffffffffff021916908373ffffffffffffffffffffffffffffffffffffffff1602179055507fb532073b38c83145e3e5135377a08bf9aab55bc0fd7c1179cd4fb995d2a5159c600082604051620002ed92919062000aa8565b60405180910390a150600073ffffffffffffffffffffffffffffffffffffffff1660008054906101000a900473ffffffffffffffffffffffffffffffffffffffff1673ffffffffffffffffffffffffffffffffffffffff16141562000389576040517f08c379a0000000000000000000000000000000000000000000000000000000008152600401620003809062000b3b565b60405180910390fd5b80600260006101000a81548173ffffffffffffffffffffffffffffffffffffffff021916908373ffffffffffffffffffffffffffffffffffffffff1602179055507ffc80377ca9c49cc11ae6982f390a42db976d5530af7c43889264b13fbbd7c57e81604051620003fb919062000a8b565b60405180910390a150600073ffffffffffffffffffffffffffffffffffffffff168173ffffffffffffffffffffffffffffffffffffffff16141562000477576040517f08c379a00000000000000000000000000000000000000000000000000000000081526004016200046e9062000af7565b60405180910390fd5b80600560016101000a81548173ffffffffffffffffffffffffffffffffffffffff021916908373ffffffffffffffffffffffffffffffffffffffff1602179055507fd5da63a0b864b315bc04128dedbc93888c8529ee6cf47ce664dc204339228c5381604051620004e9919062000a6e565b60405180910390a150804262000500919062000b90565b60068190555050600c548211156200054f576040517f08c379a0000000000000000000000000000000000000000000000000000000008152600401620005469062000ad5565b60405180910390fd5b600e5481111562000597576040517f08c379a00000000000000000000000000000000000000000000000000000000081526004016200058e9062000b19565b60405180910390fd5b87600760006101000a81548173ffffffffffffffffffffffffffffffffffffffff021916908373ffffffffffffffffffffffffffffffffffffffff16021790555086601060006101000a81548173ffffffffffffffffffffffffffffffffffffffff021916908373ffffffffffffffffffffffffffffffffffffffff16021790555085600a60006101000a81548173ffffffffffffffffffffffffffffffffffffffff021916908373ffffffffffffffffffffffffffffffffffffffff16021790555083600960006101000a81548173ffffffffffffffffffffffffffffffffffffffff021916908373ffffffffffffffffffffffffffffffffffffffff16021790555084600860006101000a81548173ffffffffffffffffffffffffffffffffffffffff021916908373ffffffffffffffffffffffffffffffffffffffff16021790555082600f60006101000a81548173ffffffffffffffffffffffffffffffffffffffff021916908373ffffffffffffffffffffffffffffffffffffffff16021790555081600b8190555080600d819055506001601260006003811062000769577f4e487b7100000000000000000000000000000000000000000000000000000000600052603260045260246000fd5b6007020160000181905550426012600060038110620007b1577f4e487b7100000000000000000000000000000000000000000000000000000000600052603260045260246000fd5b60070201600201819055505050505050505050505062001003565b600081519050620007dd8162000f4d565b92915050565b600081519050620007f48162000f67565b92915050565b6000815190506200080b8162000f81565b92915050565b600081519050620008228162000f9b565b92915050565b600081519050620008398162000fb5565b92915050565b600081519050620008508162000fcf565b92915050565b600081519050620008678162000fe9565b92915050565b6000806000806000806000806000806101408b8d0312156200088e57600080fd5b60006200089e8d828e01620007cc565b9a50506020620008b18d828e01620007cc565b9950506040620008c48d828e016200083f565b9850506060620008d78d828e01620007fa565b9750506080620008ea8d828e01620007e3565b96505060a0620008fd8d828e0162000828565b95505060c0620009108d828e0162000811565b94505060e0620009238d828e01620007cc565b935050610100620009378d828e0162000856565b9250506101206200094b8d828e0162000856565b9150509295989b9194979a5092959850565b6000602082840312156200097057600080fd5b6000620009808482850162000856565b91505092915050565b620009948162000d28565b82525050565b620009a58162000c86565b82525050565b6000620009ba60418362000b7f565b9150620009c78262000dc2565b606082019050919050565b6000620009e160228362000b7f565b9150620009ee8262000e37565b604082019050919050565b600062000a0860418362000b7f565b915062000a158262000e86565b606082019050919050565b600062000a2f60118362000b7f565b915062000a3c8262000efb565b602082019050919050565b600062000a5660198362000b7f565b915062000a638262000f24565b602082019050919050565b600060208201905062000a8560008301846200099a565b92915050565b600060208201905062000aa2600083018462000989565b92915050565b600060408201905062000abf60008301856200099a565b62000ace60208301846200099a565b9392505050565b6000602082019050818103600083015262000af081620009ab565b9050919050565b6000602082019050818103600083015262000b1281620009d2565b9050919050565b6000602082019050818103600083015262000b3481620009f9565b9050919050565b6000602082019050818103600083015262000b568162000a20565b9050919050565b6000602082019050818103600083015262000b788162000a47565b9050919050565b600082825260208201905092915050565b600062000b9d8262000d1e565b915062000baa8362000d1e565b9250827fffffffffffffffffffffffffffffffffffffffffffffffffffffffffffffffff0382111562000be25762000be162000d64565b5b828201905092915050565b600062000bfa8262000d1e565b915062000c078362000d1e565b92508262000c1a5762000c1962000d93565b5b828204905092915050565b600062000c328262000d1e565b915062000c3f8362000d1e565b9250817fffffffffffffffffffffffffffffffffffffffffffffffffffffffffffffffff048311821515161562000c7b5762000c7a62000d64565b5b828202905092915050565b600062000c938262000cfe565b9050919050565b600062000ca78262000c86565b9050919050565b600062000cbb8262000c86565b9050919050565b600062000ccf8262000c86565b9050919050565b600062000ce38262000c86565b9050919050565b600062000cf78262000c86565b9050919050565b600073ffffffffffffffffffffffffffffffffffffffff82169050919050565b6000819050919050565b600062000d358262000d3c565b9050919050565b600062000d498262000d50565b9050919050565b600062000d5d8262000cfe565b9050919050565b7f4e487b7100000000000000000000000000000000000000000000000000000000600052601160045260246000fd5b7f4e487b7100000000000000000000000000000000000000000000000000000000600052601260045260246000fd5b7f436f6e7374727563746564207472616e7366657220666565207261746520736860008201527f6f756c64207265737065637420746865206d6178696d756d206665652072617460208201527f6500000000000000000000000000000000000000000000000000000000000000604082015250565b7f4f776e6572206d757374206e6f7420626520746865207a65726f20616464726560008201527f7373000000000000000000000000000000000000000000000000000000000000602082015250565b7f436f6e73747275637465642065786368616e676520666565207261746520736860008201527f6f756c64207265737065637420746865206d6178696d756d206665652072617460208201527f6500000000000000000000000000000000000000000000000000000000000000604082015250565b7f4f776e6572206d75737420626520736574000000000000000000000000000000600082015250565b7f4f776e657220616464726573732063616e6e6f74206265203000000000000000600082015250565b62000f588162000c86565b811462000f6457600080fd5b50565b62000f728162000c9a565b811462000f7e57600080fd5b50565b62000f8c8162000cae565b811462000f9857600080fd5b50565b62000fa68162000cc2565b811462000fb257600080fd5b50565b62000fc08162000cd6565b811462000fcc57600080fd5b50565b62000fda8162000cea565b811462000fe657600080fd5b50565b62000ff48162000d1e565b81146200100057600080fd5b50565b61913e80620010136000396000f3fe608060405234801561001057600080fd5b50600436106103d05760003560e01c80638a957929116101ff578063c894e1e51161011a578063e3082f6a116100ad578063ec5568891161007c578063ec55688914610b6c578063f344da6714610b8a578063fb1b4c7e14610ba8578063fec9f9da14610bc6576103d0565b8063e3082f6a14610ae4578063e3f060ae14610b02578063e9d36c5614610b1e578063eb1edd6114610b4e576103d0565b8063d62ae399116100e9578063d62ae39914610a48578063da46e6c414610a66578063dbd4a42214610a96578063e05bac8214610ab4576103d0565b8063c894e1e5146109ae578063cc9b31c9146109ca578063cd503c0b146109fa578063cff2ddad14610a2a576103d0565b8063ac83419311610192578063b8225dec11610161578063b8225dec1461094c578063bc67f8321461096a578063bd32aa4414610986578063c58aaae614610990576103d0565b8063ac834193146108b2578063b10090b8146108d0578063b6dc8e25146108ec578063b7fcfa691461091c576103d0565b8063a3fd6d0e116101ce578063a3fd6d0e1461083c578063a430be6c14610858578063a461fc8214610876578063a6d5bb1414610894576103d0565b80638a957929146107dc5780638da5cb5b146107f857806397107d6d146108165780639cb8a26a14610832576103d0565b80633ebc457a116102ef5780636138b19e11610282578063759b522511610251578063759b52251461077a57806376d752a11461079857806379ba5097146107b657806386645274146107c0576103d0565b80636138b19e146106f2578063639cd59c146107105780636c8bc9fe146107405780636de813f11461075c576103d0565b806353a47bb7116102be57806353a47bb71461066c578063578a791d1461068a57806358aab84a146106a65780635b292e94146106d6576103d0565b80633ebc457a146105f25780633fcd2240146105fc5780634180e5b51461063257806352b9f8a21461064e576103d0565b806317c70de41161036757806331dbd8a51161033657806331dbd8a51461057c5780633278c9601461059a57806333140016146105a4578063351bf518146105d4576103d0565b806317c70de41461050857806320714f881461052657806322425fa4146105425780632cce0e5414610560576103d0565b80630f5024a7116103a35780630f5024a71461046d5780630f9b49551461049d57806310adda0e146104bb5780631627540c146104ec576103d0565b806304c49f2c146103d5578063075d2c41146103f157806307ea50cd1461040d5780630813071c1461043d575b600080fd5b6103ef60048036038101906103ea9190616fb5565b610be2565b005b61040b60048036038101906104069190616f11565b610dc8565b005b61042760048036038101906104229190616d41565b610f53565b6040516104349190617fcf565b60405180910390f35b61045760048036038101906104529190616dcf565b61104f565b6040516104649190617fcf565b60405180910390f35b61048760048036038101906104829190616d93565b61126c565b6040516104949190617965565b60405180910390f35b6104a5611425565b6040516104b29190617fcf565b60405180910390f35b6104d560048036038101906104d09190616d93565b61142b565b6040516104e3929190617fea565b60405180910390f35b61050660048036038101906105019190616d41565b611641565b005b61051061174a565b60405161051d9190617fcf565b60405180910390f35b610540600480360381019061053b9190616d41565b611750565b005b61054a6118c9565b6040516105579190617fcf565b60405180910390f35b61057a60048036038101906105759190616fb5565b6118cf565b005b610584611af6565b60405161059191906177e6565b60405180910390f35b6105a2611b1c565b005b6105be60048036038101906105b99190616d41565b611bfb565b6040516105cb919061794a565b60405180910390f35b6105dc6121e6565b6040516105e99190617fcf565b60405180910390f35b6105fa6121ec565b005b61061660048036038101906106119190616fb5565b612c82565b604051610629979695949392919061804a565b60405180910390f35b61064c60048036038101906106479190616d41565b612cca565b005b610656612f17565b6040516106639190617aff565b60405180910390f35b610674612f3d565b60405161068191906177e6565b60405180910390f35b6106a4600480360381019061069f9190616fb5565b612f63565b005b6106c060048036038101906106bb9190616d41565b6130b4565b6040516106cd9190617965565b60405180910390f35b6106f060048036038101906106eb9190616ee8565b61335f565b005b6106fa6134ea565b6040516107079190617ae4565b60405180910390f35b61072a60048036038101906107259190616e83565b613510565b6040516107379190617fcf565b60405180910390f35b61075a60048036038101906107559190616d41565b61369f565b005b61076461387c565b6040516107719190617fcf565b60405180910390f35b61078261395d565b60405161078f9190617b86565b60405180910390f35b6107a0613983565b6040516107ad9190617fcf565b60405180910390f35b6107be613989565b005b6107da60048036038101906107d59190616e0b565b613b3a565b005b6107f660048036038101906107f19190616d41565b613cf2565b005b610800613e7d565b60405161080d91906177e6565b60405180910390f35b610830600480360381019061082b9190616d6a565b613ea1565b005b61083a613faa565b005b61085660048036038101906108519190616eac565b614150565b005b610860614380565b60405161086d9190617b35565b60405180910390f35b61087e6143a6565b60405161088b9190617fcf565b60405180910390f35b61089c6143ad565b6040516108a99190617fcf565b60405180910390f35b6108ba6143b3565b6040516108c79190617fcf565b60405180910390f35b6108ea60048036038101906108e59190617043565b61457d565b005b61090660048036038101906109019190616fb5565b6148fc565b6040516109139190617fcf565b60405180910390f35b61093660048036038101906109319190616fb5565b614920565b6040516109439190617fcf565b60405180910390f35b6109546149cb565b6040516109619190617965565b60405180910390f35b610984600480360381019061097f9190616d41565b6149de565b005b61098e614ab2565b005b610998614b9e565b6040516109a591906177e6565b60405180910390f35b6109c860048036038101906109c39190616fb5565b614bc4565b005b6109e460048036038101906109df9190616fb5565b614d5a565b6040516109f19190617fcf565b60405180910390f35b610a146004803603810190610a0f9190616e83565b614d78565b604051610a219190617965565b60405180910390f35b610a32614e44565b604051610a3f91906180b9565b60405180910390f35b610a50614e49565b604051610a5d9190617fcf565b60405180910390f35b610a806004803603810190610a7b9190616fb5565b614e50565b604051610a8d9190617fcf565b60405180910390f35b610a9e614e6e565b604051610aab9190617b50565b60405180910390f35b610ace6004803603810190610ac99190616fb5565b614e94565b604051610adb9190617fcf565b60405180910390f35b610aec614f3f565b604051610af99190617b1a565b60405180910390f35b610b1c6004803603810190610b179190616fb5565b614f65565b005b610b386004803603810190610b339190616fb5565b615093565b604051610b459190617fcf565b60405180910390f35b610b566150b7565b604051610b6391906177e6565b60405180910390f35b610b746150cf565b604051610b819190617b6b565b60405180910390f35b610b926150f5565b604051610b9f9190617fcf565b60405180910390f35b610bb06150fc565b604051610bbd9190617fcf565b60405180910390f35b610be06004803603810190610bdb9190616f8c565b615102565b005b600260009054906101000a900473ffffffffffffffffffffffffffffffffffffffff1673ffffffffffffffffffffffffffffffffffffffff163373ffffffffffffffffffffffffffffffffffffffff1614610c795733600360006101000a81548173ffffffffffffffffffffffffffffffffffffffff021916908373ffffffffffffffffffffffffffffffffffffffff1602179055505b60008054906101000a900473ffffffffffffffffffffffffffffffffffffffff1673ffffffffffffffffffffffffffffffffffffffff16600360009054906101000a900473ffffffffffffffffffffffffffffffffffffffff1673ffffffffffffffffffffffffffffffffffffffff1614610d29576040517f08c379a0000000000000000000000000000000000000000000000000000000008152600401610d2090617e81565b60405180910390fd5b62015180811015610d6f576040517f08c379a0000000000000000000000000000000000000000000000000000000008152600401610d6690617be1565b60405180910390fd5b624f1a00811115610db5576040517f08c379a0000000000000000000000000000000000000000000000000000000008152600401610dac90617c81565b60405180910390fd5b80602781905550610dc5816152fd565b50565b600260009054906101000a900473ffffffffffffffffffffffffffffffffffffffff1673ffffffffffffffffffffffffffffffffffffffff163373ffffffffffffffffffffffffffffffffffffffff1614610e5f5733600360006101000a81548173ffffffffffffffffffffffffffffffffffffffff021916908373ffffffffffffffffffffffffffffffffffffffff1602179055505b60008054906101000a900473ffffffffffffffffffffffffffffffffffffffff1673ffffffffffffffffffffffffffffffffffffffff16600360009054906101000a900473ffffffffffffffffffffffffffffffffffffffff1673ffffffffffffffffffffffffffffffffffffffff1614610f0f576040517f08c379a0000000000000000000000000000000000000000000000000000000008152600401610f0690617e81565b60405180910390fd5b80601060006101000a81548173ffffffffffffffffffffffffffffffffffffffff021916908373ffffffffffffffffffffffffffffffffffffffff16021790555050565b6000600a60009054906101000a900473ffffffffffffffffffffffffffffffffffffffff1673ffffffffffffffffffffffffffffffffffffffff1663bdc963d87f6c6173745f6665655f7769746864726177616c0000000000000000000000000084604051602001610fc69291906177ba565b604051602081830303815290604052805190602001206040518263ffffffff1660e01b8152600401610ff89190617980565b60206040518083038186803b15801561101057600080fd5b505afa158015611024573d6000803e3d6000fd5b505050506040513d601f19601f820116820180604052508101906110489190616fde565b9050919050565b600080821415611094576040517f08c379a000000000000000000000000000000000000000000000000000000000815260040161108b90617c21565b60405180910390fd5b600360ff1682106110da576040517f08c379a00000000000000000000000000000000000000000000000000000000081526004016110d190617c01565b60405180910390fd5b600060126001846110eb91906183ad565b60038110611122577f4e487b7100000000000000000000000000000000000000000000000000000000600052603260045260246000fd5b600702016001015414156111395760009050611266565b600061119c6001601260018661114f91906183ad565b60038110611186577f4e487b7100000000000000000000000000000000000000000000000000000000600052603260045260246000fd5b60070201600101546153d990919063ffffffff16565b9050600080601060009054906101000a900473ffffffffffffffffffffffffffffffffffffffff1673ffffffffffffffffffffffffffffffffffffffff1663d29c000a87856040518363ffffffff1660e01b81526004016111fe9291906178a5565b604080518083038186803b15801561121557600080fd5b505afa158015611229573d6000803e3d6000fd5b505050506040513d601f19601f8201168201806040525081019061124d9190617007565b80925081935050506112608383836153ef565b93505050505b92915050565b6000600260009054906101000a900473ffffffffffffffffffffffffffffffffffffffff1673ffffffffffffffffffffffffffffffffffffffff163373ffffffffffffffffffffffffffffffffffffffff16146113055733600360006101000a81548173ffffffffffffffffffffffffffffffffffffffff021916908373ffffffffffffffffffffffffffffffffffffffff1602179055505b601160009054906101000a900473ffffffffffffffffffffffffffffffffffffffff1673ffffffffffffffffffffffffffffffffffffffff1663e1270b6e84600360009054906101000a900473ffffffffffffffffffffffffffffffffffffffff166040518363ffffffff1660e01b815260040161138492919061781c565b60206040518083038186803b15801561139c57600080fd5b505afa1580156113b0573d6000803e3d6000fd5b505050506040513d601f19601f820116820180604052508101906113d49190616e5a565b611413576040517f08c379a000000000000000000000000000000000000000000000000000000000815260040161140a90617ec1565b60405180910390fd5b61141d838361562a565b905092915050565b600d5481565b600080600061143985611bfb565b90506000806000600190505b600360ff16811015611584576114df84826003811061148d577f4e487b7100000000000000000000000000000000000000000000000000000000600052603260045260246000fd5b60200201516000600281106114cb577f4e487b7100000000000000000000000000000000000000000000000000000000600052603260045260246000fd5b60200201518461579e90919063ffffffff16565b925061156f84826003811061151d577f4e487b7100000000000000000000000000000000000000000000000000000000600052603260045260246000fd5b602002015160016002811061155b577f4e487b7100000000000000000000000000000000000000000000000000000000600052603260045260246000fd5b60200201518361579e90919063ffffffff16565b9150808061157c906186f5565b915050611445565b50600760009054906101000a900473ffffffffffffffffffffffffffffffffffffffff1673ffffffffffffffffffffffffffffffffffffffff166339d66fc083886040518363ffffffff1660e01b81526004016115e2929190617f3a565b60206040518083038186803b1580156115fa57600080fd5b505afa15801561160e573d6000803e3d6000fd5b505050506040513d601f19601f820116820180604052508101906116329190616fde565b81945094505050509250929050565b60008054906101000a900473ffffffffffffffffffffffffffffffffffffffff1673ffffffffffffffffffffffffffffffffffffffff163373ffffffffffffffffffffffffffffffffffffffff16146116cf576040517f08c379a00000000000000000000000000000000000000000000000000000000081526004016116c690617d81565b60405180910390fd5b80600160006101000a81548173ffffffffffffffffffffffffffffffffffffffff021916908373ffffffffffffffffffffffffffffffffffffffff1602179055507f906a1c6bd7e3091ea86693dd029a831c19049ce77f1dce2ce0bab1cacbabce228160405161173f91906177e6565b60405180910390a150565b60045481565b60008054906101000a900473ffffffffffffffffffffffffffffffffffffffff1673ffffffffffffffffffffffffffffffffffffffff163373ffffffffffffffffffffffffffffffffffffffff16146117de576040517f08c379a00000000000000000000000000000000000000000000000000000000081526004016117d590617d81565b60405180910390fd5b600073ffffffffffffffffffffffffffffffffffffffff168173ffffffffffffffffffffffffffffffffffffffff16141561184e576040517f08c379a000000000000000000000000000000000000000000000000000000000815260040161184590617ce1565b60405180910390fd5b80600560016101000a81548173ffffffffffffffffffffffffffffffffffffffff021916908373ffffffffffffffffffffffffffffffffffffffff1602179055507fd5da63a0b864b315bc04128dedbc93888c8529ee6cf47ce664dc204339228c53816040516118be91906177e6565b60405180910390a150565b60275481565b600260009054906101000a900473ffffffffffffffffffffffffffffffffffffffff1673ffffffffffffffffffffffffffffffffffffffff163373ffffffffffffffffffffffffffffffffffffffff16146119665733600360006101000a81548173ffffffffffffffffffffffffffffffffffffffff021916908373ffffffffffffffffffffffffffffffffffffffff1602179055505b60008054906101000a900473ffffffffffffffffffffffffffffffffffffffff1673ffffffffffffffffffffffffffffffffffffffff16600360009054906101000a900473ffffffffffffffffffffffffffffffffffffffff1673ffffffffffffffffffffffffffffffffffffffff1614611a16576040517f08c379a0000000000000000000000000000000000000000000000000000000008152600401611a0d90617e81565b60405180910390fd5b6000811015611a5a576040517f08c379a0000000000000000000000000000000000000000000000000000000008152600401611a5190617cc1565b60405180910390fd5b606473__$b8d33eeb36ac0d1e81cd70156e0043e778$__63907af6c06040518163ffffffff1660e01b815260040160206040518083038186803b158015611aa057600080fd5b505af4158015611ab4573d6000803e3d6000fd5b505050506040513d601f19601f82011682018060405250810190611ad89190616fde565b82611ae39190618353565b611aed91906181b1565b60288190555050565b600f60009054906101000a900473ffffffffffffffffffffffffffffffffffffffff1681565b60008054906101000a900473ffffffffffffffffffffffffffffffffffffffff1673ffffffffffffffffffffffffffffffffffffffff163373ffffffffffffffffffffffffffffffffffffffff1614611baa576040517f08c379a0000000000000000000000000000000000000000000000000000000008152600401611ba190617d81565b60405180910390fd5b60006004819055506000600560006101000a81548160ff0219169083151502179055507f6adcc7125002935e0aa31697538ebbd65cfddf20431eb6ecdcfc3e238bfd082c60405160405180910390a1565b611c03616c0b565b600080601060009054906101000a900473ffffffffffffffffffffffffffffffffffffffff1673ffffffffffffffffffffffffffffffffffffffff1663b326f84e8560006040518363ffffffff1660e01b8152600401611c6492919061787c565b604080518083038186803b158015611c7b57600080fd5b505afa158015611c8f573d6000803e3d6000fd5b505050506040513d601f19601f82011682018060405250810190611cb39190617007565b8092508193505050611cc3616c0b565b600082148015611cd35750600083145b15611ce3578093505050506121e1565b6000600760009054906101000a900473ffffffffffffffffffffffffffffffffffffffff1673ffffffffffffffffffffffffffffffffffffffff1663403dca556040518163ffffffff1660e01b8152600401611d3e90617f21565b60206040518083038186803b158015611d5657600080fd5b505afa158015611d6a573d6000803e3d6000fd5b505050506040513d601f19601f82011682018060405250810190611d8e9190616fde565b1415611d9f578093505050506121e1565b600080611dae600086866157b4565b80925081935050508186600060038110611df1577f4e487b7100000000000000000000000000000000000000000000000000000000600052603260045260246000fd5b6020020151600060028110611e2f577f4e487b7100000000000000000000000000000000000000000000000000000000600052603260045260246000fd5b6020020181815250508086600060038110611e73577f4e487b7100000000000000000000000000000000000000000000000000000000600052603260045260246000fd5b6020020151600160028110611eb1577f4e487b7100000000000000000000000000000000000000000000000000000000600052603260045260246000fd5b602002018181525050600060016003611eca91906183e1565b60ff1690505b60008111156121da576000600182611ee891906183ad565b9050600060128260038110611f26577f4e487b7100000000000000000000000000000000000000000000000000000000600052603260045260246000fd5b600702016040518060e0016040529081600082015481526020016001820154815260200160028201548152602001600382015481526020016004820154815260200160058201548152602001600682015481525050905060008160200151118015611fd9575060128360038110611fc6577f4e487b7100000000000000000000000000000000000000000000000000000000600052603260045260246000fd5b6007020160000154611fd78b610f53565b105b156121c5576000611ff8600183602001516153d990919063ffffffff16565b9050601060009054906101000a900473ffffffffffffffffffffffffffffffffffffffff1673ffffffffffffffffffffffffffffffffffffffff1663d29c000a8c836040518363ffffffff1660e01b81526004016120579291906178a5565b604080518083038186803b15801561206e57600080fd5b505afa158015612082573d6000803e3d6000fd5b505050506040513d601f19601f820116820180604052508101906120a69190617007565b809950819a5050506120b9848a8a6157b4565b8096508197505050858a85600381106120fb577f4e487b7100000000000000000000000000000000000000000000000000000000600052603260045260246000fd5b6020020151600060028110612139577f4e487b7100000000000000000000000000000000000000000000000000000000600052603260045260246000fd5b602002018181525050848a856003811061217c577f4e487b7100000000000000000000000000000000000000000000000000000000600052603260045260246000fd5b60200201516001600281106121ba577f4e487b7100000000000000000000000000000000000000000000000000000000600052603260045260246000fd5b602002018181525050505b505080806121d2906186cb565b915050611ed0565b5050505050505b919050565b600b5481565b600260009054906101000a900473ffffffffffffffffffffffffffffffffffffffff1673ffffffffffffffffffffffffffffffffffffffff163373ffffffffffffffffffffffffffffffffffffffff16146122835733600360006101000a81548173ffffffffffffffffffffffffffffffffffffffff021916908373ffffffffffffffffffffffffffffffffffffffff1602179055505b600f60009054906101000a900473ffffffffffffffffffffffffffffffffffffffff1673ffffffffffffffffffffffffffffffffffffffff163373ffffffffffffffffffffffffffffffffffffffff1614612313576040517f08c379a000000000000000000000000000000000000000000000000000000000815260040161230a90617e21565b60405180910390fd5b6027544261232191906183ad565b601260006003811061235c577f4e487b7100000000000000000000000000000000000000000000000000000000600052603260045260246000fd5b600702016002015411156123a5576040517f08c379a000000000000000000000000000000000000000000000000000000000815260040161239c90617d21565b60405180910390fd5b60006012600260036123b791906183e1565b60ff16600381106123f1577f4e487b7100000000000000000000000000000000000000000000000000000000600052603260045260246000fd5b600702016040518060e00160405290816000820154815260200160018201548152602001600282015481526020016003820154815260200160048201548152602001600582015481526020016006820154815250509050600060126001600361245a91906183e1565b60ff1660038110612494577f4e487b7100000000000000000000000000000000000000000000000000000000600052603260045260246000fd5b600702016040518060e0016040529081600082015481526020016001820154815260200160028201548152602001600382015481526020016004820154815260200160058201548152602001600682015481525050905061251c826060015161250e836080015184606001516153d990919063ffffffff16565b61579e90919063ffffffff16565b60126002600361252c91906183e1565b60ff1660038110612566577f4e487b7100000000000000000000000000000000000000000000000000000000600052603260045260246000fd5b60070201600301819055506125a28260a001516125948360c001518460a001516153d990919063ffffffff16565b61579e90919063ffffffff16565b6012600260036125b291906183e1565b60ff16600381106125ec577f4e487b7100000000000000000000000000000000000000000000000000000000600052603260045260246000fd5b600702016005018190555060006002600361260791906183e1565b60ff1690505b600360ff168110156129ef576000600182612628919061815b565b905060128260038110612664577f4e487b7100000000000000000000000000000000000000000000000000000000600052603260045260246000fd5b6007020160000154601282600381106126a6577f4e487b7100000000000000000000000000000000000000000000000000000000600052603260045260246000fd5b6007020160000181905550601282600381106126eb577f4e487b7100000000000000000000000000000000000000000000000000000000600052603260045260246000fd5b60070201600101546012826003811061272d577f4e487b7100000000000000000000000000000000000000000000000000000000600052603260045260246000fd5b600702016001018190555060128260038110612772577f4e487b7100000000000000000000000000000000000000000000000000000000600052603260045260246000fd5b6007020160020154601282600381106127b4577f4e487b7100000000000000000000000000000000000000000000000000000000600052603260045260246000fd5b6007020160020181905550601282600381106127f9577f4e487b7100000000000000000000000000000000000000000000000000000000600052603260045260246000fd5b60070201600301546012826003811061283b577f4e487b7100000000000000000000000000000000000000000000000000000000600052603260045260246000fd5b600702016003018190555060128260038110612880577f4e487b7100000000000000000000000000000000000000000000000000000000600052603260045260246000fd5b6007020160040154601282600381106128c2577f4e487b7100000000000000000000000000000000000000000000000000000000600052603260045260246000fd5b600702016004018190555060128260038110612907577f4e487b7100000000000000000000000000000000000000000000000000000000600052603260045260246000fd5b600702016005015460128260038110612949577f4e487b7100000000000000000000000000000000000000000000000000000000600052603260045260246000fd5b60070201600501819055506012826003811061298e577f4e487b7100000000000000000000000000000000000000000000000000000000600052603260045260246000fd5b6007020160060154601282600381106129d0577f4e487b7100000000000000000000000000000000000000000000000000000000600052603260045260246000fd5b60070201600601819055505080806129e7906186cb565b91505061260d565b506012600060038110612a2b577f4e487b7100000000000000000000000000000000000000000000000000000000600052603260045260246000fd5b600702016000808201600090556001820160009055600282016000905560038201600090556004820160009055600582016000905560068201600090555050612ac060016012600160038110612aaa577f4e487b7100000000000000000000000000000000000000000000000000000000600052603260045260246000fd5b600702016000015461579e90919063ffffffff16565b6012600060038110612afb577f4e487b7100000000000000000000000000000000000000000000000000000000600052603260045260246000fd5b6007020160000181905550600860009054906101000a900473ffffffffffffffffffffffffffffffffffffffff1673ffffffffffffffffffffffffffffffffffffffff1663cd92eba96040518163ffffffff1660e01b815260040160206040518083038186803b158015612b6e57600080fd5b505afa158015612b82573d6000803e3d6000fd5b505050506040513d601f19601f82011682018060405250810190612ba69190616fde565b6012600060038110612be1577f4e487b7100000000000000000000000000000000000000000000000000000000600052603260045260246000fd5b6007020160010181905550426012600060038110612c28577f4e487b7100000000000000000000000000000000000000000000000000000000600052603260045260246000fd5b6007020160020181905550612c7e6012600160038110612c71577f4e487b7100000000000000000000000000000000000000000000000000000000600052603260045260246000fd5b6007020160000154615920565b5050565b60128160038110612c9257600080fd5b600702016000915090508060000154908060010154908060020154908060030154908060040154908060050154908060060154905087565b600260009054906101000a900473ffffffffffffffffffffffffffffffffffffffff1673ffffffffffffffffffffffffffffffffffffffff163373ffffffffffffffffffffffffffffffffffffffff1614612d615733600360006101000a81548173ffffffffffffffffffffffffffffffffffffffff021916908373ffffffffffffffffffffffffffffffffffffffff1602179055505b600073ffffffffffffffffffffffffffffffffffffffff16601160009054906101000a900473ffffffffffffffffffffffffffffffffffffffff1673ffffffffffffffffffffffffffffffffffffffff161415612df3576040517f08c379a0000000000000000000000000000000000000000000000000000000008152600401612dea90617f01565b60405180910390fd5b600073ffffffffffffffffffffffffffffffffffffffff168173ffffffffffffffffffffffffffffffffffffffff161415612e63576040517f08c379a0000000000000000000000000000000000000000000000000000000008152600401612e5a90617c41565b60405180910390fd5b601160009054906101000a900473ffffffffffffffffffffffffffffffffffffffff1673ffffffffffffffffffffffffffffffffffffffff1663b3c12354600360009054906101000a900473ffffffffffffffffffffffffffffffffffffffff16836040518363ffffffff1660e01b8152600401612ee292919061781c565b600060405180830381600087803b158015612efc57600080fd5b505af1158015612f10573d6000803e3d6000fd5b5050505050565b600a60009054906101000a900473ffffffffffffffffffffffffffffffffffffffff1681565b600160009054906101000a900473ffffffffffffffffffffffffffffffffffffffff1681565b600260009054906101000a900473ffffffffffffffffffffffffffffffffffffffff1673ffffffffffffffffffffffffffffffffffffffff163373ffffffffffffffffffffffffffffffffffffffff1614612ffa5733600360006101000a81548173ffffffffffffffffffffffffffffffffffffffff021916908373ffffffffffffffffffffffffffffffffffffffff1602179055505b60008054906101000a900473ffffffffffffffffffffffffffffffffffffffff1673ffffffffffffffffffffffffffffffffffffffff16600360009054906101000a900473ffffffffffffffffffffffffffffffffffffffff1673ffffffffffffffffffffffffffffffffffffffff16146130aa576040517f08c379a00000000000000000000000000000000000000000000000000000000081526004016130a190617e81565b60405180910390fd5b80600d8190555050565b600080600760009054906101000a900473ffffffffffffffffffffffffffffffffffffffff1673ffffffffffffffffffffffffffffffffffffffff1663a311c7c2846040518263ffffffff1660e01b815260040161311291906177e6565b60206040518083038186803b15801561312a57600080fd5b505afa15801561313e573d6000803e3d6000fd5b505050506040513d601f19601f820116820180604052508101906131629190616fde565b90506000600760009054906101000a900473ffffffffffffffffffffffffffffffffffffffff1673ffffffffffffffffffffffffffffffffffffffff1663dbd4a4226040518163ffffffff1660e01b815260040160206040518083038186803b1580156131ce57600080fd5b505afa1580156131e2573d6000803e3d6000fd5b505050506040513d601f19601f820116820180604052508101906132069190616f63565b73ffffffffffffffffffffffffffffffffffffffff1663b410a0346040518163ffffffff1660e01b815260040160206040518083038186803b15801561324b57600080fd5b505afa15801561325f573d6000803e3d6000fd5b505050506040513d601f19601f820116820180604052508101906132839190616fde565b9050808210156132985760019250505061335a565b600061333c61332d60285473__$b8d33eeb36ac0d1e81cd70156e0043e778$__63907af6c06040518163ffffffff1660e01b815260040160206040518083038186803b1580156132e757600080fd5b505af41580156132fb573d6000803e3d6000fd5b505050506040513d601f19601f8201168201806040525081019061331f9190616fde565b61579e90919063ffffffff16565b836159fc90919063ffffffff16565b905080831115613352576000935050505061335a565b600193505050505b919050565b600260009054906101000a900473ffffffffffffffffffffffffffffffffffffffff1673ffffffffffffffffffffffffffffffffffffffff163373ffffffffffffffffffffffffffffffffffffffff16146133f65733600360006101000a81548173ffffffffffffffffffffffffffffffffffffffff021916908373ffffffffffffffffffffffffffffffffffffffff1602179055505b60008054906101000a900473ffffffffffffffffffffffffffffffffffffffff1673ffffffffffffffffffffffffffffffffffffffff16600360009054906101000a900473ffffffffffffffffffffffffffffffffffffffff1673ffffffffffffffffffffffffffffffffffffffff16146134a6576040517f08c379a000000000000000000000000000000000000000000000000000000000815260040161349d90617e81565b60405180910390fd5b80601160006101000a81548173ffffffffffffffffffffffffffffffffffffffff021916908373ffffffffffffffffffffffffffffffffffffffff16021790555050565b601160009054906101000a900473ffffffffffffffffffffffffffffffffffffffff1681565b600080600090506000600190505b600360ff168110156135e95761357e60128260038110613567577f4e487b7100000000000000000000000000000000000000000000000000000000600052603260045260246000fd5b60070201600301548361579e90919063ffffffff16565b91506135d4601282600381106135bd577f4e487b7100000000000000000000000000000000000000000000000000000000600052603260045260246000fd5b6007020160040154836153d990919063ffffffff16565b915080806135e1906186f5565b91505061351e565b50600760009054906101000a900473ffffffffffffffffffffffffffffffffffffffff1673ffffffffffffffffffffffffffffffffffffffff166339d66fc082856040518363ffffffff1660e01b8152600401613647929190617f3a565b60206040518083038186803b15801561365f57600080fd5b505afa158015613673573d6000803e3d6000fd5b505050506040513d601f19601f820116820180604052508101906136979190616fde565b915050919050565b600260009054906101000a900473ffffffffffffffffffffffffffffffffffffffff1673ffffffffffffffffffffffffffffffffffffffff163373ffffffffffffffffffffffffffffffffffffffff16146137365733600360006101000a81548173ffffffffffffffffffffffffffffffffffffffff021916908373ffffffffffffffffffffffffffffffffffffffff1602179055505b600073ffffffffffffffffffffffffffffffffffffffff16601160009054906101000a900473ffffffffffffffffffffffffffffffffffffffff1673ffffffffffffffffffffffffffffffffffffffff1614156137c8576040517f08c379a00000000000000000000000000000000000000000000000000000000081526004016137bf90617f01565b60405180910390fd5b601160009054906101000a900473ffffffffffffffffffffffffffffffffffffffff1673ffffffffffffffffffffffffffffffffffffffff16635f0736a1600360009054906101000a900473ffffffffffffffffffffffffffffffffffffffff16836040518363ffffffff1660e01b815260040161384792919061781c565b600060405180830381600087803b15801561386157600080fd5b505af1158015613875573d6000803e3d6000fd5b5050505050565b600080600090506000600190505b600360ff16811015613955576138ea601282600381106138d3577f4e487b7100000000000000000000000000000000000000000000000000000000600052603260045260246000fd5b60070201600501548361579e90919063ffffffff16565b915061394060128260038110613929577f4e487b7100000000000000000000000000000000000000000000000000000000600052603260045260246000fd5b6007020160060154836153d990919063ffffffff16565b9150808061394d906186f5565b91505061388a565b508091505090565b600760009054906101000a900473ffffffffffffffffffffffffffffffffffffffff1681565b600c5481565b600160009054906101000a900473ffffffffffffffffffffffffffffffffffffffff1673ffffffffffffffffffffffffffffffffffffffff163373ffffffffffffffffffffffffffffffffffffffff1614613a19576040517f08c379a0000000000000000000000000000000000000000000000000000000008152600401613a1090617ba1565b60405180910390fd5b7fb532073b38c83145e3e5135377a08bf9aab55bc0fd7c1179cd4fb995d2a5159c60008054906101000a900473ffffffffffffffffffffffffffffffffffffffff16600160009054906101000a900473ffffffffffffffffffffffffffffffffffffffff16604051613a8c92919061781c565b60405180910390a1600160009054906101000a900473ffffffffffffffffffffffffffffffffffffffff166000806101000a81548173ffffffffffffffffffffffffffffffffffffffff021916908373ffffffffffffffffffffffffffffffffffffffff1602179055506000600160006101000a81548173ffffffffffffffffffffffffffffffffffffffff021916908373ffffffffffffffffffffffffffffffffffffffff160217905550565b600760009054906101000a900473ffffffffffffffffffffffffffffffffffffffff1673ffffffffffffffffffffffffffffffffffffffff163373ffffffffffffffffffffffffffffffffffffffff1614613bca576040517f08c379a0000000000000000000000000000000000000000000000000000000008152600401613bc190617de1565b60405180910390fd5b601060009054906101000a900473ffffffffffffffffffffffffffffffffffffffff1673ffffffffffffffffffffffffffffffffffffffff166394e1a4488484846012600060038110613c46577f4e487b7100000000000000000000000000000000000000000000000000000000600052603260045260246000fd5b60070201600101546040518563ffffffff1660e01b8152600401613c6d9493929190617905565b600060405180830381600087803b158015613c8757600080fd5b505af1158015613c9b573d6000803e3d6000fd5b50505050613ced8383836012600060038110613ce0577f4e487b7100000000000000000000000000000000000000000000000000000000600052603260045260246000fd5b6007020160010154615a34565b505050565b600260009054906101000a900473ffffffffffffffffffffffffffffffffffffffff1673ffffffffffffffffffffffffffffffffffffffff163373ffffffffffffffffffffffffffffffffffffffff1614613d895733600360006101000a81548173ffffffffffffffffffffffffffffffffffffffff021916908373ffffffffffffffffffffffffffffffffffffffff1602179055505b60008054906101000a900473ffffffffffffffffffffffffffffffffffffffff1673ffffffffffffffffffffffffffffffffffffffff16600360009054906101000a900473ffffffffffffffffffffffffffffffffffffffff1673ffffffffffffffffffffffffffffffffffffffff1614613e39576040517f08c379a0000000000000000000000000000000000000000000000000000000008152600401613e3090617e81565b60405180910390fd5b80600f60006101000a81548173ffffffffffffffffffffffffffffffffffffffff021916908373ffffffffffffffffffffffffffffffffffffffff16021790555050565b60008054906101000a900473ffffffffffffffffffffffffffffffffffffffff1681565b60008054906101000a900473ffffffffffffffffffffffffffffffffffffffff1673ffffffffffffffffffffffffffffffffffffffff163373ffffffffffffffffffffffffffffffffffffffff1614613f2f576040517f08c379a0000000000000000000000000000000000000000000000000000000008152600401613f2690617d81565b60405180910390fd5b80600260006101000a81548173ffffffffffffffffffffffffffffffffffffffff021916908373ffffffffffffffffffffffffffffffffffffffff1602179055507ffc80377ca9c49cc11ae6982f390a42db976d5530af7c43889264b13fbbd7c57e81604051613f9f9190617801565b60405180910390a150565b60008054906101000a900473ffffffffffffffffffffffffffffffffffffffff1673ffffffffffffffffffffffffffffffffffffffff163373ffffffffffffffffffffffffffffffffffffffff1614614038576040517f08c379a000000000000000000000000000000000000000000000000000000000815260040161402f90617d81565b60405180910390fd5b600560009054906101000a900460ff16614087576040517f08c379a000000000000000000000000000000000000000000000000000000000815260040161407e90617e61565b60405180910390fd5b426224ea00600454614099919061815b565b106140d9576040517f08c379a00000000000000000000000000000000000000000000000000000000081526004016140d090617f6f565b60405180910390fd5b6000600560019054906101000a900473ffffffffffffffffffffffffffffffffffffffff1690507f8a09e1677ced846cb537dc2b172043bd05a1a81ad7e0033a7ef8ba762df990b78160405161412f91906177e6565b60405180910390a18073ffffffffffffffffffffffffffffffffffffffff16ff5b600760009054906101000a900473ffffffffffffffffffffffffffffffffffffffff1673ffffffffffffffffffffffffffffffffffffffff163373ffffffffffffffffffffffffffffffffffffffff16146141e0576040517f08c379a00000000000000000000000000000000000000000000000000000000081526004016141d790617de1565b60405180910390fd5b60007f5844520000000000000000000000000000000000000000000000000000000000837bffffffffffffffffffffffffffffffffffffffffffffffffffffffff1916146142dc57600760009054906101000a900473ffffffffffffffffffffffffffffffffffffffff1673ffffffffffffffffffffffffffffffffffffffff166339d66fc084846040518363ffffffff1660e01b81526004016142859291906179df565b60206040518083038186803b15801561429d57600080fd5b505afa1580156142b1573d6000803e3d6000fd5b505050506040513d601f19601f820116820180604052508101906142d59190616fde565b90506142e0565b8190505b61433581601260006003811061431f577f4e487b7100000000000000000000000000000000000000000000000000000000600052603260045260246000fd5b600702016003015461579e90919063ffffffff16565b6012600060038110614370577f4e487b7100000000000000000000000000000000000000000000000000000000600052603260045260246000fd5b6007020160030181905550505050565b600960009054906101000a900473ffffffffffffffffffffffffffffffffffffffff1681565b6224ea0081565b60285481565b600080600760009054906101000a900473ffffffffffffffffffffffffffffffffffffffff1673ffffffffffffffffffffffffffffffffffffffff1663dbd4a4226040518163ffffffff1660e01b815260040160206040518083038186803b15801561441e57600080fd5b505afa158015614432573d6000803e3d6000fd5b505050506040513d601f19601f820116820180604052508101906144569190616f63565b73ffffffffffffffffffffffffffffffffffffffff1663b410a0346040518163ffffffff1660e01b815260040160206040518083038186803b15801561449b57600080fd5b505afa1580156144af573d6000803e3d6000fd5b505050506040513d601f19601f820116820180604052508101906144d39190616fde565b905061457761456860285473__$b8d33eeb36ac0d1e81cd70156e0043e778$__63907af6c06040518163ffffffff1660e01b815260040160206040518083038186803b15801561452257600080fd5b505af4158015614536573d6000803e3d6000fd5b505050506040513d601f19601f8201168201806040525081019061455a9190616fde565b61579e90919063ffffffff16565b826159fc90919063ffffffff16565b91505090565b600260009054906101000a900473ffffffffffffffffffffffffffffffffffffffff1673ffffffffffffffffffffffffffffffffffffffff163373ffffffffffffffffffffffffffffffffffffffff16146146145733600360006101000a81548173ffffffffffffffffffffffffffffffffffffffff021916908373ffffffffffffffffffffffffffffffffffffffff1602179055505b60008054906101000a900473ffffffffffffffffffffffffffffffffffffffff1673ffffffffffffffffffffffffffffffffffffffff16600360009054906101000a900473ffffffffffffffffffffffffffffffffffffffff1673ffffffffffffffffffffffffffffffffffffffff16146146c4576040517f08c379a00000000000000000000000000000000000000000000000000000000081526004016146bb90617e81565b60405180910390fd5b6006544210614708576040517f08c379a00000000000000000000000000000000000000000000000000000000081526004016146ff90617e41565b60405180910390fd5b8660128960038110614743577f4e487b7100000000000000000000000000000000000000000000000000000000600052603260045260246000fd5b60070201600001819055508560128960038110614789577f4e487b7100000000000000000000000000000000000000000000000000000000600052603260045260246000fd5b600702016001018190555084601289600381106147cf577f4e487b7100000000000000000000000000000000000000000000000000000000600052603260045260246000fd5b60070201600201819055508360128960038110614815577f4e487b7100000000000000000000000000000000000000000000000000000000600052603260045260246000fd5b6007020160030181905550826012896003811061485b577f4e487b7100000000000000000000000000000000000000000000000000000000600052603260045260246000fd5b600702016004018190555081601289600381106148a1577f4e487b7100000000000000000000000000000000000000000000000000000000600052603260045260246000fd5b600702016005018190555080601289600381106148e7577f4e487b7100000000000000000000000000000000000000000000000000000000600052603260045260246000fd5b60070201600601819055505050505050505050565b600061491961490a83614d5a565b8361579e90919063ffffffff16565b9050919050565b60006149c46149b573__$b8d33eeb36ac0d1e81cd70156e0043e778$__63907af6c06040518163ffffffff1660e01b815260040160206040518083038186803b15801561496c57600080fd5b505af4158015614980573d6000803e3d6000fd5b505050506040513d601f19601f820116820180604052508101906149a49190616fde565b600b5461579e90919063ffffffff16565b83615b1e90919063ffffffff16565b9050919050565b600560009054906101000a900460ff1681565b600260009054906101000a900473ffffffffffffffffffffffffffffffffffffffff1673ffffffffffffffffffffffffffffffffffffffff163373ffffffffffffffffffffffffffffffffffffffff1614614a6e576040517f08c379a0000000000000000000000000000000000000000000000000000000008152600401614a6590617c61565b60405180910390fd5b80600360006101000a81548173ffffffffffffffffffffffffffffffffffffffff021916908373ffffffffffffffffffffffffffffffffffffffff16021790555050565b60008054906101000a900473ffffffffffffffffffffffffffffffffffffffff1673ffffffffffffffffffffffffffffffffffffffff163373ffffffffffffffffffffffffffffffffffffffff1614614b40576040517f08c379a0000000000000000000000000000000000000000000000000000000008152600401614b3790617d81565b60405180910390fd5b426004819055506001600560006101000a81548160ff0219169083151502179055507fcbd94ca75b8dc45c9d80c77e851670e78843c0d75180cb81db3e2158228fa9a66224ea00604051614b949190617fcf565b60405180910390a1565b600560019054906101000a900473ffffffffffffffffffffffffffffffffffffffff1681565b600260009054906101000a900473ffffffffffffffffffffffffffffffffffffffff1673ffffffffffffffffffffffffffffffffffffffff163373ffffffffffffffffffffffffffffffffffffffff1614614c5b5733600360006101000a81548173ffffffffffffffffffffffffffffffffffffffff021916908373ffffffffffffffffffffffffffffffffffffffff1602179055505b60008054906101000a900473ffffffffffffffffffffffffffffffffffffffff1673ffffffffffffffffffffffffffffffffffffffff16600360009054906101000a900473ffffffffffffffffffffffffffffffffffffffff1673ffffffffffffffffffffffffffffffffffffffff1614614d0b576040517f08c379a0000000000000000000000000000000000000000000000000000000008152600401614d0290617e81565b60405180910390fd5b600c54811115614d50576040517f08c379a0000000000000000000000000000000000000000000000000000000008152600401614d4790617d61565b60405180910390fd5b80600b8190555050565b6000614d71600d54836159fc90919063ffffffff16565b9050919050565b6000600260009054906101000a900473ffffffffffffffffffffffffffffffffffffffff1673ffffffffffffffffffffffffffffffffffffffff163373ffffffffffffffffffffffffffffffffffffffff1614614e115733600360006101000a81548173ffffffffffffffffffffffffffffffffffffffff021916908373ffffffffffffffffffffffffffffffffffffffff1602179055505b614e3d600360009054906101000a900473ffffffffffffffffffffffffffffffffffffffff168361562a565b9050919050565b600381565b6201518081565b6000614e67600b54836159fc90919063ffffffff16565b9050919050565b600860009054906101000a900473ffffffffffffffffffffffffffffffffffffffff1681565b6000614f38614f29600d5473__$b8d33eeb36ac0d1e81cd70156e0043e778$__63907af6c06040518163ffffffff1660e01b815260040160206040518083038186803b158015614ee357600080fd5b505af4158015614ef7573d6000803e3d6000fd5b505050506040513d601f19601f82011682018060405250810190614f1b9190616fde565b6153d990919063ffffffff16565b836159fc90919063ffffffff16565b9050919050565b601060009054906101000a900473ffffffffffffffffffffffffffffffffffffffff1681565b600760009054906101000a900473ffffffffffffffffffffffffffffffffffffffff1673ffffffffffffffffffffffffffffffffffffffff163373ffffffffffffffffffffffffffffffffffffffff1614614ff5576040517f08c379a0000000000000000000000000000000000000000000000000000000008152600401614fec90617de1565b60405180910390fd5b61504a816012600060038110615034577f4e487b7100000000000000000000000000000000000000000000000000000000600052603260045260246000fd5b600702016005015461579e90919063ffffffff16565b6012600060038110615085577f4e487b7100000000000000000000000000000000000000000000000000000000600052603260045260246000fd5b600702016005018190555050565b60006150b06150a183614e50565b8361579e90919063ffffffff16565b9050919050565b73feefeefeefeefeefeefeefeefeefeefeefeefeef81565b600260009054906101000a900473ffffffffffffffffffffffffffffffffffffffff1681565b624f1a0081565b600e5481565b600260009054906101000a900473ffffffffffffffffffffffffffffffffffffffff1673ffffffffffffffffffffffffffffffffffffffff163373ffffffffffffffffffffffffffffffffffffffff16146151995733600360006101000a81548173ffffffffffffffffffffffffffffffffffffffff021916908373ffffffffffffffffffffffffffffffffffffffff1602179055505b60008054906101000a900473ffffffffffffffffffffffffffffffffffffffff1673ffffffffffffffffffffffffffffffffffffffff16600360009054906101000a900473ffffffffffffffffffffffffffffffffffffffff1673ffffffffffffffffffffffffffffffffffffffff1614615249576040517f08c379a000000000000000000000000000000000000000000000000000000000815260040161524090617e81565b60405180910390fd5b600073ffffffffffffffffffffffffffffffffffffffff168173ffffffffffffffffffffffffffffffffffffffff1614156152b9576040517f08c379a00000000000000000000000000000000000000000000000000000000081526004016152b090617bc1565b60405180910390fd5b80600760006101000a81548173ffffffffffffffffffffffffffffffffffffffff021916908373ffffffffffffffffffffffffffffffffffffffff16021790555050565b600260009054906101000a900473ffffffffffffffffffffffffffffffffffffffff1673ffffffffffffffffffffffffffffffffffffffff1663907dff978260405160200161534c9190617fcf565b60405160208183030381529060405260017f791bd58dd9719b5eb5ccdd6ec4d5c459b0ab8efcf59b723cf477693c0889eacd60008060006040518763ffffffff1660e01b81526004016153a496959493929190617a14565b600060405180830381600087803b1580156153be57600080fd5b505af11580156153d2573d6000803e3d6000fd5b5050505050565b600081836153e791906183ad565b905092915050565b6000600860009054906101000a900473ffffffffffffffffffffffffffffffffffffffff1673ffffffffffffffffffffffffffffffffffffffff1663cd92eba96040518163ffffffff1660e01b815260040160206040518083038186803b15801561545957600080fd5b505afa15801561546d573d6000803e3d6000fd5b505050506040513d601f19601f820116820180604052508101906154919190616fde565b8411156154a15760009050615623565b600061561c8461560e600860009054906101000a900473ffffffffffffffffffffffffffffffffffffffff1673ffffffffffffffffffffffffffffffffffffffff166308d95cd5876040518263ffffffff1660e01b81526004016155059190617fcf565b60206040518083038186803b15801561551d57600080fd5b505afa158015615531573d6000803e3d6000fd5b505050506040513d601f19601f820116820180604052508101906155559190616fde565b600860009054906101000a900473ffffffffffffffffffffffffffffffffffffffff1673ffffffffffffffffffffffffffffffffffffffff166308d95cd58a6040518263ffffffff1660e01b81526004016155b09190617fcf565b60206040518083038186803b1580156155c857600080fd5b505afa1580156155dc573d6000803e3d6000fd5b505050506040513d601f19601f820116820180604052508101906156009190616fde565b615b5d90919063ffffffff16565b615b8290919063ffffffff16565b9050809150505b9392505050565b600080600080600061563b876130b4565b61567a576040517f08c379a000000000000000000000000000000000000000000000000000000000815260040161567190617da1565b60405180910390fd5b6156a4877f584452000000000000000000000000000000000000000000000000000000000061142b565b809250819350505060008211806156bb5750600081115b6156fa576040517f08c379a00000000000000000000000000000000000000000000000000000000081526004016156f190617ca1565b60405180910390fd5b615746876012600160038110615739577f4e487b7100000000000000000000000000000000000000000000000000000000600052603260045260246000fd5b6007020160000154615ba7565b60008211156157665761575882615c82565b9250615765878488615e75565b5b60008111156157855761577881616481565b93506157848785616674565b5b61579087848661698d565b600194505050505092915050565b600081836157ac919061815b565b905092915050565b60008060008414156157cc5760008091509150615918565b6000849050600086111561584e57600061583d6001601260018a6157f091906183ad565b60038110615827577f4e487b7100000000000000000000000000000000000000000000000000000000600052603260045260246000fd5b60070201600101546153d990919063ffffffff16565b905061584a8187876153ef565b9150505b60006158a4826012896003811061588e577f4e487b7100000000000000000000000000000000000000000000000000000000600052603260045260246000fd5b60070201600301546159fc90919063ffffffff16565b905060006158fc8360128a600381106158e6577f4e487b7100000000000000000000000000000000000000000000000000000000600052603260045260246000fd5b60070201600501546159fc90919063ffffffff16565b905061590782616a6f565b61591082616a6f565b945094505050505b935093915050565b600260009054906101000a900473ffffffffffffffffffffffffffffffffffffffff1673ffffffffffffffffffffffffffffffffffffffff1663907dff978260405160200161596f9190617fcf565b60405160208183030381529060405260017fe2ca356e01eb0a4bb7caaf07d472b7d687db156713ffc3111c758e9fe0a17ea760008060006040518763ffffffff1660e01b81526004016159c796959493929190617a14565b600060405180830381600087803b1580156159e157600080fd5b505af11580156159f5573d6000803e3d6000fd5b5050505050565b6000601260ff16600a615a0f9190618235565b615a228385616ae190919063ffffffff16565b615a2c91906181b1565b905092915050565b600260009054906101000a900473ffffffffffffffffffffffffffffffffffffffff1673ffffffffffffffffffffffffffffffffffffffff1663907dff97848484604051602001615a8793929190618013565b60405160208183030381529060405260027f28dcdf40e6b6196065d54760038ab1a8c0c1d9cfa58a99e6b0cb6022f7e24775615ac289616af7565b6000806040518763ffffffff1660e01b8152600401615ae696959493929190617a7c565b600060405180830381600087803b158015615b0057600080fd5b505af1158015615b14573d6000803e3d6000fd5b5050505050505050565b6000615b5582615b47601260ff16600a615b389190618235565b86616ae190919063ffffffff16565b616b1a90919063ffffffff16565b905092915050565b6000615b7a8383601b60ff16600a615b759190618235565b616b30565b905092915050565b6000615b9f8383601b60ff16600a615b9a9190618235565b616ba1565b905092915050565b600a60009054906101000a900473ffffffffffffffffffffffffffffffffffffffff1673ffffffffffffffffffffffffffffffffffffffff16633562fd207f6c6173745f6665655f7769746864726177616c0000000000000000000000000084604051602001615c189291906177ba565b60405160208183030381529060405280519060200120836040518363ffffffff1660e01b8152600401615c4c92919061799b565b600060405180830381600087803b158015615c6657600080fd5b505af1158015615c7a573d6000803e3d6000fd5b505050505050565b60008082905060008060016003615c9991906183e1565b60ff1690505b600360ff16811015615e69576000615d4260128360038110615cea577f4e487b7100000000000000000000000000000000000000000000000000000000600052603260045260246000fd5b600702016004015460128460038110615d2c577f4e487b7100000000000000000000000000000000000000000000000000000000600052603260045260246000fd5b60070201600301546153d990919063ffffffff16565b90506000811115615e55576000848210615d5c5784615d5e565b815b9050615db48160128560038110615d9e577f4e487b7100000000000000000000000000000000000000000000000000000000600052603260045260246000fd5b600702016004015461579e90919063ffffffff16565b60128460038110615dee577f4e487b7100000000000000000000000000000000000000000000000000000000600052603260045260246000fd5b6007020160040181905550615e0c81866153d990919063ffffffff16565b9450615e21818561579e90919063ffffffff16565b93506000851415615e39578395505050505050615e70565b600083148015615e495750600085115b15615e5357600094505b505b508080615e61906186cb565b915050615c9f565b5080925050505b919050565b8273feefeefeefeefeefeefeefeefeefeefeefeefeef73ffffffffffffffffffffffffffffffffffffffff168173ffffffffffffffffffffffffffffffffffffffff161415615ef9576040517f08c379a0000000000000000000000000000000000000000000000000000000008152600401615ef090617ee1565b60405180910390fd5b600073ffffffffffffffffffffffffffffffffffffffff168473ffffffffffffffffffffffffffffffffffffffff161415615f69576040517f08c379a0000000000000000000000000000000000000000000000000000000008152600401615f6090617faf565b60405180910390fd5b3073ffffffffffffffffffffffffffffffffffffffff168473ffffffffffffffffffffffffffffffffffffffff161415615fd8576040517f08c379a0000000000000000000000000000000000000000000000000000000008152600401615fcf90617e01565b60405180910390fd5b600260009054906101000a900473ffffffffffffffffffffffffffffffffffffffff1673ffffffffffffffffffffffffffffffffffffffff168473ffffffffffffffffffffffffffffffffffffffff161415616069576040517f08c379a000000000000000000000000000000000000000000000000000000000815260040161606090617f8f565b60405180910390fd5b600760009054906101000a900473ffffffffffffffffffffffffffffffffffffffff1673ffffffffffffffffffffffffffffffffffffffff168473ffffffffffffffffffffffffffffffffffffffff1614156160fa576040517f08c379a00000000000000000000000000000000000000000000000000000000081526004016160f190617d41565b60405180910390fd5b6000600760009054906101000a900473ffffffffffffffffffffffffffffffffffffffff1673ffffffffffffffffffffffffffffffffffffffff1663502b8bda6040518163ffffffff1660e01b815260040161615590617f21565b60206040518083038186803b15801561616d57600080fd5b505afa158015616181573d6000803e3d6000fd5b505050506040513d601f19601f820116820180604052508101906161a59190616f3a565b90506000600760009054906101000a900473ffffffffffffffffffffffffffffffffffffffff1673ffffffffffffffffffffffffffffffffffffffff1663502b8bda856040518263ffffffff1660e01b815260040161620491906179c4565b60206040518083038186803b15801561621c57600080fd5b505afa158015616230573d6000803e3d6000fd5b505050506040513d601f19601f820116820180604052508101906162549190616f3a565b90508173ffffffffffffffffffffffffffffffffffffffff16639dc29fac73feefeefeefeefeefeefeefeefeefeefeefeefeef876040518363ffffffff1660e01b81526004016162a59291906178a5565b600060405180830381600087803b1580156162bf57600080fd5b505af11580156162d3573d6000803e3d6000fd5b505050506000600760009054906101000a900473ffffffffffffffffffffffffffffffffffffffff1673ffffffffffffffffffffffffffffffffffffffff166339d66fc087876040518363ffffffff1660e01b8152600401616336929190617f3a565b60206040518083038186803b15801561634e57600080fd5b505afa158015616362573d6000803e3d6000fd5b505050506040513d601f19601f820116820180604052508101906163869190616fde565b90508173ffffffffffffffffffffffffffffffffffffffff1663867904b488836040518363ffffffff1660e01b81526004016163c39291906178a5565b600060405180830381600087803b1580156163dd57600080fd5b505af11580156163f1573d6000803e3d6000fd5b505050508173ffffffffffffffffffffffffffffffffffffffff1663eb6ecc0373feefeefeefeefeefeefeefeefeefeefeefeefeef89846040518463ffffffff1660e01b815260040161644693929190617845565b600060405180830381600087803b15801561646057600080fd5b505af1158015616474573d6000803e3d6000fd5b5050505050505050505050565b6000808290506000806001600361649891906183e1565b60ff1690505b600360ff16811015616668576000616541601283600381106164e9577f4e487b7100000000000000000000000000000000000000000000000000000000600052603260045260246000fd5b60070201600601546012846003811061652b577f4e487b7100000000000000000000000000000000000000000000000000000000600052603260045260246000fd5b60070201600501546153d990919063ffffffff16565b9050600081111561665457600084821061655b578461655d565b815b90506165b3816012856003811061659d577f4e487b7100000000000000000000000000000000000000000000000000000000600052603260045260246000fd5b600702016006015461579e90919063ffffffff16565b601284600381106165ed577f4e487b7100000000000000000000000000000000000000000000000000000000600052603260045260246000fd5b600702016006018190555061660b81866153d990919063ffffffff16565b9450616620818561579e90919063ffffffff16565b9350600085141561663857839550505050505061666f565b6000831480156166485750600085115b1561665257600094505b505b508080616660906186cb565b91505061649e565b5080925050505b919050565b8173feefeefeefeefeefeefeefeefeefeefeefeefeef73ffffffffffffffffffffffffffffffffffffffff168173ffffffffffffffffffffffffffffffffffffffff1614156166f8576040517f08c379a00000000000000000000000000000000000000000000000000000000081526004016166ef90617ee1565b60405180910390fd5b600073ffffffffffffffffffffffffffffffffffffffff168373ffffffffffffffffffffffffffffffffffffffff161415616768576040517f08c379a000000000000000000000000000000000000000000000000000000000815260040161675f90617faf565b60405180910390fd5b3073ffffffffffffffffffffffffffffffffffffffff168373ffffffffffffffffffffffffffffffffffffffff1614156167d7576040517f08c379a00000000000000000000000000000000000000000000000000000000081526004016167ce90617dc1565b60405180910390fd5b600260009054906101000a900473ffffffffffffffffffffffffffffffffffffffff1673ffffffffffffffffffffffffffffffffffffffff168373ffffffffffffffffffffffffffffffffffffffff161415616868576040517f08c379a000000000000000000000000000000000000000000000000000000000815260040161685f90617ea1565b60405180910390fd5b600760009054906101000a900473ffffffffffffffffffffffffffffffffffffffff1673ffffffffffffffffffffffffffffffffffffffff168373ffffffffffffffffffffffffffffffffffffffff1614156168f9576040517f08c379a00000000000000000000000000000000000000000000000000000000081526004016168f090617d01565b60405180910390fd5b600960009054906101000a900473ffffffffffffffffffffffffffffffffffffffff1673ffffffffffffffffffffffffffffffffffffffff1663b5ddb9c784846040518363ffffffff1660e01b81526004016169569291906178a5565b600060405180830381600087803b15801561697057600080fd5b505af1158015616984573d6000803e3d6000fd5b50505050505050565b600260009054906101000a900473ffffffffffffffffffffffffffffffffffffffff1673ffffffffffffffffffffffffffffffffffffffff1663907dff978484846040516020016169e0939291906178ce565b60405160208183030381529060405260017f1ac537f0ad67b64ac68a04587ff3a4cb6977de22eb2c37ee560897a92c6d07c760008060006040518763ffffffff1660e01b8152600401616a3896959493929190617a14565b600060405180830381600087803b158015616a5257600080fd5b505af1158015616a66573d6000803e3d6000fd5b50505050505050565b600080600a6012601b616a8291906183e1565b60ff16600a616a919190618235565b616a9b91906181b1565b83616aa691906181b1565b90506005600a82616ab7919061876c565b10616acc57600a81616ac9919061815b565b90505b600a81616ad991906181b1565b915050919050565b60008183616aef9190618353565b905092915050565b60008173ffffffffffffffffffffffffffffffffffffffff1660001b9050919050565b60008183616b2891906181b1565b905092915050565b600080616b6484616b56600a86616b479190618353565b88616ae190919063ffffffff16565b616b1a90919063ffffffff16565b90506005600a82616b75919061876c565b10616b8a57600a81616b87919061815b565b90505b600a81616b9791906181b1565b9150509392505050565b600080600a83616bb191906181b1565b616bc48587616ae190919063ffffffff16565b616bce91906181b1565b90506005600a82616bdf919061876c565b10616bf457600a81616bf1919061815b565b90505b600a81616c0191906181b1565b9150509392505050565b60405180606001604052806003905b616c22616c38565b815260200190600190039081616c1a5790505090565b6040518060400160405280600290602082028036833780820191505090505090565b600081359050616c6981619022565b92915050565b600081359050616c7e81619039565b92915050565b600081519050616c9381619050565b92915050565b600081359050616ca881619067565b92915050565b600081359050616cbd8161907e565b92915050565b600081359050616cd281619095565b92915050565b600081519050616ce7816190ac565b92915050565b600081519050616cfc816190c3565b92915050565b600081359050616d11816190da565b92915050565b600081359050616d26816190f1565b92915050565b600081519050616d3b816190f1565b92915050565b600060208284031215616d5357600080fd5b6000616d6184828501616c5a565b91505092915050565b600060208284031215616d7c57600080fd5b6000616d8a84828501616c6f565b91505092915050565b60008060408385031215616da657600080fd5b6000616db485828601616c5a565b9250506020616dc585828601616c99565b9150509250929050565b60008060408385031215616de257600080fd5b6000616df085828601616c5a565b9250506020616e0185828601616d17565b9150509250929050565b600080600060608486031215616e2057600080fd5b6000616e2e86828701616c5a565b9350506020616e3f86828701616d17565b9250506040616e5086828701616d17565b9150509250925092565b600060208284031215616e6c57600080fd5b6000616e7a84828501616c84565b91505092915050565b600060208284031215616e9557600080fd5b6000616ea384828501616c99565b91505092915050565b60008060408385031215616ebf57600080fd5b6000616ecd85828601616c99565b9250506020616ede85828601616d17565b9150509250929050565b600060208284031215616efa57600080fd5b6000616f0884828501616cae565b91505092915050565b600060208284031215616f2357600080fd5b6000616f3184828501616cc3565b91505092915050565b600060208284031215616f4c57600080fd5b6000616f5a84828501616cd8565b91505092915050565b600060208284031215616f7557600080fd5b6000616f8384828501616ced565b91505092915050565b600060208284031215616f9e57600080fd5b6000616fac84828501616d02565b91505092915050565b600060208284031215616fc757600080fd5b6000616fd584828501616d17565b91505092915050565b600060208284031215616ff057600080fd5b6000616ffe84828501616d2c565b91505092915050565b6000806040838503121561701a57600080fd5b600061702885828601616d2c565b925050602061703985828601616d2c565b9150509250929050565b600080600080600080600080610100898b03121561706057600080fd5b600061706e8b828c01616d17565b985050602061707f8b828c01616d17565b97505060406170908b828c01616d17565b96505060606170a18b828c01616d17565b95505060806170b28b828c01616d17565b94505060a06170c38b828c01616d17565b93505060c06170d48b828c01616d17565b92505060e06170e58b828c01616d17565b9150509295985092959890939650565b600061710183836171b1565b60408301905092915050565b6000617119838361778d565b60208301905092915050565b61712e81618516565b82525050565b61713d81618415565b82525050565b61715461714f82618415565b61873e565b82525050565b617163816180e8565b61716d8184618123565b9250617178826180d4565b8060005b838110156171a957815161719087826170f5565b965061719b83618109565b92505060018101905061717c565b505050505050565b6171ba816180f3565b6171c4818461812e565b92506171cf826180de565b8060005b838110156172005781516171e7878261710d565b96506171f283618116565b9250506001810190506171d3565b505050505050565b61721181618439565b82525050565b61722081618445565b82525050565b61723761723282618445565b618750565b82525050565b6172468161844f565b82525050565b6000617257826180fe565b6172618185618139565b9350617271818560208601618698565b61727a816187fb565b840191505092915050565b61728e81618528565b82525050565b61729d8161854c565b82525050565b6172ac81618570565b82525050565b6172bb81618594565b82525050565b6172ca816185b8565b82525050565b6172d9816185dc565b82525050565b6172e881618600565b82525050565b6172f781618624565b82525050565b6173068161863e565b82525050565b61731581618650565b82525050565b61732481618662565b82525050565b600061733760358361814a565b915061734282618833565b604082019050919050565b600061735a601e8361814a565b915061736582618882565b602082019050919050565b600061737d603e8361814a565b9150617388826188ab565b604082019050919050565b60006173a060248361814a565b91506173ab826188fa565b604082019050919050565b60006173c360218361814a565b91506173ce82618949565b604082019050919050565b60006173e6601c8361814a565b91506173f182618998565b602082019050919050565b600061740960258361814a565b9150617414826189c1565b604082019050919050565b600061742c60418361814a565b915061743782618a10565b606082019050919050565b600061744f60408361814a565b915061745a82618a85565b604082019050919050565b6000617472601c8361814a565b915061747d82618ad4565b602082019050919050565b600061749560288361814a565b91506174a082618afd565b604082019050919050565b60006174b8601f8361814a565b91506174c382618b4c565b602082019050919050565b60006174db602f8361814a565b91506174e682618b75565b604082019050919050565b60006174fe601c8361814a565b915061750982618bc4565b602082019050919050565b600061752160358361814a565b915061752c82618bed565b604082019050919050565b6000617544602f8361814a565b915061754f82618c3c565b604082019050919050565b6000617567601f8361814a565b915061757282618c8b565b602082019050919050565b600061758a601e8361814a565b915061759582618cb4565b602082019050919050565b60006175ad60338361814a565b91506175b882618cdd565b604082019050919050565b60006175d0601b8361814a565b91506175db82618d2c565b602082019050919050565b60006175f3602e8361814a565b91506175fe82618d55565b604082019050919050565b600061761660298361814a565b915061762182618da4565b604082019050919050565b600061763960288361814a565b915061764482618df3565b604082019050919050565b600061765c602e8361814a565b915061766782618e42565b604082019050919050565b600061767f601b8361814a565b915061768a82618e91565b602082019050919050565b60006176a2602c8361814a565b91506176ad82618eba565b604082019050919050565b60006176c560178361814a565b91506176d082618f09565b602082019050919050565b60006176e860268361814a565b91506176f382618f32565b604082019050919050565b7f5844520000000000000000000000000000000000000000000000000000000000815250565b600061773160278361814a565b915061773c82618f81565b604082019050919050565b600061775460188361814a565b915061775f82618fd0565b602082019050919050565b600061777760128361814a565b915061778282618ff9565b602082019050919050565b617796816184ff565b82525050565b6177a5816184ff565b82525050565b6177b481618509565b82525050565b60006177c68285617226565b6020820191506177d68284617143565b6014820191508190509392505050565b60006020820190506177fb6000830184617134565b92915050565b60006020820190506178166000830184617125565b92915050565b60006040820190506178316000830185617134565b61783e6020830184617134565b9392505050565b600060608201905061785a6000830186617134565b6178676020830185617134565b617874604083018461779c565b949350505050565b60006040820190506178916000830185617134565b61789e60208301846172fd565b9392505050565b60006040820190506178ba6000830185617134565b6178c7602083018461779c565b9392505050565b60006060820190506178e36000830186617134565b6178f0602083018561779c565b6178fd604083018461779c565b949350505050565b600060808201905061791a6000830187617134565b617927602083018661779c565b617934604083018561779c565b617941606083018461779c565b95945050505050565b600060c08201905061795f600083018461715a565b92915050565b600060208201905061797a6000830184617208565b92915050565b60006020820190506179956000830184617217565b92915050565b60006040820190506179b06000830185617217565b6179bd602083018461779c565b9392505050565b60006020820190506179d9600083018461723d565b92915050565b60006060820190506179f4600083018561723d565b617a01602083018461779c565b617a0d604083016176fe565b9392505050565b600060c0820190508181036000830152617a2e818961724c565b9050617a3d602083018861730c565b617a4a6040830187617217565b617a5760608301866172ee565b617a6460808301856172ee565b617a7160a08301846172ee565b979650505050505050565b600060c0820190508181036000830152617a96818961724c565b9050617aa5602083018861731b565b617ab26040830187617217565b617abf6060830186617217565b617acc60808301856172ee565b617ad960a08301846172ee565b979650505050505050565b6000602082019050617af96000830184617285565b92915050565b6000602082019050617b146000830184617294565b92915050565b6000602082019050617b2f60008301846172a3565b92915050565b6000602082019050617b4a60008301846172b2565b92915050565b6000602082019050617b6560008301846172c1565b92915050565b6000602082019050617b8060008301846172d0565b92915050565b6000602082019050617b9b60008301846172df565b92915050565b60006020820190508181036000830152617bba8161732a565b9050919050565b60006020820190508181036000830152617bda8161734d565b9050919050565b60006020820190508181036000830152617bfa81617370565b9050919050565b60006020820190508181036000830152617c1a81617393565b9050919050565b60006020820190508181036000830152617c3a816173b6565b9050919050565b60006020820190508181036000830152617c5a816173d9565b9050919050565b60006020820190508181036000830152617c7a816173fc565b9050919050565b60006020820190508181036000830152617c9a8161741f565b9050919050565b60006020820190508181036000830152617cba81617442565b9050919050565b60006020820190508181036000830152617cda81617465565b9050919050565b60006020820190508181036000830152617cfa81617488565b9050919050565b60006020820190508181036000830152617d1a816174ab565b9050919050565b60006020820190508181036000830152617d3a816174ce565b9050919050565b60006020820190508181036000830152617d5a816174f1565b9050919050565b60006020820190508181036000830152617d7a81617514565b9050919050565b60006020820190508181036000830152617d9a81617537565b9050919050565b60006020820190508181036000830152617dba8161755a565b9050919050565b60006020820190508181036000830152617dda8161757d565b9050919050565b60006020820190508181036000830152617dfa816175a0565b9050919050565b60006020820190508181036000830152617e1a816175c3565b9050919050565b60006020820190508181036000830152617e3a816175e6565b9050919050565b60006020820190508181036000830152617e5a81617609565b9050919050565b60006020820190508181036000830152617e7a8161762c565b9050919050565b60006020820190508181036000830152617e9a8161764f565b9050919050565b60006020820190508181036000830152617eba81617672565b9050919050565b60006020820190508181036000830152617eda81617695565b9050919050565b60006020820190508181036000830152617efa816176b8565b9050919050565b60006020820190508181036000830152617f1a816176db565b9050919050565b6000602082019050617f35600083016176fe565b919050565b6000606082019050617f4e600083016176fe565b617f5b602083018561779c565b617f68604083018461723d565b9392505050565b60006020820190508181036000830152617f8881617724565b9050919050565b60006020820190508181036000830152617fa881617747565b9050919050565b60006020820190508181036000830152617fc88161776a565b9050919050565b6000602082019050617fe4600083018461779c565b92915050565b6000604082019050617fff600083018561779c565b61800c602083018461779c565b9392505050565b6000606082019050618028600083018661779c565b618035602083018561779c565b618042604083018461779c565b949350505050565b600060e08201905061805f600083018a61779c565b61806c602083018961779c565b618079604083018861779c565b618086606083018761779c565b618093608083018661779c565b6180a060a083018561779c565b6180ad60c083018461779c565b98975050505050505050565b60006020820190506180ce60008301846177ab565b92915050565b6000819050919050565b6000819050919050565b600060039050919050565b600060029050919050565b600081519050919050565b6000602082019050919050565b6000602082019050919050565b600081905092915050565b600081905092915050565b600082825260208201905092915050565b600082825260208201905092915050565b6000618166826184ff565b9150618171836184ff565b9250827fffffffffffffffffffffffffffffffffffffffffffffffffffffffffffffffff038211156181a6576181a561879d565b5b828201905092915050565b60006181bc826184ff565b91506181c7836184ff565b9250826181d7576181d66187cc565b5b828204905092915050565b6000808291508390505b600185111561822c578086048111156182085761820761879d565b5b60018516156182175780820291505b808102905061822585618826565b94506181ec565b94509492505050565b6000618240826184ff565b915061824b836184ff565b92506182787fffffffffffffffffffffffffffffffffffffffffffffffffffffffffffffffff8484618280565b905092915050565b600082618290576001905061834c565b8161829e576000905061834c565b81600181146182b457600281146182be576182ed565b600191505061834c565b60ff8411156182d0576182cf61879d565b5b8360020a9150848211156182e7576182e661879d565b5b5061834c565b5060208310610133831016604e8410600b84101617156183225782820a90508381111561831d5761831c61879d565b5b61834c565b61832f84848460016181e2565b925090508184048111156183465761834561879d565b5b81810290505b9392505050565b600061835e826184ff565b9150618369836184ff565b9250817fffffffffffffffffffffffffffffffffffffffffffffffffffffffffffffffff04831182151516156183a2576183a161879d565b5b828202905092915050565b60006183b8826184ff565b91506183c3836184ff565b9250828210156183d6576183d561879d565b5b828203905092915050565b60006183ec82618509565b91506183f783618509565b92508282101561840a5761840961879d565b5b828203905092915050565b6000618420826184df565b9050919050565b6000618432826184df565b9050919050565b60008115159050919050565b6000819050919050565b60007fffffffff0000000000000000000000000000000000000000000000000000000082169050919050565b600061848682618415565b9050919050565b600061849882618415565b9050919050565b60006184aa82618415565b9050919050565b60006184bc82618415565b9050919050565b60006184ce82618415565b9050919050565b6000819050919050565b600073ffffffffffffffffffffffffffffffffffffffff82169050919050565b6000819050919050565b600060ff82169050919050565b600061852182618674565b9050919050565b60006185338261853a565b9050919050565b6000618545826184df565b9050919050565b60006185578261855e565b9050919050565b6000618569826184df565b9050919050565b600061857b82618582565b9050919050565b600061858d826184df565b9050919050565b600061859f826185a6565b9050919050565b60006185b1826184df565b9050919050565b60006185c3826185ca565b9050919050565b60006185d5826184df565b9050919050565b60006185e7826185ee565b9050919050565b60006185f9826184df565b9050919050565b600061860b82618612565b9050919050565b600061861d826184df565b9050919050565b6000618637618632836184d5565b61880c565b9050919050565b6000618649826184ff565b9050919050565b600061865b826184ff565b9050919050565b600061866d826184ff565b9050919050565b600061867f82618686565b9050919050565b6000618691826184df565b9050919050565b60005b838110156186b657808201518184015260208101905061869b565b838111156186c5576000848401525b50505050565b60006186d6826184ff565b915060008214156186ea576186e961879d565b5b600182039050919050565b6000618700826184ff565b91507fffffffffffffffffffffffffffffffffffffffffffffffffffffffffffffffff8214156187335761873261879d565b5b600182019050919050565b60006187498261875a565b9050919050565b6000819050919050565b600061876582618819565b9050919050565b6000618777826184ff565b9150618782836184ff565b925082618792576187916187cc565b5b828206905092915050565b7f4e487b7100000000000000000000000000000000000000000000000000000000600052601160045260246000fd5b7f4e487b7100000000000000000000000000000000000000000000000000000000600052601260045260246000fd5b6000601f19601f8301169050919050565b60008160001b9050919050565b60008160601b9050919050565b60008160011c9050919050565b7f596f75206d757374206265206e6f6d696e61746564206265666f726520796f7560008201527f2063616e20616363657074206f776e6572736869700000000000000000000000602082015250565b7f4e65772053796e746865746978206d757374206265206e6f6e2d7a65726f0000600082015250565b7f4e65772066656520706572696f642063616e6e6f74206265206c65737320746860008201527f616e206d696e696d756d2066656520706572696f64206475726174696f6e0000602082015250565b7f506572696f64206578636565647320746865204645455f504552494f445f4c4560008201527f4e47544800000000000000000000000000000000000000000000000000000000602082015250565b7f43757272656e7420706572696f6420686173206e6f7420636c6f73656420796560008201527f7400000000000000000000000000000000000000000000000000000000000000602082015250565b7f43616e27742064656c656761746520746f206164647265737328302900000000600082015250565b7f4f6e6c79207468652070726f78792063616e2063616c6c20746869732066756e60008201527f6374696f6e000000000000000000000000000000000000000000000000000000602082015250565b7f4e65772066656520706572696f642063616e6e6f74206265206772656174657260008201527f207468616e206d6178696d756d2066656520706572696f64206475726174696f60208201527f6e00000000000000000000000000000000000000000000000000000000000000604082015250565b7f4e6f2066656573206f72207265776172647320617661696c61626c6520666f7260008201527f20706572696f642c206f72206665657320616c726561647920636c61696d6564602082015250565b7f5468726573686f6c642073686f756c6420626520706f73697469766500000000600082015250565b7f42656e6566696369617279206d757374206e6f7420626520746865207a65726f60008201527f2061646472657373000000000000000000000000000000000000000000000000602082015250565b7f43616e27742073656e64207265776172647320746f2073796e74686574697800600082015250565b7f497420697320746f6f206561726c7920746f20636c6f7365207468652063757260008201527f72656e742066656520706572696f640000000000000000000000000000000000602082015250565b7f43616e27742073656e64206665657320746f2073796e74686574697800000000600082015250565b7f5472616e73666572206665652072617465206d7573742062652062656c6f772060008201527f4d41585f5452414e534645525f4645455f524154450000000000000000000000602082015250565b7f4f6e6c792074686520636f6e7472616374206f776e6572206d6179207065726660008201527f6f726d207468697320616374696f6e0000000000000000000000000000000000602082015250565b7f432d526174696f2062656c6f772070656e616c7479207468726573686f6c6400600082015250565b7f43616e27742073656e64207265776172647320746f2066656520706f6f6c0000600082015250565b7f4f6e6c79207468652073796e74686574697820636f6e74726163742063616e2060008201527f706572666f726d207468697320616374696f6e00000000000000000000000000602082015250565b7f43616e27742073656e64206665657320746f2066656520706f6f6c0000000000600082015250565b7f4f6e6c79207468652066656520617574686f726974792063616e20706572666f60008201527f726d207468697320616374696f6e000000000000000000000000000000000000602082015250565b7f43616e206f6e6c7920706572666f726d207468697320616374696f6e2064757260008201527f696e672073657475700000000000000000000000000000000000000000000000602082015250565b7f53656c6620646573747275637420686173206e6f7420796574206265656e206960008201527f6e69746961746564000000000000000000000000000000000000000000000000602082015250565b7f5468697320616374696f6e2063616e206f6e6c7920626520706572666f726d6560008201527f6420627920746865206f776e6572000000000000000000000000000000000000602082015250565b7f43616e27742073656e64207265776172647320746f2070726f78790000000000600082015250565b7f4e6f7420617070726f76656420746f20636c61696d206f6e20626568616c662060008201527f7468697320616464726573730000000000000000000000000000000000000000602082015250565b7f4665652061646472657373206e6f7420616c6c6f776564000000000000000000600082015250565b7f44656c65676174657320417070726f76616c2064657374696e6174696f6e206d60008201527f697373696e670000000000000000000000000000000000000000000000000000602082015250565b7f53656c662064657374727563742064656c617920686173206e6f74207965742060008201527f656c617073656400000000000000000000000000000000000000000000000000602082015250565b7f43616e27742073656e64206665657320746f2070726f78790000000000000000600082015250565b7f4163636f756e742063616e277420626520300000000000000000000000000000600082015250565b61902b81618415565b811461903657600080fd5b50565b61904281618427565b811461904d57600080fd5b50565b61905981618439565b811461906457600080fd5b50565b6190708161844f565b811461907b57600080fd5b50565b6190878161847b565b811461909257600080fd5b50565b61909e8161848d565b81146190a957600080fd5b50565b6190b58161849f565b81146190c057600080fd5b50565b6190cc816184b1565b81146190d757600080fd5b50565b6190e3816184c3565b81146190ee57600080fd5b50565b6190fa816184ff565b811461910557600080fd5b5056fea26469706673582212200e559971923d3baaa80fa90bafa40b6ec56228eda0ff6cfdde346034e93165e264736f6c63430008040033",
  "linkReferences": {
    "contracts/SafeDecimalMath.sol": {
      "SafeDecimalMath": [
        {
          "length": 20,
          "start": 8
        },
        {
          "length": 20,
          "start": 153
        },
        {
          "length": 20,
          "start": 305
        },
        {
          "length": 20,
          "start": 10865
        },
        {
          "length": 20,
          "start": 17080
        },
        {
          "length": 20,
          "start": 21747
        },
        {
          "length": 20,
          "start": 22845
        },
        {
          "length": 20,
          "start": 24244
        }
      ]
    }
  },
  "deployedLinkReferences": {
    "contracts/SafeDecimalMath.sol": {
      "SafeDecimalMath": [
        {
          "length": 20,
          "start": 6750
        },
        {
          "length": 20,
          "start": 12965
        },
        {
          "length": 20,
          "start": 17632
        },
        {
          "length": 20,
          "start": 18730
        },
        {
          "length": 20,
          "start": 20129
        }
      ]
    }
  }
}