{
  "_format": "hh-sol-artifact-1",
  "contractName": "FeePoolState",
  "sourceName": "contracts/FeePoolState.sol",
  "abi": [
    {
      "inputs": [
        {
          "internalType": "address",
          "name": "_owner",
          "type": "address"
        },
        {
          "internalType": "contract IFeePool",
          "name": "_feePool",
          "type": "address"
        }
      ],
      "stateMutability": "nonpayable",
      "type": "constructor"
    },
    {
      "anonymous": false,
      "inputs": [
        {
          "indexed": true,
          "internalType": "address",
          "name": "account",
          "type": "address"
        },
        {
          "indexed": false,
          "internalType": "uint256",
          "name": "debtRatio",
          "type": "uint256"
        },
        {
          "indexed": false,
          "internalType": "uint256",
          "name": "feePeriodCloseIndex",
          "type": "uint256"
        }
      ],
      "name": "IssuanceDebtRatioEntry",
      "type": "event"
    },
    {
      "anonymous": false,
      "inputs": [
        {
          "indexed": false,
          "internalType": "address",
          "name": "oldOwner",
          "type": "address"
        },
        {
          "indexed": false,
          "internalType": "address",
          "name": "newOwner",
          "type": "address"
        }
      ],
      "name": "OwnerChanged",
      "type": "event"
    },
    {
      "anonymous": false,
      "inputs": [
        {
          "indexed": false,
          "internalType": "address",
          "name": "newOwner",
          "type": "address"
        }
      ],
      "name": "OwnerNominated",
      "type": "event"
    },
    {
      "anonymous": false,
      "inputs": [
        {
          "indexed": false,
          "internalType": "address",
          "name": "newBeneficiary",
          "type": "address"
        }
      ],
      "name": "SelfDestructBeneficiaryUpdated",
      "type": "event"
    },
    {
      "anonymous": false,
      "inputs": [
        {
          "indexed": false,
          "internalType": "uint256",
          "name": "selfDestructDelay",
          "type": "uint256"
        }
      ],
      "name": "SelfDestructInitiated",
      "type": "event"
    },
    {
      "anonymous": false,
      "inputs": [],
      "name": "SelfDestructTerminated",
      "type": "event"
    },
    {
      "anonymous": false,
      "inputs": [
        {
          "indexed": false,
          "internalType": "address",
          "name": "beneficiary",
          "type": "address"
        }
      ],
      "name": "SelfDestructed",
      "type": "event"
    },
    {
      "inputs": [],
      "name": "FEE_PERIOD_LENGTH",
      "outputs": [
        {
          "internalType": "uint8",
          "name": "",
          "type": "uint8"
        }
      ],
      "stateMutability": "view",
      "type": "function"
    },
    {
      "inputs": [],
      "name": "SELFDESTRUCT_DELAY",
      "outputs": [
        {
          "internalType": "uint256",
          "name": "",
          "type": "uint256"
        }
      ],
      "stateMutability": "view",
      "type": "function"
    },
    {
      "inputs": [],
      "name": "acceptOwnership",
      "outputs": [],
      "stateMutability": "nonpayable",
      "type": "function"
    },
    {
      "inputs": [
        {
          "internalType": "address",
          "name": "",
          "type": "address"
        },
        {
          "internalType": "uint256",
          "name": "",
          "type": "uint256"
        }
      ],
      "name": "accountIssuanceLedger",
      "outputs": [
        {
          "internalType": "uint256",
          "name": "debtPercentage",
          "type": "uint256"
        },
        {
          "internalType": "uint256",
          "name": "debtEntryIndex",
          "type": "uint256"
        }
      ],
      "stateMutability": "view",
      "type": "function"
    },
    {
      "inputs": [
        {
          "internalType": "address",
          "name": "account",
          "type": "address"
        },
        {
          "internalType": "uint256",
          "name": "debtRatio",
          "type": "uint256"
        },
        {
          "internalType": "uint256",
          "name": "debtEntryIndex",
          "type": "uint256"
        },
        {
          "internalType": "uint256",
          "name": "currentPeriodStartDebtIndex",
          "type": "uint256"
        }
      ],
      "name": "appendAccountIssuanceRecord",
      "outputs": [],
      "stateMutability": "nonpayable",
      "type": "function"
    },
    {
      "inputs": [
        {
          "internalType": "address",
          "name": "account",
          "type": "address"
        },
        {
          "internalType": "uint256",
          "name": "closingDebtIndex",
          "type": "uint256"
        }
      ],
      "name": "applicableIssuanceData",
      "outputs": [
        {
          "internalType": "uint256",
          "name": "",
          "type": "uint256"
        },
        {
          "internalType": "uint256",
          "name": "",
          "type": "uint256"
        }
      ],
      "stateMutability": "view",
      "type": "function"
    },
    {
      "inputs": [],
      "name": "feePool",
      "outputs": [
        {
          "internalType": "address",
          "name": "",
          "type": "address"
        }
      ],
      "stateMutability": "view",
      "type": "function"
    },
    {
      "inputs": [
        {
          "internalType": "address",
          "name": "account",
          "type": "address"
        },
        {
          "internalType": "uint256",
          "name": "index",
          "type": "uint256"
        }
      ],
      "name": "getAccountsDebtEntry",
      "outputs": [
        {
          "internalType": "uint256",
          "name": "debtPercentage",
          "type": "uint256"
        },
        {
          "internalType": "uint256",
          "name": "debtEntryIndex",
          "type": "uint256"
        }
      ],
      "stateMutability": "view",
      "type": "function"
    },
    {
      "inputs": [
        {
          "internalType": "address[]",
          "name": "accounts",
          "type": "address[]"
        },
        {
          "internalType": "uint256[]",
          "name": "ratios",
          "type": "uint256[]"
        },
        {
          "internalType": "uint256",
          "name": "periodToInsert",
          "type": "uint256"
        },
        {
          "internalType": "uint256",
          "name": "feePeriodCloseIndex",
          "type": "uint256"
        }
      ],
      "name": "importIssuerData",
      "outputs": [],
      "stateMutability": "nonpayable",
      "type": "function"
    },
    {
      "inputs": [],
      "name": "initiateSelfDestruct",
      "outputs": [],
      "stateMutability": "nonpayable",
      "type": "function"
    },
    {
      "inputs": [],
      "name": "initiationTime",
      "outputs": [
        {
          "internalType": "uint256",
          "name": "",
          "type": "uint256"
        }
      ],
      "stateMutability": "view",
      "type": "function"
    },
    {
      "inputs": [
        {
          "internalType": "address",
          "name": "_owner",
          "type": "address"
        }
      ],
      "name": "nominateNewOwner",
      "outputs": [],
      "stateMutability": "nonpayable",
      "type": "function"
    },
    {
      "inputs": [],
      "name": "nominatedOwner",
      "outputs": [
        {
          "internalType": "address",
          "name": "",
          "type": "address"
        }
      ],
      "stateMutability": "view",
      "type": "function"
    },
    {
      "inputs": [],
      "name": "owner",
      "outputs": [
        {
          "internalType": "address",
          "name": "",
          "type": "address"
        }
      ],
      "stateMutability": "view",
      "type": "function"
    },
    {
      "inputs": [],
      "name": "selfDestruct",
      "outputs": [],
      "stateMutability": "nonpayable",
      "type": "function"
    },
    {
      "inputs": [],
      "name": "selfDestructBeneficiary",
      "outputs": [
        {
          "internalType": "address",
          "name": "",
          "type": "address"
        }
      ],
      "stateMutability": "view",
      "type": "function"
    },
    {
      "inputs": [],
      "name": "selfDestructInitiated",
      "outputs": [
        {
          "internalType": "bool",
          "name": "",
          "type": "bool"
        }
      ],
      "stateMutability": "view",
      "type": "function"
    },
    {
      "inputs": [
        {
          "internalType": "contract IFeePool",
          "name": "_feePool",
          "type": "address"
        }
      ],
      "name": "setFeePool",
      "outputs": [],
      "stateMutability": "nonpayable",
      "type": "function"
    },
    {
      "inputs": [
        {
          "internalType": "address",
          "name": "_beneficiary",
          "type": "address"
        }
      ],
      "name": "setSelfDestructBeneficiary",
      "outputs": [],
      "stateMutability": "nonpayable",
      "type": "function"
    },
    {
      "inputs": [],
      "name": "terminateSelfDestruct",
      "outputs": [],
      "stateMutability": "nonpayable",
      "type": "function"
    }
  ],
  "bytecode": "0x60806040523480156200001157600080fd5b50604051620029be380380620029be8339818101604052810190620000379190620002a7565b62375f008280600073ffffffffffffffffffffffffffffffffffffffff168173ffffffffffffffffffffffffffffffffffffffff161415620000b0576040517f08c379a0000000000000000000000000000000000000000000000000000000008152600401620000a790620003b3565b60405180910390fd5b806000806101000a81548173ffffffffffffffffffffffffffffffffffffffff021916908373ffffffffffffffffffffffffffffffffffffffff1602179055507fb532073b38c83145e3e5135377a08bf9aab55bc0fd7c1179cd4fb995d2a5159c6000826040516200012492919062000364565b60405180910390a150600073ffffffffffffffffffffffffffffffffffffffff168173ffffffffffffffffffffffffffffffffffffffff161415620001a0576040517f08c379a0000000000000000000000000000000000000000000000000000000008152600401620001979062000391565b60405180910390fd5b80600360016101000a81548173ffffffffffffffffffffffffffffffffffffffff021916908373ffffffffffffffffffffffffffffffffffffffff1602179055507fd5da63a0b864b315bc04128dedbc93888c8529ee6cf47ce664dc204339228c538160405162000212919062000347565b60405180910390a1508042620002299190620003e6565b6004819055505080600560006101000a81548173ffffffffffffffffffffffffffffffffffffffff021916908373ffffffffffffffffffffffffffffffffffffffff160217905550505062000570565b6000815190506200028a816200053c565b92915050565b600081519050620002a18162000556565b92915050565b60008060408385031215620002bb57600080fd5b6000620002cb8582860162000279565b9250506020620002de8582860162000290565b9150509250929050565b620002f38162000443565b82525050565b600062000308602283620003d5565b91506200031582620004c4565b604082019050919050565b60006200032f601983620003d5565b91506200033c8262000513565b602082019050919050565b60006020820190506200035e6000830184620002e8565b92915050565b60006040820190506200037b6000830185620002e8565b6200038a6020830184620002e8565b9392505050565b60006020820190508181036000830152620003ac81620002f9565b9050919050565b60006020820190508181036000830152620003ce8162000320565b9050919050565b600082825260208201905092915050565b6000620003f3826200048b565b915062000400836200048b565b9250827fffffffffffffffffffffffffffffffffffffffffffffffffffffffffffffffff0382111562000438576200043762000495565b5b828201905092915050565b600062000450826200046b565b9050919050565b6000620004648262000443565b9050919050565b600073ffffffffffffffffffffffffffffffffffffffff82169050919050565b6000819050919050565b7f4e487b7100000000000000000000000000000000000000000000000000000000600052601160045260246000fd5b7f4f776e6572206d757374206e6f7420626520746865207a65726f20616464726560008201527f7373000000000000000000000000000000000000000000000000000000000000602082015250565b7f4f776e657220616464726573732063616e6e6f74206265203000000000000000600082015250565b620005478162000443565b81146200055357600080fd5b50565b620005618162000457565b81146200056d57600080fd5b50565b61243e80620005806000396000f3fe608060405234801561001057600080fd5b506004361061012c5760003560e01c806394e1a448116100ad578063b8225dec11610071578063b8225dec146102d3578063bd32aa44146102f1578063c58aaae6146102fb578063cff2ddad14610319578063d29c000a146103375761012c565b806394e1a448146102405780639cb8a26a1461025c578063a461fc8214610266578063ae2e933b14610284578063b326f84e146102a25761012c565b806339a3f63f116100f457806339a3f63f146101ad57806353a47bb7146101c957806379ba5097146101e75780637de65545146101f15780638da5cb5b146102225761012c565b80631627540c1461013157806317c70de41461014d57806319db22281461016b57806320714f88146101875780633278c960146101a3575b600080fd5b61014b6004803603810190610146919061198d565b610368565b005b610155610471565b6040516101629190611e07565b60405180910390f35b61018560048036038101906101809190611ae8565b610477565b005b6101a1600480360381019061019c919061198d565b610549565b005b6101ab6106c2565b005b6101c760048036038101906101c29190611a55565b6107a1565b005b6101d1610b85565b6040516101de9190611c88565b60405180910390f35b6101ef610bab565b005b61020b600480360381019061020691906119b6565b610d5c565b604051610219929190611e22565b60405180910390f35b61022a610d93565b6040516102379190611c88565b60405180910390f35b61025a600480360381019061025591906119f2565b610db7565b005b610264610fe6565b005b61026e61118c565b60405161027b9190611e07565b60405180910390f35b61028c611193565b6040516102999190611c88565b60405180910390f35b6102bc60048036038101906102b791906119b6565b6111b9565b6040516102ca929190611e22565b60405180910390f35b6102db61130b565b6040516102e89190611ccc565b60405180910390f35b6102f961131e565b005b61030361140a565b6040516103109190611c88565b60405180910390f35b610321611430565b60405161032e9190611e4b565b60405180910390f35b610351600480360381019061034c91906119b6565b611435565b60405161035f929190611e22565b60405180910390f35b60008054906101000a900473ffffffffffffffffffffffffffffffffffffffff1673ffffffffffffffffffffffffffffffffffffffff163373ffffffffffffffffffffffffffffffffffffffff16146103f6576040517f08c379a00000000000000000000000000000000000000000000000000000000081526004016103ed90611d67565b60405180910390fd5b80600160006101000a81548173ffffffffffffffffffffffffffffffffffffffff021916908373ffffffffffffffffffffffffffffffffffffffff1602179055507f906a1c6bd7e3091ea86693dd029a831c19049ce77f1dce2ce0bab1cacbabce22816040516104669190611c88565b60405180910390a150565b60025481565b60008054906101000a900473ffffffffffffffffffffffffffffffffffffffff1673ffffffffffffffffffffffffffffffffffffffff163373ffffffffffffffffffffffffffffffffffffffff1614610505576040517f08c379a00000000000000000000000000000000000000000000000000000000081526004016104fc90611d67565b60405180910390fd5b80600560006101000a81548173ffffffffffffffffffffffffffffffffffffffff021916908373ffffffffffffffffffffffffffffffffffffffff16021790555050565b60008054906101000a900473ffffffffffffffffffffffffffffffffffffffff1673ffffffffffffffffffffffffffffffffffffffff163373ffffffffffffffffffffffffffffffffffffffff16146105d7576040517f08c379a00000000000000000000000000000000000000000000000000000000081526004016105ce90611d67565b60405180910390fd5b600073ffffffffffffffffffffffffffffffffffffffff168173ffffffffffffffffffffffffffffffffffffffff161415610647576040517f08c379a000000000000000000000000000000000000000000000000000000000815260040161063e90611d47565b60405180910390fd5b80600360016101000a81548173ffffffffffffffffffffffffffffffffffffffff021916908373ffffffffffffffffffffffffffffffffffffffff1602179055507fd5da63a0b864b315bc04128dedbc93888c8529ee6cf47ce664dc204339228c53816040516106b79190611c88565b60405180910390a150565b60008054906101000a900473ffffffffffffffffffffffffffffffffffffffff1673ffffffffffffffffffffffffffffffffffffffff163373ffffffffffffffffffffffffffffffffffffffff1614610750576040517f08c379a000000000000000000000000000000000000000000000000000000000815260040161074790611d67565b60405180910390fd5b60006002819055506000600360006101000a81548160ff0219169083151502179055507f6adcc7125002935e0aa31697538ebbd65cfddf20431eb6ecdcfc3e238bfd082c60405160405180910390a1565b60008054906101000a900473ffffffffffffffffffffffffffffffffffffffff1673ffffffffffffffffffffffffffffffffffffffff163373ffffffffffffffffffffffffffffffffffffffff161461082f576040517f08c379a000000000000000000000000000000000000000000000000000000000815260040161082690611d67565b60405180910390fd5b6004544210610873576040517f08c379a000000000000000000000000000000000000000000000000000000000815260040161086a90611d87565b60405180910390fd5b82518451146108b7576040517f08c379a00000000000000000000000000000000000000000000000000000000081526004016108ae90611dc7565b60405180910390fd5b60005b84518160ff161015610b7e57838160ff1681518110610902577f4e487b7100000000000000000000000000000000000000000000000000000000600052603260045260246000fd5b602002602001015160066000878460ff168151811061094a577f4e487b7100000000000000000000000000000000000000000000000000000000600052603260045260246000fd5b602002602001015173ffffffffffffffffffffffffffffffffffffffff1673ffffffffffffffffffffffffffffffffffffffff16815260200190815260200160002084600681106109c4577f4e487b7100000000000000000000000000000000000000000000000000000000600052603260045260246000fd5b60020201600001819055508160066000878460ff1681518110610a10577f4e487b7100000000000000000000000000000000000000000000000000000000600052603260045260246000fd5b602002602001015173ffffffffffffffffffffffffffffffffffffffff1673ffffffffffffffffffffffffffffffffffffffff1681526020019081526020016000208460068110610a8a577f4e487b7100000000000000000000000000000000000000000000000000000000600052603260045260246000fd5b6002020160010181905550848160ff1681518110610ad1577f4e487b7100000000000000000000000000000000000000000000000000000000600052603260045260246000fd5b602002602001015173ffffffffffffffffffffffffffffffffffffffff167f3846bc3c5dca9c6ef89995aa7b28d43a5a99aa2e3ea230494da474b8d4b29aea858360ff1681518110610b4c577f4e487b7100000000000000000000000000000000000000000000000000000000600052603260045260246000fd5b602002602001015184604051610b63929190611e22565b60405180910390a28080610b7690612089565b9150506108ba565b5050505050565b600160009054906101000a900473ffffffffffffffffffffffffffffffffffffffff1681565b600160009054906101000a900473ffffffffffffffffffffffffffffffffffffffff1673ffffffffffffffffffffffffffffffffffffffff163373ffffffffffffffffffffffffffffffffffffffff1614610c3b576040517f08c379a0000000000000000000000000000000000000000000000000000000008152600401610c3290611ce7565b60405180910390fd5b7fb532073b38c83145e3e5135377a08bf9aab55bc0fd7c1179cd4fb995d2a5159c60008054906101000a900473ffffffffffffffffffffffffffffffffffffffff16600160009054906101000a900473ffffffffffffffffffffffffffffffffffffffff16604051610cae929190611ca3565b60405180910390a1600160009054906101000a900473ffffffffffffffffffffffffffffffffffffffff166000806101000a81548173ffffffffffffffffffffffffffffffffffffffff021916908373ffffffffffffffffffffffffffffffffffffffff1602179055506000600160006101000a81548173ffffffffffffffffffffffffffffffffffffffff021916908373ffffffffffffffffffffffffffffffffffffffff160217905550565b60066020528160005260406000208160068110610d7857600080fd5b60020201600091509150508060000154908060010154905082565b60008054906101000a900473ffffffffffffffffffffffffffffffffffffffff1681565b600560009054906101000a900473ffffffffffffffffffffffffffffffffffffffff1673ffffffffffffffffffffffffffffffffffffffff163373ffffffffffffffffffffffffffffffffffffffff1614610e47576040517f08c379a0000000000000000000000000000000000000000000000000000000008152600401610e3e90611d27565b60405180910390fd5b80600660008673ffffffffffffffffffffffffffffffffffffffff1673ffffffffffffffffffffffffffffffffffffffff168152602001908152602001600020600060068110610ec0577f4e487b7100000000000000000000000000000000000000000000000000000000600052603260045260246000fd5b60020201600101541015610ed857610ed7846115d5565b5b82600660008673ffffffffffffffffffffffffffffffffffffffff1673ffffffffffffffffffffffffffffffffffffffff168152602001908152602001600020600060068110610f51577f4e487b7100000000000000000000000000000000000000000000000000000000600052603260045260246000fd5b600202016000018190555081600660008673ffffffffffffffffffffffffffffffffffffffff1673ffffffffffffffffffffffffffffffffffffffff168152602001908152602001600020600060068110610fd5577f4e487b7100000000000000000000000000000000000000000000000000000000600052603260045260246000fd5b600202016001018190555050505050565b60008054906101000a900473ffffffffffffffffffffffffffffffffffffffff1673ffffffffffffffffffffffffffffffffffffffff163373ffffffffffffffffffffffffffffffffffffffff1614611074576040517f08c379a000000000000000000000000000000000000000000000000000000000815260040161106b90611d67565b60405180910390fd5b600360009054906101000a900460ff166110c3576040517f08c379a00000000000000000000000000000000000000000000000000000000081526004016110ba90611da7565b60405180910390fd5b426224ea006002546110d59190611ef4565b10611115576040517f08c379a000000000000000000000000000000000000000000000000000000000815260040161110c90611de7565b60405180910390fd5b6000600360019054906101000a900473ffffffffffffffffffffffffffffffffffffffff1690507f8a09e1677ced846cb537dc2b172043bd05a1a81ad7e0033a7ef8ba762df990b78160405161116b9190611c88565b60405180910390a18073ffffffffffffffffffffffffffffffffffffffff16ff5b6224ea0081565b600560009054906101000a900473ffffffffffffffffffffffffffffffffffffffff1681565b600080600660ff168310611202576040517f08c379a00000000000000000000000000000000000000000000000000000000081526004016111f990611d07565b60405180910390fd5b600660008573ffffffffffffffffffffffffffffffffffffffff1673ffffffffffffffffffffffffffffffffffffffff1681526020019081526020016000208360068110611279577f4e487b7100000000000000000000000000000000000000000000000000000000600052603260045260246000fd5b60020201600001549150600660008573ffffffffffffffffffffffffffffffffffffffff1673ffffffffffffffffffffffffffffffffffffffff16815260200190815260200160002083600681106112fa577f4e487b7100000000000000000000000000000000000000000000000000000000600052603260045260246000fd5b600202016001015490509250929050565b600360009054906101000a900460ff1681565b60008054906101000a900473ffffffffffffffffffffffffffffffffffffffff1673ffffffffffffffffffffffffffffffffffffffff163373ffffffffffffffffffffffffffffffffffffffff16146113ac576040517f08c379a00000000000000000000000000000000000000000000000000000000081526004016113a390611d67565b60405180910390fd5b426002819055506001600360006101000a81548160ff0219169083151502179055507fcbd94ca75b8dc45c9d80c77e851670e78843c0d75180cb81db3e2158228fa9a66224ea006040516114009190611e07565b60405180910390a1565b600360019054906101000a900473ffffffffffffffffffffffffffffffffffffffff1681565b600681565b6000806000600660008673ffffffffffffffffffffffffffffffffffffffff1673ffffffffffffffffffffffffffffffffffffffff168152602001908152602001600020600680602002604051908101604052809291906000905b828210156114cc578382600202016040518060400160405290816000820154815260200160018201548152505081526020019060010190611490565b50505050905060005b600660ff168110156115cb5781816006811061151a577f4e487b7100000000000000000000000000000000000000000000000000000000600052603260045260246000fd5b60200201516020015185106115b857818160068110611562577f4e487b7100000000000000000000000000000000000000000000000000000000600052603260045260246000fd5b6020020151600001518282600681106115a4577f4e487b7100000000000000000000000000000000000000000000000000000000600052603260045260246000fd5b6020020151602001519350935050506115ce565b80806115c390612040565b9150506114d5565b50505b9250929050565b6000600260066115e59190611f4a565b60ff1690505b600660ff1681101561181e5760006001826116069190611ef4565b9050600660008473ffffffffffffffffffffffffffffffffffffffff1673ffffffffffffffffffffffffffffffffffffffff168152602001908152602001600020826006811061167f577f4e487b7100000000000000000000000000000000000000000000000000000000600052603260045260246000fd5b6002020160000154600660008573ffffffffffffffffffffffffffffffffffffffff1673ffffffffffffffffffffffffffffffffffffffff16815260200190815260200160002082600681106116fe577f4e487b7100000000000000000000000000000000000000000000000000000000600052603260045260246000fd5b6002020160000181905550600660008473ffffffffffffffffffffffffffffffffffffffff1673ffffffffffffffffffffffffffffffffffffffff1681526020019081526020016000208260068110611780577f4e487b7100000000000000000000000000000000000000000000000000000000600052603260045260246000fd5b6002020160010154600660008573ffffffffffffffffffffffffffffffffffffffff1673ffffffffffffffffffffffffffffffffffffffff16815260200190815260200160002082600681106117ff577f4e487b7100000000000000000000000000000000000000000000000000000000600052603260045260246000fd5b600202016001018190555050808061181690611fe5565b9150506115eb565b5050565b600061183561183084611e8b565b611e66565b9050808382526020820190508285602086028201111561185457600080fd5b60005b85811015611884578161186a88826118fa565b845260208401935060208301925050600181019050611857565b5050509392505050565b60006118a161189c84611eb7565b611e66565b905080838252602082019050828560208602820111156118c057600080fd5b60005b858110156118f057816118d68882611978565b8452602084019350602083019250506001810190506118c3565b5050509392505050565b600081359050611909816123c3565b92915050565b600082601f83011261192057600080fd5b8135611930848260208601611822565b91505092915050565b600082601f83011261194a57600080fd5b813561195a84826020860161188e565b91505092915050565b600081359050611972816123da565b92915050565b600081359050611987816123f1565b92915050565b60006020828403121561199f57600080fd5b60006119ad848285016118fa565b91505092915050565b600080604083850312156119c957600080fd5b60006119d7858286016118fa565b92505060206119e885828601611978565b9150509250929050565b60008060008060808587031215611a0857600080fd5b6000611a16878288016118fa565b9450506020611a2787828801611978565b9350506040611a3887828801611978565b9250506060611a4987828801611978565b91505092959194509250565b60008060008060808587031215611a6b57600080fd5b600085013567ffffffffffffffff811115611a8557600080fd5b611a918782880161190f565b945050602085013567ffffffffffffffff811115611aae57600080fd5b611aba87828801611939565b9350506040611acb87828801611978565b9250506060611adc87828801611978565b91505092959194509250565b600060208284031215611afa57600080fd5b6000611b0884828501611963565b91505092915050565b611b1a81611f7e565b82525050565b611b2981611f90565b82525050565b6000611b3c603583611ee3565b9150611b4782612122565b604082019050919050565b6000611b5f602383611ee3565b9150611b6a82612171565b604082019050919050565b6000611b82603183611ee3565b9150611b8d826121c0565b604082019050919050565b6000611ba5602883611ee3565b9150611bb08261220f565b604082019050919050565b6000611bc8602f83611ee3565b9150611bd38261225e565b604082019050919050565b6000611beb602983611ee3565b9150611bf6826122ad565b604082019050919050565b6000611c0e602883611ee3565b9150611c19826122fc565b604082019050919050565b6000611c31600f83611ee3565b9150611c3c8261234b565b602082019050919050565b6000611c54602783611ee3565b9150611c5f82612374565b604082019050919050565b611c7381611fce565b82525050565b611c8281611fd8565b82525050565b6000602082019050611c9d6000830184611b11565b92915050565b6000604082019050611cb86000830185611b11565b611cc56020830184611b11565b9392505050565b6000602082019050611ce16000830184611b20565b92915050565b60006020820190508181036000830152611d0081611b2f565b9050919050565b60006020820190508181036000830152611d2081611b52565b9050919050565b60006020820190508181036000830152611d4081611b75565b9050919050565b60006020820190508181036000830152611d6081611b98565b9050919050565b60006020820190508181036000830152611d8081611bbb565b9050919050565b60006020820190508181036000830152611da081611bde565b9050919050565b60006020820190508181036000830152611dc081611c01565b9050919050565b60006020820190508181036000830152611de081611c24565b9050919050565b60006020820190508181036000830152611e0081611c47565b9050919050565b6000602082019050611e1c6000830184611c6a565b92915050565b6000604082019050611e376000830185611c6a565b611e446020830184611c6a565b9392505050565b6000602082019050611e606000830184611c79565b92915050565b6000611e70611e81565b9050611e7c828261200f565b919050565b6000604051905090565b600067ffffffffffffffff821115611ea657611ea56120e2565b5b602082029050602081019050919050565b600067ffffffffffffffff821115611ed257611ed16120e2565b5b602082029050602081019050919050565b600082825260208201905092915050565b6000611eff82611fce565b9150611f0a83611fce565b9250827fffffffffffffffffffffffffffffffffffffffffffffffffffffffffffffffff03821115611f3f57611f3e6120b3565b5b828201905092915050565b6000611f5582611fd8565b9150611f6083611fd8565b925082821015611f7357611f726120b3565b5b828203905092915050565b6000611f8982611fae565b9050919050565b60008115159050919050565b6000611fa782611f7e565b9050919050565b600073ffffffffffffffffffffffffffffffffffffffff82169050919050565b6000819050919050565b600060ff82169050919050565b6000611ff082611fce565b91506000821415612004576120036120b3565b5b600182039050919050565b61201882612111565b810181811067ffffffffffffffff82111715612037576120366120e2565b5b80604052505050565b600061204b82611fce565b91507fffffffffffffffffffffffffffffffffffffffffffffffffffffffffffffffff82141561207e5761207d6120b3565b5b600182019050919050565b600061209482611fd8565b915060ff8214156120a8576120a76120b3565b5b600182019050919050565b7f4e487b7100000000000000000000000000000000000000000000000000000000600052601160045260246000fd5b7f4e487b7100000000000000000000000000000000000000000000000000000000600052604160045260246000fd5b6000601f19601f8301169050919050565b7f596f75206d757374206265206e6f6d696e61746564206265666f726520796f7560008201527f2063616e20616363657074206f776e6572736869700000000000000000000000602082015250565b7f696e646578206578636565647320746865204645455f504552494f445f4c454e60008201527f4754480000000000000000000000000000000000000000000000000000000000602082015250565b7f4f6e6c792074686520466565506f6f6c20636f6e74726163742063616e20706560008201527f72666f726d207468697320616374696f6e000000000000000000000000000000602082015250565b7f42656e6566696369617279206d757374206e6f7420626520746865207a65726f60008201527f2061646472657373000000000000000000000000000000000000000000000000602082015250565b7f4f6e6c792074686520636f6e7472616374206f776e6572206d6179207065726660008201527f6f726d207468697320616374696f6e0000000000000000000000000000000000602082015250565b7f43616e206f6e6c7920706572666f726d207468697320616374696f6e2064757260008201527f696e672073657475700000000000000000000000000000000000000000000000602082015250565b7f53656c6620646573747275637420686173206e6f7420796574206265656e206960008201527f6e69746961746564000000000000000000000000000000000000000000000000602082015250565b7f4c656e677468206d69736d617463680000000000000000000000000000000000600082015250565b7f53656c662064657374727563742064656c617920686173206e6f74207965742060008201527f656c617073656400000000000000000000000000000000000000000000000000602082015250565b6123cc81611f7e565b81146123d757600080fd5b50565b6123e381611f9c565b81146123ee57600080fd5b50565b6123fa81611fce565b811461240557600080fd5b5056fea2646970667358221220215640f2aebc4136728edf4db39fbf7c1ea78a7dd105bc3854349cd356bcf02264736f6c63430008040033",
  "linkReferences": {},
  "deployedLinkReferences": {}
}