{
  "_format": "hh-sol-artifact-1",
  "contractName": "FeePoolEternalStorage",
  "sourceName": "contracts/FeePoolEternalStorage.sol",
  "abi": [
    {
      "inputs": [
        {
          "internalType": "address",
          "name": "_owner",
          "type": "address"
        },
        {
          "internalType": "address",
          "name": "_feePool",
          "type": "address"
        }
      ],
      "stateMutability": "nonpayable",
      "type": "constructor"
    },
    {
      "anonymous": false,
      "inputs": [
        {
          "indexed": false,
          "internalType": "address",
          "name": "associatedContract",
          "type": "address"
        }
      ],
      "name": "AssociatedContractUpdated",
      "type": "event"
    },
    {
      "anonymous": false,
      "inputs": [
        {
          "indexed": false,
          "internalType": "address",
          "name": "oldOwner",
          "type": "address"
        },
        {
          "indexed": false,
          "internalType": "address",
          "name": "newOwner",
          "type": "address"
        }
      ],
      "name": "OwnerChanged",
      "type": "event"
    },
    {
      "anonymous": false,
      "inputs": [
        {
          "indexed": false,
          "internalType": "address",
          "name": "newOwner",
          "type": "address"
        }
      ],
      "name": "OwnerNominated",
      "type": "event"
    },
    {
      "inputs": [],
      "name": "acceptOwnership",
      "outputs": [],
      "stateMutability": "nonpayable",
      "type": "function"
    },
    {
      "inputs": [],
      "name": "associatedContract",
      "outputs": [
        {
          "internalType": "address",
          "name": "",
          "type": "address"
        }
      ],
      "stateMutability": "view",
      "type": "function"
    },
    {
      "inputs": [
        {
          "internalType": "bytes32",
          "name": "record",
          "type": "bytes32"
        }
      ],
      "name": "deleteAddressValue",
      "outputs": [],
      "stateMutability": "nonpayable",
      "type": "function"
    },
    {
      "inputs": [
        {
          "internalType": "bytes32",
          "name": "record",
          "type": "bytes32"
        }
      ],
      "name": "deleteBooleanValue",
      "outputs": [],
      "stateMutability": "nonpayable",
      "type": "function"
    },
    {
      "inputs": [
        {
          "internalType": "bytes32",
          "name": "record",
          "type": "bytes32"
        }
      ],
      "name": "deleteBytes32Value",
      "outputs": [],
      "stateMutability": "nonpayable",
      "type": "function"
    },
    {
      "inputs": [
        {
          "internalType": "bytes32",
          "name": "record",
          "type": "bytes32"
        }
      ],
      "name": "deleteBytesValue",
      "outputs": [],
      "stateMutability": "nonpayable",
      "type": "function"
    },
    {
      "inputs": [
        {
          "internalType": "bytes32",
          "name": "record",
          "type": "bytes32"
        }
      ],
      "name": "deleteIntValue",
      "outputs": [],
      "stateMutability": "nonpayable",
      "type": "function"
    },
    {
      "inputs": [
        {
          "internalType": "bytes32",
          "name": "record",
          "type": "bytes32"
        }
      ],
      "name": "deleteStringValue",
      "outputs": [],
      "stateMutability": "nonpayable",
      "type": "function"
    },
    {
      "inputs": [
        {
          "internalType": "bytes32",
          "name": "record",
          "type": "bytes32"
        }
      ],
      "name": "deleteUIntValue",
      "outputs": [],
      "stateMutability": "nonpayable",
      "type": "function"
    },
    {
      "inputs": [
        {
          "internalType": "bytes32",
          "name": "record",
          "type": "bytes32"
        }
      ],
      "name": "getAddressValue",
      "outputs": [
        {
          "internalType": "address",
          "name": "",
          "type": "address"
        }
      ],
      "stateMutability": "view",
      "type": "function"
    },
    {
      "inputs": [
        {
          "internalType": "bytes32",
          "name": "record",
          "type": "bytes32"
        }
      ],
      "name": "getBooleanValue",
      "outputs": [
        {
          "internalType": "bool",
          "name": "",
          "type": "bool"
        }
      ],
      "stateMutability": "view",
      "type": "function"
    },
    {
      "inputs": [
        {
          "internalType": "bytes32",
          "name": "record",
          "type": "bytes32"
        }
      ],
      "name": "getBytes32Value",
      "outputs": [
        {
          "internalType": "bytes32",
          "name": "",
          "type": "bytes32"
        }
      ],
      "stateMutability": "view",
      "type": "function"
    },
    {
      "inputs": [
        {
          "internalType": "bytes32",
          "name": "record",
          "type": "bytes32"
        }
      ],
      "name": "getBytesValue",
      "outputs": [
        {
          "internalType": "bytes",
          "name": "",
          "type": "bytes"
        }
      ],
      "stateMutability": "view",
      "type": "function"
    },
    {
      "inputs": [
        {
          "internalType": "bytes32",
          "name": "record",
          "type": "bytes32"
        }
      ],
      "name": "getIntValue",
      "outputs": [
        {
          "internalType": "int256",
          "name": "",
          "type": "int256"
        }
      ],
      "stateMutability": "view",
      "type": "function"
    },
    {
      "inputs": [
        {
          "internalType": "bytes32",
          "name": "record",
          "type": "bytes32"
        }
      ],
      "name": "getStringValue",
      "outputs": [
        {
          "internalType": "string",
          "name": "",
          "type": "string"
        }
      ],
      "stateMutability": "view",
      "type": "function"
    },
    {
      "inputs": [
        {
          "internalType": "bytes32",
          "name": "record",
          "type": "bytes32"
        }
      ],
      "name": "getUIntValue",
      "outputs": [
        {
          "internalType": "uint256",
          "name": "",
          "type": "uint256"
        }
      ],
      "stateMutability": "view",
      "type": "function"
    },
    {
      "inputs": [
        {
          "internalType": "address[]",
          "name": "accounts",
          "type": "address[]"
        },
        {
          "internalType": "uint256[]",
          "name": "feePeriodIDs",
          "type": "uint256[]"
        }
      ],
      "name": "importFeeWithdrawalData",
      "outputs": [],
      "stateMutability": "nonpayable",
      "type": "function"
    },
    {
      "inputs": [
        {
          "internalType": "address",
          "name": "_owner",
          "type": "address"
        }
      ],
      "name": "nominateNewOwner",
      "outputs": [],
      "stateMutability": "nonpayable",
      "type": "function"
    },
    {
      "inputs": [],
      "name": "nominatedOwner",
      "outputs": [
        {
          "internalType": "address",
          "name": "",
          "type": "address"
        }
      ],
      "stateMutability": "view",
      "type": "function"
    },
    {
      "inputs": [],
      "name": "owner",
      "outputs": [
        {
          "internalType": "address",
          "name": "",
          "type": "address"
        }
      ],
      "stateMutability": "view",
      "type": "function"
    },
    {
      "inputs": [
        {
          "internalType": "bytes32",
          "name": "record",
          "type": "bytes32"
        },
        {
          "internalType": "address",
          "name": "value",
          "type": "address"
        }
      ],
      "name": "setAddressValue",
      "outputs": [],
      "stateMutability": "nonpayable",
      "type": "function"
    },
    {
      "inputs": [
        {
          "internalType": "address",
          "name": "_associatedContract",
          "type": "address"
        }
      ],
      "name": "setAssociatedContract",
      "outputs": [],
      "stateMutability": "nonpayable",
      "type": "function"
    },
    {
      "inputs": [
        {
          "internalType": "bytes32",
          "name": "record",
          "type": "bytes32"
        },
        {
          "internalType": "bool",
          "name": "value",
          "type": "bool"
        }
      ],
      "name": "setBooleanValue",
      "outputs": [],
      "stateMutability": "nonpayable",
      "type": "function"
    },
    {
      "inputs": [
        {
          "internalType": "bytes32",
          "name": "record",
          "type": "bytes32"
        },
        {
          "internalType": "bytes32",
          "name": "value",
          "type": "bytes32"
        }
      ],
      "name": "setBytes32Value",
      "outputs": [],
      "stateMutability": "nonpayable",
      "type": "function"
    },
    {
      "inputs": [
        {
          "internalType": "bytes32",
          "name": "record",
          "type": "bytes32"
        },
        {
          "internalType": "bytes",
          "name": "value",
          "type": "bytes"
        }
      ],
      "name": "setBytesValue",
      "outputs": [],
      "stateMutability": "nonpayable",
      "type": "function"
    },
    {
      "inputs": [
        {
          "internalType": "bytes32",
          "name": "record",
          "type": "bytes32"
        },
        {
          "internalType": "int256",
          "name": "value",
          "type": "int256"
        }
      ],
      "name": "setIntValue",
      "outputs": [],
      "stateMutability": "nonpayable",
      "type": "function"
    },
    {
      "inputs": [
        {
          "internalType": "bytes32",
          "name": "record",
          "type": "bytes32"
        },
        {
          "internalType": "string",
          "name": "value",
          "type": "string"
        }
      ],
      "name": "setStringValue",
      "outputs": [],
      "stateMutability": "nonpayable",
      "type": "function"
    },
    {
      "inputs": [
        {
          "internalType": "bytes32",
          "name": "record",
          "type": "bytes32"
        },
        {
          "internalType": "uint256",
          "name": "value",
          "type": "uint256"
        }
      ],
      "name": "setUIntValue",
      "outputs": [],
      "stateMutability": "nonpayable",
      "type": "function"
    }
  ],
  "bytecode": "0x60806040523480156200001157600080fd5b5060405162002b5c38038062002b5c8339818101604052810190620000379190620001e2565b62375f008282818181600073ffffffffffffffffffffffffffffffffffffffff168173ffffffffffffffffffffffffffffffffffffffff161415620000b3576040517f08c379a0000000000000000000000000000000000000000000000000000000008152600401620000aa90620002a5565b60405180910390fd5b806000806101000a81548173ffffffffffffffffffffffffffffffffffffffff021916908373ffffffffffffffffffffffffffffffffffffffff1602179055507fb532073b38c83145e3e5135377a08bf9aab55bc0fd7c1179cd4fb995d2a5159c6000826040516200012792919062000278565b60405180910390a15080600260006101000a81548173ffffffffffffffffffffffffffffffffffffffff021916908373ffffffffffffffffffffffffffffffffffffffff1602179055507f73f20cff579e8a4086fa607db83867595f1b6a798e718c0bfa0b94a404128e0381604051620001a291906200025b565b60405180910390a1505050508042620001bc9190620002d8565b600a81905550505050620003e5565b600081519050620001dc81620003cb565b92915050565b60008060408385031215620001f657600080fd5b60006200020685828601620001cb565b92505060206200021985828601620001cb565b9150509250929050565b6200022e8162000335565b82525050565b600062000243601983620002c7565b91506200025082620003a2565b602082019050919050565b600060208201905062000272600083018462000223565b92915050565b60006040820190506200028f600083018562000223565b6200029e602083018462000223565b9392505050565b60006020820190508181036000830152620002c08162000234565b9050919050565b600082825260208201905092915050565b6000620002e58262000369565b9150620002f28362000369565b9250827fffffffffffffffffffffffffffffffffffffffffffffffffffffffffffffffff038211156200032a576200032962000373565b5b828201905092915050565b6000620003428262000349565b9050919050565b600073ffffffffffffffffffffffffffffffffffffffff82169050919050565b6000819050919050565b7f4e487b7100000000000000000000000000000000000000000000000000000000600052601160045260246000fd5b7f4f776e657220616464726573732063616e6e6f74206265203000000000000000600082015250565b620003d68162000335565b8114620003e257600080fd5b50565b61276780620003f56000396000f3fe608060405234801561001057600080fd5b50600436106101c45760003560e01c80635a2bf25a116100f9578063a77aa49e11610097578063ba69fcaa11610071578063ba69fcaa146104d5578063bdc963d8146104f1578063c9a52d2c14610521578063f58660661461053d576101c4565b8063a77aa49e1461047f578063aefc4ccb1461049b578063b3ffbd9e146104b9576101c4565b80638da5cb5b116100d35780638da5cb5b146103e55780639007127b1461040357806393fe424814610433578063a209a29c1461044f576101c4565b80635a2bf25a146103a357806379ba5097146103bf5780638267a9ee146103c9576101c4565b80633562fd201161016657806344bfa56e1161014057806344bfa56e146103095780634c77e5ba1461033957806352f445ca1461036957806353a47bb714610385576101c4565b80633562fd20146102b55780633cc1635c146102d15780633eba9ed2146102ed576101c4565b8063124f2418116101a2578063124f2418146102315780631627540c1461024d57806317e7dd221461026957806325cf512d14610299576101c4565b8063025ec81a146101c9578063043106c0146101f95780630c55d92514610215575b600080fd5b6101e360048036038101906101de9190611cb1565b610559565b6040516101f091906120d3565b60405180910390f35b610213600480360381019061020e9190611cb1565b610576565b005b61022f600480360381019061022a9190611cb1565b61063f565b005b61024b60048036038101906102469190611cb1565b6106f1565b005b61026760048036038101906102629190611c1c565b61079b565b005b610283600480360381019061027e9190611cb1565b6108a4565b60405161029091906120b8565b60405180910390f35b6102b360048036038101906102ae9190611d52565b6108ce565b005b6102cf60048036038101906102ca9190611e72565b61097a565b005b6102eb60048036038101906102e69190611cb1565b610a26565b005b61030760048036038101906103029190611d16565b610adc565b005b610323600480360381019061031e9190611cb1565b610b9b565b6040516103309190612117565b60405180910390f35b610353600480360381019061034e9190611cb1565b610c40565b6040516103609190612074565b60405180910390f35b610383600480360381019061037e9190611c1c565b610c7d565b005b61038d610d86565b60405161039a9190612074565b60405180910390f35b6103bd60048036038101906103b89190611cda565b610dac565b005b6103c7610e92565b005b6103e360048036038101906103de9190611cb1565b611043565b005b6103ed6110ed565b6040516103fa9190612074565b60405180910390f35b61041d60048036038101906104189190611cb1565b611111565b60405161042a9190612139565b60405180910390f35b61044d60048036038101906104489190611cb1565b61112e565b005b61046960048036038101906104649190611cb1565b6111d8565b6040516104769190612154565b60405180910390f35b61049960048036038101906104949190611de2565b61127d565b005b6104a3611329565b6040516104b09190612074565b60405180910390f35b6104d360048036038101906104ce9190611c45565b61134f565b005b6104ef60048036038101906104ea9190611cb1565b6115c7565b005b61050b60048036038101906105069190611cb1565b611679565b6040516105189190612216565b60405180910390f35b61053b60048036038101906105369190611d8e565b611696565b005b61055760048036038101906105529190611e1e565b611752565b005b600060076000838152602001908152602001600020549050919050565b600260009054906101000a900473ffffffffffffffffffffffffffffffffffffffff1673ffffffffffffffffffffffffffffffffffffffff163373ffffffffffffffffffffffffffffffffffffffff1614610606576040517f08c379a00000000000000000000000000000000000000000000000000000000081526004016105fd906121b6565b60405180910390fd5b6005600082815260200190815260200160002060006101000a81549073ffffffffffffffffffffffffffffffffffffffff021916905550565b600260009054906101000a900473ffffffffffffffffffffffffffffffffffffffff1673ffffffffffffffffffffffffffffffffffffffff163373ffffffffffffffffffffffffffffffffffffffff16146106cf576040517f08c379a00000000000000000000000000000000000000000000000000000000081526004016106c6906121b6565b60405180910390fd5b6006600082815260200190815260200160002060006106ee919061180e565b50565b600260009054906101000a900473ffffffffffffffffffffffffffffffffffffffff1673ffffffffffffffffffffffffffffffffffffffff163373ffffffffffffffffffffffffffffffffffffffff1614610781576040517f08c379a0000000000000000000000000000000000000000000000000000000008152600401610778906121b6565b60405180910390fd5b600760008281526020019081526020016000206000905550565b60008054906101000a900473ffffffffffffffffffffffffffffffffffffffff1673ffffffffffffffffffffffffffffffffffffffff163373ffffffffffffffffffffffffffffffffffffffff1614610829576040517f08c379a000000000000000000000000000000000000000000000000000000000815260040161082090612196565b60405180910390fd5b80600160006101000a81548173ffffffffffffffffffffffffffffffffffffffff021916908373ffffffffffffffffffffffffffffffffffffffff1602179055507f906a1c6bd7e3091ea86693dd029a831c19049ce77f1dce2ce0bab1cacbabce22816040516108999190612074565b60405180910390a150565b60006008600083815260200190815260200160002060009054906101000a900460ff169050919050565b600260009054906101000a900473ffffffffffffffffffffffffffffffffffffffff1673ffffffffffffffffffffffffffffffffffffffff163373ffffffffffffffffffffffffffffffffffffffff161461095e576040517f08c379a0000000000000000000000000000000000000000000000000000000008152600401610955906121b6565b60405180910390fd5b8060076000848152602001908152602001600020819055505050565b600260009054906101000a900473ffffffffffffffffffffffffffffffffffffffff1673ffffffffffffffffffffffffffffffffffffffff163373ffffffffffffffffffffffffffffffffffffffff1614610a0a576040517f08c379a0000000000000000000000000000000000000000000000000000000008152600401610a01906121b6565b60405180910390fd5b8060036000848152602001908152602001600020819055505050565b600260009054906101000a900473ffffffffffffffffffffffffffffffffffffffff1673ffffffffffffffffffffffffffffffffffffffff163373ffffffffffffffffffffffffffffffffffffffff1614610ab6576040517f08c379a0000000000000000000000000000000000000000000000000000000008152600401610aad906121b6565b60405180910390fd5b6008600082815260200190815260200160002060006101000a81549060ff021916905550565b600260009054906101000a900473ffffffffffffffffffffffffffffffffffffffff1673ffffffffffffffffffffffffffffffffffffffff163373ffffffffffffffffffffffffffffffffffffffff1614610b6c576040517f08c379a0000000000000000000000000000000000000000000000000000000008152600401610b63906121b6565b60405180910390fd5b806008600084815260200190815260200160002060006101000a81548160ff0219169083151502179055505050565b6060600660008381526020019081526020016000208054610bbb906123f3565b80601f0160208091040260200160405190810160405280929190818152602001828054610be7906123f3565b8015610c345780601f10610c0957610100808354040283529160200191610c34565b820191906000526020600020905b815481529060010190602001808311610c1757829003601f168201915b50505050509050919050565b60006005600083815260200190815260200160002060009054906101000a900473ffffffffffffffffffffffffffffffffffffffff169050919050565b60008054906101000a900473ffffffffffffffffffffffffffffffffffffffff1673ffffffffffffffffffffffffffffffffffffffff163373ffffffffffffffffffffffffffffffffffffffff1614610d0b576040517f08c379a0000000000000000000000000000000000000000000000000000000008152600401610d0290612196565b60405180910390fd5b80600260006101000a81548173ffffffffffffffffffffffffffffffffffffffff021916908373ffffffffffffffffffffffffffffffffffffffff1602179055507f73f20cff579e8a4086fa607db83867595f1b6a798e718c0bfa0b94a404128e0381604051610d7b9190612074565b60405180910390a150565b600160009054906101000a900473ffffffffffffffffffffffffffffffffffffffff1681565b600260009054906101000a900473ffffffffffffffffffffffffffffffffffffffff1673ffffffffffffffffffffffffffffffffffffffff163373ffffffffffffffffffffffffffffffffffffffff1614610e3c576040517f08c379a0000000000000000000000000000000000000000000000000000000008152600401610e33906121b6565b60405180910390fd5b806005600084815260200190815260200160002060006101000a81548173ffffffffffffffffffffffffffffffffffffffff021916908373ffffffffffffffffffffffffffffffffffffffff1602179055505050565b600160009054906101000a900473ffffffffffffffffffffffffffffffffffffffff1673ffffffffffffffffffffffffffffffffffffffff163373ffffffffffffffffffffffffffffffffffffffff1614610f22576040517f08c379a0000000000000000000000000000000000000000000000000000000008152600401610f1990612176565b60405180910390fd5b7fb532073b38c83145e3e5135377a08bf9aab55bc0fd7c1179cd4fb995d2a5159c60008054906101000a900473ffffffffffffffffffffffffffffffffffffffff16600160009054906101000a900473ffffffffffffffffffffffffffffffffffffffff16604051610f9592919061208f565b60405180910390a1600160009054906101000a900473ffffffffffffffffffffffffffffffffffffffff166000806101000a81548173ffffffffffffffffffffffffffffffffffffffff021916908373ffffffffffffffffffffffffffffffffffffffff1602179055506000600160006101000a81548173ffffffffffffffffffffffffffffffffffffffff021916908373ffffffffffffffffffffffffffffffffffffffff160217905550565b600260009054906101000a900473ffffffffffffffffffffffffffffffffffffffff1673ffffffffffffffffffffffffffffffffffffffff163373ffffffffffffffffffffffffffffffffffffffff16146110d3576040517f08c379a00000000000000000000000000000000000000000000000000000000081526004016110ca906121b6565b60405180910390fd5b600960008281526020019081526020016000206000905550565b60008054906101000a900473ffffffffffffffffffffffffffffffffffffffff1681565b600060096000838152602001908152602001600020549050919050565b600260009054906101000a900473ffffffffffffffffffffffffffffffffffffffff1673ffffffffffffffffffffffffffffffffffffffff163373ffffffffffffffffffffffffffffffffffffffff16146111be576040517f08c379a00000000000000000000000000000000000000000000000000000000081526004016111b5906121b6565b60405180910390fd5b600360008281526020019081526020016000206000905550565b60606004600083815260200190815260200160002080546111f8906123f3565b80601f0160208091040260200160405190810160405280929190818152602001828054611224906123f3565b80156112715780601f1061124657610100808354040283529160200191611271565b820191906000526020600020905b81548152906001019060200180831161125457829003601f168201915b50505050509050919050565b600260009054906101000a900473ffffffffffffffffffffffffffffffffffffffff1673ffffffffffffffffffffffffffffffffffffffff163373ffffffffffffffffffffffffffffffffffffffff161461130d576040517f08c379a0000000000000000000000000000000000000000000000000000000008152600401611304906121b6565b60405180910390fd5b8060096000848152602001908152602001600020819055505050565b600260009054906101000a900473ffffffffffffffffffffffffffffffffffffffff1681565b60008054906101000a900473ffffffffffffffffffffffffffffffffffffffff1673ffffffffffffffffffffffffffffffffffffffff163373ffffffffffffffffffffffffffffffffffffffff16146113dd576040517f08c379a00000000000000000000000000000000000000000000000000000000081526004016113d490612196565b60405180910390fd5b600a544210611421576040517f08c379a0000000000000000000000000000000000000000000000000000000008152600401611418906121d6565b60405180910390fd5b8051825114611465576040517f08c379a000000000000000000000000000000000000000000000000000000000815260040161145c906121f6565b60405180910390fd5b60005b82518160ff1610156115c2573073ffffffffffffffffffffffffffffffffffffffff16633562fd207f6c6173745f6665655f7769746864726177616c00000000000000000000000000858460ff16815181106114ed577f4e487b7100000000000000000000000000000000000000000000000000000000600052603260045260246000fd5b6020026020010151604051602001611506929190612048565b60405160208183030381529060405280519060200120848460ff1681518110611558577f4e487b7100000000000000000000000000000000000000000000000000000000600052603260045260246000fd5b60200260200101516040518363ffffffff1660e01b815260040161157d9291906120ee565b600060405180830381600087803b15801561159757600080fd5b505af11580156115ab573d6000803e3d6000fd5b5050505080806115ba90612456565b915050611468565b505050565b600260009054906101000a900473ffffffffffffffffffffffffffffffffffffffff1673ffffffffffffffffffffffffffffffffffffffff163373ffffffffffffffffffffffffffffffffffffffff1614611657576040517f08c379a000000000000000000000000000000000000000000000000000000000815260040161164e906121b6565b60405180910390fd5b600460008281526020019081526020016000206000611676919061184e565b50565b600060036000838152602001908152602001600020549050919050565b600260009054906101000a900473ffffffffffffffffffffffffffffffffffffffff1673ffffffffffffffffffffffffffffffffffffffff163373ffffffffffffffffffffffffffffffffffffffff1614611726576040517f08c379a000000000000000000000000000000000000000000000000000000000815260040161171d906121b6565b60405180910390fd5b8060066000848152602001908152602001600020908051906020019061174d92919061188e565b505050565b600260009054906101000a900473ffffffffffffffffffffffffffffffffffffffff1673ffffffffffffffffffffffffffffffffffffffff163373ffffffffffffffffffffffffffffffffffffffff16146117e2576040517f08c379a00000000000000000000000000000000000000000000000000000000081526004016117d9906121b6565b60405180910390fd5b80600460008481526020019081526020016000209080519060200190611809929190611914565b505050565b50805461181a906123f3565b6000825580601f1061182c575061184b565b601f01602090049060005260206000209081019061184a919061199a565b5b50565b50805461185a906123f3565b6000825580601f1061186c575061188b565b601f01602090049060005260206000209081019061188a919061199a565b5b50565b82805461189a906123f3565b90600052602060002090601f0160209004810192826118bc5760008555611903565b82601f106118d557805160ff1916838001178555611903565b82800160010185558215611903579182015b828111156119025782518255916020019190600101906118e7565b5b509050611910919061199a565b5090565b828054611920906123f3565b90600052602060002090601f0160209004810192826119425760008555611989565b82601f1061195b57805160ff1916838001178555611989565b82800160010185558215611989579182015b8281111561198857825182559160200191906001019061196d565b5b509050611996919061199a565b5090565b5b808211156119b357600081600090555060010161199b565b5090565b60006119ca6119c584612256565b612231565b905080838252602082019050828560208602820111156119e957600080fd5b60005b85811015611a1957816119ff8882611b0b565b8452602084019350602083019250506001810190506119ec565b5050509392505050565b6000611a36611a3184612282565b612231565b90508083825260208201905082856020860282011115611a5557600080fd5b60005b85811015611a855781611a6b8882611c07565b845260208401935060208301925050600181019050611a58565b5050509392505050565b6000611aa2611a9d846122ae565b612231565b905082815260208101848484011115611aba57600080fd5b611ac58482856123b1565b509392505050565b6000611ae0611adb846122df565b612231565b905082815260208101848484011115611af857600080fd5b611b038482856123b1565b509392505050565b600081359050611b1a816126be565b92915050565b600082601f830112611b3157600080fd5b8135611b418482602086016119b7565b91505092915050565b600082601f830112611b5b57600080fd5b8135611b6b848260208601611a23565b91505092915050565b600081359050611b83816126d5565b92915050565b600081359050611b98816126ec565b92915050565b600082601f830112611baf57600080fd5b8135611bbf848260208601611a8f565b91505092915050565b600081359050611bd781612703565b92915050565b600082601f830112611bee57600080fd5b8135611bfe848260208601611acd565b91505092915050565b600081359050611c168161271a565b92915050565b600060208284031215611c2e57600080fd5b6000611c3c84828501611b0b565b91505092915050565b60008060408385031215611c5857600080fd5b600083013567ffffffffffffffff811115611c7257600080fd5b611c7e85828601611b20565b925050602083013567ffffffffffffffff811115611c9b57600080fd5b611ca785828601611b4a565b9150509250929050565b600060208284031215611cc357600080fd5b6000611cd184828501611b89565b91505092915050565b60008060408385031215611ced57600080fd5b6000611cfb85828601611b89565b9250506020611d0c85828601611b0b565b9150509250929050565b60008060408385031215611d2957600080fd5b6000611d3785828601611b89565b9250506020611d4885828601611b74565b9150509250929050565b60008060408385031215611d6557600080fd5b6000611d7385828601611b89565b9250506020611d8485828601611b89565b9150509250929050565b60008060408385031215611da157600080fd5b6000611daf85828601611b89565b925050602083013567ffffffffffffffff811115611dcc57600080fd5b611dd885828601611b9e565b9150509250929050565b60008060408385031215611df557600080fd5b6000611e0385828601611b89565b9250506020611e1485828601611bc8565b9150509250929050565b60008060408385031215611e3157600080fd5b6000611e3f85828601611b89565b925050602083013567ffffffffffffffff811115611e5c57600080fd5b611e6885828601611bdd565b9150509250929050565b60008060408385031215611e8557600080fd5b6000611e9385828601611b89565b9250506020611ea485828601611c07565b9150509250929050565b611eb781612348565b82525050565b611ece611ec982612348565b612480565b82525050565b611edd8161235a565b82525050565b611eec81612366565b82525050565b611f03611efe82612366565b612492565b82525050565b6000611f1482612310565b611f1e8185612326565b9350611f2e8185602086016123c0565b611f378161253b565b840191505092915050565b611f4b81612370565b82525050565b6000611f5c8261231b565b611f668185612337565b9350611f768185602086016123c0565b611f7f8161253b565b840191505092915050565b6000611f97603583612337565b9150611fa282612559565b604082019050919050565b6000611fba602f83612337565b9150611fc5826125a8565b604082019050919050565b6000611fdd603483612337565b9150611fe8826125f7565b604082019050919050565b6000612000602983612337565b915061200b82612646565b604082019050919050565b6000612023600f83612337565b915061202e82612695565b602082019050919050565b6120428161239a565b82525050565b60006120548285611ef2565b6020820191506120648284611ebd565b6014820191508190509392505050565b60006020820190506120896000830184611eae565b92915050565b60006040820190506120a46000830185611eae565b6120b16020830184611eae565b9392505050565b60006020820190506120cd6000830184611ed4565b92915050565b60006020820190506120e86000830184611ee3565b92915050565b60006040820190506121036000830185611ee3565b6121106020830184612039565b9392505050565b600060208201905081810360008301526121318184611f09565b905092915050565b600060208201905061214e6000830184611f42565b92915050565b6000602082019050818103600083015261216e8184611f51565b905092915050565b6000602082019050818103600083015261218f81611f8a565b9050919050565b600060208201905081810360008301526121af81611fad565b9050919050565b600060208201905081810360008301526121cf81611fd0565b9050919050565b600060208201905081810360008301526121ef81611ff3565b9050919050565b6000602082019050818103600083015261220f81612016565b9050919050565b600060208201905061222b6000830184612039565b92915050565b600061223b61224c565b90506122478282612425565b919050565b6000604051905090565b600067ffffffffffffffff8211156122715761227061250c565b5b602082029050602081019050919050565b600067ffffffffffffffff82111561229d5761229c61250c565b5b602082029050602081019050919050565b600067ffffffffffffffff8211156122c9576122c861250c565b5b6122d28261253b565b9050602081019050919050565b600067ffffffffffffffff8211156122fa576122f961250c565b5b6123038261253b565b9050602081019050919050565b600081519050919050565b600081519050919050565b600082825260208201905092915050565b600082825260208201905092915050565b60006123538261237a565b9050919050565b60008115159050919050565b6000819050919050565b6000819050919050565b600073ffffffffffffffffffffffffffffffffffffffff82169050919050565b6000819050919050565b600060ff82169050919050565b82818337600083830152505050565b60005b838110156123de5780820151818401526020810190506123c3565b838111156123ed576000848401525b50505050565b6000600282049050600182168061240b57607f821691505b6020821081141561241f5761241e6124dd565b5b50919050565b61242e8261253b565b810181811067ffffffffffffffff8211171561244d5761244c61250c565b5b80604052505050565b6000612461826123a4565b915060ff821415612475576124746124ae565b5b600182019050919050565b600061248b8261249c565b9050919050565b6000819050919050565b60006124a78261254c565b9050919050565b7f4e487b7100000000000000000000000000000000000000000000000000000000600052601160045260246000fd5b7f4e487b7100000000000000000000000000000000000000000000000000000000600052602260045260246000fd5b7f4e487b7100000000000000000000000000000000000000000000000000000000600052604160045260246000fd5b6000601f19601f8301169050919050565b60008160601b9050919050565b7f596f75206d757374206265206e6f6d696e61746564206265666f726520796f7560008201527f2063616e20616363657074206f776e6572736869700000000000000000000000602082015250565b7f4f6e6c792074686520636f6e7472616374206f776e6572206d6179207065726660008201527f6f726d207468697320616374696f6e0000000000000000000000000000000000602082015250565b7f4f6e6c7920746865206173736f63696174656420636f6e74726163742063616e60008201527f20706572666f726d207468697320616374696f6e000000000000000000000000602082015250565b7f43616e206f6e6c7920706572666f726d207468697320616374696f6e2064757260008201527f696e672073657475700000000000000000000000000000000000000000000000602082015250565b7f4c656e677468206d69736d617463680000000000000000000000000000000000600082015250565b6126c781612348565b81146126d257600080fd5b50565b6126de8161235a565b81146126e957600080fd5b50565b6126f581612366565b811461270057600080fd5b50565b61270c81612370565b811461271757600080fd5b50565b6127238161239a565b811461272e57600080fd5b5056fea26469706673582212206a02c2fa4b3f5451b42bb2d72328d7d48903de7781c8d1bb6e2fe838c8b7efa464736f6c63430008040033",
  "linkReferences": {},
  "deployedLinkReferences": {}
}