{
  "_format": "hh-sol-artifact-1",
  "contractName": "FeePoolEternalStorage",
  "sourceName": "contracts/FeePoolEternalStorage.sol",
  "abi": [
    {
      "inputs": [
        {
          "internalType": "address",
          "name": "_owner",
          "type": "address"
        },
        {
          "internalType": "address",
          "name": "_feePool",
          "type": "address"
        }
      ],
      "stateMutability": "nonpayable",
      "type": "constructor"
    },
    {
      "anonymous": false,
      "inputs": [
        {
          "indexed": false,
          "internalType": "address",
          "name": "associatedContract",
          "type": "address"
        }
      ],
      "name": "AssociatedContractUpdated",
      "type": "event"
    },
    {
      "anonymous": false,
      "inputs": [
        {
          "indexed": false,
          "internalType": "address",
          "name": "oldOwner",
          "type": "address"
        },
        {
          "indexed": false,
          "internalType": "address",
          "name": "newOwner",
          "type": "address"
        }
      ],
      "name": "OwnerChanged",
      "type": "event"
    },
    {
      "anonymous": false,
      "inputs": [
        {
          "indexed": false,
          "internalType": "address",
          "name": "newOwner",
          "type": "address"
        }
      ],
      "name": "OwnerNominated",
      "type": "event"
    },
    {
      "inputs": [],
      "name": "acceptOwnership",
      "outputs": [],
      "stateMutability": "nonpayable",
      "type": "function"
    },
    {
      "inputs": [],
      "name": "associatedContract",
      "outputs": [
        {
          "internalType": "address",
          "name": "",
          "type": "address"
        }
      ],
      "stateMutability": "view",
      "type": "function"
    },
    {
      "inputs": [
        {
          "internalType": "bytes32",
          "name": "record",
          "type": "bytes32"
        }
      ],
      "name": "deleteAddressValue",
      "outputs": [],
      "stateMutability": "nonpayable",
      "type": "function"
    },
    {
      "inputs": [
        {
          "internalType": "bytes32",
          "name": "record",
          "type": "bytes32"
        }
      ],
      "name": "deleteBooleanValue",
      "outputs": [],
      "stateMutability": "nonpayable",
      "type": "function"
    },
    {
      "inputs": [
        {
          "internalType": "bytes32",
          "name": "record",
          "type": "bytes32"
        }
      ],
      "name": "deleteBytes32Value",
      "outputs": [],
      "stateMutability": "nonpayable",
      "type": "function"
    },
    {
      "inputs": [
        {
          "internalType": "bytes32",
          "name": "record",
          "type": "bytes32"
        }
      ],
      "name": "deleteBytesValue",
      "outputs": [],
      "stateMutability": "nonpayable",
      "type": "function"
    },
    {
      "inputs": [
        {
          "internalType": "bytes32",
          "name": "record",
          "type": "bytes32"
        }
      ],
      "name": "deleteIntValue",
      "outputs": [],
      "stateMutability": "nonpayable",
      "type": "function"
    },
    {
      "inputs": [
        {
          "internalType": "bytes32",
          "name": "record",
          "type": "bytes32"
        }
      ],
      "name": "deleteStringValue",
      "outputs": [],
      "stateMutability": "nonpayable",
      "type": "function"
    },
    {
      "inputs": [
        {
          "internalType": "bytes32",
          "name": "record",
          "type": "bytes32"
        }
      ],
      "name": "deleteUIntValue",
      "outputs": [],
      "stateMutability": "nonpayable",
      "type": "function"
    },
    {
      "inputs": [
        {
          "internalType": "bytes32",
          "name": "record",
          "type": "bytes32"
        }
      ],
      "name": "getAddressValue",
      "outputs": [
        {
          "internalType": "address",
          "name": "",
          "type": "address"
        }
      ],
      "stateMutability": "view",
      "type": "function"
    },
    {
      "inputs": [
        {
          "internalType": "bytes32",
          "name": "record",
          "type": "bytes32"
        }
      ],
      "name": "getBooleanValue",
      "outputs": [
        {
          "internalType": "bool",
          "name": "",
          "type": "bool"
        }
      ],
      "stateMutability": "view",
      "type": "function"
    },
    {
      "inputs": [
        {
          "internalType": "bytes32",
          "name": "record",
          "type": "bytes32"
        }
      ],
      "name": "getBytes32Value",
      "outputs": [
        {
          "internalType": "bytes32",
          "name": "",
          "type": "bytes32"
        }
      ],
      "stateMutability": "view",
      "type": "function"
    },
    {
      "inputs": [
        {
          "internalType": "bytes32",
          "name": "record",
          "type": "bytes32"
        }
      ],
      "name": "getBytesValue",
      "outputs": [
        {
          "internalType": "bytes",
          "name": "",
          "type": "bytes"
        }
      ],
      "stateMutability": "view",
      "type": "function"
    },
    {
      "inputs": [
        {
          "internalType": "bytes32",
          "name": "record",
          "type": "bytes32"
        }
      ],
      "name": "getIntValue",
      "outputs": [
        {
          "internalType": "int256",
          "name": "",
          "type": "int256"
        }
      ],
      "stateMutability": "view",
      "type": "function"
    },
    {
      "inputs": [
        {
          "internalType": "bytes32",
          "name": "record",
          "type": "bytes32"
        }
      ],
      "name": "getStringValue",
      "outputs": [
        {
          "internalType": "string",
          "name": "",
          "type": "string"
        }
      ],
      "stateMutability": "view",
      "type": "function"
    },
    {
      "inputs": [
        {
          "internalType": "bytes32",
          "name": "record",
          "type": "bytes32"
        }
      ],
      "name": "getUIntValue",
      "outputs": [
        {
          "internalType": "uint256",
          "name": "",
          "type": "uint256"
        }
      ],
      "stateMutability": "view",
      "type": "function"
    },
    {
      "inputs": [
        {
          "internalType": "address[]",
          "name": "accounts",
          "type": "address[]"
        },
        {
          "internalType": "uint256[]",
          "name": "feePeriodIDs",
          "type": "uint256[]"
        }
      ],
      "name": "importFeeWithdrawalData",
      "outputs": [],
      "stateMutability": "nonpayable",
      "type": "function"
    },
    {
      "inputs": [
        {
          "internalType": "address",
          "name": "_owner",
          "type": "address"
        }
      ],
      "name": "nominateNewOwner",
      "outputs": [],
      "stateMutability": "nonpayable",
      "type": "function"
    },
    {
      "inputs": [],
      "name": "nominatedOwner",
      "outputs": [
        {
          "internalType": "address",
          "name": "",
          "type": "address"
        }
      ],
      "stateMutability": "view",
      "type": "function"
    },
    {
      "inputs": [],
      "name": "owner",
      "outputs": [
        {
          "internalType": "address",
          "name": "",
          "type": "address"
        }
      ],
      "stateMutability": "view",
      "type": "function"
    },
    {
      "inputs": [
        {
          "internalType": "bytes32",
          "name": "record",
          "type": "bytes32"
        },
        {
          "internalType": "address",
          "name": "value",
          "type": "address"
        }
      ],
      "name": "setAddressValue",
      "outputs": [],
      "stateMutability": "nonpayable",
      "type": "function"
    },
    {
      "inputs": [
        {
          "internalType": "address",
          "name": "_associatedContract",
          "type": "address"
        }
      ],
      "name": "setAssociatedContract",
      "outputs": [],
      "stateMutability": "nonpayable",
      "type": "function"
    },
    {
      "inputs": [
        {
          "internalType": "bytes32",
          "name": "record",
          "type": "bytes32"
        },
        {
          "internalType": "bool",
          "name": "value",
          "type": "bool"
        }
      ],
      "name": "setBooleanValue",
      "outputs": [],
      "stateMutability": "nonpayable",
      "type": "function"
    },
    {
      "inputs": [
        {
          "internalType": "bytes32",
          "name": "record",
          "type": "bytes32"
        },
        {
          "internalType": "bytes32",
          "name": "value",
          "type": "bytes32"
        }
      ],
      "name": "setBytes32Value",
      "outputs": [],
      "stateMutability": "nonpayable",
      "type": "function"
    },
    {
      "inputs": [
        {
          "internalType": "bytes32",
          "name": "record",
          "type": "bytes32"
        },
        {
          "internalType": "bytes",
          "name": "value",
          "type": "bytes"
        }
      ],
      "name": "setBytesValue",
      "outputs": [],
      "stateMutability": "nonpayable",
      "type": "function"
    },
    {
      "inputs": [
        {
          "internalType": "bytes32",
          "name": "record",
          "type": "bytes32"
        },
        {
          "internalType": "int256",
          "name": "value",
          "type": "int256"
        }
      ],
      "name": "setIntValue",
      "outputs": [],
      "stateMutability": "nonpayable",
      "type": "function"
    },
    {
      "inputs": [
        {
          "internalType": "bytes32",
          "name": "record",
          "type": "bytes32"
        },
        {
          "internalType": "string",
          "name": "value",
          "type": "string"
        }
      ],
      "name": "setStringValue",
      "outputs": [],
      "stateMutability": "nonpayable",
      "type": "function"
    },
    {
      "inputs": [
        {
          "internalType": "bytes32",
          "name": "record",
          "type": "bytes32"
        },
        {
          "internalType": "uint256",
          "name": "value",
          "type": "uint256"
        }
      ],
      "name": "setUIntValue",
      "outputs": [],
      "stateMutability": "nonpayable",
      "type": "function"
    }
  ],
  "bytecode": "0x60806040523480156200001157600080fd5b50604051620014363803806200143683398101604081905262000034916200017d565b62375f0082828181816001600160a01b038116620000985760405162461bcd60e51b815260206004820152601960248201527f4f776e657220616464726573732063616e6e6f74206265203000000000000000604482015260640160405180910390fd5b600080546001600160a01b0319166001600160a01b03831690811782556040805192835260208301919091527fb532073b38c83145e3e5135377a08bf9aab55bc0fd7c1179cd4fb995d2a5159c910160405180910390a150600280546001600160a01b0319166001600160a01b0383169081179091556040519081527f73f20cff579e8a4086fa607db83867595f1b6a798e718c0bfa0b94a404128e039060200160405180910390a1505050508042620001539190620001b4565b600a5550620001d9915050565b80516001600160a01b03811681146200017857600080fd5b919050565b6000806040838503121562000190578182fd5b6200019b8362000160565b9150620001ab6020840162000160565b90509250929050565b60008219821115620001d457634e487b7160e01b81526011600452602481fd5b500190565b61124d80620001e96000396000f3fe608060405234801561001057600080fd5b50600436106101c45760003560e01c80635a2bf25a116100f9578063a77aa49e11610097578063ba69fcaa11610071578063ba69fcaa14610410578063bdc963d814610423578063c9a52d2c14610443578063f58660661461045657600080fd5b8063a77aa49e146103d7578063aefc4ccb146103ea578063b3ffbd9e146103fd57600080fd5b80638da5cb5b116100d35780638da5cb5b1461037e5780639007127b1461039157806393fe4248146103b1578063a209a29c146103c457600080fd5b80635a2bf25a1461035057806379ba5097146103635780638267a9ee1461036b57600080fd5b80633562fd201161016657806344bfa56e1161014057806344bfa56e146102c95780634c77e5ba146102e957806352f445ca1461032a57806353a47bb71461033d57600080fd5b80633562fd20146102905780633cc1635c146102a35780633eba9ed2146102b657600080fd5b8063124f2418116101a2578063124f2418146102245780631627540c1461023757806317e7dd221461024a57806325cf512d1461027d57600080fd5b8063025ec81a146101c9578063043106c0146101fc5780630c55d92514610211575b600080fd5b6101e96101d7366004610f5f565b60009081526007602052604090205490565b6040519081526020015b60405180910390f35b61020f61020a366004610f5f565b610469565b005b61020f61021f366004610f5f565b6104ba565b61020f610232366004610f5f565b6104fe565b61020f610245366004610e7d565b610539565b61026d610258366004610f5f565b60009081526008602052604090205460ff1690565b60405190151581526020016101f3565b61020f61028b366004610fd5565b6105b8565b61020f61029e366004610fd5565b6105f4565b61020f6102b1366004610f5f565b610630565b61020f6102c4366004610fa2565b610672565b6102dc6102d7366004610f5f565b6106bc565b6040516101f3919061108f565b6103126102f7366004610f5f565b6000908152600560205260409020546001600160a01b031690565b6040516001600160a01b0390911681526020016101f3565b61020f610338366004610e7d565b61075e565b600154610312906001600160a01b031681565b61020f61035e366004610f77565b6107d6565b61020f61082e565b61020f610379366004610f5f565b610918565b600054610312906001600160a01b031681565b6101e961039f366004610f5f565b60009081526009602052604090205490565b61020f6103bf366004610f5f565b610953565b6102dc6103d2366004610f5f565b61098e565b61020f6103e5366004610fd5565b6109ab565b600254610312906001600160a01b031681565b61020f61040b366004610e9e565b6109e7565b61020f61041e366004610f5f565b610bf4565b6101e9610431366004610f5f565b60009081526003602052604090205490565b61020f610451366004610ff6565b610c35565b61020f610464366004610ff6565b610c7e565b6002546001600160a01b0316331461049c5760405162461bcd60e51b8152600401610493906110f1565b60405180910390fd5b600090815260056020526040902080546001600160a01b0319169055565b6002546001600160a01b031633146104e45760405162461bcd60e51b8152600401610493906110f1565b60008181526006602052604081206104fb91610cc7565b50565b6002546001600160a01b031633146105285760405162461bcd60e51b8152600401610493906110f1565b600090815260076020526040812055565b6000546001600160a01b031633146105635760405162461bcd60e51b8152600401610493906110a2565b600180546001600160a01b0319166001600160a01b0383169081179091556040519081527f906a1c6bd7e3091ea86693dd029a831c19049ce77f1dce2ce0bab1cacbabce22906020015b60405180910390a150565b6002546001600160a01b031633146105e25760405162461bcd60e51b8152600401610493906110f1565b60009182526007602052604090912055565b6002546001600160a01b0316331461061e5760405162461bcd60e51b8152600401610493906110f1565b60009182526003602052604090912055565b6002546001600160a01b0316331461065a5760405162461bcd60e51b8152600401610493906110f1565b6000908152600860205260409020805460ff19169055565b6002546001600160a01b0316331461069c5760405162461bcd60e51b8152600401610493906110f1565b600091825260086020526040909120805460ff1916911515919091179055565b60008181526006602052604090208054606091906106d99061119a565b80601f01602080910402602001604051908101604052809291908181526020018280546107059061119a565b80156107525780601f1061072757610100808354040283529160200191610752565b820191906000526020600020905b81548152906001019060200180831161073557829003601f168201915b50505050509050919050565b6000546001600160a01b031633146107885760405162461bcd60e51b8152600401610493906110a2565b600280546001600160a01b0319166001600160a01b0383169081179091556040519081527f73f20cff579e8a4086fa607db83867595f1b6a798e718c0bfa0b94a404128e03906020016105ad565b6002546001600160a01b031633146108005760405162461bcd60e51b8152600401610493906110f1565b60009182526005602052604090912080546001600160a01b0319166001600160a01b03909216919091179055565b6001546001600160a01b031633146108a65760405162461bcd60e51b815260206004820152603560248201527f596f75206d757374206265206e6f6d696e61746564206265666f726520796f7560448201527402063616e20616363657074206f776e65727368697605c1b6064820152608401610493565b600054600154604080516001600160a01b0393841681529290911660208301527fb532073b38c83145e3e5135377a08bf9aab55bc0fd7c1179cd4fb995d2a5159c910160405180910390a160018054600080546001600160a01b03199081166001600160a01b03841617909155169055565b6002546001600160a01b031633146109425760405162461bcd60e51b8152600401610493906110f1565b600090815260096020526040812055565b6002546001600160a01b0316331461097d5760405162461bcd60e51b8152600401610493906110f1565b600090815260036020526040812055565b60008181526004602052604090208054606091906106d99061119a565b6002546001600160a01b031633146109d55760405162461bcd60e51b8152600401610493906110f1565b60009182526009602052604090912055565b6000546001600160a01b03163314610a115760405162461bcd60e51b8152600401610493906110a2565b600a544210610a745760405162461bcd60e51b815260206004820152602960248201527f43616e206f6e6c7920706572666f726d207468697320616374696f6e206475726044820152680696e672073657475760bc1b6064820152608401610493565b8051825114610ab75760405162461bcd60e51b815260206004820152600f60248201526e098cadccee8d040dad2e6dac2e8c6d608b1b6044820152606401610493565b60005b82518160ff161015610bef57306001600160a01b0316633562fd20721b185cdd17d9995957ddda5d1a191c985dd85b606a1b858460ff1681518110610b0f57634e487b7160e01b600052603260045260246000fd5b6020026020010151604051602001610b4392919091825260601b6bffffffffffffffffffffffff1916602082015260340190565b60405160208183030381529060405280519060200120848460ff1681518110610b7c57634e487b7160e01b600052603260045260246000fd5b60200260200101516040518363ffffffff1660e01b8152600401610baa929190918252602082015260400190565b600060405180830381600087803b158015610bc457600080fd5b505af1158015610bd8573d6000803e3d6000fd5b505050508080610be7906111d5565b915050610aba565b505050565b6002546001600160a01b03163314610c1e5760405162461bcd60e51b8152600401610493906110f1565b60008181526004602052604081206104fb91610cc7565b6002546001600160a01b03163314610c5f5760405162461bcd60e51b8152600401610493906110f1565b60008281526006602090815260409091208251610bef92840190610d01565b6002546001600160a01b03163314610ca85760405162461bcd60e51b8152600401610493906110f1565b60008281526004602090815260409091208251610bef92840190610d01565b508054610cd39061119a565b6000825580601f10610ce3575050565b601f0160209004906000526020600020908101906104fb9190610d85565b828054610d0d9061119a565b90600052602060002090601f016020900481019282610d2f5760008555610d75565b82601f10610d4857805160ff1916838001178555610d75565b82800160010185558215610d75579182015b82811115610d75578251825591602001919060010190610d5a565b50610d81929150610d85565b5090565b5b80821115610d815760008155600101610d86565b600067ffffffffffffffff831115610db457610db4611201565b610dc7601f8401601f1916602001611145565b9050828152838383011115610ddb57600080fd5b828260208301376000602084830101529392505050565b80356001600160a01b0381168114610e0957600080fd5b919050565b600082601f830112610e1e578081fd5b81356020610e33610e2e83611176565b611145565b80838252828201915082860187848660051b8901011115610e52578586fd5b855b85811015610e7057813584529284019290840190600101610e54565b5090979650505050505050565b600060208284031215610e8e578081fd5b610e9782610df2565b9392505050565b60008060408385031215610eb0578081fd5b823567ffffffffffffffff80821115610ec7578283fd5b818501915085601f830112610eda578283fd5b81356020610eea610e2e83611176565b8083825282820191508286018a848660051b8901011115610f09578788fd5b8796505b84871015610f3257610f1e81610df2565b835260019690960195918301918301610f0d565b5096505086013592505080821115610f48578283fd5b50610f5585828601610e0e565b9150509250929050565b600060208284031215610f70578081fd5b5035919050565b60008060408385031215610f89578182fd5b82359150610f9960208401610df2565b90509250929050565b60008060408385031215610fb4578182fd5b8235915060208301358015158114610fca578182fd5b809150509250929050565b60008060408385031215610fe7578182fd5b50508035926020909101359150565b60008060408385031215611008578182fd5b82359150602083013567ffffffffffffffff811115611025578182fd5b8301601f81018513611035578182fd5b610f5585823560208401610d9a565b60008151808452815b818110156110695760208185018101518683018201520161104d565b8181111561107a5782602083870101525b50601f01601f19169290920160200192915050565b602081526000610e976020830184611044565b6020808252602f908201527f4f6e6c792074686520636f6e7472616374206f776e6572206d6179207065726660408201526e37b936903a3434b99030b1ba34b7b760891b606082015260800190565b60208082526034908201527f4f6e6c7920746865206173736f63696174656420636f6e74726163742063616e604082015273103832b93337b936903a3434b99030b1ba34b7b760611b606082015260800190565b604051601f8201601f1916810167ffffffffffffffff8111828210171561116e5761116e611201565b604052919050565b600067ffffffffffffffff82111561119057611190611201565b5060051b60200190565b600181811c908216806111ae57607f821691505b602082108114156111cf57634e487b7160e01b600052602260045260246000fd5b50919050565b600060ff821660ff8114156111f857634e487b7160e01b82526011600452602482fd5b60010192915050565b634e487b7160e01b600052604160045260246000fdfea2646970667358221220781088733b08fb225b6ff113f9af297c6e76db14e33a1096d37c2a0a5fc6a02e64736f6c63430008040033",
  "linkReferences": {},
  "deployedLinkReferences": {}
}