{
  "_format": "hh-sol-artifact-1",
  "contractName": "Proxy",
  "sourceName": "contracts/Proxy.sol",
  "abi": [
    {
      "inputs": [
        {
          "internalType": "address",
          "name": "_owner",
          "type": "address"
        }
      ],
      "stateMutability": "nonpayable",
      "type": "constructor"
    },
    {
      "anonymous": false,
      "inputs": [
        {
          "indexed": false,
          "internalType": "address",
          "name": "oldOwner",
          "type": "address"
        },
        {
          "indexed": false,
          "internalType": "address",
          "name": "newOwner",
          "type": "address"
        }
      ],
      "name": "OwnerChanged",
      "type": "event"
    },
    {
      "anonymous": false,
      "inputs": [
        {
          "indexed": false,
          "internalType": "address",
          "name": "newOwner",
          "type": "address"
        }
      ],
      "name": "OwnerNominated",
      "type": "event"
    },
    {
      "anonymous": false,
      "inputs": [
        {
          "indexed": false,
          "internalType": "contract Proxyable",
          "name": "newTarget",
          "type": "address"
        }
      ],
      "name": "TargetUpdated",
      "type": "event"
    },
    {
      "stateMutability": "payable",
      "type": "fallback"
    },
    {
      "inputs": [
        {
          "internalType": "bytes",
          "name": "callData",
          "type": "bytes"
        },
        {
          "internalType": "uint256",
          "name": "numTopics",
          "type": "uint256"
        },
        {
          "internalType": "bytes32",
          "name": "topic1",
          "type": "bytes32"
        },
        {
          "internalType": "bytes32",
          "name": "topic2",
          "type": "bytes32"
        },
        {
          "internalType": "bytes32",
          "name": "topic3",
          "type": "bytes32"
        },
        {
          "internalType": "bytes32",
          "name": "topic4",
          "type": "bytes32"
        }
      ],
      "name": "_emit",
      "outputs": [],
      "stateMutability": "nonpayable",
      "type": "function"
    },
    {
      "inputs": [],
      "name": "acceptOwnership",
      "outputs": [],
      "stateMutability": "nonpayable",
      "type": "function"
    },
    {
      "inputs": [
        {
          "internalType": "address",
          "name": "_owner",
          "type": "address"
        }
      ],
      "name": "nominateNewOwner",
      "outputs": [],
      "stateMutability": "nonpayable",
      "type": "function"
    },
    {
      "inputs": [],
      "name": "nominatedOwner",
      "outputs": [
        {
          "internalType": "address",
          "name": "",
          "type": "address"
        }
      ],
      "stateMutability": "view",
      "type": "function"
    },
    {
      "inputs": [],
      "name": "owner",
      "outputs": [
        {
          "internalType": "address",
          "name": "",
          "type": "address"
        }
      ],
      "stateMutability": "view",
      "type": "function"
    },
    {
      "inputs": [
        {
          "internalType": "contract Proxyable",
          "name": "_target",
          "type": "address"
        }
      ],
      "name": "setTarget",
      "outputs": [],
      "stateMutability": "nonpayable",
      "type": "function"
    },
    {
      "inputs": [
        {
          "internalType": "bool",
          "name": "value",
          "type": "bool"
        }
      ],
      "name": "setUseDELEGATECALL",
      "outputs": [],
      "stateMutability": "nonpayable",
      "type": "function"
    },
    {
      "inputs": [],
      "name": "target",
      "outputs": [
        {
          "internalType": "contract Proxyable",
          "name": "",
          "type": "address"
        }
      ],
      "stateMutability": "view",
      "type": "function"
    },
    {
      "inputs": [],
      "name": "useDELEGATECALL",
      "outputs": [
        {
          "internalType": "bool",
          "name": "",
          "type": "bool"
        }
      ],
      "stateMutability": "view",
      "type": "function"
    }
  ],
  "bytecode": "0x60806040523480156200001157600080fd5b50604051620011ac380380620011ac833981810160405281019062000037919062000146565b80600073ffffffffffffffffffffffffffffffffffffffff168173ffffffffffffffffffffffffffffffffffffffff161415620000ab576040517f08c379a0000000000000000000000000000000000000000000000000000000008152600401620000a290620001d7565b60405180910390fd5b806000806101000a81548173ffffffffffffffffffffffffffffffffffffffff021916908373ffffffffffffffffffffffffffffffffffffffff1602179055507fb532073b38c83145e3e5135377a08bf9aab55bc0fd7c1179cd4fb995d2a5159c6000826040516200011f929190620001aa565b60405180910390a1505062000281565b600081519050620001408162000267565b92915050565b6000602082840312156200015957600080fd5b600062000169848285016200012f565b91505092915050565b6200017d816200020a565b82525050565b600062000192601983620001f9565b91506200019f826200023e565b602082019050919050565b6000604082019050620001c1600083018562000172565b620001d0602083018462000172565b9392505050565b60006020820190508181036000830152620001f28162000183565b9050919050565b600082825260208201905092915050565b600062000217826200021e565b9050919050565b600073ffffffffffffffffffffffffffffffffffffffff82169050919050565b7f4f776e657220616464726573732063616e6e6f74206265203000000000000000600082015250565b62000272816200020a565b81146200027e57600080fd5b50565b610f1b80620002916000396000f3fe60806040526004361061008a5760003560e01c80638da5cb5b116100595780638da5cb5b1461020a578063907dff971461023557806395578ebd1461025e578063befff6af14610289578063d4b83992146102b25761008b565b80631627540c1461017657806353a47bb71461019f578063776d1a01146101ca57806379ba5097146101f35761008b565b5b600260149054906101000a900460ff16156100c457604051366000823760008036836002545af43d6000833e806100c0573d82fd5b3d82f35b600260009054906101000a900473ffffffffffffffffffffffffffffffffffffffff1673ffffffffffffffffffffffffffffffffffffffff1663bc67f832336040518263ffffffff1660e01b815260040161011f9190610b62565b600060405180830381600087803b15801561013957600080fd5b505af115801561014d573d6000803e3d6000fd5b5050505060405136600082376000803683346002545af13d6000833e80610172573d82fd5b3d82f35b34801561018257600080fd5b5061019d600480360381019061019891906109b0565b6102dd565b005b3480156101ab57600080fd5b506101b46103e6565b6040516101c19190610b62565b60405180910390f35b3480156101d657600080fd5b506101f160048036038101906101ec9190610aa3565b61040c565b005b3480156101ff57600080fd5b50610208610515565b005b34801561021657600080fd5b5061021f6106c6565b60405161022c9190610b62565b60405180910390f35b34801561024157600080fd5b5061025c60048036038101906102579190610a02565b6106ea565b005b34801561026a57600080fd5b506102736107fb565b6040516102809190610ba6565b60405180910390f35b34801561029557600080fd5b506102b060048036038101906102ab91906109d9565b61080e565b005b3480156102be57600080fd5b506102c76108b9565b6040516102d49190610bc1565b60405180910390f35b60008054906101000a900473ffffffffffffffffffffffffffffffffffffffff1673ffffffffffffffffffffffffffffffffffffffff163373ffffffffffffffffffffffffffffffffffffffff161461036b576040517f08c379a000000000000000000000000000000000000000000000000000000000815260040161036290610c1c565b60405180910390fd5b80600160006101000a81548173ffffffffffffffffffffffffffffffffffffffff021916908373ffffffffffffffffffffffffffffffffffffffff1602179055507f906a1c6bd7e3091ea86693dd029a831c19049ce77f1dce2ce0bab1cacbabce22816040516103db9190610b62565b60405180910390a150565b600160009054906101000a900473ffffffffffffffffffffffffffffffffffffffff1681565b60008054906101000a900473ffffffffffffffffffffffffffffffffffffffff1673ffffffffffffffffffffffffffffffffffffffff163373ffffffffffffffffffffffffffffffffffffffff161461049a576040517f08c379a000000000000000000000000000000000000000000000000000000000815260040161049190610c1c565b60405180910390fd5b80600260006101000a81548173ffffffffffffffffffffffffffffffffffffffff021916908373ffffffffffffffffffffffffffffffffffffffff1602179055507f814250a3b8c79fcbe2ead2c131c952a278491c8f4322a79fe84b5040a810373e8160405161050a9190610bc1565b60405180910390a150565b600160009054906101000a900473ffffffffffffffffffffffffffffffffffffffff1673ffffffffffffffffffffffffffffffffffffffff163373ffffffffffffffffffffffffffffffffffffffff16146105a5576040517f08c379a000000000000000000000000000000000000000000000000000000000815260040161059c90610bdc565b60405180910390fd5b7fb532073b38c83145e3e5135377a08bf9aab55bc0fd7c1179cd4fb995d2a5159c60008054906101000a900473ffffffffffffffffffffffffffffffffffffffff16600160009054906101000a900473ffffffffffffffffffffffffffffffffffffffff16604051610618929190610b7d565b60405180910390a1600160009054906101000a900473ffffffffffffffffffffffffffffffffffffffff166000806101000a81548173ffffffffffffffffffffffffffffffffffffffff021916908373ffffffffffffffffffffffffffffffffffffffff1602179055506000600160006101000a81548173ffffffffffffffffffffffffffffffffffffffff021916908373ffffffffffffffffffffffffffffffffffffffff160217905550565b60008054906101000a900473ffffffffffffffffffffffffffffffffffffffff1681565b600260009054906101000a900473ffffffffffffffffffffffffffffffffffffffff1673ffffffffffffffffffffffffffffffffffffffff163373ffffffffffffffffffffffffffffffffffffffff161461077a576040517f08c379a000000000000000000000000000000000000000000000000000000000815260040161077190610bfc565b60405180910390fd5b600086519050600087905086600081146107b357600181146107be57600281146107ca57600381146107d757600481146107e5576107f0565b8260208301a06107f0565b868360208401a16107f0565b85878460208501a26107f0565b8486888560208601a36107f0565b838587898660208701a45b505050505050505050565b600260149054906101000a900460ff1681565b60008054906101000a900473ffffffffffffffffffffffffffffffffffffffff1673ffffffffffffffffffffffffffffffffffffffff163373ffffffffffffffffffffffffffffffffffffffff161461089c576040517f08c379a000000000000000000000000000000000000000000000000000000000815260040161089390610c1c565b60405180910390fd5b80600260146101000a81548160ff02191690831515021790555050565b600260009054906101000a900473ffffffffffffffffffffffffffffffffffffffff1681565b60006108f26108ed84610c61565b610c3c565b90508281526020810184848401111561090a57600080fd5b610915848285610d2b565b509392505050565b60008135905061092c81610e72565b92915050565b60008135905061094181610e89565b92915050565b60008135905061095681610ea0565b92915050565b600082601f83011261096d57600080fd5b813561097d8482602086016108df565b91505092915050565b60008135905061099581610eb7565b92915050565b6000813590506109aa81610ece565b92915050565b6000602082840312156109c257600080fd5b60006109d08482850161091d565b91505092915050565b6000602082840312156109eb57600080fd5b60006109f984828501610932565b91505092915050565b60008060008060008060c08789031215610a1b57600080fd5b600087013567ffffffffffffffff811115610a3557600080fd5b610a4189828a0161095c565b9650506020610a5289828a0161099b565b9550506040610a6389828a01610947565b9450506060610a7489828a01610947565b9350506080610a8589828a01610947565b92505060a0610a9689828a01610947565b9150509295509295509295565b600060208284031215610ab557600080fd5b6000610ac384828501610986565b91505092915050565b610ad581610ca3565b82525050565b610ae481610cb5565b82525050565b610af381610d07565b82525050565b6000610b06603583610c92565b9150610b1182610dab565b604082019050919050565b6000610b29601483610c92565b9150610b3482610dfa565b602082019050919050565b6000610b4c602f83610c92565b9150610b5782610e23565b604082019050919050565b6000602082019050610b776000830184610acc565b92915050565b6000604082019050610b926000830185610acc565b610b9f6020830184610acc565b9392505050565b6000602082019050610bbb6000830184610adb565b92915050565b6000602082019050610bd66000830184610aea565b92915050565b60006020820190508181036000830152610bf581610af9565b9050919050565b60006020820190508181036000830152610c1581610b1c565b9050919050565b60006020820190508181036000830152610c3581610b3f565b9050919050565b6000610c46610c57565b9050610c528282610d3a565b919050565b6000604051905090565b600067ffffffffffffffff821115610c7c57610c7b610d6b565b5b610c8582610d9a565b9050602081019050919050565b600082825260208201905092915050565b6000610cae82610cdd565b9050919050565b60008115159050919050565b6000819050919050565b6000610cd682610ca3565b9050919050565b600073ffffffffffffffffffffffffffffffffffffffff82169050919050565b6000819050919050565b6000610d1282610d19565b9050919050565b6000610d2482610cdd565b9050919050565b82818337600083830152505050565b610d4382610d9a565b810181811067ffffffffffffffff82111715610d6257610d61610d6b565b5b80604052505050565b7f4e487b7100000000000000000000000000000000000000000000000000000000600052604160045260246000fd5b6000601f19601f8301169050919050565b7f596f75206d757374206265206e6f6d696e61746564206265666f726520796f7560008201527f2063616e20616363657074206f776e6572736869700000000000000000000000602082015250565b7f4d7573742062652070726f787920746172676574000000000000000000000000600082015250565b7f4f6e6c792074686520636f6e7472616374206f776e6572206d6179207065726660008201527f6f726d207468697320616374696f6e0000000000000000000000000000000000602082015250565b610e7b81610ca3565b8114610e8657600080fd5b50565b610e9281610cb5565b8114610e9d57600080fd5b50565b610ea981610cc1565b8114610eb457600080fd5b50565b610ec081610ccb565b8114610ecb57600080fd5b50565b610ed781610cfd565b8114610ee257600080fd5b5056fea2646970667358221220a0bc0509eeb9b811d5330150c60d8c58e9e4f97270f2f11d4d7dfc3217a943b064736f6c63430008040033",
  "linkReferences": {},
  "deployedLinkReferences": {}
}