{
  "_format": "hh-sol-artifact-1",
  "contractName": "Proxy",
  "sourceName": "contracts/Proxy.sol",
  "abi": [
    {
      "inputs": [
        {
          "internalType": "address",
          "name": "_owner",
          "type": "address"
        }
      ],
      "stateMutability": "nonpayable",
      "type": "constructor"
    },
    {
      "anonymous": false,
      "inputs": [
        {
          "indexed": false,
          "internalType": "address",
          "name": "oldOwner",
          "type": "address"
        },
        {
          "indexed": false,
          "internalType": "address",
          "name": "newOwner",
          "type": "address"
        }
      ],
      "name": "OwnerChanged",
      "type": "event"
    },
    {
      "anonymous": false,
      "inputs": [
        {
          "indexed": false,
          "internalType": "address",
          "name": "newOwner",
          "type": "address"
        }
      ],
      "name": "OwnerNominated",
      "type": "event"
    },
    {
      "anonymous": false,
      "inputs": [
        {
          "indexed": false,
          "internalType": "contract Proxyable",
          "name": "newTarget",
          "type": "address"
        }
      ],
      "name": "TargetUpdated",
      "type": "event"
    },
    {
      "stateMutability": "payable",
      "type": "fallback"
    },
    {
      "inputs": [
        {
          "internalType": "bytes",
          "name": "callData",
          "type": "bytes"
        },
        {
          "internalType": "uint256",
          "name": "numTopics",
          "type": "uint256"
        },
        {
          "internalType": "bytes32",
          "name": "topic1",
          "type": "bytes32"
        },
        {
          "internalType": "bytes32",
          "name": "topic2",
          "type": "bytes32"
        },
        {
          "internalType": "bytes32",
          "name": "topic3",
          "type": "bytes32"
        },
        {
          "internalType": "bytes32",
          "name": "topic4",
          "type": "bytes32"
        }
      ],
      "name": "_emit",
      "outputs": [],
      "stateMutability": "nonpayable",
      "type": "function"
    },
    {
      "inputs": [],
      "name": "acceptOwnership",
      "outputs": [],
      "stateMutability": "nonpayable",
      "type": "function"
    },
    {
      "inputs": [
        {
          "internalType": "address",
          "name": "_owner",
          "type": "address"
        }
      ],
      "name": "nominateNewOwner",
      "outputs": [],
      "stateMutability": "nonpayable",
      "type": "function"
    },
    {
      "inputs": [],
      "name": "nominatedOwner",
      "outputs": [
        {
          "internalType": "address",
          "name": "",
          "type": "address"
        }
      ],
      "stateMutability": "view",
      "type": "function"
    },
    {
      "inputs": [],
      "name": "owner",
      "outputs": [
        {
          "internalType": "address",
          "name": "",
          "type": "address"
        }
      ],
      "stateMutability": "view",
      "type": "function"
    },
    {
      "inputs": [
        {
          "internalType": "contract Proxyable",
          "name": "_target",
          "type": "address"
        }
      ],
      "name": "setTarget",
      "outputs": [],
      "stateMutability": "nonpayable",
      "type": "function"
    },
    {
      "inputs": [
        {
          "internalType": "bool",
          "name": "value",
          "type": "bool"
        }
      ],
      "name": "setUseDELEGATECALL",
      "outputs": [],
      "stateMutability": "nonpayable",
      "type": "function"
    },
    {
      "inputs": [],
      "name": "target",
      "outputs": [
        {
          "internalType": "contract Proxyable",
          "name": "",
          "type": "address"
        }
      ],
      "stateMutability": "view",
      "type": "function"
    },
    {
      "inputs": [],
      "name": "useDELEGATECALL",
      "outputs": [
        {
          "internalType": "bool",
          "name": "",
          "type": "bool"
        }
      ],
      "stateMutability": "view",
      "type": "function"
    }
  ],
  "bytecode": "0x608060405234801561001057600080fd5b5060405161086938038061086983398101604081905261002f916100e8565b806001600160a01b03811661008a5760405162461bcd60e51b815260206004820152601960248201527f4f776e657220616464726573732063616e6e6f74206265203000000000000000604482015260640160405180910390fd5b600080546001600160a01b0319166001600160a01b03831690811782556040805192835260208301919091527fb532073b38c83145e3e5135377a08bf9aab55bc0fd7c1179cd4fb995d2a5159c910160405180910390a15050610116565b6000602082840312156100f9578081fd5b81516001600160a01b038116811461010f578182fd5b9392505050565b610744806101256000396000f3fe6080604052600436106100865760003560e01c80638da5cb5b116100595780638da5cb5b146101cf578063907dff97146101ef57806395578ebd1461020f578063befff6af14610240578063d4b839921461026057610086565b80631627540c1461013d57806353a47bb71461015d578063776d1a011461019a57806379ba5097146101ba575b600254600160a01b900460ff16156100bd57604051366000823760008036836002545af43d6000833e806100b8573d82fd5b503d81f35b600254604051635e33fc1960e11b81523360048201526001600160a01b039091169063bc67f83290602401600060405180830381600087803b15801561010257600080fd5b505af1158015610116573d6000803e3d6000fd5b5050505060405136600082376000803683346002545af13d6000833e806100b8573d82fd5b005b34801561014957600080fd5b5061013b61015836600461057a565b610280565b34801561016957600080fd5b5060015461017d906001600160a01b031681565b6040516001600160a01b0390911681526020015b60405180910390f35b3480156101a657600080fd5b5061013b6101b536600461057a565b610308565b3480156101c657600080fd5b5061013b610380565b3480156101db57600080fd5b5060005461017d906001600160a01b031681565b3480156101fb57600080fd5b5061013b61020a3660046105bd565b61046a565b34801561021b57600080fd5b5060025461023090600160a01b900460ff1681565b6040519015158152602001610191565b34801561024c57600080fd5b5061013b61025b36600461059d565b610532565b34801561026c57600080fd5b5060025461017d906001600160a01b031681565b6000546001600160a01b031633146102b35760405162461bcd60e51b81526004016102aa90610691565b60405180910390fd5b600180546001600160a01b0319166001600160a01b0383169081179091556040519081527f906a1c6bd7e3091ea86693dd029a831c19049ce77f1dce2ce0bab1cacbabce22906020015b60405180910390a150565b6000546001600160a01b031633146103325760405162461bcd60e51b81526004016102aa90610691565b600280546001600160a01b0319166001600160a01b0383169081179091556040519081527f814250a3b8c79fcbe2ead2c131c952a278491c8f4322a79fe84b5040a810373e906020016102fd565b6001546001600160a01b031633146103f85760405162461bcd60e51b815260206004820152603560248201527f596f75206d757374206265206e6f6d696e61746564206265666f726520796f7560448201527402063616e20616363657074206f776e65727368697605c1b60648201526084016102aa565b600054600154604080516001600160a01b0393841681529290911660208301527fb532073b38c83145e3e5135377a08bf9aab55bc0fd7c1179cd4fb995d2a5159c910160405180910390a160018054600080546001600160a01b03199081166001600160a01b03841617909155169055565b6002546001600160a01b031633146104bb5760405162461bcd60e51b8152602060048201526014602482015273135d5cdd081899481c1c9bde1e481d185c99d95d60621b60448201526064016102aa565b8551868680156104ea57600181146104f55760028114610501576003811461050e576004811461051c57610527565b8260208301a0610527565b868360208401a1610527565b85878460208501a2610527565b8486888560208601a3610527565b838587898660208701a45b505050505050505050565b6000546001600160a01b0316331461055c5760405162461bcd60e51b81526004016102aa90610691565b60028054911515600160a01b0260ff60a01b19909216919091179055565b60006020828403121561058b578081fd5b8135610596816106f6565b9392505050565b6000602082840312156105ae578081fd5b81358015158114610596578182fd5b60008060008060008060c087890312156105d5578182fd5b863567ffffffffffffffff808211156105ec578384fd5b818901915089601f8301126105ff578384fd5b813581811115610611576106116106e0565b604051601f8201601f19908116603f01168101908382118183101715610639576106396106e0565b816040528281528c6020848701011115610651578687fd5b82602086016020830137918201602090810196909652509a9389013599505050604087013596606081013596506080810135955060a00135935090915050565b6020808252602f908201527f4f6e6c792074686520636f6e7472616374206f776e6572206d6179207065726660408201526e37b936903a3434b99030b1ba34b7b760891b606082015260800190565b634e487b7160e01b600052604160045260246000fd5b6001600160a01b038116811461070b57600080fd5b5056fea2646970667358221220881165e063ea4c27f3f05c28b535368110f437f0f6fdc2592ba66b75ff99404f64736f6c63430008040033",
  "linkReferences": {},
  "deployedLinkReferences": {}
}