{
  "_format": "hh-sol-artifact-1",
  "contractName": "PurgeableSynth",
  "sourceName": "contracts/PurgeableSynth.sol",
  "abi": [
    {
      "inputs": [
        {
          "internalType": "address",
          "name": "_proxy",
          "type": "address"
        },
        {
          "internalType": "contract TokenState",
          "name": "_tokenState",
          "type": "address"
        },
        {
          "internalType": "contract Synthetix",
          "name": "_synthetix",
          "type": "address"
        },
        {
          "internalType": "contract IFeePool",
          "name": "_feePool",
          "type": "address"
        },
        {
          "internalType": "string",
          "name": "_tokenName",
          "type": "string"
        },
        {
          "internalType": "string",
          "name": "_tokenSymbol",
          "type": "string"
        },
        {
          "internalType": "address",
          "name": "_owner",
          "type": "address"
        },
        {
          "internalType": "bytes4",
          "name": "_currencyKey",
          "type": "bytes4"
        },
        {
          "internalType": "contract ExchangeRates",
          "name": "_exchangeRates",
          "type": "address"
        }
      ],
      "stateMutability": "nonpayable",
      "type": "constructor"
    },
    {
      "anonymous": false,
      "inputs": [
        {
          "indexed": true,
          "internalType": "address",
          "name": "owner",
          "type": "address"
        },
        {
          "indexed": true,
          "internalType": "address",
          "name": "spender",
          "type": "address"
        },
        {
          "indexed": false,
          "internalType": "uint256",
          "name": "value",
          "type": "uint256"
        }
      ],
      "name": "Approval",
      "type": "event"
    },
    {
      "anonymous": false,
      "inputs": [
        {
          "indexed": true,
          "internalType": "address",
          "name": "account",
          "type": "address"
        },
        {
          "indexed": false,
          "internalType": "uint256",
          "name": "value",
          "type": "uint256"
        }
      ],
      "name": "Burned",
      "type": "event"
    },
    {
      "anonymous": false,
      "inputs": [
        {
          "indexed": false,
          "internalType": "address",
          "name": "newFeePool",
          "type": "address"
        }
      ],
      "name": "FeePoolUpdated",
      "type": "event"
    },
    {
      "anonymous": false,
      "inputs": [
        {
          "indexed": true,
          "internalType": "address",
          "name": "account",
          "type": "address"
        },
        {
          "indexed": false,
          "internalType": "uint256",
          "name": "value",
          "type": "uint256"
        }
      ],
      "name": "Issued",
      "type": "event"
    },
    {
      "anonymous": false,
      "inputs": [
        {
          "indexed": false,
          "internalType": "address",
          "name": "oldOwner",
          "type": "address"
        },
        {
          "indexed": false,
          "internalType": "address",
          "name": "newOwner",
          "type": "address"
        }
      ],
      "name": "OwnerChanged",
      "type": "event"
    },
    {
      "anonymous": false,
      "inputs": [
        {
          "indexed": false,
          "internalType": "address",
          "name": "newOwner",
          "type": "address"
        }
      ],
      "name": "OwnerNominated",
      "type": "event"
    },
    {
      "anonymous": false,
      "inputs": [
        {
          "indexed": false,
          "internalType": "address",
          "name": "proxyAddress",
          "type": "address"
        }
      ],
      "name": "ProxyUpdated",
      "type": "event"
    },
    {
      "anonymous": false,
      "inputs": [
        {
          "indexed": true,
          "internalType": "address",
          "name": "account",
          "type": "address"
        },
        {
          "indexed": false,
          "internalType": "uint256",
          "name": "value",
          "type": "uint256"
        }
      ],
      "name": "Purged",
      "type": "event"
    },
    {
      "anonymous": false,
      "inputs": [
        {
          "indexed": false,
          "internalType": "address",
          "name": "newBeneficiary",
          "type": "address"
        }
      ],
      "name": "SelfDestructBeneficiaryUpdated",
      "type": "event"
    },
    {
      "anonymous": false,
      "inputs": [
        {
          "indexed": false,
          "internalType": "uint256",
          "name": "selfDestructDelay",
          "type": "uint256"
        }
      ],
      "name": "SelfDestructInitiated",
      "type": "event"
    },
    {
      "anonymous": false,
      "inputs": [],
      "name": "SelfDestructTerminated",
      "type": "event"
    },
    {
      "anonymous": false,
      "inputs": [
        {
          "indexed": false,
          "internalType": "address",
          "name": "beneficiary",
          "type": "address"
        }
      ],
      "name": "SelfDestructed",
      "type": "event"
    },
    {
      "anonymous": false,
      "inputs": [
        {
          "indexed": false,
          "internalType": "address",
          "name": "newSynthetix",
          "type": "address"
        }
      ],
      "name": "SynthetixUpdated",
      "type": "event"
    },
    {
      "anonymous": false,
      "inputs": [
        {
          "indexed": false,
          "internalType": "address",
          "name": "newTokenState",
          "type": "address"
        }
      ],
      "name": "TokenStateUpdated",
      "type": "event"
    },
    {
      "anonymous": false,
      "inputs": [
        {
          "indexed": true,
          "internalType": "address",
          "name": "from",
          "type": "address"
        },
        {
          "indexed": true,
          "internalType": "address",
          "name": "to",
          "type": "address"
        },
        {
          "indexed": false,
          "internalType": "uint256",
          "name": "value",
          "type": "uint256"
        }
      ],
      "name": "Transfer",
      "type": "event"
    },
    {
      "inputs": [],
      "name": "SELFDESTRUCT_DELAY",
      "outputs": [
        {
          "internalType": "uint256",
          "name": "",
          "type": "uint256"
        }
      ],
      "stateMutability": "view",
      "type": "function"
    },
    {
      "inputs": [],
      "name": "acceptOwnership",
      "outputs": [],
      "stateMutability": "nonpayable",
      "type": "function"
    },
    {
      "inputs": [
        {
          "internalType": "address",
          "name": "owner",
          "type": "address"
        },
        {
          "internalType": "address",
          "name": "spender",
          "type": "address"
        }
      ],
      "name": "allowance",
      "outputs": [
        {
          "internalType": "uint256",
          "name": "",
          "type": "uint256"
        }
      ],
      "stateMutability": "view",
      "type": "function"
    },
    {
      "inputs": [
        {
          "internalType": "address",
          "name": "spender",
          "type": "address"
        },
        {
          "internalType": "uint256",
          "name": "value",
          "type": "uint256"
        }
      ],
      "name": "approve",
      "outputs": [
        {
          "internalType": "bool",
          "name": "",
          "type": "bool"
        }
      ],
      "stateMutability": "nonpayable",
      "type": "function"
    },
    {
      "inputs": [
        {
          "internalType": "address",
          "name": "account",
          "type": "address"
        }
      ],
      "name": "balanceOf",
      "outputs": [
        {
          "internalType": "uint256",
          "name": "",
          "type": "uint256"
        }
      ],
      "stateMutability": "view",
      "type": "function"
    },
    {
      "inputs": [
        {
          "internalType": "address",
          "name": "account",
          "type": "address"
        },
        {
          "internalType": "uint256",
          "name": "amount",
          "type": "uint256"
        }
      ],
      "name": "burn",
      "outputs": [],
      "stateMutability": "nonpayable",
      "type": "function"
    },
    {
      "inputs": [],
      "name": "currencyKey",
      "outputs": [
        {
          "internalType": "bytes4",
          "name": "",
          "type": "bytes4"
        }
      ],
      "stateMutability": "view",
      "type": "function"
    },
    {
      "inputs": [],
      "name": "decimals",
      "outputs": [
        {
          "internalType": "uint8",
          "name": "",
          "type": "uint8"
        }
      ],
      "stateMutability": "view",
      "type": "function"
    },
    {
      "inputs": [],
      "name": "exchangeRates",
      "outputs": [
        {
          "internalType": "contract ExchangeRates",
          "name": "",
          "type": "address"
        }
      ],
      "stateMutability": "view",
      "type": "function"
    },
    {
      "inputs": [],
      "name": "feePool",
      "outputs": [
        {
          "internalType": "contract IFeePool",
          "name": "",
          "type": "address"
        }
      ],
      "stateMutability": "view",
      "type": "function"
    },
    {
      "inputs": [],
      "name": "initiateSelfDestruct",
      "outputs": [],
      "stateMutability": "nonpayable",
      "type": "function"
    },
    {
      "inputs": [],
      "name": "initiationTime",
      "outputs": [
        {
          "internalType": "uint256",
          "name": "",
          "type": "uint256"
        }
      ],
      "stateMutability": "view",
      "type": "function"
    },
    {
      "inputs": [
        {
          "internalType": "address",
          "name": "account",
          "type": "address"
        },
        {
          "internalType": "uint256",
          "name": "amount",
          "type": "uint256"
        }
      ],
      "name": "issue",
      "outputs": [],
      "stateMutability": "nonpayable",
      "type": "function"
    },
    {
      "inputs": [],
      "name": "maxSupplyToPurgeInUSD",
      "outputs": [
        {
          "internalType": "uint256",
          "name": "",
          "type": "uint256"
        }
      ],
      "stateMutability": "view",
      "type": "function"
    },
    {
      "inputs": [],
      "name": "name",
      "outputs": [
        {
          "internalType": "string",
          "name": "",
          "type": "string"
        }
      ],
      "stateMutability": "view",
      "type": "function"
    },
    {
      "inputs": [
        {
          "internalType": "address",
          "name": "_owner",
          "type": "address"
        }
      ],
      "name": "nominateNewOwner",
      "outputs": [],
      "stateMutability": "nonpayable",
      "type": "function"
    },
    {
      "inputs": [],
      "name": "nominatedOwner",
      "outputs": [
        {
          "internalType": "address",
          "name": "",
          "type": "address"
        }
      ],
      "stateMutability": "view",
      "type": "function"
    },
    {
      "inputs": [],
      "name": "owner",
      "outputs": [
        {
          "internalType": "address",
          "name": "",
          "type": "address"
        }
      ],
      "stateMutability": "view",
      "type": "function"
    },
    {
      "inputs": [],
      "name": "proxy",
      "outputs": [
        {
          "internalType": "contract Proxy",
          "name": "",
          "type": "address"
        }
      ],
      "stateMutability": "view",
      "type": "function"
    },
    {
      "inputs": [
        {
          "internalType": "address[]",
          "name": "addresses",
          "type": "address[]"
        }
      ],
      "name": "purge",
      "outputs": [],
      "stateMutability": "nonpayable",
      "type": "function"
    },
    {
      "inputs": [],
      "name": "selfDestruct",
      "outputs": [],
      "stateMutability": "nonpayable",
      "type": "function"
    },
    {
      "inputs": [],
      "name": "selfDestructBeneficiary",
      "outputs": [
        {
          "internalType": "address",
          "name": "",
          "type": "address"
        }
      ],
      "stateMutability": "view",
      "type": "function"
    },
    {
      "inputs": [],
      "name": "selfDestructInitiated",
      "outputs": [
        {
          "internalType": "bool",
          "name": "",
          "type": "bool"
        }
      ],
      "stateMutability": "view",
      "type": "function"
    },
    {
      "inputs": [
        {
          "internalType": "contract ExchangeRates",
          "name": "_exchangeRates",
          "type": "address"
        }
      ],
      "name": "setExchangeRates",
      "outputs": [],
      "stateMutability": "nonpayable",
      "type": "function"
    },
    {
      "inputs": [
        {
          "internalType": "contract IFeePool",
          "name": "_feePool",
          "type": "address"
        }
      ],
      "name": "setFeePool",
      "outputs": [],
      "stateMutability": "nonpayable",
      "type": "function"
    },
    {
      "inputs": [
        {
          "internalType": "address",
          "name": "sender",
          "type": "address"
        }
      ],
      "name": "setMessageSender",
      "outputs": [],
      "stateMutability": "nonpayable",
      "type": "function"
    },
    {
      "inputs": [
        {
          "internalType": "address payable",
          "name": "_proxy",
          "type": "address"
        }
      ],
      "name": "setProxy",
      "outputs": [],
      "stateMutability": "nonpayable",
      "type": "function"
    },
    {
      "inputs": [
        {
          "internalType": "address",
          "name": "_beneficiary",
          "type": "address"
        }
      ],
      "name": "setSelfDestructBeneficiary",
      "outputs": [],
      "stateMutability": "nonpayable",
      "type": "function"
    },
    {
      "inputs": [
        {
          "internalType": "contract Synthetix",
          "name": "_synthetix",
          "type": "address"
        }
      ],
      "name": "setSynthetix",
      "outputs": [],
      "stateMutability": "nonpayable",
      "type": "function"
    },
    {
      "inputs": [
        {
          "internalType": "contract TokenState",
          "name": "_tokenState",
          "type": "address"
        }
      ],
      "name": "setTokenState",
      "outputs": [],
      "stateMutability": "nonpayable",
      "type": "function"
    },
    {
      "inputs": [
        {
          "internalType": "uint256",
          "name": "amount",
          "type": "uint256"
        }
      ],
      "name": "setTotalSupply",
      "outputs": [],
      "stateMutability": "nonpayable",
      "type": "function"
    },
    {
      "inputs": [],
      "name": "symbol",
      "outputs": [
        {
          "internalType": "string",
          "name": "",
          "type": "string"
        }
      ],
      "stateMutability": "view",
      "type": "function"
    },
    {
      "inputs": [],
      "name": "synthetix",
      "outputs": [
        {
          "internalType": "contract Synthetix",
          "name": "",
          "type": "address"
        }
      ],
      "stateMutability": "view",
      "type": "function"
    },
    {
      "inputs": [],
      "name": "terminateSelfDestruct",
      "outputs": [],
      "stateMutability": "nonpayable",
      "type": "function"
    },
    {
      "inputs": [],
      "name": "tokenState",
      "outputs": [
        {
          "internalType": "contract TokenState",
          "name": "",
          "type": "address"
        }
      ],
      "stateMutability": "view",
      "type": "function"
    },
    {
      "inputs": [],
      "name": "totalSupply",
      "outputs": [
        {
          "internalType": "uint256",
          "name": "",
          "type": "uint256"
        }
      ],
      "stateMutability": "view",
      "type": "function"
    },
    {
      "inputs": [
        {
          "internalType": "address",
          "name": "to",
          "type": "address"
        },
        {
          "internalType": "uint256",
          "name": "value",
          "type": "uint256"
        }
      ],
      "name": "transfer",
      "outputs": [
        {
          "internalType": "bool",
          "name": "",
          "type": "bool"
        }
      ],
      "stateMutability": "nonpayable",
      "type": "function"
    },
    {
      "inputs": [
        {
          "internalType": "address",
          "name": "to",
          "type": "address"
        },
        {
          "internalType": "uint256",
          "name": "value",
          "type": "uint256"
        },
        {
          "internalType": "bytes",
          "name": "data",
          "type": "bytes"
        }
      ],
      "name": "transfer",
      "outputs": [
        {
          "internalType": "bool",
          "name": "",
          "type": "bool"
        }
      ],
      "stateMutability": "nonpayable",
      "type": "function"
    },
    {
      "inputs": [
        {
          "internalType": "address",
          "name": "from",
          "type": "address"
        },
        {
          "internalType": "address",
          "name": "to",
          "type": "address"
        },
        {
          "internalType": "uint256",
          "name": "value",
          "type": "uint256"
        }
      ],
      "name": "transferFrom",
      "outputs": [
        {
          "internalType": "bool",
          "name": "",
          "type": "bool"
        }
      ],
      "stateMutability": "nonpayable",
      "type": "function"
    },
    {
      "inputs": [
        {
          "internalType": "address",
          "name": "from",
          "type": "address"
        },
        {
          "internalType": "address",
          "name": "to",
          "type": "address"
        },
        {
          "internalType": "uint256",
          "name": "value",
          "type": "uint256"
        },
        {
          "internalType": "bytes",
          "name": "data",
          "type": "bytes"
        }
      ],
      "name": "transferFrom",
      "outputs": [
        {
          "internalType": "bool",
          "name": "",
          "type": "bool"
        }
      ],
      "stateMutability": "nonpayable",
      "type": "function"
    },
    {
      "inputs": [
        {
          "internalType": "address",
          "name": "from",
          "type": "address"
        },
        {
          "internalType": "address",
          "name": "to",
          "type": "address"
        },
        {
          "internalType": "uint256",
          "name": "value",
          "type": "uint256"
        },
        {
          "internalType": "bytes",
          "name": "data",
          "type": "bytes"
        }
      ],
      "name": "transferFromSenderPaysFee",
      "outputs": [
        {
          "internalType": "bool",
          "name": "",
          "type": "bool"
        }
      ],
      "stateMutability": "nonpayable",
      "type": "function"
    },
    {
      "inputs": [
        {
          "internalType": "address",
          "name": "from",
          "type": "address"
        },
        {
          "internalType": "address",
          "name": "to",
          "type": "address"
        },
        {
          "internalType": "uint256",
          "name": "value",
          "type": "uint256"
        }
      ],
      "name": "transferFromSenderPaysFee",
      "outputs": [
        {
          "internalType": "bool",
          "name": "",
          "type": "bool"
        }
      ],
      "stateMutability": "nonpayable",
      "type": "function"
    },
    {
      "inputs": [
        {
          "internalType": "address",
          "name": "to",
          "type": "address"
        },
        {
          "internalType": "uint256",
          "name": "value",
          "type": "uint256"
        },
        {
          "internalType": "bytes",
          "name": "data",
          "type": "bytes"
        }
      ],
      "name": "transferSenderPaysFee",
      "outputs": [
        {
          "internalType": "bool",
          "name": "",
          "type": "bool"
        }
      ],
      "stateMutability": "nonpayable",
      "type": "function"
    },
    {
      "inputs": [
        {
          "internalType": "address",
          "name": "to",
          "type": "address"
        },
        {
          "internalType": "uint256",
          "name": "value",
          "type": "uint256"
        }
      ],
      "name": "transferSenderPaysFee",
      "outputs": [
        {
          "internalType": "bool",
          "name": "",
          "type": "bool"
        }
      ],
      "stateMutability": "nonpayable",
      "type": "function"
    },
    {
      "inputs": [
        {
          "internalType": "address",
          "name": "sender",
          "type": "address"
        },
        {
          "internalType": "address",
          "name": "recipient",
          "type": "address"
        },
        {
          "internalType": "uint256",
          "name": "amount",
          "type": "uint256"
        }
      ],
      "name": "triggerTokenFallbackIfNeeded",
      "outputs": [],
      "stateMutability": "nonpayable",
      "type": "function"
    }
  ],
  "bytecode": "0x60806040526000600560146101000a81548160ff02191690831515021790555073__$b8d33eeb36ac0d1e81cd70156e0043e778$__63907af6c06040518163ffffffff1660e01b815260040160206040518083038186803b1580156200006457600080fd5b505af415801562000079573d6000803e3d6000fd5b505050506040513d601f19601f820116820180604052508101906200009f919062000b55565b612710620000ae919062000ef0565b600c55348015620000be57600080fd5b5060405162008825380380620088258339818101604052810190620000e4919062000a1e565b8888888888888888878785856000601287868180600073ffffffffffffffffffffffffffffffffffffffff168173ffffffffffffffffffffffffffffffffffffffff1614156200016b576040517f08c379a0000000000000000000000000000000000000000000000000000000008152600401620001629062000e5e565b60405180910390fd5b806000806101000a81548173ffffffffffffffffffffffffffffffffffffffff021916908373ffffffffffffffffffffffffffffffffffffffff1602179055507fb532073b38c83145e3e5135377a08bf9aab55bc0fd7c1179cd4fb995d2a5159c600082604051620001df92919062000d26565b60405180910390a150600073ffffffffffffffffffffffffffffffffffffffff168173ffffffffffffffffffffffffffffffffffffffff1614156200025b576040517f08c379a0000000000000000000000000000000000000000000000000000000008152600401620002529062000e1a565b60405180910390fd5b80600360016101000a81548173ffffffffffffffffffffffffffffffffffffffff021916908373ffffffffffffffffffffffffffffffffffffffff1602179055507fd5da63a0b864b315bc04128dedbc93888c8529ee6cf47ce664dc204339228c5381604051620002cd919062000cec565b60405180910390a150600073ffffffffffffffffffffffffffffffffffffffff1660008054906101000a900473ffffffffffffffffffffffffffffffffffffffff1673ffffffffffffffffffffffffffffffffffffffff16141562000369576040517f08c379a0000000000000000000000000000000000000000000000000000000008152600401620003609062000e3c565b60405180910390fd5b80600460006101000a81548173ffffffffffffffffffffffffffffffffffffffff021916908373ffffffffffffffffffffffffffffffffffffffff1602179055507ffc80377ca9c49cc11ae6982f390a42db976d5530af7c43889264b13fbbd7c57e81604051620003db919062000d09565b60405180910390a15085600660006101000a81548173ffffffffffffffffffffffffffffffffffffffff021916908373ffffffffffffffffffffffffffffffffffffffff16021790555084600790805190602001906200043d92919062000844565b5083600890805190602001906200045692919062000844565b508260098190555081600a60006101000a81548160ff021916908360ff16021790555050505050505050600073ffffffffffffffffffffffffffffffffffffffff168873ffffffffffffffffffffffffffffffffffffffff161415620004f3576040517f08c379a0000000000000000000000000000000000000000000000000000000008152600401620004ea9062000d70565b60405180910390fd5b600073ffffffffffffffffffffffffffffffffffffffff168673ffffffffffffffffffffffffffffffffffffffff16141562000566576040517f08c379a00000000000000000000000000000000000000000000000000000000081526004016200055d9062000d92565b60405180910390fd5b600073ffffffffffffffffffffffffffffffffffffffff168573ffffffffffffffffffffffffffffffffffffffff161415620005d9576040517f08c379a0000000000000000000000000000000000000000000000000000000008152600401620005d09062000df8565b60405180910390fd5b600073ffffffffffffffffffffffffffffffffffffffff168273ffffffffffffffffffffffffffffffffffffffff1614156200064c576040517f08c379a0000000000000000000000000000000000000000000000000000000008152600401620006439062000db4565b60405180910390fd5b600073ffffffffffffffffffffffffffffffffffffffff168673ffffffffffffffffffffffffffffffffffffffff1663502b8bda836040518263ffffffff1660e01b81526004016200069f919062000d53565b60206040518083038186803b158015620006b857600080fd5b505afa158015620006cd573d6000803e3d6000fd5b505050506040513d601f19601f82011682018060405250810190620006f3919062000b29565b73ffffffffffffffffffffffffffffffffffffffff16146200074c576040517f08c379a0000000000000000000000000000000000000000000000000000000008152600401620007439062000dd6565b60405180910390fd5b84600a60016101000a81548173ffffffffffffffffffffffffffffffffffffffff021916908373ffffffffffffffffffffffffffffffffffffffff16021790555085600b60006101000a81548173ffffffffffffffffffffffffffffffffffffffff021916908373ffffffffffffffffffffffffffffffffffffffff16021790555080600b60146101000a81548163ffffffff021916908360e01c0217905550505050505050505080600d60006101000a81548173ffffffffffffffffffffffffffffffffffffffff021916908373ffffffffffffffffffffffffffffffffffffffff160217905550505050505050505050620013d9565b828054620008529062001091565b90600052602060002090601f016020900481019282620008765760008555620008c2565b82601f106200089157805160ff1916838001178555620008c2565b82800160010185558215620008c2579182015b82811115620008c1578251825591602001919060010190620008a4565b5b509050620008d19190620008d5565b5090565b5b80821115620008f0576000816000905550600101620008d6565b5090565b60006200090b620009058462000ea9565b62000e80565b9050828152602081018484840111156200092457600080fd5b620009318482856200105b565b509392505050565b6000815190506200094a8162001309565b92915050565b600081519050620009618162001323565b92915050565b60008151905062000978816200133d565b92915050565b6000815190506200098f8162001357565b92915050565b600081519050620009a68162001371565b92915050565b600081519050620009bd816200138b565b92915050565b600081519050620009d481620013a5565b92915050565b600082601f830112620009ec57600080fd5b8151620009fe848260208601620008f4565b91505092915050565b60008151905062000a1881620013bf565b92915050565b60008060008060008060008060006101208a8c03121562000a3e57600080fd5b600062000a4e8c828d0162000939565b995050602062000a618c828d01620009c3565b985050604062000a748c828d01620009ac565b975050606062000a878c828d016200097e565b96505060808a015167ffffffffffffffff81111562000aa557600080fd5b62000ab38c828d01620009da565b95505060a08a015167ffffffffffffffff81111562000ad157600080fd5b62000adf8c828d01620009da565b94505060c062000af28c828d0162000939565b93505060e062000b058c828d0162000950565b92505061010062000b198c828d0162000967565b9150509295985092959850929598565b60006020828403121562000b3c57600080fd5b600062000b4c8482850162000995565b91505092915050565b60006020828403121562000b6857600080fd5b600062000b788482850162000a07565b91505092915050565b62000b8c816200101f565b82525050565b62000b9d8162000f51565b82525050565b62000bae8162000f65565b82525050565b600062000bc360128362000edf565b915062000bd0826200119b565b602082019050919050565b600062000bea60168362000edf565b915062000bf782620011c4565b602082019050919050565b600062000c1160128362000edf565b915062000c1e82620011ed565b602082019050919050565b600062000c38601e8362000edf565b915062000c458262001216565b602082019050919050565b600062000c5f60148362000edf565b915062000c6c826200123f565b602082019050919050565b600062000c8660228362000edf565b915062000c938262001268565b604082019050919050565b600062000cad60118362000edf565b915062000cba82620012b7565b602082019050919050565b600062000cd460198362000edf565b915062000ce182620012e0565b602082019050919050565b600060208201905062000d03600083018462000b92565b92915050565b600060208201905062000d20600083018462000b81565b92915050565b600060408201905062000d3d600083018562000b92565b62000d4c602083018462000b92565b9392505050565b600060208201905062000d6a600083018462000ba3565b92915050565b6000602082019050818103600083015262000d8b8162000bb4565b9050919050565b6000602082019050818103600083015262000dad8162000bdb565b9050919050565b6000602082019050818103600083015262000dcf8162000c02565b9050919050565b6000602082019050818103600083015262000df18162000c29565b9050919050565b6000602082019050818103600083015262000e138162000c50565b9050919050565b6000602082019050818103600083015262000e358162000c77565b9050919050565b6000602082019050818103600083015262000e578162000c9e565b9050919050565b6000602082019050818103600083015262000e798162000cc5565b9050919050565b600062000e8c62000e9f565b905062000e9a8282620010c7565b919050565b6000604051905090565b600067ffffffffffffffff82111562000ec75762000ec66200115b565b5b62000ed2826200118a565b9050602081019050919050565b600082825260208201905092915050565b600062000efd8262001015565b915062000f0a8362001015565b9250817fffffffffffffffffffffffffffffffffffffffffffffffffffffffffffffffff048311821515161562000f465762000f45620010fd565b5b828202905092915050565b600062000f5e8262000ff5565b9050919050565b60007fffffffff0000000000000000000000000000000000000000000000000000000082169050919050565b600062000f9e8262000f51565b9050919050565b600062000fb28262000f51565b9050919050565b600062000fc68262000f51565b9050919050565b600062000fda8262000f51565b9050919050565b600062000fee8262000f51565b9050919050565b600073ffffffffffffffffffffffffffffffffffffffff82169050919050565b6000819050919050565b60006200102c8262001033565b9050919050565b6000620010408262001047565b9050919050565b6000620010548262000ff5565b9050919050565b60005b838110156200107b5780820151818401526020810190506200105e565b838111156200108b576000848401525b50505050565b60006002820490506001821680620010aa57607f821691505b60208210811415620010c157620010c06200112c565b5b50919050565b620010d2826200118a565b810181811067ffffffffffffffff82111715620010f457620010f36200115b565b5b80604052505050565b7f4e487b7100000000000000000000000000000000000000000000000000000000600052601160045260246000fd5b7f4e487b7100000000000000000000000000000000000000000000000000000000600052602260045260246000fd5b7f4e487b7100000000000000000000000000000000000000000000000000000000600052604160045260246000fd5b6000601f19601f8301169050919050565b7f5f70726f78792063616e6e6f7420626520300000000000000000000000000000600082015250565b7f5f73796e7468657469782063616e6e6f74206265203000000000000000000000600082015250565b7f5f6f776e65722063616e6e6f7420626520300000000000000000000000000000600082015250565b7f43757272656e6379206b657920697320616c726561647920696e207573650000600082015250565b7f5f666565506f6f6c2063616e6e6f742062652030000000000000000000000000600082015250565b7f4f776e6572206d757374206e6f7420626520746865207a65726f20616464726560008201527f7373000000000000000000000000000000000000000000000000000000000000602082015250565b7f4f776e6572206d75737420626520736574000000000000000000000000000000600082015250565b7f4f776e657220616464726573732063616e6e6f74206265203000000000000000600082015250565b620013148162000f51565b81146200132057600080fd5b50565b6200132e8162000f65565b81146200133a57600080fd5b50565b620013488162000f91565b81146200135457600080fd5b50565b620013628162000fa5565b81146200136e57600080fd5b50565b6200137c8162000fb9565b81146200138857600080fd5b50565b620013968162000fcd565b8114620013a257600080fd5b50565b620013b08162000fe1565b8114620013bc57600080fd5b50565b620013ca8162001015565b8114620013d657600080fd5b50565b61743c80620013e96000396000f3fe608060405234801561001057600080fd5b506004361061027f5760003560e01c80639cb8a26a1161015c578063bd32aa44116100ce578063e6fbf44111610087578063e6fbf44114610766578063e90dd9e214610796578063eb6ecc03146107b4578063ec556889146107d0578063f7ea7a3d146107ee578063fec9f9da1461080a5761027f565b8063bd32aa4414610690578063be45fd621461069a578063c58aaae6146106ca578063d66c9cc2146106e8578063dbd06c8514610718578063dd62ed3e146107365761027f565b8063ab59307911610120578063ab593079146105bc578063ab67aa58146105d8578063ae2e933b14610608578063b4bede8514610626578063b8225dec14610656578063bc67f832146106745761027f565b80639cb8a26a1461052c5780639dc29fac146105365780639f76980714610552578063a461fc821461056e578063a9059cbb1461058c5761027f565b80634ffcd9df116101f557806379ba5097116101b957806379ba5097146104905780637e88ac161461049a578063867904b4146104b85780638da5cb5b146104d457806395d89b41146104f257806397107d6d146105105761027f565b80634ffcd9df146103ea57806353a47bb71461040857806356e449541461042657806370a0823114610442578063759b5225146104725761027f565b806319db22281161024757806319db22281461032a57806320714f881461034657806323b872dd14610362578063313ce567146103925780633278c960146103b05780633c960be9146103ba5761027f565b806306fdde0314610284578063095ea7b3146102a25780631627540c146102d257806317c70de4146102ee57806318160ddd1461030c575b600080fd5b61028c610826565b60405161029991906167a3565b60405180910390f35b6102bc60048036038101906102b79190615dc7565b6108b4565b6040516102c991906165ae565b60405180910390f35b6102ec60048036038101906102e79190615c46565b610a1b565b005b6102f6610b24565b60405161030391906169ba565b60405180910390f35b610314610b2a565b60405161032191906169ba565b60405180910390f35b610344600480360381019061033f9190615f26565b610b30565b005b610360600480360381019061035b9190615c46565b610cc4565b005b61037c60048036038101906103779190615cfd565b610e3d565b60405161038991906165ae565b60405180910390f35b61039a61130c565b6040516103a791906169d5565b60405180910390f35b6103b861131f565b005b6103d460048036038101906103cf9190615d4c565b6113fe565b6040516103e191906165ae565b60405180910390f35b6103f26118c5565b6040516103ff919061671c565b60405180910390f35b6104106118eb565b60405161041d91906163d6565b60405180910390f35b610440600480360381019061043b9190615efd565b611911565b005b61045c60048036038101906104579190615c46565b611a9c565b60405161046991906169ba565b60405180910390f35b61047a611b50565b604051610487919061676d565b60405180910390f35b610498611b76565b005b6104a2611d27565b6040516104af91906169ba565b60405180910390f35b6104d260048036038101906104cd9190615dc7565b611d2d565b005b6104dc611f93565b6040516104e991906163d6565b60405180910390f35b6104fa611fb7565b60405161050791906167a3565b60405180910390f35b61052a60048036038101906105259190615c98565b612045565b005b61053461214e565b005b610550600480360381019061054b9190615dc7565b6122f4565b005b61056c60048036038101906105679190615fa1565b61255a565b005b6105766126ee565b60405161058391906169ba565b60405180910390f35b6105a660048036038101906105a19190615dc7565b6126f5565b6040516105b391906165ae565b60405180910390f35b6105d660048036038101906105d19190615e6a565b612a9d565b005b6105f260048036038101906105ed9190615d4c565b612f01565b6040516105ff91906165ae565b60405180910390f35b6106106133ce565b60405161061d9190616737565b60405180910390f35b610640600480360381019061063b9190615e03565b6133f4565b60405161064d91906165ae565b60405180910390f35b61065e613789565b60405161066b91906165ae565b60405180910390f35b61068e60048036038101906106899190615c46565b61379c565b005b610698613870565b005b6106b460048036038101906106af9190615e03565b61395c565b6040516106c191906165ae565b60405180910390f35b6106d2613d02565b6040516106df91906163d6565b60405180910390f35b61070260048036038101906106fd9190615dc7565b613d28565b60405161070f91906165ae565b60405180910390f35b6107206140bf565b60405161072d91906165c9565b60405180910390f35b610750600480360381019061074b9190615cc1565b6140d2565b60405161075d91906169ba565b60405180910390f35b610780600480360381019061077b9190615cfd565b614189565b60405161078d91906165ae565b60405180910390f35b61079e614652565b6040516107ab9190616788565b60405180910390f35b6107ce60048036038101906107c99190615cfd565b614678565b005b6107d8614780565b6040516107e59190616752565b60405180910390f35b61080860048036038101906108039190615fca565b6147a6565b005b610824600480360381019061081f9190615f78565b6148f7565b005b6007805461083390616dbc565b80601f016020809104026020016040519081016040528092919081815260200182805461085f90616dbc565b80156108ac5780601f10610881576101008083540402835291602001916108ac565b820191906000526020600020905b81548152906001019060200180831161088f57829003601f168201915b505050505081565b6000600460009054906101000a900473ffffffffffffffffffffffffffffffffffffffff1673ffffffffffffffffffffffffffffffffffffffff163373ffffffffffffffffffffffffffffffffffffffff161461094d5733600560006101000a81548173ffffffffffffffffffffffffffffffffffffffff021916908373ffffffffffffffffffffffffffffffffffffffff1602179055505b6000600560009054906101000a900473ffffffffffffffffffffffffffffffffffffffff169050600660009054906101000a900473ffffffffffffffffffffffffffffffffffffffff1673ffffffffffffffffffffffffffffffffffffffff1663da46098c8286866040518463ffffffff1660e01b81526004016109d393929190616435565b600060405180830381600087803b1580156109ed57600080fd5b505af1158015610a01573d6000803e3d6000fd5b50505050610a10818585614a8b565b600191505092915050565b60008054906101000a900473ffffffffffffffffffffffffffffffffffffffff1673ffffffffffffffffffffffffffffffffffffffff163373ffffffffffffffffffffffffffffffffffffffff1614610aa9576040517f08c379a0000000000000000000000000000000000000000000000000000000008152600401610aa0906168c5565b60405180910390fd5b80600160006101000a81548173ffffffffffffffffffffffffffffffffffffffff021916908373ffffffffffffffffffffffffffffffffffffffff1602179055507f906a1c6bd7e3091ea86693dd029a831c19049ce77f1dce2ce0bab1cacbabce2281604051610b1991906163d6565b60405180910390a150565b60025481565b60095481565b600460009054906101000a900473ffffffffffffffffffffffffffffffffffffffff1673ffffffffffffffffffffffffffffffffffffffff163373ffffffffffffffffffffffffffffffffffffffff1614610bc75733600560006101000a81548173ffffffffffffffffffffffffffffffffffffffff021916908373ffffffffffffffffffffffffffffffffffffffff1602179055505b60008054906101000a900473ffffffffffffffffffffffffffffffffffffffff1673ffffffffffffffffffffffffffffffffffffffff16600560009054906101000a900473ffffffffffffffffffffffffffffffffffffffff1673ffffffffffffffffffffffffffffffffffffffff1614610c77576040517f08c379a0000000000000000000000000000000000000000000000000000000008152600401610c6e9061693a565b60405180910390fd5b80600a60016101000a81548173ffffffffffffffffffffffffffffffffffffffff021916908373ffffffffffffffffffffffffffffffffffffffff160217905550610cc181614b78565b50565b60008054906101000a900473ffffffffffffffffffffffffffffffffffffffff1673ffffffffffffffffffffffffffffffffffffffff163373ffffffffffffffffffffffffffffffffffffffff1614610d52576040517f08c379a0000000000000000000000000000000000000000000000000000000008152600401610d49906168c5565b60405180910390fd5b600073ffffffffffffffffffffffffffffffffffffffff168173ffffffffffffffffffffffffffffffffffffffff161415610dc2576040517f08c379a0000000000000000000000000000000000000000000000000000000008152600401610db990616865565b60405180910390fd5b80600360016101000a81548173ffffffffffffffffffffffffffffffffffffffff021916908373ffffffffffffffffffffffffffffffffffffffff1602179055507fd5da63a0b864b315bc04128dedbc93888c8529ee6cf47ce664dc204339228c5381604051610e3291906163d6565b60405180910390a150565b6000600460009054906101000a900473ffffffffffffffffffffffffffffffffffffffff1673ffffffffffffffffffffffffffffffffffffffff163373ffffffffffffffffffffffffffffffffffffffff1614610ed65733600560006101000a81548173ffffffffffffffffffffffffffffffffffffffff021916908373ffffffffffffffffffffffffffffffffffffffff1602179055505b83600a60019054906101000a900473ffffffffffffffffffffffffffffffffffffffff1673ffffffffffffffffffffffffffffffffffffffff1663eb1edd616040518163ffffffff1660e01b815260040160206040518083038186803b158015610f3f57600080fd5b505afa158015610f53573d6000803e3d6000fd5b505050506040513d601f19601f82011682018060405250810190610f779190615c6f565b73ffffffffffffffffffffffffffffffffffffffff168173ffffffffffffffffffffffffffffffffffffffff161415610fe5576040517f08c379a0000000000000000000000000000000000000000000000000000000008152600401610fdc90616885565b60405180910390fd5b6000600a60019054906101000a900473ffffffffffffffffffffffffffffffffffffffff1673ffffffffffffffffffffffffffffffffffffffff1663b7fcfa69856040518263ffffffff1660e01b815260040161104291906169ba565b60206040518083038186803b15801561105a57600080fd5b505afa15801561106e573d6000803e3d6000fd5b505050506040513d601f19601f820116820180604052508101906110929190615ff3565b9050600081856110a29190616b0b565b9050600660009054906101000a900473ffffffffffffffffffffffffffffffffffffffff1673ffffffffffffffffffffffffffffffffffffffff1663da46098c88600560009054906101000a900473ffffffffffffffffffffffffffffffffffffffff1688600660009054906101000a900473ffffffffffffffffffffffffffffffffffffffff1673ffffffffffffffffffffffffffffffffffffffff1663dd62ed3e8d600560009054906101000a900473ffffffffffffffffffffffffffffffffffffffff166040518363ffffffff1660e01b815260040161118692919061640c565b60206040518083038186803b15801561119e57600080fd5b505afa1580156111b2573d6000803e3d6000fd5b505050506040513d601f19601f820116820180604052508101906111d69190615ff3565b6111e09190616b0b565b6040518463ffffffff1660e01b81526004016111fe93929190616435565b600060405180830381600087803b15801561121857600080fd5b505af115801561122c573d6000803e3d6000fd5b50505050600b60009054906101000a900473ffffffffffffffffffffffffffffffffffffffff1673ffffffffffffffffffffffffffffffffffffffff1663be57636488600b60149054906101000a900460e01b846040518463ffffffff1660e01b815260040161129e9392919061646c565b602060405180830381600087803b1580156112b857600080fd5b505af11580156112cc573d6000803e3d6000fd5b505050506040513d601f19601f820116820180604052508101906112f09190615eab565b5060606112ff88888584614c54565b9450505050509392505050565b600a60009054906101000a900460ff1681565b60008054906101000a900473ffffffffffffffffffffffffffffffffffffffff1673ffffffffffffffffffffffffffffffffffffffff163373ffffffffffffffffffffffffffffffffffffffff16146113ad576040517f08c379a00000000000000000000000000000000000000000000000000000000081526004016113a4906168c5565b60405180910390fd5b60006002819055506000600360006101000a81548160ff0219169083151502179055507f6adcc7125002935e0aa31697538ebbd65cfddf20431eb6ecdcfc3e238bfd082c60405160405180910390a1565b6000600460009054906101000a900473ffffffffffffffffffffffffffffffffffffffff1673ffffffffffffffffffffffffffffffffffffffff163373ffffffffffffffffffffffffffffffffffffffff16146114975733600560006101000a81548173ffffffffffffffffffffffffffffffffffffffff021916908373ffffffffffffffffffffffffffffffffffffffff1602179055505b84600a60019054906101000a900473ffffffffffffffffffffffffffffffffffffffff1673ffffffffffffffffffffffffffffffffffffffff1663eb1edd616040518163ffffffff1660e01b815260040160206040518083038186803b15801561150057600080fd5b505afa158015611514573d6000803e3d6000fd5b505050506040513d601f19601f820116820180604052508101906115389190615c6f565b73ffffffffffffffffffffffffffffffffffffffff168173ffffffffffffffffffffffffffffffffffffffff1614156115a6576040517f08c379a000000000000000000000000000000000000000000000000000000000815260040161159d90616885565b60405180910390fd5b6000600a60019054906101000a900473ffffffffffffffffffffffffffffffffffffffff1673ffffffffffffffffffffffffffffffffffffffff1663da46e6c4866040518263ffffffff1660e01b815260040161160391906169ba565b60206040518083038186803b15801561161b57600080fd5b505afa15801561162f573d6000803e3d6000fd5b505050506040513d601f19601f820116820180604052508101906116539190615ff3565b9050600660009054906101000a900473ffffffffffffffffffffffffffffffffffffffff1673ffffffffffffffffffffffffffffffffffffffff1663da46098c88600560009054906101000a900473ffffffffffffffffffffffffffffffffffffffff168489600660009054906101000a900473ffffffffffffffffffffffffffffffffffffffff1673ffffffffffffffffffffffffffffffffffffffff1663dd62ed3e8e600560009054906101000a900473ffffffffffffffffffffffffffffffffffffffff166040518363ffffffff1660e01b815260040161173892919061640c565b60206040518083038186803b15801561175057600080fd5b505afa158015611764573d6000803e3d6000fd5b505050506040513d601f19601f820116820180604052508101906117889190615ff3565b6117929190616b0b565b61179c9190616ab5565b6040518463ffffffff1660e01b81526004016117ba93929190616435565b600060405180830381600087803b1580156117d457600080fd5b505af11580156117e8573d6000803e3d6000fd5b50505050600b60009054906101000a900473ffffffffffffffffffffffffffffffffffffffff1673ffffffffffffffffffffffffffffffffffffffff1663be57636488600b60149054906101000a900460e01b846040518463ffffffff1660e01b815260040161185a9392919061646c565b602060405180830381600087803b15801561187457600080fd5b505af1158015611888573d6000803e3d6000fd5b505050506040513d601f19601f820116820180604052508101906118ac9190615eab565b506118b987878787614c54565b92505050949350505050565b600d60009054906101000a900473ffffffffffffffffffffffffffffffffffffffff1681565b600160009054906101000a900473ffffffffffffffffffffffffffffffffffffffff1681565b600460009054906101000a900473ffffffffffffffffffffffffffffffffffffffff1673ffffffffffffffffffffffffffffffffffffffff163373ffffffffffffffffffffffffffffffffffffffff16146119a85733600560006101000a81548173ffffffffffffffffffffffffffffffffffffffff021916908373ffffffffffffffffffffffffffffffffffffffff1602179055505b60008054906101000a900473ffffffffffffffffffffffffffffffffffffffff1673ffffffffffffffffffffffffffffffffffffffff16600560009054906101000a900473ffffffffffffffffffffffffffffffffffffffff1673ffffffffffffffffffffffffffffffffffffffff1614611a58576040517f08c379a0000000000000000000000000000000000000000000000000000000008152600401611a4f9061693a565b60405180910390fd5b80600d60006101000a81548173ffffffffffffffffffffffffffffffffffffffff021916908373ffffffffffffffffffffffffffffffffffffffff16021790555050565b6000600660009054906101000a900473ffffffffffffffffffffffffffffffffffffffff1673ffffffffffffffffffffffffffffffffffffffff166370a08231836040518263ffffffff1660e01b8152600401611af991906163d6565b60206040518083038186803b158015611b1157600080fd5b505afa158015611b25573d6000803e3d6000fd5b505050506040513d601f19601f82011682018060405250810190611b499190615ff3565b9050919050565b600b60009054906101000a900473ffffffffffffffffffffffffffffffffffffffff1681565b600160009054906101000a900473ffffffffffffffffffffffffffffffffffffffff1673ffffffffffffffffffffffffffffffffffffffff163373ffffffffffffffffffffffffffffffffffffffff1614611c06576040517f08c379a0000000000000000000000000000000000000000000000000000000008152600401611bfd906167c5565b60405180910390fd5b7fb532073b38c83145e3e5135377a08bf9aab55bc0fd7c1179cd4fb995d2a5159c60008054906101000a900473ffffffffffffffffffffffffffffffffffffffff16600160009054906101000a900473ffffffffffffffffffffffffffffffffffffffff16604051611c7992919061640c565b60405180910390a1600160009054906101000a900473ffffffffffffffffffffffffffffffffffffffff166000806101000a81548173ffffffffffffffffffffffffffffffffffffffff021916908373ffffffffffffffffffffffffffffffffffffffff1602179055506000600160006101000a81548173ffffffffffffffffffffffffffffffffffffffff021916908373ffffffffffffffffffffffffffffffffffffffff160217905550565b600c5481565b6000600b60009054906101000a900473ffffffffffffffffffffffffffffffffffffffff1673ffffffffffffffffffffffffffffffffffffffff163373ffffffffffffffffffffffffffffffffffffffff161490506000600a60019054906101000a900473ffffffffffffffffffffffffffffffffffffffff1673ffffffffffffffffffffffffffffffffffffffff163373ffffffffffffffffffffffffffffffffffffffff161490508180611de05750805b611e1f576040517f08c379a0000000000000000000000000000000000000000000000000000000008152600401611e16906168a5565b60405180910390fd5b600660009054906101000a900473ffffffffffffffffffffffffffffffffffffffff1673ffffffffffffffffffffffffffffffffffffffff1663b46310f68585600660009054906101000a900473ffffffffffffffffffffffffffffffffffffffff1673ffffffffffffffffffffffffffffffffffffffff166370a08231896040518263ffffffff1660e01b8152600401611eba91906163d6565b60206040518083038186803b158015611ed257600080fd5b505afa158015611ee6573d6000803e3d6000fd5b505050506040513d601f19601f82011682018060405250810190611f0a9190615ff3565b611f149190616ab5565b6040518363ffffffff1660e01b8152600401611f31929190616547565b600060405180830381600087803b158015611f4b57600080fd5b505af1158015611f5f573d6000803e3d6000fd5b5050505082600954611f719190616ab5565b600981905550611f8360008585614eea565b611f8d8484614fd7565b50505050565b60008054906101000a900473ffffffffffffffffffffffffffffffffffffffff1681565b60088054611fc490616dbc565b80601f0160208091040260200160405190810160405280929190818152602001828054611ff090616dbc565b801561203d5780601f106120125761010080835404028352916020019161203d565b820191906000526020600020905b81548152906001019060200180831161202057829003601f168201915b505050505081565b60008054906101000a900473ffffffffffffffffffffffffffffffffffffffff1673ffffffffffffffffffffffffffffffffffffffff163373ffffffffffffffffffffffffffffffffffffffff16146120d3576040517f08c379a00000000000000000000000000000000000000000000000000000000081526004016120ca906168c5565b60405180910390fd5b80600460006101000a81548173ffffffffffffffffffffffffffffffffffffffff021916908373ffffffffffffffffffffffffffffffffffffffff1602179055507ffc80377ca9c49cc11ae6982f390a42db976d5530af7c43889264b13fbbd7c57e8160405161214391906163f1565b60405180910390a150565b60008054906101000a900473ffffffffffffffffffffffffffffffffffffffff1673ffffffffffffffffffffffffffffffffffffffff163373ffffffffffffffffffffffffffffffffffffffff16146121dc576040517f08c379a00000000000000000000000000000000000000000000000000000000081526004016121d3906168c5565b60405180910390fd5b600360009054906101000a900460ff1661222b576040517f08c379a00000000000000000000000000000000000000000000000000000000081526004016122229061691a565b60405180910390fd5b426224ea0060025461223d9190616ab5565b1061227d576040517f08c379a00000000000000000000000000000000000000000000000000000000081526004016122749061697a565b60405180910390fd5b6000600360019054906101000a900473ffffffffffffffffffffffffffffffffffffffff1690507f8a09e1677ced846cb537dc2b172043bd05a1a81ad7e0033a7ef8ba762df990b7816040516122d391906163d6565b60405180910390a18073ffffffffffffffffffffffffffffffffffffffff16ff5b6000600b60009054906101000a900473ffffffffffffffffffffffffffffffffffffffff1673ffffffffffffffffffffffffffffffffffffffff163373ffffffffffffffffffffffffffffffffffffffff161490506000600a60019054906101000a900473ffffffffffffffffffffffffffffffffffffffff1673ffffffffffffffffffffffffffffffffffffffff163373ffffffffffffffffffffffffffffffffffffffff1614905081806123a75750805b6123e6576040517f08c379a00000000000000000000000000000000000000000000000000000000081526004016123dd906168a5565b60405180910390fd5b600660009054906101000a900473ffffffffffffffffffffffffffffffffffffffff1673ffffffffffffffffffffffffffffffffffffffff1663b46310f68585600660009054906101000a900473ffffffffffffffffffffffffffffffffffffffff1673ffffffffffffffffffffffffffffffffffffffff166370a08231896040518263ffffffff1660e01b815260040161248191906163d6565b60206040518083038186803b15801561249957600080fd5b505afa1580156124ad573d6000803e3d6000fd5b505050506040513d601f19601f820116820180604052508101906124d19190615ff3565b6124db9190616b0b565b6040518363ffffffff1660e01b81526004016124f8929190616547565b600060405180830381600087803b15801561251257600080fd5b505af1158015612526573d6000803e3d6000fd5b50505050826009546125389190616b0b565b60098190555061254a84600085614eea565b61255484846150bb565b50505050565b600460009054906101000a900473ffffffffffffffffffffffffffffffffffffffff1673ffffffffffffffffffffffffffffffffffffffff163373ffffffffffffffffffffffffffffffffffffffff16146125f15733600560006101000a81548173ffffffffffffffffffffffffffffffffffffffff021916908373ffffffffffffffffffffffffffffffffffffffff1602179055505b60008054906101000a900473ffffffffffffffffffffffffffffffffffffffff1673ffffffffffffffffffffffffffffffffffffffff16600560009054906101000a900473ffffffffffffffffffffffffffffffffffffffff1673ffffffffffffffffffffffffffffffffffffffff16146126a1576040517f08c379a00000000000000000000000000000000000000000000000000000000081526004016126989061693a565b60405180910390fd5b80600660006101000a81548173ffffffffffffffffffffffffffffffffffffffff021916908373ffffffffffffffffffffffffffffffffffffffff1602179055506126eb8161519f565b50565b6224ea0081565b6000600460009054906101000a900473ffffffffffffffffffffffffffffffffffffffff1673ffffffffffffffffffffffffffffffffffffffff163373ffffffffffffffffffffffffffffffffffffffff161461278e5733600560006101000a81548173ffffffffffffffffffffffffffffffffffffffff021916908373ffffffffffffffffffffffffffffffffffffffff1602179055505b600560009054906101000a900473ffffffffffffffffffffffffffffffffffffffff16600a60019054906101000a900473ffffffffffffffffffffffffffffffffffffffff1673ffffffffffffffffffffffffffffffffffffffff1663eb1edd616040518163ffffffff1660e01b815260040160206040518083038186803b15801561281957600080fd5b505afa15801561282d573d6000803e3d6000fd5b505050506040513d601f19601f820116820180604052508101906128519190615c6f565b73ffffffffffffffffffffffffffffffffffffffff168173ffffffffffffffffffffffffffffffffffffffff1614156128bf576040517f08c379a00000000000000000000000000000000000000000000000000000000081526004016128b690616885565b60405180910390fd5b6000600a60019054906101000a900473ffffffffffffffffffffffffffffffffffffffff1673ffffffffffffffffffffffffffffffffffffffff1663b7fcfa69856040518263ffffffff1660e01b815260040161291c91906169ba565b60206040518083038186803b15801561293457600080fd5b505afa158015612948573d6000803e3d6000fd5b505050506040513d601f19601f8201168201806040525081019061296c9190615ff3565b90506000818561297c9190616b0b565b9050600b60009054906101000a900473ffffffffffffffffffffffffffffffffffffffff1673ffffffffffffffffffffffffffffffffffffffff1663be576364600560009054906101000a900473ffffffffffffffffffffffffffffffffffffffff16600b60149054906101000a900460e01b846040518463ffffffff1660e01b8152600401612a0e9392919061646c565b602060405180830381600087803b158015612a2857600080fd5b505af1158015612a3c573d6000803e3d6000fd5b505050506040513d601f19601f82011682018060405250810190612a609190615eab565b506060612a91600560009054906101000a900473ffffffffffffffffffffffffffffffffffffffff16888584614c54565b94505050505092915050565b600460009054906101000a900473ffffffffffffffffffffffffffffffffffffffff1673ffffffffffffffffffffffffffffffffffffffff163373ffffffffffffffffffffffffffffffffffffffff1614612b345733600560006101000a81548173ffffffffffffffffffffffffffffffffffffffff021916908373ffffffffffffffffffffffffffffffffffffffff1602179055505b60008054906101000a900473ffffffffffffffffffffffffffffffffffffffff1673ffffffffffffffffffffffffffffffffffffffff16600560009054906101000a900473ffffffffffffffffffffffffffffffffffffffff1673ffffffffffffffffffffffffffffffffffffffff1614612be4576040517f08c379a0000000000000000000000000000000000000000000000000000000008152600401612bdb9061693a565b60405180910390fd5b6000600d60009054906101000a900473ffffffffffffffffffffffffffffffffffffffff1673ffffffffffffffffffffffffffffffffffffffff166339d66fc0600c54600b60149054906101000a900460e01b6040518363ffffffff1660e01b8152600401612c549291906168e5565b60206040518083038186803b158015612c6c57600080fd5b505afa158015612c80573d6000803e3d6000fd5b505050506040513d601f19601f82011682018060405250810190612ca49190615ff3565b905080600954111580612d6d5750600d60009054906101000a900473ffffffffffffffffffffffffffffffffffffffff1673ffffffffffffffffffffffffffffffffffffffff1663ad752d67600b60149054906101000a900460e01b6040518263ffffffff1660e01b8152600401612d1c91906165c9565b60206040518083038186803b158015612d3457600080fd5b505afa158015612d48573d6000803e3d6000fd5b505050506040513d601f19601f82011682018060405250810190612d6c9190615eab565b5b612dac576040517f08c379a0000000000000000000000000000000000000000000000000000000008152600401612da39061699a565b60405180910390fd5b60005b82518160ff161015612efc576000838260ff1681518110612df9577f4e487b7100000000000000000000000000000000000000000000000000000000600052603260045260246000fd5b602002602001015190506000612e0e82611a9c565b90506000811115612ee757600b60009054906101000a900473ffffffffffffffffffffffffffffffffffffffff1673ffffffffffffffffffffffffffffffffffffffff1663be0ecd3283600b60149054906101000a900460e01b84866040518563ffffffff1660e01b8152600401612e8994939291906164f6565b602060405180830381600087803b158015612ea357600080fd5b505af1158015612eb7573d6000803e3d6000fd5b505050506040513d601f19601f82011682018060405250810190612edb9190615eab565b50612ee6828261527b565b5b50508080612ef490616e1f565b915050612daf565b505050565b6000600460009054906101000a900473ffffffffffffffffffffffffffffffffffffffff1673ffffffffffffffffffffffffffffffffffffffff163373ffffffffffffffffffffffffffffffffffffffff1614612f9a5733600560006101000a81548173ffffffffffffffffffffffffffffffffffffffff021916908373ffffffffffffffffffffffffffffffffffffffff1602179055505b84600a60019054906101000a900473ffffffffffffffffffffffffffffffffffffffff1673ffffffffffffffffffffffffffffffffffffffff1663eb1edd616040518163ffffffff1660e01b815260040160206040518083038186803b15801561300357600080fd5b505afa158015613017573d6000803e3d6000fd5b505050506040513d601f19601f8201168201806040525081019061303b9190615c6f565b73ffffffffffffffffffffffffffffffffffffffff168173ffffffffffffffffffffffffffffffffffffffff1614156130a9576040517f08c379a00000000000000000000000000000000000000000000000000000000081526004016130a090616885565b60405180910390fd5b6000600a60019054906101000a900473ffffffffffffffffffffffffffffffffffffffff1673ffffffffffffffffffffffffffffffffffffffff1663b7fcfa69866040518263ffffffff1660e01b815260040161310691906169ba565b60206040518083038186803b15801561311e57600080fd5b505afa158015613132573d6000803e3d6000fd5b505050506040513d601f19601f820116820180604052508101906131569190615ff3565b9050600081866131669190616b0b565b9050600660009054906101000a900473ffffffffffffffffffffffffffffffffffffffff1673ffffffffffffffffffffffffffffffffffffffff1663da46098c89600560009054906101000a900473ffffffffffffffffffffffffffffffffffffffff1689600660009054906101000a900473ffffffffffffffffffffffffffffffffffffffff1673ffffffffffffffffffffffffffffffffffffffff1663dd62ed3e8e600560009054906101000a900473ffffffffffffffffffffffffffffffffffffffff166040518363ffffffff1660e01b815260040161324a92919061640c565b60206040518083038186803b15801561326257600080fd5b505afa158015613276573d6000803e3d6000fd5b505050506040513d601f19601f8201168201806040525081019061329a9190615ff3565b6132a49190616b0b565b6040518463ffffffff1660e01b81526004016132c293929190616435565b600060405180830381600087803b1580156132dc57600080fd5b505af11580156132f0573d6000803e3d6000fd5b50505050600b60009054906101000a900473ffffffffffffffffffffffffffffffffffffffff1673ffffffffffffffffffffffffffffffffffffffff1663be57636489600b60149054906101000a900460e01b846040518463ffffffff1660e01b81526004016133629392919061646c565b602060405180830381600087803b15801561337c57600080fd5b505af1158015613390573d6000803e3d6000fd5b505050506040513d601f19601f820116820180604052508101906133b49190615eab565b506133c188888488614c54565b9350505050949350505050565b600a60019054906101000a900473ffffffffffffffffffffffffffffffffffffffff1681565b6000600460009054906101000a900473ffffffffffffffffffffffffffffffffffffffff1673ffffffffffffffffffffffffffffffffffffffff163373ffffffffffffffffffffffffffffffffffffffff161461348d5733600560006101000a81548173ffffffffffffffffffffffffffffffffffffffff021916908373ffffffffffffffffffffffffffffffffffffffff1602179055505b600560009054906101000a900473ffffffffffffffffffffffffffffffffffffffff16600a60019054906101000a900473ffffffffffffffffffffffffffffffffffffffff1673ffffffffffffffffffffffffffffffffffffffff1663eb1edd616040518163ffffffff1660e01b815260040160206040518083038186803b15801561351857600080fd5b505afa15801561352c573d6000803e3d6000fd5b505050506040513d601f19601f820116820180604052508101906135509190615c6f565b73ffffffffffffffffffffffffffffffffffffffff168173ffffffffffffffffffffffffffffffffffffffff1614156135be576040517f08c379a00000000000000000000000000000000000000000000000000000000081526004016135b590616885565b60405180910390fd5b6000600a60019054906101000a900473ffffffffffffffffffffffffffffffffffffffff1673ffffffffffffffffffffffffffffffffffffffff1663da46e6c4866040518263ffffffff1660e01b815260040161361b91906169ba565b60206040518083038186803b15801561363357600080fd5b505afa158015613647573d6000803e3d6000fd5b505050506040513d601f19601f8201168201806040525081019061366b9190615ff3565b9050600b60009054906101000a900473ffffffffffffffffffffffffffffffffffffffff1673ffffffffffffffffffffffffffffffffffffffff1663be576364600560009054906101000a900473ffffffffffffffffffffffffffffffffffffffff16600b60149054906101000a900460e01b846040518463ffffffff1660e01b81526004016136fd9392919061646c565b602060405180830381600087803b15801561371757600080fd5b505af115801561372b573d6000803e3d6000fd5b505050506040513d601f19601f8201168201806040525081019061374f9190615eab565b5061377e600560009054906101000a900473ffffffffffffffffffffffffffffffffffffffff16878787614c54565b925050509392505050565b600360009054906101000a900460ff1681565b600460009054906101000a900473ffffffffffffffffffffffffffffffffffffffff1673ffffffffffffffffffffffffffffffffffffffff163373ffffffffffffffffffffffffffffffffffffffff161461382c576040517f08c379a000000000000000000000000000000000000000000000000000000000815260040161382390616825565b60405180910390fd5b80600560006101000a81548173ffffffffffffffffffffffffffffffffffffffff021916908373ffffffffffffffffffffffffffffffffffffffff16021790555050565b60008054906101000a900473ffffffffffffffffffffffffffffffffffffffff1673ffffffffffffffffffffffffffffffffffffffff163373ffffffffffffffffffffffffffffffffffffffff16146138fe576040517f08c379a00000000000000000000000000000000000000000000000000000000081526004016138f5906168c5565b60405180910390fd5b426002819055506001600360006101000a81548160ff0219169083151502179055507fcbd94ca75b8dc45c9d80c77e851670e78843c0d75180cb81db3e2158228fa9a66224ea0060405161395291906169ba565b60405180910390a1565b6000600460009054906101000a900473ffffffffffffffffffffffffffffffffffffffff1673ffffffffffffffffffffffffffffffffffffffff163373ffffffffffffffffffffffffffffffffffffffff16146139f55733600560006101000a81548173ffffffffffffffffffffffffffffffffffffffff021916908373ffffffffffffffffffffffffffffffffffffffff1602179055505b600560009054906101000a900473ffffffffffffffffffffffffffffffffffffffff16600a60019054906101000a900473ffffffffffffffffffffffffffffffffffffffff1673ffffffffffffffffffffffffffffffffffffffff1663eb1edd616040518163ffffffff1660e01b815260040160206040518083038186803b158015613a8057600080fd5b505afa158015613a94573d6000803e3d6000fd5b505050506040513d601f19601f82011682018060405250810190613ab89190615c6f565b73ffffffffffffffffffffffffffffffffffffffff168173ffffffffffffffffffffffffffffffffffffffff161415613b26576040517f08c379a0000000000000000000000000000000000000000000000000000000008152600401613b1d90616885565b60405180910390fd5b6000600a60019054906101000a900473ffffffffffffffffffffffffffffffffffffffff1673ffffffffffffffffffffffffffffffffffffffff1663b7fcfa69866040518263ffffffff1660e01b8152600401613b8391906169ba565b60206040518083038186803b158015613b9b57600080fd5b505afa158015613baf573d6000803e3d6000fd5b505050506040513d601f19601f82011682018060405250810190613bd39190615ff3565b905060008186613be39190616b0b565b9050600b60009054906101000a900473ffffffffffffffffffffffffffffffffffffffff1673ffffffffffffffffffffffffffffffffffffffff1663be576364600560009054906101000a900473ffffffffffffffffffffffffffffffffffffffff16600b60149054906101000a900460e01b846040518463ffffffff1660e01b8152600401613c759392919061646c565b602060405180830381600087803b158015613c8f57600080fd5b505af1158015613ca3573d6000803e3d6000fd5b505050506040513d601f19601f82011682018060405250810190613cc79190615eab565b50613cf6600560009054906101000a900473ffffffffffffffffffffffffffffffffffffffff16888488614c54565b93505050509392505050565b600360019054906101000a900473ffffffffffffffffffffffffffffffffffffffff1681565b6000600460009054906101000a900473ffffffffffffffffffffffffffffffffffffffff1673ffffffffffffffffffffffffffffffffffffffff163373ffffffffffffffffffffffffffffffffffffffff1614613dc15733600560006101000a81548173ffffffffffffffffffffffffffffffffffffffff021916908373ffffffffffffffffffffffffffffffffffffffff1602179055505b600560009054906101000a900473ffffffffffffffffffffffffffffffffffffffff16600a60019054906101000a900473ffffffffffffffffffffffffffffffffffffffff1673ffffffffffffffffffffffffffffffffffffffff1663eb1edd616040518163ffffffff1660e01b815260040160206040518083038186803b158015613e4c57600080fd5b505afa158015613e60573d6000803e3d6000fd5b505050506040513d601f19601f82011682018060405250810190613e849190615c6f565b73ffffffffffffffffffffffffffffffffffffffff168173ffffffffffffffffffffffffffffffffffffffff161415613ef2576040517f08c379a0000000000000000000000000000000000000000000000000000000008152600401613ee990616885565b60405180910390fd5b6000600a60019054906101000a900473ffffffffffffffffffffffffffffffffffffffff1673ffffffffffffffffffffffffffffffffffffffff1663da46e6c4856040518263ffffffff1660e01b8152600401613f4f91906169ba565b60206040518083038186803b158015613f6757600080fd5b505afa158015613f7b573d6000803e3d6000fd5b505050506040513d601f19601f82011682018060405250810190613f9f9190615ff3565b9050600b60009054906101000a900473ffffffffffffffffffffffffffffffffffffffff1673ffffffffffffffffffffffffffffffffffffffff1663be576364600560009054906101000a900473ffffffffffffffffffffffffffffffffffffffff16600b60149054906101000a900460e01b846040518463ffffffff1660e01b81526004016140319392919061646c565b602060405180830381600087803b15801561404b57600080fd5b505af115801561405f573d6000803e3d6000fd5b505050506040513d601f19601f820116820180604052508101906140839190615eab565b5060606140b4600560009054906101000a900473ffffffffffffffffffffffffffffffffffffffff16878784614c54565b935050505092915050565b600b60149054906101000a900460e01b81565b6000600660009054906101000a900473ffffffffffffffffffffffffffffffffffffffff1673ffffffffffffffffffffffffffffffffffffffff1663dd62ed3e84846040518363ffffffff1660e01b815260040161413192919061640c565b60206040518083038186803b15801561414957600080fd5b505afa15801561415d573d6000803e3d6000fd5b505050506040513d601f19601f820116820180604052508101906141819190615ff3565b905092915050565b6000600460009054906101000a900473ffffffffffffffffffffffffffffffffffffffff1673ffffffffffffffffffffffffffffffffffffffff163373ffffffffffffffffffffffffffffffffffffffff16146142225733600560006101000a81548173ffffffffffffffffffffffffffffffffffffffff021916908373ffffffffffffffffffffffffffffffffffffffff1602179055505b83600a60019054906101000a900473ffffffffffffffffffffffffffffffffffffffff1673ffffffffffffffffffffffffffffffffffffffff1663eb1edd616040518163ffffffff1660e01b815260040160206040518083038186803b15801561428b57600080fd5b505afa15801561429f573d6000803e3d6000fd5b505050506040513d601f19601f820116820180604052508101906142c39190615c6f565b73ffffffffffffffffffffffffffffffffffffffff168173ffffffffffffffffffffffffffffffffffffffff161415614331576040517f08c379a000000000000000000000000000000000000000000000000000000000815260040161432890616885565b60405180910390fd5b6000600a60019054906101000a900473ffffffffffffffffffffffffffffffffffffffff1673ffffffffffffffffffffffffffffffffffffffff1663da46e6c4856040518263ffffffff1660e01b815260040161438e91906169ba565b60206040518083038186803b1580156143a657600080fd5b505afa1580156143ba573d6000803e3d6000fd5b505050506040513d601f19601f820116820180604052508101906143de9190615ff3565b9050600660009054906101000a900473ffffffffffffffffffffffffffffffffffffffff1673ffffffffffffffffffffffffffffffffffffffff1663da46098c87600560009054906101000a900473ffffffffffffffffffffffffffffffffffffffff168488600660009054906101000a900473ffffffffffffffffffffffffffffffffffffffff1673ffffffffffffffffffffffffffffffffffffffff1663dd62ed3e8d600560009054906101000a900473ffffffffffffffffffffffffffffffffffffffff166040518363ffffffff1660e01b81526004016144c392919061640c565b60206040518083038186803b1580156144db57600080fd5b505afa1580156144ef573d6000803e3d6000fd5b505050506040513d601f19601f820116820180604052508101906145139190615ff3565b61451d9190616b0b565b6145279190616ab5565b6040518463ffffffff1660e01b815260040161454593929190616435565b600060405180830381600087803b15801561455f57600080fd5b505af1158015614573573d6000803e3d6000fd5b50505050600b60009054906101000a900473ffffffffffffffffffffffffffffffffffffffff1673ffffffffffffffffffffffffffffffffffffffff1663be57636487600b60149054906101000a900460e01b846040518463ffffffff1660e01b81526004016145e59392919061646c565b602060405180830381600087803b1580156145ff57600080fd5b505af1158015614613573d6000803e3d6000fd5b505050506040513d601f19601f820116820180604052508101906146379190615eab565b50606061464687878784614c54565b93505050509392505050565b600660009054906101000a900473ffffffffffffffffffffffffffffffffffffffff1681565b6000600b60009054906101000a900473ffffffffffffffffffffffffffffffffffffffff1673ffffffffffffffffffffffffffffffffffffffff163373ffffffffffffffffffffffffffffffffffffffff161490506000600a60019054906101000a900473ffffffffffffffffffffffffffffffffffffffff1673ffffffffffffffffffffffffffffffffffffffff163373ffffffffffffffffffffffffffffffffffffffff16149050818061472b5750805b61476a576040517f08c379a0000000000000000000000000000000000000000000000000000000008152600401614761906168a5565b60405180910390fd5b60606147788686868461535f565b505050505050565b600460009054906101000a900473ffffffffffffffffffffffffffffffffffffffff1681565b600460009054906101000a900473ffffffffffffffffffffffffffffffffffffffff1673ffffffffffffffffffffffffffffffffffffffff163373ffffffffffffffffffffffffffffffffffffffff161461483d5733600560006101000a81548173ffffffffffffffffffffffffffffffffffffffff021916908373ffffffffffffffffffffffffffffffffffffffff1602179055505b60008054906101000a900473ffffffffffffffffffffffffffffffffffffffff1673ffffffffffffffffffffffffffffffffffffffff16600560009054906101000a900473ffffffffffffffffffffffffffffffffffffffff1673ffffffffffffffffffffffffffffffffffffffff16146148ed576040517f08c379a00000000000000000000000000000000000000000000000000000000081526004016148e49061693a565b60405180910390fd5b8060098190555050565b600460009054906101000a900473ffffffffffffffffffffffffffffffffffffffff1673ffffffffffffffffffffffffffffffffffffffff163373ffffffffffffffffffffffffffffffffffffffff161461498e5733600560006101000a81548173ffffffffffffffffffffffffffffffffffffffff021916908373ffffffffffffffffffffffffffffffffffffffff1602179055505b60008054906101000a900473ffffffffffffffffffffffffffffffffffffffff1673ffffffffffffffffffffffffffffffffffffffff16600560009054906101000a900473ffffffffffffffffffffffffffffffffffffffff1673ffffffffffffffffffffffffffffffffffffffff1614614a3e576040517f08c379a0000000000000000000000000000000000000000000000000000000008152600401614a359061693a565b60405180910390fd5b80600b60006101000a81548173ffffffffffffffffffffffffffffffffffffffff021916908373ffffffffffffffffffffffffffffffffffffffff160217905550614a88816154f7565b50565b600460009054906101000a900473ffffffffffffffffffffffffffffffffffffffff1673ffffffffffffffffffffffffffffffffffffffff1663907dff9782604051602001614ada91906169ba565b60405160208183030381529060405260037f8c5be1e5ebec7d5bd14f71427d1e84f3dd0314c0f7b2291e5b200ac8c7c3b925614b15886155d3565b614b1e886155d3565b60006040518763ffffffff1660e01b8152600401614b41969594939291906166b4565b600060405180830381600087803b158015614b5b57600080fd5b505af1158015614b6f573d6000803e3d6000fd5b50505050505050565b600460009054906101000a900473ffffffffffffffffffffffffffffffffffffffff1673ffffffffffffffffffffffffffffffffffffffff1663907dff9782604051602001614bc791906163d6565b60405160208183030381529060405260017f6d1d088acfe4f30d6014f6f693c61c16258f9784a6ed8439b2c59213eecb629560008060006040518763ffffffff1660e01b8152600401614c1f969594939291906165e4565b600060405180830381600087803b158015614c3957600080fd5b505af1158015614c4d573d6000803e3d6000fd5b5050505050565b600080600b60009054906101000a900473ffffffffffffffffffffffffffffffffffffffff1673ffffffffffffffffffffffffffffffffffffffff1663dbd4a4226040518163ffffffff1660e01b815260040160206040518083038186803b158015614cbf57600080fd5b505afa158015614cd3573d6000803e3d6000fd5b505050506040513d601f19601f82011682018060405250810190614cf79190615f4f565b73ffffffffffffffffffffffffffffffffffffffff1663caca2516866040518263ffffffff1660e01b8152600401614d2f91906163d6565b60206040518083038186803b158015614d4757600080fd5b505afa158015614d5b573d6000803e3d6000fd5b505050506040513d601f19601f82011682018060405250810190614d7f9190615ed4565b9050600060e01b817bffffffffffffffffffffffffffffffffffffffffffffffffffffffff191614158015614e015750600b60149054906101000a900460e01b7bffffffffffffffffffffffffffffffffffffffffffffffffffffffff1916817bffffffffffffffffffffffffffffffffffffffffffffffffffffffff191614155b15614ed257600b60009054906101000a900473ffffffffffffffffffffffffffffffffffffffff1673ffffffffffffffffffffffffffffffffffffffff1663be0ecd3287600b60149054906101000a900460e01b87858a6040518663ffffffff1660e01b8152600401614e789594939291906164a3565b602060405180830381600087803b158015614e9257600080fd5b505af1158015614ea6573d6000803e3d6000fd5b505050506040513d601f19601f82011682018060405250810190614eca9190615eab565b915050614ee2565b614ede868686866155f6565b9150505b949350505050565b600460009054906101000a900473ffffffffffffffffffffffffffffffffffffffff1673ffffffffffffffffffffffffffffffffffffffff1663907dff9782604051602001614f3991906169ba565b60405160208183030381529060405260037fddf252ad1be2c89b69c2b068fc378daa952ba7f163c4a11628f55a4df523b3ef614f74886155d3565b614f7d886155d3565b60006040518763ffffffff1660e01b8152600401614fa0969594939291906166b4565b600060405180830381600087803b158015614fba57600080fd5b505af1158015614fce573d6000803e3d6000fd5b50505050505050565b600460009054906101000a900473ffffffffffffffffffffffffffffffffffffffff1673ffffffffffffffffffffffffffffffffffffffff1663907dff978260405160200161502691906169ba565b60405160208183030381529060405260027fa59f12e354e8cd10bb74c559844c2dd69a5458e31fe56c7594c62ca57480509a615061876155d3565b6000806040518763ffffffff1660e01b81526004016150859695949392919061664c565b600060405180830381600087803b15801561509f57600080fd5b505af11580156150b3573d6000803e3d6000fd5b505050505050565b600460009054906101000a900473ffffffffffffffffffffffffffffffffffffffff1673ffffffffffffffffffffffffffffffffffffffff1663907dff978260405160200161510a91906169ba565b60405160208183030381529060405260027f696de425f79f4a40bc6d2122ca50507f0efbeabbff86a84871b7196ab8ea8df7615145876155d3565b6000806040518763ffffffff1660e01b81526004016151699695949392919061664c565b600060405180830381600087803b15801561518357600080fd5b505af1158015615197573d6000803e3d6000fd5b505050505050565b600460009054906101000a900473ffffffffffffffffffffffffffffffffffffffff1673ffffffffffffffffffffffffffffffffffffffff1663907dff97826040516020016151ee91906163d6565b60405160208183030381529060405260017fa538c4dcfe9fb148efee2952bafe34982d2d07d5fbb38ae5b44abf659a46bfd860008060006040518763ffffffff1660e01b8152600401615246969594939291906165e4565b600060405180830381600087803b15801561526057600080fd5b505af1158015615274573d6000803e3d6000fd5b5050505050565b600460009054906101000a900473ffffffffffffffffffffffffffffffffffffffff1673ffffffffffffffffffffffffffffffffffffffff1663907dff97826040516020016152ca91906169ba565b60405160208183030381529060405260027f265db6c9c62cb962adbcf4398a54e4b02b2d87b28ab5b7538850150465a5f43c615305876155d3565b6000806040518763ffffffff1660e01b81526004016153299695949392919061664c565b600060405180830381600087803b15801561534357600080fd5b505af1158015615357573d6000803e3d6000fd5b505050505050565b600560149054906101000a900460ff16156153af576040517f08c379a00000000000000000000000000000000000000000000000000000000081526004016153a690616845565b60405180910390fd5b6001600560146101000a81548160ff0219169083151502179055506000833b905060008111156154d5578373ffffffffffffffffffffffffffffffffffffffff1685848460405160240161540593929190616570565b6040516020818303038152906040527fc0ee0b8a000000000000000000000000000000000000000000000000000000007bffffffffffffffffffffffffffffffffffffffffffffffffffffffff19166020820180517bffffffffffffffffffffffffffffffffffffffffffffffffffffffff838183161783525050505060405161548f91906163bf565b6000604051808303816000865af19150503d80600081146154cc576040519150601f19603f3d011682016040523d82523d6000602084013e6154d1565b606091505b5050505b506000600560146101000a81548160ff02191690831515021790555050505050565b600460009054906101000a900473ffffffffffffffffffffffffffffffffffffffff1673ffffffffffffffffffffffffffffffffffffffff1663907dff978260405160200161554691906163d6565b60405160208183030381529060405260017f46e9c68bd7831071bdd478f1ae4c4a52463961a9d620383a0a121dbfc0e0f06d60008060006040518763ffffffff1660e01b815260040161559e969594939291906165e4565b600060405180830381600087803b1580156155b857600080fd5b505af11580156155cc573d6000803e3d6000fd5b5050505050565b60008173ffffffffffffffffffffffffffffffffffffffff1660001b9050919050565b60008073ffffffffffffffffffffffffffffffffffffffff168473ffffffffffffffffffffffffffffffffffffffff161415615667576040517f08c379a000000000000000000000000000000000000000000000000000000000815260040161565e906167e5565b60405180910390fd5b3073ffffffffffffffffffffffffffffffffffffffff168473ffffffffffffffffffffffffffffffffffffffff1614156156d6576040517f08c379a00000000000000000000000000000000000000000000000000000000081526004016156cd9061695a565b60405180910390fd5b600460009054906101000a900473ffffffffffffffffffffffffffffffffffffffff1673ffffffffffffffffffffffffffffffffffffffff168473ffffffffffffffffffffffffffffffffffffffff161415615767576040517f08c379a000000000000000000000000000000000000000000000000000000000815260040161575e90616805565b60405180910390fd5b600660009054906101000a900473ffffffffffffffffffffffffffffffffffffffff1673ffffffffffffffffffffffffffffffffffffffff1663b46310f68661586386600660009054906101000a900473ffffffffffffffffffffffffffffffffffffffff1673ffffffffffffffffffffffffffffffffffffffff166370a082318b6040518263ffffffff1660e01b815260040161580591906163d6565b60206040518083038186803b15801561581d57600080fd5b505afa158015615831573d6000803e3d6000fd5b505050506040513d601f19601f820116820180604052508101906158559190615ff3565b615a2090919063ffffffff16565b6040518363ffffffff1660e01b8152600401615880929190616547565b600060405180830381600087803b15801561589a57600080fd5b505af11580156158ae573d6000803e3d6000fd5b50505050600660009054906101000a900473ffffffffffffffffffffffffffffffffffffffff1673ffffffffffffffffffffffffffffffffffffffff1663b46310f6856159ae86600660009054906101000a900473ffffffffffffffffffffffffffffffffffffffff1673ffffffffffffffffffffffffffffffffffffffff166370a082318a6040518263ffffffff1660e01b815260040161595091906163d6565b60206040518083038186803b15801561596857600080fd5b505afa15801561597c573d6000803e3d6000fd5b505050506040513d601f19601f820116820180604052508101906159a09190615ff3565b615a3690919063ffffffff16565b6040518363ffffffff1660e01b81526004016159cb929190616547565b600060405180830381600087803b1580156159e557600080fd5b505af11580156159f9573d6000803e3d6000fd5b50505050615a098585858561535f565b615a14858585614eea565b60019050949350505050565b60008183615a2e9190616b0b565b905092915050565b60008183615a449190616ab5565b905092915050565b6000615a5f615a5a84616a15565b6169f0565b90508083825260208201905082856020860282011115615a7e57600080fd5b60005b85811015615aae5781615a948882615af6565b845260208401935060208301925050600181019050615a81565b5050509392505050565b6000615acb615ac684616a41565b6169f0565b905082815260208101848484011115615ae357600080fd5b615aee848285616d7a565b509392505050565b600081359050615b0581617320565b92915050565b600081519050615b1a81617320565b92915050565b600081359050615b2f81617337565b92915050565b600082601f830112615b4657600080fd5b8135615b56848260208601615a4c565b91505092915050565b600081519050615b6e8161734e565b92915050565b600081519050615b8381617365565b92915050565b600082601f830112615b9a57600080fd5b8135615baa848260208601615ab8565b91505092915050565b600081359050615bc28161737c565b92915050565b600081359050615bd781617393565b92915050565b600081519050615bec816173aa565b92915050565b600081359050615c01816173c1565b92915050565b600081359050615c16816173d8565b92915050565b600081359050615c2b816173ef565b92915050565b600081519050615c40816173ef565b92915050565b600060208284031215615c5857600080fd5b6000615c6684828501615af6565b91505092915050565b600060208284031215615c8157600080fd5b6000615c8f84828501615b0b565b91505092915050565b600060208284031215615caa57600080fd5b6000615cb884828501615b20565b91505092915050565b60008060408385031215615cd457600080fd5b6000615ce285828601615af6565b9250506020615cf385828601615af6565b9150509250929050565b600080600060608486031215615d1257600080fd5b6000615d2086828701615af6565b9350506020615d3186828701615af6565b9250506040615d4286828701615c1c565b9150509250925092565b60008060008060808587031215615d6257600080fd5b6000615d7087828801615af6565b9450506020615d8187828801615af6565b9350506040615d9287828801615c1c565b925050606085013567ffffffffffffffff811115615daf57600080fd5b615dbb87828801615b89565b91505092959194509250565b60008060408385031215615dda57600080fd5b6000615de885828601615af6565b9250506020615df985828601615c1c565b9150509250929050565b600080600060608486031215615e1857600080fd5b6000615e2686828701615af6565b9350506020615e3786828701615c1c565b925050604084013567ffffffffffffffff811115615e5457600080fd5b615e6086828701615b89565b9150509250925092565b600060208284031215615e7c57600080fd5b600082013567ffffffffffffffff811115615e9657600080fd5b615ea284828501615b35565b91505092915050565b600060208284031215615ebd57600080fd5b6000615ecb84828501615b5f565b91505092915050565b600060208284031215615ee657600080fd5b6000615ef484828501615b74565b91505092915050565b600060208284031215615f0f57600080fd5b6000615f1d84828501615bb3565b91505092915050565b600060208284031215615f3857600080fd5b6000615f4684828501615bc8565b91505092915050565b600060208284031215615f6157600080fd5b6000615f6f84828501615bdd565b91505092915050565b600060208284031215615f8a57600080fd5b6000615f9884828501615bf2565b91505092915050565b600060208284031215615fb357600080fd5b6000615fc184828501615c07565b91505092915050565b600060208284031215615fdc57600080fd5b6000615fea84828501615c1c565b91505092915050565b60006020828403121561600557600080fd5b600061601384828501615c31565b91505092915050565b61602581616c40565b82525050565b61603481616b3f565b82525050565b61604381616b63565b82525050565b61605281616b6f565b82525050565b61606181616b79565b82525050565b600061607282616a72565b61607c8185616a88565b935061608c818560208601616d89565b61609581616ed6565b840191505092915050565b60006160ab82616a72565b6160b58185616a99565b93506160c5818560208601616d89565b80840191505092915050565b6160da81616c52565b82525050565b6160e981616c76565b82525050565b6160f881616c9a565b82525050565b61610781616cbe565b82525050565b61611681616ce2565b82525050565b61612581616d06565b82525050565b61613481616d20565b82525050565b61614381616d32565b82525050565b61615281616d44565b82525050565b600061616382616a7d565b61616d8185616aa4565b935061617d818560208601616d89565b61618681616ed6565b840191505092915050565b600061619e603583616aa4565b91506161a982616ef4565b604082019050919050565b60006161c1602083616aa4565b91506161cc82616f43565b602082019050919050565b60006161e4602583616aa4565b91506161ef82616f6c565b604082019050919050565b6000616207602583616aa4565b915061621282616fbb565b604082019050919050565b600061622a601e83616aa4565b91506162358261700a565b602082019050919050565b600061624d602883616aa4565b915061625882617033565b604082019050919050565b6000616270602f83616aa4565b915061627b82617082565b604082019050919050565b6000616293603f83616aa4565b915061629e826170d1565b604082019050919050565b60006162b6602f83616aa4565b91506162c182617120565b604082019050919050565b7f7355534400000000000000000000000000000000000000000000000000000000815250565b60006162ff602883616aa4565b915061630a8261716f565b604082019050919050565b6000616322602e83616aa4565b915061632d826171be565b604082019050919050565b6000616345602a83616aa4565b91506163508261720d565b604082019050919050565b6000616368602783616aa4565b91506163738261725c565b604082019050919050565b600061638b604783616aa4565b9150616396826172ab565b606082019050919050565b6163aa81616c29565b82525050565b6163b981616c33565b82525050565b60006163cb82846160a0565b915081905092915050565b60006020820190506163eb600083018461602b565b92915050565b6000602082019050616406600083018461601c565b92915050565b6000604082019050616421600083018561602b565b61642e602083018461602b565b9392505050565b600060608201905061644a600083018661602b565b616457602083018561602b565b61646460408301846163a1565b949350505050565b6000606082019050616481600083018661602b565b61648e6020830185616058565b61649b60408301846163a1565b949350505050565b600060a0820190506164b8600083018861602b565b6164c56020830187616058565b6164d260408301866163a1565b6164df6060830185616058565b6164ec608083018461602b565b9695505050505050565b600060a08201905061650b600083018761602b565b6165186020830186616058565b61652560408301856163a1565b616531606083016162cc565b61653e608083018461602b565b95945050505050565b600060408201905061655c600083018561602b565b61656960208301846163a1565b9392505050565b6000606082019050616585600083018661602b565b61659260208301856163a1565b81810360408301526165a48184616067565b9050949350505050565b60006020820190506165c3600083018461603a565b92915050565b60006020820190506165de6000830184616058565b92915050565b600060c08201905081810360008301526165fe8189616067565b905061660d602083018861612b565b61661a6040830187616049565b616627606083018661611c565b616634608083018561611c565b61664160a083018461611c565b979650505050505050565b600060c08201905081810360008301526166668189616067565b9050616675602083018861613a565b6166826040830187616049565b61668f6060830186616049565b61669c608083018561611c565b6166a960a083018461611c565b979650505050505050565b600060c08201905081810360008301526166ce8189616067565b90506166dd6020830188616149565b6166ea6040830187616049565b6166f76060830186616049565b6167046080830185616049565b61671160a083018461611c565b979650505050505050565b600060208201905061673160008301846160d1565b92915050565b600060208201905061674c60008301846160e0565b92915050565b600060208201905061676760008301846160ef565b92915050565b600060208201905061678260008301846160fe565b92915050565b600060208201905061679d600083018461610d565b92915050565b600060208201905081810360008301526167bd8184616158565b905092915050565b600060208201905081810360008301526167de81616191565b9050919050565b600060208201905081810360008301526167fe816161b4565b9050919050565b6000602082019050818103600083015261681e816161d7565b9050919050565b6000602082019050818103600083015261683e816161fa565b9050919050565b6000602082019050818103600083015261685e8161621d565b9050919050565b6000602082019050818103600083015261687e81616240565b9050919050565b6000602082019050818103600083015261689e81616263565b9050919050565b600060208201905081810360008301526168be81616286565b9050919050565b600060208201905081810360008301526168de816162a9565b9050919050565b60006060820190506168f9600083016162cc565b61690660208301856163a1565b6169136040830184616058565b9392505050565b60006020820190508181036000830152616933816162f2565b9050919050565b6000602082019050818103600083015261695381616315565b9050919050565b6000602082019050818103600083015261697381616338565b9050919050565b600060208201905081810360008301526169938161635b565b9050919050565b600060208201905081810360008301526169b38161637e565b9050919050565b60006020820190506169cf60008301846163a1565b92915050565b60006020820190506169ea60008301846163b0565b92915050565b60006169fa616a0b565b9050616a068282616dee565b919050565b6000604051905090565b600067ffffffffffffffff821115616a3057616a2f616ea7565b5b602082029050602081019050919050565b600067ffffffffffffffff821115616a5c57616a5b616ea7565b5b616a6582616ed6565b9050602081019050919050565b600081519050919050565b600081519050919050565b600082825260208201905092915050565b600081905092915050565b600082825260208201905092915050565b6000616ac082616c29565b9150616acb83616c29565b9250827fffffffffffffffffffffffffffffffffffffffffffffffffffffffffffffffff03821115616b0057616aff616e49565b5b828201905092915050565b6000616b1682616c29565b9150616b2183616c29565b925082821015616b3457616b33616e49565b5b828203905092915050565b6000616b4a82616c09565b9050919050565b6000616b5c82616c09565b9050919050565b60008115159050919050565b6000819050919050565b60007fffffffff0000000000000000000000000000000000000000000000000000000082169050919050565b6000616bb082616b3f565b9050919050565b6000616bc282616b3f565b9050919050565b6000616bd482616b3f565b9050919050565b6000616be682616b3f565b9050919050565b6000616bf882616b3f565b9050919050565b6000819050919050565b600073ffffffffffffffffffffffffffffffffffffffff82169050919050565b6000819050919050565b600060ff82169050919050565b6000616c4b82616d56565b9050919050565b6000616c5d82616c64565b9050919050565b6000616c6f82616c09565b9050919050565b6000616c8182616c88565b9050919050565b6000616c9382616c09565b9050919050565b6000616ca582616cac565b9050919050565b6000616cb782616c09565b9050919050565b6000616cc982616cd0565b9050919050565b6000616cdb82616c09565b9050919050565b6000616ced82616cf4565b9050919050565b6000616cff82616c09565b9050919050565b6000616d19616d1483616bff565b616ee7565b9050919050565b6000616d2b82616c29565b9050919050565b6000616d3d82616c29565b9050919050565b6000616d4f82616c29565b9050919050565b6000616d6182616d68565b9050919050565b6000616d7382616c09565b9050919050565b82818337600083830152505050565b60005b83811015616da7578082015181840152602081019050616d8c565b83811115616db6576000848401525b50505050565b60006002820490506001821680616dd457607f821691505b60208210811415616de857616de7616e78565b5b50919050565b616df782616ed6565b810181811067ffffffffffffffff82111715616e1657616e15616ea7565b5b80604052505050565b6000616e2a82616c33565b915060ff821415616e3e57616e3d616e49565b5b600182019050919050565b7f4e487b7100000000000000000000000000000000000000000000000000000000600052601160045260246000fd5b7f4e487b7100000000000000000000000000000000000000000000000000000000600052602260045260246000fd5b7f4e487b7100000000000000000000000000000000000000000000000000000000600052604160045260246000fd5b6000601f19601f8301169050919050565b60008160001b9050919050565b7f596f75206d757374206265206e6f6d696e61746564206265666f726520796f7560008201527f2063616e20616363657074206f776e6572736869700000000000000000000000602082015250565b7f43616e6e6f74207472616e7366657220746f2074686520302061646472657373600082015250565b7f43616e6e6f74207472616e7366657220746f207468652070726f787920636f6e60008201527f7472616374000000000000000000000000000000000000000000000000000000602082015250565b7f4f6e6c79207468652070726f78792063616e2063616c6c20746869732066756e60008201527f6374696f6e000000000000000000000000000000000000000000000000000000602082015250565b7f526576657274656420746f2070726576656e74207265656e7472616e63790000600082015250565b7f42656e6566696369617279206d757374206e6f7420626520746865207a65726f60008201527f2061646472657373000000000000000000000000000000000000000000000000602082015250565b7f43616e6e6f7420706572666f726d207468697320616374696f6e20776974682060008201527f7468652066656520616464726573730000000000000000000000000000000000602082015250565b7f4f6e6c79207468652053796e746865746978206f7220466565506f6f6c20636f60008201527f6e7472616374732063616e20706572666f726d207468697320616374696f6e00602082015250565b7f4f6e6c792074686520636f6e7472616374206f776e6572206d6179207065726660008201527f6f726d207468697320616374696f6e0000000000000000000000000000000000602082015250565b7f53656c6620646573747275637420686173206e6f7420796574206265656e206960008201527f6e69746961746564000000000000000000000000000000000000000000000000602082015250565b7f5468697320616374696f6e2063616e206f6e6c7920626520706572666f726d6560008201527f6420627920746865206f776e6572000000000000000000000000000000000000602082015250565b7f43616e6e6f74207472616e7366657220746f2074686520756e6465726c79696e60008201527f6720636f6e747261637400000000000000000000000000000000000000000000602082015250565b7f53656c662064657374727563742064656c617920686173206e6f74207965742060008201527f656c617073656400000000000000000000000000000000000000000000000000602082015250565b7f43616e6e6f7420707572676520617320746f74616c20737570706c792069732060008201527f61626f7665207468726573686f6c6420616e642072617465206973206e6f742060208201527f66726f7a656e2e00000000000000000000000000000000000000000000000000604082015250565b61732981616b3f565b811461733457600080fd5b50565b61734081616b51565b811461734b57600080fd5b50565b61735781616b63565b811461736257600080fd5b50565b61736e81616b79565b811461737957600080fd5b50565b61738581616ba5565b811461739057600080fd5b50565b61739c81616bb7565b81146173a757600080fd5b50565b6173b381616bc9565b81146173be57600080fd5b50565b6173ca81616bdb565b81146173d557600080fd5b50565b6173e181616bed565b81146173ec57600080fd5b50565b6173f881616c29565b811461740357600080fd5b5056fea264697066735822122075c5dae8e55bd05a3935ae631d85d62eb65a1f7701523a5dc64d37c126385f6564736f6c63430008040033",
  "linkReferences": {
    "contracts/SafeDecimalMath.sol": {
      "SafeDecimalMath": [
        {
          "length": 20,
          "start": 33
        }
      ]
    }
  },
  "deployedLinkReferences": {}
}