{
  "_format": "hh-sol-artifact-1",
  "contractName": "PurgeableSynth",
  "sourceName": "contracts/PurgeableSynth.sol",
  "abi": [
    {
      "inputs": [
        {
          "internalType": "address",
          "name": "_proxy",
          "type": "address"
        },
        {
          "internalType": "contract TokenState",
          "name": "_tokenState",
          "type": "address"
        },
        {
          "internalType": "contract Synthetix",
          "name": "_synthetix",
          "type": "address"
        },
        {
          "internalType": "contract IFeePool",
          "name": "_feePool",
          "type": "address"
        },
        {
          "internalType": "string",
          "name": "_tokenName",
          "type": "string"
        },
        {
          "internalType": "string",
          "name": "_tokenSymbol",
          "type": "string"
        },
        {
          "internalType": "address",
          "name": "_owner",
          "type": "address"
        },
        {
          "internalType": "bytes4",
          "name": "_currencyKey",
          "type": "bytes4"
        },
        {
          "internalType": "contract ExchangeRates",
          "name": "_exchangeRates",
          "type": "address"
        }
      ],
      "stateMutability": "nonpayable",
      "type": "constructor"
    },
    {
      "anonymous": false,
      "inputs": [
        {
          "indexed": true,
          "internalType": "address",
          "name": "owner",
          "type": "address"
        },
        {
          "indexed": true,
          "internalType": "address",
          "name": "spender",
          "type": "address"
        },
        {
          "indexed": false,
          "internalType": "uint256",
          "name": "value",
          "type": "uint256"
        }
      ],
      "name": "Approval",
      "type": "event"
    },
    {
      "anonymous": false,
      "inputs": [
        {
          "indexed": true,
          "internalType": "address",
          "name": "account",
          "type": "address"
        },
        {
          "indexed": false,
          "internalType": "uint256",
          "name": "value",
          "type": "uint256"
        }
      ],
      "name": "Burned",
      "type": "event"
    },
    {
      "anonymous": false,
      "inputs": [
        {
          "indexed": false,
          "internalType": "address",
          "name": "newFeePool",
          "type": "address"
        }
      ],
      "name": "FeePoolUpdated",
      "type": "event"
    },
    {
      "anonymous": false,
      "inputs": [
        {
          "indexed": true,
          "internalType": "address",
          "name": "account",
          "type": "address"
        },
        {
          "indexed": false,
          "internalType": "uint256",
          "name": "value",
          "type": "uint256"
        }
      ],
      "name": "Issued",
      "type": "event"
    },
    {
      "anonymous": false,
      "inputs": [
        {
          "indexed": false,
          "internalType": "address",
          "name": "oldOwner",
          "type": "address"
        },
        {
          "indexed": false,
          "internalType": "address",
          "name": "newOwner",
          "type": "address"
        }
      ],
      "name": "OwnerChanged",
      "type": "event"
    },
    {
      "anonymous": false,
      "inputs": [
        {
          "indexed": false,
          "internalType": "address",
          "name": "newOwner",
          "type": "address"
        }
      ],
      "name": "OwnerNominated",
      "type": "event"
    },
    {
      "anonymous": false,
      "inputs": [
        {
          "indexed": false,
          "internalType": "address",
          "name": "proxyAddress",
          "type": "address"
        }
      ],
      "name": "ProxyUpdated",
      "type": "event"
    },
    {
      "anonymous": false,
      "inputs": [
        {
          "indexed": true,
          "internalType": "address",
          "name": "account",
          "type": "address"
        },
        {
          "indexed": false,
          "internalType": "uint256",
          "name": "value",
          "type": "uint256"
        }
      ],
      "name": "Purged",
      "type": "event"
    },
    {
      "anonymous": false,
      "inputs": [
        {
          "indexed": false,
          "internalType": "address",
          "name": "newBeneficiary",
          "type": "address"
        }
      ],
      "name": "SelfDestructBeneficiaryUpdated",
      "type": "event"
    },
    {
      "anonymous": false,
      "inputs": [
        {
          "indexed": false,
          "internalType": "uint256",
          "name": "selfDestructDelay",
          "type": "uint256"
        }
      ],
      "name": "SelfDestructInitiated",
      "type": "event"
    },
    {
      "anonymous": false,
      "inputs": [],
      "name": "SelfDestructTerminated",
      "type": "event"
    },
    {
      "anonymous": false,
      "inputs": [
        {
          "indexed": false,
          "internalType": "address",
          "name": "beneficiary",
          "type": "address"
        }
      ],
      "name": "SelfDestructed",
      "type": "event"
    },
    {
      "anonymous": false,
      "inputs": [
        {
          "indexed": false,
          "internalType": "address",
          "name": "newSynthetix",
          "type": "address"
        }
      ],
      "name": "SynthetixUpdated",
      "type": "event"
    },
    {
      "anonymous": false,
      "inputs": [
        {
          "indexed": false,
          "internalType": "address",
          "name": "newTokenState",
          "type": "address"
        }
      ],
      "name": "TokenStateUpdated",
      "type": "event"
    },
    {
      "anonymous": false,
      "inputs": [
        {
          "indexed": true,
          "internalType": "address",
          "name": "from",
          "type": "address"
        },
        {
          "indexed": true,
          "internalType": "address",
          "name": "to",
          "type": "address"
        },
        {
          "indexed": false,
          "internalType": "uint256",
          "name": "value",
          "type": "uint256"
        }
      ],
      "name": "Transfer",
      "type": "event"
    },
    {
      "inputs": [],
      "name": "SELFDESTRUCT_DELAY",
      "outputs": [
        {
          "internalType": "uint256",
          "name": "",
          "type": "uint256"
        }
      ],
      "stateMutability": "view",
      "type": "function"
    },
    {
      "inputs": [],
      "name": "acceptOwnership",
      "outputs": [],
      "stateMutability": "nonpayable",
      "type": "function"
    },
    {
      "inputs": [
        {
          "internalType": "address",
          "name": "owner",
          "type": "address"
        },
        {
          "internalType": "address",
          "name": "spender",
          "type": "address"
        }
      ],
      "name": "allowance",
      "outputs": [
        {
          "internalType": "uint256",
          "name": "",
          "type": "uint256"
        }
      ],
      "stateMutability": "view",
      "type": "function"
    },
    {
      "inputs": [
        {
          "internalType": "address",
          "name": "spender",
          "type": "address"
        },
        {
          "internalType": "uint256",
          "name": "value",
          "type": "uint256"
        }
      ],
      "name": "approve",
      "outputs": [
        {
          "internalType": "bool",
          "name": "",
          "type": "bool"
        }
      ],
      "stateMutability": "nonpayable",
      "type": "function"
    },
    {
      "inputs": [
        {
          "internalType": "address",
          "name": "account",
          "type": "address"
        }
      ],
      "name": "balanceOf",
      "outputs": [
        {
          "internalType": "uint256",
          "name": "",
          "type": "uint256"
        }
      ],
      "stateMutability": "view",
      "type": "function"
    },
    {
      "inputs": [
        {
          "internalType": "address",
          "name": "account",
          "type": "address"
        },
        {
          "internalType": "uint256",
          "name": "amount",
          "type": "uint256"
        }
      ],
      "name": "burn",
      "outputs": [],
      "stateMutability": "nonpayable",
      "type": "function"
    },
    {
      "inputs": [],
      "name": "currencyKey",
      "outputs": [
        {
          "internalType": "bytes4",
          "name": "",
          "type": "bytes4"
        }
      ],
      "stateMutability": "view",
      "type": "function"
    },
    {
      "inputs": [],
      "name": "decimals",
      "outputs": [
        {
          "internalType": "uint8",
          "name": "",
          "type": "uint8"
        }
      ],
      "stateMutability": "view",
      "type": "function"
    },
    {
      "inputs": [],
      "name": "exchangeRates",
      "outputs": [
        {
          "internalType": "contract ExchangeRates",
          "name": "",
          "type": "address"
        }
      ],
      "stateMutability": "view",
      "type": "function"
    },
    {
      "inputs": [],
      "name": "feePool",
      "outputs": [
        {
          "internalType": "contract IFeePool",
          "name": "",
          "type": "address"
        }
      ],
      "stateMutability": "view",
      "type": "function"
    },
    {
      "inputs": [],
      "name": "initiateSelfDestruct",
      "outputs": [],
      "stateMutability": "nonpayable",
      "type": "function"
    },
    {
      "inputs": [],
      "name": "initiationTime",
      "outputs": [
        {
          "internalType": "uint256",
          "name": "",
          "type": "uint256"
        }
      ],
      "stateMutability": "view",
      "type": "function"
    },
    {
      "inputs": [
        {
          "internalType": "address",
          "name": "account",
          "type": "address"
        },
        {
          "internalType": "uint256",
          "name": "amount",
          "type": "uint256"
        }
      ],
      "name": "issue",
      "outputs": [],
      "stateMutability": "nonpayable",
      "type": "function"
    },
    {
      "inputs": [],
      "name": "maxSupplyToPurgeInUSD",
      "outputs": [
        {
          "internalType": "uint256",
          "name": "",
          "type": "uint256"
        }
      ],
      "stateMutability": "view",
      "type": "function"
    },
    {
      "inputs": [],
      "name": "name",
      "outputs": [
        {
          "internalType": "string",
          "name": "",
          "type": "string"
        }
      ],
      "stateMutability": "view",
      "type": "function"
    },
    {
      "inputs": [
        {
          "internalType": "address",
          "name": "_owner",
          "type": "address"
        }
      ],
      "name": "nominateNewOwner",
      "outputs": [],
      "stateMutability": "nonpayable",
      "type": "function"
    },
    {
      "inputs": [],
      "name": "nominatedOwner",
      "outputs": [
        {
          "internalType": "address",
          "name": "",
          "type": "address"
        }
      ],
      "stateMutability": "view",
      "type": "function"
    },
    {
      "inputs": [],
      "name": "owner",
      "outputs": [
        {
          "internalType": "address",
          "name": "",
          "type": "address"
        }
      ],
      "stateMutability": "view",
      "type": "function"
    },
    {
      "inputs": [],
      "name": "proxy",
      "outputs": [
        {
          "internalType": "contract Proxy",
          "name": "",
          "type": "address"
        }
      ],
      "stateMutability": "view",
      "type": "function"
    },
    {
      "inputs": [
        {
          "internalType": "address[]",
          "name": "addresses",
          "type": "address[]"
        }
      ],
      "name": "purge",
      "outputs": [],
      "stateMutability": "nonpayable",
      "type": "function"
    },
    {
      "inputs": [],
      "name": "selfDestruct",
      "outputs": [],
      "stateMutability": "nonpayable",
      "type": "function"
    },
    {
      "inputs": [],
      "name": "selfDestructBeneficiary",
      "outputs": [
        {
          "internalType": "address",
          "name": "",
          "type": "address"
        }
      ],
      "stateMutability": "view",
      "type": "function"
    },
    {
      "inputs": [],
      "name": "selfDestructInitiated",
      "outputs": [
        {
          "internalType": "bool",
          "name": "",
          "type": "bool"
        }
      ],
      "stateMutability": "view",
      "type": "function"
    },
    {
      "inputs": [
        {
          "internalType": "contract ExchangeRates",
          "name": "_exchangeRates",
          "type": "address"
        }
      ],
      "name": "setExchangeRates",
      "outputs": [],
      "stateMutability": "nonpayable",
      "type": "function"
    },
    {
      "inputs": [
        {
          "internalType": "contract IFeePool",
          "name": "_feePool",
          "type": "address"
        }
      ],
      "name": "setFeePool",
      "outputs": [],
      "stateMutability": "nonpayable",
      "type": "function"
    },
    {
      "inputs": [
        {
          "internalType": "address",
          "name": "sender",
          "type": "address"
        }
      ],
      "name": "setMessageSender",
      "outputs": [],
      "stateMutability": "nonpayable",
      "type": "function"
    },
    {
      "inputs": [
        {
          "internalType": "address payable",
          "name": "_proxy",
          "type": "address"
        }
      ],
      "name": "setProxy",
      "outputs": [],
      "stateMutability": "nonpayable",
      "type": "function"
    },
    {
      "inputs": [
        {
          "internalType": "address",
          "name": "_beneficiary",
          "type": "address"
        }
      ],
      "name": "setSelfDestructBeneficiary",
      "outputs": [],
      "stateMutability": "nonpayable",
      "type": "function"
    },
    {
      "inputs": [
        {
          "internalType": "contract Synthetix",
          "name": "_synthetix",
          "type": "address"
        }
      ],
      "name": "setSynthetix",
      "outputs": [],
      "stateMutability": "nonpayable",
      "type": "function"
    },
    {
      "inputs": [
        {
          "internalType": "contract TokenState",
          "name": "_tokenState",
          "type": "address"
        }
      ],
      "name": "setTokenState",
      "outputs": [],
      "stateMutability": "nonpayable",
      "type": "function"
    },
    {
      "inputs": [
        {
          "internalType": "uint256",
          "name": "amount",
          "type": "uint256"
        }
      ],
      "name": "setTotalSupply",
      "outputs": [],
      "stateMutability": "nonpayable",
      "type": "function"
    },
    {
      "inputs": [],
      "name": "symbol",
      "outputs": [
        {
          "internalType": "string",
          "name": "",
          "type": "string"
        }
      ],
      "stateMutability": "view",
      "type": "function"
    },
    {
      "inputs": [],
      "name": "synthetix",
      "outputs": [
        {
          "internalType": "contract Synthetix",
          "name": "",
          "type": "address"
        }
      ],
      "stateMutability": "view",
      "type": "function"
    },
    {
      "inputs": [],
      "name": "terminateSelfDestruct",
      "outputs": [],
      "stateMutability": "nonpayable",
      "type": "function"
    },
    {
      "inputs": [],
      "name": "tokenState",
      "outputs": [
        {
          "internalType": "contract TokenState",
          "name": "",
          "type": "address"
        }
      ],
      "stateMutability": "view",
      "type": "function"
    },
    {
      "inputs": [],
      "name": "totalSupply",
      "outputs": [
        {
          "internalType": "uint256",
          "name": "",
          "type": "uint256"
        }
      ],
      "stateMutability": "view",
      "type": "function"
    },
    {
      "inputs": [
        {
          "internalType": "address",
          "name": "to",
          "type": "address"
        },
        {
          "internalType": "uint256",
          "name": "value",
          "type": "uint256"
        }
      ],
      "name": "transfer",
      "outputs": [
        {
          "internalType": "bool",
          "name": "",
          "type": "bool"
        }
      ],
      "stateMutability": "nonpayable",
      "type": "function"
    },
    {
      "inputs": [
        {
          "internalType": "address",
          "name": "to",
          "type": "address"
        },
        {
          "internalType": "uint256",
          "name": "value",
          "type": "uint256"
        },
        {
          "internalType": "bytes",
          "name": "data",
          "type": "bytes"
        }
      ],
      "name": "transfer",
      "outputs": [
        {
          "internalType": "bool",
          "name": "",
          "type": "bool"
        }
      ],
      "stateMutability": "nonpayable",
      "type": "function"
    },
    {
      "inputs": [
        {
          "internalType": "address",
          "name": "from",
          "type": "address"
        },
        {
          "internalType": "address",
          "name": "to",
          "type": "address"
        },
        {
          "internalType": "uint256",
          "name": "value",
          "type": "uint256"
        }
      ],
      "name": "transferFrom",
      "outputs": [
        {
          "internalType": "bool",
          "name": "",
          "type": "bool"
        }
      ],
      "stateMutability": "nonpayable",
      "type": "function"
    },
    {
      "inputs": [
        {
          "internalType": "address",
          "name": "from",
          "type": "address"
        },
        {
          "internalType": "address",
          "name": "to",
          "type": "address"
        },
        {
          "internalType": "uint256",
          "name": "value",
          "type": "uint256"
        },
        {
          "internalType": "bytes",
          "name": "data",
          "type": "bytes"
        }
      ],
      "name": "transferFrom",
      "outputs": [
        {
          "internalType": "bool",
          "name": "",
          "type": "bool"
        }
      ],
      "stateMutability": "nonpayable",
      "type": "function"
    },
    {
      "inputs": [
        {
          "internalType": "address",
          "name": "from",
          "type": "address"
        },
        {
          "internalType": "address",
          "name": "to",
          "type": "address"
        },
        {
          "internalType": "uint256",
          "name": "value",
          "type": "uint256"
        },
        {
          "internalType": "bytes",
          "name": "data",
          "type": "bytes"
        }
      ],
      "name": "transferFromSenderPaysFee",
      "outputs": [
        {
          "internalType": "bool",
          "name": "",
          "type": "bool"
        }
      ],
      "stateMutability": "nonpayable",
      "type": "function"
    },
    {
      "inputs": [
        {
          "internalType": "address",
          "name": "from",
          "type": "address"
        },
        {
          "internalType": "address",
          "name": "to",
          "type": "address"
        },
        {
          "internalType": "uint256",
          "name": "value",
          "type": "uint256"
        }
      ],
      "name": "transferFromSenderPaysFee",
      "outputs": [
        {
          "internalType": "bool",
          "name": "",
          "type": "bool"
        }
      ],
      "stateMutability": "nonpayable",
      "type": "function"
    },
    {
      "inputs": [
        {
          "internalType": "address",
          "name": "to",
          "type": "address"
        },
        {
          "internalType": "uint256",
          "name": "value",
          "type": "uint256"
        },
        {
          "internalType": "bytes",
          "name": "data",
          "type": "bytes"
        }
      ],
      "name": "transferSenderPaysFee",
      "outputs": [
        {
          "internalType": "bool",
          "name": "",
          "type": "bool"
        }
      ],
      "stateMutability": "nonpayable",
      "type": "function"
    },
    {
      "inputs": [
        {
          "internalType": "address",
          "name": "to",
          "type": "address"
        },
        {
          "internalType": "uint256",
          "name": "value",
          "type": "uint256"
        }
      ],
      "name": "transferSenderPaysFee",
      "outputs": [
        {
          "internalType": "bool",
          "name": "",
          "type": "bool"
        }
      ],
      "stateMutability": "nonpayable",
      "type": "function"
    },
    {
      "inputs": [
        {
          "internalType": "address",
          "name": "sender",
          "type": "address"
        },
        {
          "internalType": "address",
          "name": "recipient",
          "type": "address"
        },
        {
          "internalType": "uint256",
          "name": "amount",
          "type": "uint256"
        }
      ],
      "name": "triggerTokenFallbackIfNeeded",
      "outputs": [],
      "stateMutability": "nonpayable",
      "type": "function"
    }
  ],
  "bytecode": "0x608060408190526005805460ff60a01b19169055630241ebdb60e61b815273__$b8d33eeb36ac0d1e81cd70156e0043e778$__9063907af6c09060849060209060048186803b1580156200005257600080fd5b505af415801562000067573d6000803e3d6000fd5b505050506040513d601f19601f820116820180604052508101906200008d919062000895565b6200009b90612710620008ae565b600c55348015620000ab57600080fd5b506040516200460438038062004604833981016040819052620000ce916200077f565b88888888888888888787858560006012878681806001600160a01b0381166200013e5760405162461bcd60e51b815260206004820152601960248201527f4f776e657220616464726573732063616e6e6f7420626520300000000000000060448201526064015b60405180910390fd5b600080546001600160a01b0319166001600160a01b03831690811782556040805192835260208301919091527fb532073b38c83145e3e5135377a08bf9aab55bc0fd7c1179cd4fb995d2a5159c910160405180910390a1506001600160a01b038116620001f95760405162461bcd60e51b815260206004820152602260248201527f4f776e6572206d757374206e6f7420626520746865207a65726f206164647265604482015261737360f01b606482015260840162000135565b60038054610100600160a81b0319166101006001600160a01b038416908102919091179091556040519081527fd5da63a0b864b315bc04128dedbc93888c8529ee6cf47ce664dc204339228c539060200160405180910390a1506000546001600160a01b0316620002a15760405162461bcd60e51b815260206004820152601160248201527013dddb995c881b5d5cdd081899481cd95d607a1b604482015260640162000135565b600480546001600160a01b0319166001600160a01b0383169081179091556040519081527ffc80377ca9c49cc11ae6982f390a42db976d5530af7c43889264b13fbbd7c57e9060200160405180910390a150600680546001600160a01b0319166001600160a01b038816179055845162000323906007906020880190620005fb565b50835162000339906008906020870190620005fb565b5050600991909155600a805460ff191660ff9092169190911790555050506001600160a01b0389169050620003a65760405162461bcd60e51b815260206004820152601260248201527105f70726f78792063616e6e6f7420626520360741b604482015260640162000135565b6001600160a01b038616620003fe5760405162461bcd60e51b815260206004820152601660248201527f5f73796e7468657469782063616e6e6f74206265203000000000000000000000604482015260640162000135565b6001600160a01b038516620004565760405162461bcd60e51b815260206004820152601460248201527f5f666565506f6f6c2063616e6e6f742062652030000000000000000000000000604482015260640162000135565b6001600160a01b038216620004a35760405162461bcd60e51b815260206004820152601260248201527105f6f776e65722063616e6e6f7420626520360741b604482015260640162000135565b604051632815c5ed60e11b81526001600160e01b0319821660048201526000906001600160a01b0388169063502b8bda9060240160206040518083038186803b158015620004f057600080fd5b505afa15801562000505573d6000803e3d6000fd5b505050506040513d601f19601f820116820180604052508101906200052b91906200086f565b6001600160a01b031614620005835760405162461bcd60e51b815260206004820152601e60248201527f43757272656e6379206b657920697320616c726561647920696e207573650000604482015260640162000135565b600a8054610100600160a81b0319166101006001600160a01b0397881602179055600b80549686166001600160c01b031990971696909617600160a01b60e09290921c91909102179094555050600d80546001600160a01b031916959091169490941790935550620009469950505050505050505050565b8280546200060990620008da565b90600052602060002090601f0160209004810192826200062d576000855562000678565b82601f106200064857805160ff191683800117855562000678565b8280016001018555821562000678579182015b82811115620006785782518255916020019190600101906200065b565b50620006869291506200068a565b5090565b5b808211156200068657600081556001016200068b565b8051620006ae816200092d565b919050565b80516001600160e01b031981168114620006ae57600080fd5b600082601f830112620006dd578081fd5b81516001600160401b0380821115620006fa57620006fa62000917565b604051601f8301601f19908116603f0116810190828211818310171562000725576200072562000917565b8160405283815260209250868385880101111562000741578485fd5b8491505b8382101562000764578582018301518183018401529082019062000745565b838211156200077557848385830101525b9695505050505050565b60008060008060008060008060006101208a8c0312156200079e578485fd5b8951620007ab816200092d565b60208b0151909950620007be816200092d565b9750620007ce60408b01620006a1565b9650620007de60608b01620006a1565b60808b01519096506001600160401b0380821115620007fb578687fd5b620008098d838e01620006cc565b965060a08c01519150808211156200081f578586fd5b506200082e8c828d01620006cc565b9450506200083f60c08b01620006a1565b92506200084f60e08b01620006b3565b9150620008606101008b01620006a1565b90509295985092959850929598565b60006020828403121562000881578081fd5b81516200088e816200092d565b9392505050565b600060208284031215620008a7578081fd5b5051919050565b6000816000190483118215151615620008d557634e487b7160e01b81526011600452602481fd5b500290565b600181811c90821680620008ef57607f821691505b602082108114156200091157634e487b7160e01b600052602260045260246000fd5b50919050565b634e487b7160e01b600052604160045260246000fd5b6001600160a01b03811681146200094357600080fd5b50565b613cae80620009566000396000f3fe608060405234801561001057600080fd5b506004361061027f5760003560e01c80639cb8a26a1161015c578063bd32aa44116100ce578063e6fbf44111610087578063e6fbf44114610578578063e90dd9e21461058b578063eb6ecc031461059e578063ec556889146105b1578063f7ea7a3d146105c4578063fec9f9da146105d757600080fd5b8063bd32aa44146104f2578063be45fd62146104fa578063c58aaae61461050d578063d66c9cc214610525578063dbd06c8514610538578063dd62ed3e1461056557600080fd5b8063ab59307911610120578063ab59307914610481578063ab67aa5814610494578063ae2e933b146104a7578063b4bede85146104bf578063b8225dec146104d2578063bc67f832146104df57600080fd5b80639cb8a26a146104365780639dc29fac1461043e5780639f76980714610451578063a461fc8214610464578063a9059cbb1461046e57600080fd5b80634ffcd9df116101f557806379ba5097116101b957806379ba5097146103e45780637e88ac16146103ec578063867904b4146103f55780638da5cb5b1461040857806395d89b411461041b57806397107d6d1461042357600080fd5b80634ffcd9df1461036d57806353a47bb71461039857806356e44954146103ab57806370a08231146103be578063759b5225146103d157600080fd5b806319db22281161024757806319db2228146102fa57806320714f881461030d57806323b872dd14610320578063313ce567146103335780633278c960146103525780633c960be91461035a57600080fd5b806306fdde0314610284578063095ea7b3146102a25780631627540c146102c557806317c70de4146102da57806318160ddd146102f1575b600080fd5b61028c6105ea565b60405161029991906139f4565b60405180910390f35b6102b56102b0366004613743565b610678565b6040519015158152602001610299565b6102d86102d3366004613629565b610722565b005b6102e360025481565b604051908152602001610299565b6102e360095481565b6102d8610308366004613629565b6107aa565b6102d861031b366004613629565b61082b565b6102b561032e366004613699565b610912565b600a546103409060ff1681565b60405160ff9091168152602001610299565b6102d8610c1f565b6102b56103683660046136d9565b610c83565b600d54610380906001600160a01b031681565b6040516001600160a01b039091168152602001610299565b600154610380906001600160a01b031681565b6102d86103b9366004613629565b610f8b565b6102e36103cc366004613629565b611002565b600b54610380906001600160a01b031681565b6102d8611086565b6102e3600c5481565b6102d8610403366004613743565b611170565b600054610380906001600160a01b031681565b61028c6112d2565b6102d8610431366004613629565b6112df565b6102d8611357565b6102d861044c366004613743565b6114a5565b6102d861045f366004613629565b611601565b6102e36224ea0081565b6102b561047c366004613743565b61167a565b6102d861048f3660046137c5565b6118a0565b6102b56104a23660046136d9565b611be9565b600a546103809061010090046001600160a01b031681565b6102b56104cd36600461376e565b611ee8565b6003546102b59060ff1681565b6102d86104ed366004613629565b612107565b6102d8612191565b6102b561050836600461376e565b61220b565b6003546103809061010090046001600160a01b031681565b6102b5610533366004613743565b61242e565b600b5461054c90600160a01b900460e01b81565b6040516001600160e01b03199091168152602001610299565b6102e3610573366004613661565b612646565b6102b5610586366004613699565b6126d3565b600654610380906001600160a01b031681565b6102d86105ac366004613699565b6129d2565b600454610380906001600160a01b031681565b6102d86105d23660046138c1565b612a2c565b6102d86105e5366004613629565b612a86565b600780546105f790613bdc565b80601f016020809104026020016040519081016040528092919081815260200182805461062390613bdc565b80156106705780601f1061064557610100808354040283529160200191610670565b820191906000526020600020905b81548152906001019060200180831161065357829003601f168201915b505050505081565b6004546000906001600160a01b031633146106a057600580546001600160a01b031916331790555b600554600654604051633691826360e21b81526001600160a01b03928316929091169063da46098c906106db90849088908890600401613939565b600060405180830381600087803b1580156106f557600080fd5b505af1158015610709573d6000803e3d6000fd5b50505050610718818585612aff565b5060019392505050565b6000546001600160a01b031633146107555760405162461bcd60e51b815260040161074c90613ab3565b60405180910390fd5b600180546001600160a01b0319166001600160a01b0383169081179091556040519081527f906a1c6bd7e3091ea86693dd029a831c19049ce77f1dce2ce0bab1cacbabce22906020015b60405180910390a150565b6004546001600160a01b031633146107cf57600580546001600160a01b031916331790555b6000546005546001600160a01b039081169116146107ff5760405162461bcd60e51b815260040161074c90613b02565b600a8054610100600160a81b0319166101006001600160a01b0384160217905561082881612bc6565b50565b6000546001600160a01b031633146108555760405162461bcd60e51b815260040161074c90613ab3565b6001600160a01b0381166108bc5760405162461bcd60e51b815260206004820152602860248201527f42656e6566696369617279206d757374206e6f7420626520746865207a65726f604482015267206164647265737360c01b606482015260840161074c565b60038054610100600160a81b0319166101006001600160a01b038416908102919091179091556040519081527fd5da63a0b864b315bc04128dedbc93888c8529ee6cf47ce664dc204339228c539060200161079f565b6004546000906001600160a01b0316331461093a57600580546001600160a01b031916331790555b83600a60019054906101000a90046001600160a01b03166001600160a01b031663eb1edd616040518163ffffffff1660e01b815260040160206040518083038186803b15801561098957600080fd5b505afa15801561099d573d6000803e3d6000fd5b505050506040513d601f19601f820116820180604052508101906109c19190613645565b6001600160a01b0316816001600160a01b031614156109f25760405162461bcd60e51b815260040161074c90613a07565b600a5460405163b7fcfa6960e01b81526004810185905260009161010090046001600160a01b03169063b7fcfa699060240160206040518083038186803b158015610a3c57600080fd5b505afa158015610a50573d6000803e3d6000fd5b505050506040513d601f19601f82011682018060405250810190610a7491906138d9565b90506000610a828286613b99565b600654600554604051636eb1769f60e11b81526001600160a01b038b811660048301529182166024820181905293945091169163da46098c918a91908990859063dd62ed3e9060440160206040518083038186803b158015610ae357600080fd5b505afa158015610af7573d6000803e3d6000fd5b505050506040513d601f19601f82011682018060405250810190610b1b91906138d9565b610b259190613b99565b6040518463ffffffff1660e01b8152600401610b4393929190613939565b600060405180830381600087803b158015610b5d57600080fd5b505af1158015610b71573d6000803e3d6000fd5b5050600b54604051632f95d8d960e21b81526001600160a01b038216935063be5763649250610bb2918b91600160a01b90910460e01b90869060040161395d565b602060405180830381600087803b158015610bcc57600080fd5b505af1158015610be0573d6000803e3d6000fd5b505050506040513d601f19601f82011682018060405250810190610c049190613879565b506060610c1388888584612c75565b98975050505050505050565b6000546001600160a01b03163314610c495760405162461bcd60e51b815260040161074c90613ab3565b600060028190556003805460ff191690556040517f6adcc7125002935e0aa31697538ebbd65cfddf20431eb6ecdcfc3e238bfd082c9190a1565b6004546000906001600160a01b03163314610cab57600580546001600160a01b031916331790555b84600a60019054906101000a90046001600160a01b03166001600160a01b031663eb1edd616040518163ffffffff1660e01b815260040160206040518083038186803b158015610cfa57600080fd5b505afa158015610d0e573d6000803e3d6000fd5b505050506040513d601f19601f82011682018060405250810190610d329190613645565b6001600160a01b0316816001600160a01b03161415610d635760405162461bcd60e51b815260040161074c90613a07565b600a54604051633691b9b160e21b81526004810186905260009161010090046001600160a01b03169063da46e6c49060240160206040518083038186803b158015610dad57600080fd5b505afa158015610dc1573d6000803e3d6000fd5b505050506040513d601f19601f82011682018060405250810190610de591906138d9565b600654600554604051636eb1769f60e11b81526001600160a01b038b811660048301529182166024820181905293945091169163da46098c918a919085908a90869063dd62ed3e9060440160206040518083038186803b158015610e4857600080fd5b505afa158015610e5c573d6000803e3d6000fd5b505050506040513d601f19601f82011682018060405250810190610e8091906138d9565b610e8a9190613b99565b610e949190613b81565b6040518463ffffffff1660e01b8152600401610eb293929190613939565b600060405180830381600087803b158015610ecc57600080fd5b505af1158015610ee0573d6000803e3d6000fd5b5050600b54604051632f95d8d960e21b81526001600160a01b038216935063be5763649250610f21918b91600160a01b90910460e01b90869060040161395d565b602060405180830381600087803b158015610f3b57600080fd5b505af1158015610f4f573d6000803e3d6000fd5b505050506040513d601f19601f82011682018060405250810190610f739190613879565b50610f8087878787612c75565b979650505050505050565b6004546001600160a01b03163314610fb057600580546001600160a01b031916331790555b6000546005546001600160a01b03908116911614610fe05760405162461bcd60e51b815260040161074c90613b02565b600d80546001600160a01b0319166001600160a01b0392909216919091179055565b6006546040516370a0823160e01b81526001600160a01b03838116600483015260009216906370a082319060240160206040518083038186803b15801561104857600080fd5b505afa15801561105c573d6000803e3d6000fd5b505050506040513d601f19601f8201168201806040525081019061108091906138d9565b92915050565b6001546001600160a01b031633146110fe5760405162461bcd60e51b815260206004820152603560248201527f596f75206d757374206265206e6f6d696e61746564206265666f726520796f7560448201527402063616e20616363657074206f776e65727368697605c1b606482015260840161074c565b600054600154604080516001600160a01b0393841681529290911660208301527fb532073b38c83145e3e5135377a08bf9aab55bc0fd7c1179cd4fb995d2a5159c910160405180910390a160018054600080546001600160a01b03199081166001600160a01b03841617909155169055565b600b54600a54336001600160a01b039283168114926101009092049091161481806111985750805b6111b45760405162461bcd60e51b815260040161074c90613a56565b6006546040516370a0823160e01b81526001600160a01b0386811660048301529091169063b46310f6908690869084906370a082319060240160206040518083038186803b15801561120557600080fd5b505afa158015611219573d6000803e3d6000fd5b505050506040513d601f19601f8201168201806040525081019061123d91906138d9565b6112479190613b81565b6040516001600160e01b031960e085901b1681526001600160a01b0390921660048301526024820152604401600060405180830381600087803b15801561128d57600080fd5b505af11580156112a1573d6000803e3d6000fd5b50505050826009546112b39190613b81565b6009556112c260008585612e7d565b6112cc8484612ee0565b50505050565b600880546105f790613bdc565b6000546001600160a01b031633146113095760405162461bcd60e51b815260040161074c90613ab3565b600480546001600160a01b0319166001600160a01b0383169081179091556040519081527ffc80377ca9c49cc11ae6982f390a42db976d5530af7c43889264b13fbbd7c57e9060200161079f565b6000546001600160a01b031633146113815760405162461bcd60e51b815260040161074c90613ab3565b60035460ff166113e45760405162461bcd60e51b815260206004820152602860248201527f53656c6620646573747275637420686173206e6f7420796574206265656e20696044820152671b9a5d1a585d195960c21b606482015260840161074c565b426224ea006002546113f69190613b81565b106114535760405162461bcd60e51b815260206004820152602760248201527f53656c662064657374727563742064656c617920686173206e6f742079657420604482015266195b185c1cd95960ca1b606482015260840161074c565b6003546040516101009091046001600160a01b0316808252907f8a09e1677ced846cb537dc2b172043bd05a1a81ad7e0033a7ef8ba762df990b79060200160405180910390a1806001600160a01b0316ff5b600b54600a54336001600160a01b039283168114926101009092049091161481806114cd5750805b6114e95760405162461bcd60e51b815260040161074c90613a56565b6006546040516370a0823160e01b81526001600160a01b0386811660048301529091169063b46310f6908690869084906370a082319060240160206040518083038186803b15801561153a57600080fd5b505afa15801561154e573d6000803e3d6000fd5b505050506040513d601f19601f8201168201806040525081019061157291906138d9565b61157c9190613b99565b6040516001600160e01b031960e085901b1681526001600160a01b0390921660048301526024820152604401600060405180830381600087803b1580156115c257600080fd5b505af11580156115d6573d6000803e3d6000fd5b50505050826009546115e89190613b99565b6009556115f784600085612e7d565b6112cc8484612f95565b6004546001600160a01b0316331461162657600580546001600160a01b031916331790555b6000546005546001600160a01b039081169116146116565760405162461bcd60e51b815260040161074c90613b02565b600680546001600160a01b0319166001600160a01b03831617905561082881612ff8565b6004546000906001600160a01b031633146116a257600580546001600160a01b031916331790555b600554600a546040805163eb1edd6160e01b815290516001600160a01b03938416936101009093049092169163eb1edd6191600480820192602092909190829003018186803b1580156116f457600080fd5b505afa158015611708573d6000803e3d6000fd5b505050506040513d601f19601f8201168201806040525081019061172c9190613645565b6001600160a01b0316816001600160a01b0316141561175d5760405162461bcd60e51b815260040161074c90613a07565b600a5460405163b7fcfa6960e01b81526004810185905260009161010090046001600160a01b03169063b7fcfa699060240160206040518083038186803b1580156117a757600080fd5b505afa1580156117bb573d6000803e3d6000fd5b505050506040513d601f19601f820116820180604052508101906117df91906138d9565b905060006117ed8286613b99565b600b54600554604051632f95d8d960e21b81529293506001600160a01b038083169363be576364936118329390921691600160a01b900460e01b90869060040161395d565b602060405180830381600087803b15801561184c57600080fd5b505af1158015611860573d6000803e3d6000fd5b505050506040513d601f19601f820116820180604052508101906118849190613879565b50600554606090610f80906001600160a01b0316888584612c75565b6004546001600160a01b031633146118c557600580546001600160a01b031916331790555b6000546005546001600160a01b039081169116146118f55760405162461bcd60e51b815260040161074c90613b02565b600d54600c54600b5460405162e759bf60e61b8152630aaa688f60e31b60048201526024810192909252600160a01b900460e01b6001600160e01b03191660448201526000916001600160a01b0316906339d66fc09060640160206040518083038186803b15801561196657600080fd5b505afa15801561197a573d6000803e3d6000fd5b505050506040513d601f19601f8201168201806040525081019061199e91906138d9565b905080600954111580611a3e5750600d54600b5460405163ad752d6760e01b8152600160a01b90910460e01b6001600160e01b03191660048201526001600160a01b039091169063ad752d679060240160206040518083038186803b158015611a0657600080fd5b505afa158015611a1a573d6000803e3d6000fd5b505050506040513d601f19601f82011682018060405250810190611a3e9190613879565b611ac05760405162461bcd60e51b815260206004820152604760248201527f43616e6e6f7420707572676520617320746f74616c20737570706c792069732060448201527f61626f7665207468726573686f6c6420616e642072617465206973206e6f7420606482015266333937bd32b71760c91b608482015260a40161074c565b60005b82518160ff161015611be4576000838260ff1681518110611af457634e487b7160e01b600052603260045260246000fd5b602002602001015190506000611b0982611002565b90508015611bcf57600b54604051635f07669960e11b81526001600160a01b03848116600483018190526001600160e01b0319600160a01b850460e01b16602484015260448301859052630aaa688f60e31b606484015260848301529091169063be0ecd329060a401602060405180830381600087803b158015611b8c57600080fd5b505af1158015611ba0573d6000803e3d6000fd5b505050506040513d601f19601f82011682018060405250810190611bc49190613879565b50611bcf8282613072565b50508080611bdc90613c17565b915050611ac3565b505050565b6004546000906001600160a01b03163314611c1157600580546001600160a01b031916331790555b84600a60019054906101000a90046001600160a01b03166001600160a01b031663eb1edd616040518163ffffffff1660e01b815260040160206040518083038186803b158015611c6057600080fd5b505afa158015611c74573d6000803e3d6000fd5b505050506040513d601f19601f82011682018060405250810190611c989190613645565b6001600160a01b0316816001600160a01b03161415611cc95760405162461bcd60e51b815260040161074c90613a07565b600a5460405163b7fcfa6960e01b81526004810186905260009161010090046001600160a01b03169063b7fcfa699060240160206040518083038186803b158015611d1357600080fd5b505afa158015611d27573d6000803e3d6000fd5b505050506040513d601f19601f82011682018060405250810190611d4b91906138d9565b90506000611d598287613b99565b600654600554604051636eb1769f60e11b81526001600160a01b038c811660048301529182166024820181905293945091169163da46098c918b91908a90859063dd62ed3e9060440160206040518083038186803b158015611dba57600080fd5b505afa158015611dce573d6000803e3d6000fd5b505050506040513d601f19601f82011682018060405250810190611df291906138d9565b611dfc9190613b99565b6040518463ffffffff1660e01b8152600401611e1a93929190613939565b600060405180830381600087803b158015611e3457600080fd5b505af1158015611e48573d6000803e3d6000fd5b5050600b54604051632f95d8d960e21b81526001600160a01b038216935063be5763649250611e89918c91600160a01b90910460e01b90869060040161395d565b602060405180830381600087803b158015611ea357600080fd5b505af1158015611eb7573d6000803e3d6000fd5b505050506040513d601f19601f82011682018060405250810190611edb9190613879565b50610c1388888488612c75565b6004546000906001600160a01b03163314611f1057600580546001600160a01b031916331790555b600554600a546040805163eb1edd6160e01b815290516001600160a01b03938416936101009093049092169163eb1edd6191600480820192602092909190829003018186803b158015611f6257600080fd5b505afa158015611f76573d6000803e3d6000fd5b505050506040513d601f19601f82011682018060405250810190611f9a9190613645565b6001600160a01b0316816001600160a01b03161415611fcb5760405162461bcd60e51b815260040161074c90613a07565b600a54604051633691b9b160e21b81526004810186905260009161010090046001600160a01b03169063da46e6c49060240160206040518083038186803b15801561201557600080fd5b505afa158015612029573d6000803e3d6000fd5b505050506040513d601f19601f8201168201806040525081019061204d91906138d9565b600b54600554604051632f95d8d960e21b81529293506001600160a01b038083169363be576364936120929390921691600160a01b900460e01b90869060040161395d565b602060405180830381600087803b1580156120ac57600080fd5b505af11580156120c0573d6000803e3d6000fd5b505050506040513d601f19601f820116820180604052508101906120e49190613879565b506005546120fd906001600160a01b0316878787612c75565b9695505050505050565b6004546001600160a01b0316331461216f5760405162461bcd60e51b815260206004820152602560248201527f4f6e6c79207468652070726f78792063616e2063616c6c20746869732066756e60448201526431ba34b7b760d91b606482015260840161074c565b600580546001600160a01b0319166001600160a01b0392909216919091179055565b6000546001600160a01b031633146121bb5760405162461bcd60e51b815260040161074c90613ab3565b426002556003805460ff191660011790556040517fcbd94ca75b8dc45c9d80c77e851670e78843c0d75180cb81db3e2158228fa9a690612201906224ea00815260200190565b60405180910390a1565b6004546000906001600160a01b0316331461223357600580546001600160a01b031916331790555b600554600a546040805163eb1edd6160e01b815290516001600160a01b03938416936101009093049092169163eb1edd6191600480820192602092909190829003018186803b15801561228557600080fd5b505afa158015612299573d6000803e3d6000fd5b505050506040513d601f19601f820116820180604052508101906122bd9190613645565b6001600160a01b0316816001600160a01b031614156122ee5760405162461bcd60e51b815260040161074c90613a07565b600a5460405163b7fcfa6960e01b81526004810186905260009161010090046001600160a01b03169063b7fcfa699060240160206040518083038186803b15801561233857600080fd5b505afa15801561234c573d6000803e3d6000fd5b505050506040513d601f19601f8201168201806040525081019061237091906138d9565b9050600061237e8287613b99565b600b54600554604051632f95d8d960e21b81529293506001600160a01b038083169363be576364936123c39390921691600160a01b900460e01b90869060040161395d565b602060405180830381600087803b1580156123dd57600080fd5b505af11580156123f1573d6000803e3d6000fd5b505050506040513d601f19601f820116820180604052508101906124159190613879565b50600554610f80906001600160a01b0316888488612c75565b6004546000906001600160a01b0316331461245657600580546001600160a01b031916331790555b600554600a546040805163eb1edd6160e01b815290516001600160a01b03938416936101009093049092169163eb1edd6191600480820192602092909190829003018186803b1580156124a857600080fd5b505afa1580156124bc573d6000803e3d6000fd5b505050506040513d601f19601f820116820180604052508101906124e09190613645565b6001600160a01b0316816001600160a01b031614156125115760405162461bcd60e51b815260040161074c90613a07565b600a54604051633691b9b160e21b81526004810185905260009161010090046001600160a01b03169063da46e6c49060240160206040518083038186803b15801561255b57600080fd5b505afa15801561256f573d6000803e3d6000fd5b505050506040513d601f19601f8201168201806040525081019061259391906138d9565b600b54600554604051632f95d8d960e21b81529293506001600160a01b038083169363be576364936125d89390921691600160a01b900460e01b90869060040161395d565b602060405180830381600087803b1580156125f257600080fd5b505af1158015612606573d6000803e3d6000fd5b505050506040513d601f19601f8201168201806040525081019061262a9190613879565b506005546060906120fd906001600160a01b0316878784612c75565b600654604051636eb1769f60e11b81526001600160a01b0384811660048301528381166024830152600092169063dd62ed3e9060440160206040518083038186803b15801561269457600080fd5b505afa1580156126a8573d6000803e3d6000fd5b505050506040513d601f19601f820116820180604052508101906126cc91906138d9565b9392505050565b6004546000906001600160a01b031633146126fb57600580546001600160a01b031916331790555b83600a60019054906101000a90046001600160a01b03166001600160a01b031663eb1edd616040518163ffffffff1660e01b815260040160206040518083038186803b15801561274a57600080fd5b505afa15801561275e573d6000803e3d6000fd5b505050506040513d601f19601f820116820180604052508101906127829190613645565b6001600160a01b0316816001600160a01b031614156127b35760405162461bcd60e51b815260040161074c90613a07565b600a54604051633691b9b160e21b81526004810185905260009161010090046001600160a01b03169063da46e6c49060240160206040518083038186803b1580156127fd57600080fd5b505afa158015612811573d6000803e3d6000fd5b505050506040513d601f19601f8201168201806040525081019061283591906138d9565b600654600554604051636eb1769f60e11b81526001600160a01b038a811660048301529182166024820181905293945091169163da46098c9189919085908990869063dd62ed3e9060440160206040518083038186803b15801561289857600080fd5b505afa1580156128ac573d6000803e3d6000fd5b505050506040513d601f19601f820116820180604052508101906128d091906138d9565b6128da9190613b99565b6128e49190613b81565b6040518463ffffffff1660e01b815260040161290293929190613939565b600060405180830381600087803b15801561291c57600080fd5b505af1158015612930573d6000803e3d6000fd5b5050600b54604051632f95d8d960e21b81526001600160a01b038216935063be5763649250612971918a91600160a01b90910460e01b90869060040161395d565b602060405180830381600087803b15801561298b57600080fd5b505af115801561299f573d6000803e3d6000fd5b505050506040513d601f19601f820116820180604052508101906129c39190613879565b506060610f8087878784612c75565b600b54600a54336001600160a01b039283168114926101009092049091161481806129fa5750805b612a165760405162461bcd60e51b815260040161074c90613a56565b6060612a24868686846130d5565b505050505050565b6004546001600160a01b03163314612a5157600580546001600160a01b031916331790555b6000546005546001600160a01b03908116911614612a815760405162461bcd60e51b815260040161074c90613b02565b600955565b6004546001600160a01b03163314612aab57600580546001600160a01b031916331790555b6000546005546001600160a01b03908116911614612adb5760405162461bcd60e51b815260040161074c90613b02565b600b80546001600160a01b0319166001600160a01b038316179055610828816131f8565b60045460408051602081018490526001600160a01b039092169163907dff97910160405160208183030381529060405260037f8c5be1e5ebec7d5bd14f71427d1e84f3dd0314c0f7b2291e5b200ac8c7c3b925612b62886001600160a01b031690565b6001600160a01b03881660006040518763ffffffff1660e01b8152600401612b8f969594939291906139b8565b600060405180830381600087803b158015612ba957600080fd5b505af1158015612bbd573d6000803e3d6000fd5b50505050505050565b600454604080516001600160a01b0384811660208301529092169163907dff97910160405160208183030381529060405260017f6d1d088acfe4f30d6014f6f693c61c16258f9784a6ed8439b2c59213eecb629560008060006040518763ffffffff1660e01b8152600401612c40969594939291906139b8565b600060405180830381600087803b158015612c5a57600080fd5b505af1158015612c6e573d6000803e3d6000fd5b5050505050565b600080600b60009054906101000a90046001600160a01b03166001600160a01b031663dbd4a4226040518163ffffffff1660e01b815260040160206040518083038186803b158015612cc657600080fd5b505afa158015612cda573d6000803e3d6000fd5b505050506040513d601f19601f82011682018060405250810190612cfe9190613645565b604051636565128b60e11b81526001600160a01b038781166004830152919091169063caca25169060240160206040518083038186803b158015612d4157600080fd5b505afa158015612d55573d6000803e3d6000fd5b505050506040513d601f19601f82011682018060405250810190612d799190613899565b90506001600160e01b0319811615801590612dad5750600b546001600160e01b0319828116600160a01b90920460e01b1614155b15612e6957600b54604051635f07669960e11b81526001600160a01b0388811660048301526001600160e01b0319600160a01b840460e01b81166024840152604483018890528416606483015287811660848301529091169063be0ecd329060a401602060405180830381600087803b158015612e2957600080fd5b505af1158015612e3d573d6000803e3d6000fd5b505050506040513d601f19601f82011682018060405250810190612e619190613879565b915050612e75565b612e6186868686613272565b949350505050565b60045460408051602081018490526001600160a01b039092169163907dff97910160405160208183030381529060405260037fddf252ad1be2c89b69c2b068fc378daa952ba7f163c4a11628f55a4df523b3ef612b62886001600160a01b031690565b60045460408051602081018490526001600160a01b039092169163907dff97910160405160208183030381529060405260027fa59f12e354e8cd10bb74c559844c2dd69a5458e31fe56c7594c62ca57480509a612f43876001600160a01b031690565b6000806040518763ffffffff1660e01b8152600401612f67969594939291906139b8565b600060405180830381600087803b158015612f8157600080fd5b505af1158015612a24573d6000803e3d6000fd5b60045460408051602081018490526001600160a01b039092169163907dff97910160405160208183030381529060405260027f696de425f79f4a40bc6d2122ca50507f0efbeabbff86a84871b7196ab8ea8df7612f43876001600160a01b031690565b600454604080516001600160a01b0384811660208301529092169163907dff97910160405160208183030381529060405260017fa538c4dcfe9fb148efee2952bafe34982d2d07d5fbb38ae5b44abf659a46bfd860008060006040518763ffffffff1660e01b8152600401612c40969594939291906139b8565b60045460408051602081018490526001600160a01b039092169163907dff97910160405160208183030381529060405260027f265db6c9c62cb962adbcf4398a54e4b02b2d87b28ab5b7538850150465a5f43c612f43876001600160a01b031690565b600554600160a01b900460ff161561312f5760405162461bcd60e51b815260206004820152601e60248201527f526576657274656420746f2070726576656e74207265656e7472616e63790000604482015260640161074c565b6005805460ff60a01b1916600160a01b179055823b80156131e457836001600160a01b031685848460405160240161316993929190613988565b60408051601f198184030181529181526020820180516001600160e01b031663607705c560e11b1790525161319e919061391d565b6000604051808303816000865af19150503d80600081146131db576040519150601f19603f3d011682016040523d82523d6000602084013e6131e0565b606091505b5050505b50506005805460ff60a01b19169055505050565b600454604080516001600160a01b0384811660208301529092169163907dff97910160405160208183030381529060405260017f46e9c68bd7831071bdd478f1ae4c4a52463961a9d620383a0a121dbfc0e0f06d60008060006040518763ffffffff1660e01b8152600401612c40969594939291906139b8565b60006001600160a01b0384166132ca5760405162461bcd60e51b815260206004820181905260248201527f43616e6e6f74207472616e7366657220746f2074686520302061646472657373604482015260640161074c565b6001600160a01b0384163014156133365760405162461bcd60e51b815260206004820152602a60248201527f43616e6e6f74207472616e7366657220746f2074686520756e6465726c79696e60448201526919c818dbdb9d1c9858dd60b21b606482015260840161074c565b6004546001600160a01b03858116911614156133a25760405162461bcd60e51b815260206004820152602560248201527f43616e6e6f74207472616e7366657220746f207468652070726f787920636f6e6044820152641d1c9858dd60da1b606482015260840161074c565b6006546040516370a0823160e01b81526001600160a01b0387811660048301529091169063b46310f690879061343590879085906370a082319060240160206040518083038186803b1580156133f757600080fd5b505afa15801561340b573d6000803e3d6000fd5b505050506040513d601f19601f8201168201806040525081019061342f91906138d9565b906135a6565b6040516001600160e01b031960e085901b1681526001600160a01b0390921660048301526024820152604401600060405180830381600087803b15801561347b57600080fd5b505af115801561348f573d6000803e3d6000fd5b50506006546040516370a0823160e01b81526001600160a01b038881166004830152909116925063b46310f69150869061352690879085906370a082319060240160206040518083038186803b1580156134e857600080fd5b505afa1580156134fc573d6000803e3d6000fd5b505050506040513d601f19601f8201168201806040525081019061352091906138d9565b906135b2565b6040516001600160e01b031960e085901b1681526001600160a01b0390921660048301526024820152604401600060405180830381600087803b15801561356c57600080fd5b505af1158015613580573d6000803e3d6000fd5b50505050613590858585856130d5565b61359b858585612e7d565b506001949350505050565b60006126cc8284613b99565b60006126cc8284613b81565b600082601f8301126135ce578081fd5b813567ffffffffffffffff8111156135e8576135e8613c4d565b6135fb601f8201601f1916602001613b50565b81815284602083860101111561360f578283fd5b816020850160208301379081016020019190915292915050565b60006020828403121561363a578081fd5b81356126cc81613c63565b600060208284031215613656578081fd5b81516126cc81613c63565b60008060408385031215613673578081fd5b823561367e81613c63565b9150602083013561368e81613c63565b809150509250929050565b6000806000606084860312156136ad578081fd5b83356136b881613c63565b925060208401356136c881613c63565b929592945050506040919091013590565b600080600080608085870312156136ee578081fd5b84356136f981613c63565b9350602085013561370981613c63565b925060408501359150606085013567ffffffffffffffff81111561372b578182fd5b613737878288016135be565b91505092959194509250565b60008060408385031215613755578182fd5b823561376081613c63565b946020939093013593505050565b600080600060608486031215613782578283fd5b833561378d81613c63565b925060208401359150604084013567ffffffffffffffff8111156137af578182fd5b6137bb868287016135be565b9150509250925092565b600060208083850312156137d7578182fd5b823567ffffffffffffffff808211156137ee578384fd5b818501915085601f830112613801578384fd5b81358181111561381357613813613c4d565b8060051b9150613824848301613b50565b8181528481019084860184860187018a101561383e578788fd5b8795505b8386101561386c578035945061385785613c63565b84835260019590950194918601918601613842565b5098975050505050505050565b60006020828403121561388a578081fd5b815180151581146126cc578182fd5b6000602082840312156138aa578081fd5b81516001600160e01b0319811681146126cc578182fd5b6000602082840312156138d2578081fd5b5035919050565b6000602082840312156138ea578081fd5b5051919050565b60008151808452613909816020860160208601613bb0565b601f01601f19169290920160200192915050565b6000825161392f818460208701613bb0565b9190910192915050565b6001600160a01b039384168152919092166020820152604081019190915260600190565b6001600160a01b039390931683526001600160e01b0319919091166020830152604082015260600190565b60018060a01b03841681528260208201526060604082015260006139af60608301846138f1565b95945050505050565b60c0815260006139cb60c08301896138f1565b60208301979097525060408101949094526060840192909252608083015260a090910152919050565b6020815260006126cc60208301846138f1565b6020808252602f908201527f43616e6e6f7420706572666f726d207468697320616374696f6e20776974682060408201526e74686520666565206164647265737360881b606082015260800190565b6020808252603f908201527f4f6e6c79207468652053796e746865746978206f7220466565506f6f6c20636f60408201527f6e7472616374732063616e20706572666f726d207468697320616374696f6e00606082015260800190565b6020808252602f908201527f4f6e6c792074686520636f6e7472616374206f776e6572206d6179207065726660408201526e37b936903a3434b99030b1ba34b7b760891b606082015260800190565b6020808252602e908201527f5468697320616374696f6e2063616e206f6e6c7920626520706572666f726d6560408201526d3210313c903a34329037bbb732b960911b606082015260800190565b604051601f8201601f1916810167ffffffffffffffff81118282101715613b7957613b79613c4d565b604052919050565b60008219821115613b9457613b94613c37565b500190565b600082821015613bab57613bab613c37565b500390565b60005b83811015613bcb578181015183820152602001613bb3565b838111156112cc5750506000910152565b600181811c90821680613bf057607f821691505b60208210811415613c1157634e487b7160e01b600052602260045260246000fd5b50919050565b600060ff821660ff811415613c2e57613c2e613c37565b60010192915050565b634e487b7160e01b600052601160045260246000fd5b634e487b7160e01b600052604160045260246000fd5b6001600160a01b038116811461082857600080fdfea2646970667358221220a27d27f0a4e68efc1c514ca83a7e080195655bbdea54c9e1e3e5d3300f525a0964736f6c63430008040033",
  "linkReferences": {
    "contracts/SafeDecimalMath.sol": {
      "SafeDecimalMath": [
        {
          "length": 20,
          "start": 31
        }
      ]
    }
  },
  "deployedLinkReferences": {}
}