{
  "_format": "hh-sol-artifact-1",
  "contractName": "RewardEscrow",
  "sourceName": "contracts/RewardEscrow.sol",
  "abi": [
    {
      "inputs": [
        {
          "internalType": "address",
          "name": "_owner",
          "type": "address"
        },
        {
          "internalType": "contract ISynthetix",
          "name": "_synthetix",
          "type": "address"
        },
        {
          "internalType": "contract IFeePool",
          "name": "_feePool",
          "type": "address"
        }
      ],
      "stateMutability": "nonpayable",
      "type": "constructor"
    },
    {
      "anonymous": false,
      "inputs": [
        {
          "indexed": false,
          "internalType": "address",
          "name": "newFeePool",
          "type": "address"
        }
      ],
      "name": "FeePoolUpdated",
      "type": "event"
    },
    {
      "anonymous": false,
      "inputs": [
        {
          "indexed": false,
          "internalType": "address",
          "name": "oldOwner",
          "type": "address"
        },
        {
          "indexed": false,
          "internalType": "address",
          "name": "newOwner",
          "type": "address"
        }
      ],
      "name": "OwnerChanged",
      "type": "event"
    },
    {
      "anonymous": false,
      "inputs": [
        {
          "indexed": false,
          "internalType": "address",
          "name": "newOwner",
          "type": "address"
        }
      ],
      "name": "OwnerNominated",
      "type": "event"
    },
    {
      "anonymous": false,
      "inputs": [
        {
          "indexed": false,
          "internalType": "address",
          "name": "newSynthetix",
          "type": "address"
        }
      ],
      "name": "SynthetixUpdated",
      "type": "event"
    },
    {
      "anonymous": false,
      "inputs": [
        {
          "indexed": true,
          "internalType": "address",
          "name": "beneficiary",
          "type": "address"
        },
        {
          "indexed": false,
          "internalType": "uint256",
          "name": "time",
          "type": "uint256"
        },
        {
          "indexed": false,
          "internalType": "uint256",
          "name": "value",
          "type": "uint256"
        }
      ],
      "name": "Vested",
      "type": "event"
    },
    {
      "anonymous": false,
      "inputs": [
        {
          "indexed": true,
          "internalType": "address",
          "name": "beneficiary",
          "type": "address"
        },
        {
          "indexed": false,
          "internalType": "uint256",
          "name": "time",
          "type": "uint256"
        },
        {
          "indexed": false,
          "internalType": "uint256",
          "name": "value",
          "type": "uint256"
        }
      ],
      "name": "VestingEntryCreated",
      "type": "event"
    },
    {
      "inputs": [],
      "name": "MAX_VESTING_ENTRIES",
      "outputs": [
        {
          "internalType": "uint256",
          "name": "",
          "type": "uint256"
        }
      ],
      "stateMutability": "view",
      "type": "function"
    },
    {
      "inputs": [],
      "name": "acceptOwnership",
      "outputs": [],
      "stateMutability": "nonpayable",
      "type": "function"
    },
    {
      "inputs": [
        {
          "internalType": "address",
          "name": "account",
          "type": "address"
        },
        {
          "internalType": "uint256",
          "name": "quantity",
          "type": "uint256"
        }
      ],
      "name": "appendVestingEntry",
      "outputs": [],
      "stateMutability": "nonpayable",
      "type": "function"
    },
    {
      "inputs": [
        {
          "internalType": "address",
          "name": "account",
          "type": "address"
        }
      ],
      "name": "balanceOf",
      "outputs": [
        {
          "internalType": "uint256",
          "name": "",
          "type": "uint256"
        }
      ],
      "stateMutability": "view",
      "type": "function"
    },
    {
      "inputs": [
        {
          "internalType": "address",
          "name": "account",
          "type": "address"
        }
      ],
      "name": "checkAccountSchedule",
      "outputs": [
        {
          "internalType": "uint256[520]",
          "name": "",
          "type": "uint256[520]"
        }
      ],
      "stateMutability": "view",
      "type": "function"
    },
    {
      "inputs": [],
      "name": "feePool",
      "outputs": [
        {
          "internalType": "contract IFeePool",
          "name": "",
          "type": "address"
        }
      ],
      "stateMutability": "view",
      "type": "function"
    },
    {
      "inputs": [
        {
          "internalType": "address",
          "name": "account",
          "type": "address"
        }
      ],
      "name": "getNextVestingEntry",
      "outputs": [
        {
          "internalType": "uint256[2]",
          "name": "",
          "type": "uint256[2]"
        }
      ],
      "stateMutability": "view",
      "type": "function"
    },
    {
      "inputs": [
        {
          "internalType": "address",
          "name": "account",
          "type": "address"
        }
      ],
      "name": "getNextVestingIndex",
      "outputs": [
        {
          "internalType": "uint256",
          "name": "",
          "type": "uint256"
        }
      ],
      "stateMutability": "view",
      "type": "function"
    },
    {
      "inputs": [
        {
          "internalType": "address",
          "name": "account",
          "type": "address"
        }
      ],
      "name": "getNextVestingQuantity",
      "outputs": [
        {
          "internalType": "uint256",
          "name": "",
          "type": "uint256"
        }
      ],
      "stateMutability": "view",
      "type": "function"
    },
    {
      "inputs": [
        {
          "internalType": "address",
          "name": "account",
          "type": "address"
        }
      ],
      "name": "getNextVestingTime",
      "outputs": [
        {
          "internalType": "uint256",
          "name": "",
          "type": "uint256"
        }
      ],
      "stateMutability": "view",
      "type": "function"
    },
    {
      "inputs": [
        {
          "internalType": "address",
          "name": "account",
          "type": "address"
        },
        {
          "internalType": "uint256",
          "name": "index",
          "type": "uint256"
        }
      ],
      "name": "getVestingQuantity",
      "outputs": [
        {
          "internalType": "uint256",
          "name": "",
          "type": "uint256"
        }
      ],
      "stateMutability": "view",
      "type": "function"
    },
    {
      "inputs": [
        {
          "internalType": "address",
          "name": "account",
          "type": "address"
        },
        {
          "internalType": "uint256",
          "name": "index",
          "type": "uint256"
        }
      ],
      "name": "getVestingScheduleEntry",
      "outputs": [
        {
          "internalType": "uint256[2]",
          "name": "",
          "type": "uint256[2]"
        }
      ],
      "stateMutability": "view",
      "type": "function"
    },
    {
      "inputs": [
        {
          "internalType": "address",
          "name": "account",
          "type": "address"
        },
        {
          "internalType": "uint256",
          "name": "index",
          "type": "uint256"
        }
      ],
      "name": "getVestingTime",
      "outputs": [
        {
          "internalType": "uint256",
          "name": "",
          "type": "uint256"
        }
      ],
      "stateMutability": "view",
      "type": "function"
    },
    {
      "inputs": [
        {
          "internalType": "address",
          "name": "_owner",
          "type": "address"
        }
      ],
      "name": "nominateNewOwner",
      "outputs": [],
      "stateMutability": "nonpayable",
      "type": "function"
    },
    {
      "inputs": [],
      "name": "nominatedOwner",
      "outputs": [
        {
          "internalType": "address",
          "name": "",
          "type": "address"
        }
      ],
      "stateMutability": "view",
      "type": "function"
    },
    {
      "inputs": [
        {
          "internalType": "address",
          "name": "account",
          "type": "address"
        }
      ],
      "name": "numVestingEntries",
      "outputs": [
        {
          "internalType": "uint256",
          "name": "",
          "type": "uint256"
        }
      ],
      "stateMutability": "view",
      "type": "function"
    },
    {
      "inputs": [],
      "name": "owner",
      "outputs": [
        {
          "internalType": "address",
          "name": "",
          "type": "address"
        }
      ],
      "stateMutability": "view",
      "type": "function"
    },
    {
      "inputs": [
        {
          "internalType": "contract IFeePool",
          "name": "_feePool",
          "type": "address"
        }
      ],
      "name": "setFeePool",
      "outputs": [],
      "stateMutability": "nonpayable",
      "type": "function"
    },
    {
      "inputs": [
        {
          "internalType": "contract ISynthetix",
          "name": "_synthetix",
          "type": "address"
        }
      ],
      "name": "setSynthetix",
      "outputs": [],
      "stateMutability": "nonpayable",
      "type": "function"
    },
    {
      "inputs": [],
      "name": "synthetix",
      "outputs": [
        {
          "internalType": "contract ISynthetix",
          "name": "",
          "type": "address"
        }
      ],
      "stateMutability": "view",
      "type": "function"
    },
    {
      "inputs": [
        {
          "internalType": "address",
          "name": "",
          "type": "address"
        }
      ],
      "name": "totalEscrowedAccountBalance",
      "outputs": [
        {
          "internalType": "uint256",
          "name": "",
          "type": "uint256"
        }
      ],
      "stateMutability": "view",
      "type": "function"
    },
    {
      "inputs": [],
      "name": "totalEscrowedBalance",
      "outputs": [
        {
          "internalType": "uint256",
          "name": "",
          "type": "uint256"
        }
      ],
      "stateMutability": "view",
      "type": "function"
    },
    {
      "inputs": [
        {
          "internalType": "address",
          "name": "",
          "type": "address"
        }
      ],
      "name": "totalVestedAccountBalance",
      "outputs": [
        {
          "internalType": "uint256",
          "name": "",
          "type": "uint256"
        }
      ],
      "stateMutability": "view",
      "type": "function"
    },
    {
      "inputs": [],
      "name": "vest",
      "outputs": [],
      "stateMutability": "nonpayable",
      "type": "function"
    },
    {
      "inputs": [
        {
          "internalType": "address",
          "name": "",
          "type": "address"
        },
        {
          "internalType": "uint256",
          "name": "",
          "type": "uint256"
        },
        {
          "internalType": "uint256",
          "name": "",
          "type": "uint256"
        }
      ],
      "name": "vestingSchedules",
      "outputs": [
        {
          "internalType": "uint256",
          "name": "",
          "type": "uint256"
        }
      ],
      "stateMutability": "view",
      "type": "function"
    }
  ],
  "bytecode": "0x60806040523480156200001157600080fd5b50604051620027e5380380620027e58339818101604052810190620000379190620001f8565b82600073ffffffffffffffffffffffffffffffffffffffff168173ffffffffffffffffffffffffffffffffffffffff161415620000ab576040517f08c379a0000000000000000000000000000000000000000000000000000000008152600401620000a290620002b3565b60405180910390fd5b806000806101000a81548173ffffffffffffffffffffffffffffffffffffffff021916908373ffffffffffffffffffffffffffffffffffffffff1602179055507fb532073b38c83145e3e5135377a08bf9aab55bc0fd7c1179cd4fb995d2a5159c6000826040516200011f92919062000286565b60405180910390a15081600260006101000a81548173ffffffffffffffffffffffffffffffffffffffff021916908373ffffffffffffffffffffffffffffffffffffffff16021790555080600360006101000a81548173ffffffffffffffffffffffffffffffffffffffff021916908373ffffffffffffffffffffffffffffffffffffffff160217905550505050620003b9565b600081519050620001c4816200036b565b92915050565b600081519050620001db8162000385565b92915050565b600081519050620001f2816200039f565b92915050565b6000806000606084860312156200020e57600080fd5b60006200021e86828701620001b3565b93505060206200023186828701620001e1565b92505060406200024486828701620001ca565b9150509250925092565b6200025981620002e6565b82525050565b60006200026e601983620002d5565b91506200027b8262000342565b602082019050919050565b60006040820190506200029d60008301856200024e565b620002ac60208301846200024e565b9392505050565b60006020820190508181036000830152620002ce816200025f565b9050919050565b600082825260208201905092915050565b6000620002f38262000322565b9050919050565b60006200030782620002e6565b9050919050565b60006200031b82620002e6565b9050919050565b600073ffffffffffffffffffffffffffffffffffffffff82169050919050565b7f4f776e657220616464726573732063616e6e6f74206265203000000000000000600082015250565b6200037681620002e6565b81146200038257600080fd5b50565b6200039081620002fa565b81146200039c57600080fd5b50565b620003aa816200030e565b8114620003b657600080fd5b50565b61241c80620003c96000396000f3fe608060405234801561001057600080fd5b50600436106101735760003560e01c806370a08231116100de5780639b217f9011610097578063d0cc82e311610071578063d0cc82e314610486578063da7bd3e9146104a4578063ee1d036c146104d4578063fec9f9da1461050457610173565b80639b217f901461041c578063ae2e933b1461044c578063b5ddb9c71461046a57610173565b806370a082311461035857806371e780f314610388578063759b5225146103a657806379ba5097146103c45780638da5cb5b146103ce57806397f46527146103ec57610173565b8063326a3cfb11610130578063326a3cfb14610270578063449d0eb1146102a0578063458efde3146102d057806345e5441f146102da57806353a47bb71461030a5780636b3905c41461032857610173565b80631627540c1461017857806319db22281461019457806319e740c0146101b0578063204b676a146101e0578063227d517a146102105780632f5bb66114610240575b600080fd5b610192600480360381019061018d9190611998565b610520565b005b6101ae60048036038101906101a99190611a75565b610629565b005b6101ca60048036038101906101c59190611998565b610732565b6040516101d79190611eb0565b60405180910390f35b6101fa60048036038101906101f59190611998565b610784565b6040516102079190611eb0565b60405180910390f35b61022a60048036038101906102259190611998565b6107d0565b6040516102379190611eb0565b60405180910390f35b61025a60048036038101906102559190611998565b6107e8565b6040516102679190611d63565b60405180910390f35b61028a60048036038101906102859190611998565b61083f565b6040516102979190611eb0565b60405180910390f35b6102ba60048036038101906102b59190611998565b610857565b6040516102c79190611d7e565b60405180910390f35b6102d86109d4565b005b6102f460048036038101906102ef91906119fd565b610d5a565b6040516103019190611eb0565b60405180910390f35b610312610d9f565b60405161031f9190611cf6565b60405180910390f35b610342600480360381019061033d9190611998565b610dc5565b60405161034f9190611eb0565b60405180910390f35b610372600480360381019061036d9190611998565b610e15565b60405161037f9190611eb0565b60405180910390f35b610390610e5e565b60405161039d9190611eb0565b60405180910390f35b6103ae610e64565b6040516103bb9190611db5565b60405180910390f35b6103cc610e8a565b005b6103d661103b565b6040516103e39190611cf6565b60405180910390f35b61040660048036038101906104019190611998565b61105f565b6040516104139190611eb0565b60405180910390f35b610436600480360381019061043191906119c1565b6110af565b6040516104439190611eb0565b60405180910390f35b610454611101565b6040516104619190611d9a565b60405180910390f35b610484600480360381019061047f91906119c1565b611127565b005b61048e6115d4565b60405161049b9190611eb0565b60405180910390f35b6104be60048036038101906104b991906119c1565b6115da565b6040516104cb9190611d63565b60405180910390f35b6104ee60048036038101906104e991906119c1565b6116ab565b6040516104fb9190611eb0565b60405180910390f35b61051e60048036038101906105199190611a9e565b6116fd565b005b60008054906101000a900473ffffffffffffffffffffffffffffffffffffffff1673ffffffffffffffffffffffffffffffffffffffff163373ffffffffffffffffffffffffffffffffffffffff16146105ae576040517f08c379a00000000000000000000000000000000000000000000000000000000081526004016105a590611e70565b60405180910390fd5b80600160006101000a81548173ffffffffffffffffffffffffffffffffffffffff021916908373ffffffffffffffffffffffffffffffffffffffff1602179055507f906a1c6bd7e3091ea86693dd029a831c19049ce77f1dce2ce0bab1cacbabce228160405161061e9190611cf6565b60405180910390a150565b60008054906101000a900473ffffffffffffffffffffffffffffffffffffffff1673ffffffffffffffffffffffffffffffffffffffff163373ffffffffffffffffffffffffffffffffffffffff16146106b7576040517f08c379a00000000000000000000000000000000000000000000000000000000081526004016106ae90611e70565b60405180910390fd5b80600360006101000a81548173ffffffffffffffffffffffffffffffffffffffff021916908373ffffffffffffffffffffffffffffffffffffffff1602179055507f6d1d088acfe4f30d6014f6f693c61c16258f9784a6ed8439b2c59213eecb6295816040516107279190611cf6565b60405180910390a150565b60008061073e83610784565b905060005b8181101561077957600061075785836110af565b1461076657809250505061077f565b8080610771906120f8565b915050610743565b50809150505b919050565b6000600460008373ffffffffffffffffffffffffffffffffffffffff1673ffffffffffffffffffffffffffffffffffffffff168152602001908152602001600020805490509050919050565b60066020528060005260406000206000915090505481565b6107f0611832565b60006107fb83610732565b905061080683610784565b81141561082c57604051806040016040528060008152602001600081525091505061083a565b61083683826115da565b9150505b919050565b60056020528060005260406000206000915090505481565b61085f611854565b610867611854565b600061087284610784565b905060005b818110156109c957600061088b86836115da565b9050806000600281106108c7577f4e487b7100000000000000000000000000000000000000000000000000000000600052603260045260246000fd5b6020020151846002846108da9190611fb6565b6102088110610912577f4e487b7100000000000000000000000000000000000000000000000000000000600052603260045260246000fd5b60200201818152505080600160028110610955577f4e487b7100000000000000000000000000000000000000000000000000000000600052603260045260246000fd5b602002015184600160028561096a9190611fb6565b6109749190611f60565b61020881106109ac577f4e487b7100000000000000000000000000000000000000000000000000000000600052603260045260246000fd5b6020020181815250505080806109c1906120f8565b915050610877565b508192505050919050565b60006109df33610784565b9050600080600090505b82811015610b075760006109fd33836110af565b905042811115610a0d5750610b07565b6000610a1933846116ab565b90506000811415610a2b575050610af4565b6040518060400160405280600060ff168152602001600060ff16815250600460003373ffffffffffffffffffffffffffffffffffffffff1673ffffffffffffffffffffffffffffffffffffffff1681526020019081526020016000208481548110610abf577f4e487b7100000000000000000000000000000000000000000000000000000000600052603260045260246000fd5b9060005260206000209060020201906002610adb929190611878565b50610aef818561180690919063ffffffff16565b935050505b8080610aff906120f8565b9150506109e9565b5060008114610d5657610b258160075461181c90919063ffffffff16565b600781905550610b7d81600560003373ffffffffffffffffffffffffffffffffffffffff1673ffffffffffffffffffffffffffffffffffffffff1681526020019081526020016000205461181c90919063ffffffff16565b600560003373ffffffffffffffffffffffffffffffffffffffff1673ffffffffffffffffffffffffffffffffffffffff16815260200190815260200160002081905550610c1281600660003373ffffffffffffffffffffffffffffffffffffffff1673ffffffffffffffffffffffffffffffffffffffff1681526020019081526020016000205461180690919063ffffffff16565b600660003373ffffffffffffffffffffffffffffffffffffffff1673ffffffffffffffffffffffffffffffffffffffff16815260200190815260200160002081905550600260009054906101000a900473ffffffffffffffffffffffffffffffffffffffff1673ffffffffffffffffffffffffffffffffffffffff1663a9059cbb33836040518363ffffffff1660e01b8152600401610cb2929190611d3a565b602060405180830381600087803b158015610ccc57600080fd5b505af1158015610ce0573d6000803e3d6000fd5b505050506040513d601f19601f82011682018060405250810190610d049190611a4c565b503373ffffffffffffffffffffffffffffffffffffffff167ffbeff59d2bfda0d79ea8a29f8c57c66d48c7a13eabbdb90908d9115ec41c9dc64283604051610d4d929190611ecb565b60405180910390a25b5050565b60046020528260005260406000208281548110610d7657600080fd5b90600052602060002090600202018160028110610d9257600080fd5b0160009250925050505481565b600160009054906101000a900473ffffffffffffffffffffffffffffffffffffffff1681565b6000610dd0826107e8565b600060028110610e09577f4e487b7100000000000000000000000000000000000000000000000000000000600052603260045260246000fd5b60200201519050919050565b6000600560008373ffffffffffffffffffffffffffffffffffffffff1673ffffffffffffffffffffffffffffffffffffffff168152602001908152602001600020549050919050565b60075481565b600260009054906101000a900473ffffffffffffffffffffffffffffffffffffffff1681565b600160009054906101000a900473ffffffffffffffffffffffffffffffffffffffff1673ffffffffffffffffffffffffffffffffffffffff163373ffffffffffffffffffffffffffffffffffffffff1614610f1a576040517f08c379a0000000000000000000000000000000000000000000000000000000008152600401610f1190611df0565b60405180910390fd5b7fb532073b38c83145e3e5135377a08bf9aab55bc0fd7c1179cd4fb995d2a5159c60008054906101000a900473ffffffffffffffffffffffffffffffffffffffff16600160009054906101000a900473ffffffffffffffffffffffffffffffffffffffff16604051610f8d929190611d11565b60405180910390a1600160009054906101000a900473ffffffffffffffffffffffffffffffffffffffff166000806101000a81548173ffffffffffffffffffffffffffffffffffffffff021916908373ffffffffffffffffffffffffffffffffffffffff1602179055506000600160006101000a81548173ffffffffffffffffffffffffffffffffffffffff021916908373ffffffffffffffffffffffffffffffffffffffff160217905550565b60008054906101000a900473ffffffffffffffffffffffffffffffffffffffff1681565b600061106a826107e8565b6001600281106110a3577f4e487b7100000000000000000000000000000000000000000000000000000000600052603260045260246000fd5b60200201519050919050565b60006110bb83836115da565b6000600281106110f4577f4e487b7100000000000000000000000000000000000000000000000000000000600052603260045260246000fd5b6020020151905092915050565b600360009054906101000a900473ffffffffffffffffffffffffffffffffffffffff1681565b6000600360009054906101000a900473ffffffffffffffffffffffffffffffffffffffff1673ffffffffffffffffffffffffffffffffffffffff163373ffffffffffffffffffffffffffffffffffffffff16149050806111bc576040517f08c379a00000000000000000000000000000000000000000000000000000000081526004016111b390611e90565b60405180910390fd5b6000821415611200576040517f08c379a00000000000000000000000000000000000000000000000000000000081526004016111f790611e30565b60405180910390fd5b6112158260075461180690919063ffffffff16565b600781905550600260009054906101000a900473ffffffffffffffffffffffffffffffffffffffff1673ffffffffffffffffffffffffffffffffffffffff166370a08231306040518263ffffffff1660e01b81526004016112769190611cf6565b60206040518083038186803b15801561128e57600080fd5b505afa1580156112a2573d6000803e3d6000fd5b505050506040513d601f19601f820116820180604052508101906112c69190611ac7565b600754111561130a576040517f08c379a000000000000000000000000000000000000000000000000000000000815260040161130190611e50565b60405180910390fd5b6000600460008573ffffffffffffffffffffffffffffffffffffffff1673ffffffffffffffffffffffffffffffffffffffff168152602001908152602001600020805490509050610104811115611396576040517f08c379a000000000000000000000000000000000000000000000000000000000815260040161138d90611dd0565b60405180910390fd5b60006301dfe200426113a89190611f60565b905060008214156113fc5783600560008773ffffffffffffffffffffffffffffffffffffffff1673ffffffffffffffffffffffffffffffffffffffff168152602001908152602001600020819055506114f1565b8061141b86600161140c89610784565b6114169190612010565b6110af565b1061145b576040517f08c379a000000000000000000000000000000000000000000000000000000000815260040161145290611e10565b60405180910390fd5b6114ad84600560008873ffffffffffffffffffffffffffffffffffffffff1673ffffffffffffffffffffffffffffffffffffffff1681526020019081526020016000205461180690919063ffffffff16565b600560008773ffffffffffffffffffffffffffffffffffffffff1673ffffffffffffffffffffffffffffffffffffffff168152602001908152602001600020819055505b600460008673ffffffffffffffffffffffffffffffffffffffff1673ffffffffffffffffffffffffffffffffffffffff168152602001908152602001600020604051806040016040528083815260200186815250908060018154018082558091505060019003906000526020600020906002020160009091909190915090600261157c9291906118bd565b508473ffffffffffffffffffffffffffffffffffffffff167fedd34dc5a5ea12bd847909801d0660781b50e26c7f4cec3c7b308f1ea410635c42866040516115c5929190611ecb565b60405180910390a25050505050565b61010481565b6115e2611832565b600460008473ffffffffffffffffffffffffffffffffffffffff1673ffffffffffffffffffffffffffffffffffffffff1681526020019081526020016000208281548110611659577f4e487b7100000000000000000000000000000000000000000000000000000000600052603260045260246000fd5b906000526020600020906002020160028060200260405190810160405280929190826002801561169e576020028201915b81548152602001906001019080831161168a575b5050505050905092915050565b60006116b783836115da565b6001600281106116f0577f4e487b7100000000000000000000000000000000000000000000000000000000600052603260045260246000fd5b6020020151905092915050565b60008054906101000a900473ffffffffffffffffffffffffffffffffffffffff1673ffffffffffffffffffffffffffffffffffffffff163373ffffffffffffffffffffffffffffffffffffffff161461178b576040517f08c379a000000000000000000000000000000000000000000000000000000000815260040161178290611e70565b60405180910390fd5b80600260006101000a81548173ffffffffffffffffffffffffffffffffffffffff021916908373ffffffffffffffffffffffffffffffffffffffff1602179055507f46e9c68bd7831071bdd478f1ae4c4a52463961a9d620383a0a121dbfc0e0f06d816040516117fb9190611cf6565b60405180910390a150565b600081836118149190611f60565b905092915050565b6000818361182a9190612010565b905092915050565b6040518060400160405280600290602082028036833780820191505090505090565b60405180614100016040528061020890602082028036833780820191505090505090565b82600281019282156118ac579160200282015b828111156118ab578251829060ff1690559160200191906001019061188b565b5b5090506118b991906118fd565b5090565b82600281019282156118ec579160200282015b828111156118eb5782518255916020019190600101906118d0565b5b5090506118f991906118fd565b5090565b5b808211156119165760008160009055506001016118fe565b5090565b60008135905061192981612373565b92915050565b60008151905061193e8161238a565b92915050565b600081359050611953816123a1565b92915050565b600081359050611968816123b8565b92915050565b60008135905061197d816123cf565b92915050565b600081519050611992816123cf565b92915050565b6000602082840312156119aa57600080fd5b60006119b88482850161191a565b91505092915050565b600080604083850312156119d457600080fd5b60006119e28582860161191a565b92505060206119f38582860161196e565b9150509250929050565b600080600060608486031215611a1257600080fd5b6000611a208682870161191a565b9350506020611a318682870161196e565b9250506040611a428682870161196e565b9150509250925092565b600060208284031215611a5e57600080fd5b6000611a6c8482850161192f565b91505092915050565b600060208284031215611a8757600080fd5b6000611a9584828501611944565b91505092915050565b600060208284031215611ab057600080fd5b6000611abe84828501611959565b91505092915050565b600060208284031215611ad957600080fd5b6000611ae784828501611983565b91505092915050565b6000611afc8383611cd8565b60208301905092915050565b611b1181612044565b82525050565b611b2081611f08565b611b2a8184611f39565b9250611b3582611ef4565b8060005b83811015611b66578151611b4d8782611af0565b9650611b5883611f1f565b925050600181019050611b39565b505050505050565b611b7781611f13565b611b818184611f44565b9250611b8c82611efe565b8060005b83811015611bbd578151611ba48782611af0565b9650611baf83611f2c565b925050600181019050611b90565b505050505050565b611bce816120b0565b82525050565b611bdd816120d4565b82525050565b6000611bf0601c83611f4f565b9150611bfb82612170565b602082019050919050565b6000611c13603583611f4f565b9150611c1e82612199565b604082019050919050565b6000611c36603783611f4f565b9150611c41826121e8565b604082019050919050565b6000611c59601783611f4f565b9150611c6482612237565b602082019050919050565b6000611c7c604783611f4f565b9150611c8782612260565b606082019050919050565b6000611c9f602f83611f4f565b9150611caa826122d5565b604082019050919050565b6000611cc2603283611f4f565b9150611ccd82612324565b604082019050919050565b611ce1816120a6565b82525050565b611cf0816120a6565b82525050565b6000602082019050611d0b6000830184611b08565b92915050565b6000604082019050611d266000830185611b08565b611d336020830184611b08565b9392505050565b6000604082019050611d4f6000830185611b08565b611d5c6020830184611ce7565b9392505050565b6000604082019050611d786000830184611b17565b92915050565b600061410082019050611d946000830184611b6e565b92915050565b6000602082019050611daf6000830184611bc5565b92915050565b6000602082019050611dca6000830184611bd4565b92915050565b60006020820190508181036000830152611de981611be3565b9050919050565b60006020820190508181036000830152611e0981611c06565b9050919050565b60006020820190508181036000830152611e2981611c29565b9050919050565b60006020820190508181036000830152611e4981611c4c565b9050919050565b60006020820190508181036000830152611e6981611c6f565b9050919050565b60006020820190508181036000830152611e8981611c92565b9050919050565b60006020820190508181036000830152611ea981611cb5565b9050919050565b6000602082019050611ec56000830184611ce7565b92915050565b6000604082019050611ee06000830185611ce7565b611eed6020830184611ce7565b9392505050565b6000819050919050565b6000819050919050565b600060029050919050565b60006102089050919050565b6000602082019050919050565b6000602082019050919050565b600081905092915050565b600081905092915050565b600082825260208201905092915050565b6000611f6b826120a6565b9150611f76836120a6565b9250827fffffffffffffffffffffffffffffffffffffffffffffffffffffffffffffffff03821115611fab57611faa612141565b5b828201905092915050565b6000611fc1826120a6565b9150611fcc836120a6565b9250817fffffffffffffffffffffffffffffffffffffffffffffffffffffffffffffffff048311821515161561200557612004612141565b5b828202905092915050565b600061201b826120a6565b9150612026836120a6565b92508282101561203957612038612141565b5b828203905092915050565b600061204f82612086565b9050919050565b60008115159050919050565b600061206d82612044565b9050919050565b600061207f82612044565b9050919050565b600073ffffffffffffffffffffffffffffffffffffffff82169050919050565b6000819050919050565b60006120bb826120c2565b9050919050565b60006120cd82612086565b9050919050565b60006120df826120e6565b9050919050565b60006120f182612086565b9050919050565b6000612103826120a6565b91507fffffffffffffffffffffffffffffffffffffffffffffffffffffffffffffffff82141561213657612135612141565b5b600182019050919050565b7f4e487b7100000000000000000000000000000000000000000000000000000000600052601160045260246000fd5b7f56657374696e67207363686564756c6520697320746f6f206c6f6e6700000000600082015250565b7f596f75206d757374206265206e6f6d696e61746564206265666f726520796f7560008201527f2063616e20616363657074206f776e6572736869700000000000000000000000602082015250565b7f43616e6e6f7420616464206e65772076657374656420656e747269657320656160008201527f726c696572207468616e20746865206c617374206f6e65000000000000000000602082015250565b7f5175616e746974792063616e6e6f74206265207a65726f000000000000000000600082015250565b7f4d75737420626520656e6f7567682062616c616e636520696e2074686520636f60008201527f6e747261637420746f2070726f7669646520666f72207468652076657374696e60208201527f6720656e74727900000000000000000000000000000000000000000000000000604082015250565b7f4f6e6c792074686520636f6e7472616374206f776e6572206d6179207065726660008201527f6f726d207468697320616374696f6e0000000000000000000000000000000000602082015250565b7f4f6e6c792074686520466565506f6f6c20636f6e7472616374732063616e207060008201527f6572666f726d207468697320616374696f6e0000000000000000000000000000602082015250565b61237c81612044565b811461238757600080fd5b50565b61239381612056565b811461239e57600080fd5b50565b6123aa81612062565b81146123b557600080fd5b50565b6123c181612074565b81146123cc57600080fd5b50565b6123d8816120a6565b81146123e357600080fd5b5056fea264697066735822122043dd4704b7946c49d13e13936ba4617513ba1463a533d41c8a2903236a09569764736f6c63430008040033",
  "linkReferences": {},
  "deployedLinkReferences": {}
}