{
  "_format": "hh-sol-artifact-1",
  "contractName": "RewardEscrow",
  "sourceName": "contracts/RewardEscrow.sol",
  "abi": [
    {
      "inputs": [
        {
          "internalType": "address",
          "name": "_owner",
          "type": "address"
        },
        {
          "internalType": "contract ISynthetix",
          "name": "_synthetix",
          "type": "address"
        },
        {
          "internalType": "contract IFeePool",
          "name": "_feePool",
          "type": "address"
        }
      ],
      "stateMutability": "nonpayable",
      "type": "constructor"
    },
    {
      "anonymous": false,
      "inputs": [
        {
          "indexed": false,
          "internalType": "address",
          "name": "newFeePool",
          "type": "address"
        }
      ],
      "name": "FeePoolUpdated",
      "type": "event"
    },
    {
      "anonymous": false,
      "inputs": [
        {
          "indexed": false,
          "internalType": "address",
          "name": "oldOwner",
          "type": "address"
        },
        {
          "indexed": false,
          "internalType": "address",
          "name": "newOwner",
          "type": "address"
        }
      ],
      "name": "OwnerChanged",
      "type": "event"
    },
    {
      "anonymous": false,
      "inputs": [
        {
          "indexed": false,
          "internalType": "address",
          "name": "newOwner",
          "type": "address"
        }
      ],
      "name": "OwnerNominated",
      "type": "event"
    },
    {
      "anonymous": false,
      "inputs": [
        {
          "indexed": false,
          "internalType": "address",
          "name": "newSynthetix",
          "type": "address"
        }
      ],
      "name": "SynthetixUpdated",
      "type": "event"
    },
    {
      "anonymous": false,
      "inputs": [
        {
          "indexed": true,
          "internalType": "address",
          "name": "beneficiary",
          "type": "address"
        },
        {
          "indexed": false,
          "internalType": "uint256",
          "name": "time",
          "type": "uint256"
        },
        {
          "indexed": false,
          "internalType": "uint256",
          "name": "value",
          "type": "uint256"
        }
      ],
      "name": "Vested",
      "type": "event"
    },
    {
      "anonymous": false,
      "inputs": [
        {
          "indexed": true,
          "internalType": "address",
          "name": "beneficiary",
          "type": "address"
        },
        {
          "indexed": false,
          "internalType": "uint256",
          "name": "time",
          "type": "uint256"
        },
        {
          "indexed": false,
          "internalType": "uint256",
          "name": "value",
          "type": "uint256"
        }
      ],
      "name": "VestingEntryCreated",
      "type": "event"
    },
    {
      "inputs": [],
      "name": "MAX_VESTING_ENTRIES",
      "outputs": [
        {
          "internalType": "uint256",
          "name": "",
          "type": "uint256"
        }
      ],
      "stateMutability": "view",
      "type": "function"
    },
    {
      "inputs": [],
      "name": "acceptOwnership",
      "outputs": [],
      "stateMutability": "nonpayable",
      "type": "function"
    },
    {
      "inputs": [
        {
          "internalType": "address",
          "name": "account",
          "type": "address"
        },
        {
          "internalType": "uint256",
          "name": "quantity",
          "type": "uint256"
        }
      ],
      "name": "appendVestingEntry",
      "outputs": [],
      "stateMutability": "nonpayable",
      "type": "function"
    },
    {
      "inputs": [
        {
          "internalType": "address",
          "name": "account",
          "type": "address"
        }
      ],
      "name": "balanceOf",
      "outputs": [
        {
          "internalType": "uint256",
          "name": "",
          "type": "uint256"
        }
      ],
      "stateMutability": "view",
      "type": "function"
    },
    {
      "inputs": [
        {
          "internalType": "address",
          "name": "account",
          "type": "address"
        }
      ],
      "name": "checkAccountSchedule",
      "outputs": [
        {
          "internalType": "uint256[520]",
          "name": "",
          "type": "uint256[520]"
        }
      ],
      "stateMutability": "view",
      "type": "function"
    },
    {
      "inputs": [],
      "name": "feePool",
      "outputs": [
        {
          "internalType": "contract IFeePool",
          "name": "",
          "type": "address"
        }
      ],
      "stateMutability": "view",
      "type": "function"
    },
    {
      "inputs": [
        {
          "internalType": "address",
          "name": "account",
          "type": "address"
        }
      ],
      "name": "getNextVestingEntry",
      "outputs": [
        {
          "internalType": "uint256[2]",
          "name": "",
          "type": "uint256[2]"
        }
      ],
      "stateMutability": "view",
      "type": "function"
    },
    {
      "inputs": [
        {
          "internalType": "address",
          "name": "account",
          "type": "address"
        }
      ],
      "name": "getNextVestingIndex",
      "outputs": [
        {
          "internalType": "uint256",
          "name": "",
          "type": "uint256"
        }
      ],
      "stateMutability": "view",
      "type": "function"
    },
    {
      "inputs": [
        {
          "internalType": "address",
          "name": "account",
          "type": "address"
        }
      ],
      "name": "getNextVestingQuantity",
      "outputs": [
        {
          "internalType": "uint256",
          "name": "",
          "type": "uint256"
        }
      ],
      "stateMutability": "view",
      "type": "function"
    },
    {
      "inputs": [
        {
          "internalType": "address",
          "name": "account",
          "type": "address"
        }
      ],
      "name": "getNextVestingTime",
      "outputs": [
        {
          "internalType": "uint256",
          "name": "",
          "type": "uint256"
        }
      ],
      "stateMutability": "view",
      "type": "function"
    },
    {
      "inputs": [
        {
          "internalType": "address",
          "name": "account",
          "type": "address"
        },
        {
          "internalType": "uint256",
          "name": "index",
          "type": "uint256"
        }
      ],
      "name": "getVestingQuantity",
      "outputs": [
        {
          "internalType": "uint256",
          "name": "",
          "type": "uint256"
        }
      ],
      "stateMutability": "view",
      "type": "function"
    },
    {
      "inputs": [
        {
          "internalType": "address",
          "name": "account",
          "type": "address"
        },
        {
          "internalType": "uint256",
          "name": "index",
          "type": "uint256"
        }
      ],
      "name": "getVestingScheduleEntry",
      "outputs": [
        {
          "internalType": "uint256[2]",
          "name": "",
          "type": "uint256[2]"
        }
      ],
      "stateMutability": "view",
      "type": "function"
    },
    {
      "inputs": [
        {
          "internalType": "address",
          "name": "account",
          "type": "address"
        },
        {
          "internalType": "uint256",
          "name": "index",
          "type": "uint256"
        }
      ],
      "name": "getVestingTime",
      "outputs": [
        {
          "internalType": "uint256",
          "name": "",
          "type": "uint256"
        }
      ],
      "stateMutability": "view",
      "type": "function"
    },
    {
      "inputs": [
        {
          "internalType": "address",
          "name": "_owner",
          "type": "address"
        }
      ],
      "name": "nominateNewOwner",
      "outputs": [],
      "stateMutability": "nonpayable",
      "type": "function"
    },
    {
      "inputs": [],
      "name": "nominatedOwner",
      "outputs": [
        {
          "internalType": "address",
          "name": "",
          "type": "address"
        }
      ],
      "stateMutability": "view",
      "type": "function"
    },
    {
      "inputs": [
        {
          "internalType": "address",
          "name": "account",
          "type": "address"
        }
      ],
      "name": "numVestingEntries",
      "outputs": [
        {
          "internalType": "uint256",
          "name": "",
          "type": "uint256"
        }
      ],
      "stateMutability": "view",
      "type": "function"
    },
    {
      "inputs": [],
      "name": "owner",
      "outputs": [
        {
          "internalType": "address",
          "name": "",
          "type": "address"
        }
      ],
      "stateMutability": "view",
      "type": "function"
    },
    {
      "inputs": [
        {
          "internalType": "contract IFeePool",
          "name": "_feePool",
          "type": "address"
        }
      ],
      "name": "setFeePool",
      "outputs": [],
      "stateMutability": "nonpayable",
      "type": "function"
    },
    {
      "inputs": [
        {
          "internalType": "contract ISynthetix",
          "name": "_synthetix",
          "type": "address"
        }
      ],
      "name": "setSynthetix",
      "outputs": [],
      "stateMutability": "nonpayable",
      "type": "function"
    },
    {
      "inputs": [],
      "name": "synthetix",
      "outputs": [
        {
          "internalType": "contract ISynthetix",
          "name": "",
          "type": "address"
        }
      ],
      "stateMutability": "view",
      "type": "function"
    },
    {
      "inputs": [
        {
          "internalType": "address",
          "name": "",
          "type": "address"
        }
      ],
      "name": "totalEscrowedAccountBalance",
      "outputs": [
        {
          "internalType": "uint256",
          "name": "",
          "type": "uint256"
        }
      ],
      "stateMutability": "view",
      "type": "function"
    },
    {
      "inputs": [],
      "name": "totalEscrowedBalance",
      "outputs": [
        {
          "internalType": "uint256",
          "name": "",
          "type": "uint256"
        }
      ],
      "stateMutability": "view",
      "type": "function"
    },
    {
      "inputs": [
        {
          "internalType": "address",
          "name": "",
          "type": "address"
        }
      ],
      "name": "totalVestedAccountBalance",
      "outputs": [
        {
          "internalType": "uint256",
          "name": "",
          "type": "uint256"
        }
      ],
      "stateMutability": "view",
      "type": "function"
    },
    {
      "inputs": [],
      "name": "vest",
      "outputs": [],
      "stateMutability": "nonpayable",
      "type": "function"
    },
    {
      "inputs": [
        {
          "internalType": "address",
          "name": "",
          "type": "address"
        },
        {
          "internalType": "uint256",
          "name": "",
          "type": "uint256"
        },
        {
          "internalType": "uint256",
          "name": "",
          "type": "uint256"
        }
      ],
      "name": "vestingSchedules",
      "outputs": [
        {
          "internalType": "uint256",
          "name": "",
          "type": "uint256"
        }
      ],
      "stateMutability": "view",
      "type": "function"
    }
  ],
  "bytecode": "0x608060405234801561001057600080fd5b50604051620013453803806200134583398101604081905261003191610116565b826001600160a01b03811661008c5760405162461bcd60e51b815260206004820152601960248201527f4f776e657220616464726573732063616e6e6f74206265203000000000000000604482015260640160405180910390fd5b600080546001600160a01b0319166001600160a01b03831690811782556040805192835260208301919091527fb532073b38c83145e3e5135377a08bf9aab55bc0fd7c1179cd4fb995d2a5159c910160405180910390a150600280546001600160a01b039384166001600160a01b031991821617909155600380549290931691161790555061017a565b60008060006060848603121561012a578283fd5b835161013581610162565b602085015190935061014681610162565b604085015190925061015781610162565b809150509250925092565b6001600160a01b038116811461017757600080fd5b50565b6111bb806200018a6000396000f3fe608060405234801561001057600080fd5b50600436106101735760003560e01c806370a08231116100de5780639b217f9011610097578063d0cc82e311610071578063d0cc82e314610374578063da7bd3e91461037d578063ee1d036c14610390578063fec9f9da146103a357600080fd5b80639b217f901461033b578063ae2e933b1461034e578063b5ddb9c71461036157600080fd5b806370a08231146102c857806371e780f3146102f1578063759b5225146102fa57806379ba50971461030d5780638da5cb5b1461031557806397f465271461032857600080fd5b8063326a3cfb11610130578063326a3cfb1461022f578063449d0eb11461024f578063458efde31461026f57806345e5441f1461027757806353a47bb71461028a5780636b3905c4146102b557600080fd5b80631627540c1461017857806319db22281461018d57806319e740c0146101a0578063204b676a146101c6578063227d517a146101ef5780632f5bb6611461020f575b600080fd5b61018b610186366004610f91565b6103b6565b005b61018b61019b366004610f91565b61043e565b6101b36101ae366004610f91565b6104b6565b6040519081526020015b60405180910390f35b6101b36101d4366004610f91565b6001600160a01b031660009081526004602052604090205490565b6101b36101fd366004610f91565b60066020526000908152604090205481565b61022261021d366004610f91565b610509565b6040516101bd9190611044565b6101b361023d366004610f91565b60056020526000908152604090205481565b61026261025d366004610f91565b610570565b6040516101bd9190611075565b61018b610643565b6101b3610285366004610fd8565b610845565b60015461029d906001600160a01b031681565b6040516001600160a01b0390911681526020016101bd565b6101b36102c3366004610f91565b610887565b6101b36102d6366004610f91565b6001600160a01b031660009081526005602052604090205490565b6101b360075481565b60025461029d906001600160a01b031681565b61018b6108a0565b60005461029d906001600160a01b031681565b6101b3610336366004610f91565b61098a565b6101b3610349366004610fad565b61099c565b60035461029d906001600160a01b031681565b61018b61036f366004610fad565b6109b7565b6101b361010481565b61022261038b366004610fad565b610da7565b6101b361039e366004610fad565b610e2a565b61018b6103b1366004610f91565b610e3d565b6000546001600160a01b031633146103e95760405162461bcd60e51b81526004016103e09061109f565b60405180910390fd5b600180546001600160a01b0319166001600160a01b0383169081179091556040519081527f906a1c6bd7e3091ea86693dd029a831c19049ce77f1dce2ce0bab1cacbabce22906020015b60405180910390a150565b6000546001600160a01b031633146104685760405162461bcd60e51b81526004016103e09061109f565b600380546001600160a01b0319166001600160a01b0383169081179091556040519081527f6d1d088acfe4f30d6014f6f693c61c16258f9784a6ed8439b2c59213eecb629590602001610433565b6001600160a01b03811660009081526004602052604081205460005b81811015610502576104e4848261099c565b156104f0579392505050565b806104fa8161113c565b9150506104d2565b5092915050565b610511610ecd565b600061051c836104b6565b905061053d836001600160a01b031660009081526004602052604090205490565b81141561055f5750506040805180820190915260008082526020820152919050565b6105698382610da7565b9392505050565b610578610eeb565b610580610eeb565b6001600160a01b038316600090815260046020526040812054905b8181101561063a5760006105af8683610da7565b8051909150846105c0846002611106565b61020881106105df57634e487b7160e01b600052603260045260246000fd5b60200201528060016020020151846105f8846002611106565b6106039060016110ee565b610208811061062257634e487b7160e01b600052603260045260246000fd5b602002015250806106328161113c565b91505061059b565b50909392505050565b3360009081526004602052604081205490805b8281101561071357600061066a338361099c565b90504281111561067a5750610713565b60006106863384610e2a565b905080610694575050610701565b6040805180820182526000808252602080830182905233825260049052919091208054859081106106d557634e487b7160e01b600052603260045260246000fd5b90600052602060002090600202019060026106f1929190610f0b565b506106fc8482610eb5565b935050505b8061070b8161113c565b915050610656565b508015610841576007546107279082610ec1565b600755336000908152600560205260409020546107449082610ec1565b3360009081526005602090815260408083209390935560069052205461076a9082610eb5565b336000818152600660205260409081902092909255600254915163a9059cbb60e01b81526004810191909152602481018390526001600160a01b039091169063a9059cbb90604401602060405180830381600087803b1580156107cc57600080fd5b505af11580156107e0573d6000803e3d6000fd5b505050506040513d601f19601f82011682018060405250810190610804919061100c565b50604080514281526020810183905233917ffbeff59d2bfda0d79ea8a29f8c57c66d48c7a13eabbdb90908d9115ec41c9dc6910160405180910390a25b5050565b6004602052826000526040600020828154811061086157600080fd5b9060005260206000209060020201816002811061087d57600080fd5b0154925083915050565b600061089282610509565b60005b602002015192915050565b6001546001600160a01b031633146109185760405162461bcd60e51b815260206004820152603560248201527f596f75206d757374206265206e6f6d696e61746564206265666f726520796f7560448201527402063616e20616363657074206f776e65727368697605c1b60648201526084016103e0565b600054600154604080516001600160a01b0393841681529290911660208301527fb532073b38c83145e3e5135377a08bf9aab55bc0fd7c1179cd4fb995d2a5159c910160405180910390a160018054600080546001600160a01b03199081166001600160a01b03841617909155169055565b600061099582610509565b6001610895565b60006109a88383610da7565b60005b60200201519392505050565b6003546001600160a01b0316331480610a2d5760405162461bcd60e51b815260206004820152603260248201527f4f6e6c792074686520466565506f6f6c20636f6e7472616374732063616e207060448201527132b93337b936903a3434b99030b1ba34b7b760711b60648201526084016103e0565b81610a7a5760405162461bcd60e51b815260206004820152601760248201527f5175616e746974792063616e6e6f74206265207a65726f00000000000000000060448201526064016103e0565b600754610a879083610eb5565b6007556002546040516370a0823160e01b81523060048201526001600160a01b03909116906370a082319060240160206040518083038186803b158015610acd57600080fd5b505afa158015610ae1573d6000803e3d6000fd5b505050506040513d601f19601f82011682018060405250810190610b05919061102c565b6007541115610b8c5760405162461bcd60e51b815260206004820152604760248201527f4d75737420626520656e6f7567682062616c616e636520696e2074686520636f60448201527f6e747261637420746f2070726f7669646520666f72207468652076657374696e6064820152666720656e74727960c81b608482015260a4016103e0565b6001600160a01b038316600090815260046020526040902054610104811115610bf75760405162461bcd60e51b815260206004820152601c60248201527f56657374696e67207363686564756c6520697320746f6f206c6f6e670000000060448201526064016103e0565b6000610c07426301dfe2006110ee565b905081610c2e576001600160a01b0385166000908152600560205260409020849055610d0e565b80610c5e866001610c54896001600160a01b031660009081526004602052604090205490565b6103499190611125565b10610cd15760405162461bcd60e51b815260206004820152603760248201527f43616e6e6f7420616464206e65772076657374656420656e747269657320656160448201527f726c696572207468616e20746865206c617374206f6e6500000000000000000060648201526084016103e0565b6001600160a01b038516600090815260056020526040902054610cf49085610eb5565b6001600160a01b0386166000908152600560205260409020555b6001600160a01b03851660009081526004602090815260408083208151808301909252848252818301889052805460018101825590845291909220610d5b92600292830290910191610f4e565b5060408051428152602081018690526001600160a01b038716917fedd34dc5a5ea12bd847909801d0660781b50e26c7f4cec3c7b308f1ea410635c910160405180910390a25050505050565b610daf610ecd565b6001600160a01b0383166000908152600460205260409020805483908110610de757634e487b7160e01b600052603260045260246000fd5b600091825260209091206040805180820191829052926002908102909201919082845b815481526020019060010190808311610e0a575050505050905092915050565b6000610e368383610da7565b60016109ab565b6000546001600160a01b03163314610e675760405162461bcd60e51b81526004016103e09061109f565b600280546001600160a01b0319166001600160a01b0383169081179091556040519081527f46e9c68bd7831071bdd478f1ae4c4a52463961a9d620383a0a121dbfc0e0f06d90602001610433565b600061056982846110ee565b60006105698284611125565b60405180604001604052806002906020820280368337509192915050565b604051806141000160405280610208906020820280368337509192915050565b8260028101928215610f3e579160200282015b82811115610f3e578251829060ff16905591602001919060010190610f1e565b50610f4a929150610f7c565b5090565b8260028101928215610f3e579160200282015b82811115610f3e578251825591602001919060010190610f61565b5b80821115610f4a5760008155600101610f7d565b600060208284031215610fa2578081fd5b81356105698161116d565b60008060408385031215610fbf578081fd5b8235610fca8161116d565b946020939093013593505050565b600080600060608486031215610fec578081fd5b8335610ff78161116d565b95602085013595506040909401359392505050565b60006020828403121561101d578081fd5b81518015158114610569578182fd5b60006020828403121561103d578081fd5b5051919050565b60408101818360005b600281101561106c57815183526020928301929091019060010161104d565b50505092915050565b6141008101818360005b61020881101561106c57815183526020928301929091019060010161107f565b6020808252602f908201527f4f6e6c792074686520636f6e7472616374206f776e6572206d6179207065726660408201526e37b936903a3434b99030b1ba34b7b760891b606082015260800190565b6000821982111561110157611101611157565b500190565b600081600019048311821515161561112057611120611157565b500290565b60008282101561113757611137611157565b500390565b600060001982141561115057611150611157565b5060010190565b634e487b7160e01b600052601160045260246000fd5b6001600160a01b038116811461118257600080fd5b5056fea264697066735822122001730568a15d76cd1e38710894f52e52ec3a86aaffb2fe758437bd060e156bf564736f6c63430008040033",
  "linkReferences": {},
  "deployedLinkReferences": {}
}