{
  "_format": "hh-sol-artifact-1",
  "contractName": "SelfDestructible",
  "sourceName": "contracts/SelfDestructible.sol",
  "abi": [
    {
      "inputs": [
        {
          "internalType": "address",
          "name": "_owner",
          "type": "address"
        }
      ],
      "stateMutability": "nonpayable",
      "type": "constructor"
    },
    {
      "anonymous": false,
      "inputs": [
        {
          "indexed": false,
          "internalType": "address",
          "name": "oldOwner",
          "type": "address"
        },
        {
          "indexed": false,
          "internalType": "address",
          "name": "newOwner",
          "type": "address"
        }
      ],
      "name": "OwnerChanged",
      "type": "event"
    },
    {
      "anonymous": false,
      "inputs": [
        {
          "indexed": false,
          "internalType": "address",
          "name": "newOwner",
          "type": "address"
        }
      ],
      "name": "OwnerNominated",
      "type": "event"
    },
    {
      "anonymous": false,
      "inputs": [
        {
          "indexed": false,
          "internalType": "address",
          "name": "newBeneficiary",
          "type": "address"
        }
      ],
      "name": "SelfDestructBeneficiaryUpdated",
      "type": "event"
    },
    {
      "anonymous": false,
      "inputs": [
        {
          "indexed": false,
          "internalType": "uint256",
          "name": "selfDestructDelay",
          "type": "uint256"
        }
      ],
      "name": "SelfDestructInitiated",
      "type": "event"
    },
    {
      "anonymous": false,
      "inputs": [],
      "name": "SelfDestructTerminated",
      "type": "event"
    },
    {
      "anonymous": false,
      "inputs": [
        {
          "indexed": false,
          "internalType": "address",
          "name": "beneficiary",
          "type": "address"
        }
      ],
      "name": "SelfDestructed",
      "type": "event"
    },
    {
      "inputs": [],
      "name": "SELFDESTRUCT_DELAY",
      "outputs": [
        {
          "internalType": "uint256",
          "name": "",
          "type": "uint256"
        }
      ],
      "stateMutability": "view",
      "type": "function"
    },
    {
      "inputs": [],
      "name": "acceptOwnership",
      "outputs": [],
      "stateMutability": "nonpayable",
      "type": "function"
    },
    {
      "inputs": [],
      "name": "initiateSelfDestruct",
      "outputs": [],
      "stateMutability": "nonpayable",
      "type": "function"
    },
    {
      "inputs": [],
      "name": "initiationTime",
      "outputs": [
        {
          "internalType": "uint256",
          "name": "",
          "type": "uint256"
        }
      ],
      "stateMutability": "view",
      "type": "function"
    },
    {
      "inputs": [
        {
          "internalType": "address",
          "name": "_owner",
          "type": "address"
        }
      ],
      "name": "nominateNewOwner",
      "outputs": [],
      "stateMutability": "nonpayable",
      "type": "function"
    },
    {
      "inputs": [],
      "name": "nominatedOwner",
      "outputs": [
        {
          "internalType": "address",
          "name": "",
          "type": "address"
        }
      ],
      "stateMutability": "view",
      "type": "function"
    },
    {
      "inputs": [],
      "name": "owner",
      "outputs": [
        {
          "internalType": "address",
          "name": "",
          "type": "address"
        }
      ],
      "stateMutability": "view",
      "type": "function"
    },
    {
      "inputs": [],
      "name": "selfDestruct",
      "outputs": [],
      "stateMutability": "nonpayable",
      "type": "function"
    },
    {
      "inputs": [],
      "name": "selfDestructBeneficiary",
      "outputs": [
        {
          "internalType": "address",
          "name": "",
          "type": "address"
        }
      ],
      "stateMutability": "view",
      "type": "function"
    },
    {
      "inputs": [],
      "name": "selfDestructInitiated",
      "outputs": [
        {
          "internalType": "bool",
          "name": "",
          "type": "bool"
        }
      ],
      "stateMutability": "view",
      "type": "function"
    },
    {
      "inputs": [
        {
          "internalType": "address",
          "name": "_beneficiary",
          "type": "address"
        }
      ],
      "name": "setSelfDestructBeneficiary",
      "outputs": [],
      "stateMutability": "nonpayable",
      "type": "function"
    },
    {
      "inputs": [],
      "name": "terminateSelfDestruct",
      "outputs": [],
      "stateMutability": "nonpayable",
      "type": "function"
    }
  ],
  "bytecode": "0x608060405234801561001057600080fd5b506040516108d63803806108d683398101604081905261002f916101a3565b806001600160a01b03811661008b5760405162461bcd60e51b815260206004820152601960248201527f4f776e657220616464726573732063616e6e6f7420626520300000000000000060448201526064015b60405180910390fd5b600080546001600160a01b0319166001600160a01b03831690811782556040805192835260208301919091527fb532073b38c83145e3e5135377a08bf9aab55bc0fd7c1179cd4fb995d2a5159c910160405180910390a1506001600160a01b0381166101445760405162461bcd60e51b815260206004820152602260248201527f4f776e6572206d757374206e6f7420626520746865207a65726f206164647265604482015261737360f01b6064820152608401610082565b60038054610100600160a81b0319166101006001600160a01b038416908102919091179091556040519081527fd5da63a0b864b315bc04128dedbc93888c8529ee6cf47ce664dc204339228c539060200160405180910390a1506101d1565b6000602082840312156101b4578081fd5b81516001600160a01b03811681146101ca578182fd5b9392505050565b6106f6806101e06000396000f3fe608060405234801561001057600080fd5b50600436106100b45760003560e01c80638da5cb5b116100715780638da5cb5b146101385780639cb8a26a1461014b578063a461fc8214610153578063b8225dec1461015d578063bd32aa441461017a578063c58aaae61461018257600080fd5b80631627540c146100b957806317c70de4146100ce57806320714f88146100ea5780633278c960146100fd57806353a47bb71461010557806379ba509714610130575b600080fd5b6100cc6100c736600461061f565b61019a565b005b6100d760025481565b6040519081526020015b60405180910390f35b6100cc6100f836600461061f565b610222565b6100cc610309565b600154610118906001600160a01b031681565b6040516001600160a01b0390911681526020016100e1565b6100cc61036d565b600054610118906001600160a01b031681565b6100cc610457565b6100d76224ea0081565b60035461016a9060ff1681565b60405190151581526020016100e1565b6100cc6105a5565b6003546101189061010090046001600160a01b031681565b6000546001600160a01b031633146101cd5760405162461bcd60e51b81526004016101c49061064d565b60405180910390fd5b600180546001600160a01b0319166001600160a01b0383169081179091556040519081527f906a1c6bd7e3091ea86693dd029a831c19049ce77f1dce2ce0bab1cacbabce22906020015b60405180910390a150565b6000546001600160a01b0316331461024c5760405162461bcd60e51b81526004016101c49061064d565b6001600160a01b0381166102b35760405162461bcd60e51b815260206004820152602860248201527f42656e6566696369617279206d757374206e6f7420626520746865207a65726f604482015267206164647265737360c01b60648201526084016101c4565b60038054610100600160a81b0319166101006001600160a01b038416908102919091179091556040519081527fd5da63a0b864b315bc04128dedbc93888c8529ee6cf47ce664dc204339228c5390602001610217565b6000546001600160a01b031633146103335760405162461bcd60e51b81526004016101c49061064d565b600060028190556003805460ff191690556040517f6adcc7125002935e0aa31697538ebbd65cfddf20431eb6ecdcfc3e238bfd082c9190a1565b6001546001600160a01b031633146103e55760405162461bcd60e51b815260206004820152603560248201527f596f75206d757374206265206e6f6d696e61746564206265666f726520796f7560448201527402063616e20616363657074206f776e65727368697605c1b60648201526084016101c4565b600054600154604080516001600160a01b0393841681529290911660208301527fb532073b38c83145e3e5135377a08bf9aab55bc0fd7c1179cd4fb995d2a5159c910160405180910390a160018054600080546001600160a01b03199081166001600160a01b03841617909155169055565b6000546001600160a01b031633146104815760405162461bcd60e51b81526004016101c49061064d565b60035460ff166104e45760405162461bcd60e51b815260206004820152602860248201527f53656c6620646573747275637420686173206e6f7420796574206265656e20696044820152671b9a5d1a585d195960c21b60648201526084016101c4565b426224ea006002546104f6919061069c565b106105535760405162461bcd60e51b815260206004820152602760248201527f53656c662064657374727563742064656c617920686173206e6f742079657420604482015266195b185c1cd95960ca1b60648201526084016101c4565b6003546040516101009091046001600160a01b0316808252907f8a09e1677ced846cb537dc2b172043bd05a1a81ad7e0033a7ef8ba762df990b79060200160405180910390a1806001600160a01b0316ff5b6000546001600160a01b031633146105cf5760405162461bcd60e51b81526004016101c49061064d565b426002556003805460ff191660011790556040517fcbd94ca75b8dc45c9d80c77e851670e78843c0d75180cb81db3e2158228fa9a690610615906224ea00815260200190565b60405180910390a1565b600060208284031215610630578081fd5b81356001600160a01b0381168114610646578182fd5b9392505050565b6020808252602f908201527f4f6e6c792074686520636f6e7472616374206f776e6572206d6179207065726660408201526e37b936903a3434b99030b1ba34b7b760891b606082015260800190565b600082198211156106bb57634e487b7160e01b81526011600452602481fd5b50019056fea2646970667358221220c68c65788315a4c23ec3370a0e3fa03037129c391519c2c27196925ead92882e64736f6c63430008040033",
  "linkReferences": {},
  "deployedLinkReferences": {}
}