{
  "_format": "hh-sol-artifact-1",
  "contractName": "SelfDestructible",
  "sourceName": "contracts/SelfDestructible.sol",
  "abi": [
    {
      "inputs": [
        {
          "internalType": "address",
          "name": "_owner",
          "type": "address"
        }
      ],
      "stateMutability": "nonpayable",
      "type": "constructor"
    },
    {
      "anonymous": false,
      "inputs": [
        {
          "indexed": false,
          "internalType": "address",
          "name": "oldOwner",
          "type": "address"
        },
        {
          "indexed": false,
          "internalType": "address",
          "name": "newOwner",
          "type": "address"
        }
      ],
      "name": "OwnerChanged",
      "type": "event"
    },
    {
      "anonymous": false,
      "inputs": [
        {
          "indexed": false,
          "internalType": "address",
          "name": "newOwner",
          "type": "address"
        }
      ],
      "name": "OwnerNominated",
      "type": "event"
    },
    {
      "anonymous": false,
      "inputs": [
        {
          "indexed": false,
          "internalType": "address",
          "name": "newBeneficiary",
          "type": "address"
        }
      ],
      "name": "SelfDestructBeneficiaryUpdated",
      "type": "event"
    },
    {
      "anonymous": false,
      "inputs": [
        {
          "indexed": false,
          "internalType": "uint256",
          "name": "selfDestructDelay",
          "type": "uint256"
        }
      ],
      "name": "SelfDestructInitiated",
      "type": "event"
    },
    {
      "anonymous": false,
      "inputs": [],
      "name": "SelfDestructTerminated",
      "type": "event"
    },
    {
      "anonymous": false,
      "inputs": [
        {
          "indexed": false,
          "internalType": "address",
          "name": "beneficiary",
          "type": "address"
        }
      ],
      "name": "SelfDestructed",
      "type": "event"
    },
    {
      "inputs": [],
      "name": "SELFDESTRUCT_DELAY",
      "outputs": [
        {
          "internalType": "uint256",
          "name": "",
          "type": "uint256"
        }
      ],
      "stateMutability": "view",
      "type": "function"
    },
    {
      "inputs": [],
      "name": "acceptOwnership",
      "outputs": [],
      "stateMutability": "nonpayable",
      "type": "function"
    },
    {
      "inputs": [],
      "name": "initiateSelfDestruct",
      "outputs": [],
      "stateMutability": "nonpayable",
      "type": "function"
    },
    {
      "inputs": [],
      "name": "initiationTime",
      "outputs": [
        {
          "internalType": "uint256",
          "name": "",
          "type": "uint256"
        }
      ],
      "stateMutability": "view",
      "type": "function"
    },
    {
      "inputs": [
        {
          "internalType": "address",
          "name": "_owner",
          "type": "address"
        }
      ],
      "name": "nominateNewOwner",
      "outputs": [],
      "stateMutability": "nonpayable",
      "type": "function"
    },
    {
      "inputs": [],
      "name": "nominatedOwner",
      "outputs": [
        {
          "internalType": "address",
          "name": "",
          "type": "address"
        }
      ],
      "stateMutability": "view",
      "type": "function"
    },
    {
      "inputs": [],
      "name": "owner",
      "outputs": [
        {
          "internalType": "address",
          "name": "",
          "type": "address"
        }
      ],
      "stateMutability": "view",
      "type": "function"
    },
    {
      "inputs": [],
      "name": "selfDestruct",
      "outputs": [],
      "stateMutability": "nonpayable",
      "type": "function"
    },
    {
      "inputs": [],
      "name": "selfDestructBeneficiary",
      "outputs": [
        {
          "internalType": "address",
          "name": "",
          "type": "address"
        }
      ],
      "stateMutability": "view",
      "type": "function"
    },
    {
      "inputs": [],
      "name": "selfDestructInitiated",
      "outputs": [
        {
          "internalType": "bool",
          "name": "",
          "type": "bool"
        }
      ],
      "stateMutability": "view",
      "type": "function"
    },
    {
      "inputs": [
        {
          "internalType": "address",
          "name": "_beneficiary",
          "type": "address"
        }
      ],
      "name": "setSelfDestructBeneficiary",
      "outputs": [],
      "stateMutability": "nonpayable",
      "type": "function"
    },
    {
      "inputs": [],
      "name": "terminateSelfDestruct",
      "outputs": [],
      "stateMutability": "nonpayable",
      "type": "function"
    }
  ],
  "bytecode": "0x60806040523480156200001157600080fd5b506040516200131e3803806200131e833981810160405281019062000037919062000233565b80600073ffffffffffffffffffffffffffffffffffffffff168173ffffffffffffffffffffffffffffffffffffffff161415620000ab576040517f08c379a0000000000000000000000000000000000000000000000000000000008152600401620000a2906200032a565b60405180910390fd5b806000806101000a81548173ffffffffffffffffffffffffffffffffffffffff021916908373ffffffffffffffffffffffffffffffffffffffff1602179055507fb532073b38c83145e3e5135377a08bf9aab55bc0fd7c1179cd4fb995d2a5159c6000826040516200011f929190620002db565b60405180910390a150600073ffffffffffffffffffffffffffffffffffffffff168173ffffffffffffffffffffffffffffffffffffffff1614156200019b576040517f08c379a0000000000000000000000000000000000000000000000000000000008152600401620001929062000308565b60405180910390fd5b80600360016101000a81548173ffffffffffffffffffffffffffffffffffffffff021916908373ffffffffffffffffffffffffffffffffffffffff1602179055507fd5da63a0b864b315bc04128dedbc93888c8529ee6cf47ce664dc204339228c53816040516200020d9190620002be565b60405180910390a15062000423565b6000815190506200022d8162000409565b92915050565b6000602082840312156200024657600080fd5b600062000256848285016200021c565b91505092915050565b6200026a816200035d565b82525050565b60006200027f6022836200034c565b91506200028c8262000391565b604082019050919050565b6000620002a66019836200034c565b9150620002b382620003e0565b602082019050919050565b6000602082019050620002d560008301846200025f565b92915050565b6000604082019050620002f260008301856200025f565b6200030160208301846200025f565b9392505050565b60006020820190508181036000830152620003238162000270565b9050919050565b60006020820190508181036000830152620003458162000297565b9050919050565b600082825260208201905092915050565b60006200036a8262000371565b9050919050565b600073ffffffffffffffffffffffffffffffffffffffff82169050919050565b7f4f776e6572206d757374206e6f7420626520746865207a65726f20616464726560008201527f7373000000000000000000000000000000000000000000000000000000000000602082015250565b7f4f776e657220616464726573732063616e6e6f74206265203000000000000000600082015250565b62000414816200035d565b81146200042057600080fd5b50565b610eeb80620004336000396000f3fe608060405234801561001057600080fd5b50600436106100b45760003560e01c80638da5cb5b116100715780638da5cb5b146101415780639cb8a26a1461015f578063a461fc8214610169578063b8225dec14610187578063bd32aa44146101a5578063c58aaae6146101af576100b4565b80631627540c146100b957806317c70de4146100d557806320714f88146100f35780633278c9601461010f57806353a47bb71461011957806379ba509714610137575b600080fd5b6100d360048036038101906100ce9190610a16565b6101cd565b005b6100dd6102d6565b6040516100ea9190610c1a565b60405180910390f35b61010d60048036038101906101089190610a16565b6102dc565b005b610117610455565b005b610121610534565b60405161012e9190610b1b565b60405180910390f35b61013f61055a565b005b61014961070b565b6040516101569190610b1b565b60405180910390f35b61016761072f565b005b6101716108d5565b60405161017e9190610c1a565b60405180910390f35b61018f6108dc565b60405161019c9190610b5f565b60405180910390f35b6101ad6108ef565b005b6101b76109db565b6040516101c49190610b1b565b60405180910390f35b60008054906101000a900473ffffffffffffffffffffffffffffffffffffffff1673ffffffffffffffffffffffffffffffffffffffff163373ffffffffffffffffffffffffffffffffffffffff161461025b576040517f08c379a000000000000000000000000000000000000000000000000000000000815260040161025290610bba565b60405180910390fd5b80600160006101000a81548173ffffffffffffffffffffffffffffffffffffffff021916908373ffffffffffffffffffffffffffffffffffffffff1602179055507f906a1c6bd7e3091ea86693dd029a831c19049ce77f1dce2ce0bab1cacbabce22816040516102cb9190610b1b565b60405180910390a150565b60025481565b60008054906101000a900473ffffffffffffffffffffffffffffffffffffffff1673ffffffffffffffffffffffffffffffffffffffff163373ffffffffffffffffffffffffffffffffffffffff161461036a576040517f08c379a000000000000000000000000000000000000000000000000000000000815260040161036190610bba565b60405180910390fd5b600073ffffffffffffffffffffffffffffffffffffffff168173ffffffffffffffffffffffffffffffffffffffff1614156103da576040517f08c379a00000000000000000000000000000000000000000000000000000000081526004016103d190610b9a565b60405180910390fd5b80600360016101000a81548173ffffffffffffffffffffffffffffffffffffffff021916908373ffffffffffffffffffffffffffffffffffffffff1602179055507fd5da63a0b864b315bc04128dedbc93888c8529ee6cf47ce664dc204339228c538160405161044a9190610b1b565b60405180910390a150565b60008054906101000a900473ffffffffffffffffffffffffffffffffffffffff1673ffffffffffffffffffffffffffffffffffffffff163373ffffffffffffffffffffffffffffffffffffffff16146104e3576040517f08c379a00000000000000000000000000000000000000000000000000000000081526004016104da90610bba565b60405180910390fd5b60006002819055506000600360006101000a81548160ff0219169083151502179055507f6adcc7125002935e0aa31697538ebbd65cfddf20431eb6ecdcfc3e238bfd082c60405160405180910390a1565b600160009054906101000a900473ffffffffffffffffffffffffffffffffffffffff1681565b600160009054906101000a900473ffffffffffffffffffffffffffffffffffffffff1673ffffffffffffffffffffffffffffffffffffffff163373ffffffffffffffffffffffffffffffffffffffff16146105ea576040517f08c379a00000000000000000000000000000000000000000000000000000000081526004016105e190610b7a565b60405180910390fd5b7fb532073b38c83145e3e5135377a08bf9aab55bc0fd7c1179cd4fb995d2a5159c60008054906101000a900473ffffffffffffffffffffffffffffffffffffffff16600160009054906101000a900473ffffffffffffffffffffffffffffffffffffffff1660405161065d929190610b36565b60405180910390a1600160009054906101000a900473ffffffffffffffffffffffffffffffffffffffff166000806101000a81548173ffffffffffffffffffffffffffffffffffffffff021916908373ffffffffffffffffffffffffffffffffffffffff1602179055506000600160006101000a81548173ffffffffffffffffffffffffffffffffffffffff021916908373ffffffffffffffffffffffffffffffffffffffff160217905550565b60008054906101000a900473ffffffffffffffffffffffffffffffffffffffff1681565b60008054906101000a900473ffffffffffffffffffffffffffffffffffffffff1673ffffffffffffffffffffffffffffffffffffffff163373ffffffffffffffffffffffffffffffffffffffff16146107bd576040517f08c379a00000000000000000000000000000000000000000000000000000000081526004016107b490610bba565b60405180910390fd5b600360009054906101000a900460ff1661080c576040517f08c379a000000000000000000000000000000000000000000000000000000000815260040161080390610bda565b60405180910390fd5b426224ea0060025461081e9190610c46565b1061085e576040517f08c379a000000000000000000000000000000000000000000000000000000000815260040161085590610bfa565b60405180910390fd5b6000600360019054906101000a900473ffffffffffffffffffffffffffffffffffffffff1690507f8a09e1677ced846cb537dc2b172043bd05a1a81ad7e0033a7ef8ba762df990b7816040516108b49190610b1b565b60405180910390a18073ffffffffffffffffffffffffffffffffffffffff16ff5b6224ea0081565b600360009054906101000a900460ff1681565b60008054906101000a900473ffffffffffffffffffffffffffffffffffffffff1673ffffffffffffffffffffffffffffffffffffffff163373ffffffffffffffffffffffffffffffffffffffff161461097d576040517f08c379a000000000000000000000000000000000000000000000000000000000815260040161097490610bba565b60405180910390fd5b426002819055506001600360006101000a81548160ff0219169083151502179055507fcbd94ca75b8dc45c9d80c77e851670e78843c0d75180cb81db3e2158228fa9a66224ea006040516109d19190610c1a565b60405180910390a1565b600360019054906101000a900473ffffffffffffffffffffffffffffffffffffffff1681565b600081359050610a1081610e9e565b92915050565b600060208284031215610a2857600080fd5b6000610a3684828501610a01565b91505092915050565b610a4881610c9c565b82525050565b610a5781610cae565b82525050565b6000610a6a603583610c35565b9150610a7582610d13565b604082019050919050565b6000610a8d602883610c35565b9150610a9882610d62565b604082019050919050565b6000610ab0602f83610c35565b9150610abb82610db1565b604082019050919050565b6000610ad3602883610c35565b9150610ade82610e00565b604082019050919050565b6000610af6602783610c35565b9150610b0182610e4f565b604082019050919050565b610b1581610cda565b82525050565b6000602082019050610b306000830184610a3f565b92915050565b6000604082019050610b4b6000830185610a3f565b610b586020830184610a3f565b9392505050565b6000602082019050610b746000830184610a4e565b92915050565b60006020820190508181036000830152610b9381610a5d565b9050919050565b60006020820190508181036000830152610bb381610a80565b9050919050565b60006020820190508181036000830152610bd381610aa3565b9050919050565b60006020820190508181036000830152610bf381610ac6565b9050919050565b60006020820190508181036000830152610c1381610ae9565b9050919050565b6000602082019050610c2f6000830184610b0c565b92915050565b600082825260208201905092915050565b6000610c5182610cda565b9150610c5c83610cda565b9250827fffffffffffffffffffffffffffffffffffffffffffffffffffffffffffffffff03821115610c9157610c90610ce4565b5b828201905092915050565b6000610ca782610cba565b9050919050565b60008115159050919050565b600073ffffffffffffffffffffffffffffffffffffffff82169050919050565b6000819050919050565b7f4e487b7100000000000000000000000000000000000000000000000000000000600052601160045260246000fd5b7f596f75206d757374206265206e6f6d696e61746564206265666f726520796f7560008201527f2063616e20616363657074206f776e6572736869700000000000000000000000602082015250565b7f42656e6566696369617279206d757374206e6f7420626520746865207a65726f60008201527f2061646472657373000000000000000000000000000000000000000000000000602082015250565b7f4f6e6c792074686520636f6e7472616374206f776e6572206d6179207065726660008201527f6f726d207468697320616374696f6e0000000000000000000000000000000000602082015250565b7f53656c6620646573747275637420686173206e6f7420796574206265656e206960008201527f6e69746961746564000000000000000000000000000000000000000000000000602082015250565b7f53656c662064657374727563742064656c617920686173206e6f74207965742060008201527f656c617073656400000000000000000000000000000000000000000000000000602082015250565b610ea781610c9c565b8114610eb257600080fd5b5056fea2646970667358221220b543adc4128f278cf85dca168d0d82debef845c509b88232cb74ad4ddd15411864736f6c63430008040033",
  "linkReferences": {},
  "deployedLinkReferences": {}
}