{
  "_format": "hh-sol-artifact-1",
  "contractName": "State",
  "sourceName": "contracts/State.sol",
  "abi": [
    {
      "inputs": [
        {
          "internalType": "address",
          "name": "_owner",
          "type": "address"
        },
        {
          "internalType": "address",
          "name": "_associatedContract",
          "type": "address"
        }
      ],
      "stateMutability": "nonpayable",
      "type": "constructor"
    },
    {
      "anonymous": false,
      "inputs": [
        {
          "indexed": false,
          "internalType": "address",
          "name": "associatedContract",
          "type": "address"
        }
      ],
      "name": "AssociatedContractUpdated",
      "type": "event"
    },
    {
      "anonymous": false,
      "inputs": [
        {
          "indexed": false,
          "internalType": "address",
          "name": "oldOwner",
          "type": "address"
        },
        {
          "indexed": false,
          "internalType": "address",
          "name": "newOwner",
          "type": "address"
        }
      ],
      "name": "OwnerChanged",
      "type": "event"
    },
    {
      "anonymous": false,
      "inputs": [
        {
          "indexed": false,
          "internalType": "address",
          "name": "newOwner",
          "type": "address"
        }
      ],
      "name": "OwnerNominated",
      "type": "event"
    },
    {
      "inputs": [],
      "name": "acceptOwnership",
      "outputs": [],
      "stateMutability": "nonpayable",
      "type": "function"
    },
    {
      "inputs": [],
      "name": "associatedContract",
      "outputs": [
        {
          "internalType": "address",
          "name": "",
          "type": "address"
        }
      ],
      "stateMutability": "view",
      "type": "function"
    },
    {
      "inputs": [
        {
          "internalType": "address",
          "name": "_owner",
          "type": "address"
        }
      ],
      "name": "nominateNewOwner",
      "outputs": [],
      "stateMutability": "nonpayable",
      "type": "function"
    },
    {
      "inputs": [],
      "name": "nominatedOwner",
      "outputs": [
        {
          "internalType": "address",
          "name": "",
          "type": "address"
        }
      ],
      "stateMutability": "view",
      "type": "function"
    },
    {
      "inputs": [],
      "name": "owner",
      "outputs": [
        {
          "internalType": "address",
          "name": "",
          "type": "address"
        }
      ],
      "stateMutability": "view",
      "type": "function"
    },
    {
      "inputs": [
        {
          "internalType": "address",
          "name": "_associatedContract",
          "type": "address"
        }
      ],
      "name": "setAssociatedContract",
      "outputs": [],
      "stateMutability": "nonpayable",
      "type": "function"
    }
  ],
  "bytecode": "0x60806040523480156200001157600080fd5b5060405162000ab938038062000ab98339818101604052810190620000379190620001c1565b81600073ffffffffffffffffffffffffffffffffffffffff168173ffffffffffffffffffffffffffffffffffffffff161415620000ab576040517f08c379a0000000000000000000000000000000000000000000000000000000008152600401620000a29062000284565b60405180910390fd5b806000806101000a81548173ffffffffffffffffffffffffffffffffffffffff021916908373ffffffffffffffffffffffffffffffffffffffff1602179055507fb532073b38c83145e3e5135377a08bf9aab55bc0fd7c1179cd4fb995d2a5159c6000826040516200011f92919062000257565b60405180910390a15080600260006101000a81548173ffffffffffffffffffffffffffffffffffffffff021916908373ffffffffffffffffffffffffffffffffffffffff1602179055507f73f20cff579e8a4086fa607db83867595f1b6a798e718c0bfa0b94a404128e03816040516200019a91906200023a565b60405180910390a150506200032e565b600081519050620001bb8162000314565b92915050565b60008060408385031215620001d557600080fd5b6000620001e585828601620001aa565b9250506020620001f885828601620001aa565b9150509250929050565b6200020d81620002b7565b82525050565b600062000222601983620002a6565b91506200022f82620002eb565b602082019050919050565b600060208201905062000251600083018462000202565b92915050565b60006040820190506200026e600083018562000202565b6200027d602083018462000202565b9392505050565b600060208201905081810360008301526200029f8162000213565b9050919050565b600082825260208201905092915050565b6000620002c482620002cb565b9050919050565b600073ffffffffffffffffffffffffffffffffffffffff82169050919050565b7f4f776e657220616464726573732063616e6e6f74206265203000000000000000600082015250565b6200031f81620002b7565b81146200032b57600080fd5b50565b61077b806200033e6000396000f3fe608060405234801561001057600080fd5b50600436106100625760003560e01c80631627540c1461006757806352f445ca1461008357806353a47bb71461009f57806379ba5097146100bd5780638da5cb5b146100c7578063aefc4ccb146100e5575b600080fd5b610081600480360381019061007c919061054b565b610103565b005b61009d6004803603810190610098919061054b565b61020c565b005b6100a7610315565b6040516100b491906105c9565b60405180910390f35b6100c561033b565b005b6100cf6104ec565b6040516100dc91906105c9565b60405180910390f35b6100ed610510565b6040516100fa91906105c9565b60405180910390f35b60008054906101000a900473ffffffffffffffffffffffffffffffffffffffff1673ffffffffffffffffffffffffffffffffffffffff163373ffffffffffffffffffffffffffffffffffffffff1614610191576040517f08c379a00000000000000000000000000000000000000000000000000000000081526004016101889061062d565b60405180910390fd5b80600160006101000a81548173ffffffffffffffffffffffffffffffffffffffff021916908373ffffffffffffffffffffffffffffffffffffffff1602179055507f906a1c6bd7e3091ea86693dd029a831c19049ce77f1dce2ce0bab1cacbabce228160405161020191906105c9565b60405180910390a150565b60008054906101000a900473ffffffffffffffffffffffffffffffffffffffff1673ffffffffffffffffffffffffffffffffffffffff163373ffffffffffffffffffffffffffffffffffffffff161461029a576040517f08c379a00000000000000000000000000000000000000000000000000000000081526004016102919061062d565b60405180910390fd5b80600260006101000a81548173ffffffffffffffffffffffffffffffffffffffff021916908373ffffffffffffffffffffffffffffffffffffffff1602179055507f73f20cff579e8a4086fa607db83867595f1b6a798e718c0bfa0b94a404128e038160405161030a91906105c9565b60405180910390a150565b600160009054906101000a900473ffffffffffffffffffffffffffffffffffffffff1681565b600160009054906101000a900473ffffffffffffffffffffffffffffffffffffffff1673ffffffffffffffffffffffffffffffffffffffff163373ffffffffffffffffffffffffffffffffffffffff16146103cb576040517f08c379a00000000000000000000000000000000000000000000000000000000081526004016103c29061060d565b60405180910390fd5b7fb532073b38c83145e3e5135377a08bf9aab55bc0fd7c1179cd4fb995d2a5159c60008054906101000a900473ffffffffffffffffffffffffffffffffffffffff16600160009054906101000a900473ffffffffffffffffffffffffffffffffffffffff1660405161043e9291906105e4565b60405180910390a1600160009054906101000a900473ffffffffffffffffffffffffffffffffffffffff166000806101000a81548173ffffffffffffffffffffffffffffffffffffffff021916908373ffffffffffffffffffffffffffffffffffffffff1602179055506000600160006101000a81548173ffffffffffffffffffffffffffffffffffffffff021916908373ffffffffffffffffffffffffffffffffffffffff160217905550565b60008054906101000a900473ffffffffffffffffffffffffffffffffffffffff1681565b600260009054906101000a900473ffffffffffffffffffffffffffffffffffffffff1681565b6000813590506105458161072e565b92915050565b60006020828403121561055d57600080fd5b600061056b84828501610536565b91505092915050565b61057d8161065e565b82525050565b600061059060358361064d565b915061059b82610690565b604082019050919050565b60006105b3602f8361064d565b91506105be826106df565b604082019050919050565b60006020820190506105de6000830184610574565b92915050565b60006040820190506105f96000830185610574565b6106066020830184610574565b9392505050565b6000602082019050818103600083015261062681610583565b9050919050565b60006020820190508181036000830152610646816105a6565b9050919050565b600082825260208201905092915050565b600061066982610670565b9050919050565b600073ffffffffffffffffffffffffffffffffffffffff82169050919050565b7f596f75206d757374206265206e6f6d696e61746564206265666f726520796f7560008201527f2063616e20616363657074206f776e6572736869700000000000000000000000602082015250565b7f4f6e6c792074686520636f6e7472616374206f776e6572206d6179207065726660008201527f6f726d207468697320616374696f6e0000000000000000000000000000000000602082015250565b6107378161065e565b811461074257600080fd5b5056fea264697066735822122092c6c5ba0ba02f8f61d124dd6b0dd90789ba6ebb59d74a1314f0259839487ec764736f6c63430008040033",
  "linkReferences": {},
  "deployedLinkReferences": {}
}