{
  "_format": "hh-sol-artifact-1",
  "contractName": "SupplySchedule",
  "sourceName": "contracts/SupplySchedule.sol",
  "abi": [
    {
      "inputs": [
        {
          "internalType": "address",
          "name": "_owner",
          "type": "address"
        }
      ],
      "stateMutability": "nonpayable",
      "type": "constructor"
    },
    {
      "anonymous": false,
      "inputs": [
        {
          "indexed": false,
          "internalType": "uint256",
          "name": "newRewardAmount",
          "type": "uint256"
        }
      ],
      "name": "MinterRewardUpdated",
      "type": "event"
    },
    {
      "anonymous": false,
      "inputs": [
        {
          "indexed": false,
          "internalType": "address",
          "name": "oldOwner",
          "type": "address"
        },
        {
          "indexed": false,
          "internalType": "address",
          "name": "newOwner",
          "type": "address"
        }
      ],
      "name": "OwnerChanged",
      "type": "event"
    },
    {
      "anonymous": false,
      "inputs": [
        {
          "indexed": false,
          "internalType": "address",
          "name": "newOwner",
          "type": "address"
        }
      ],
      "name": "OwnerNominated",
      "type": "event"
    },
    {
      "anonymous": false,
      "inputs": [
        {
          "indexed": false,
          "internalType": "uint256",
          "name": "previousPeriodAmount",
          "type": "uint256"
        },
        {
          "indexed": false,
          "internalType": "uint256",
          "name": "currentAmount",
          "type": "uint256"
        },
        {
          "indexed": true,
          "internalType": "uint256",
          "name": "schedule",
          "type": "uint256"
        },
        {
          "indexed": false,
          "internalType": "uint256",
          "name": "timestamp",
          "type": "uint256"
        }
      ],
      "name": "SupplyMinted",
      "type": "event"
    },
    {
      "inputs": [],
      "name": "INFLATION_SCHEDULES_LENGTH",
      "outputs": [
        {
          "internalType": "uint8",
          "name": "",
          "type": "uint8"
        }
      ],
      "stateMutability": "view",
      "type": "function"
    },
    {
      "inputs": [],
      "name": "START_DATE",
      "outputs": [
        {
          "internalType": "uint256",
          "name": "",
          "type": "uint256"
        }
      ],
      "stateMutability": "view",
      "type": "function"
    },
    {
      "inputs": [],
      "name": "YEAR_FIVE",
      "outputs": [
        {
          "internalType": "uint256",
          "name": "",
          "type": "uint256"
        }
      ],
      "stateMutability": "view",
      "type": "function"
    },
    {
      "inputs": [],
      "name": "YEAR_FOUR",
      "outputs": [
        {
          "internalType": "uint256",
          "name": "",
          "type": "uint256"
        }
      ],
      "stateMutability": "view",
      "type": "function"
    },
    {
      "inputs": [],
      "name": "YEAR_ONE",
      "outputs": [
        {
          "internalType": "uint256",
          "name": "",
          "type": "uint256"
        }
      ],
      "stateMutability": "view",
      "type": "function"
    },
    {
      "inputs": [],
      "name": "YEAR_SEVEN",
      "outputs": [
        {
          "internalType": "uint256",
          "name": "",
          "type": "uint256"
        }
      ],
      "stateMutability": "view",
      "type": "function"
    },
    {
      "inputs": [],
      "name": "YEAR_SIX",
      "outputs": [
        {
          "internalType": "uint256",
          "name": "",
          "type": "uint256"
        }
      ],
      "stateMutability": "view",
      "type": "function"
    },
    {
      "inputs": [],
      "name": "YEAR_THREE",
      "outputs": [
        {
          "internalType": "uint256",
          "name": "",
          "type": "uint256"
        }
      ],
      "stateMutability": "view",
      "type": "function"
    },
    {
      "inputs": [],
      "name": "YEAR_TWO",
      "outputs": [
        {
          "internalType": "uint256",
          "name": "",
          "type": "uint256"
        }
      ],
      "stateMutability": "view",
      "type": "function"
    },
    {
      "inputs": [
        {
          "internalType": "uint256",
          "name": "_timeDiff",
          "type": "uint256"
        }
      ],
      "name": "_numWeeksRoundedDown",
      "outputs": [
        {
          "internalType": "uint256",
          "name": "",
          "type": "uint256"
        }
      ],
      "stateMutability": "view",
      "type": "function"
    },
    {
      "inputs": [],
      "name": "acceptOwnership",
      "outputs": [],
      "stateMutability": "nonpayable",
      "type": "function"
    },
    {
      "inputs": [],
      "name": "getCurrentSchedule",
      "outputs": [
        {
          "internalType": "uint256",
          "name": "",
          "type": "uint256"
        }
      ],
      "stateMutability": "view",
      "type": "function"
    },
    {
      "inputs": [],
      "name": "isMintable",
      "outputs": [
        {
          "internalType": "bool",
          "name": "",
          "type": "bool"
        }
      ],
      "stateMutability": "view",
      "type": "function"
    },
    {
      "inputs": [],
      "name": "lastMintEvent",
      "outputs": [
        {
          "internalType": "uint256",
          "name": "",
          "type": "uint256"
        }
      ],
      "stateMutability": "view",
      "type": "function"
    },
    {
      "inputs": [],
      "name": "mintPeriodDuration",
      "outputs": [
        {
          "internalType": "uint256",
          "name": "",
          "type": "uint256"
        }
      ],
      "stateMutability": "view",
      "type": "function"
    },
    {
      "inputs": [],
      "name": "mintableSupply",
      "outputs": [
        {
          "internalType": "uint256",
          "name": "",
          "type": "uint256"
        }
      ],
      "stateMutability": "view",
      "type": "function"
    },
    {
      "inputs": [],
      "name": "minterReward",
      "outputs": [
        {
          "internalType": "uint256",
          "name": "",
          "type": "uint256"
        }
      ],
      "stateMutability": "view",
      "type": "function"
    },
    {
      "inputs": [
        {
          "internalType": "address",
          "name": "_owner",
          "type": "address"
        }
      ],
      "name": "nominateNewOwner",
      "outputs": [],
      "stateMutability": "nonpayable",
      "type": "function"
    },
    {
      "inputs": [],
      "name": "nominatedOwner",
      "outputs": [
        {
          "internalType": "address",
          "name": "",
          "type": "address"
        }
      ],
      "stateMutability": "view",
      "type": "function"
    },
    {
      "inputs": [],
      "name": "owner",
      "outputs": [
        {
          "internalType": "address",
          "name": "",
          "type": "address"
        }
      ],
      "stateMutability": "view",
      "type": "function"
    },
    {
      "inputs": [
        {
          "internalType": "uint256",
          "name": "",
          "type": "uint256"
        }
      ],
      "name": "schedules",
      "outputs": [
        {
          "internalType": "uint256",
          "name": "totalSupply",
          "type": "uint256"
        },
        {
          "internalType": "uint256",
          "name": "startPeriod",
          "type": "uint256"
        },
        {
          "internalType": "uint256",
          "name": "endPeriod",
          "type": "uint256"
        },
        {
          "internalType": "uint256",
          "name": "totalSupplyMinted",
          "type": "uint256"
        }
      ],
      "stateMutability": "view",
      "type": "function"
    },
    {
      "inputs": [
        {
          "internalType": "uint256",
          "name": "_amount",
          "type": "uint256"
        }
      ],
      "name": "setMinterReward",
      "outputs": [],
      "stateMutability": "nonpayable",
      "type": "function"
    },
    {
      "inputs": [
        {
          "internalType": "contract Synthetix",
          "name": "_synthetix",
          "type": "address"
        }
      ],
      "name": "setSynthetix",
      "outputs": [],
      "stateMutability": "nonpayable",
      "type": "function"
    },
    {
      "inputs": [],
      "name": "synthetix",
      "outputs": [
        {
          "internalType": "contract Synthetix",
          "name": "",
          "type": "address"
        }
      ],
      "stateMutability": "view",
      "type": "function"
    },
    {
      "inputs": [],
      "name": "updateMintValues",
      "outputs": [
        {
          "internalType": "bool",
          "name": "",
          "type": "bool"
        }
      ],
      "stateMutability": "nonpayable",
      "type": "function"
    }
  ],
  "bytecode": "0x608060405262093a8060025573__$b8d33eeb36ac0d1e81cd70156e0043e778$__63907af6c06040518163ffffffff1660e01b815260040160206040518083038186803b1580156200005057600080fd5b505af415801562000065573d6000803e3d6000fd5b505050506040513d601f19601f820116820180604052508101906200008b919062000b60565b60c862000099919062000c81565b602155348015620000a957600080fd5b506040516200289d3803806200289d8339818101604052810190620000cf919062000b34565b80600073ffffffffffffffffffffffffffffffffffffffff168173ffffffffffffffffffffffffffffffffffffffff16141562000143576040517f08c379a00000000000000000000000000000000000000000000000000000000081526004016200013a9062000bf1565b60405180910390fd5b806000806101000a81548173ffffffffffffffffffffffffffffffffffffffff021916908373ffffffffffffffffffffffffffffffffffffffff1602179055507fb532073b38c83145e3e5135377a08bf9aab55bc0fd7c1179cd4fb995d2a5159c600082604051620001b792919062000bc4565b60405180910390a150604051806080016040528073__$b8d33eeb36ac0d1e81cd70156e0043e778$__63907af6c06040518163ffffffff1660e01b815260040160206040518083038186803b1580156200021057600080fd5b505af415801562000225573d6000803e3d6000fd5b505050506040513d601f19601f820116820180604052508101906200024b919062000b60565b6305f5e1006200025c919062000c81565b8152602001635a9dda00815260200160016301e13380635a9dda0062000283919062000c24565b6200028f919062000ce2565b815260200173__$b8d33eeb36ac0d1e81cd70156e0043e778$__63907af6c06040518163ffffffff1660e01b815260040160206040518083038186803b158015620002d957600080fd5b505af4158015620002ee573d6000803e3d6000fd5b505050506040513d601f19601f8201168201806040525081019062000314919062000b60565b6305f5e10062000325919062000c81565b815250600560006007811062000364577f4e487b7100000000000000000000000000000000000000000000000000000000600052603260045260246000fd5b6004020160008201518160000155602082015181600101556040820151816002015560608201518160030155905050604051806080016040528073__$b8d33eeb36ac0d1e81cd70156e0043e778$__63907af6c06040518163ffffffff1660e01b815260040160206040518083038186803b158015620003e357600080fd5b505af4158015620003f8573d6000803e3d6000fd5b505050506040513d601f19601f820116820180604052508101906200041e919062000b60565b63047868c06200042f919062000c81565b81526020016301e13380635a9dda006200044a919062000c24565b815260200160016303c26700635a9dda0062000467919062000c24565b62000473919062000ce2565b815260200160008152506005600160078110620004b9577f4e487b7100000000000000000000000000000000000000000000000000000000600052603260045260246000fd5b6004020160008201518160000155602082015181600101556040820151816002015560608201518160030155905050604051806080016040528073__$b8d33eeb36ac0d1e81cd70156e0043e778$__63907af6c06040518163ffffffff1660e01b815260040160206040518083038186803b1580156200053857600080fd5b505af41580156200054d573d6000803e3d6000fd5b505050506040513d601f19601f8201168201806040525081019062000573919062000b60565b63023c346062000584919062000c81565b81526020016303c26700635a9dda006200059f919062000c24565b815260200160016305a39a80635a9dda00620005bc919062000c24565b620005c8919062000ce2565b8152602001600081525060056002600781106200060e577f4e487b7100000000000000000000000000000000000000000000000000000000600052603260045260246000fd5b6004020160008201518160000155602082015181600101556040820151816002015560608201518160030155905050604051806080016040528073__$b8d33eeb36ac0d1e81cd70156e0043e778$__63907af6c06040518163ffffffff1660e01b815260040160206040518083038186803b1580156200068d57600080fd5b505af4158015620006a2573d6000803e3d6000fd5b505050506040513d601f19601f82011682018060405250810190620006c8919062000b60565b63011e1a30620006d9919062000c81565b81526020016305a39a80635a9dda00620006f4919062000c24565b81526020016001630784ce00635a9dda0062000711919062000c24565b6200071d919062000ce2565b81526020016000815250600560036007811062000763577f4e487b7100000000000000000000000000000000000000000000000000000000600052603260045260246000fd5b6004020160008201518160000155602082015181600101556040820151816002015560608201518160030155905050604051806080016040528073__$b8d33eeb36ac0d1e81cd70156e0043e778$__63907af6c06040518163ffffffff1660e01b815260040160206040518083038186803b158015620007e257600080fd5b505af4158015620007f7573d6000803e3d6000fd5b505050506040513d601f19601f820116820180604052508101906200081d919062000b60565b628f0d186200082d919062000c81565b8152602001630784ce00635a9dda0062000848919062000c24565b815260200160016309660180635a9dda0062000865919062000c24565b62000871919062000ce2565b815260200160008152506005600460078110620008b7577f4e487b7100000000000000000000000000000000000000000000000000000000600052603260045260246000fd5b6004020160008201518160000155602082015181600101556040820151816002015560608201518160030155905050604051806080016040528073__$b8d33eeb36ac0d1e81cd70156e0043e778$__63907af6c06040518163ffffffff1660e01b815260040160206040518083038186803b1580156200093657600080fd5b505af41580156200094b573d6000803e3d6000fd5b505050506040513d601f19601f8201168201806040525081019062000971919062000b60565b6247868c62000981919062000c81565b81526020016309660180635a9dda006200099c919062000c24565b81526020016001630b473500635a9dda00620009b9919062000c24565b620009c5919062000ce2565b815260200160008152506005806007811062000a0a577f4e487b7100000000000000000000000000000000000000000000000000000000600052603260045260246000fd5b6004020160008201518160000155602082015181600101556040820151816002015560608201518160030155905050604051806080016040528060008152602001630b473500635a9dda0062000a61919062000c24565b81526020016001630d286880635a9dda0062000a7e919062000c24565b62000a8a919062000ce2565b81526020016000815250600560066007811062000ad0577f4e487b7100000000000000000000000000000000000000000000000000000000600052603260045260246000fd5b60040201600082015181600001556020820151816001015560408201518160020155606082015181600301559050505062000de7565b60008151905062000b178162000db3565b92915050565b60008151905062000b2e8162000dcd565b92915050565b60006020828403121562000b4757600080fd5b600062000b578482850162000b06565b91505092915050565b60006020828403121562000b7357600080fd5b600062000b838482850162000b1d565b91505092915050565b62000b978162000d1d565b82525050565b600062000bac60198362000c13565b915062000bb98262000d8a565b602082019050919050565b600060408201905062000bdb600083018562000b8c565b62000bea602083018462000b8c565b9392505050565b6000602082019050818103600083015262000c0c8162000b9d565b9050919050565b600082825260208201905092915050565b600062000c318262000d51565b915062000c3e8362000d51565b9250827fffffffffffffffffffffffffffffffffffffffffffffffffffffffffffffffff0382111562000c765762000c7562000d5b565b5b828201905092915050565b600062000c8e8262000d51565b915062000c9b8362000d51565b9250817fffffffffffffffffffffffffffffffffffffffffffffffffffffffffffffffff048311821515161562000cd75762000cd662000d5b565b5b828202905092915050565b600062000cef8262000d51565b915062000cfc8362000d51565b92508282101562000d125762000d1162000d5b565b5b828203905092915050565b600062000d2a8262000d31565b9050919050565b600073ffffffffffffffffffffffffffffffffffffffff82169050919050565b6000819050919050565b7f4e487b7100000000000000000000000000000000000000000000000000000000600052601160045260246000fd5b7f4f776e657220616464726573732063616e6e6f74206265203000000000000000600082015250565b62000dbe8162000d1d565b811462000dca57600080fd5b50565b62000dd88162000d51565b811462000de457600080fd5b50565b611aa68062000df76000396000f3fe608060405234801561001057600080fd5b50600436106101735760003560e01c806379ba5097116100de578063bdc6d9ab11610097578063cc5c095c11610071578063cc5c095c146103fd578063cdf3c2701461041b578063e4cde88914610439578063fec9f9da1461045757610173565b8063bdc6d9ab1461038e578063be801f01146103c1578063bfd7277f146103df57610173565b806379ba5097146102ee5780638a1a5f3f146102f85780638da5cb5b146103165780638f3a7a49146103345780639bdd7ac714610352578063b8da6bd51461037057610173565b806346b45af71161013057806346b45af71461023c57806349e701591461025a5780634ae265211461027857806353a47bb714610294578063759b5225146102b25780637838096d146102d057610173565b806307abcd9a1461017857806311b92f80146101965780631627540c146101c657806335ecdf1f146101e2578063372c6533146102005780633dbf6ea21461021e575b600080fd5b610180610473565b60405161018d919061148d565b60405180910390f35b6101b060048036038101906101ab9190611293565b61048a565b6040516101bd919061148d565b60405180910390f35b6101e060048036038101906101db9190611241565b6104a8565b005b6101ea6105b1565b6040516101f7919061148d565b60405180910390f35b6102086105c8565b604051610215919061148d565b60405180910390f35b6102266105d0565b604051610233919061148d565b60405180910390f35b6102446105e7565b60405161025191906113d7565b60405180910390f35b61026261065f565b60405161026f91906113d7565b60405180910390f35b610292600480360381019061028d9190611293565b6108c9565b005b61029c610998565b6040516102a99190611393565b60405180910390f35b6102ba6109be565b6040516102c791906113f2565b60405180910390f35b6102d86109e4565b6040516102e59190611524565b60405180910390f35b6102f66109e9565b005b610300610b9a565b60405161030d919061148d565b60405180910390f35b61031e610ce8565b60405161032b9190611393565b60405180910390f35b61033c610d0c565b604051610349919061148d565b60405180910390f35b61035a610d12565b604051610367919061148d565b60405180910390f35b610378610d18565b604051610385919061148d565b60405180910390f35b6103a860048036038101906103a39190611293565b610d2f565b6040516103b894939291906114df565b60405180910390f35b6103c9610d65565b6040516103d6919061148d565b60405180910390f35b6103e7610d6b565b6040516103f4919061148d565b60405180910390f35b610405610d82565b604051610412919061148d565b60405180910390f35b610423610ef9565b604051610430919061148d565b60405180910390f35b610441610f10565b60405161044e919061148d565b60405180910390f35b610471600480360381019061046c919061126a565b610f27565b005b6309660180635a9dda006104879190611550565b81565b60006104a160025483610ff990919063ffffffff16565b9050919050565b60008054906101000a900473ffffffffffffffffffffffffffffffffffffffff1673ffffffffffffffffffffffffffffffffffffffff163373ffffffffffffffffffffffffffffffffffffffff1614610536576040517f08c379a000000000000000000000000000000000000000000000000000000000815260040161052d9061142d565b60405180910390fd5b80600160006101000a81548173ffffffffffffffffffffffffffffffffffffffff021916908373ffffffffffffffffffffffffffffffffffffffff1602179055507f906a1c6bd7e3091ea86693dd029a831c19049ce77f1dce2ce0bab1cacbabce22816040516105a69190611393565b60405180910390a150565b630d286880635a9dda006105c59190611550565b81565b635a9dda0081565b630784ce00635a9dda006105e49190611550565b81565b60008060009050600254600354426105ff91906117a2565b11801561064e57506005600660078110610642577f4e487b7100000000000000000000000000000000000000000000000000000000600052603260045260246000fd5b60040201600201544211155b1561065857600190505b8091505090565b6000600460009054906101000a900473ffffffffffffffffffffffffffffffffffffffff1673ffffffffffffffffffffffffffffffffffffffff163373ffffffffffffffffffffffffffffffffffffffff16146106f1576040517f08c379a00000000000000000000000000000000000000000000000000000000081526004016106e89061144d565b60405180910390fd5b60006106fb610b9a565b905060006107088261100f565b9050600061072682610718610d82565b61114990919063ffffffff16565b905060008211156107e35761079182600560018661074491906117a2565b6007811061077b577f4e487b7100000000000000000000000000000000000000000000000000000000600052603260045260246000fd5b600402016003015461115f90919063ffffffff16565b60056001856107a091906117a2565b600781106107d7577f4e487b7100000000000000000000000000000000000000000000000000000000600052603260045260246000fd5b60040201600301819055505b6108378160058560078110610821577f4e487b7100000000000000000000000000000000000000000000000000000000600052603260045260246000fd5b600402016003015461115f90919063ffffffff16565b60058460078110610871577f4e487b7100000000000000000000000000000000000000000000000000000000600052603260045260246000fd5b600402016003018190555042600381905550827f601e517d4811033fed8290c79b7823ce1ab70258da45400fe2391a3c7432edab8383426040516108b7939291906114a8565b60405180910390a26001935050505090565b60008054906101000a900473ffffffffffffffffffffffffffffffffffffffff1673ffffffffffffffffffffffffffffffffffffffff163373ffffffffffffffffffffffffffffffffffffffff1614610957576040517f08c379a000000000000000000000000000000000000000000000000000000000815260040161094e9061142d565b60405180910390fd5b806021819055507f036e0c635f8b7d9314bb6f2a577046108ef0f8b5e3869fbd29fd5a448ed99d308160405161098d919061148d565b60405180910390a150565b600160009054906101000a900473ffffffffffffffffffffffffffffffffffffffff1681565b600460009054906101000a900473ffffffffffffffffffffffffffffffffffffffff1681565b600781565b600160009054906101000a900473ffffffffffffffffffffffffffffffffffffffff1673ffffffffffffffffffffffffffffffffffffffff163373ffffffffffffffffffffffffffffffffffffffff1614610a79576040517f08c379a0000000000000000000000000000000000000000000000000000000008152600401610a709061140d565b60405180910390fd5b7fb532073b38c83145e3e5135377a08bf9aab55bc0fd7c1179cd4fb995d2a5159c60008054906101000a900473ffffffffffffffffffffffffffffffffffffffff16600160009054906101000a900473ffffffffffffffffffffffffffffffffffffffff16604051610aec9291906113ae565b60405180910390a1600160009054906101000a900473ffffffffffffffffffffffffffffffffffffffff166000806101000a81548173ffffffffffffffffffffffffffffffffffffffff021916908373ffffffffffffffffffffffffffffffffffffffff1602179055506000600160006101000a81548173ffffffffffffffffffffffffffffffffffffffff021916908373ffffffffffffffffffffffffffffffffffffffff160217905550565b60006005600660078110610bd7577f4e487b7100000000000000000000000000000000000000000000000000000000600052603260045260246000fd5b6004020160020154421115610c21576040517f08c379a0000000000000000000000000000000000000000000000000000000008152600401610c189061146d565b60405180910390fd5b60005b600760ff16811015610ce3574260058260078110610c6b577f4e487b7100000000000000000000000000000000000000000000000000000000600052603260045260246000fd5b600402016001015411158015610cc257504260058260078110610cb7577f4e487b7100000000000000000000000000000000000000000000000000000000600052603260045260246000fd5b600402016002015410155b15610cd05780915050610ce5565b8080610cdb90611861565b915050610c24565b505b90565b60008054906101000a900473ffffffffffffffffffffffffffffffffffffffff1681565b60025481565b60215481565b6303c26700635a9dda00610d2c9190611550565b81565b60058160078110610d3f57600080fd5b600402016000915090508060000154908060010154908060020154908060030154905084565b60035481565b6305a39a80635a9dda00610d7f9190611550565b81565b6000610d8c6105e7565b610d995760009050610ef6565b6000610da3610b9a565b90506000610db08261100f565b9050600060058360078110610dee577f4e487b7100000000000000000000000000000000000000000000000000000000600052603260045260246000fd5b6004020160405180608001604052908160008201548152602001600182015481526020016002820154815260200160038201548152505090506000610e5160025483602001518460400151610e4391906117a2565b610ff990919063ffffffff16565b90506000610e6c82846000015161117590919063ffffffff16565b9050600083602001516003541015610ea257610e9d610e9885602001514261114990919063ffffffff16565b61048a565b610ec0565b610ebf610eba6003544261114990919063ffffffff16565b61048a565b5b90506000610ed782846111b490919063ffffffff16565b9050610eec868261115f90919063ffffffff16565b9750505050505050505b90565b630b473500635a9dda00610f0d9190611550565b81565b6301e13380635a9dda00610f249190611550565b81565b60008054906101000a900473ffffffffffffffffffffffffffffffffffffffff1673ffffffffffffffffffffffffffffffffffffffff163373ffffffffffffffffffffffffffffffffffffffff1614610fb5576040517f08c379a0000000000000000000000000000000000000000000000000000000008152600401610fac9061142d565b60405180910390fd5b80600460006101000a81548173ffffffffffffffffffffffffffffffffffffffff021916908373ffffffffffffffffffffffffffffffffffffffff16021790555050565b6000818361100791906115a6565b905092915050565b60008082148061106d5750600560018361102991906117a2565b60078110611060577f4e487b7100000000000000000000000000000000000000000000000000000000600052603260045260246000fd5b6004020160020154600354115b1561107b5760009050611144565b600061112a600560018561108f91906117a2565b600781106110c6577f4e487b7100000000000000000000000000000000000000000000000000000000600052603260045260246000fd5b600402016003015460056001866110dd91906117a2565b60078110611114577f4e487b7100000000000000000000000000000000000000000000000000000000600052603260045260246000fd5b600402016000015461114990919063ffffffff16565b9050600081101561113f576000915050611144565b809150505b919050565b6000818361115791906117a2565b905092915050565b6000818361116d9190611550565b905092915050565b60006111ac8261119e601260ff16600a61118f919061162a565b866111ec90919063ffffffff16565b610ff990919063ffffffff16565b905092915050565b6000601260ff16600a6111c7919061162a565b6111da83856111ec90919063ffffffff16565b6111e491906115a6565b905092915050565b600081836111fa9190611748565b905092915050565b60008135905061121181611a2b565b92915050565b60008135905061122681611a42565b92915050565b60008135905061123b81611a59565b92915050565b60006020828403121561125357600080fd5b600061126184828501611202565b91505092915050565b60006020828403121561127c57600080fd5b600061128a84828501611217565b91505092915050565b6000602082840312156112a557600080fd5b60006112b38482850161122c565b91505092915050565b6112c5816117d6565b82525050565b6112d4816117e8565b82525050565b6112e38161183d565b82525050565b60006112f660358361153f565b915061130182611915565b604082019050919050565b6000611319602f8361153f565b915061132482611964565b604082019050919050565b600061133c60338361153f565b9150611347826119b3565b604082019050919050565b600061135f601b8361153f565b915061136a82611a02565b602082019050919050565b61137e81611826565b82525050565b61138d81611830565b82525050565b60006020820190506113a860008301846112bc565b92915050565b60006040820190506113c360008301856112bc565b6113d060208301846112bc565b9392505050565b60006020820190506113ec60008301846112cb565b92915050565b600060208201905061140760008301846112da565b92915050565b60006020820190508181036000830152611426816112e9565b9050919050565b600060208201905081810360008301526114468161130c565b9050919050565b600060208201905081810360008301526114668161132f565b9050919050565b6000602082019050818103600083015261148681611352565b9050919050565b60006020820190506114a26000830184611375565b92915050565b60006060820190506114bd6000830186611375565b6114ca6020830185611375565b6114d76040830184611375565b949350505050565b60006080820190506114f46000830187611375565b6115016020830186611375565b61150e6040830185611375565b61151b6060830184611375565b95945050505050565b60006020820190506115396000830184611384565b92915050565b600082825260208201905092915050565b600061155b82611826565b915061156683611826565b9250827fffffffffffffffffffffffffffffffffffffffffffffffffffffffffffffffff0382111561159b5761159a6118aa565b5b828201905092915050565b60006115b182611826565b91506115bc83611826565b9250826115cc576115cb6118d9565b5b828204905092915050565b6000808291508390505b6001851115611621578086048111156115fd576115fc6118aa565b5b600185161561160c5780820291505b808102905061161a85611908565b94506115e1565b94509492505050565b600061163582611826565b915061164083611826565b925061166d7fffffffffffffffffffffffffffffffffffffffffffffffffffffffffffffffff8484611675565b905092915050565b6000826116855760019050611741565b816116935760009050611741565b81600181146116a957600281146116b3576116e2565b6001915050611741565b60ff8411156116c5576116c46118aa565b5b8360020a9150848211156116dc576116db6118aa565b5b50611741565b5060208310610133831016604e8410600b84101617156117175782820a905083811115611712576117116118aa565b5b611741565b61172484848460016115d7565b9250905081840481111561173b5761173a6118aa565b5b81810290505b9392505050565b600061175382611826565b915061175e83611826565b9250817fffffffffffffffffffffffffffffffffffffffffffffffffffffffffffffffff0483118215151615611797576117966118aa565b5b828202905092915050565b60006117ad82611826565b91506117b883611826565b9250828210156117cb576117ca6118aa565b5b828203905092915050565b60006117e182611806565b9050919050565b60008115159050919050565b60006117ff826117d6565b9050919050565b600073ffffffffffffffffffffffffffffffffffffffff82169050919050565b6000819050919050565b600060ff82169050919050565b60006118488261184f565b9050919050565b600061185a82611806565b9050919050565b600061186c82611826565b91507fffffffffffffffffffffffffffffffffffffffffffffffffffffffffffffffff82141561189f5761189e6118aa565b5b600182019050919050565b7f4e487b7100000000000000000000000000000000000000000000000000000000600052601160045260246000fd5b7f4e487b7100000000000000000000000000000000000000000000000000000000600052601260045260246000fd5b60008160011c9050919050565b7f596f75206d757374206265206e6f6d696e61746564206265666f726520796f7560008201527f2063616e20616363657074206f776e6572736869700000000000000000000000602082015250565b7f4f6e6c792074686520636f6e7472616374206f776e6572206d6179207065726660008201527f6f726d207468697320616374696f6e0000000000000000000000000000000000602082015250565b7f4f6e6c79207468652073796e74686574697820636f6e74726163742063616e2060008201527f706572666f726d207468697320616374696f6e00000000000000000000000000602082015250565b7f4d696e7461626c6520706572696f6473206861766520656e6465640000000000600082015250565b611a34816117d6565b8114611a3f57600080fd5b50565b611a4b816117f4565b8114611a5657600080fd5b50565b611a6281611826565b8114611a6d57600080fd5b5056fea2646970667358221220333644be5dc12f4cbca8c4553642d13148231059622a6da5b9f99c57cf5d228d64736f6c63430008040033",
  "linkReferences": {
    "contracts/SafeDecimalMath.sol": {
      "SafeDecimalMath": [
        {
          "length": 20,
          "start": 13
        },
        {
          "length": 20,
          "start": 461
        },
        {
          "length": 20,
          "start": 662
        },
        {
          "length": 20,
          "start": 928
        },
        {
          "length": 20,
          "start": 1269
        },
        {
          "length": 20,
          "start": 1610
        },
        {
          "length": 20,
          "start": 1951
        },
        {
          "length": 20,
          "start": 2291
        }
      ]
    }
  },
  "deployedLinkReferences": {}
}