{
  "_format": "hh-sol-artifact-1",
  "contractName": "SupplySchedule",
  "sourceName": "contracts/SupplySchedule.sol",
  "abi": [
    {
      "inputs": [
        {
          "internalType": "address",
          "name": "_owner",
          "type": "address"
        }
      ],
      "stateMutability": "nonpayable",
      "type": "constructor"
    },
    {
      "anonymous": false,
      "inputs": [
        {
          "indexed": false,
          "internalType": "uint256",
          "name": "newRewardAmount",
          "type": "uint256"
        }
      ],
      "name": "MinterRewardUpdated",
      "type": "event"
    },
    {
      "anonymous": false,
      "inputs": [
        {
          "indexed": false,
          "internalType": "address",
          "name": "oldOwner",
          "type": "address"
        },
        {
          "indexed": false,
          "internalType": "address",
          "name": "newOwner",
          "type": "address"
        }
      ],
      "name": "OwnerChanged",
      "type": "event"
    },
    {
      "anonymous": false,
      "inputs": [
        {
          "indexed": false,
          "internalType": "address",
          "name": "newOwner",
          "type": "address"
        }
      ],
      "name": "OwnerNominated",
      "type": "event"
    },
    {
      "anonymous": false,
      "inputs": [
        {
          "indexed": false,
          "internalType": "uint256",
          "name": "previousPeriodAmount",
          "type": "uint256"
        },
        {
          "indexed": false,
          "internalType": "uint256",
          "name": "currentAmount",
          "type": "uint256"
        },
        {
          "indexed": true,
          "internalType": "uint256",
          "name": "schedule",
          "type": "uint256"
        },
        {
          "indexed": false,
          "internalType": "uint256",
          "name": "timestamp",
          "type": "uint256"
        }
      ],
      "name": "SupplyMinted",
      "type": "event"
    },
    {
      "inputs": [],
      "name": "INFLATION_SCHEDULES_LENGTH",
      "outputs": [
        {
          "internalType": "uint8",
          "name": "",
          "type": "uint8"
        }
      ],
      "stateMutability": "view",
      "type": "function"
    },
    {
      "inputs": [],
      "name": "START_DATE",
      "outputs": [
        {
          "internalType": "uint256",
          "name": "",
          "type": "uint256"
        }
      ],
      "stateMutability": "view",
      "type": "function"
    },
    {
      "inputs": [],
      "name": "YEAR_FIVE",
      "outputs": [
        {
          "internalType": "uint256",
          "name": "",
          "type": "uint256"
        }
      ],
      "stateMutability": "view",
      "type": "function"
    },
    {
      "inputs": [],
      "name": "YEAR_FOUR",
      "outputs": [
        {
          "internalType": "uint256",
          "name": "",
          "type": "uint256"
        }
      ],
      "stateMutability": "view",
      "type": "function"
    },
    {
      "inputs": [],
      "name": "YEAR_ONE",
      "outputs": [
        {
          "internalType": "uint256",
          "name": "",
          "type": "uint256"
        }
      ],
      "stateMutability": "view",
      "type": "function"
    },
    {
      "inputs": [],
      "name": "YEAR_SEVEN",
      "outputs": [
        {
          "internalType": "uint256",
          "name": "",
          "type": "uint256"
        }
      ],
      "stateMutability": "view",
      "type": "function"
    },
    {
      "inputs": [],
      "name": "YEAR_SIX",
      "outputs": [
        {
          "internalType": "uint256",
          "name": "",
          "type": "uint256"
        }
      ],
      "stateMutability": "view",
      "type": "function"
    },
    {
      "inputs": [],
      "name": "YEAR_THREE",
      "outputs": [
        {
          "internalType": "uint256",
          "name": "",
          "type": "uint256"
        }
      ],
      "stateMutability": "view",
      "type": "function"
    },
    {
      "inputs": [],
      "name": "YEAR_TWO",
      "outputs": [
        {
          "internalType": "uint256",
          "name": "",
          "type": "uint256"
        }
      ],
      "stateMutability": "view",
      "type": "function"
    },
    {
      "inputs": [
        {
          "internalType": "uint256",
          "name": "_timeDiff",
          "type": "uint256"
        }
      ],
      "name": "_numWeeksRoundedDown",
      "outputs": [
        {
          "internalType": "uint256",
          "name": "",
          "type": "uint256"
        }
      ],
      "stateMutability": "view",
      "type": "function"
    },
    {
      "inputs": [],
      "name": "acceptOwnership",
      "outputs": [],
      "stateMutability": "nonpayable",
      "type": "function"
    },
    {
      "inputs": [],
      "name": "getCurrentSchedule",
      "outputs": [
        {
          "internalType": "uint256",
          "name": "",
          "type": "uint256"
        }
      ],
      "stateMutability": "view",
      "type": "function"
    },
    {
      "inputs": [],
      "name": "isMintable",
      "outputs": [
        {
          "internalType": "bool",
          "name": "",
          "type": "bool"
        }
      ],
      "stateMutability": "view",
      "type": "function"
    },
    {
      "inputs": [],
      "name": "lastMintEvent",
      "outputs": [
        {
          "internalType": "uint256",
          "name": "",
          "type": "uint256"
        }
      ],
      "stateMutability": "view",
      "type": "function"
    },
    {
      "inputs": [],
      "name": "mintPeriodDuration",
      "outputs": [
        {
          "internalType": "uint256",
          "name": "",
          "type": "uint256"
        }
      ],
      "stateMutability": "view",
      "type": "function"
    },
    {
      "inputs": [],
      "name": "mintableSupply",
      "outputs": [
        {
          "internalType": "uint256",
          "name": "",
          "type": "uint256"
        }
      ],
      "stateMutability": "view",
      "type": "function"
    },
    {
      "inputs": [],
      "name": "minterReward",
      "outputs": [
        {
          "internalType": "uint256",
          "name": "",
          "type": "uint256"
        }
      ],
      "stateMutability": "view",
      "type": "function"
    },
    {
      "inputs": [
        {
          "internalType": "address",
          "name": "_owner",
          "type": "address"
        }
      ],
      "name": "nominateNewOwner",
      "outputs": [],
      "stateMutability": "nonpayable",
      "type": "function"
    },
    {
      "inputs": [],
      "name": "nominatedOwner",
      "outputs": [
        {
          "internalType": "address",
          "name": "",
          "type": "address"
        }
      ],
      "stateMutability": "view",
      "type": "function"
    },
    {
      "inputs": [],
      "name": "owner",
      "outputs": [
        {
          "internalType": "address",
          "name": "",
          "type": "address"
        }
      ],
      "stateMutability": "view",
      "type": "function"
    },
    {
      "inputs": [
        {
          "internalType": "uint256",
          "name": "",
          "type": "uint256"
        }
      ],
      "name": "schedules",
      "outputs": [
        {
          "internalType": "uint256",
          "name": "totalSupply",
          "type": "uint256"
        },
        {
          "internalType": "uint256",
          "name": "startPeriod",
          "type": "uint256"
        },
        {
          "internalType": "uint256",
          "name": "endPeriod",
          "type": "uint256"
        },
        {
          "internalType": "uint256",
          "name": "totalSupplyMinted",
          "type": "uint256"
        }
      ],
      "stateMutability": "view",
      "type": "function"
    },
    {
      "inputs": [
        {
          "internalType": "uint256",
          "name": "_amount",
          "type": "uint256"
        }
      ],
      "name": "setMinterReward",
      "outputs": [],
      "stateMutability": "nonpayable",
      "type": "function"
    },
    {
      "inputs": [
        {
          "internalType": "contract Synthetix",
          "name": "_synthetix",
          "type": "address"
        }
      ],
      "name": "setSynthetix",
      "outputs": [],
      "stateMutability": "nonpayable",
      "type": "function"
    },
    {
      "inputs": [],
      "name": "synthetix",
      "outputs": [
        {
          "internalType": "contract Synthetix",
          "name": "",
          "type": "address"
        }
      ],
      "stateMutability": "view",
      "type": "function"
    },
    {
      "inputs": [],
      "name": "updateMintValues",
      "outputs": [
        {
          "internalType": "bool",
          "name": "",
          "type": "bool"
        }
      ],
      "stateMutability": "nonpayable",
      "type": "function"
    }
  ],
  "bytecode": "0x6080604081905262093a80600255630241ebdb60e61b815273__$b8d33eeb36ac0d1e81cd70156e0043e778$__9063907af6c09060849060209060048186803b1580156200004c57600080fd5b505af415801562000061573d6000803e3d6000fd5b505050506040513d601f19601f82011682018060405250810190620000879190620008af565b620000949060c8620008e3565b602155348015620000a457600080fd5b50604051620016de380380620016de833981016040819052620000c7916200087f565b806001600160a01b038116620001235760405162461bcd60e51b815260206004820152601960248201527f4f776e657220616464726573732063616e6e6f74206265203000000000000000604482015260640160405180910390fd5b600080546001600160a01b0319166001600160a01b03831690811782556040805192835260208301919091527fb532073b38c83145e3e5135377a08bf9aab55bc0fd7c1179cd4fb995d2a5159c910160405180910390a150604051806080016040528073__$b8d33eeb36ac0d1e81cd70156e0043e778$__63907af6c06040518163ffffffff1660e01b815260040160206040518083038186803b158015620001cb57600080fd5b505af4158015620001e0573d6000803e3d6000fd5b505050506040513d601f19601f82011682018060405250810190620002069190620008af565b62000216906305f5e100620008e3565b8152602001635a9dda0081526020016001635a9dda006301e133806200023d9190620008c8565b62000249919062000905565b815260200173__$b8d33eeb36ac0d1e81cd70156e0043e778$__63907af6c06040518163ffffffff1660e01b815260040160206040518083038186803b1580156200029357600080fd5b505af4158015620002a8573d6000803e3d6000fd5b505050506040513d601f19601f82011682018060405250810190620002ce9190620008af565b620002de906305f5e100620008e3565b90528051600555602080820151600655604080830151600755606090920151600855815160808101808452630241ebdb60e61b90529151829173__$b8d33eeb36ac0d1e81cd70156e0043e778$__9163907af6c09160848086019290818703018186803b1580156200034f57600080fd5b505af415801562000364573d6000803e3d6000fd5b505050506040513d601f19601f820116820180604052508101906200038a9190620008af565b6200039a9063047868c0620008e3565b8152602001620003b3635a9dda006301e13380620008c8565b81526020016001620003ce635a9dda006303c26700620008c8565b620003da919062000905565b81526000602091820152815160095581810151600a55604080830151600b55606090920151600c55815160808101808452630241ebdb60e61b90529151829173__$b8d33eeb36ac0d1e81cd70156e0043e778$__9163907af6c09160848086019290818703018186803b1580156200045157600080fd5b505af415801562000466573d6000803e3d6000fd5b505050506040513d601f19601f820116820180604052508101906200048c9190620008af565b6200049c9063023c3460620008e3565b8152602001620004b5635a9dda006303c26700620008c8565b81526020016001620004d0635a9dda006305a39a80620008c8565b620004dc919062000905565b815260006020918201528151600d5581810151600e55604080830151600f55606090920151601055815160808101808452630241ebdb60e61b90529151829173__$b8d33eeb36ac0d1e81cd70156e0043e778$__9163907af6c09160848086019290818703018186803b1580156200055357600080fd5b505af415801562000568573d6000803e3d6000fd5b505050506040513d601f19601f820116820180604052508101906200058e9190620008af565b6200059e9063011e1a30620008e3565b8152602001620005b7635a9dda006305a39a80620008c8565b81526020016001620005d2635a9dda00630784ce00620008c8565b620005de919062000905565b81526000602091820152815160115581810151601255604080830151601355606090920151601455815160808101808452630241ebdb60e61b90529151829173__$b8d33eeb36ac0d1e81cd70156e0043e778$__9163907af6c09160848086019290818703018186803b1580156200065557600080fd5b505af41580156200066a573d6000803e3d6000fd5b505050506040513d601f19601f82011682018060405250810190620006909190620008af565b6200069f90628f0d18620008e3565b8152602001620006b8635a9dda00630784ce00620008c8565b81526020016001620006d3635a9dda006309660180620008c8565b620006df919062000905565b81526000602091820152815160155581810151601655604080830151601755606090920151601855815160808101808452630241ebdb60e61b90529151829173__$b8d33eeb36ac0d1e81cd70156e0043e778$__9163907af6c09160848086019290818703018186803b1580156200075657600080fd5b505af41580156200076b573d6000803e3d6000fd5b505050506040513d601f19601f82011682018060405250810190620007919190620008af565b620007a0906247868c620008e3565b8152602001620007b9635a9dda006309660180620008c8565b81526020016001620007d4635a9dda00630b473500620008c8565b620007e0919062000905565b815260006020918201819052825160195582820151601a55604080840151601b55606090930151601c55825160808101909352825281016200082b635a9dda00630b473500620008c8565b8152602001600162000846635a9dda00630d286880620008c8565b62000852919062000905565b815260006020918201528151601d5581810151601e556040820151601f5560609091015190555062000935565b60006020828403121562000891578081fd5b81516001600160a01b0381168114620008a8578182fd5b9392505050565b600060208284031215620008c1578081fd5b5051919050565b60008219821115620008de57620008de6200091f565b500190565b60008160001904831182151516156200090057620009006200091f565b500290565b6000828210156200091a576200091a6200091f565b500390565b634e487b7160e01b600052601160045260246000fd5b610d9980620009456000396000f3fe608060405234801561001057600080fd5b50600436106101735760003560e01c806379ba5097116100de578063bdc6d9ab11610097578063cc5c095c11610071578063cc5c095c146102e2578063cdf3c270146102ea578063e4cde889146102f2578063fec9f9da146102fa57600080fd5b8063bdc6d9ab1461029e578063be801f01146102d1578063bfd7277f146102da57600080fd5b806379ba5097146102615780638a1a5f3f146102695780638da5cb5b146102715780638f3a7a49146102845780639bdd7ac71461028d578063b8da6bd51461029657600080fd5b806346b45af71161013057806346b45af7146101d657806349e70159146101ee5780634ae26521146101f657806353a47bb714610209578063759b5225146102345780637838096d1461024757600080fd5b806307abcd9a1461017857806311b92f80146101935780631627540c146101a657806335ecdf1f146101bb578063372c6533146101c35780633dbf6ea2146101ce575b600080fd5b61018061030d565b6040519081526020015b60405180910390f35b6101806101a1366004610b5a565b610322565b6101b96101b4366004610b3e565b61033f565b005b6101806103c7565b610180635a9dda0081565b6101806103d9565b6101de6103eb565b604051901515815260200161018a565b6101de61041d565b6101b9610204366004610b5a565b6105f6565b60015461021c906001600160a01b031681565b6040516001600160a01b03909116815260200161018a565b60045461021c906001600160a01b031681565b61024f600781565b60405160ff909116815260200161018a565b6101b9610655565b61018061073f565b60005461021c906001600160a01b031681565b61018060025481565b61018060215481565b610180610820565b6102b16102ac366004610b5a565b610832565b60408051948552602085019390935291830152606082015260800161018a565b61018060035481565b610180610860565b610180610872565b61018061099e565b6101806109b0565b6101b9610308366004610b3e565b6109c2565b61031f635a9dda006309660180610bc1565b81565b600061033960025483610a0e90919063ffffffff16565b92915050565b6000546001600160a01b031633146103725760405162461bcd60e51b815260040161036990610b72565b60405180910390fd5b600180546001600160a01b0319166001600160a01b0383169081179091556040519081527f906a1c6bd7e3091ea86693dd029a831c19049ce77f1dce2ce0bab1cacbabce22906020015b60405180910390a150565b61031f635a9dda00630d286880610bc1565b61031f635a9dda00630784ce00610bc1565b60025460035460009182916104009042610d03565b11801561040f5750601f544211155b15610418575060015b919050565b6004546000906001600160a01b031633146104965760405162461bcd60e51b815260206004820152603360248201527f4f6e6c79207468652073796e74686574697820636f6e74726163742063616e206044820152723832b93337b936903a3434b99030b1ba34b7b760691b6064820152608401610369565b60006104a061073f565b905060006104ad82610a21565b905060006104c3826104bd610872565b90610adc565b90508115610547576105108260056104dc600187610d03565b600781106104fa57634e487b7160e01b600052603260045260246000fd5b6004020160030154610ae890919063ffffffff16565b600561051d600186610d03565b6007811061053b57634e487b7160e01b600052603260045260246000fd5b60040201600301819055505b61056c81600585600781106104fa57634e487b7160e01b600052603260045260246000fd5b6005846007811061058d57634e487b7160e01b600052603260045260246000fd5b600402016003018190555042600381905550827f601e517d4811033fed8290c79b7823ce1ab70258da45400fe2391a3c7432edab8383426040516105e4939291909283526020830191909152604082015260600190565b60405180910390a26001935050505090565b6000546001600160a01b031633146106205760405162461bcd60e51b815260040161036990610b72565b60218190556040518181527f036e0c635f8b7d9314bb6f2a577046108ef0f8b5e3869fbd29fd5a448ed99d30906020016103bc565b6001546001600160a01b031633146106cd5760405162461bcd60e51b815260206004820152603560248201527f596f75206d757374206265206e6f6d696e61746564206265666f726520796f7560448201527402063616e20616363657074206f776e65727368697605c1b6064820152608401610369565b600054600154604080516001600160a01b0393841681529290911660208301527fb532073b38c83145e3e5135377a08bf9aab55bc0fd7c1179cd4fb995d2a5159c910160405180910390a160018054600080546001600160a01b03199081166001600160a01b03841617909155169055565b601f546000904211156107945760405162461bcd60e51b815260206004820152601b60248201527f4d696e7461626c6520706572696f6473206861766520656e64656400000000006044820152606401610369565b60005b600781101561081c5742600582600781106107c257634e487b7160e01b600052603260045260246000fd5b600402016001015411158015610800575042600582600781106107f557634e487b7160e01b600052603260045260246000fd5b600402016002015410155b1561080a57919050565b8061081481610d1a565b915050610797565b5090565b61031f635a9dda006303c26700610bc1565b6005816007811061084257600080fd5b60040201805460018201546002830154600390930154919350919084565b61031f635a9dda006305a39a80610bc1565b600061087c6103eb565b6108865750600090565b600061089061073f565b9050600061089d82610a21565b90506000600583600781106108c257634e487b7160e01b600052603260045260246000fd5b600402016040518060800160405290816000820154815260200160018201548152602001600282015481526020016003820154815250509050600061091d600254836020015184604001516109179190610d03565b90610a0e565b825190915060009061092f9083610af4565b90506000836020015160035410156109605761095b6101a1856020015142610adc90919063ffffffff16565b610978565b6109786101a160035442610adc90919063ffffffff16565b905060006109868383610b10565b90506109928187610ae8565b97505050505050505090565b61031f635a9dda00630b473500610bc1565b61031f635a9dda006301e13380610bc1565b6000546001600160a01b031633146109ec5760405162461bcd60e51b815260040161036990610b72565b600480546001600160a01b0319166001600160a01b0392909216919091179055565b6000610a1a8284610bd9565b9392505050565b6000811580610a6357506005610a38600184610d03565b60078110610a5657634e487b7160e01b600052603260045260246000fd5b6004020160020154600354115b15610a7057506000919050565b6000610a1a6005610a82600186610d03565b60078110610aa057634e487b7160e01b600052603260045260246000fd5b60040201600301546005600186610ab79190610d03565b60078110610ad557634e487b7160e01b600052603260045260246000fd5b6004020154905b6000610a1a8284610d03565b6000610a1a8284610bc1565b6000610a1a82610917610b096012600a610c3c565b8690610b32565b6000610b1e6012600a610c3c565b610b288484610b32565b610a1a9190610bd9565b6000610a1a8284610ce4565b600060208284031215610b4f578081fd5b8135610a1a81610d4b565b600060208284031215610b6b578081fd5b5035919050565b6020808252602f908201527f4f6e6c792074686520636f6e7472616374206f776e6572206d6179207065726660408201526e37b936903a3434b99030b1ba34b7b760891b606082015260800190565b60008219821115610bd457610bd4610d35565b500190565b600082610bf457634e487b7160e01b81526012600452602481fd5b500490565b600181815b80851115610c34578160001904821115610c1a57610c1a610d35565b80851615610c2757918102915b93841c9390800290610bfe565b509250929050565b6000610a1a8383600082610c5257506001610339565b81610c5f57506000610339565b8160018114610c755760028114610c7f57610c9b565b6001915050610339565b60ff841115610c9057610c90610d35565b50506001821b610339565b5060208310610133831016604e8410600b8410161715610cbe575081810a610339565b610cc88383610bf9565b8060001904821115610cdc57610cdc610d35565b029392505050565b6000816000190483118215151615610cfe57610cfe610d35565b500290565b600082821015610d1557610d15610d35565b500390565b6000600019821415610d2e57610d2e610d35565b5060010190565b634e487b7160e01b600052601160045260246000fd5b6001600160a01b0381168114610d6057600080fd5b5056fea26469706673582212207ed006332075f274432e944db7824790a2eb59e415304d0ea8f3bc1428df4b4c64736f6c63430008040033",
  "linkReferences": {
    "contracts/SafeDecimalMath.sol": {
      "SafeDecimalMath": [
        {
          "length": 20,
          "start": 25
        },
        {
          "length": 20,
          "start": 392
        },
        {
          "length": 20,
          "start": 592
        },
        {
          "length": 20,
          "start": 793
        },
        {
          "length": 20,
          "start": 1051
        },
        {
          "length": 20,
          "start": 1309
        },
        {
          "length": 20,
          "start": 1567
        },
        {
          "length": 20,
          "start": 1824
        }
      ]
    }
  },
  "deployedLinkReferences": {}
}