{
  "_format": "hh-sol-artifact-1",
  "contractName": "SynthetixEscrow",
  "sourceName": "contracts/SynthetixEscrow.sol",
  "abi": [
    {
      "inputs": [
        {
          "internalType": "address",
          "name": "_owner",
          "type": "address"
        },
        {
          "internalType": "contract ISynthetix",
          "name": "_synthetix",
          "type": "address"
        }
      ],
      "stateMutability": "nonpayable",
      "type": "constructor"
    },
    {
      "anonymous": false,
      "inputs": [
        {
          "indexed": false,
          "internalType": "address",
          "name": "oldOwner",
          "type": "address"
        },
        {
          "indexed": false,
          "internalType": "address",
          "name": "newOwner",
          "type": "address"
        }
      ],
      "name": "OwnerChanged",
      "type": "event"
    },
    {
      "anonymous": false,
      "inputs": [
        {
          "indexed": false,
          "internalType": "address",
          "name": "newOwner",
          "type": "address"
        }
      ],
      "name": "OwnerNominated",
      "type": "event"
    },
    {
      "anonymous": false,
      "inputs": [
        {
          "indexed": false,
          "internalType": "address",
          "name": "newSynthetix",
          "type": "address"
        }
      ],
      "name": "SynthetixUpdated",
      "type": "event"
    },
    {
      "anonymous": false,
      "inputs": [
        {
          "indexed": true,
          "internalType": "address",
          "name": "beneficiary",
          "type": "address"
        },
        {
          "indexed": false,
          "internalType": "uint256",
          "name": "time",
          "type": "uint256"
        },
        {
          "indexed": false,
          "internalType": "uint256",
          "name": "value",
          "type": "uint256"
        }
      ],
      "name": "Vested",
      "type": "event"
    },
    {
      "inputs": [],
      "name": "acceptOwnership",
      "outputs": [],
      "stateMutability": "nonpayable",
      "type": "function"
    },
    {
      "inputs": [
        {
          "internalType": "address",
          "name": "account",
          "type": "address"
        },
        {
          "internalType": "uint256[]",
          "name": "times",
          "type": "uint256[]"
        },
        {
          "internalType": "uint256[]",
          "name": "quantities",
          "type": "uint256[]"
        }
      ],
      "name": "addVestingSchedule",
      "outputs": [],
      "stateMutability": "nonpayable",
      "type": "function"
    },
    {
      "inputs": [
        {
          "internalType": "address",
          "name": "account",
          "type": "address"
        },
        {
          "internalType": "uint256",
          "name": "time",
          "type": "uint256"
        },
        {
          "internalType": "uint256",
          "name": "quantity",
          "type": "uint256"
        }
      ],
      "name": "appendVestingEntry",
      "outputs": [],
      "stateMutability": "nonpayable",
      "type": "function"
    },
    {
      "inputs": [
        {
          "internalType": "address",
          "name": "account",
          "type": "address"
        }
      ],
      "name": "balanceOf",
      "outputs": [
        {
          "internalType": "uint256",
          "name": "",
          "type": "uint256"
        }
      ],
      "stateMutability": "view",
      "type": "function"
    },
    {
      "inputs": [
        {
          "internalType": "address",
          "name": "account",
          "type": "address"
        }
      ],
      "name": "getNextVestingEntry",
      "outputs": [
        {
          "internalType": "uint256[2]",
          "name": "",
          "type": "uint256[2]"
        }
      ],
      "stateMutability": "view",
      "type": "function"
    },
    {
      "inputs": [
        {
          "internalType": "address",
          "name": "account",
          "type": "address"
        }
      ],
      "name": "getNextVestingIndex",
      "outputs": [
        {
          "internalType": "uint256",
          "name": "",
          "type": "uint256"
        }
      ],
      "stateMutability": "view",
      "type": "function"
    },
    {
      "inputs": [
        {
          "internalType": "address",
          "name": "account",
          "type": "address"
        }
      ],
      "name": "getNextVestingQuantity",
      "outputs": [
        {
          "internalType": "uint256",
          "name": "",
          "type": "uint256"
        }
      ],
      "stateMutability": "view",
      "type": "function"
    },
    {
      "inputs": [
        {
          "internalType": "address",
          "name": "account",
          "type": "address"
        }
      ],
      "name": "getNextVestingTime",
      "outputs": [
        {
          "internalType": "uint256",
          "name": "",
          "type": "uint256"
        }
      ],
      "stateMutability": "view",
      "type": "function"
    },
    {
      "inputs": [
        {
          "internalType": "address",
          "name": "account",
          "type": "address"
        },
        {
          "internalType": "uint256",
          "name": "index",
          "type": "uint256"
        }
      ],
      "name": "getVestingQuantity",
      "outputs": [
        {
          "internalType": "uint256",
          "name": "",
          "type": "uint256"
        }
      ],
      "stateMutability": "view",
      "type": "function"
    },
    {
      "inputs": [
        {
          "internalType": "address",
          "name": "account",
          "type": "address"
        },
        {
          "internalType": "uint256",
          "name": "index",
          "type": "uint256"
        }
      ],
      "name": "getVestingScheduleEntry",
      "outputs": [
        {
          "internalType": "uint256[2]",
          "name": "",
          "type": "uint256[2]"
        }
      ],
      "stateMutability": "view",
      "type": "function"
    },
    {
      "inputs": [
        {
          "internalType": "address",
          "name": "account",
          "type": "address"
        },
        {
          "internalType": "uint256",
          "name": "index",
          "type": "uint256"
        }
      ],
      "name": "getVestingTime",
      "outputs": [
        {
          "internalType": "uint256",
          "name": "",
          "type": "uint256"
        }
      ],
      "stateMutability": "view",
      "type": "function"
    },
    {
      "inputs": [
        {
          "internalType": "address",
          "name": "_owner",
          "type": "address"
        }
      ],
      "name": "nominateNewOwner",
      "outputs": [],
      "stateMutability": "nonpayable",
      "type": "function"
    },
    {
      "inputs": [],
      "name": "nominatedOwner",
      "outputs": [
        {
          "internalType": "address",
          "name": "",
          "type": "address"
        }
      ],
      "stateMutability": "view",
      "type": "function"
    },
    {
      "inputs": [
        {
          "internalType": "address",
          "name": "account",
          "type": "address"
        }
      ],
      "name": "numVestingEntries",
      "outputs": [
        {
          "internalType": "uint256",
          "name": "",
          "type": "uint256"
        }
      ],
      "stateMutability": "view",
      "type": "function"
    },
    {
      "inputs": [],
      "name": "owner",
      "outputs": [
        {
          "internalType": "address",
          "name": "",
          "type": "address"
        }
      ],
      "stateMutability": "view",
      "type": "function"
    },
    {
      "inputs": [
        {
          "internalType": "address",
          "name": "account",
          "type": "address"
        }
      ],
      "name": "purgeAccount",
      "outputs": [],
      "stateMutability": "nonpayable",
      "type": "function"
    },
    {
      "inputs": [
        {
          "internalType": "contract ISynthetix",
          "name": "_synthetix",
          "type": "address"
        }
      ],
      "name": "setSynthetix",
      "outputs": [],
      "stateMutability": "nonpayable",
      "type": "function"
    },
    {
      "inputs": [],
      "name": "synthetix",
      "outputs": [
        {
          "internalType": "contract ISynthetix",
          "name": "",
          "type": "address"
        }
      ],
      "stateMutability": "view",
      "type": "function"
    },
    {
      "inputs": [
        {
          "internalType": "address",
          "name": "",
          "type": "address"
        }
      ],
      "name": "totalVestedAccountBalance",
      "outputs": [
        {
          "internalType": "uint256",
          "name": "",
          "type": "uint256"
        }
      ],
      "stateMutability": "view",
      "type": "function"
    },
    {
      "inputs": [],
      "name": "totalVestedBalance",
      "outputs": [
        {
          "internalType": "uint256",
          "name": "",
          "type": "uint256"
        }
      ],
      "stateMutability": "view",
      "type": "function"
    },
    {
      "inputs": [],
      "name": "vest",
      "outputs": [],
      "stateMutability": "nonpayable",
      "type": "function"
    },
    {
      "inputs": [
        {
          "internalType": "address",
          "name": "",
          "type": "address"
        },
        {
          "internalType": "uint256",
          "name": "",
          "type": "uint256"
        },
        {
          "internalType": "uint256",
          "name": "",
          "type": "uint256"
        }
      ],
      "name": "vestingSchedules",
      "outputs": [
        {
          "internalType": "uint256",
          "name": "",
          "type": "uint256"
        }
      ],
      "stateMutability": "view",
      "type": "function"
    },
    {
      "inputs": [
        {
          "internalType": "uint256",
          "name": "quantity",
          "type": "uint256"
        }
      ],
      "name": "withdrawSynthetix",
      "outputs": [],
      "stateMutability": "nonpayable",
      "type": "function"
    }
  ],
  "bytecode": "0x60806040523480156200001157600080fd5b506040516200150938038062001509833981016040819052620000349162000123565b6249d400826001600160a01b038116620000945760405162461bcd60e51b815260206004820152601960248201527f4f776e657220616464726573732063616e6e6f74206265203000000000000000604482015260640160405180910390fd5b600080546001600160a01b0319166001600160a01b03831690811782556040805192835260208301919091527fb532073b38c83145e3e5135377a08bf9aab55bc0fd7c1179cd4fb995d2a5159c910160405180910390a150620000f8814262000161565b60025550600380546001600160a01b0319166001600160a01b0392909216919091179055506200019f565b6000806040838503121562000136578182fd5b8251620001438162000186565b6020840151909250620001568162000186565b809150509250929050565b600082198211156200018157634e487b7160e01b81526011600452602481fd5b500190565b6001600160a01b03811681146200019c57600080fd5b50565b61135a80620001af6000396000f3fe608060405234801561001057600080fd5b506004361061014d5760003560e01c806370a08231116100c3578063a15d59ce1161007c578063a15d59ce146102f2578063bb2a7d0c146102fb578063da7bd3e91461030e578063e6d76a7614610321578063ee1d036c14610334578063fec9f9da1461034757600080fd5b806370a0823114610275578063759b52251461029e57806379ba5097146102b15780638da5cb5b146102b957806397f46527146102cc5780639b217f90146102df57600080fd5b8063227d517a11610115578063227d517a146101dc5780632f5bb661146101fc578063458efde31461021c57806345e5441f1461022457806353a47bb7146102375780636b3905c41461026257600080fd5b8063135c0701146101525780631627540c1461016757806319e740c01461017a5780631bb47b44146101a0578063204b676a146101b3575b600080fd5b610165610160366004611092565b61035a565b005b610165610175366004611092565b610411565b61018d610188366004611092565b610490565b6040519081526020015b60405180910390f35b6101656101ae36600461114c565b6104e3565b61018d6101c1366004611092565b6001600160a01b031660009081526004602052604090205490565b61018d6101ea366004611092565b60056020526000908152604090205481565b61020f61020a366004611092565b61089f565b60405161019791906111d0565b610165610906565b61018d61023236600461114c565b610ae2565b60015461024a906001600160a01b031681565b6040516001600160a01b039091168152602001610197565b61018d610270366004611092565b610b24565b61018d610283366004611092565b6001600160a01b031660009081526005602052604090205490565b60035461024a906001600160a01b031681565b610165610b3d565b60005461024a906001600160a01b031681565b61018d6102da366004611092565b610c27565b61018d6102ed366004611121565b610c39565b61018d60065481565b6101656103093660046110ae565b610c54565b61020f61031c366004611121565b610d1c565b61016561032f3660046111a0565b610d9f565b61018d610342366004611121565b610e6f565b610165610355366004611092565b610e82565b6000546001600160a01b0316331461038d5760405162461bcd60e51b815260040161038490611201565b60405180910390fd5b60025442106103ae5760405162461bcd60e51b815260040161038490611250565b6001600160a01b03811660009081526004602052604081206103cf91610f12565b6001600160a01b0381166000908152600560205260409020546006546103f491610efa565b6006556001600160a01b0316600090815260056020526040812055565b6000546001600160a01b0316331461043b5760405162461bcd60e51b815260040161038490611201565b600180546001600160a01b0319166001600160a01b0383169081179091556040519081527f906a1c6bd7e3091ea86693dd029a831c19049ce77f1dce2ce0bab1cacbabce22906020015b60405180910390a150565b6001600160a01b03811660009081526004602052604081205460005b818110156104dc576104be8482610c39565b156104ca579392505050565b806104d4816112c8565b9150506104ac565b5092915050565b6000546001600160a01b0316331461050d5760405162461bcd60e51b815260040161038490611201565b600254421061052e5760405162461bcd60e51b815260040161038490611250565b81421061057d5760405162461bcd60e51b815260206004820152601a60248201527f54696d65206d75737420626520696e20746865206675747572650000000000006044820152606401610384565b806105ca5760405162461bcd60e51b815260206004820152601760248201527f5175616e746974792063616e6e6f74206265207a65726f0000000000000000006044820152606401610384565b6006546105d79082610f06565b6006556003546040516370a0823160e01b81523060048201526001600160a01b03909116906370a082319060240160206040518083038186803b15801561061d57600080fd5b505afa158015610631573d6000803e3d6000fd5b505050506040513d601f19601f8201168201806040525081019061065591906111b8565b60065411156106dc5760405162461bcd60e51b815260206004820152604760248201527f4d75737420626520656e6f7567682062616c616e636520696e2074686520636f60448201527f6e747261637420746f2070726f7669646520666f72207468652076657374696e6064820152666720656e74727960c81b608482015260a401610384565b6001600160a01b03831660009081526004602052604090205460148111156107465760405162461bcd60e51b815260206004820152601c60248201527f56657374696e67207363686564756c6520697320746f6f206c6f6e67000000006044820152606401610384565b8061076b576001600160a01b038416600090815260056020526040902082905561084b565b8261079b856001610791886001600160a01b031660009081526004602052604090205490565b6102ed91906112b1565b1061080e5760405162461bcd60e51b815260206004820152603760248201527f43616e6e6f7420616464206e65772076657374656420656e747269657320656160448201527f726c696572207468616e20746865206c617374206f6e650000000000000000006064820152608401610384565b6001600160a01b0384166000908152600560205260409020546108319083610f06565b6001600160a01b0385166000908152600560205260409020555b6001600160a01b0384166000908152600460209081526040808320815180830190925286825281830186905280546001810182559084529190922061089892600292830290910191610f36565b5050505050565b6108a7610f74565b60006108b283610490565b90506108d3836001600160a01b031660009081526004602052604090205490565b8114156108f55750506040805180820190915260008082526020820152919050565b6108ff8382610d1c565b9392505050565b3360009081526004602052604081205490805b828110156109d657600061092d3383610c39565b90504281111561093d57506109d6565b60006109493384610e6f565b9050806109575750506109c4565b60408051808201825260008082526020808301829052338252600490529190912080548590811061099857634e487b7160e01b600052603260045260246000fd5b90600052602060002090600202019060026109b4929190610f92565b506109bf8482610f06565b935050505b806109ce816112c8565b915050610919565b508015610ade576006546109ea9082610efa565b60065533600090815260056020526040902054610a079082610efa565b336000818152600560205260409081902092909255600354915163a9059cbb60e01b81526004810191909152602481018390526001600160a01b039091169063a9059cbb90604401602060405180830381600087803b158015610a6957600080fd5b505af1158015610a7d573d6000803e3d6000fd5b505050506040513d601f19601f82011682018060405250810190610aa19190611180565b50604080514281526020810183905233917ffbeff59d2bfda0d79ea8a29f8c57c66d48c7a13eabbdb90908d9115ec41c9dc6910160405180910390a25b5050565b60046020528260005260406000208281548110610afe57600080fd5b90600052602060002090600202018160028110610b1a57600080fd5b0154925083915050565b6000610b2f8261089f565b60005b602002015192915050565b6001546001600160a01b03163314610bb55760405162461bcd60e51b815260206004820152603560248201527f596f75206d757374206265206e6f6d696e61746564206265666f726520796f7560448201527402063616e20616363657074206f776e65727368697605c1b6064820152608401610384565b600054600154604080516001600160a01b0393841681529290911660208301527fb532073b38c83145e3e5135377a08bf9aab55bc0fd7c1179cd4fb995d2a5159c910160405180910390a160018054600080546001600160a01b03199081166001600160a01b03841617909155169055565b6000610c328261089f565b6001610b32565b6000610c458383610d1c565b60005b60200201519392505050565b6000546001600160a01b03163314610c7e5760405162461bcd60e51b815260040161038490611201565b6002544210610c9f5760405162461bcd60e51b815260040161038490611250565b60005b8251811015610d1657610d0484848381518110610ccf57634e487b7160e01b600052603260045260246000fd5b6020026020010151848481518110610cf757634e487b7160e01b600052603260045260246000fd5b60200260200101516104e3565b80610d0e816112c8565b915050610ca2565b50505050565b610d24610f74565b6001600160a01b0383166000908152600460205260409020805483908110610d5c57634e487b7160e01b600052603260045260246000fd5b600091825260209091206040805180820191829052926002908102909201919082845b815481526020019060010190808311610d7f575050505050905092915050565b6000546001600160a01b03163314610dc95760405162461bcd60e51b815260040161038490611201565b6002544210610dea5760405162461bcd60e51b815260040161038490611250565b60035460405163a9059cbb60e01b81526001600160a01b0390911660048201819052602482018390529063a9059cbb90604401602060405180830381600087803b158015610e3757600080fd5b505af1158015610e4b573d6000803e3d6000fd5b505050506040513d601f19601f82011682018060405250810190610ade9190611180565b6000610e7b8383610d1c565b6001610c48565b6000546001600160a01b03163314610eac5760405162461bcd60e51b815260040161038490611201565b600380546001600160a01b0319166001600160a01b0383169081179091556040519081527f46e9c68bd7831071bdd478f1ae4c4a52463961a9d620383a0a121dbfc0e0f06d90602001610485565b60006108ff82846112b1565b60006108ff8284611299565b5080546000825560020290600052602060002090810190610f339190610fc5565b50565b8260028101928215610f64579160200282015b82811115610f64578251825591602001919060010190610f49565b50610f70929150610fdf565b5090565b60405180604001604052806002906020820280368337509192915050565b8260028101928215610f64579160200282015b82811115610f64578251829060ff16905591602001919060010190610fa5565b80821115610f705760008082556001820155600201610fc5565b5b80821115610f705760008155600101610fe0565b600082601f830112611004578081fd5b8135602067ffffffffffffffff80831115611021576110216112f9565b8260051b604051601f19603f83011681018181108482111715611046576110466112f9565b60405284815283810192508684018288018501891015611064578687fd5b8692505b85831015611086578035845292840192600192909201918401611068565b50979650505050505050565b6000602082840312156110a3578081fd5b81356108ff8161130f565b6000806000606084860312156110c2578182fd5b83356110cd8161130f565b9250602084013567ffffffffffffffff808211156110e9578384fd5b6110f587838801610ff4565b9350604086013591508082111561110a578283fd5b5061111786828701610ff4565b9150509250925092565b60008060408385031215611133578182fd5b823561113e8161130f565b946020939093013593505050565b600080600060608486031215611160578283fd5b833561116b8161130f565b95602085013595506040909401359392505050565b600060208284031215611191578081fd5b815180151581146108ff578182fd5b6000602082840312156111b1578081fd5b5035919050565b6000602082840312156111c9578081fd5b5051919050565b60408101818360005b60028110156111f85781518352602092830192909101906001016111d9565b50505092915050565b6020808252602f908201527f4f6e6c792074686520636f6e7472616374206f776e6572206d6179207065726660408201526e37b936903a3434b99030b1ba34b7b760891b606082015260800190565b60208082526029908201527f43616e206f6e6c7920706572666f726d207468697320616374696f6e206475726040820152680696e672073657475760bc1b606082015260800190565b600082198211156112ac576112ac6112e3565b500190565b6000828210156112c3576112c36112e3565b500390565b60006000198214156112dc576112dc6112e3565b5060010190565b634e487b7160e01b600052601160045260246000fd5b634e487b7160e01b600052604160045260246000fd5b6001600160a01b0381168114610f3357600080fdfea26469706673582212209ae570077e45cabac60b314793363d23deeb99bd23a32bf8e9519c83de7efc2564736f6c63430008040033",
  "linkReferences": {},
  "deployedLinkReferences": {}
}