{
  "_format": "hh-sol-artifact-1",
  "contractName": "SynthetixState",
  "sourceName": "contracts/SynthetixState.sol",
  "abi": [
    {
      "inputs": [
        {
          "internalType": "address",
          "name": "_owner",
          "type": "address"
        },
        {
          "internalType": "address",
          "name": "_associatedContract",
          "type": "address"
        }
      ],
      "stateMutability": "nonpayable",
      "type": "constructor"
    },
    {
      "anonymous": false,
      "inputs": [
        {
          "indexed": false,
          "internalType": "address",
          "name": "associatedContract",
          "type": "address"
        }
      ],
      "name": "AssociatedContractUpdated",
      "type": "event"
    },
    {
      "anonymous": false,
      "inputs": [
        {
          "indexed": false,
          "internalType": "uint256",
          "name": "newRatio",
          "type": "uint256"
        }
      ],
      "name": "IssuanceRatioUpdated",
      "type": "event"
    },
    {
      "anonymous": false,
      "inputs": [
        {
          "indexed": false,
          "internalType": "address",
          "name": "oldOwner",
          "type": "address"
        },
        {
          "indexed": false,
          "internalType": "address",
          "name": "newOwner",
          "type": "address"
        }
      ],
      "name": "OwnerChanged",
      "type": "event"
    },
    {
      "anonymous": false,
      "inputs": [
        {
          "indexed": false,
          "internalType": "address",
          "name": "newOwner",
          "type": "address"
        }
      ],
      "name": "OwnerNominated",
      "type": "event"
    },
    {
      "inputs": [],
      "name": "MAX_ISSUANCE_RATIO",
      "outputs": [
        {
          "internalType": "uint256",
          "name": "",
          "type": "uint256"
        }
      ],
      "stateMutability": "view",
      "type": "function"
    },
    {
      "inputs": [],
      "name": "acceptOwnership",
      "outputs": [],
      "stateMutability": "nonpayable",
      "type": "function"
    },
    {
      "inputs": [
        {
          "internalType": "uint256",
          "name": "value",
          "type": "uint256"
        }
      ],
      "name": "appendDebtLedgerValue",
      "outputs": [],
      "stateMutability": "nonpayable",
      "type": "function"
    },
    {
      "inputs": [],
      "name": "associatedContract",
      "outputs": [
        {
          "internalType": "address",
          "name": "",
          "type": "address"
        }
      ],
      "stateMutability": "view",
      "type": "function"
    },
    {
      "inputs": [
        {
          "internalType": "address",
          "name": "account",
          "type": "address"
        }
      ],
      "name": "clearIssuanceData",
      "outputs": [],
      "stateMutability": "nonpayable",
      "type": "function"
    },
    {
      "inputs": [
        {
          "internalType": "uint256",
          "name": "",
          "type": "uint256"
        }
      ],
      "name": "debtLedger",
      "outputs": [
        {
          "internalType": "uint256",
          "name": "",
          "type": "uint256"
        }
      ],
      "stateMutability": "view",
      "type": "function"
    },
    {
      "inputs": [],
      "name": "debtLedgerLength",
      "outputs": [
        {
          "internalType": "uint256",
          "name": "",
          "type": "uint256"
        }
      ],
      "stateMutability": "view",
      "type": "function"
    },
    {
      "inputs": [],
      "name": "decrementTotalIssuerCount",
      "outputs": [],
      "stateMutability": "nonpayable",
      "type": "function"
    },
    {
      "inputs": [
        {
          "internalType": "address",
          "name": "account",
          "type": "address"
        }
      ],
      "name": "hasIssued",
      "outputs": [
        {
          "internalType": "bool",
          "name": "",
          "type": "bool"
        }
      ],
      "stateMutability": "view",
      "type": "function"
    },
    {
      "inputs": [
        {
          "internalType": "address[]",
          "name": "accounts",
          "type": "address[]"
        },
        {
          "internalType": "uint256[]",
          "name": "USDxAmounts",
          "type": "uint256[]"
        }
      ],
      "name": "importIssuerData",
      "outputs": [],
      "stateMutability": "nonpayable",
      "type": "function"
    },
    {
      "inputs": [],
      "name": "importedXDRAmount",
      "outputs": [
        {
          "internalType": "uint256",
          "name": "",
          "type": "uint256"
        }
      ],
      "stateMutability": "view",
      "type": "function"
    },
    {
      "inputs": [],
      "name": "incrementTotalIssuerCount",
      "outputs": [],
      "stateMutability": "nonpayable",
      "type": "function"
    },
    {
      "inputs": [
        {
          "internalType": "address",
          "name": "",
          "type": "address"
        }
      ],
      "name": "issuanceData",
      "outputs": [
        {
          "internalType": "uint256",
          "name": "initialDebtOwnership",
          "type": "uint256"
        },
        {
          "internalType": "uint256",
          "name": "debtEntryIndex",
          "type": "uint256"
        }
      ],
      "stateMutability": "view",
      "type": "function"
    },
    {
      "inputs": [],
      "name": "issuanceRatio",
      "outputs": [
        {
          "internalType": "uint256",
          "name": "",
          "type": "uint256"
        }
      ],
      "stateMutability": "view",
      "type": "function"
    },
    {
      "inputs": [],
      "name": "lastDebtLedgerEntry",
      "outputs": [
        {
          "internalType": "uint256",
          "name": "",
          "type": "uint256"
        }
      ],
      "stateMutability": "view",
      "type": "function"
    },
    {
      "inputs": [
        {
          "internalType": "address",
          "name": "_owner",
          "type": "address"
        }
      ],
      "name": "nominateNewOwner",
      "outputs": [],
      "stateMutability": "nonpayable",
      "type": "function"
    },
    {
      "inputs": [],
      "name": "nominatedOwner",
      "outputs": [
        {
          "internalType": "address",
          "name": "",
          "type": "address"
        }
      ],
      "stateMutability": "view",
      "type": "function"
    },
    {
      "inputs": [],
      "name": "owner",
      "outputs": [
        {
          "internalType": "address",
          "name": "",
          "type": "address"
        }
      ],
      "stateMutability": "view",
      "type": "function"
    },
    {
      "inputs": [
        {
          "internalType": "address",
          "name": "",
          "type": "address"
        }
      ],
      "name": "preferredCurrency",
      "outputs": [
        {
          "internalType": "bytes4",
          "name": "",
          "type": "bytes4"
        }
      ],
      "stateMutability": "view",
      "type": "function"
    },
    {
      "inputs": [
        {
          "internalType": "address",
          "name": "_associatedContract",
          "type": "address"
        }
      ],
      "name": "setAssociatedContract",
      "outputs": [],
      "stateMutability": "nonpayable",
      "type": "function"
    },
    {
      "inputs": [
        {
          "internalType": "address",
          "name": "account",
          "type": "address"
        },
        {
          "internalType": "uint256",
          "name": "initialDebtOwnership",
          "type": "uint256"
        }
      ],
      "name": "setCurrentIssuanceData",
      "outputs": [],
      "stateMutability": "nonpayable",
      "type": "function"
    },
    {
      "inputs": [
        {
          "internalType": "uint256",
          "name": "_issuanceRatio",
          "type": "uint256"
        }
      ],
      "name": "setIssuanceRatio",
      "outputs": [],
      "stateMutability": "nonpayable",
      "type": "function"
    },
    {
      "inputs": [
        {
          "internalType": "address",
          "name": "account",
          "type": "address"
        },
        {
          "internalType": "bytes4",
          "name": "currencyKey",
          "type": "bytes4"
        }
      ],
      "name": "setPreferredCurrency",
      "outputs": [],
      "stateMutability": "nonpayable",
      "type": "function"
    },
    {
      "inputs": [],
      "name": "totalIssuerCount",
      "outputs": [
        {
          "internalType": "uint256",
          "name": "",
          "type": "uint256"
        }
      ],
      "stateMutability": "view",
      "type": "function"
    }
  ],
  "bytecode": "0x60806040819052630241ebdb60e61b815260059073__$b8d33eeb36ac0d1e81cd70156e0043e778$__9063907af6c09060849060209060048186803b1580156200004857600080fd5b505af41580156200005d573d6000803e3d6000fd5b505050506040513d601f19601f82011682018060405250810190620000839190620002c0565b6200008f9190620002fe565b60085573__$b8d33eeb36ac0d1e81cd70156e0043e778$__63907af6c06040518163ffffffff1660e01b815260040160206040518083038186803b158015620000d757600080fd5b505af4158015620000ec573d6000803e3d6000fd5b505050506040513d601f19601f82011682018060405250810190620001129190620002c0565b6009553480156200012257600080fd5b506040516200160138038062001601833981016040819052620001459162000289565b62093a808282816001600160a01b038116620001a75760405162461bcd60e51b815260206004820152601960248201527f4f776e657220616464726573732063616e6e6f74206265203000000000000000604482015260640160405180910390fd5b600080546001600160a01b0319166001600160a01b03831690811782556040805192835260208301919091527fb532073b38c83145e3e5135377a08bf9aab55bc0fd7c1179cd4fb995d2a5159c910160405180910390a150600280546001600160a01b0319166001600160a01b0383169081179091556040519081527f73f20cff579e8a4086fa607db83867595f1b6a798e718c0bfa0b94a404128e039060200160405180910390a1506200025f90508142620002d9565b600355506200031f915050565b80516001600160a01b03811681146200028457600080fd5b919050565b600080604083850312156200029c578182fd5b620002a7836200026c565b9150620002b7602084016200026c565b90509250929050565b600060208284031215620002d2578081fd5b5051919050565b60008219821115620002f957634e487b7160e01b81526011600452602481fd5b500190565b6000826200031a57634e487b7160e01b81526012600452602481fd5b500490565b6112d2806200032f6000396000f3fe608060405234801561001057600080fd5b50600436106101585760003560e01c80638b3f8088116100c3578063b16c09f01161007c578063b16c09f0146102ca578063b410a034146102dd578063b992812e146102e6578063ba08f29914610321578063caca251614610329578063cd92eba91461036557600080fd5b80638b3f8088146102395780638da5cb5b146102755780639371bede146102885780639e49e97614610291578063a764eb45146102a4578063aefc4ccb146102b757600080fd5b8063463177121161011557806346317712146101cf57806351dc7f7d146101d757806352f445ca146101ea57806353a47bb7146101fd578063657c6dc71461022857806379ba50971461023157600080fd5b8063054be0b71461015d57806308d95cd5146101725780631627540c1461019857806316b29c57146101ab5780631bfba595146101b45780633d31e97b146101bc575b600080fd5b61017061016b366004610fb1565b61036d565b005b610185610180366004610fb1565b61044a565b6040519081526020015b60405180910390f35b6101706101a6366004610e6b565b61046b565b61018560075481565b6101706104e3565b6101706101ca366004610fb1565b610520565b61018561057f565b6101706101e5366004610e85565b6105c1565b6101706101f8366004610e6b565b61061c565b600154610210906001600160a01b031681565b6040516001600160a01b03909116815260200161018f565b61018560095481565b610170610694565b610260610247366004610e6b565b6004602052600090815260409020805460019091015482565b6040805192835260208301919091520161018f565b600054610210906001600160a01b031681565b61018560055481565b61017061029f366004610ef0565b61077e565b6101706102b2366004610ec7565b6108d2565b600254610210906001600160a01b031681565b6101706102d8366004610e6b565b610923565b61018560085481565b6103116102f4366004610e6b565b6001600160a01b0316600090815260046020526040902054151590565b604051901515815260200161018f565b61017061096d565b61034c610337366004610e6b565b600a6020526000908152604090205460e01b81565b6040516001600160e01b0319909116815260200161018f565b600654610185565b6000546001600160a01b031633146103a05760405162461bcd60e51b815260040161039790610fe1565b60405180910390fd5b60095481111561040e5760405162461bcd60e51b815260206004820152603360248201527f4e65772069737375616e636520726174696f2063616e6e6f7420657863656564604482015272204d41585f49535355414e43455f524154494f60681b6064820152608401610397565b60088190556040518181527f63b22e09cc3a33e847c063e35f887bd4ea96bc8c0f93f1f8c311e4fa6d885452906020015b60405180910390a150565b6006818154811061045a57600080fd5b600091825260209091200154905081565b6000546001600160a01b031633146104955760405162461bcd60e51b815260040161039790610fe1565b600180546001600160a01b0319166001600160a01b0383169081179091556040519081527f906a1c6bd7e3091ea86693dd029a831c19049ce77f1dce2ce0bab1cacbabce229060200161043f565b6002546001600160a01b0316331461050d5760405162461bcd60e51b815260040161039790611030565b60055461051b9060016109a5565b600555565b6002546001600160a01b0316331461054a5760405162461bcd60e51b815260040161039790611030565b600680546001810182556000919091527ff652222313e28459528d920b65115c16c04f3efc82aaedc97be59f3f377c0d3f0155565b60068054600091906105939060019061120f565b815481106105b157634e487b7160e01b600052603260045260246000fd5b9060005260206000200154905090565b6002546001600160a01b031633146105eb5760405162461bcd60e51b815260040161039790611030565b6001600160a01b03919091166000908152600a60205260409020805463ffffffff191660e09290921c919091179055565b6000546001600160a01b031633146106465760405162461bcd60e51b815260040161039790610fe1565b600280546001600160a01b0319166001600160a01b0383169081179091556040519081527f73f20cff579e8a4086fa607db83867595f1b6a798e718c0bfa0b94a404128e039060200161043f565b6001546001600160a01b0316331461070c5760405162461bcd60e51b815260206004820152603560248201527f596f75206d757374206265206e6f6d696e61746564206265666f726520796f7560448201527402063616e20616363657074206f776e65727368697605c1b6064820152608401610397565b600054600154604080516001600160a01b0393841681529290911660208301527fb532073b38c83145e3e5135377a08bf9aab55bc0fd7c1179cd4fb995d2a5159c910160405180910390a160018054600080546001600160a01b03199081166001600160a01b03841617909155169055565b6000546001600160a01b031633146107a85760405162461bcd60e51b815260040161039790610fe1565b600354421061080b5760405162461bcd60e51b815260206004820152602960248201527f43616e206f6e6c7920706572666f726d207468697320616374696f6e206475726044820152680696e672073657475760bc1b6064820152608401610397565b805182511461084e5760405162461bcd60e51b815260206004820152600f60248201526e098cadccee8d040dad2e6dac2e8c6d608b1b6044820152606401610397565b60005b82518160ff1610156108cd576108bb838260ff168151811061088357634e487b7160e01b600052603260045260246000fd5b6020026020010151838360ff16815181106108ae57634e487b7160e01b600052603260045260246000fd5b60200260200101516109ba565b806108c581611226565b915050610851565b505050565b6002546001600160a01b031633146108fc5760405162461bcd60e51b815260040161039790611030565b6001600160a01b039091166000908152600460205260409020908155600654600190910155565b6002546001600160a01b0316331461094d5760405162461bcd60e51b815260040161039790611030565b6001600160a01b0316600090815260046020526040812081815560010155565b6002546001600160a01b031633146109975760405162461bcd60e51b815260040161039790611030565b60055461051b906001610d12565b60006109b182846110d9565b90505b92915050565b60025460405162e759bf60e61b8152630aaa688f60e31b600482015260248101839052622c222960e91b60448201526001600160a01b039091169060009082906339d66fc09060640160206040518083038186803b158015610a1b57600080fd5b505afa158015610a2f573d6000803e3d6000fd5b505050506040513d601f19601f82011682018060405250810190610a539190610fc9565b6007549091506000610a6583836109a5565b600781905590506000610a788483610d1e565b90506000610b028273__$b8d33eeb36ac0d1e81cd70156e0043e778$__63d5e5e6e66040518163ffffffff1660e01b815260040160206040518083038186803b158015610ac457600080fd5b505af4158015610ad8573d6000803e3d6000fd5b505050506040513d601f19601f82011682018060405250810190610afc9190610fc9565b90610d12565b6040516304e9da5160e31b81526001600160a01b038a81166004830152622c222960e91b602483015291925060009188169063274ed2889060440160206040518083038186803b158015610b5557600080fd5b505afa158015610b69573d6000803e3d6000fd5b505050506040513d601f19601f82011682018060405250810190610b8d9190610fc9565b90508015610bac57610ba984610ba388846109a5565b90610d1e565b92505b6001600160a01b038916600090815260046020526040902054610bdb57600554610bd79060016109a5565b6005555b6001600160a01b0389166000908152600460205260409020838155600654600190910181905515610c72576006610c578360066001600680549050610c20919061120f565b81548110610c3e57634e487b7160e01b600052603260045260246000fd5b9060005260206000200154610d3690919063ffffffff16565b81546001810183556000928352602090922090910155610d07565b600673__$b8d33eeb36ac0d1e81cd70156e0043e778$__63d5e5e6e66040518163ffffffff1660e01b815260040160206040518083038186803b158015610cb857600080fd5b505af4158015610ccc573d6000803e3d6000fd5b505050506040513d601f19601f82011682018060405250810190610cf09190610fc9565b815460018101835560009283526020909220909101555b505050505050505050565b60006109b1828461120f565b60006109b18383610d31601b600a611148565b610d4e565b60006109b18383610d49601b600a611148565b610da6565b600080610d7084610d6a610d6386600a6111f0565b8890610dc8565b90610dd4565b90506005610d7f600a83611246565b10610d9257610d8f600a826110d9565b90505b610d9d600a826110f1565b95945050505050565b600080610db4600a846110f1565b610dbe8686610dc8565b610d7091906110f1565b60006109b182846111f0565b60006109b182846110f1565b80356001600160a01b0381168114610df757600080fd5b919050565b600082601f830112610e0c578081fd5b81356020610e21610e1c836110b5565b611084565b80838252828201915082860187848660051b8901011115610e40578586fd5b855b85811015610e5e57813584529284019290840190600101610e42565b5090979650505050505050565b600060208284031215610e7c578081fd5b6109b182610de0565b60008060408385031215610e97578081fd5b610ea083610de0565b915060208301356001600160e01b031981168114610ebc578182fd5b809150509250929050565b60008060408385031215610ed9578182fd5b610ee283610de0565b946020939093013593505050565b60008060408385031215610f02578182fd5b823567ffffffffffffffff80821115610f19578384fd5b818501915085601f830112610f2c578384fd5b81356020610f3c610e1c836110b5565b8083825282820191508286018a848660051b8901011115610f5b578889fd5b8896505b84871015610f8457610f7081610de0565b835260019690960195918301918301610f5f565b5096505086013592505080821115610f9a578283fd5b50610fa785828601610dfc565b9150509250929050565b600060208284031215610fc2578081fd5b5035919050565b600060208284031215610fda578081fd5b5051919050565b6020808252602f908201527f4f6e6c792074686520636f6e7472616374206f776e6572206d6179207065726660408201526e37b936903a3434b99030b1ba34b7b760891b606082015260800190565b60208082526034908201527f4f6e6c7920746865206173736f63696174656420636f6e74726163742063616e604082015273103832b93337b936903a3434b99030b1ba34b7b760611b606082015260800190565b604051601f8201601f1916810167ffffffffffffffff811182821017156110ad576110ad611286565b604052919050565b600067ffffffffffffffff8211156110cf576110cf611286565b5060051b60200190565b600082198211156110ec576110ec61125a565b500190565b60008261110057611100611270565b500490565b600181815b808511156111405781600019048211156111265761112661125a565b8085161561113357918102915b93841c939080029061110a565b509250929050565b60006109b1838360008261115e575060016109b4565b8161116b575060006109b4565b8160018114611181576002811461118b576111a7565b60019150506109b4565b60ff84111561119c5761119c61125a565b50506001821b6109b4565b5060208310610133831016604e8410600b84101617156111ca575081810a6109b4565b6111d48383611105565b80600019048211156111e8576111e861125a565b029392505050565b600081600019048311821515161561120a5761120a61125a565b500290565b6000828210156112215761122161125a565b500390565b600060ff821660ff81141561123d5761123d61125a565b60010192915050565b60008261125557611255611270565b500690565b634e487b7160e01b600052601160045260246000fd5b634e487b7160e01b600052601260045260246000fd5b634e487b7160e01b600052604160045260246000fdfea2646970667358221220be32a3f6405a592a50bfe2844e9c25e6f470f9bb01d1dc54628c3a7321ce110b64736f6c63430008040033",
  "linkReferences": {
    "contracts/SafeDecimalMath.sol": {
      "SafeDecimalMath": [
        {
          "length": 20,
          "start": 21
        },
        {
          "length": 20,
          "start": 148
        },
        {
          "length": 20,
          "start": 3505
        },
        {
          "length": 20,
          "start": 4005
        }
      ]
    }
  },
  "deployedLinkReferences": {
    "contracts/SafeDecimalMath.sol": {
      "SafeDecimalMath": [
        {
          "length": 20,
          "start": 2690
        },
        {
          "length": 20,
          "start": 3190
        }
      ]
    }
  }
}