{
  "_format": "hh-sol-artifact-1",
  "contractName": "Synth",
  "sourceName": "contracts/Synth.sol",
  "abi": [
    {
      "inputs": [
        {
          "internalType": "address",
          "name": "_proxy",
          "type": "address"
        },
        {
          "internalType": "contract TokenState",
          "name": "_tokenState",
          "type": "address"
        },
        {
          "internalType": "contract Synthetix",
          "name": "_synthetix",
          "type": "address"
        },
        {
          "internalType": "contract IFeePool",
          "name": "_feePool",
          "type": "address"
        },
        {
          "internalType": "string",
          "name": "_tokenName",
          "type": "string"
        },
        {
          "internalType": "string",
          "name": "_tokenSymbol",
          "type": "string"
        },
        {
          "internalType": "address",
          "name": "_owner",
          "type": "address"
        },
        {
          "internalType": "bytes4",
          "name": "_currencyKey",
          "type": "bytes4"
        }
      ],
      "stateMutability": "nonpayable",
      "type": "constructor"
    },
    {
      "anonymous": false,
      "inputs": [
        {
          "indexed": true,
          "internalType": "address",
          "name": "owner",
          "type": "address"
        },
        {
          "indexed": true,
          "internalType": "address",
          "name": "spender",
          "type": "address"
        },
        {
          "indexed": false,
          "internalType": "uint256",
          "name": "value",
          "type": "uint256"
        }
      ],
      "name": "Approval",
      "type": "event"
    },
    {
      "anonymous": false,
      "inputs": [
        {
          "indexed": true,
          "internalType": "address",
          "name": "account",
          "type": "address"
        },
        {
          "indexed": false,
          "internalType": "uint256",
          "name": "value",
          "type": "uint256"
        }
      ],
      "name": "Burned",
      "type": "event"
    },
    {
      "anonymous": false,
      "inputs": [
        {
          "indexed": false,
          "internalType": "address",
          "name": "newFeePool",
          "type": "address"
        }
      ],
      "name": "FeePoolUpdated",
      "type": "event"
    },
    {
      "anonymous": false,
      "inputs": [
        {
          "indexed": true,
          "internalType": "address",
          "name": "account",
          "type": "address"
        },
        {
          "indexed": false,
          "internalType": "uint256",
          "name": "value",
          "type": "uint256"
        }
      ],
      "name": "Issued",
      "type": "event"
    },
    {
      "anonymous": false,
      "inputs": [
        {
          "indexed": false,
          "internalType": "address",
          "name": "oldOwner",
          "type": "address"
        },
        {
          "indexed": false,
          "internalType": "address",
          "name": "newOwner",
          "type": "address"
        }
      ],
      "name": "OwnerChanged",
      "type": "event"
    },
    {
      "anonymous": false,
      "inputs": [
        {
          "indexed": false,
          "internalType": "address",
          "name": "newOwner",
          "type": "address"
        }
      ],
      "name": "OwnerNominated",
      "type": "event"
    },
    {
      "anonymous": false,
      "inputs": [
        {
          "indexed": false,
          "internalType": "address",
          "name": "proxyAddress",
          "type": "address"
        }
      ],
      "name": "ProxyUpdated",
      "type": "event"
    },
    {
      "anonymous": false,
      "inputs": [
        {
          "indexed": false,
          "internalType": "address",
          "name": "newBeneficiary",
          "type": "address"
        }
      ],
      "name": "SelfDestructBeneficiaryUpdated",
      "type": "event"
    },
    {
      "anonymous": false,
      "inputs": [
        {
          "indexed": false,
          "internalType": "uint256",
          "name": "selfDestructDelay",
          "type": "uint256"
        }
      ],
      "name": "SelfDestructInitiated",
      "type": "event"
    },
    {
      "anonymous": false,
      "inputs": [],
      "name": "SelfDestructTerminated",
      "type": "event"
    },
    {
      "anonymous": false,
      "inputs": [
        {
          "indexed": false,
          "internalType": "address",
          "name": "beneficiary",
          "type": "address"
        }
      ],
      "name": "SelfDestructed",
      "type": "event"
    },
    {
      "anonymous": false,
      "inputs": [
        {
          "indexed": false,
          "internalType": "address",
          "name": "newSynthetix",
          "type": "address"
        }
      ],
      "name": "SynthetixUpdated",
      "type": "event"
    },
    {
      "anonymous": false,
      "inputs": [
        {
          "indexed": false,
          "internalType": "address",
          "name": "newTokenState",
          "type": "address"
        }
      ],
      "name": "TokenStateUpdated",
      "type": "event"
    },
    {
      "anonymous": false,
      "inputs": [
        {
          "indexed": true,
          "internalType": "address",
          "name": "from",
          "type": "address"
        },
        {
          "indexed": true,
          "internalType": "address",
          "name": "to",
          "type": "address"
        },
        {
          "indexed": false,
          "internalType": "uint256",
          "name": "value",
          "type": "uint256"
        }
      ],
      "name": "Transfer",
      "type": "event"
    },
    {
      "inputs": [],
      "name": "SELFDESTRUCT_DELAY",
      "outputs": [
        {
          "internalType": "uint256",
          "name": "",
          "type": "uint256"
        }
      ],
      "stateMutability": "view",
      "type": "function"
    },
    {
      "inputs": [],
      "name": "acceptOwnership",
      "outputs": [],
      "stateMutability": "nonpayable",
      "type": "function"
    },
    {
      "inputs": [
        {
          "internalType": "address",
          "name": "owner",
          "type": "address"
        },
        {
          "internalType": "address",
          "name": "spender",
          "type": "address"
        }
      ],
      "name": "allowance",
      "outputs": [
        {
          "internalType": "uint256",
          "name": "",
          "type": "uint256"
        }
      ],
      "stateMutability": "view",
      "type": "function"
    },
    {
      "inputs": [
        {
          "internalType": "address",
          "name": "spender",
          "type": "address"
        },
        {
          "internalType": "uint256",
          "name": "value",
          "type": "uint256"
        }
      ],
      "name": "approve",
      "outputs": [
        {
          "internalType": "bool",
          "name": "",
          "type": "bool"
        }
      ],
      "stateMutability": "nonpayable",
      "type": "function"
    },
    {
      "inputs": [
        {
          "internalType": "address",
          "name": "account",
          "type": "address"
        }
      ],
      "name": "balanceOf",
      "outputs": [
        {
          "internalType": "uint256",
          "name": "",
          "type": "uint256"
        }
      ],
      "stateMutability": "view",
      "type": "function"
    },
    {
      "inputs": [
        {
          "internalType": "address",
          "name": "account",
          "type": "address"
        },
        {
          "internalType": "uint256",
          "name": "amount",
          "type": "uint256"
        }
      ],
      "name": "burn",
      "outputs": [],
      "stateMutability": "nonpayable",
      "type": "function"
    },
    {
      "inputs": [],
      "name": "currencyKey",
      "outputs": [
        {
          "internalType": "bytes4",
          "name": "",
          "type": "bytes4"
        }
      ],
      "stateMutability": "view",
      "type": "function"
    },
    {
      "inputs": [],
      "name": "decimals",
      "outputs": [
        {
          "internalType": "uint8",
          "name": "",
          "type": "uint8"
        }
      ],
      "stateMutability": "view",
      "type": "function"
    },
    {
      "inputs": [],
      "name": "feePool",
      "outputs": [
        {
          "internalType": "contract IFeePool",
          "name": "",
          "type": "address"
        }
      ],
      "stateMutability": "view",
      "type": "function"
    },
    {
      "inputs": [],
      "name": "initiateSelfDestruct",
      "outputs": [],
      "stateMutability": "nonpayable",
      "type": "function"
    },
    {
      "inputs": [],
      "name": "initiationTime",
      "outputs": [
        {
          "internalType": "uint256",
          "name": "",
          "type": "uint256"
        }
      ],
      "stateMutability": "view",
      "type": "function"
    },
    {
      "inputs": [
        {
          "internalType": "address",
          "name": "account",
          "type": "address"
        },
        {
          "internalType": "uint256",
          "name": "amount",
          "type": "uint256"
        }
      ],
      "name": "issue",
      "outputs": [],
      "stateMutability": "nonpayable",
      "type": "function"
    },
    {
      "inputs": [],
      "name": "name",
      "outputs": [
        {
          "internalType": "string",
          "name": "",
          "type": "string"
        }
      ],
      "stateMutability": "view",
      "type": "function"
    },
    {
      "inputs": [
        {
          "internalType": "address",
          "name": "_owner",
          "type": "address"
        }
      ],
      "name": "nominateNewOwner",
      "outputs": [],
      "stateMutability": "nonpayable",
      "type": "function"
    },
    {
      "inputs": [],
      "name": "nominatedOwner",
      "outputs": [
        {
          "internalType": "address",
          "name": "",
          "type": "address"
        }
      ],
      "stateMutability": "view",
      "type": "function"
    },
    {
      "inputs": [],
      "name": "owner",
      "outputs": [
        {
          "internalType": "address",
          "name": "",
          "type": "address"
        }
      ],
      "stateMutability": "view",
      "type": "function"
    },
    {
      "inputs": [],
      "name": "proxy",
      "outputs": [
        {
          "internalType": "contract Proxy",
          "name": "",
          "type": "address"
        }
      ],
      "stateMutability": "view",
      "type": "function"
    },
    {
      "inputs": [],
      "name": "selfDestruct",
      "outputs": [],
      "stateMutability": "nonpayable",
      "type": "function"
    },
    {
      "inputs": [],
      "name": "selfDestructBeneficiary",
      "outputs": [
        {
          "internalType": "address",
          "name": "",
          "type": "address"
        }
      ],
      "stateMutability": "view",
      "type": "function"
    },
    {
      "inputs": [],
      "name": "selfDestructInitiated",
      "outputs": [
        {
          "internalType": "bool",
          "name": "",
          "type": "bool"
        }
      ],
      "stateMutability": "view",
      "type": "function"
    },
    {
      "inputs": [
        {
          "internalType": "contract IFeePool",
          "name": "_feePool",
          "type": "address"
        }
      ],
      "name": "setFeePool",
      "outputs": [],
      "stateMutability": "nonpayable",
      "type": "function"
    },
    {
      "inputs": [
        {
          "internalType": "address",
          "name": "sender",
          "type": "address"
        }
      ],
      "name": "setMessageSender",
      "outputs": [],
      "stateMutability": "nonpayable",
      "type": "function"
    },
    {
      "inputs": [
        {
          "internalType": "address payable",
          "name": "_proxy",
          "type": "address"
        }
      ],
      "name": "setProxy",
      "outputs": [],
      "stateMutability": "nonpayable",
      "type": "function"
    },
    {
      "inputs": [
        {
          "internalType": "address",
          "name": "_beneficiary",
          "type": "address"
        }
      ],
      "name": "setSelfDestructBeneficiary",
      "outputs": [],
      "stateMutability": "nonpayable",
      "type": "function"
    },
    {
      "inputs": [
        {
          "internalType": "contract Synthetix",
          "name": "_synthetix",
          "type": "address"
        }
      ],
      "name": "setSynthetix",
      "outputs": [],
      "stateMutability": "nonpayable",
      "type": "function"
    },
    {
      "inputs": [
        {
          "internalType": "contract TokenState",
          "name": "_tokenState",
          "type": "address"
        }
      ],
      "name": "setTokenState",
      "outputs": [],
      "stateMutability": "nonpayable",
      "type": "function"
    },
    {
      "inputs": [
        {
          "internalType": "uint256",
          "name": "amount",
          "type": "uint256"
        }
      ],
      "name": "setTotalSupply",
      "outputs": [],
      "stateMutability": "nonpayable",
      "type": "function"
    },
    {
      "inputs": [],
      "name": "symbol",
      "outputs": [
        {
          "internalType": "string",
          "name": "",
          "type": "string"
        }
      ],
      "stateMutability": "view",
      "type": "function"
    },
    {
      "inputs": [],
      "name": "synthetix",
      "outputs": [
        {
          "internalType": "contract Synthetix",
          "name": "",
          "type": "address"
        }
      ],
      "stateMutability": "view",
      "type": "function"
    },
    {
      "inputs": [],
      "name": "terminateSelfDestruct",
      "outputs": [],
      "stateMutability": "nonpayable",
      "type": "function"
    },
    {
      "inputs": [],
      "name": "tokenState",
      "outputs": [
        {
          "internalType": "contract TokenState",
          "name": "",
          "type": "address"
        }
      ],
      "stateMutability": "view",
      "type": "function"
    },
    {
      "inputs": [],
      "name": "totalSupply",
      "outputs": [
        {
          "internalType": "uint256",
          "name": "",
          "type": "uint256"
        }
      ],
      "stateMutability": "view",
      "type": "function"
    },
    {
      "inputs": [
        {
          "internalType": "address",
          "name": "to",
          "type": "address"
        },
        {
          "internalType": "uint256",
          "name": "value",
          "type": "uint256"
        }
      ],
      "name": "transfer",
      "outputs": [
        {
          "internalType": "bool",
          "name": "",
          "type": "bool"
        }
      ],
      "stateMutability": "nonpayable",
      "type": "function"
    },
    {
      "inputs": [
        {
          "internalType": "address",
          "name": "to",
          "type": "address"
        },
        {
          "internalType": "uint256",
          "name": "value",
          "type": "uint256"
        },
        {
          "internalType": "bytes",
          "name": "data",
          "type": "bytes"
        }
      ],
      "name": "transfer",
      "outputs": [
        {
          "internalType": "bool",
          "name": "",
          "type": "bool"
        }
      ],
      "stateMutability": "nonpayable",
      "type": "function"
    },
    {
      "inputs": [
        {
          "internalType": "address",
          "name": "from",
          "type": "address"
        },
        {
          "internalType": "address",
          "name": "to",
          "type": "address"
        },
        {
          "internalType": "uint256",
          "name": "value",
          "type": "uint256"
        }
      ],
      "name": "transferFrom",
      "outputs": [
        {
          "internalType": "bool",
          "name": "",
          "type": "bool"
        }
      ],
      "stateMutability": "nonpayable",
      "type": "function"
    },
    {
      "inputs": [
        {
          "internalType": "address",
          "name": "from",
          "type": "address"
        },
        {
          "internalType": "address",
          "name": "to",
          "type": "address"
        },
        {
          "internalType": "uint256",
          "name": "value",
          "type": "uint256"
        },
        {
          "internalType": "bytes",
          "name": "data",
          "type": "bytes"
        }
      ],
      "name": "transferFrom",
      "outputs": [
        {
          "internalType": "bool",
          "name": "",
          "type": "bool"
        }
      ],
      "stateMutability": "nonpayable",
      "type": "function"
    },
    {
      "inputs": [
        {
          "internalType": "address",
          "name": "from",
          "type": "address"
        },
        {
          "internalType": "address",
          "name": "to",
          "type": "address"
        },
        {
          "internalType": "uint256",
          "name": "value",
          "type": "uint256"
        },
        {
          "internalType": "bytes",
          "name": "data",
          "type": "bytes"
        }
      ],
      "name": "transferFromSenderPaysFee",
      "outputs": [
        {
          "internalType": "bool",
          "name": "",
          "type": "bool"
        }
      ],
      "stateMutability": "nonpayable",
      "type": "function"
    },
    {
      "inputs": [
        {
          "internalType": "address",
          "name": "from",
          "type": "address"
        },
        {
          "internalType": "address",
          "name": "to",
          "type": "address"
        },
        {
          "internalType": "uint256",
          "name": "value",
          "type": "uint256"
        }
      ],
      "name": "transferFromSenderPaysFee",
      "outputs": [
        {
          "internalType": "bool",
          "name": "",
          "type": "bool"
        }
      ],
      "stateMutability": "nonpayable",
      "type": "function"
    },
    {
      "inputs": [
        {
          "internalType": "address",
          "name": "to",
          "type": "address"
        },
        {
          "internalType": "uint256",
          "name": "value",
          "type": "uint256"
        },
        {
          "internalType": "bytes",
          "name": "data",
          "type": "bytes"
        }
      ],
      "name": "transferSenderPaysFee",
      "outputs": [
        {
          "internalType": "bool",
          "name": "",
          "type": "bool"
        }
      ],
      "stateMutability": "nonpayable",
      "type": "function"
    },
    {
      "inputs": [
        {
          "internalType": "address",
          "name": "to",
          "type": "address"
        },
        {
          "internalType": "uint256",
          "name": "value",
          "type": "uint256"
        }
      ],
      "name": "transferSenderPaysFee",
      "outputs": [
        {
          "internalType": "bool",
          "name": "",
          "type": "bool"
        }
      ],
      "stateMutability": "nonpayable",
      "type": "function"
    },
    {
      "inputs": [
        {
          "internalType": "address",
          "name": "sender",
          "type": "address"
        },
        {
          "internalType": "address",
          "name": "recipient",
          "type": "address"
        },
        {
          "internalType": "uint256",
          "name": "amount",
          "type": "uint256"
        }
      ],
      "name": "triggerTokenFallbackIfNeeded",
      "outputs": [],
      "stateMutability": "nonpayable",
      "type": "function"
    }
  ],
  "bytecode": "0x60806040526005805460ff60a01b191690553480156200001e57600080fd5b5060405162003f7a38038062003f7a8339810160408190526200004191620006bf565b8787858560006012878681806001600160a01b038116620000a95760405162461bcd60e51b815260206004820152601960248201527f4f776e657220616464726573732063616e6e6f7420626520300000000000000060448201526064015b60405180910390fd5b600080546001600160a01b0319166001600160a01b03831690811782556040805192835260208301919091527fb532073b38c83145e3e5135377a08bf9aab55bc0fd7c1179cd4fb995d2a5159c910160405180910390a1506001600160a01b038116620001645760405162461bcd60e51b815260206004820152602260248201527f4f776e6572206d757374206e6f7420626520746865207a65726f206164647265604482015261737360f01b6064820152608401620000a0565b60038054610100600160a81b0319166101006001600160a01b038416908102919091179091556040519081527fd5da63a0b864b315bc04128dedbc93888c8529ee6cf47ce664dc204339228c539060200160405180910390a1506000546001600160a01b03166200020c5760405162461bcd60e51b815260206004820152601160248201527013dddb995c881b5d5cdd081899481cd95d607a1b6044820152606401620000a0565b600480546001600160a01b0319166001600160a01b0383169081179091556040519081527ffc80377ca9c49cc11ae6982f390a42db976d5530af7c43889264b13fbbd7c57e9060200160405180910390a150600680546001600160a01b0319166001600160a01b03881617905584516200028e90600790602088019062000548565b508351620002a490600890602087019062000548565b5050600991909155600a805460ff191660ff9092169190911790555050506001600160a01b0389169050620003115760405162461bcd60e51b815260206004820152601260248201527105f70726f78792063616e6e6f7420626520360741b6044820152606401620000a0565b6001600160a01b038616620003695760405162461bcd60e51b815260206004820152601660248201527f5f73796e7468657469782063616e6e6f742062652030000000000000000000006044820152606401620000a0565b6001600160a01b038516620003c15760405162461bcd60e51b815260206004820152601460248201527f5f666565506f6f6c2063616e6e6f7420626520300000000000000000000000006044820152606401620000a0565b6001600160a01b0382166200040e5760405162461bcd60e51b815260206004820152601260248201527105f6f776e65722063616e6e6f7420626520360741b6044820152606401620000a0565b604051632815c5ed60e11b81526001600160e01b0319821660048201526000906001600160a01b0388169063502b8bda9060240160206040518083038186803b1580156200045b57600080fd5b505afa15801562000470573d6000803e3d6000fd5b505050506040513d601f19601f82011682018060405250810190620004969190620007a4565b6001600160a01b031614620004ee5760405162461bcd60e51b815260206004820152601e60248201527f43757272656e6379206b657920697320616c726561647920696e2075736500006044820152606401620000a0565b600a80546001600160a01b0396871661010002610100600160a81b0319909116179055600b805460e09290921c600160a01b026001600160c01b031990921696909516959095179490941790925550620008369350505050565b8280546200055690620007ca565b90600052602060002090601f0160209004810192826200057a5760008555620005c5565b82601f106200059557805160ff1916838001178555620005c5565b82800160010185558215620005c5579182015b82811115620005c5578251825591602001919060010190620005a8565b50620005d3929150620005d7565b5090565b5b80821115620005d35760008155600101620005d8565b80516001600160e01b0319811681146200060757600080fd5b919050565b600082601f8301126200061d578081fd5b81516001600160401b03808211156200063a576200063a62000807565b604051601f8301601f19908116603f0116810190828211818310171562000665576200066562000807565b8160405283815260209250868385880101111562000681578485fd5b8491505b83821015620006a4578582018301518183018401529082019062000685565b83821115620006b557848385830101525b9695505050505050565b600080600080600080600080610100898b031215620006dc578384fd5b8851620006e9816200081d565b60208a0151909850620006fc816200081d565b60408a01519097506200070f816200081d565b60608a015190965062000722816200081d565b60808a01519095506001600160401b03808211156200073f578586fd5b6200074d8c838d016200060c565b955060a08b015191508082111562000763578485fd5b50620007728b828c016200060c565b93505060c089015162000785816200081d565b91506200079560e08a01620005ee565b90509295985092959890939650565b600060208284031215620007b6578081fd5b8151620007c3816200081d565b9392505050565b600181811c90821680620007df57607f821691505b602082108114156200080157634e487b7160e01b600052602260045260246000fd5b50919050565b634e487b7160e01b600052604160045260246000fd5b6001600160a01b03811681146200083357600080fd5b50565b61373480620008466000396000f3fe608060405234801561001057600080fd5b50600436106102535760003560e01c80639dc29fac11610146578063be45fd62116100c3578063e6fbf44111610087578063e6fbf4411461050a578063e90dd9e21461051d578063eb6ecc0314610530578063ec55688914610543578063f7ea7a3d14610556578063fec9f9da1461056957600080fd5b8063be45fd621461048c578063c58aaae61461049f578063d66c9cc2146104b7578063dbd06c85146104ca578063dd62ed3e146104f757600080fd5b8063ae2e933b1161010a578063ae2e933b14610439578063b4bede8514610451578063b8225dec14610464578063bc67f83214610471578063bd32aa441461048457600080fd5b80639dc29fac146103e35780639f769807146103f6578063a461fc8214610409578063a9059cbb14610413578063ab67aa581461042657600080fd5b80633c960be9116101d4578063867904b411610198578063867904b41461039a5780638da5cb5b146103ad57806395d89b41146103c057806397107d6d146103c85780639cb8a26a146103db57600080fd5b80633c960be91461032e57806353a47bb71461034157806370a082311461036c578063759b52251461037f57806379ba50971461039257600080fd5b806319db22281161021b57806319db2228146102ce57806320714f88146102e157806323b872dd146102f4578063313ce567146103075780633278c9601461032657600080fd5b806306fdde0314610258578063095ea7b3146102765780631627540c1461029957806317c70de4146102ae57806318160ddd146102c5575b600080fd5b61026061057c565b60405161026d91906134cb565b60405180910390f35b6102896102843660046132ce565b61060a565b604051901515815260200161026d565b6102ac6102a73660046131b4565b6106b4565b005b6102b760025481565b60405190815260200161026d565b6102b760095481565b6102ac6102dc3660046131b4565b61073c565b6102ac6102ef3660046131b4565b6107bd565b610289610302366004613224565b6108a4565b600a546103149060ff1681565b60405160ff909116815260200161026d565b6102ac610bb1565b61028961033c366004613264565b610c15565b600154610354906001600160a01b031681565b6040516001600160a01b03909116815260200161026d565b6102b761037a3660046131b4565b610f1d565b600b54610354906001600160a01b031681565b6102ac610fa1565b6102ac6103a83660046132ce565b61108b565b600054610354906001600160a01b031681565b6102606111ed565b6102ac6103d63660046131b4565b6111fa565b6102ac611272565b6102ac6103f13660046132ce565b6113c0565b6102ac6104043660046131b4565b61151c565b6102b76224ea0081565b6102896104213660046132ce565b611595565b610289610434366004613264565b6117bb565b600a546103549061010090046001600160a01b031681565b61028961045f3660046132f9565b611aba565b6003546102899060ff1681565b6102ac61047f3660046131b4565b611cd9565b6102ac611d63565b61028961049a3660046132f9565b611ddd565b6003546103549061010090046001600160a01b031681565b6102896104c53660046132ce565b612000565b600b546104de90600160a01b900460e01b81565b6040516001600160e01b0319909116815260200161026d565b6102b76105053660046131ec565b612218565b610289610518366004613224565b6122a5565b600654610354906001600160a01b031681565b6102ac61053e366004613224565b6125a4565b600454610354906001600160a01b031681565b6102ac610564366004613398565b6125fe565b6102ac6105773660046131b4565b612658565b6007805461058990613682565b80601f01602080910402602001604051908101604052809291908181526020018280546105b590613682565b80156106025780601f106105d757610100808354040283529160200191610602565b820191906000526020600020905b8154815290600101906020018083116105e557829003601f168201915b505050505081565b6004546000906001600160a01b0316331461063257600580546001600160a01b031916331790555b600554600654604051633691826360e21b81526001600160a01b03928316929091169063da46098c9061066d90849088908890600401613410565b600060405180830381600087803b15801561068757600080fd5b505af115801561069b573d6000803e3d6000fd5b505050506106aa8185856126d1565b5060019392505050565b6000546001600160a01b031633146106e75760405162461bcd60e51b81526004016106de9061358a565b60405180910390fd5b600180546001600160a01b0319166001600160a01b0383169081179091556040519081527f906a1c6bd7e3091ea86693dd029a831c19049ce77f1dce2ce0bab1cacbabce22906020015b60405180910390a150565b6004546001600160a01b0316331461076157600580546001600160a01b031916331790555b6000546005546001600160a01b039081169116146107915760405162461bcd60e51b81526004016106de906135d9565b600a8054610100600160a81b0319166101006001600160a01b038416021790556107ba81612798565b50565b6000546001600160a01b031633146107e75760405162461bcd60e51b81526004016106de9061358a565b6001600160a01b03811661084e5760405162461bcd60e51b815260206004820152602860248201527f42656e6566696369617279206d757374206e6f7420626520746865207a65726f604482015267206164647265737360c01b60648201526084016106de565b60038054610100600160a81b0319166101006001600160a01b038416908102919091179091556040519081527fd5da63a0b864b315bc04128dedbc93888c8529ee6cf47ce664dc204339228c5390602001610731565b6004546000906001600160a01b031633146108cc57600580546001600160a01b031916331790555b83600a60019054906101000a90046001600160a01b03166001600160a01b031663eb1edd616040518163ffffffff1660e01b815260040160206040518083038186803b15801561091b57600080fd5b505afa15801561092f573d6000803e3d6000fd5b505050506040513d601f19601f8201168201806040525081019061095391906131d0565b6001600160a01b0316816001600160a01b031614156109845760405162461bcd60e51b81526004016106de906134de565b600a5460405163b7fcfa6960e01b81526004810185905260009161010090046001600160a01b03169063b7fcfa699060240160206040518083038186803b1580156109ce57600080fd5b505afa1580156109e2573d6000803e3d6000fd5b505050506040513d601f19601f82011682018060405250810190610a0691906133b0565b90506000610a14828661363f565b600654600554604051636eb1769f60e11b81526001600160a01b038b811660048301529182166024820181905293945091169163da46098c918a91908990859063dd62ed3e9060440160206040518083038186803b158015610a7557600080fd5b505afa158015610a89573d6000803e3d6000fd5b505050506040513d601f19601f82011682018060405250810190610aad91906133b0565b610ab7919061363f565b6040518463ffffffff1660e01b8152600401610ad593929190613410565b600060405180830381600087803b158015610aef57600080fd5b505af1158015610b03573d6000803e3d6000fd5b5050600b54604051632f95d8d960e21b81526001600160a01b038216935063be5763649250610b44918b91600160a01b90910460e01b908690600401613434565b602060405180830381600087803b158015610b5e57600080fd5b505af1158015610b72573d6000803e3d6000fd5b505050506040513d601f19601f82011682018060405250810190610b969190613350565b506060610ba588888584612847565b98975050505050505050565b6000546001600160a01b03163314610bdb5760405162461bcd60e51b81526004016106de9061358a565b600060028190556003805460ff191690556040517f6adcc7125002935e0aa31697538ebbd65cfddf20431eb6ecdcfc3e238bfd082c9190a1565b6004546000906001600160a01b03163314610c3d57600580546001600160a01b031916331790555b84600a60019054906101000a90046001600160a01b03166001600160a01b031663eb1edd616040518163ffffffff1660e01b815260040160206040518083038186803b158015610c8c57600080fd5b505afa158015610ca0573d6000803e3d6000fd5b505050506040513d601f19601f82011682018060405250810190610cc491906131d0565b6001600160a01b0316816001600160a01b03161415610cf55760405162461bcd60e51b81526004016106de906134de565b600a54604051633691b9b160e21b81526004810186905260009161010090046001600160a01b03169063da46e6c49060240160206040518083038186803b158015610d3f57600080fd5b505afa158015610d53573d6000803e3d6000fd5b505050506040513d601f19601f82011682018060405250810190610d7791906133b0565b600654600554604051636eb1769f60e11b81526001600160a01b038b811660048301529182166024820181905293945091169163da46098c918a919085908a90869063dd62ed3e9060440160206040518083038186803b158015610dda57600080fd5b505afa158015610dee573d6000803e3d6000fd5b505050506040513d601f19601f82011682018060405250810190610e1291906133b0565b610e1c919061363f565b610e269190613627565b6040518463ffffffff1660e01b8152600401610e4493929190613410565b600060405180830381600087803b158015610e5e57600080fd5b505af1158015610e72573d6000803e3d6000fd5b5050600b54604051632f95d8d960e21b81526001600160a01b038216935063be5763649250610eb3918b91600160a01b90910460e01b908690600401613434565b602060405180830381600087803b158015610ecd57600080fd5b505af1158015610ee1573d6000803e3d6000fd5b505050506040513d601f19601f82011682018060405250810190610f059190613350565b50610f1287878787612847565b979650505050505050565b6006546040516370a0823160e01b81526001600160a01b03838116600483015260009216906370a082319060240160206040518083038186803b158015610f6357600080fd5b505afa158015610f77573d6000803e3d6000fd5b505050506040513d601f19601f82011682018060405250810190610f9b91906133b0565b92915050565b6001546001600160a01b031633146110195760405162461bcd60e51b815260206004820152603560248201527f596f75206d757374206265206e6f6d696e61746564206265666f726520796f7560448201527402063616e20616363657074206f776e65727368697605c1b60648201526084016106de565b600054600154604080516001600160a01b0393841681529290911660208301527fb532073b38c83145e3e5135377a08bf9aab55bc0fd7c1179cd4fb995d2a5159c910160405180910390a160018054600080546001600160a01b03199081166001600160a01b03841617909155169055565b600b54600a54336001600160a01b039283168114926101009092049091161481806110b35750805b6110cf5760405162461bcd60e51b81526004016106de9061352d565b6006546040516370a0823160e01b81526001600160a01b0386811660048301529091169063b46310f6908690869084906370a082319060240160206040518083038186803b15801561112057600080fd5b505afa158015611134573d6000803e3d6000fd5b505050506040513d601f19601f8201168201806040525081019061115891906133b0565b6111629190613627565b6040516001600160e01b031960e085901b1681526001600160a01b0390921660048301526024820152604401600060405180830381600087803b1580156111a857600080fd5b505af11580156111bc573d6000803e3d6000fd5b50505050826009546111ce9190613627565b6009556111dd60008585612a4f565b6111e78484612ab2565b50505050565b6008805461058990613682565b6000546001600160a01b031633146112245760405162461bcd60e51b81526004016106de9061358a565b600480546001600160a01b0319166001600160a01b0383169081179091556040519081527ffc80377ca9c49cc11ae6982f390a42db976d5530af7c43889264b13fbbd7c57e90602001610731565b6000546001600160a01b0316331461129c5760405162461bcd60e51b81526004016106de9061358a565b60035460ff166112ff5760405162461bcd60e51b815260206004820152602860248201527f53656c6620646573747275637420686173206e6f7420796574206265656e20696044820152671b9a5d1a585d195960c21b60648201526084016106de565b426224ea006002546113119190613627565b1061136e5760405162461bcd60e51b815260206004820152602760248201527f53656c662064657374727563742064656c617920686173206e6f742079657420604482015266195b185c1cd95960ca1b60648201526084016106de565b6003546040516101009091046001600160a01b0316808252907f8a09e1677ced846cb537dc2b172043bd05a1a81ad7e0033a7ef8ba762df990b79060200160405180910390a1806001600160a01b0316ff5b600b54600a54336001600160a01b039283168114926101009092049091161481806113e85750805b6114045760405162461bcd60e51b81526004016106de9061352d565b6006546040516370a0823160e01b81526001600160a01b0386811660048301529091169063b46310f6908690869084906370a082319060240160206040518083038186803b15801561145557600080fd5b505afa158015611469573d6000803e3d6000fd5b505050506040513d601f19601f8201168201806040525081019061148d91906133b0565b611497919061363f565b6040516001600160e01b031960e085901b1681526001600160a01b0390921660048301526024820152604401600060405180830381600087803b1580156114dd57600080fd5b505af11580156114f1573d6000803e3d6000fd5b5050505082600954611503919061363f565b60095561151284600085612a4f565b6111e78484612b67565b6004546001600160a01b0316331461154157600580546001600160a01b031916331790555b6000546005546001600160a01b039081169116146115715760405162461bcd60e51b81526004016106de906135d9565b600680546001600160a01b0319166001600160a01b0383161790556107ba81612bca565b6004546000906001600160a01b031633146115bd57600580546001600160a01b031916331790555b600554600a546040805163eb1edd6160e01b815290516001600160a01b03938416936101009093049092169163eb1edd6191600480820192602092909190829003018186803b15801561160f57600080fd5b505afa158015611623573d6000803e3d6000fd5b505050506040513d601f19601f8201168201806040525081019061164791906131d0565b6001600160a01b0316816001600160a01b031614156116785760405162461bcd60e51b81526004016106de906134de565b600a5460405163b7fcfa6960e01b81526004810185905260009161010090046001600160a01b03169063b7fcfa699060240160206040518083038186803b1580156116c257600080fd5b505afa1580156116d6573d6000803e3d6000fd5b505050506040513d601f19601f820116820180604052508101906116fa91906133b0565b90506000611708828661363f565b600b54600554604051632f95d8d960e21b81529293506001600160a01b038083169363be5763649361174d9390921691600160a01b900460e01b908690600401613434565b602060405180830381600087803b15801561176757600080fd5b505af115801561177b573d6000803e3d6000fd5b505050506040513d601f19601f8201168201806040525081019061179f9190613350565b50600554606090610f12906001600160a01b0316888584612847565b6004546000906001600160a01b031633146117e357600580546001600160a01b031916331790555b84600a60019054906101000a90046001600160a01b03166001600160a01b031663eb1edd616040518163ffffffff1660e01b815260040160206040518083038186803b15801561183257600080fd5b505afa158015611846573d6000803e3d6000fd5b505050506040513d601f19601f8201168201806040525081019061186a91906131d0565b6001600160a01b0316816001600160a01b0316141561189b5760405162461bcd60e51b81526004016106de906134de565b600a5460405163b7fcfa6960e01b81526004810186905260009161010090046001600160a01b03169063b7fcfa699060240160206040518083038186803b1580156118e557600080fd5b505afa1580156118f9573d6000803e3d6000fd5b505050506040513d601f19601f8201168201806040525081019061191d91906133b0565b9050600061192b828761363f565b600654600554604051636eb1769f60e11b81526001600160a01b038c811660048301529182166024820181905293945091169163da46098c918b91908a90859063dd62ed3e9060440160206040518083038186803b15801561198c57600080fd5b505afa1580156119a0573d6000803e3d6000fd5b505050506040513d601f19601f820116820180604052508101906119c491906133b0565b6119ce919061363f565b6040518463ffffffff1660e01b81526004016119ec93929190613410565b600060405180830381600087803b158015611a0657600080fd5b505af1158015611a1a573d6000803e3d6000fd5b5050600b54604051632f95d8d960e21b81526001600160a01b038216935063be5763649250611a5b918c91600160a01b90910460e01b908690600401613434565b602060405180830381600087803b158015611a7557600080fd5b505af1158015611a89573d6000803e3d6000fd5b505050506040513d601f19601f82011682018060405250810190611aad9190613350565b50610ba588888488612847565b6004546000906001600160a01b03163314611ae257600580546001600160a01b031916331790555b600554600a546040805163eb1edd6160e01b815290516001600160a01b03938416936101009093049092169163eb1edd6191600480820192602092909190829003018186803b158015611b3457600080fd5b505afa158015611b48573d6000803e3d6000fd5b505050506040513d601f19601f82011682018060405250810190611b6c91906131d0565b6001600160a01b0316816001600160a01b03161415611b9d5760405162461bcd60e51b81526004016106de906134de565b600a54604051633691b9b160e21b81526004810186905260009161010090046001600160a01b03169063da46e6c49060240160206040518083038186803b158015611be757600080fd5b505afa158015611bfb573d6000803e3d6000fd5b505050506040513d601f19601f82011682018060405250810190611c1f91906133b0565b600b54600554604051632f95d8d960e21b81529293506001600160a01b038083169363be57636493611c649390921691600160a01b900460e01b908690600401613434565b602060405180830381600087803b158015611c7e57600080fd5b505af1158015611c92573d6000803e3d6000fd5b505050506040513d601f19601f82011682018060405250810190611cb69190613350565b50600554611ccf906001600160a01b0316878787612847565b9695505050505050565b6004546001600160a01b03163314611d415760405162461bcd60e51b815260206004820152602560248201527f4f6e6c79207468652070726f78792063616e2063616c6c20746869732066756e60448201526431ba34b7b760d91b60648201526084016106de565b600580546001600160a01b0319166001600160a01b0392909216919091179055565b6000546001600160a01b03163314611d8d5760405162461bcd60e51b81526004016106de9061358a565b426002556003805460ff191660011790556040517fcbd94ca75b8dc45c9d80c77e851670e78843c0d75180cb81db3e2158228fa9a690611dd3906224ea00815260200190565b60405180910390a1565b6004546000906001600160a01b03163314611e0557600580546001600160a01b031916331790555b600554600a546040805163eb1edd6160e01b815290516001600160a01b03938416936101009093049092169163eb1edd6191600480820192602092909190829003018186803b158015611e5757600080fd5b505afa158015611e6b573d6000803e3d6000fd5b505050506040513d601f19601f82011682018060405250810190611e8f91906131d0565b6001600160a01b0316816001600160a01b03161415611ec05760405162461bcd60e51b81526004016106de906134de565b600a5460405163b7fcfa6960e01b81526004810186905260009161010090046001600160a01b03169063b7fcfa699060240160206040518083038186803b158015611f0a57600080fd5b505afa158015611f1e573d6000803e3d6000fd5b505050506040513d601f19601f82011682018060405250810190611f4291906133b0565b90506000611f50828761363f565b600b54600554604051632f95d8d960e21b81529293506001600160a01b038083169363be57636493611f959390921691600160a01b900460e01b908690600401613434565b602060405180830381600087803b158015611faf57600080fd5b505af1158015611fc3573d6000803e3d6000fd5b505050506040513d601f19601f82011682018060405250810190611fe79190613350565b50600554610f12906001600160a01b0316888488612847565b6004546000906001600160a01b0316331461202857600580546001600160a01b031916331790555b600554600a546040805163eb1edd6160e01b815290516001600160a01b03938416936101009093049092169163eb1edd6191600480820192602092909190829003018186803b15801561207a57600080fd5b505afa15801561208e573d6000803e3d6000fd5b505050506040513d601f19601f820116820180604052508101906120b291906131d0565b6001600160a01b0316816001600160a01b031614156120e35760405162461bcd60e51b81526004016106de906134de565b600a54604051633691b9b160e21b81526004810185905260009161010090046001600160a01b03169063da46e6c49060240160206040518083038186803b15801561212d57600080fd5b505afa158015612141573d6000803e3d6000fd5b505050506040513d601f19601f8201168201806040525081019061216591906133b0565b600b54600554604051632f95d8d960e21b81529293506001600160a01b038083169363be576364936121aa9390921691600160a01b900460e01b908690600401613434565b602060405180830381600087803b1580156121c457600080fd5b505af11580156121d8573d6000803e3d6000fd5b505050506040513d601f19601f820116820180604052508101906121fc9190613350565b50600554606090611ccf906001600160a01b0316878784612847565b600654604051636eb1769f60e11b81526001600160a01b0384811660048301528381166024830152600092169063dd62ed3e9060440160206040518083038186803b15801561226657600080fd5b505afa15801561227a573d6000803e3d6000fd5b505050506040513d601f19601f8201168201806040525081019061229e91906133b0565b9392505050565b6004546000906001600160a01b031633146122cd57600580546001600160a01b031916331790555b83600a60019054906101000a90046001600160a01b03166001600160a01b031663eb1edd616040518163ffffffff1660e01b815260040160206040518083038186803b15801561231c57600080fd5b505afa158015612330573d6000803e3d6000fd5b505050506040513d601f19601f8201168201806040525081019061235491906131d0565b6001600160a01b0316816001600160a01b031614156123855760405162461bcd60e51b81526004016106de906134de565b600a54604051633691b9b160e21b81526004810185905260009161010090046001600160a01b03169063da46e6c49060240160206040518083038186803b1580156123cf57600080fd5b505afa1580156123e3573d6000803e3d6000fd5b505050506040513d601f19601f8201168201806040525081019061240791906133b0565b600654600554604051636eb1769f60e11b81526001600160a01b038a811660048301529182166024820181905293945091169163da46098c9189919085908990869063dd62ed3e9060440160206040518083038186803b15801561246a57600080fd5b505afa15801561247e573d6000803e3d6000fd5b505050506040513d601f19601f820116820180604052508101906124a291906133b0565b6124ac919061363f565b6124b69190613627565b6040518463ffffffff1660e01b81526004016124d493929190613410565b600060405180830381600087803b1580156124ee57600080fd5b505af1158015612502573d6000803e3d6000fd5b5050600b54604051632f95d8d960e21b81526001600160a01b038216935063be5763649250612543918a91600160a01b90910460e01b908690600401613434565b602060405180830381600087803b15801561255d57600080fd5b505af1158015612571573d6000803e3d6000fd5b505050506040513d601f19601f820116820180604052508101906125959190613350565b506060610f1287878784612847565b600b54600a54336001600160a01b039283168114926101009092049091161481806125cc5750805b6125e85760405162461bcd60e51b81526004016106de9061352d565b60606125f686868684612c44565b505050505050565b6004546001600160a01b0316331461262357600580546001600160a01b031916331790555b6000546005546001600160a01b039081169116146126535760405162461bcd60e51b81526004016106de906135d9565b600955565b6004546001600160a01b0316331461267d57600580546001600160a01b031916331790555b6000546005546001600160a01b039081169116146126ad5760405162461bcd60e51b81526004016106de906135d9565b600b80546001600160a01b0319166001600160a01b0383161790556107ba81612d67565b60045460408051602081018490526001600160a01b039092169163907dff97910160405160208183030381529060405260037f8c5be1e5ebec7d5bd14f71427d1e84f3dd0314c0f7b2291e5b200ac8c7c3b925612734886001600160a01b031690565b6001600160a01b03881660006040518763ffffffff1660e01b81526004016127619695949392919061348f565b600060405180830381600087803b15801561277b57600080fd5b505af115801561278f573d6000803e3d6000fd5b50505050505050565b600454604080516001600160a01b0384811660208301529092169163907dff97910160405160208183030381529060405260017f6d1d088acfe4f30d6014f6f693c61c16258f9784a6ed8439b2c59213eecb629560008060006040518763ffffffff1660e01b81526004016128129695949392919061348f565b600060405180830381600087803b15801561282c57600080fd5b505af1158015612840573d6000803e3d6000fd5b5050505050565b600080600b60009054906101000a90046001600160a01b03166001600160a01b031663dbd4a4226040518163ffffffff1660e01b815260040160206040518083038186803b15801561289857600080fd5b505afa1580156128ac573d6000803e3d6000fd5b505050506040513d601f19601f820116820180604052508101906128d091906131d0565b604051636565128b60e11b81526001600160a01b038781166004830152919091169063caca25169060240160206040518083038186803b15801561291357600080fd5b505afa158015612927573d6000803e3d6000fd5b505050506040513d601f19601f8201168201806040525081019061294b9190613370565b90506001600160e01b031981161580159061297f5750600b546001600160e01b0319828116600160a01b90920460e01b1614155b15612a3b57600b54604051635f07669960e11b81526001600160a01b0388811660048301526001600160e01b0319600160a01b840460e01b81166024840152604483018890528416606483015287811660848301529091169063be0ecd329060a401602060405180830381600087803b1580156129fb57600080fd5b505af1158015612a0f573d6000803e3d6000fd5b505050506040513d601f19601f82011682018060405250810190612a339190613350565b915050612a47565b612a3386868686612de1565b949350505050565b60045460408051602081018490526001600160a01b039092169163907dff97910160405160208183030381529060405260037fddf252ad1be2c89b69c2b068fc378daa952ba7f163c4a11628f55a4df523b3ef612734886001600160a01b031690565b60045460408051602081018490526001600160a01b039092169163907dff97910160405160208183030381529060405260027fa59f12e354e8cd10bb74c559844c2dd69a5458e31fe56c7594c62ca57480509a612b15876001600160a01b031690565b6000806040518763ffffffff1660e01b8152600401612b399695949392919061348f565b600060405180830381600087803b158015612b5357600080fd5b505af11580156125f6573d6000803e3d6000fd5b60045460408051602081018490526001600160a01b039092169163907dff97910160405160208183030381529060405260027f696de425f79f4a40bc6d2122ca50507f0efbeabbff86a84871b7196ab8ea8df7612b15876001600160a01b031690565b600454604080516001600160a01b0384811660208301529092169163907dff97910160405160208183030381529060405260017fa538c4dcfe9fb148efee2952bafe34982d2d07d5fbb38ae5b44abf659a46bfd860008060006040518763ffffffff1660e01b81526004016128129695949392919061348f565b600554600160a01b900460ff1615612c9e5760405162461bcd60e51b815260206004820152601e60248201527f526576657274656420746f2070726576656e74207265656e7472616e6379000060448201526064016106de565b6005805460ff60a01b1916600160a01b179055823b8015612d5357836001600160a01b0316858484604051602401612cd89392919061345f565b60408051601f198184030181529181526020820180516001600160e01b031663607705c560e11b17905251612d0d91906133f4565b6000604051808303816000865af19150503d8060008114612d4a576040519150601f19603f3d011682016040523d82523d6000602084013e612d4f565b606091505b5050505b50506005805460ff60a01b19169055505050565b600454604080516001600160a01b0384811660208301529092169163907dff97910160405160208183030381529060405260017f46e9c68bd7831071bdd478f1ae4c4a52463961a9d620383a0a121dbfc0e0f06d60008060006040518763ffffffff1660e01b81526004016128129695949392919061348f565b60006001600160a01b038416612e395760405162461bcd60e51b815260206004820181905260248201527f43616e6e6f74207472616e7366657220746f207468652030206164647265737360448201526064016106de565b6001600160a01b038416301415612ea55760405162461bcd60e51b815260206004820152602a60248201527f43616e6e6f74207472616e7366657220746f2074686520756e6465726c79696e60448201526919c818dbdb9d1c9858dd60b21b60648201526084016106de565b6004546001600160a01b0385811691161415612f115760405162461bcd60e51b815260206004820152602560248201527f43616e6e6f74207472616e7366657220746f207468652070726f787920636f6e6044820152641d1c9858dd60da1b60648201526084016106de565b6006546040516370a0823160e01b81526001600160a01b0387811660048301529091169063b46310f6908790612fa490879085906370a082319060240160206040518083038186803b158015612f6657600080fd5b505afa158015612f7a573d6000803e3d6000fd5b505050506040513d601f19601f82011682018060405250810190612f9e91906133b0565b90613115565b6040516001600160e01b031960e085901b1681526001600160a01b0390921660048301526024820152604401600060405180830381600087803b158015612fea57600080fd5b505af1158015612ffe573d6000803e3d6000fd5b50506006546040516370a0823160e01b81526001600160a01b038881166004830152909116925063b46310f69150869061309590879085906370a082319060240160206040518083038186803b15801561305757600080fd5b505afa15801561306b573d6000803e3d6000fd5b505050506040513d601f19601f8201168201806040525081019061308f91906133b0565b90613121565b6040516001600160e01b031960e085901b1681526001600160a01b0390921660048301526024820152604401600060405180830381600087803b1580156130db57600080fd5b505af11580156130ef573d6000803e3d6000fd5b505050506130ff85858585612c44565b61310a858585612a4f565b506001949350505050565b600061229e828461363f565b600061229e8284613627565b600082601f83011261313d578081fd5b813567ffffffffffffffff80821115613158576131586136d3565b604051601f8301601f19908116603f01168101908282118183101715613180576131806136d3565b81604052838152866020858801011115613198578485fd5b8360208701602083013792830160200193909352509392505050565b6000602082840312156131c5578081fd5b813561229e816136e9565b6000602082840312156131e1578081fd5b815161229e816136e9565b600080604083850312156131fe578081fd5b8235613209816136e9565b91506020830135613219816136e9565b809150509250929050565b600080600060608486031215613238578081fd5b8335613243816136e9565b92506020840135613253816136e9565b929592945050506040919091013590565b60008060008060808587031215613279578081fd5b8435613284816136e9565b93506020850135613294816136e9565b925060408501359150606085013567ffffffffffffffff8111156132b6578182fd5b6132c28782880161312d565b91505092959194509250565b600080604083850312156132e0578182fd5b82356132eb816136e9565b946020939093013593505050565b60008060006060848603121561330d578283fd5b8335613318816136e9565b925060208401359150604084013567ffffffffffffffff81111561333a578182fd5b6133468682870161312d565b9150509250925092565b600060208284031215613361578081fd5b8151801515811461229e578182fd5b600060208284031215613381578081fd5b81516001600160e01b03198116811461229e578182fd5b6000602082840312156133a9578081fd5b5035919050565b6000602082840312156133c1578081fd5b5051919050565b600081518084526133e0816020860160208601613656565b601f01601f19169290920160200192915050565b60008251613406818460208701613656565b9190910192915050565b6001600160a01b039384168152919092166020820152604081019190915260600190565b6001600160a01b039390931683526001600160e01b0319919091166020830152604082015260600190565b60018060a01b038416815282602082015260606040820152600061348660608301846133c8565b95945050505050565b60c0815260006134a260c08301896133c8565b60208301979097525060408101949094526060840192909252608083015260a090910152919050565b60208152600061229e60208301846133c8565b6020808252602f908201527f43616e6e6f7420706572666f726d207468697320616374696f6e20776974682060408201526e74686520666565206164647265737360881b606082015260800190565b6020808252603f908201527f4f6e6c79207468652053796e746865746978206f7220466565506f6f6c20636f60408201527f6e7472616374732063616e20706572666f726d207468697320616374696f6e00606082015260800190565b6020808252602f908201527f4f6e6c792074686520636f6e7472616374206f776e6572206d6179207065726660408201526e37b936903a3434b99030b1ba34b7b760891b606082015260800190565b6020808252602e908201527f5468697320616374696f6e2063616e206f6e6c7920626520706572666f726d6560408201526d3210313c903a34329037bbb732b960911b606082015260800190565b6000821982111561363a5761363a6136bd565b500190565b600082821015613651576136516136bd565b500390565b60005b83811015613671578181015183820152602001613659565b838111156111e75750506000910152565b600181811c9082168061369657607f821691505b602082108114156136b757634e487b7160e01b600052602260045260246000fd5b50919050565b634e487b7160e01b600052601160045260246000fd5b634e487b7160e01b600052604160045260246000fd5b6001600160a01b03811681146107ba57600080fdfea26469706673582212200f7c732a8190bf96ff33f1c1f237e4838bb17326812fd9e0a7d4aec5efd4959b64736f6c63430008040033",
  "linkReferences": {},
  "deployedLinkReferences": {}
}