{
  "_format": "hh-sol-artifact-1",
  "contractName": "Synth",
  "sourceName": "contracts/Synth.sol",
  "abi": [
    {
      "inputs": [
        {
          "internalType": "address",
          "name": "_proxy",
          "type": "address"
        },
        {
          "internalType": "contract TokenState",
          "name": "_tokenState",
          "type": "address"
        },
        {
          "internalType": "contract Synthetix",
          "name": "_synthetix",
          "type": "address"
        },
        {
          "internalType": "contract IFeePool",
          "name": "_feePool",
          "type": "address"
        },
        {
          "internalType": "string",
          "name": "_tokenName",
          "type": "string"
        },
        {
          "internalType": "string",
          "name": "_tokenSymbol",
          "type": "string"
        },
        {
          "internalType": "address",
          "name": "_owner",
          "type": "address"
        },
        {
          "internalType": "bytes4",
          "name": "_currencyKey",
          "type": "bytes4"
        }
      ],
      "stateMutability": "nonpayable",
      "type": "constructor"
    },
    {
      "anonymous": false,
      "inputs": [
        {
          "indexed": true,
          "internalType": "address",
          "name": "owner",
          "type": "address"
        },
        {
          "indexed": true,
          "internalType": "address",
          "name": "spender",
          "type": "address"
        },
        {
          "indexed": false,
          "internalType": "uint256",
          "name": "value",
          "type": "uint256"
        }
      ],
      "name": "Approval",
      "type": "event"
    },
    {
      "anonymous": false,
      "inputs": [
        {
          "indexed": true,
          "internalType": "address",
          "name": "account",
          "type": "address"
        },
        {
          "indexed": false,
          "internalType": "uint256",
          "name": "value",
          "type": "uint256"
        }
      ],
      "name": "Burned",
      "type": "event"
    },
    {
      "anonymous": false,
      "inputs": [
        {
          "indexed": false,
          "internalType": "address",
          "name": "newFeePool",
          "type": "address"
        }
      ],
      "name": "FeePoolUpdated",
      "type": "event"
    },
    {
      "anonymous": false,
      "inputs": [
        {
          "indexed": true,
          "internalType": "address",
          "name": "account",
          "type": "address"
        },
        {
          "indexed": false,
          "internalType": "uint256",
          "name": "value",
          "type": "uint256"
        }
      ],
      "name": "Issued",
      "type": "event"
    },
    {
      "anonymous": false,
      "inputs": [
        {
          "indexed": false,
          "internalType": "address",
          "name": "oldOwner",
          "type": "address"
        },
        {
          "indexed": false,
          "internalType": "address",
          "name": "newOwner",
          "type": "address"
        }
      ],
      "name": "OwnerChanged",
      "type": "event"
    },
    {
      "anonymous": false,
      "inputs": [
        {
          "indexed": false,
          "internalType": "address",
          "name": "newOwner",
          "type": "address"
        }
      ],
      "name": "OwnerNominated",
      "type": "event"
    },
    {
      "anonymous": false,
      "inputs": [
        {
          "indexed": false,
          "internalType": "address",
          "name": "proxyAddress",
          "type": "address"
        }
      ],
      "name": "ProxyUpdated",
      "type": "event"
    },
    {
      "anonymous": false,
      "inputs": [
        {
          "indexed": false,
          "internalType": "address",
          "name": "newBeneficiary",
          "type": "address"
        }
      ],
      "name": "SelfDestructBeneficiaryUpdated",
      "type": "event"
    },
    {
      "anonymous": false,
      "inputs": [
        {
          "indexed": false,
          "internalType": "uint256",
          "name": "selfDestructDelay",
          "type": "uint256"
        }
      ],
      "name": "SelfDestructInitiated",
      "type": "event"
    },
    {
      "anonymous": false,
      "inputs": [],
      "name": "SelfDestructTerminated",
      "type": "event"
    },
    {
      "anonymous": false,
      "inputs": [
        {
          "indexed": false,
          "internalType": "address",
          "name": "beneficiary",
          "type": "address"
        }
      ],
      "name": "SelfDestructed",
      "type": "event"
    },
    {
      "anonymous": false,
      "inputs": [
        {
          "indexed": false,
          "internalType": "address",
          "name": "newSynthetix",
          "type": "address"
        }
      ],
      "name": "SynthetixUpdated",
      "type": "event"
    },
    {
      "anonymous": false,
      "inputs": [
        {
          "indexed": false,
          "internalType": "address",
          "name": "newTokenState",
          "type": "address"
        }
      ],
      "name": "TokenStateUpdated",
      "type": "event"
    },
    {
      "anonymous": false,
      "inputs": [
        {
          "indexed": true,
          "internalType": "address",
          "name": "from",
          "type": "address"
        },
        {
          "indexed": true,
          "internalType": "address",
          "name": "to",
          "type": "address"
        },
        {
          "indexed": false,
          "internalType": "uint256",
          "name": "value",
          "type": "uint256"
        }
      ],
      "name": "Transfer",
      "type": "event"
    },
    {
      "inputs": [],
      "name": "SELFDESTRUCT_DELAY",
      "outputs": [
        {
          "internalType": "uint256",
          "name": "",
          "type": "uint256"
        }
      ],
      "stateMutability": "view",
      "type": "function"
    },
    {
      "inputs": [],
      "name": "acceptOwnership",
      "outputs": [],
      "stateMutability": "nonpayable",
      "type": "function"
    },
    {
      "inputs": [
        {
          "internalType": "address",
          "name": "owner",
          "type": "address"
        },
        {
          "internalType": "address",
          "name": "spender",
          "type": "address"
        }
      ],
      "name": "allowance",
      "outputs": [
        {
          "internalType": "uint256",
          "name": "",
          "type": "uint256"
        }
      ],
      "stateMutability": "view",
      "type": "function"
    },
    {
      "inputs": [
        {
          "internalType": "address",
          "name": "spender",
          "type": "address"
        },
        {
          "internalType": "uint256",
          "name": "value",
          "type": "uint256"
        }
      ],
      "name": "approve",
      "outputs": [
        {
          "internalType": "bool",
          "name": "",
          "type": "bool"
        }
      ],
      "stateMutability": "nonpayable",
      "type": "function"
    },
    {
      "inputs": [
        {
          "internalType": "address",
          "name": "account",
          "type": "address"
        }
      ],
      "name": "balanceOf",
      "outputs": [
        {
          "internalType": "uint256",
          "name": "",
          "type": "uint256"
        }
      ],
      "stateMutability": "view",
      "type": "function"
    },
    {
      "inputs": [
        {
          "internalType": "address",
          "name": "account",
          "type": "address"
        },
        {
          "internalType": "uint256",
          "name": "amount",
          "type": "uint256"
        }
      ],
      "name": "burn",
      "outputs": [],
      "stateMutability": "nonpayable",
      "type": "function"
    },
    {
      "inputs": [],
      "name": "currencyKey",
      "outputs": [
        {
          "internalType": "bytes4",
          "name": "",
          "type": "bytes4"
        }
      ],
      "stateMutability": "view",
      "type": "function"
    },
    {
      "inputs": [],
      "name": "decimals",
      "outputs": [
        {
          "internalType": "uint8",
          "name": "",
          "type": "uint8"
        }
      ],
      "stateMutability": "view",
      "type": "function"
    },
    {
      "inputs": [],
      "name": "feePool",
      "outputs": [
        {
          "internalType": "contract IFeePool",
          "name": "",
          "type": "address"
        }
      ],
      "stateMutability": "view",
      "type": "function"
    },
    {
      "inputs": [],
      "name": "initiateSelfDestruct",
      "outputs": [],
      "stateMutability": "nonpayable",
      "type": "function"
    },
    {
      "inputs": [],
      "name": "initiationTime",
      "outputs": [
        {
          "internalType": "uint256",
          "name": "",
          "type": "uint256"
        }
      ],
      "stateMutability": "view",
      "type": "function"
    },
    {
      "inputs": [
        {
          "internalType": "address",
          "name": "account",
          "type": "address"
        },
        {
          "internalType": "uint256",
          "name": "amount",
          "type": "uint256"
        }
      ],
      "name": "issue",
      "outputs": [],
      "stateMutability": "nonpayable",
      "type": "function"
    },
    {
      "inputs": [],
      "name": "name",
      "outputs": [
        {
          "internalType": "string",
          "name": "",
          "type": "string"
        }
      ],
      "stateMutability": "view",
      "type": "function"
    },
    {
      "inputs": [
        {
          "internalType": "address",
          "name": "_owner",
          "type": "address"
        }
      ],
      "name": "nominateNewOwner",
      "outputs": [],
      "stateMutability": "nonpayable",
      "type": "function"
    },
    {
      "inputs": [],
      "name": "nominatedOwner",
      "outputs": [
        {
          "internalType": "address",
          "name": "",
          "type": "address"
        }
      ],
      "stateMutability": "view",
      "type": "function"
    },
    {
      "inputs": [],
      "name": "owner",
      "outputs": [
        {
          "internalType": "address",
          "name": "",
          "type": "address"
        }
      ],
      "stateMutability": "view",
      "type": "function"
    },
    {
      "inputs": [],
      "name": "proxy",
      "outputs": [
        {
          "internalType": "contract Proxy",
          "name": "",
          "type": "address"
        }
      ],
      "stateMutability": "view",
      "type": "function"
    },
    {
      "inputs": [],
      "name": "selfDestruct",
      "outputs": [],
      "stateMutability": "nonpayable",
      "type": "function"
    },
    {
      "inputs": [],
      "name": "selfDestructBeneficiary",
      "outputs": [
        {
          "internalType": "address",
          "name": "",
          "type": "address"
        }
      ],
      "stateMutability": "view",
      "type": "function"
    },
    {
      "inputs": [],
      "name": "selfDestructInitiated",
      "outputs": [
        {
          "internalType": "bool",
          "name": "",
          "type": "bool"
        }
      ],
      "stateMutability": "view",
      "type": "function"
    },
    {
      "inputs": [
        {
          "internalType": "contract IFeePool",
          "name": "_feePool",
          "type": "address"
        }
      ],
      "name": "setFeePool",
      "outputs": [],
      "stateMutability": "nonpayable",
      "type": "function"
    },
    {
      "inputs": [
        {
          "internalType": "address",
          "name": "sender",
          "type": "address"
        }
      ],
      "name": "setMessageSender",
      "outputs": [],
      "stateMutability": "nonpayable",
      "type": "function"
    },
    {
      "inputs": [
        {
          "internalType": "address payable",
          "name": "_proxy",
          "type": "address"
        }
      ],
      "name": "setProxy",
      "outputs": [],
      "stateMutability": "nonpayable",
      "type": "function"
    },
    {
      "inputs": [
        {
          "internalType": "address",
          "name": "_beneficiary",
          "type": "address"
        }
      ],
      "name": "setSelfDestructBeneficiary",
      "outputs": [],
      "stateMutability": "nonpayable",
      "type": "function"
    },
    {
      "inputs": [
        {
          "internalType": "contract Synthetix",
          "name": "_synthetix",
          "type": "address"
        }
      ],
      "name": "setSynthetix",
      "outputs": [],
      "stateMutability": "nonpayable",
      "type": "function"
    },
    {
      "inputs": [
        {
          "internalType": "contract TokenState",
          "name": "_tokenState",
          "type": "address"
        }
      ],
      "name": "setTokenState",
      "outputs": [],
      "stateMutability": "nonpayable",
      "type": "function"
    },
    {
      "inputs": [
        {
          "internalType": "uint256",
          "name": "amount",
          "type": "uint256"
        }
      ],
      "name": "setTotalSupply",
      "outputs": [],
      "stateMutability": "nonpayable",
      "type": "function"
    },
    {
      "inputs": [],
      "name": "symbol",
      "outputs": [
        {
          "internalType": "string",
          "name": "",
          "type": "string"
        }
      ],
      "stateMutability": "view",
      "type": "function"
    },
    {
      "inputs": [],
      "name": "synthetix",
      "outputs": [
        {
          "internalType": "contract Synthetix",
          "name": "",
          "type": "address"
        }
      ],
      "stateMutability": "view",
      "type": "function"
    },
    {
      "inputs": [],
      "name": "terminateSelfDestruct",
      "outputs": [],
      "stateMutability": "nonpayable",
      "type": "function"
    },
    {
      "inputs": [],
      "name": "tokenState",
      "outputs": [
        {
          "internalType": "contract TokenState",
          "name": "",
          "type": "address"
        }
      ],
      "stateMutability": "view",
      "type": "function"
    },
    {
      "inputs": [],
      "name": "totalSupply",
      "outputs": [
        {
          "internalType": "uint256",
          "name": "",
          "type": "uint256"
        }
      ],
      "stateMutability": "view",
      "type": "function"
    },
    {
      "inputs": [
        {
          "internalType": "address",
          "name": "to",
          "type": "address"
        },
        {
          "internalType": "uint256",
          "name": "value",
          "type": "uint256"
        }
      ],
      "name": "transfer",
      "outputs": [
        {
          "internalType": "bool",
          "name": "",
          "type": "bool"
        }
      ],
      "stateMutability": "nonpayable",
      "type": "function"
    },
    {
      "inputs": [
        {
          "internalType": "address",
          "name": "to",
          "type": "address"
        },
        {
          "internalType": "uint256",
          "name": "value",
          "type": "uint256"
        },
        {
          "internalType": "bytes",
          "name": "data",
          "type": "bytes"
        }
      ],
      "name": "transfer",
      "outputs": [
        {
          "internalType": "bool",
          "name": "",
          "type": "bool"
        }
      ],
      "stateMutability": "nonpayable",
      "type": "function"
    },
    {
      "inputs": [
        {
          "internalType": "address",
          "name": "from",
          "type": "address"
        },
        {
          "internalType": "address",
          "name": "to",
          "type": "address"
        },
        {
          "internalType": "uint256",
          "name": "value",
          "type": "uint256"
        }
      ],
      "name": "transferFrom",
      "outputs": [
        {
          "internalType": "bool",
          "name": "",
          "type": "bool"
        }
      ],
      "stateMutability": "nonpayable",
      "type": "function"
    },
    {
      "inputs": [
        {
          "internalType": "address",
          "name": "from",
          "type": "address"
        },
        {
          "internalType": "address",
          "name": "to",
          "type": "address"
        },
        {
          "internalType": "uint256",
          "name": "value",
          "type": "uint256"
        },
        {
          "internalType": "bytes",
          "name": "data",
          "type": "bytes"
        }
      ],
      "name": "transferFrom",
      "outputs": [
        {
          "internalType": "bool",
          "name": "",
          "type": "bool"
        }
      ],
      "stateMutability": "nonpayable",
      "type": "function"
    },
    {
      "inputs": [
        {
          "internalType": "address",
          "name": "from",
          "type": "address"
        },
        {
          "internalType": "address",
          "name": "to",
          "type": "address"
        },
        {
          "internalType": "uint256",
          "name": "value",
          "type": "uint256"
        },
        {
          "internalType": "bytes",
          "name": "data",
          "type": "bytes"
        }
      ],
      "name": "transferFromSenderPaysFee",
      "outputs": [
        {
          "internalType": "bool",
          "name": "",
          "type": "bool"
        }
      ],
      "stateMutability": "nonpayable",
      "type": "function"
    },
    {
      "inputs": [
        {
          "internalType": "address",
          "name": "from",
          "type": "address"
        },
        {
          "internalType": "address",
          "name": "to",
          "type": "address"
        },
        {
          "internalType": "uint256",
          "name": "value",
          "type": "uint256"
        }
      ],
      "name": "transferFromSenderPaysFee",
      "outputs": [
        {
          "internalType": "bool",
          "name": "",
          "type": "bool"
        }
      ],
      "stateMutability": "nonpayable",
      "type": "function"
    },
    {
      "inputs": [
        {
          "internalType": "address",
          "name": "to",
          "type": "address"
        },
        {
          "internalType": "uint256",
          "name": "value",
          "type": "uint256"
        },
        {
          "internalType": "bytes",
          "name": "data",
          "type": "bytes"
        }
      ],
      "name": "transferSenderPaysFee",
      "outputs": [
        {
          "internalType": "bool",
          "name": "",
          "type": "bool"
        }
      ],
      "stateMutability": "nonpayable",
      "type": "function"
    },
    {
      "inputs": [
        {
          "internalType": "address",
          "name": "to",
          "type": "address"
        },
        {
          "internalType": "uint256",
          "name": "value",
          "type": "uint256"
        }
      ],
      "name": "transferSenderPaysFee",
      "outputs": [
        {
          "internalType": "bool",
          "name": "",
          "type": "bool"
        }
      ],
      "stateMutability": "nonpayable",
      "type": "function"
    },
    {
      "inputs": [
        {
          "internalType": "address",
          "name": "sender",
          "type": "address"
        },
        {
          "internalType": "address",
          "name": "recipient",
          "type": "address"
        },
        {
          "internalType": "uint256",
          "name": "amount",
          "type": "uint256"
        }
      ],
      "name": "triggerTokenFallbackIfNeeded",
      "outputs": [],
      "stateMutability": "nonpayable",
      "type": "function"
    }
  ],
  "bytecode": "0x60806040526000600560146101000a81548160ff0219169083151502179055503480156200002c57600080fd5b5060405162007b0a38038062007b0a83398181016040528101906200005291906200090c565b878785856000601287868180600073ffffffffffffffffffffffffffffffffffffffff168173ffffffffffffffffffffffffffffffffffffffff161415620000d1576040517f08c379a0000000000000000000000000000000000000000000000000000000008152600401620000c89062000d0a565b60405180910390fd5b806000806101000a81548173ffffffffffffffffffffffffffffffffffffffff021916908373ffffffffffffffffffffffffffffffffffffffff1602179055507fb532073b38c83145e3e5135377a08bf9aab55bc0fd7c1179cd4fb995d2a5159c6000826040516200014592919062000bd2565b60405180910390a150600073ffffffffffffffffffffffffffffffffffffffff168173ffffffffffffffffffffffffffffffffffffffff161415620001c1576040517f08c379a0000000000000000000000000000000000000000000000000000000008152600401620001b89062000cc6565b60405180910390fd5b80600360016101000a81548173ffffffffffffffffffffffffffffffffffffffff021916908373ffffffffffffffffffffffffffffffffffffffff1602179055507fd5da63a0b864b315bc04128dedbc93888c8529ee6cf47ce664dc204339228c538160405162000233919062000b98565b60405180910390a150600073ffffffffffffffffffffffffffffffffffffffff1660008054906101000a900473ffffffffffffffffffffffffffffffffffffffff1673ffffffffffffffffffffffffffffffffffffffff161415620002cf576040517f08c379a0000000000000000000000000000000000000000000000000000000008152600401620002c69062000ce8565b60405180910390fd5b80600460006101000a81548173ffffffffffffffffffffffffffffffffffffffff021916908373ffffffffffffffffffffffffffffffffffffffff1602179055507ffc80377ca9c49cc11ae6982f390a42db976d5530af7c43889264b13fbbd7c57e8160405162000341919062000bb5565b60405180910390a15085600660006101000a81548173ffffffffffffffffffffffffffffffffffffffff021916908373ffffffffffffffffffffffffffffffffffffffff1602179055508460079080519060200190620003a392919062000760565b508360089080519060200190620003bc92919062000760565b508260098190555081600a60006101000a81548160ff021916908360ff16021790555050505050505050600073ffffffffffffffffffffffffffffffffffffffff168873ffffffffffffffffffffffffffffffffffffffff16141562000459576040517f08c379a0000000000000000000000000000000000000000000000000000000008152600401620004509062000c1c565b60405180910390fd5b600073ffffffffffffffffffffffffffffffffffffffff168673ffffffffffffffffffffffffffffffffffffffff161415620004cc576040517f08c379a0000000000000000000000000000000000000000000000000000000008152600401620004c39062000c3e565b60405180910390fd5b600073ffffffffffffffffffffffffffffffffffffffff168573ffffffffffffffffffffffffffffffffffffffff1614156200053f576040517f08c379a0000000000000000000000000000000000000000000000000000000008152600401620005369062000ca4565b60405180910390fd5b600073ffffffffffffffffffffffffffffffffffffffff168273ffffffffffffffffffffffffffffffffffffffff161415620005b2576040517f08c379a0000000000000000000000000000000000000000000000000000000008152600401620005a99062000c60565b60405180910390fd5b600073ffffffffffffffffffffffffffffffffffffffff168673ffffffffffffffffffffffffffffffffffffffff1663502b8bda836040518263ffffffff1660e01b815260040162000605919062000bff565b60206040518083038186803b1580156200061e57600080fd5b505afa15801562000633573d6000803e3d6000fd5b505050506040513d601f19601f8201168201806040525081019062000659919062000a01565b73ffffffffffffffffffffffffffffffffffffffff1614620006b2576040517f08c379a0000000000000000000000000000000000000000000000000000000008152600401620006a99062000c82565b60405180910390fd5b84600a60016101000a81548173ffffffffffffffffffffffffffffffffffffffff021916908373ffffffffffffffffffffffffffffffffffffffff16021790555085600b60006101000a81548173ffffffffffffffffffffffffffffffffffffffff021916908373ffffffffffffffffffffffffffffffffffffffff16021790555080600b60146101000a81548163ffffffff021916908360e01c02179055505050505050505050620011a3565b8280546200076e9062000ebe565b90600052602060002090601f016020900481019282620007925760008555620007de565b82601f10620007ad57805160ff1916838001178555620007de565b82800160010185558215620007de579182015b82811115620007dd578251825591602001919060010190620007c0565b5b509050620007ed9190620007f1565b5090565b5b808211156200080c576000816000905550600101620007f2565b5090565b600062000827620008218462000d55565b62000d2c565b9050828152602081018484840111156200084057600080fd5b6200084d84828562000e88565b509392505050565b600081519050620008668162001107565b92915050565b6000815190506200087d8162001121565b92915050565b60008151905062000894816200113b565b92915050565b600081519050620008ab8162001155565b92915050565b600081519050620008c2816200116f565b92915050565b600081519050620008d98162001189565b92915050565b600082601f830112620008f157600080fd5b81516200090384826020860162000810565b91505092915050565b600080600080600080600080610100898b0312156200092a57600080fd5b60006200093a8b828c0162000855565b98505060206200094d8b828c01620008c8565b9750506040620009608b828c01620008b1565b9650506060620009738b828c0162000883565b955050608089015167ffffffffffffffff8111156200099157600080fd5b6200099f8b828c01620008df565b94505060a089015167ffffffffffffffff811115620009bd57600080fd5b620009cb8b828c01620008df565b93505060c0620009de8b828c0162000855565b92505060e0620009f18b828c016200086c565b9150509295985092959890939650565b60006020828403121562000a1457600080fd5b600062000a24848285016200089a565b91505092915050565b62000a388162000e4c565b82525050565b62000a498162000d9c565b82525050565b62000a5a8162000db0565b82525050565b600062000a6f60128362000d8b565b915062000a7c8262000f99565b602082019050919050565b600062000a9660168362000d8b565b915062000aa38262000fc2565b602082019050919050565b600062000abd60128362000d8b565b915062000aca8262000feb565b602082019050919050565b600062000ae4601e8362000d8b565b915062000af18262001014565b602082019050919050565b600062000b0b60148362000d8b565b915062000b18826200103d565b602082019050919050565b600062000b3260228362000d8b565b915062000b3f8262001066565b604082019050919050565b600062000b5960118362000d8b565b915062000b6682620010b5565b602082019050919050565b600062000b8060198362000d8b565b915062000b8d82620010de565b602082019050919050565b600060208201905062000baf600083018462000a3e565b92915050565b600060208201905062000bcc600083018462000a2d565b92915050565b600060408201905062000be9600083018562000a3e565b62000bf8602083018462000a3e565b9392505050565b600060208201905062000c16600083018462000a4f565b92915050565b6000602082019050818103600083015262000c378162000a60565b9050919050565b6000602082019050818103600083015262000c598162000a87565b9050919050565b6000602082019050818103600083015262000c7b8162000aae565b9050919050565b6000602082019050818103600083015262000c9d8162000ad5565b9050919050565b6000602082019050818103600083015262000cbf8162000afc565b9050919050565b6000602082019050818103600083015262000ce18162000b23565b9050919050565b6000602082019050818103600083015262000d038162000b4a565b9050919050565b6000602082019050818103600083015262000d258162000b71565b9050919050565b600062000d3862000d4b565b905062000d46828262000ef4565b919050565b6000604051905090565b600067ffffffffffffffff82111562000d735762000d7262000f59565b5b62000d7e8262000f88565b9050602081019050919050565b600082825260208201905092915050565b600062000da98262000e2c565b9050919050565b60007fffffffff0000000000000000000000000000000000000000000000000000000082169050919050565b600062000de98262000d9c565b9050919050565b600062000dfd8262000d9c565b9050919050565b600062000e118262000d9c565b9050919050565b600062000e258262000d9c565b9050919050565b600073ffffffffffffffffffffffffffffffffffffffff82169050919050565b600062000e598262000e60565b9050919050565b600062000e6d8262000e74565b9050919050565b600062000e818262000e2c565b9050919050565b60005b8381101562000ea857808201518184015260208101905062000e8b565b8381111562000eb8576000848401525b50505050565b6000600282049050600182168062000ed757607f821691505b6020821081141562000eee5762000eed62000f2a565b5b50919050565b62000eff8262000f88565b810181811067ffffffffffffffff8211171562000f215762000f2062000f59565b5b80604052505050565b7f4e487b7100000000000000000000000000000000000000000000000000000000600052602260045260246000fd5b7f4e487b7100000000000000000000000000000000000000000000000000000000600052604160045260246000fd5b6000601f19601f8301169050919050565b7f5f70726f78792063616e6e6f7420626520300000000000000000000000000000600082015250565b7f5f73796e7468657469782063616e6e6f74206265203000000000000000000000600082015250565b7f5f6f776e65722063616e6e6f7420626520300000000000000000000000000000600082015250565b7f43757272656e6379206b657920697320616c726561647920696e207573650000600082015250565b7f5f666565506f6f6c2063616e6e6f742062652030000000000000000000000000600082015250565b7f4f776e6572206d757374206e6f7420626520746865207a65726f20616464726560008201527f7373000000000000000000000000000000000000000000000000000000000000602082015250565b7f4f776e6572206d75737420626520736574000000000000000000000000000000600082015250565b7f4f776e657220616464726573732063616e6e6f74206265203000000000000000600082015250565b620011128162000d9c565b81146200111e57600080fd5b50565b6200112c8162000db0565b81146200113857600080fd5b50565b620011468162000ddc565b81146200115257600080fd5b50565b620011608162000df0565b81146200116c57600080fd5b50565b6200117a8162000e04565b81146200118657600080fd5b50565b620011948162000e18565b8114620011a057600080fd5b50565b61695780620011b36000396000f3fe608060405234801561001057600080fd5b50600436106102535760003560e01c80639dc29fac11610146578063be45fd62116100c3578063e6fbf44111610087578063e6fbf441146106c6578063e90dd9e2146106f6578063eb6ecc0314610714578063ec55688914610730578063f7ea7a3d1461074e578063fec9f9da1461076a57610253565b8063be45fd62146105fa578063c58aaae61461062a578063d66c9cc214610648578063dbd06c8514610678578063dd62ed3e1461069657610253565b8063ae2e933b1161010a578063ae2e933b14610568578063b4bede8514610586578063b8225dec146105b6578063bc67f832146105d4578063bd32aa44146105f057610253565b80639dc29fac146104b25780639f769807146104ce578063a461fc82146104ea578063a9059cbb14610508578063ab67aa581461053857610253565b80633c960be9116101d4578063867904b411610198578063867904b4146104345780638da5cb5b1461045057806395d89b411461046e57806397107d6d1461048c5780639cb8a26a146104a857610253565b80633c960be91461038e57806353a47bb7146103be57806370a08231146103dc578063759b52251461040c57806379ba50971461042a57610253565b806319db22281161021b57806319db2228146102fe57806320714f881461031a57806323b872dd14610336578063313ce567146103665780633278c9601461038457610253565b806306fdde0314610258578063095ea7b3146102765780631627540c146102a657806317c70de4146102c257806318160ddd146102e0575b600080fd5b610260610786565b60405161026d9190615e2b565b60405180910390f35b610290600480360381019061028b919061557d565b610814565b60405161029d9190615c51565b60405180910390f35b6102c060048036038101906102bb91906153fc565b61097b565b005b6102ca610a84565b6040516102d79190615fed565b60405180910390f35b6102e8610a8a565b6040516102f59190615fed565b60405180910390f35b61031860048036038101906103139190615672565b610a90565b005b610334600480360381019061032f91906153fc565b610c24565b005b610350600480360381019061034b91906154b3565b610d9d565b60405161035d9190615c51565b60405180910390f35b61036e61126c565b60405161037b9190616008565b60405180910390f35b61038c61127f565b005b6103a860048036038101906103a39190615502565b61135e565b6040516103b59190615c51565b60405180910390f35b6103c6611825565b6040516103d39190615aca565b60405180910390f35b6103f660048036038101906103f191906153fc565b61184b565b6040516104039190615fed565b60405180910390f35b6104146118ff565b6040516104219190615df5565b60405180910390f35b610432611925565b005b61044e6004803603810190610449919061557d565b611ad6565b005b610458611d3c565b6040516104659190615aca565b60405180910390f35b610476611d60565b6040516104839190615e2b565b60405180910390f35b6104a660048036038101906104a1919061544e565b611dee565b005b6104b0611ef7565b005b6104cc60048036038101906104c7919061557d565b61209d565b005b6104e860048036038101906104e391906156ed565b612303565b005b6104f2612497565b6040516104ff9190615fed565b60405180910390f35b610522600480360381019061051d919061557d565b61249e565b60405161052f9190615c51565b60405180910390f35b610552600480360381019061054d9190615502565b612846565b60405161055f9190615c51565b60405180910390f35b610570612d13565b60405161057d9190615dbf565b60405180910390f35b6105a0600480360381019061059b91906155b9565b612d39565b6040516105ad9190615c51565b60405180910390f35b6105be6130ce565b6040516105cb9190615c51565b60405180910390f35b6105ee60048036038101906105e991906153fc565b6130e1565b005b6105f86131b5565b005b610614600480360381019061060f91906155b9565b6132a1565b6040516106219190615c51565b60405180910390f35b610632613647565b60405161063f9190615aca565b60405180910390f35b610662600480360381019061065d919061557d565b61366d565b60405161066f9190615c51565b60405180910390f35b610680613a04565b60405161068d9190615c6c565b60405180910390f35b6106b060048036038101906106ab9190615477565b613a17565b6040516106bd9190615fed565b60405180910390f35b6106e060048036038101906106db91906154b3565b613ace565b6040516106ed9190615c51565b60405180910390f35b6106fe613f97565b60405161070b9190615e10565b60405180910390f35b61072e600480360381019061072991906154b3565b613fbd565b005b6107386140c5565b6040516107459190615dda565b60405180910390f35b61076860048036038101906107639190615716565b6140eb565b005b610784600480360381019061077f91906156c4565b61423c565b005b600780546107939061638d565b80601f01602080910402602001604051908101604052809291908181526020018280546107bf9061638d565b801561080c5780601f106107e15761010080835404028352916020019161080c565b820191906000526020600020905b8154815290600101906020018083116107ef57829003601f168201915b505050505081565b6000600460009054906101000a900473ffffffffffffffffffffffffffffffffffffffff1673ffffffffffffffffffffffffffffffffffffffff163373ffffffffffffffffffffffffffffffffffffffff16146108ad5733600560006101000a81548173ffffffffffffffffffffffffffffffffffffffff021916908373ffffffffffffffffffffffffffffffffffffffff1602179055505b6000600560009054906101000a900473ffffffffffffffffffffffffffffffffffffffff169050600660009054906101000a900473ffffffffffffffffffffffffffffffffffffffff1673ffffffffffffffffffffffffffffffffffffffff1663da46098c8286866040518463ffffffff1660e01b815260040161093393929190615b29565b600060405180830381600087803b15801561094d57600080fd5b505af1158015610961573d6000803e3d6000fd5b505050506109708185856143d0565b600191505092915050565b60008054906101000a900473ffffffffffffffffffffffffffffffffffffffff1673ffffffffffffffffffffffffffffffffffffffff163373ffffffffffffffffffffffffffffffffffffffff1614610a09576040517f08c379a0000000000000000000000000000000000000000000000000000000008152600401610a0090615f4d565b60405180910390fd5b80600160006101000a81548173ffffffffffffffffffffffffffffffffffffffff021916908373ffffffffffffffffffffffffffffffffffffffff1602179055507f906a1c6bd7e3091ea86693dd029a831c19049ce77f1dce2ce0bab1cacbabce2281604051610a799190615aca565b60405180910390a150565b60025481565b60095481565b600460009054906101000a900473ffffffffffffffffffffffffffffffffffffffff1673ffffffffffffffffffffffffffffffffffffffff163373ffffffffffffffffffffffffffffffffffffffff1614610b275733600560006101000a81548173ffffffffffffffffffffffffffffffffffffffff021916908373ffffffffffffffffffffffffffffffffffffffff1602179055505b60008054906101000a900473ffffffffffffffffffffffffffffffffffffffff1673ffffffffffffffffffffffffffffffffffffffff16600560009054906101000a900473ffffffffffffffffffffffffffffffffffffffff1673ffffffffffffffffffffffffffffffffffffffff1614610bd7576040517f08c379a0000000000000000000000000000000000000000000000000000000008152600401610bce90615f8d565b60405180910390fd5b80600a60016101000a81548173ffffffffffffffffffffffffffffffffffffffff021916908373ffffffffffffffffffffffffffffffffffffffff160217905550610c21816144bd565b50565b60008054906101000a900473ffffffffffffffffffffffffffffffffffffffff1673ffffffffffffffffffffffffffffffffffffffff163373ffffffffffffffffffffffffffffffffffffffff1614610cb2576040517f08c379a0000000000000000000000000000000000000000000000000000000008152600401610ca990615f4d565b60405180910390fd5b600073ffffffffffffffffffffffffffffffffffffffff168173ffffffffffffffffffffffffffffffffffffffff161415610d22576040517f08c379a0000000000000000000000000000000000000000000000000000000008152600401610d1990615eed565b60405180910390fd5b80600360016101000a81548173ffffffffffffffffffffffffffffffffffffffff021916908373ffffffffffffffffffffffffffffffffffffffff1602179055507fd5da63a0b864b315bc04128dedbc93888c8529ee6cf47ce664dc204339228c5381604051610d929190615aca565b60405180910390a150565b6000600460009054906101000a900473ffffffffffffffffffffffffffffffffffffffff1673ffffffffffffffffffffffffffffffffffffffff163373ffffffffffffffffffffffffffffffffffffffff1614610e365733600560006101000a81548173ffffffffffffffffffffffffffffffffffffffff021916908373ffffffffffffffffffffffffffffffffffffffff1602179055505b83600a60019054906101000a900473ffffffffffffffffffffffffffffffffffffffff1673ffffffffffffffffffffffffffffffffffffffff1663eb1edd616040518163ffffffff1660e01b815260040160206040518083038186803b158015610e9f57600080fd5b505afa158015610eb3573d6000803e3d6000fd5b505050506040513d601f19601f82011682018060405250810190610ed79190615425565b73ffffffffffffffffffffffffffffffffffffffff168173ffffffffffffffffffffffffffffffffffffffff161415610f45576040517f08c379a0000000000000000000000000000000000000000000000000000000008152600401610f3c90615f0d565b60405180910390fd5b6000600a60019054906101000a900473ffffffffffffffffffffffffffffffffffffffff1673ffffffffffffffffffffffffffffffffffffffff1663b7fcfa69856040518263ffffffff1660e01b8152600401610fa29190615fed565b60206040518083038186803b158015610fba57600080fd5b505afa158015610fce573d6000803e3d6000fd5b505050506040513d601f19601f82011682018060405250810190610ff2919061573f565b9050600081856110029190616112565b9050600660009054906101000a900473ffffffffffffffffffffffffffffffffffffffff1673ffffffffffffffffffffffffffffffffffffffff1663da46098c88600560009054906101000a900473ffffffffffffffffffffffffffffffffffffffff1688600660009054906101000a900473ffffffffffffffffffffffffffffffffffffffff1673ffffffffffffffffffffffffffffffffffffffff1663dd62ed3e8d600560009054906101000a900473ffffffffffffffffffffffffffffffffffffffff166040518363ffffffff1660e01b81526004016110e6929190615b00565b60206040518083038186803b1580156110fe57600080fd5b505afa158015611112573d6000803e3d6000fd5b505050506040513d601f19601f82011682018060405250810190611136919061573f565b6111409190616112565b6040518463ffffffff1660e01b815260040161115e93929190615b29565b600060405180830381600087803b15801561117857600080fd5b505af115801561118c573d6000803e3d6000fd5b50505050600b60009054906101000a900473ffffffffffffffffffffffffffffffffffffffff1673ffffffffffffffffffffffffffffffffffffffff1663be57636488600b60149054906101000a900460e01b846040518463ffffffff1660e01b81526004016111fe93929190615b60565b602060405180830381600087803b15801561121857600080fd5b505af115801561122c573d6000803e3d6000fd5b505050506040513d601f19601f820116820180604052508101906112509190615620565b50606061125f88888584614599565b9450505050509392505050565b600a60009054906101000a900460ff1681565b60008054906101000a900473ffffffffffffffffffffffffffffffffffffffff1673ffffffffffffffffffffffffffffffffffffffff163373ffffffffffffffffffffffffffffffffffffffff161461130d576040517f08c379a000000000000000000000000000000000000000000000000000000000815260040161130490615f4d565b60405180910390fd5b60006002819055506000600360006101000a81548160ff0219169083151502179055507f6adcc7125002935e0aa31697538ebbd65cfddf20431eb6ecdcfc3e238bfd082c60405160405180910390a1565b6000600460009054906101000a900473ffffffffffffffffffffffffffffffffffffffff1673ffffffffffffffffffffffffffffffffffffffff163373ffffffffffffffffffffffffffffffffffffffff16146113f75733600560006101000a81548173ffffffffffffffffffffffffffffffffffffffff021916908373ffffffffffffffffffffffffffffffffffffffff1602179055505b84600a60019054906101000a900473ffffffffffffffffffffffffffffffffffffffff1673ffffffffffffffffffffffffffffffffffffffff1663eb1edd616040518163ffffffff1660e01b815260040160206040518083038186803b15801561146057600080fd5b505afa158015611474573d6000803e3d6000fd5b505050506040513d601f19601f820116820180604052508101906114989190615425565b73ffffffffffffffffffffffffffffffffffffffff168173ffffffffffffffffffffffffffffffffffffffff161415611506576040517f08c379a00000000000000000000000000000000000000000000000000000000081526004016114fd90615f0d565b60405180910390fd5b6000600a60019054906101000a900473ffffffffffffffffffffffffffffffffffffffff1673ffffffffffffffffffffffffffffffffffffffff1663da46e6c4866040518263ffffffff1660e01b81526004016115639190615fed565b60206040518083038186803b15801561157b57600080fd5b505afa15801561158f573d6000803e3d6000fd5b505050506040513d601f19601f820116820180604052508101906115b3919061573f565b9050600660009054906101000a900473ffffffffffffffffffffffffffffffffffffffff1673ffffffffffffffffffffffffffffffffffffffff1663da46098c88600560009054906101000a900473ffffffffffffffffffffffffffffffffffffffff168489600660009054906101000a900473ffffffffffffffffffffffffffffffffffffffff1673ffffffffffffffffffffffffffffffffffffffff1663dd62ed3e8e600560009054906101000a900473ffffffffffffffffffffffffffffffffffffffff166040518363ffffffff1660e01b8152600401611698929190615b00565b60206040518083038186803b1580156116b057600080fd5b505afa1580156116c4573d6000803e3d6000fd5b505050506040513d601f19601f820116820180604052508101906116e8919061573f565b6116f29190616112565b6116fc91906160bc565b6040518463ffffffff1660e01b815260040161171a93929190615b29565b600060405180830381600087803b15801561173457600080fd5b505af1158015611748573d6000803e3d6000fd5b50505050600b60009054906101000a900473ffffffffffffffffffffffffffffffffffffffff1673ffffffffffffffffffffffffffffffffffffffff1663be57636488600b60149054906101000a900460e01b846040518463ffffffff1660e01b81526004016117ba93929190615b60565b602060405180830381600087803b1580156117d457600080fd5b505af11580156117e8573d6000803e3d6000fd5b505050506040513d601f19601f8201168201806040525081019061180c9190615620565b5061181987878787614599565b92505050949350505050565b600160009054906101000a900473ffffffffffffffffffffffffffffffffffffffff1681565b6000600660009054906101000a900473ffffffffffffffffffffffffffffffffffffffff1673ffffffffffffffffffffffffffffffffffffffff166370a08231836040518263ffffffff1660e01b81526004016118a89190615aca565b60206040518083038186803b1580156118c057600080fd5b505afa1580156118d4573d6000803e3d6000fd5b505050506040513d601f19601f820116820180604052508101906118f8919061573f565b9050919050565b600b60009054906101000a900473ffffffffffffffffffffffffffffffffffffffff1681565b600160009054906101000a900473ffffffffffffffffffffffffffffffffffffffff1673ffffffffffffffffffffffffffffffffffffffff163373ffffffffffffffffffffffffffffffffffffffff16146119b5576040517f08c379a00000000000000000000000000000000000000000000000000000000081526004016119ac90615e4d565b60405180910390fd5b7fb532073b38c83145e3e5135377a08bf9aab55bc0fd7c1179cd4fb995d2a5159c60008054906101000a900473ffffffffffffffffffffffffffffffffffffffff16600160009054906101000a900473ffffffffffffffffffffffffffffffffffffffff16604051611a28929190615b00565b60405180910390a1600160009054906101000a900473ffffffffffffffffffffffffffffffffffffffff166000806101000a81548173ffffffffffffffffffffffffffffffffffffffff021916908373ffffffffffffffffffffffffffffffffffffffff1602179055506000600160006101000a81548173ffffffffffffffffffffffffffffffffffffffff021916908373ffffffffffffffffffffffffffffffffffffffff160217905550565b6000600b60009054906101000a900473ffffffffffffffffffffffffffffffffffffffff1673ffffffffffffffffffffffffffffffffffffffff163373ffffffffffffffffffffffffffffffffffffffff161490506000600a60019054906101000a900473ffffffffffffffffffffffffffffffffffffffff1673ffffffffffffffffffffffffffffffffffffffff163373ffffffffffffffffffffffffffffffffffffffff161490508180611b895750805b611bc8576040517f08c379a0000000000000000000000000000000000000000000000000000000008152600401611bbf90615f2d565b60405180910390fd5b600660009054906101000a900473ffffffffffffffffffffffffffffffffffffffff1673ffffffffffffffffffffffffffffffffffffffff1663b46310f68585600660009054906101000a900473ffffffffffffffffffffffffffffffffffffffff1673ffffffffffffffffffffffffffffffffffffffff166370a08231896040518263ffffffff1660e01b8152600401611c639190615aca565b60206040518083038186803b158015611c7b57600080fd5b505afa158015611c8f573d6000803e3d6000fd5b505050506040513d601f19601f82011682018060405250810190611cb3919061573f565b611cbd91906160bc565b6040518363ffffffff1660e01b8152600401611cda929190615bea565b600060405180830381600087803b158015611cf457600080fd5b505af1158015611d08573d6000803e3d6000fd5b5050505082600954611d1a91906160bc565b600981905550611d2c6000858561482f565b611d36848461491c565b50505050565b60008054906101000a900473ffffffffffffffffffffffffffffffffffffffff1681565b60088054611d6d9061638d565b80601f0160208091040260200160405190810160405280929190818152602001828054611d999061638d565b8015611de65780601f10611dbb57610100808354040283529160200191611de6565b820191906000526020600020905b815481529060010190602001808311611dc957829003601f168201915b505050505081565b60008054906101000a900473ffffffffffffffffffffffffffffffffffffffff1673ffffffffffffffffffffffffffffffffffffffff163373ffffffffffffffffffffffffffffffffffffffff1614611e7c576040517f08c379a0000000000000000000000000000000000000000000000000000000008152600401611e7390615f4d565b60405180910390fd5b80600460006101000a81548173ffffffffffffffffffffffffffffffffffffffff021916908373ffffffffffffffffffffffffffffffffffffffff1602179055507ffc80377ca9c49cc11ae6982f390a42db976d5530af7c43889264b13fbbd7c57e81604051611eec9190615ae5565b60405180910390a150565b60008054906101000a900473ffffffffffffffffffffffffffffffffffffffff1673ffffffffffffffffffffffffffffffffffffffff163373ffffffffffffffffffffffffffffffffffffffff1614611f85576040517f08c379a0000000000000000000000000000000000000000000000000000000008152600401611f7c90615f4d565b60405180910390fd5b600360009054906101000a900460ff16611fd4576040517f08c379a0000000000000000000000000000000000000000000000000000000008152600401611fcb90615f6d565b60405180910390fd5b426224ea00600254611fe691906160bc565b10612026576040517f08c379a000000000000000000000000000000000000000000000000000000000815260040161201d90615fcd565b60405180910390fd5b6000600360019054906101000a900473ffffffffffffffffffffffffffffffffffffffff1690507f8a09e1677ced846cb537dc2b172043bd05a1a81ad7e0033a7ef8ba762df990b78160405161207c9190615aca565b60405180910390a18073ffffffffffffffffffffffffffffffffffffffff16ff5b6000600b60009054906101000a900473ffffffffffffffffffffffffffffffffffffffff1673ffffffffffffffffffffffffffffffffffffffff163373ffffffffffffffffffffffffffffffffffffffff161490506000600a60019054906101000a900473ffffffffffffffffffffffffffffffffffffffff1673ffffffffffffffffffffffffffffffffffffffff163373ffffffffffffffffffffffffffffffffffffffff1614905081806121505750805b61218f576040517f08c379a000000000000000000000000000000000000000000000000000000000815260040161218690615f2d565b60405180910390fd5b600660009054906101000a900473ffffffffffffffffffffffffffffffffffffffff1673ffffffffffffffffffffffffffffffffffffffff1663b46310f68585600660009054906101000a900473ffffffffffffffffffffffffffffffffffffffff1673ffffffffffffffffffffffffffffffffffffffff166370a08231896040518263ffffffff1660e01b815260040161222a9190615aca565b60206040518083038186803b15801561224257600080fd5b505afa158015612256573d6000803e3d6000fd5b505050506040513d601f19601f8201168201806040525081019061227a919061573f565b6122849190616112565b6040518363ffffffff1660e01b81526004016122a1929190615bea565b600060405180830381600087803b1580156122bb57600080fd5b505af11580156122cf573d6000803e3d6000fd5b50505050826009546122e19190616112565b6009819055506122f38460008561482f565b6122fd8484614a00565b50505050565b600460009054906101000a900473ffffffffffffffffffffffffffffffffffffffff1673ffffffffffffffffffffffffffffffffffffffff163373ffffffffffffffffffffffffffffffffffffffff161461239a5733600560006101000a81548173ffffffffffffffffffffffffffffffffffffffff021916908373ffffffffffffffffffffffffffffffffffffffff1602179055505b60008054906101000a900473ffffffffffffffffffffffffffffffffffffffff1673ffffffffffffffffffffffffffffffffffffffff16600560009054906101000a900473ffffffffffffffffffffffffffffffffffffffff1673ffffffffffffffffffffffffffffffffffffffff161461244a576040517f08c379a000000000000000000000000000000000000000000000000000000000815260040161244190615f8d565b60405180910390fd5b80600660006101000a81548173ffffffffffffffffffffffffffffffffffffffff021916908373ffffffffffffffffffffffffffffffffffffffff16021790555061249481614ae4565b50565b6224ea0081565b6000600460009054906101000a900473ffffffffffffffffffffffffffffffffffffffff1673ffffffffffffffffffffffffffffffffffffffff163373ffffffffffffffffffffffffffffffffffffffff16146125375733600560006101000a81548173ffffffffffffffffffffffffffffffffffffffff021916908373ffffffffffffffffffffffffffffffffffffffff1602179055505b600560009054906101000a900473ffffffffffffffffffffffffffffffffffffffff16600a60019054906101000a900473ffffffffffffffffffffffffffffffffffffffff1673ffffffffffffffffffffffffffffffffffffffff1663eb1edd616040518163ffffffff1660e01b815260040160206040518083038186803b1580156125c257600080fd5b505afa1580156125d6573d6000803e3d6000fd5b505050506040513d601f19601f820116820180604052508101906125fa9190615425565b73ffffffffffffffffffffffffffffffffffffffff168173ffffffffffffffffffffffffffffffffffffffff161415612668576040517f08c379a000000000000000000000000000000000000000000000000000000000815260040161265f90615f0d565b60405180910390fd5b6000600a60019054906101000a900473ffffffffffffffffffffffffffffffffffffffff1673ffffffffffffffffffffffffffffffffffffffff1663b7fcfa69856040518263ffffffff1660e01b81526004016126c59190615fed565b60206040518083038186803b1580156126dd57600080fd5b505afa1580156126f1573d6000803e3d6000fd5b505050506040513d601f19601f82011682018060405250810190612715919061573f565b9050600081856127259190616112565b9050600b60009054906101000a900473ffffffffffffffffffffffffffffffffffffffff1673ffffffffffffffffffffffffffffffffffffffff1663be576364600560009054906101000a900473ffffffffffffffffffffffffffffffffffffffff16600b60149054906101000a900460e01b846040518463ffffffff1660e01b81526004016127b793929190615b60565b602060405180830381600087803b1580156127d157600080fd5b505af11580156127e5573d6000803e3d6000fd5b505050506040513d601f19601f820116820180604052508101906128099190615620565b50606061283a600560009054906101000a900473ffffffffffffffffffffffffffffffffffffffff16888584614599565b94505050505092915050565b6000600460009054906101000a900473ffffffffffffffffffffffffffffffffffffffff1673ffffffffffffffffffffffffffffffffffffffff163373ffffffffffffffffffffffffffffffffffffffff16146128df5733600560006101000a81548173ffffffffffffffffffffffffffffffffffffffff021916908373ffffffffffffffffffffffffffffffffffffffff1602179055505b84600a60019054906101000a900473ffffffffffffffffffffffffffffffffffffffff1673ffffffffffffffffffffffffffffffffffffffff1663eb1edd616040518163ffffffff1660e01b815260040160206040518083038186803b15801561294857600080fd5b505afa15801561295c573d6000803e3d6000fd5b505050506040513d601f19601f820116820180604052508101906129809190615425565b73ffffffffffffffffffffffffffffffffffffffff168173ffffffffffffffffffffffffffffffffffffffff1614156129ee576040517f08c379a00000000000000000000000000000000000000000000000000000000081526004016129e590615f0d565b60405180910390fd5b6000600a60019054906101000a900473ffffffffffffffffffffffffffffffffffffffff1673ffffffffffffffffffffffffffffffffffffffff1663b7fcfa69866040518263ffffffff1660e01b8152600401612a4b9190615fed565b60206040518083038186803b158015612a6357600080fd5b505afa158015612a77573d6000803e3d6000fd5b505050506040513d601f19601f82011682018060405250810190612a9b919061573f565b905060008186612aab9190616112565b9050600660009054906101000a900473ffffffffffffffffffffffffffffffffffffffff1673ffffffffffffffffffffffffffffffffffffffff1663da46098c89600560009054906101000a900473ffffffffffffffffffffffffffffffffffffffff1689600660009054906101000a900473ffffffffffffffffffffffffffffffffffffffff1673ffffffffffffffffffffffffffffffffffffffff1663dd62ed3e8e600560009054906101000a900473ffffffffffffffffffffffffffffffffffffffff166040518363ffffffff1660e01b8152600401612b8f929190615b00565b60206040518083038186803b158015612ba757600080fd5b505afa158015612bbb573d6000803e3d6000fd5b505050506040513d601f19601f82011682018060405250810190612bdf919061573f565b612be99190616112565b6040518463ffffffff1660e01b8152600401612c0793929190615b29565b600060405180830381600087803b158015612c2157600080fd5b505af1158015612c35573d6000803e3d6000fd5b50505050600b60009054906101000a900473ffffffffffffffffffffffffffffffffffffffff1673ffffffffffffffffffffffffffffffffffffffff1663be57636489600b60149054906101000a900460e01b846040518463ffffffff1660e01b8152600401612ca793929190615b60565b602060405180830381600087803b158015612cc157600080fd5b505af1158015612cd5573d6000803e3d6000fd5b505050506040513d601f19601f82011682018060405250810190612cf99190615620565b50612d0688888488614599565b9350505050949350505050565b600a60019054906101000a900473ffffffffffffffffffffffffffffffffffffffff1681565b6000600460009054906101000a900473ffffffffffffffffffffffffffffffffffffffff1673ffffffffffffffffffffffffffffffffffffffff163373ffffffffffffffffffffffffffffffffffffffff1614612dd25733600560006101000a81548173ffffffffffffffffffffffffffffffffffffffff021916908373ffffffffffffffffffffffffffffffffffffffff1602179055505b600560009054906101000a900473ffffffffffffffffffffffffffffffffffffffff16600a60019054906101000a900473ffffffffffffffffffffffffffffffffffffffff1673ffffffffffffffffffffffffffffffffffffffff1663eb1edd616040518163ffffffff1660e01b815260040160206040518083038186803b158015612e5d57600080fd5b505afa158015612e71573d6000803e3d6000fd5b505050506040513d601f19601f82011682018060405250810190612e959190615425565b73ffffffffffffffffffffffffffffffffffffffff168173ffffffffffffffffffffffffffffffffffffffff161415612f03576040517f08c379a0000000000000000000000000000000000000000000000000000000008152600401612efa90615f0d565b60405180910390fd5b6000600a60019054906101000a900473ffffffffffffffffffffffffffffffffffffffff1673ffffffffffffffffffffffffffffffffffffffff1663da46e6c4866040518263ffffffff1660e01b8152600401612f609190615fed565b60206040518083038186803b158015612f7857600080fd5b505afa158015612f8c573d6000803e3d6000fd5b505050506040513d601f19601f82011682018060405250810190612fb0919061573f565b9050600b60009054906101000a900473ffffffffffffffffffffffffffffffffffffffff1673ffffffffffffffffffffffffffffffffffffffff1663be576364600560009054906101000a900473ffffffffffffffffffffffffffffffffffffffff16600b60149054906101000a900460e01b846040518463ffffffff1660e01b815260040161304293929190615b60565b602060405180830381600087803b15801561305c57600080fd5b505af1158015613070573d6000803e3d6000fd5b505050506040513d601f19601f820116820180604052508101906130949190615620565b506130c3600560009054906101000a900473ffffffffffffffffffffffffffffffffffffffff16878787614599565b925050509392505050565b600360009054906101000a900460ff1681565b600460009054906101000a900473ffffffffffffffffffffffffffffffffffffffff1673ffffffffffffffffffffffffffffffffffffffff163373ffffffffffffffffffffffffffffffffffffffff1614613171576040517f08c379a000000000000000000000000000000000000000000000000000000000815260040161316890615ead565b60405180910390fd5b80600560006101000a81548173ffffffffffffffffffffffffffffffffffffffff021916908373ffffffffffffffffffffffffffffffffffffffff16021790555050565b60008054906101000a900473ffffffffffffffffffffffffffffffffffffffff1673ffffffffffffffffffffffffffffffffffffffff163373ffffffffffffffffffffffffffffffffffffffff1614613243576040517f08c379a000000000000000000000000000000000000000000000000000000000815260040161323a90615f4d565b60405180910390fd5b426002819055506001600360006101000a81548160ff0219169083151502179055507fcbd94ca75b8dc45c9d80c77e851670e78843c0d75180cb81db3e2158228fa9a66224ea006040516132979190615fed565b60405180910390a1565b6000600460009054906101000a900473ffffffffffffffffffffffffffffffffffffffff1673ffffffffffffffffffffffffffffffffffffffff163373ffffffffffffffffffffffffffffffffffffffff161461333a5733600560006101000a81548173ffffffffffffffffffffffffffffffffffffffff021916908373ffffffffffffffffffffffffffffffffffffffff1602179055505b600560009054906101000a900473ffffffffffffffffffffffffffffffffffffffff16600a60019054906101000a900473ffffffffffffffffffffffffffffffffffffffff1673ffffffffffffffffffffffffffffffffffffffff1663eb1edd616040518163ffffffff1660e01b815260040160206040518083038186803b1580156133c557600080fd5b505afa1580156133d9573d6000803e3d6000fd5b505050506040513d601f19601f820116820180604052508101906133fd9190615425565b73ffffffffffffffffffffffffffffffffffffffff168173ffffffffffffffffffffffffffffffffffffffff16141561346b576040517f08c379a000000000000000000000000000000000000000000000000000000000815260040161346290615f0d565b60405180910390fd5b6000600a60019054906101000a900473ffffffffffffffffffffffffffffffffffffffff1673ffffffffffffffffffffffffffffffffffffffff1663b7fcfa69866040518263ffffffff1660e01b81526004016134c89190615fed565b60206040518083038186803b1580156134e057600080fd5b505afa1580156134f4573d6000803e3d6000fd5b505050506040513d601f19601f82011682018060405250810190613518919061573f565b9050600081866135289190616112565b9050600b60009054906101000a900473ffffffffffffffffffffffffffffffffffffffff1673ffffffffffffffffffffffffffffffffffffffff1663be576364600560009054906101000a900473ffffffffffffffffffffffffffffffffffffffff16600b60149054906101000a900460e01b846040518463ffffffff1660e01b81526004016135ba93929190615b60565b602060405180830381600087803b1580156135d457600080fd5b505af11580156135e8573d6000803e3d6000fd5b505050506040513d601f19601f8201168201806040525081019061360c9190615620565b5061363b600560009054906101000a900473ffffffffffffffffffffffffffffffffffffffff16888488614599565b93505050509392505050565b600360019054906101000a900473ffffffffffffffffffffffffffffffffffffffff1681565b6000600460009054906101000a900473ffffffffffffffffffffffffffffffffffffffff1673ffffffffffffffffffffffffffffffffffffffff163373ffffffffffffffffffffffffffffffffffffffff16146137065733600560006101000a81548173ffffffffffffffffffffffffffffffffffffffff021916908373ffffffffffffffffffffffffffffffffffffffff1602179055505b600560009054906101000a900473ffffffffffffffffffffffffffffffffffffffff16600a60019054906101000a900473ffffffffffffffffffffffffffffffffffffffff1673ffffffffffffffffffffffffffffffffffffffff1663eb1edd616040518163ffffffff1660e01b815260040160206040518083038186803b15801561379157600080fd5b505afa1580156137a5573d6000803e3d6000fd5b505050506040513d601f19601f820116820180604052508101906137c99190615425565b73ffffffffffffffffffffffffffffffffffffffff168173ffffffffffffffffffffffffffffffffffffffff161415613837576040517f08c379a000000000000000000000000000000000000000000000000000000000815260040161382e90615f0d565b60405180910390fd5b6000600a60019054906101000a900473ffffffffffffffffffffffffffffffffffffffff1673ffffffffffffffffffffffffffffffffffffffff1663da46e6c4856040518263ffffffff1660e01b81526004016138949190615fed565b60206040518083038186803b1580156138ac57600080fd5b505afa1580156138c0573d6000803e3d6000fd5b505050506040513d601f19601f820116820180604052508101906138e4919061573f565b9050600b60009054906101000a900473ffffffffffffffffffffffffffffffffffffffff1673ffffffffffffffffffffffffffffffffffffffff1663be576364600560009054906101000a900473ffffffffffffffffffffffffffffffffffffffff16600b60149054906101000a900460e01b846040518463ffffffff1660e01b815260040161397693929190615b60565b602060405180830381600087803b15801561399057600080fd5b505af11580156139a4573d6000803e3d6000fd5b505050506040513d601f19601f820116820180604052508101906139c89190615620565b5060606139f9600560009054906101000a900473ffffffffffffffffffffffffffffffffffffffff16878784614599565b935050505092915050565b600b60149054906101000a900460e01b81565b6000600660009054906101000a900473ffffffffffffffffffffffffffffffffffffffff1673ffffffffffffffffffffffffffffffffffffffff1663dd62ed3e84846040518363ffffffff1660e01b8152600401613a76929190615b00565b60206040518083038186803b158015613a8e57600080fd5b505afa158015613aa2573d6000803e3d6000fd5b505050506040513d601f19601f82011682018060405250810190613ac6919061573f565b905092915050565b6000600460009054906101000a900473ffffffffffffffffffffffffffffffffffffffff1673ffffffffffffffffffffffffffffffffffffffff163373ffffffffffffffffffffffffffffffffffffffff1614613b675733600560006101000a81548173ffffffffffffffffffffffffffffffffffffffff021916908373ffffffffffffffffffffffffffffffffffffffff1602179055505b83600a60019054906101000a900473ffffffffffffffffffffffffffffffffffffffff1673ffffffffffffffffffffffffffffffffffffffff1663eb1edd616040518163ffffffff1660e01b815260040160206040518083038186803b158015613bd057600080fd5b505afa158015613be4573d6000803e3d6000fd5b505050506040513d601f19601f82011682018060405250810190613c089190615425565b73ffffffffffffffffffffffffffffffffffffffff168173ffffffffffffffffffffffffffffffffffffffff161415613c76576040517f08c379a0000000000000000000000000000000000000000000000000000000008152600401613c6d90615f0d565b60405180910390fd5b6000600a60019054906101000a900473ffffffffffffffffffffffffffffffffffffffff1673ffffffffffffffffffffffffffffffffffffffff1663da46e6c4856040518263ffffffff1660e01b8152600401613cd39190615fed565b60206040518083038186803b158015613ceb57600080fd5b505afa158015613cff573d6000803e3d6000fd5b505050506040513d601f19601f82011682018060405250810190613d23919061573f565b9050600660009054906101000a900473ffffffffffffffffffffffffffffffffffffffff1673ffffffffffffffffffffffffffffffffffffffff1663da46098c87600560009054906101000a900473ffffffffffffffffffffffffffffffffffffffff168488600660009054906101000a900473ffffffffffffffffffffffffffffffffffffffff1673ffffffffffffffffffffffffffffffffffffffff1663dd62ed3e8d600560009054906101000a900473ffffffffffffffffffffffffffffffffffffffff166040518363ffffffff1660e01b8152600401613e08929190615b00565b60206040518083038186803b158015613e2057600080fd5b505afa158015613e34573d6000803e3d6000fd5b505050506040513d601f19601f82011682018060405250810190613e58919061573f565b613e629190616112565b613e6c91906160bc565b6040518463ffffffff1660e01b8152600401613e8a93929190615b29565b600060405180830381600087803b158015613ea457600080fd5b505af1158015613eb8573d6000803e3d6000fd5b50505050600b60009054906101000a900473ffffffffffffffffffffffffffffffffffffffff1673ffffffffffffffffffffffffffffffffffffffff1663be57636487600b60149054906101000a900460e01b846040518463ffffffff1660e01b8152600401613f2a93929190615b60565b602060405180830381600087803b158015613f4457600080fd5b505af1158015613f58573d6000803e3d6000fd5b505050506040513d601f19601f82011682018060405250810190613f7c9190615620565b506060613f8b87878784614599565b93505050509392505050565b600660009054906101000a900473ffffffffffffffffffffffffffffffffffffffff1681565b6000600b60009054906101000a900473ffffffffffffffffffffffffffffffffffffffff1673ffffffffffffffffffffffffffffffffffffffff163373ffffffffffffffffffffffffffffffffffffffff161490506000600a60019054906101000a900473ffffffffffffffffffffffffffffffffffffffff1673ffffffffffffffffffffffffffffffffffffffff163373ffffffffffffffffffffffffffffffffffffffff1614905081806140705750805b6140af576040517f08c379a00000000000000000000000000000000000000000000000000000000081526004016140a690615f2d565b60405180910390fd5b60606140bd86868684614bc0565b505050505050565b600460009054906101000a900473ffffffffffffffffffffffffffffffffffffffff1681565b600460009054906101000a900473ffffffffffffffffffffffffffffffffffffffff1673ffffffffffffffffffffffffffffffffffffffff163373ffffffffffffffffffffffffffffffffffffffff16146141825733600560006101000a81548173ffffffffffffffffffffffffffffffffffffffff021916908373ffffffffffffffffffffffffffffffffffffffff1602179055505b60008054906101000a900473ffffffffffffffffffffffffffffffffffffffff1673ffffffffffffffffffffffffffffffffffffffff16600560009054906101000a900473ffffffffffffffffffffffffffffffffffffffff1673ffffffffffffffffffffffffffffffffffffffff1614614232576040517f08c379a000000000000000000000000000000000000000000000000000000000815260040161422990615f8d565b60405180910390fd5b8060098190555050565b600460009054906101000a900473ffffffffffffffffffffffffffffffffffffffff1673ffffffffffffffffffffffffffffffffffffffff163373ffffffffffffffffffffffffffffffffffffffff16146142d35733600560006101000a81548173ffffffffffffffffffffffffffffffffffffffff021916908373ffffffffffffffffffffffffffffffffffffffff1602179055505b60008054906101000a900473ffffffffffffffffffffffffffffffffffffffff1673ffffffffffffffffffffffffffffffffffffffff16600560009054906101000a900473ffffffffffffffffffffffffffffffffffffffff1673ffffffffffffffffffffffffffffffffffffffff1614614383576040517f08c379a000000000000000000000000000000000000000000000000000000000815260040161437a90615f8d565b60405180910390fd5b80600b60006101000a81548173ffffffffffffffffffffffffffffffffffffffff021916908373ffffffffffffffffffffffffffffffffffffffff1602179055506143cd81614d58565b50565b600460009054906101000a900473ffffffffffffffffffffffffffffffffffffffff1673ffffffffffffffffffffffffffffffffffffffff1663907dff978260405160200161441f9190615fed565b60405160208183030381529060405260037f8c5be1e5ebec7d5bd14f71427d1e84f3dd0314c0f7b2291e5b200ac8c7c3b92561445a88614e34565b61446388614e34565b60006040518763ffffffff1660e01b815260040161448696959493929190615d57565b600060405180830381600087803b1580156144a057600080fd5b505af11580156144b4573d6000803e3d6000fd5b50505050505050565b600460009054906101000a900473ffffffffffffffffffffffffffffffffffffffff1673ffffffffffffffffffffffffffffffffffffffff1663907dff978260405160200161450c9190615aca565b60405160208183030381529060405260017f6d1d088acfe4f30d6014f6f693c61c16258f9784a6ed8439b2c59213eecb629560008060006040518763ffffffff1660e01b815260040161456496959493929190615c87565b600060405180830381600087803b15801561457e57600080fd5b505af1158015614592573d6000803e3d6000fd5b5050505050565b600080600b60009054906101000a900473ffffffffffffffffffffffffffffffffffffffff1673ffffffffffffffffffffffffffffffffffffffff1663dbd4a4226040518163ffffffff1660e01b815260040160206040518083038186803b15801561460457600080fd5b505afa158015614618573d6000803e3d6000fd5b505050506040513d601f19601f8201168201806040525081019061463c919061569b565b73ffffffffffffffffffffffffffffffffffffffff1663caca2516866040518263ffffffff1660e01b81526004016146749190615aca565b60206040518083038186803b15801561468c57600080fd5b505afa1580156146a0573d6000803e3d6000fd5b505050506040513d601f19601f820116820180604052508101906146c49190615649565b9050600060e01b817bffffffffffffffffffffffffffffffffffffffffffffffffffffffff1916141580156147465750600b60149054906101000a900460e01b7bffffffffffffffffffffffffffffffffffffffffffffffffffffffff1916817bffffffffffffffffffffffffffffffffffffffffffffffffffffffff191614155b1561481757600b60009054906101000a900473ffffffffffffffffffffffffffffffffffffffff1673ffffffffffffffffffffffffffffffffffffffff1663be0ecd3287600b60149054906101000a900460e01b87858a6040518663ffffffff1660e01b81526004016147bd959493929190615b97565b602060405180830381600087803b1580156147d757600080fd5b505af11580156147eb573d6000803e3d6000fd5b505050506040513d601f19601f8201168201806040525081019061480f9190615620565b915050614827565b61482386868686614e57565b9150505b949350505050565b600460009054906101000a900473ffffffffffffffffffffffffffffffffffffffff1673ffffffffffffffffffffffffffffffffffffffff1663907dff978260405160200161487e9190615fed565b60405160208183030381529060405260037fddf252ad1be2c89b69c2b068fc378daa952ba7f163c4a11628f55a4df523b3ef6148b988614e34565b6148c288614e34565b60006040518763ffffffff1660e01b81526004016148e596959493929190615d57565b600060405180830381600087803b1580156148ff57600080fd5b505af1158015614913573d6000803e3d6000fd5b50505050505050565b600460009054906101000a900473ffffffffffffffffffffffffffffffffffffffff1673ffffffffffffffffffffffffffffffffffffffff1663907dff978260405160200161496b9190615fed565b60405160208183030381529060405260027fa59f12e354e8cd10bb74c559844c2dd69a5458e31fe56c7594c62ca57480509a6149a687614e34565b6000806040518763ffffffff1660e01b81526004016149ca96959493929190615cef565b600060405180830381600087803b1580156149e457600080fd5b505af11580156149f8573d6000803e3d6000fd5b505050505050565b600460009054906101000a900473ffffffffffffffffffffffffffffffffffffffff1673ffffffffffffffffffffffffffffffffffffffff1663907dff9782604051602001614a4f9190615fed565b60405160208183030381529060405260027f696de425f79f4a40bc6d2122ca50507f0efbeabbff86a84871b7196ab8ea8df7614a8a87614e34565b6000806040518763ffffffff1660e01b8152600401614aae96959493929190615cef565b600060405180830381600087803b158015614ac857600080fd5b505af1158015614adc573d6000803e3d6000fd5b505050505050565b600460009054906101000a900473ffffffffffffffffffffffffffffffffffffffff1673ffffffffffffffffffffffffffffffffffffffff1663907dff9782604051602001614b339190615aca565b60405160208183030381529060405260017fa538c4dcfe9fb148efee2952bafe34982d2d07d5fbb38ae5b44abf659a46bfd860008060006040518763ffffffff1660e01b8152600401614b8b96959493929190615c87565b600060405180830381600087803b158015614ba557600080fd5b505af1158015614bb9573d6000803e3d6000fd5b5050505050565b600560149054906101000a900460ff1615614c10576040517f08c379a0000000000000000000000000000000000000000000000000000000008152600401614c0790615ecd565b60405180910390fd5b6001600560146101000a81548160ff0219169083151502179055506000833b90506000811115614d36578373ffffffffffffffffffffffffffffffffffffffff16858484604051602401614c6693929190615c13565b6040516020818303038152906040527fc0ee0b8a000000000000000000000000000000000000000000000000000000007bffffffffffffffffffffffffffffffffffffffffffffffffffffffff19166020820180517bffffffffffffffffffffffffffffffffffffffffffffffffffffffff8381831617835250505050604051614cf09190615ab3565b6000604051808303816000865af19150503d8060008114614d2d576040519150601f19603f3d011682016040523d82523d6000602084013e614d32565b606091505b5050505b506000600560146101000a81548160ff02191690831515021790555050505050565b600460009054906101000a900473ffffffffffffffffffffffffffffffffffffffff1673ffffffffffffffffffffffffffffffffffffffff1663907dff9782604051602001614da79190615aca565b60405160208183030381529060405260017f46e9c68bd7831071bdd478f1ae4c4a52463961a9d620383a0a121dbfc0e0f06d60008060006040518763ffffffff1660e01b8152600401614dff96959493929190615c87565b600060405180830381600087803b158015614e1957600080fd5b505af1158015614e2d573d6000803e3d6000fd5b5050505050565b60008173ffffffffffffffffffffffffffffffffffffffff1660001b9050919050565b60008073ffffffffffffffffffffffffffffffffffffffff168473ffffffffffffffffffffffffffffffffffffffff161415614ec8576040517f08c379a0000000000000000000000000000000000000000000000000000000008152600401614ebf90615e6d565b60405180910390fd5b3073ffffffffffffffffffffffffffffffffffffffff168473ffffffffffffffffffffffffffffffffffffffff161415614f37576040517f08c379a0000000000000000000000000000000000000000000000000000000008152600401614f2e90615fad565b60405180910390fd5b600460009054906101000a900473ffffffffffffffffffffffffffffffffffffffff1673ffffffffffffffffffffffffffffffffffffffff168473ffffffffffffffffffffffffffffffffffffffff161415614fc8576040517f08c379a0000000000000000000000000000000000000000000000000000000008152600401614fbf90615e8d565b60405180910390fd5b600660009054906101000a900473ffffffffffffffffffffffffffffffffffffffff1673ffffffffffffffffffffffffffffffffffffffff1663b46310f6866150c486600660009054906101000a900473ffffffffffffffffffffffffffffffffffffffff1673ffffffffffffffffffffffffffffffffffffffff166370a082318b6040518263ffffffff1660e01b81526004016150669190615aca565b60206040518083038186803b15801561507e57600080fd5b505afa158015615092573d6000803e3d6000fd5b505050506040513d601f19601f820116820180604052508101906150b6919061573f565b61528190919063ffffffff16565b6040518363ffffffff1660e01b81526004016150e1929190615bea565b600060405180830381600087803b1580156150fb57600080fd5b505af115801561510f573d6000803e3d6000fd5b50505050600660009054906101000a900473ffffffffffffffffffffffffffffffffffffffff1673ffffffffffffffffffffffffffffffffffffffff1663b46310f68561520f86600660009054906101000a900473ffffffffffffffffffffffffffffffffffffffff1673ffffffffffffffffffffffffffffffffffffffff166370a082318a6040518263ffffffff1660e01b81526004016151b19190615aca565b60206040518083038186803b1580156151c957600080fd5b505afa1580156151dd573d6000803e3d6000fd5b505050506040513d601f19601f82011682018060405250810190615201919061573f565b61529790919063ffffffff16565b6040518363ffffffff1660e01b815260040161522c929190615bea565b600060405180830381600087803b15801561524657600080fd5b505af115801561525a573d6000803e3d6000fd5b5050505061526a85858585614bc0565b61527585858561482f565b60019050949350505050565b6000818361528f9190616112565b905092915050565b600081836152a591906160bc565b905092915050565b60006152c06152bb84616048565b616023565b9050828152602081018484840111156152d857600080fd5b6152e384828561634b565b509392505050565b6000813590506152fa81616852565b92915050565b60008151905061530f81616852565b92915050565b60008135905061532481616869565b92915050565b60008151905061533981616880565b92915050565b60008151905061534e81616897565b92915050565b600082601f83011261536557600080fd5b81356153758482602086016152ad565b91505092915050565b60008135905061538d816168ae565b92915050565b6000815190506153a2816168c5565b92915050565b6000813590506153b7816168dc565b92915050565b6000813590506153cc816168f3565b92915050565b6000813590506153e18161690a565b92915050565b6000815190506153f68161690a565b92915050565b60006020828403121561540e57600080fd5b600061541c848285016152eb565b91505092915050565b60006020828403121561543757600080fd5b600061544584828501615300565b91505092915050565b60006020828403121561546057600080fd5b600061546e84828501615315565b91505092915050565b6000806040838503121561548a57600080fd5b6000615498858286016152eb565b92505060206154a9858286016152eb565b9150509250929050565b6000806000606084860312156154c857600080fd5b60006154d6868287016152eb565b93505060206154e7868287016152eb565b92505060406154f8868287016153d2565b9150509250925092565b6000806000806080858703121561551857600080fd5b6000615526878288016152eb565b9450506020615537878288016152eb565b9350506040615548878288016153d2565b925050606085013567ffffffffffffffff81111561556557600080fd5b61557187828801615354565b91505092959194509250565b6000806040838503121561559057600080fd5b600061559e858286016152eb565b92505060206155af858286016153d2565b9150509250929050565b6000806000606084860312156155ce57600080fd5b60006155dc868287016152eb565b93505060206155ed868287016153d2565b925050604084013567ffffffffffffffff81111561560a57600080fd5b61561686828701615354565b9150509250925092565b60006020828403121561563257600080fd5b60006156408482850161532a565b91505092915050565b60006020828403121561565b57600080fd5b60006156698482850161533f565b91505092915050565b60006020828403121561568457600080fd5b60006156928482850161537e565b91505092915050565b6000602082840312156156ad57600080fd5b60006156bb84828501615393565b91505092915050565b6000602082840312156156d657600080fd5b60006156e4848285016153a8565b91505092915050565b6000602082840312156156ff57600080fd5b600061570d848285016153bd565b91505092915050565b60006020828403121561572857600080fd5b6000615736848285016153d2565b91505092915050565b60006020828403121561575157600080fd5b600061575f848285016153e7565b91505092915050565b61577181616235565b82525050565b61578081616146565b82525050565b61578f8161616a565b82525050565b61579e81616176565b82525050565b6157ad81616180565b82525050565b60006157be82616079565b6157c8818561608f565b93506157d881856020860161635a565b6157e18161647d565b840191505092915050565b60006157f782616079565b61580181856160a0565b935061581181856020860161635a565b80840191505092915050565b61582681616247565b82525050565b6158358161626b565b82525050565b6158448161628f565b82525050565b615853816162b3565b82525050565b615862816162d7565b82525050565b615871816162f1565b82525050565b61588081616303565b82525050565b61588f81616315565b82525050565b60006158a082616084565b6158aa81856160ab565b93506158ba81856020860161635a565b6158c38161647d565b840191505092915050565b60006158db6035836160ab565b91506158e68261649b565b604082019050919050565b60006158fe6020836160ab565b9150615909826164ea565b602082019050919050565b60006159216025836160ab565b915061592c82616513565b604082019050919050565b60006159446025836160ab565b915061594f82616562565b604082019050919050565b6000615967601e836160ab565b9150615972826165b1565b602082019050919050565b600061598a6028836160ab565b9150615995826165da565b604082019050919050565b60006159ad602f836160ab565b91506159b882616629565b604082019050919050565b60006159d0603f836160ab565b91506159db82616678565b604082019050919050565b60006159f3602f836160ab565b91506159fe826166c7565b604082019050919050565b6000615a166028836160ab565b9150615a2182616716565b604082019050919050565b6000615a39602e836160ab565b9150615a4482616765565b604082019050919050565b6000615a5c602a836160ab565b9150615a67826167b4565b604082019050919050565b6000615a7f6027836160ab565b9150615a8a82616803565b604082019050919050565b615a9e8161621e565b82525050565b615aad81616228565b82525050565b6000615abf82846157ec565b915081905092915050565b6000602082019050615adf6000830184615777565b92915050565b6000602082019050615afa6000830184615768565b92915050565b6000604082019050615b156000830185615777565b615b226020830184615777565b9392505050565b6000606082019050615b3e6000830186615777565b615b4b6020830185615777565b615b586040830184615a95565b949350505050565b6000606082019050615b756000830186615777565b615b8260208301856157a4565b615b8f6040830184615a95565b949350505050565b600060a082019050615bac6000830188615777565b615bb960208301876157a4565b615bc66040830186615a95565b615bd360608301856157a4565b615be06080830184615777565b9695505050505050565b6000604082019050615bff6000830185615777565b615c0c6020830184615a95565b9392505050565b6000606082019050615c286000830186615777565b615c356020830185615a95565b8181036040830152615c4781846157b3565b9050949350505050565b6000602082019050615c666000830184615786565b92915050565b6000602082019050615c8160008301846157a4565b92915050565b600060c0820190508181036000830152615ca181896157b3565b9050615cb06020830188615868565b615cbd6040830187615795565b615cca6060830186615859565b615cd76080830185615859565b615ce460a0830184615859565b979650505050505050565b600060c0820190508181036000830152615d0981896157b3565b9050615d186020830188615877565b615d256040830187615795565b615d326060830186615795565b615d3f6080830185615859565b615d4c60a0830184615859565b979650505050505050565b600060c0820190508181036000830152615d7181896157b3565b9050615d806020830188615886565b615d8d6040830187615795565b615d9a6060830186615795565b615da76080830185615795565b615db460a0830184615859565b979650505050505050565b6000602082019050615dd4600083018461581d565b92915050565b6000602082019050615def600083018461582c565b92915050565b6000602082019050615e0a600083018461583b565b92915050565b6000602082019050615e25600083018461584a565b92915050565b60006020820190508181036000830152615e458184615895565b905092915050565b60006020820190508181036000830152615e66816158ce565b9050919050565b60006020820190508181036000830152615e86816158f1565b9050919050565b60006020820190508181036000830152615ea681615914565b9050919050565b60006020820190508181036000830152615ec681615937565b9050919050565b60006020820190508181036000830152615ee68161595a565b9050919050565b60006020820190508181036000830152615f068161597d565b9050919050565b60006020820190508181036000830152615f26816159a0565b9050919050565b60006020820190508181036000830152615f46816159c3565b9050919050565b60006020820190508181036000830152615f66816159e6565b9050919050565b60006020820190508181036000830152615f8681615a09565b9050919050565b60006020820190508181036000830152615fa681615a2c565b9050919050565b60006020820190508181036000830152615fc681615a4f565b9050919050565b60006020820190508181036000830152615fe681615a72565b9050919050565b60006020820190506160026000830184615a95565b92915050565b600060208201905061601d6000830184615aa4565b92915050565b600061602d61603e565b905061603982826163bf565b919050565b6000604051905090565b600067ffffffffffffffff8211156160635761606261644e565b5b61606c8261647d565b9050602081019050919050565b600081519050919050565b600081519050919050565b600082825260208201905092915050565b600081905092915050565b600082825260208201905092915050565b60006160c78261621e565b91506160d28361621e565b9250827fffffffffffffffffffffffffffffffffffffffffffffffffffffffffffffffff03821115616107576161066163f0565b5b828201905092915050565b600061611d8261621e565b91506161288361621e565b92508282101561613b5761613a6163f0565b5b828203905092915050565b6000616151826161fe565b9050919050565b6000616163826161fe565b9050919050565b60008115159050919050565b6000819050919050565b60007fffffffff0000000000000000000000000000000000000000000000000000000082169050919050565b60006161b782616146565b9050919050565b60006161c982616146565b9050919050565b60006161db82616146565b9050919050565b60006161ed82616146565b9050919050565b6000819050919050565b600073ffffffffffffffffffffffffffffffffffffffff82169050919050565b6000819050919050565b600060ff82169050919050565b600061624082616327565b9050919050565b600061625282616259565b9050919050565b6000616264826161fe565b9050919050565b60006162768261627d565b9050919050565b6000616288826161fe565b9050919050565b600061629a826162a1565b9050919050565b60006162ac826161fe565b9050919050565b60006162be826162c5565b9050919050565b60006162d0826161fe565b9050919050565b60006162ea6162e5836161f4565b61648e565b9050919050565b60006162fc8261621e565b9050919050565b600061630e8261621e565b9050919050565b60006163208261621e565b9050919050565b600061633282616339565b9050919050565b6000616344826161fe565b9050919050565b82818337600083830152505050565b60005b8381101561637857808201518184015260208101905061635d565b83811115616387576000848401525b50505050565b600060028204905060018216806163a557607f821691505b602082108114156163b9576163b861641f565b5b50919050565b6163c88261647d565b810181811067ffffffffffffffff821117156163e7576163e661644e565b5b80604052505050565b7f4e487b7100000000000000000000000000000000000000000000000000000000600052601160045260246000fd5b7f4e487b7100000000000000000000000000000000000000000000000000000000600052602260045260246000fd5b7f4e487b7100000000000000000000000000000000000000000000000000000000600052604160045260246000fd5b6000601f19601f8301169050919050565b60008160001b9050919050565b7f596f75206d757374206265206e6f6d696e61746564206265666f726520796f7560008201527f2063616e20616363657074206f776e6572736869700000000000000000000000602082015250565b7f43616e6e6f74207472616e7366657220746f2074686520302061646472657373600082015250565b7f43616e6e6f74207472616e7366657220746f207468652070726f787920636f6e60008201527f7472616374000000000000000000000000000000000000000000000000000000602082015250565b7f4f6e6c79207468652070726f78792063616e2063616c6c20746869732066756e60008201527f6374696f6e000000000000000000000000000000000000000000000000000000602082015250565b7f526576657274656420746f2070726576656e74207265656e7472616e63790000600082015250565b7f42656e6566696369617279206d757374206e6f7420626520746865207a65726f60008201527f2061646472657373000000000000000000000000000000000000000000000000602082015250565b7f43616e6e6f7420706572666f726d207468697320616374696f6e20776974682060008201527f7468652066656520616464726573730000000000000000000000000000000000602082015250565b7f4f6e6c79207468652053796e746865746978206f7220466565506f6f6c20636f60008201527f6e7472616374732063616e20706572666f726d207468697320616374696f6e00602082015250565b7f4f6e6c792074686520636f6e7472616374206f776e6572206d6179207065726660008201527f6f726d207468697320616374696f6e0000000000000000000000000000000000602082015250565b7f53656c6620646573747275637420686173206e6f7420796574206265656e206960008201527f6e69746961746564000000000000000000000000000000000000000000000000602082015250565b7f5468697320616374696f6e2063616e206f6e6c7920626520706572666f726d6560008201527f6420627920746865206f776e6572000000000000000000000000000000000000602082015250565b7f43616e6e6f74207472616e7366657220746f2074686520756e6465726c79696e60008201527f6720636f6e747261637400000000000000000000000000000000000000000000602082015250565b7f53656c662064657374727563742064656c617920686173206e6f74207965742060008201527f656c617073656400000000000000000000000000000000000000000000000000602082015250565b61685b81616146565b811461686657600080fd5b50565b61687281616158565b811461687d57600080fd5b50565b6168898161616a565b811461689457600080fd5b50565b6168a081616180565b81146168ab57600080fd5b50565b6168b7816161ac565b81146168c257600080fd5b50565b6168ce816161be565b81146168d957600080fd5b50565b6168e5816161d0565b81146168f057600080fd5b50565b6168fc816161e2565b811461690757600080fd5b50565b6169138161621e565b811461691e57600080fd5b5056fea264697066735822122050f99ee7dd6fa75cf06aaaad4f07f227a91632ef9083130b418bdfb58f1ffbf764736f6c63430008040033",
  "linkReferences": {},
  "deployedLinkReferences": {}
}