{
  "_format": "hh-sol-artifact-1",
  "contractName": "SynthetixEscrow",
  "sourceName": "contracts/SynthetixEscrow.sol",
  "abi": [
    {
      "inputs": [
        {
          "internalType": "address",
          "name": "_owner",
          "type": "address"
        },
        {
          "internalType": "contract ISynthetix",
          "name": "_synthetix",
          "type": "address"
        }
      ],
      "stateMutability": "nonpayable",
      "type": "constructor"
    },
    {
      "anonymous": false,
      "inputs": [
        {
          "indexed": false,
          "internalType": "address",
          "name": "oldOwner",
          "type": "address"
        },
        {
          "indexed": false,
          "internalType": "address",
          "name": "newOwner",
          "type": "address"
        }
      ],
      "name": "OwnerChanged",
      "type": "event"
    },
    {
      "anonymous": false,
      "inputs": [
        {
          "indexed": false,
          "internalType": "address",
          "name": "newOwner",
          "type": "address"
        }
      ],
      "name": "OwnerNominated",
      "type": "event"
    },
    {
      "anonymous": false,
      "inputs": [
        {
          "indexed": false,
          "internalType": "address",
          "name": "newSynthetix",
          "type": "address"
        }
      ],
      "name": "SynthetixUpdated",
      "type": "event"
    },
    {
      "anonymous": false,
      "inputs": [
        {
          "indexed": true,
          "internalType": "address",
          "name": "beneficiary",
          "type": "address"
        },
        {
          "indexed": false,
          "internalType": "uint256",
          "name": "time",
          "type": "uint256"
        },
        {
          "indexed": false,
          "internalType": "uint256",
          "name": "value",
          "type": "uint256"
        }
      ],
      "name": "Vested",
      "type": "event"
    },
    {
      "inputs": [],
      "name": "acceptOwnership",
      "outputs": [],
      "stateMutability": "nonpayable",
      "type": "function"
    },
    {
      "inputs": [
        {
          "internalType": "address",
          "name": "account",
          "type": "address"
        },
        {
          "internalType": "uint256[]",
          "name": "times",
          "type": "uint256[]"
        },
        {
          "internalType": "uint256[]",
          "name": "quantities",
          "type": "uint256[]"
        }
      ],
      "name": "addVestingSchedule",
      "outputs": [],
      "stateMutability": "nonpayable",
      "type": "function"
    },
    {
      "inputs": [
        {
          "internalType": "address",
          "name": "account",
          "type": "address"
        },
        {
          "internalType": "uint256",
          "name": "time",
          "type": "uint256"
        },
        {
          "internalType": "uint256",
          "name": "quantity",
          "type": "uint256"
        }
      ],
      "name": "appendVestingEntry",
      "outputs": [],
      "stateMutability": "nonpayable",
      "type": "function"
    },
    {
      "inputs": [
        {
          "internalType": "address",
          "name": "account",
          "type": "address"
        }
      ],
      "name": "balanceOf",
      "outputs": [
        {
          "internalType": "uint256",
          "name": "",
          "type": "uint256"
        }
      ],
      "stateMutability": "view",
      "type": "function"
    },
    {
      "inputs": [
        {
          "internalType": "address",
          "name": "account",
          "type": "address"
        }
      ],
      "name": "getNextVestingEntry",
      "outputs": [
        {
          "internalType": "uint256[2]",
          "name": "",
          "type": "uint256[2]"
        }
      ],
      "stateMutability": "view",
      "type": "function"
    },
    {
      "inputs": [
        {
          "internalType": "address",
          "name": "account",
          "type": "address"
        }
      ],
      "name": "getNextVestingIndex",
      "outputs": [
        {
          "internalType": "uint256",
          "name": "",
          "type": "uint256"
        }
      ],
      "stateMutability": "view",
      "type": "function"
    },
    {
      "inputs": [
        {
          "internalType": "address",
          "name": "account",
          "type": "address"
        }
      ],
      "name": "getNextVestingQuantity",
      "outputs": [
        {
          "internalType": "uint256",
          "name": "",
          "type": "uint256"
        }
      ],
      "stateMutability": "view",
      "type": "function"
    },
    {
      "inputs": [
        {
          "internalType": "address",
          "name": "account",
          "type": "address"
        }
      ],
      "name": "getNextVestingTime",
      "outputs": [
        {
          "internalType": "uint256",
          "name": "",
          "type": "uint256"
        }
      ],
      "stateMutability": "view",
      "type": "function"
    },
    {
      "inputs": [
        {
          "internalType": "address",
          "name": "account",
          "type": "address"
        },
        {
          "internalType": "uint256",
          "name": "index",
          "type": "uint256"
        }
      ],
      "name": "getVestingQuantity",
      "outputs": [
        {
          "internalType": "uint256",
          "name": "",
          "type": "uint256"
        }
      ],
      "stateMutability": "view",
      "type": "function"
    },
    {
      "inputs": [
        {
          "internalType": "address",
          "name": "account",
          "type": "address"
        },
        {
          "internalType": "uint256",
          "name": "index",
          "type": "uint256"
        }
      ],
      "name": "getVestingScheduleEntry",
      "outputs": [
        {
          "internalType": "uint256[2]",
          "name": "",
          "type": "uint256[2]"
        }
      ],
      "stateMutability": "view",
      "type": "function"
    },
    {
      "inputs": [
        {
          "internalType": "address",
          "name": "account",
          "type": "address"
        },
        {
          "internalType": "uint256",
          "name": "index",
          "type": "uint256"
        }
      ],
      "name": "getVestingTime",
      "outputs": [
        {
          "internalType": "uint256",
          "name": "",
          "type": "uint256"
        }
      ],
      "stateMutability": "view",
      "type": "function"
    },
    {
      "inputs": [
        {
          "internalType": "address",
          "name": "_owner",
          "type": "address"
        }
      ],
      "name": "nominateNewOwner",
      "outputs": [],
      "stateMutability": "nonpayable",
      "type": "function"
    },
    {
      "inputs": [],
      "name": "nominatedOwner",
      "outputs": [
        {
          "internalType": "address",
          "name": "",
          "type": "address"
        }
      ],
      "stateMutability": "view",
      "type": "function"
    },
    {
      "inputs": [
        {
          "internalType": "address",
          "name": "account",
          "type": "address"
        }
      ],
      "name": "numVestingEntries",
      "outputs": [
        {
          "internalType": "uint256",
          "name": "",
          "type": "uint256"
        }
      ],
      "stateMutability": "view",
      "type": "function"
    },
    {
      "inputs": [],
      "name": "owner",
      "outputs": [
        {
          "internalType": "address",
          "name": "",
          "type": "address"
        }
      ],
      "stateMutability": "view",
      "type": "function"
    },
    {
      "inputs": [
        {
          "internalType": "address",
          "name": "account",
          "type": "address"
        }
      ],
      "name": "purgeAccount",
      "outputs": [],
      "stateMutability": "nonpayable",
      "type": "function"
    },
    {
      "inputs": [
        {
          "internalType": "contract ISynthetix",
          "name": "_synthetix",
          "type": "address"
        }
      ],
      "name": "setSynthetix",
      "outputs": [],
      "stateMutability": "nonpayable",
      "type": "function"
    },
    {
      "inputs": [],
      "name": "synthetix",
      "outputs": [
        {
          "internalType": "contract ISynthetix",
          "name": "",
          "type": "address"
        }
      ],
      "stateMutability": "view",
      "type": "function"
    },
    {
      "inputs": [
        {
          "internalType": "address",
          "name": "",
          "type": "address"
        }
      ],
      "name": "totalVestedAccountBalance",
      "outputs": [
        {
          "internalType": "uint256",
          "name": "",
          "type": "uint256"
        }
      ],
      "stateMutability": "view",
      "type": "function"
    },
    {
      "inputs": [],
      "name": "totalVestedBalance",
      "outputs": [
        {
          "internalType": "uint256",
          "name": "",
          "type": "uint256"
        }
      ],
      "stateMutability": "view",
      "type": "function"
    },
    {
      "inputs": [],
      "name": "vest",
      "outputs": [],
      "stateMutability": "nonpayable",
      "type": "function"
    },
    {
      "inputs": [
        {
          "internalType": "address",
          "name": "",
          "type": "address"
        },
        {
          "internalType": "uint256",
          "name": "",
          "type": "uint256"
        },
        {
          "internalType": "uint256",
          "name": "",
          "type": "uint256"
        }
      ],
      "name": "vestingSchedules",
      "outputs": [
        {
          "internalType": "uint256",
          "name": "",
          "type": "uint256"
        }
      ],
      "stateMutability": "view",
      "type": "function"
    },
    {
      "inputs": [
        {
          "internalType": "uint256",
          "name": "quantity",
          "type": "uint256"
        }
      ],
      "name": "withdrawSynthetix",
      "outputs": [],
      "stateMutability": "nonpayable",
      "type": "function"
    }
  ],
  "bytecode": "0x60806040523480156200001157600080fd5b50604051620029fc380380620029fc8339818101604052810190620000379190620001b8565b6249d40082600073ffffffffffffffffffffffffffffffffffffffff168173ffffffffffffffffffffffffffffffffffffffff161415620000af576040517f08c379a0000000000000000000000000000000000000000000000000000000008152600401620000a6906200025e565b60405180910390fd5b806000806101000a81548173ffffffffffffffffffffffffffffffffffffffff021916908373ffffffffffffffffffffffffffffffffffffffff1602179055507fb532073b38c83145e3e5135377a08bf9aab55bc0fd7c1179cd4fb995d2a5159c6000826040516200012392919062000231565b60405180910390a15080426200013a919062000291565b6002819055505080600360006101000a81548173ffffffffffffffffffffffffffffffffffffffff021916908373ffffffffffffffffffffffffffffffffffffffff1602179055505050620003cc565b6000815190506200019b8162000398565b92915050565b600081519050620001b281620003b2565b92915050565b60008060408385031215620001cc57600080fd5b6000620001dc858286016200018a565b9250506020620001ef85828601620001a1565b9150509250929050565b6200020481620002ee565b82525050565b60006200021960198362000280565b915062000226826200036f565b602082019050919050565b6000604082019050620002486000830185620001f9565b620002576020830184620001f9565b9392505050565b6000602082019050818103600083015262000279816200020a565b9050919050565b600082825260208201905092915050565b60006200029e8262000336565b9150620002ab8362000336565b9250827fffffffffffffffffffffffffffffffffffffffffffffffffffffffffffffffff03821115620002e357620002e262000340565b5b828201905092915050565b6000620002fb8262000316565b9050919050565b60006200030f82620002ee565b9050919050565b600073ffffffffffffffffffffffffffffffffffffffff82169050919050565b6000819050919050565b7f4e487b7100000000000000000000000000000000000000000000000000000000600052601160045260246000fd5b7f4f776e657220616464726573732063616e6e6f74206265203000000000000000600082015250565b620003a381620002ee565b8114620003af57600080fd5b50565b620003bd8162000302565b8114620003c957600080fd5b50565b61262080620003dc6000396000f3fe608060405234801561001057600080fd5b506004361061014d5760003560e01c806370a08231116100c3578063a15d59ce1161007c578063a15d59ce146103c4578063bb2a7d0c146103e2578063da7bd3e9146103fe578063e6d76a761461042e578063ee1d036c1461044a578063fec9f9da1461047a5761014d565b806370a08231146102ee578063759b52251461031e57806379ba50971461033c5780638da5cb5b1461034657806397f46527146103645780639b217f90146103945761014d565b8063227d517a11610115578063227d517a146102065780632f5bb66114610236578063458efde31461026657806345e5441f1461027057806353a47bb7146102a05780636b3905c4146102be5761014d565b8063135c0701146101525780631627540c1461016e57806319e740c01461018a5780631bb47b44146101ba578063204b676a146101d6575b600080fd5b61016c60048036038101906101679190611b61565b610496565b005b61018860048036038101906101839190611b61565b610653565b005b6101a4600480360381019061019f9190611b61565b61075c565b6040516101b1919061209e565b60405180910390f35b6101d460048036038101906101cf9190611c45565b6107ae565b005b6101f060048036038101906101eb9190611b61565b610c74565b6040516101fd919061209e565b60405180910390f35b610220600480360381019061021b9190611b61565b610cc0565b60405161022d919061209e565b60405180910390f35b610250600480360381019061024b9190611b61565b610cd8565b60405161025d9190611f68565b60405180910390f35b61026e610d2f565b005b61028a60048036038101906102859190611c45565b611020565b604051610297919061209e565b60405180910390f35b6102a8611065565b6040516102b59190611efb565b60405180910390f35b6102d860048036038101906102d39190611b61565b61108b565b6040516102e5919061209e565b60405180910390f35b61030860048036038101906103039190611b61565b6110db565b604051610315919061209e565b60405180910390f35b610326611124565b6040516103339190611f83565b60405180910390f35b61034461114a565b005b61034e6112fb565b60405161035b9190611efb565b60405180910390f35b61037e60048036038101906103799190611b61565b61131f565b60405161038b919061209e565b60405180910390f35b6103ae60048036038101906103a99190611c09565b61136f565b6040516103bb919061209e565b60405180910390f35b6103cc6113c1565b6040516103d9919061209e565b60405180910390f35b6103fc60048036038101906103f79190611b8a565b6113c7565b005b61041860048036038101906104139190611c09565b611549565b6040516104259190611f68565b60405180910390f35b61044860048036038101906104439190611ce6565b61161a565b005b610464600480360381019061045f9190611c09565b6117c1565b604051610471919061209e565b60405180910390f35b610494600480360381019061048f9190611cbd565b611813565b005b60008054906101000a900473ffffffffffffffffffffffffffffffffffffffff1673ffffffffffffffffffffffffffffffffffffffff163373ffffffffffffffffffffffffffffffffffffffff1614610524576040517f08c379a000000000000000000000000000000000000000000000000000000000815260040161051b9061203e565b60405180910390fd5b6002544210610568576040517f08c379a000000000000000000000000000000000000000000000000000000000815260040161055f9061205e565b60405180910390fd5b600460008273ffffffffffffffffffffffffffffffffffffffff1673ffffffffffffffffffffffffffffffffffffffff16815260200190815260200160002060006105b39190611948565b610607600560008373ffffffffffffffffffffffffffffffffffffffff1673ffffffffffffffffffffffffffffffffffffffff1681526020019081526020016000205460065461191c90919063ffffffff16565b600681905550600560008273ffffffffffffffffffffffffffffffffffffffff1673ffffffffffffffffffffffffffffffffffffffff1681526020019081526020016000206000905550565b60008054906101000a900473ffffffffffffffffffffffffffffffffffffffff1673ffffffffffffffffffffffffffffffffffffffff163373ffffffffffffffffffffffffffffffffffffffff16146106e1576040517f08c379a00000000000000000000000000000000000000000000000000000000081526004016106d89061203e565b60405180910390fd5b80600160006101000a81548173ffffffffffffffffffffffffffffffffffffffff021916908373ffffffffffffffffffffffffffffffffffffffff1602179055507f906a1c6bd7e3091ea86693dd029a831c19049ce77f1dce2ce0bab1cacbabce22816040516107519190611efb565b60405180910390a150565b60008061076883610c74565b905060005b818110156107a3576000610781858361136f565b146107905780925050506107a9565b808061079b906122aa565b91505061076d565b50809150505b919050565b60008054906101000a900473ffffffffffffffffffffffffffffffffffffffff1673ffffffffffffffffffffffffffffffffffffffff163373ffffffffffffffffffffffffffffffffffffffff161461083c576040517f08c379a00000000000000000000000000000000000000000000000000000000081526004016108339061203e565b60405180910390fd5b6002544210610880576040517f08c379a00000000000000000000000000000000000000000000000000000000081526004016108779061205e565b60405180910390fd5b8142106108c2576040517f08c379a00000000000000000000000000000000000000000000000000000000081526004016108b99061207e565b60405180910390fd5b6000811415610906576040517f08c379a00000000000000000000000000000000000000000000000000000000081526004016108fd90611ffe565b60405180910390fd5b61091b8160065461193290919063ffffffff16565b600681905550600360009054906101000a900473ffffffffffffffffffffffffffffffffffffffff1673ffffffffffffffffffffffffffffffffffffffff166370a08231306040518263ffffffff1660e01b815260040161097c9190611efb565b60206040518083038186803b15801561099457600080fd5b505afa1580156109a8573d6000803e3d6000fd5b505050506040513d601f19601f820116820180604052508101906109cc9190611d0f565b6006541115610a10576040517f08c379a0000000000000000000000000000000000000000000000000000000008152600401610a079061201e565b60405180910390fd5b6000600460008573ffffffffffffffffffffffffffffffffffffffff1673ffffffffffffffffffffffffffffffffffffffff1681526020019081526020016000208054905090506014811115610a9b576040517f08c379a0000000000000000000000000000000000000000000000000000000008152600401610a9290611f9e565b60405180910390fd5b6000811415610aed5781600560008673ffffffffffffffffffffffffffffffffffffffff1673ffffffffffffffffffffffffffffffffffffffff16815260200190815260200160002081905550610be2565b82610b0c856001610afd88610c74565b610b0791906121c7565b61136f565b10610b4c576040517f08c379a0000000000000000000000000000000000000000000000000000000008152600401610b4390611fde565b60405180910390fd5b610b9e82600560008773ffffffffffffffffffffffffffffffffffffffff1673ffffffffffffffffffffffffffffffffffffffff1681526020019081526020016000205461193290919063ffffffff16565b600560008673ffffffffffffffffffffffffffffffffffffffff1673ffffffffffffffffffffffffffffffffffffffff168152602001908152602001600020819055505b600460008573ffffffffffffffffffffffffffffffffffffffff1673ffffffffffffffffffffffffffffffffffffffff1681526020019081526020016000206040518060400160405280858152602001848152509080600181540180825580915050600190039060005260206000209060020201600090919091909150906002610c6d92919061196c565b5050505050565b6000600460008373ffffffffffffffffffffffffffffffffffffffff1673ffffffffffffffffffffffffffffffffffffffff168152602001908152602001600020805490509050919050565b60056020528060005260406000206000915090505481565b610ce06119ac565b6000610ceb8361075c565b9050610cf683610c74565b811415610d1c576040518060400160405280600081526020016000815250915050610d2a565b610d268382611549565b9150505b919050565b6000610d3a33610c74565b9050600080600090505b82811015610e62576000610d58338361136f565b905042811115610d685750610e62565b6000610d7433846117c1565b90506000811415610d86575050610e4f565b6040518060400160405280600060ff168152602001600060ff16815250600460003373ffffffffffffffffffffffffffffffffffffffff1673ffffffffffffffffffffffffffffffffffffffff1681526020019081526020016000208481548110610e1a577f4e487b7100000000000000000000000000000000000000000000000000000000600052603260045260246000fd5b9060005260206000209060020201906002610e369291906119ce565b50610e4a818561193290919063ffffffff16565b935050505b8080610e5a906122aa565b915050610d44565b506000811461101c57610e808160065461191c90919063ffffffff16565b600681905550610ed881600560003373ffffffffffffffffffffffffffffffffffffffff1673ffffffffffffffffffffffffffffffffffffffff1681526020019081526020016000205461191c90919063ffffffff16565b600560003373ffffffffffffffffffffffffffffffffffffffff1673ffffffffffffffffffffffffffffffffffffffff16815260200190815260200160002081905550600360009054906101000a900473ffffffffffffffffffffffffffffffffffffffff1673ffffffffffffffffffffffffffffffffffffffff1663a9059cbb33836040518363ffffffff1660e01b8152600401610f78929190611f3f565b602060405180830381600087803b158015610f9257600080fd5b505af1158015610fa6573d6000803e3d6000fd5b505050506040513d601f19601f82011682018060405250810190610fca9190611c94565b503373ffffffffffffffffffffffffffffffffffffffff167ffbeff59d2bfda0d79ea8a29f8c57c66d48c7a13eabbdb90908d9115ec41c9dc642836040516110139291906120b9565b60405180910390a25b5050565b6004602052826000526040600020828154811061103c57600080fd5b9060005260206000209060020201816002811061105857600080fd5b0160009250925050505481565b600160009054906101000a900473ffffffffffffffffffffffffffffffffffffffff1681565b600061109682610cd8565b6000600281106110cf577f4e487b7100000000000000000000000000000000000000000000000000000000600052603260045260246000fd5b60200201519050919050565b6000600560008373ffffffffffffffffffffffffffffffffffffffff1673ffffffffffffffffffffffffffffffffffffffff168152602001908152602001600020549050919050565b600360009054906101000a900473ffffffffffffffffffffffffffffffffffffffff1681565b600160009054906101000a900473ffffffffffffffffffffffffffffffffffffffff1673ffffffffffffffffffffffffffffffffffffffff163373ffffffffffffffffffffffffffffffffffffffff16146111da576040517f08c379a00000000000000000000000000000000000000000000000000000000081526004016111d190611fbe565b60405180910390fd5b7fb532073b38c83145e3e5135377a08bf9aab55bc0fd7c1179cd4fb995d2a5159c60008054906101000a900473ffffffffffffffffffffffffffffffffffffffff16600160009054906101000a900473ffffffffffffffffffffffffffffffffffffffff1660405161124d929190611f16565b60405180910390a1600160009054906101000a900473ffffffffffffffffffffffffffffffffffffffff166000806101000a81548173ffffffffffffffffffffffffffffffffffffffff021916908373ffffffffffffffffffffffffffffffffffffffff1602179055506000600160006101000a81548173ffffffffffffffffffffffffffffffffffffffff021916908373ffffffffffffffffffffffffffffffffffffffff160217905550565b60008054906101000a900473ffffffffffffffffffffffffffffffffffffffff1681565b600061132a82610cd8565b600160028110611363577f4e487b7100000000000000000000000000000000000000000000000000000000600052603260045260246000fd5b60200201519050919050565b600061137b8383611549565b6000600281106113b4577f4e487b7100000000000000000000000000000000000000000000000000000000600052603260045260246000fd5b6020020151905092915050565b60065481565b60008054906101000a900473ffffffffffffffffffffffffffffffffffffffff1673ffffffffffffffffffffffffffffffffffffffff163373ffffffffffffffffffffffffffffffffffffffff1614611455576040517f08c379a000000000000000000000000000000000000000000000000000000000815260040161144c9061203e565b60405180910390fd5b6002544210611499576040517f08c379a00000000000000000000000000000000000000000000000000000000081526004016114909061205e565b60405180910390fd5b60005b825181101561154357611530848483815181106114e2577f4e487b7100000000000000000000000000000000000000000000000000000000600052603260045260246000fd5b6020026020010151848481518110611523577f4e487b7100000000000000000000000000000000000000000000000000000000600052603260045260246000fd5b60200260200101516107ae565b808061153b906122aa565b91505061149c565b50505050565b6115516119ac565b600460008473ffffffffffffffffffffffffffffffffffffffff1673ffffffffffffffffffffffffffffffffffffffff16815260200190815260200160002082815481106115c8577f4e487b7100000000000000000000000000000000000000000000000000000000600052603260045260246000fd5b906000526020600020906002020160028060200260405190810160405280929190826002801561160d576020028201915b8154815260200190600101908083116115f9575b5050505050905092915050565b60008054906101000a900473ffffffffffffffffffffffffffffffffffffffff1673ffffffffffffffffffffffffffffffffffffffff163373ffffffffffffffffffffffffffffffffffffffff16146116a8576040517f08c379a000000000000000000000000000000000000000000000000000000000815260040161169f9061203e565b60405180910390fd5b60025442106116ec576040517f08c379a00000000000000000000000000000000000000000000000000000000081526004016116e39061205e565b60405180910390fd5b600360009054906101000a900473ffffffffffffffffffffffffffffffffffffffff1673ffffffffffffffffffffffffffffffffffffffff1663a9059cbb600360009054906101000a900473ffffffffffffffffffffffffffffffffffffffff16836040518363ffffffff1660e01b815260040161176b929190611f3f565b602060405180830381600087803b15801561178557600080fd5b505af1158015611799573d6000803e3d6000fd5b505050506040513d601f19601f820116820180604052508101906117bd9190611c94565b5050565b60006117cd8383611549565b600160028110611806577f4e487b7100000000000000000000000000000000000000000000000000000000600052603260045260246000fd5b6020020151905092915050565b60008054906101000a900473ffffffffffffffffffffffffffffffffffffffff1673ffffffffffffffffffffffffffffffffffffffff163373ffffffffffffffffffffffffffffffffffffffff16146118a1576040517f08c379a00000000000000000000000000000000000000000000000000000000081526004016118989061203e565b60405180910390fd5b80600360006101000a81548173ffffffffffffffffffffffffffffffffffffffff021916908373ffffffffffffffffffffffffffffffffffffffff1602179055507f46e9c68bd7831071bdd478f1ae4c4a52463961a9d620383a0a121dbfc0e0f06d816040516119119190611efb565b60405180910390a150565b6000818361192a91906121c7565b905092915050565b600081836119409190612171565b905092915050565b50805460008255600202906000526020600020908101906119699190611a13565b50565b826002810192821561199b579160200282015b8281111561199a57825182559160200191906001019061197f565b5b5090506119a89190611a37565b5090565b6040518060400160405280600290602082028036833780820191505090505090565b8260028101928215611a02579160200282015b82811115611a01578251829060ff169055916020019190600101906119e1565b5b509050611a0f9190611a37565b5090565b5b80821115611a335760008181611a2a9190611a54565b50600201611a14565b5090565b5b80821115611a50576000816000905550600101611a38565b5090565b506000815560010160009055565b6000611a75611a7084612107565b6120e2565b90508083825260208201905082856020860282011115611a9457600080fd5b60005b85811015611ac45781611aaa8882611b37565b845260208401935060208301925050600181019050611a97565b5050509392505050565b600081359050611add8161258e565b92915050565b600082601f830112611af457600080fd5b8135611b04848260208601611a62565b91505092915050565b600081519050611b1c816125a5565b92915050565b600081359050611b31816125bc565b92915050565b600081359050611b46816125d3565b92915050565b600081519050611b5b816125d3565b92915050565b600060208284031215611b7357600080fd5b6000611b8184828501611ace565b91505092915050565b600080600060608486031215611b9f57600080fd5b6000611bad86828701611ace565b935050602084013567ffffffffffffffff811115611bca57600080fd5b611bd686828701611ae3565b925050604084013567ffffffffffffffff811115611bf357600080fd5b611bff86828701611ae3565b9150509250925092565b60008060408385031215611c1c57600080fd5b6000611c2a85828601611ace565b9250506020611c3b85828601611b37565b9150509250929050565b600080600060608486031215611c5a57600080fd5b6000611c6886828701611ace565b9350506020611c7986828701611b37565b9250506040611c8a86828701611b37565b9150509250925092565b600060208284031215611ca657600080fd5b6000611cb484828501611b0d565b91505092915050565b600060208284031215611ccf57600080fd5b6000611cdd84828501611b22565b91505092915050565b600060208284031215611cf857600080fd5b6000611d0684828501611b37565b91505092915050565b600060208284031215611d2157600080fd5b6000611d2f84828501611b4c565b91505092915050565b6000611d448383611edd565b60208301905092915050565b611d59816121fb565b82525050565b611d688161213d565b611d728184612155565b9250611d7d82612133565b8060005b83811015611dae578151611d958782611d38565b9650611da083612148565b925050600181019050611d81565b505050505050565b611dbf81612255565b82525050565b6000611dd2601c83612160565b9150611ddd82612362565b602082019050919050565b6000611df5603583612160565b9150611e008261238b565b604082019050919050565b6000611e18603783612160565b9150611e23826123da565b604082019050919050565b6000611e3b601783612160565b9150611e4682612429565b602082019050919050565b6000611e5e604783612160565b9150611e6982612452565b606082019050919050565b6000611e81602f83612160565b9150611e8c826124c7565b604082019050919050565b6000611ea4602983612160565b9150611eaf82612516565b604082019050919050565b6000611ec7601a83612160565b9150611ed282612565565b602082019050919050565b611ee68161224b565b82525050565b611ef58161224b565b82525050565b6000602082019050611f106000830184611d50565b92915050565b6000604082019050611f2b6000830185611d50565b611f386020830184611d50565b9392505050565b6000604082019050611f546000830185611d50565b611f616020830184611eec565b9392505050565b6000604082019050611f7d6000830184611d5f565b92915050565b6000602082019050611f986000830184611db6565b92915050565b60006020820190508181036000830152611fb781611dc5565b9050919050565b60006020820190508181036000830152611fd781611de8565b9050919050565b60006020820190508181036000830152611ff781611e0b565b9050919050565b6000602082019050818103600083015261201781611e2e565b9050919050565b6000602082019050818103600083015261203781611e51565b9050919050565b6000602082019050818103600083015261205781611e74565b9050919050565b6000602082019050818103600083015261207781611e97565b9050919050565b6000602082019050818103600083015261209781611eba565b9050919050565b60006020820190506120b36000830184611eec565b92915050565b60006040820190506120ce6000830185611eec565b6120db6020830184611eec565b9392505050565b60006120ec6120fd565b90506120f88282612279565b919050565b6000604051905090565b600067ffffffffffffffff82111561212257612121612322565b5b602082029050602081019050919050565b6000819050919050565b600060029050919050565b6000602082019050919050565b600081905092915050565b600082825260208201905092915050565b600061217c8261224b565b91506121878361224b565b9250827fffffffffffffffffffffffffffffffffffffffffffffffffffffffffffffffff038211156121bc576121bb6122f3565b5b828201905092915050565b60006121d28261224b565b91506121dd8361224b565b9250828210156121f0576121ef6122f3565b5b828203905092915050565b60006122068261222b565b9050919050565b60008115159050919050565b6000612224826121fb565b9050919050565b600073ffffffffffffffffffffffffffffffffffffffff82169050919050565b6000819050919050565b600061226082612267565b9050919050565b60006122728261222b565b9050919050565b61228282612351565b810181811067ffffffffffffffff821117156122a1576122a0612322565b5b80604052505050565b60006122b58261224b565b91507fffffffffffffffffffffffffffffffffffffffffffffffffffffffffffffffff8214156122e8576122e76122f3565b5b600182019050919050565b7f4e487b7100000000000000000000000000000000000000000000000000000000600052601160045260246000fd5b7f4e487b7100000000000000000000000000000000000000000000000000000000600052604160045260246000fd5b6000601f19601f8301169050919050565b7f56657374696e67207363686564756c6520697320746f6f206c6f6e6700000000600082015250565b7f596f75206d757374206265206e6f6d696e61746564206265666f726520796f7560008201527f2063616e20616363657074206f776e6572736869700000000000000000000000602082015250565b7f43616e6e6f7420616464206e65772076657374656420656e747269657320656160008201527f726c696572207468616e20746865206c617374206f6e65000000000000000000602082015250565b7f5175616e746974792063616e6e6f74206265207a65726f000000000000000000600082015250565b7f4d75737420626520656e6f7567682062616c616e636520696e2074686520636f60008201527f6e747261637420746f2070726f7669646520666f72207468652076657374696e60208201527f6720656e74727900000000000000000000000000000000000000000000000000604082015250565b7f4f6e6c792074686520636f6e7472616374206f776e6572206d6179207065726660008201527f6f726d207468697320616374696f6e0000000000000000000000000000000000602082015250565b7f43616e206f6e6c7920706572666f726d207468697320616374696f6e2064757260008201527f696e672073657475700000000000000000000000000000000000000000000000602082015250565b7f54696d65206d75737420626520696e2074686520667574757265000000000000600082015250565b612597816121fb565b81146125a257600080fd5b50565b6125ae8161220d565b81146125b957600080fd5b50565b6125c581612219565b81146125d057600080fd5b50565b6125dc8161224b565b81146125e757600080fd5b5056fea264697066735822122053b7e3a20762d6adfa5118a663b6129643b6d01e35357cae3b847146de52a50964736f6c63430008040033",
  "linkReferences": {},
  "deployedLinkReferences": {}
}