{
  "_format": "hh-sol-artifact-1",
  "contractName": "SynthetixState",
  "sourceName": "contracts/SynthetixState.sol",
  "abi": [
    {
      "inputs": [
        {
          "internalType": "address",
          "name": "_owner",
          "type": "address"
        },
        {
          "internalType": "address",
          "name": "_associatedContract",
          "type": "address"
        }
      ],
      "stateMutability": "nonpayable",
      "type": "constructor"
    },
    {
      "anonymous": false,
      "inputs": [
        {
          "indexed": false,
          "internalType": "address",
          "name": "associatedContract",
          "type": "address"
        }
      ],
      "name": "AssociatedContractUpdated",
      "type": "event"
    },
    {
      "anonymous": false,
      "inputs": [
        {
          "indexed": false,
          "internalType": "uint256",
          "name": "newRatio",
          "type": "uint256"
        }
      ],
      "name": "IssuanceRatioUpdated",
      "type": "event"
    },
    {
      "anonymous": false,
      "inputs": [
        {
          "indexed": false,
          "internalType": "address",
          "name": "oldOwner",
          "type": "address"
        },
        {
          "indexed": false,
          "internalType": "address",
          "name": "newOwner",
          "type": "address"
        }
      ],
      "name": "OwnerChanged",
      "type": "event"
    },
    {
      "anonymous": false,
      "inputs": [
        {
          "indexed": false,
          "internalType": "address",
          "name": "newOwner",
          "type": "address"
        }
      ],
      "name": "OwnerNominated",
      "type": "event"
    },
    {
      "inputs": [],
      "name": "MAX_ISSUANCE_RATIO",
      "outputs": [
        {
          "internalType": "uint256",
          "name": "",
          "type": "uint256"
        }
      ],
      "stateMutability": "view",
      "type": "function"
    },
    {
      "inputs": [],
      "name": "acceptOwnership",
      "outputs": [],
      "stateMutability": "nonpayable",
      "type": "function"
    },
    {
      "inputs": [
        {
          "internalType": "uint256",
          "name": "value",
          "type": "uint256"
        }
      ],
      "name": "appendDebtLedgerValue",
      "outputs": [],
      "stateMutability": "nonpayable",
      "type": "function"
    },
    {
      "inputs": [],
      "name": "associatedContract",
      "outputs": [
        {
          "internalType": "address",
          "name": "",
          "type": "address"
        }
      ],
      "stateMutability": "view",
      "type": "function"
    },
    {
      "inputs": [
        {
          "internalType": "address",
          "name": "account",
          "type": "address"
        }
      ],
      "name": "clearIssuanceData",
      "outputs": [],
      "stateMutability": "nonpayable",
      "type": "function"
    },
    {
      "inputs": [
        {
          "internalType": "uint256",
          "name": "",
          "type": "uint256"
        }
      ],
      "name": "debtLedger",
      "outputs": [
        {
          "internalType": "uint256",
          "name": "",
          "type": "uint256"
        }
      ],
      "stateMutability": "view",
      "type": "function"
    },
    {
      "inputs": [],
      "name": "debtLedgerLength",
      "outputs": [
        {
          "internalType": "uint256",
          "name": "",
          "type": "uint256"
        }
      ],
      "stateMutability": "view",
      "type": "function"
    },
    {
      "inputs": [],
      "name": "decrementTotalIssuerCount",
      "outputs": [],
      "stateMutability": "nonpayable",
      "type": "function"
    },
    {
      "inputs": [
        {
          "internalType": "address",
          "name": "account",
          "type": "address"
        }
      ],
      "name": "hasIssued",
      "outputs": [
        {
          "internalType": "bool",
          "name": "",
          "type": "bool"
        }
      ],
      "stateMutability": "view",
      "type": "function"
    },
    {
      "inputs": [
        {
          "internalType": "address[]",
          "name": "accounts",
          "type": "address[]"
        },
        {
          "internalType": "uint256[]",
          "name": "sUSDAmounts",
          "type": "uint256[]"
        }
      ],
      "name": "importIssuerData",
      "outputs": [],
      "stateMutability": "nonpayable",
      "type": "function"
    },
    {
      "inputs": [],
      "name": "importedXDRAmount",
      "outputs": [
        {
          "internalType": "uint256",
          "name": "",
          "type": "uint256"
        }
      ],
      "stateMutability": "view",
      "type": "function"
    },
    {
      "inputs": [],
      "name": "incrementTotalIssuerCount",
      "outputs": [],
      "stateMutability": "nonpayable",
      "type": "function"
    },
    {
      "inputs": [
        {
          "internalType": "address",
          "name": "",
          "type": "address"
        }
      ],
      "name": "issuanceData",
      "outputs": [
        {
          "internalType": "uint256",
          "name": "initialDebtOwnership",
          "type": "uint256"
        },
        {
          "internalType": "uint256",
          "name": "debtEntryIndex",
          "type": "uint256"
        }
      ],
      "stateMutability": "view",
      "type": "function"
    },
    {
      "inputs": [],
      "name": "issuanceRatio",
      "outputs": [
        {
          "internalType": "uint256",
          "name": "",
          "type": "uint256"
        }
      ],
      "stateMutability": "view",
      "type": "function"
    },
    {
      "inputs": [],
      "name": "lastDebtLedgerEntry",
      "outputs": [
        {
          "internalType": "uint256",
          "name": "",
          "type": "uint256"
        }
      ],
      "stateMutability": "view",
      "type": "function"
    },
    {
      "inputs": [
        {
          "internalType": "address",
          "name": "_owner",
          "type": "address"
        }
      ],
      "name": "nominateNewOwner",
      "outputs": [],
      "stateMutability": "nonpayable",
      "type": "function"
    },
    {
      "inputs": [],
      "name": "nominatedOwner",
      "outputs": [
        {
          "internalType": "address",
          "name": "",
          "type": "address"
        }
      ],
      "stateMutability": "view",
      "type": "function"
    },
    {
      "inputs": [],
      "name": "owner",
      "outputs": [
        {
          "internalType": "address",
          "name": "",
          "type": "address"
        }
      ],
      "stateMutability": "view",
      "type": "function"
    },
    {
      "inputs": [
        {
          "internalType": "address",
          "name": "",
          "type": "address"
        }
      ],
      "name": "preferredCurrency",
      "outputs": [
        {
          "internalType": "bytes4",
          "name": "",
          "type": "bytes4"
        }
      ],
      "stateMutability": "view",
      "type": "function"
    },
    {
      "inputs": [
        {
          "internalType": "address",
          "name": "_associatedContract",
          "type": "address"
        }
      ],
      "name": "setAssociatedContract",
      "outputs": [],
      "stateMutability": "nonpayable",
      "type": "function"
    },
    {
      "inputs": [
        {
          "internalType": "address",
          "name": "account",
          "type": "address"
        },
        {
          "internalType": "uint256",
          "name": "initialDebtOwnership",
          "type": "uint256"
        }
      ],
      "name": "setCurrentIssuanceData",
      "outputs": [],
      "stateMutability": "nonpayable",
      "type": "function"
    },
    {
      "inputs": [
        {
          "internalType": "uint256",
          "name": "_issuanceRatio",
          "type": "uint256"
        }
      ],
      "name": "setIssuanceRatio",
      "outputs": [],
      "stateMutability": "nonpayable",
      "type": "function"
    },
    {
      "inputs": [
        {
          "internalType": "address",
          "name": "account",
          "type": "address"
        },
        {
          "internalType": "bytes4",
          "name": "currencyKey",
          "type": "bytes4"
        }
      ],
      "name": "setPreferredCurrency",
      "outputs": [],
      "stateMutability": "nonpayable",
      "type": "function"
    },
    {
      "inputs": [],
      "name": "totalIssuerCount",
      "outputs": [
        {
          "internalType": "uint256",
          "name": "",
          "type": "uint256"
        }
      ],
      "stateMutability": "view",
      "type": "function"
    }
  ],
  "bytecode": "0x6080604052600573__$b8d33eeb36ac0d1e81cd70156e0043e778$__63907af6c06040518163ffffffff1660e01b815260040160206040518083038186803b1580156200004b57600080fd5b505af415801562000060573d6000803e3d6000fd5b505050506040513d601f19601f820116820180604052508101906200008691906200034a565b62000092919062000488565b60085573__$b8d33eeb36ac0d1e81cd70156e0043e778$__63907af6c06040518163ffffffff1660e01b815260040160206040518083038186803b158015620000da57600080fd5b505af4158015620000ef573d6000803e3d6000fd5b505050506040513d601f19601f820116820180604052508101906200011591906200034a565b6009553480156200012557600080fd5b5060405162002a6938038062002a6983398181016040528101906200014b919062000309565b62093a80828281600073ffffffffffffffffffffffffffffffffffffffff168173ffffffffffffffffffffffffffffffffffffffff161415620001c5576040517f08c379a0000000000000000000000000000000000000000000000000000000008152600401620001bc90620003f8565b60405180910390fd5b806000806101000a81548173ffffffffffffffffffffffffffffffffffffffff021916908373ffffffffffffffffffffffffffffffffffffffff1602179055507fb532073b38c83145e3e5135377a08bf9aab55bc0fd7c1179cd4fb995d2a5159c60008260405162000239929190620003cb565b60405180910390a15080600260006101000a81548173ffffffffffffffffffffffffffffffffffffffff021916908373ffffffffffffffffffffffffffffffffffffffff1602179055507f73f20cff579e8a4086fa607db83867595f1b6a798e718c0bfa0b94a404128e0381604051620002b49190620003ae565b60405180910390a150508042620002cc91906200042b565b600381905550505050620005b9565b600081519050620002ec8162000585565b92915050565b60008151905062000303816200059f565b92915050565b600080604083850312156200031d57600080fd5b60006200032d85828601620002db565b92505060206200034085828601620002db565b9150509250929050565b6000602082840312156200035d57600080fd5b60006200036d84828501620002f2565b91505092915050565b6200038181620004c0565b82525050565b6000620003966019836200041a565b9150620003a3826200055c565b602082019050919050565b6000602082019050620003c5600083018462000376565b92915050565b6000604082019050620003e2600083018562000376565b620003f1602083018462000376565b9392505050565b60006020820190508181036000830152620004138162000387565b9050919050565b600082825260208201905092915050565b60006200043882620004f4565b91506200044583620004f4565b9250827fffffffffffffffffffffffffffffffffffffffffffffffffffffffffffffffff038211156200047d576200047c620004fe565b5b828201905092915050565b60006200049582620004f4565b9150620004a283620004f4565b925082620004b557620004b46200052d565b5b828204905092915050565b6000620004cd82620004d4565b9050919050565b600073ffffffffffffffffffffffffffffffffffffffff82169050919050565b6000819050919050565b7f4e487b7100000000000000000000000000000000000000000000000000000000600052601160045260246000fd5b7f4e487b7100000000000000000000000000000000000000000000000000000000600052601260045260246000fd5b7f4f776e657220616464726573732063616e6e6f74206265203000000000000000600082015250565b6200059081620004c0565b81146200059c57600080fd5b50565b620005aa81620004f4565b8114620005b657600080fd5b50565b6124a080620005c96000396000f3fe608060405234801561001057600080fd5b50600436106101585760003560e01c80638b3f8088116100c3578063b16c09f01161007c578063b16c09f014610368578063b410a03414610384578063b992812e146103a2578063ba08f299146103d2578063caca2516146103dc578063cd92eba91461040c57610158565b80638b3f8088146102a55780638da5cb5b146102d65780639371bede146102f45780639e49e97614610312578063a764eb451461032e578063aefc4ccb1461034a57610158565b80634631771211610115578063463177121461020957806351dc7f7d1461022757806352f445ca1461024357806353a47bb71461025f578063657c6dc71461027d57806379ba50971461029b57610158565b8063054be0b71461015d57806308d95cd5146101795780631627540c146101a957806316b29c57146101c55780631bfba595146101e35780633d31e97b146101ed575b600080fd5b61017760048036038101906101729190611a21565b61042a565b005b610193600480360381019061018e9190611a21565b61053e565b6040516101a09190611d61565b60405180910390f35b6101c360048036038101906101be9190611914565b610562565b005b6101cd61066b565b6040516101da9190611d61565b60405180910390f35b6101eb610671565b005b61020760048036038101906102029190611a21565b61071f565b005b6102116107db565b60405161021e9190611d61565b60405180910390f35b610241600480360381019061023c919061193d565b610838565b005b61025d60048036038101906102589190611914565b610927565b005b610267610a30565b6040516102749190611bcd565b60405180910390f35b610285610a56565b6040516102929190611d61565b60405180910390f35b6102a3610a5c565b005b6102bf60048036038101906102ba9190611914565b610c0d565b6040516102cd929190611d7c565b60405180910390f35b6102de610c31565b6040516102eb9190611bcd565b60405180910390f35b6102fc610c55565b6040516103099190611d61565b60405180910390f35b61032c600480360381019061032791906119b5565b610c5b565b005b61034860048036038101906103439190611979565b610e28565b005b610352610f4f565b60405161035f9190611bcd565b60405180910390f35b610382600480360381019061037d9190611914565b610f75565b005b61038c61105a565b6040516103999190611d61565b60405180910390f35b6103bc60048036038101906103b79190611914565b611060565b6040516103c99190611c38565b60405180910390f35b6103da6110ae565b005b6103f660048036038101906103f19190611914565b61115c565b6040516104039190611c53565b60405180910390f35b61041461117c565b6040516104219190611d61565b60405180910390f35b60008054906101000a900473ffffffffffffffffffffffffffffffffffffffff1673ffffffffffffffffffffffffffffffffffffffff163373ffffffffffffffffffffffffffffffffffffffff16146104b8576040517f08c379a00000000000000000000000000000000000000000000000000000000081526004016104af90611c8e565b60405180910390fd5b6009548111156104fd576040517f08c379a00000000000000000000000000000000000000000000000000000000081526004016104f490611d41565b60405180910390fd5b806008819055507f63b22e09cc3a33e847c063e35f887bd4ea96bc8c0f93f1f8c311e4fa6d885452816040516105339190611d61565b60405180910390a150565b6006818154811061054e57600080fd5b906000526020600020016000915090505481565b60008054906101000a900473ffffffffffffffffffffffffffffffffffffffff1673ffffffffffffffffffffffffffffffffffffffff163373ffffffffffffffffffffffffffffffffffffffff16146105f0576040517f08c379a00000000000000000000000000000000000000000000000000000000081526004016105e790611c8e565b60405180910390fd5b80600160006101000a81548173ffffffffffffffffffffffffffffffffffffffff021916908373ffffffffffffffffffffffffffffffffffffffff1602179055507f906a1c6bd7e3091ea86693dd029a831c19049ce77f1dce2ce0bab1cacbabce22816040516106609190611bcd565b60405180910390a150565b60075481565b600260009054906101000a900473ffffffffffffffffffffffffffffffffffffffff1673ffffffffffffffffffffffffffffffffffffffff163373ffffffffffffffffffffffffffffffffffffffff1614610701576040517f08c379a00000000000000000000000000000000000000000000000000000000081526004016106f890611ce1565b60405180910390fd5b610717600160055461118990919063ffffffff16565b600581905550565b600260009054906101000a900473ffffffffffffffffffffffffffffffffffffffff1673ffffffffffffffffffffffffffffffffffffffff163373ffffffffffffffffffffffffffffffffffffffff16146107af576040517f08c379a00000000000000000000000000000000000000000000000000000000081526004016107a690611ce1565b60405180910390fd5b600681908060018154018082558091505060019003906000526020600020016000909190919091505550565b6000600660016006805490506107f19190612085565b81548110610828577f4e487b7100000000000000000000000000000000000000000000000000000000600052603260045260246000fd5b9060005260206000200154905090565b600260009054906101000a900473ffffffffffffffffffffffffffffffffffffffff1673ffffffffffffffffffffffffffffffffffffffff163373ffffffffffffffffffffffffffffffffffffffff16146108c8576040517f08c379a00000000000000000000000000000000000000000000000000000000081526004016108bf90611ce1565b60405180910390fd5b80600a60008473ffffffffffffffffffffffffffffffffffffffff1673ffffffffffffffffffffffffffffffffffffffff16815260200190815260200160002060006101000a81548163ffffffff021916908360e01c02179055505050565b60008054906101000a900473ffffffffffffffffffffffffffffffffffffffff1673ffffffffffffffffffffffffffffffffffffffff163373ffffffffffffffffffffffffffffffffffffffff16146109b5576040517f08c379a00000000000000000000000000000000000000000000000000000000081526004016109ac90611c8e565b60405180910390fd5b80600260006101000a81548173ffffffffffffffffffffffffffffffffffffffff021916908373ffffffffffffffffffffffffffffffffffffffff1602179055507f73f20cff579e8a4086fa607db83867595f1b6a798e718c0bfa0b94a404128e0381604051610a259190611bcd565b60405180910390a150565b600160009054906101000a900473ffffffffffffffffffffffffffffffffffffffff1681565b60095481565b600160009054906101000a900473ffffffffffffffffffffffffffffffffffffffff1673ffffffffffffffffffffffffffffffffffffffff163373ffffffffffffffffffffffffffffffffffffffff1614610aec576040517f08c379a0000000000000000000000000000000000000000000000000000000008152600401610ae390611c6e565b60405180910390fd5b7fb532073b38c83145e3e5135377a08bf9aab55bc0fd7c1179cd4fb995d2a5159c60008054906101000a900473ffffffffffffffffffffffffffffffffffffffff16600160009054906101000a900473ffffffffffffffffffffffffffffffffffffffff16604051610b5f929190611be8565b60405180910390a1600160009054906101000a900473ffffffffffffffffffffffffffffffffffffffff166000806101000a81548173ffffffffffffffffffffffffffffffffffffffff021916908373ffffffffffffffffffffffffffffffffffffffff1602179055506000600160006101000a81548173ffffffffffffffffffffffffffffffffffffffff021916908373ffffffffffffffffffffffffffffffffffffffff160217905550565b60046020528060005260406000206000915090508060000154908060010154905082565b60008054906101000a900473ffffffffffffffffffffffffffffffffffffffff1681565b60055481565b60008054906101000a900473ffffffffffffffffffffffffffffffffffffffff1673ffffffffffffffffffffffffffffffffffffffff163373ffffffffffffffffffffffffffffffffffffffff1614610ce9576040517f08c379a0000000000000000000000000000000000000000000000000000000008152600401610ce090611c8e565b60405180910390fd5b6003544210610d2d576040517f08c379a0000000000000000000000000000000000000000000000000000000008152600401610d2490611d01565b60405180910390fd5b8051825114610d71576040517f08c379a0000000000000000000000000000000000000000000000000000000008152600401610d6890611d21565b60405180910390fd5b60005b82518160ff161015610e2357610e10838260ff1681518110610dbf577f4e487b7100000000000000000000000000000000000000000000000000000000600052603260045260246000fd5b6020026020010151838360ff1681518110610e03577f4e487b7100000000000000000000000000000000000000000000000000000000600052603260045260246000fd5b602002602001015161119f565b8080610e1b9061216b565b915050610d74565b505050565b600260009054906101000a900473ffffffffffffffffffffffffffffffffffffffff1673ffffffffffffffffffffffffffffffffffffffff163373ffffffffffffffffffffffffffffffffffffffff1614610eb8576040517f08c379a0000000000000000000000000000000000000000000000000000000008152600401610eaf90611ce1565b60405180910390fd5b80600460008473ffffffffffffffffffffffffffffffffffffffff1673ffffffffffffffffffffffffffffffffffffffff16815260200190815260200160002060000181905550600680549050600460008473ffffffffffffffffffffffffffffffffffffffff1673ffffffffffffffffffffffffffffffffffffffff168152602001908152602001600020600101819055505050565b600260009054906101000a900473ffffffffffffffffffffffffffffffffffffffff1681565b600260009054906101000a900473ffffffffffffffffffffffffffffffffffffffff1673ffffffffffffffffffffffffffffffffffffffff163373ffffffffffffffffffffffffffffffffffffffff1614611005576040517f08c379a0000000000000000000000000000000000000000000000000000000008152600401610ffc90611ce1565b60405180910390fd5b600460008273ffffffffffffffffffffffffffffffffffffffff1673ffffffffffffffffffffffffffffffffffffffff1681526020019081526020016000206000808201600090556001820160009055505050565b60085481565b600080600460008473ffffffffffffffffffffffffffffffffffffffff1673ffffffffffffffffffffffffffffffffffffffff16815260200190815260200160002060000154119050919050565b600260009054906101000a900473ffffffffffffffffffffffffffffffffffffffff1673ffffffffffffffffffffffffffffffffffffffff163373ffffffffffffffffffffffffffffffffffffffff161461113e576040517f08c379a000000000000000000000000000000000000000000000000000000000815260040161113590611ce1565b60405180910390fd5b611154600160055461162d90919063ffffffff16565b600581905550565b600a6020528060005260406000206000915054906101000a900460e01b81565b6000600680549050905090565b600081836111979190611e33565b905092915050565b6000600260009054906101000a900473ffffffffffffffffffffffffffffffffffffffff16905060008173ffffffffffffffffffffffffffffffffffffffff166339d66fc0846040518263ffffffff1660e01b81526004016112019190611cae565b60206040518083038186803b15801561121957600080fd5b505afa15801561122d573d6000803e3d6000fd5b505050506040513d601f19601f820116820180604052508101906112519190611a4a565b905060006007549050600061126f828461118990919063ffffffff16565b905080600781905550600061128d828561164390919063ffffffff16565b9050600061131f8273__$b8d33eeb36ac0d1e81cd70156e0043e778$__63d5e5e6e66040518163ffffffff1660e01b815260040160206040518083038186803b1580156112d957600080fd5b505af41580156112ed573d6000803e3d6000fd5b505050506040513d601f19601f820116820180604052508101906113119190611a4a565b61162d90919063ffffffff16565b905060008673ffffffffffffffffffffffffffffffffffffffff1663274ed2888a6040518263ffffffff1660e01b815260040161135c9190611c11565b60206040518083038186803b15801561137457600080fd5b505afa158015611388573d6000803e3d6000fd5b505050506040513d601f19601f820116820180604052508101906113ac9190611a4a565b905060008111156113df576113dc846113ce838961118990919063ffffffff16565b61164390919063ffffffff16565b92505b6000600460008b73ffffffffffffffffffffffffffffffffffffffff1673ffffffffffffffffffffffffffffffffffffffff16815260200190815260200160002060000154141561144757611440600160055461118990919063ffffffff16565b6005819055505b82600460008b73ffffffffffffffffffffffffffffffffffffffff1673ffffffffffffffffffffffffffffffffffffffff16815260200190815260200160002060000181905550600680549050600460008b73ffffffffffffffffffffffffffffffffffffffff1673ffffffffffffffffffffffffffffffffffffffff168152602001908152602001600020600101819055506000600680549050111561157d57600661155283600660016006805490506115029190612085565b81548110611539577f4e487b7100000000000000000000000000000000000000000000000000000000600052603260045260246000fd5b906000526020600020015461166890919063ffffffff16565b9080600181540180825580915050600190039060005260206000200160009091909190915055611622565b600673__$b8d33eeb36ac0d1e81cd70156e0043e778$__63d5e5e6e66040518163ffffffff1660e01b815260040160206040518083038186803b1580156115c357600080fd5b505af41580156115d7573d6000803e3d6000fd5b505050506040513d601f19601f820116820180604052508101906115fb9190611a4a565b90806001815401808255809150506001900390600052602060002001600090919091909150555b505050505050505050565b6000818361163b9190612085565b905092915050565b60006116608383601b60ff16600a61165b9190611f0d565b61168d565b905092915050565b60006116858383601b60ff16600a6116809190611f0d565b6116fe565b905092915050565b6000806116c1846116b3600a866116a4919061202b565b8861176890919063ffffffff16565b61177e90919063ffffffff16565b90506005600a826116d29190612195565b106116e757600a816116e49190611e33565b90505b600a816116f49190611e89565b9150509392505050565b600080600a8361170e9190611e89565b611721858761176890919063ffffffff16565b61172b9190611e89565b90506005600a8261173c9190612195565b1061175157600a8161174e9190611e33565b90505b600a8161175e9190611e89565b9150509392505050565b60008183611776919061202b565b905092915050565b6000818361178c9190611e89565b905092915050565b60006117a76117a284611dca565b611da5565b905080838252602082019050828560208602820111156117c657600080fd5b60005b858110156117f657816117dc888261186c565b8452602084019350602083019250506001810190506117c9565b5050509392505050565b600061181361180e84611df6565b611da5565b9050808382526020820190508285602086028201111561183257600080fd5b60005b85811015611862578161184888826118ea565b845260208401935060208301925050600181019050611835565b5050509392505050565b60008135905061187b81612425565b92915050565b600082601f83011261189257600080fd5b81356118a2848260208601611794565b91505092915050565b600082601f8301126118bc57600080fd5b81356118cc848260208601611800565b91505092915050565b6000813590506118e48161243c565b92915050565b6000813590506118f981612453565b92915050565b60008151905061190e81612453565b92915050565b60006020828403121561192657600080fd5b60006119348482850161186c565b91505092915050565b6000806040838503121561195057600080fd5b600061195e8582860161186c565b925050602061196f858286016118d5565b9150509250929050565b6000806040838503121561198c57600080fd5b600061199a8582860161186c565b92505060206119ab858286016118ea565b9150509250929050565b600080604083850312156119c857600080fd5b600083013567ffffffffffffffff8111156119e257600080fd5b6119ee85828601611881565b925050602083013567ffffffffffffffff811115611a0b57600080fd5b611a17858286016118ab565b9150509250929050565b600060208284031215611a3357600080fd5b6000611a41848285016118ea565b91505092915050565b600060208284031215611a5c57600080fd5b6000611a6a848285016118ff565b91505092915050565b611a7c816120b9565b82525050565b611a8b816120cb565b82525050565b611a9a816120d7565b82525050565b6000611aad603583611e22565b9150611ab882612271565b604082019050919050565b6000611ad0602f83611e22565b9150611adb826122c0565b604082019050919050565b7f7355534400000000000000000000000000000000000000000000000000000000815250565b6000611b19603483611e22565b9150611b248261230f565b604082019050919050565b6000611b3c602983611e22565b9150611b478261235e565b604082019050919050565b6000611b5f600f83611e22565b9150611b6a826123ad565b602082019050919050565b7f5844520000000000000000000000000000000000000000000000000000000000815250565b6000611ba8603383611e22565b9150611bb3826123d6565b604082019050919050565b611bc781612123565b82525050565b6000602082019050611be26000830184611a73565b92915050565b6000604082019050611bfd6000830185611a73565b611c0a6020830184611a73565b9392505050565b6000604082019050611c266000830184611a73565b611c3260208301611b75565b92915050565b6000602082019050611c4d6000830184611a82565b92915050565b6000602082019050611c686000830184611a91565b92915050565b60006020820190508181036000830152611c8781611aa0565b9050919050565b60006020820190508181036000830152611ca781611ac3565b9050919050565b6000606082019050611cc260008301611ae6565b611ccf6020830184611bbe565b611cdb60408301611b75565b92915050565b60006020820190508181036000830152611cfa81611b0c565b9050919050565b60006020820190508181036000830152611d1a81611b2f565b9050919050565b60006020820190508181036000830152611d3a81611b52565b9050919050565b60006020820190508181036000830152611d5a81611b9b565b9050919050565b6000602082019050611d766000830184611bbe565b92915050565b6000604082019050611d916000830185611bbe565b611d9e6020830184611bbe565b9392505050565b6000611daf611dc0565b9050611dbb828261213a565b919050565b6000604051905090565b600067ffffffffffffffff821115611de557611de4612224565b5b602082029050602081019050919050565b600067ffffffffffffffff821115611e1157611e10612224565b5b602082029050602081019050919050565b600082825260208201905092915050565b6000611e3e82612123565b9150611e4983612123565b9250827fffffffffffffffffffffffffffffffffffffffffffffffffffffffffffffffff03821115611e7e57611e7d6121c6565b5b828201905092915050565b6000611e9482612123565b9150611e9f83612123565b925082611eaf57611eae6121f5565b5b828204905092915050565b6000808291508390505b6001851115611f0457808604811115611ee057611edf6121c6565b5b6001851615611eef5780820291505b8081029050611efd85612264565b9450611ec4565b94509492505050565b6000611f1882612123565b9150611f2383612123565b9250611f507fffffffffffffffffffffffffffffffffffffffffffffffffffffffffffffffff8484611f58565b905092915050565b600082611f685760019050612024565b81611f765760009050612024565b8160018114611f8c5760028114611f9657611fc5565b6001915050612024565b60ff841115611fa857611fa76121c6565b5b8360020a915084821115611fbf57611fbe6121c6565b5b50612024565b5060208310610133831016604e8410600b8410161715611ffa5782820a905083811115611ff557611ff46121c6565b5b612024565b6120078484846001611eba565b9250905081840481111561201e5761201d6121c6565b5b81810290505b9392505050565b600061203682612123565b915061204183612123565b9250817fffffffffffffffffffffffffffffffffffffffffffffffffffffffffffffffff048311821515161561207a576120796121c6565b5b828202905092915050565b600061209082612123565b915061209b83612123565b9250828210156120ae576120ad6121c6565b5b828203905092915050565b60006120c482612103565b9050919050565b60008115159050919050565b60007fffffffff0000000000000000000000000000000000000000000000000000000082169050919050565b600073ffffffffffffffffffffffffffffffffffffffff82169050919050565b6000819050919050565b600060ff82169050919050565b61214382612253565b810181811067ffffffffffffffff8211171561216257612161612224565b5b80604052505050565b60006121768261212d565b915060ff82141561218a576121896121c6565b5b600182019050919050565b60006121a082612123565b91506121ab83612123565b9250826121bb576121ba6121f5565b5b828206905092915050565b7f4e487b7100000000000000000000000000000000000000000000000000000000600052601160045260246000fd5b7f4e487b7100000000000000000000000000000000000000000000000000000000600052601260045260246000fd5b7f4e487b7100000000000000000000000000000000000000000000000000000000600052604160045260246000fd5b6000601f19601f8301169050919050565b60008160011c9050919050565b7f596f75206d757374206265206e6f6d696e61746564206265666f726520796f7560008201527f2063616e20616363657074206f776e6572736869700000000000000000000000602082015250565b7f4f6e6c792074686520636f6e7472616374206f776e6572206d6179207065726660008201527f6f726d207468697320616374696f6e0000000000000000000000000000000000602082015250565b7f4f6e6c7920746865206173736f63696174656420636f6e74726163742063616e60008201527f20706572666f726d207468697320616374696f6e000000000000000000000000602082015250565b7f43616e206f6e6c7920706572666f726d207468697320616374696f6e2064757260008201527f696e672073657475700000000000000000000000000000000000000000000000602082015250565b7f4c656e677468206d69736d617463680000000000000000000000000000000000600082015250565b7f4e65772069737375616e636520726174696f2063616e6e6f742065786365656460008201527f204d41585f49535355414e43455f524154494f00000000000000000000000000602082015250565b61242e816120b9565b811461243957600080fd5b50565b612445816120d7565b811461245057600080fd5b50565b61245c81612123565b811461246757600080fd5b5056fea2646970667358221220f77b54cac2cc3c6ab6f15281a4b411d915c0a9b709a60623feff96cccadaec5064736f6c63430008040033",
  "linkReferences": {
    "contracts/SafeDecimalMath.sol": {
      "SafeDecimalMath": [
        {
          "length": 20,
          "start": 8
        },
        {
          "length": 20,
          "start": 151
        },
        {
          "length": 20,
          "start": 6240
        },
        {
          "length": 20,
          "start": 6986
        }
      ]
    }
  },
  "deployedLinkReferences": {
    "contracts/SafeDecimalMath.sol": {
      "SafeDecimalMath": [
        {
          "length": 20,
          "start": 4759
        },
        {
          "length": 20,
          "start": 5505
        }
      ]
    }
  }
}