{
  "_format": "hh-sol-artifact-1",
  "contractName": "Synthetix",
  "sourceName": "contracts/Synthetix.sol",
  "abi": [
    {
      "inputs": [
        {
          "internalType": "address",
          "name": "_proxy",
          "type": "address"
        },
        {
          "internalType": "contract TokenState",
          "name": "_tokenState",
          "type": "address"
        },
        {
          "internalType": "contract SynthetixState",
          "name": "_synthetixState",
          "type": "address"
        },
        {
          "internalType": "address",
          "name": "_owner",
          "type": "address"
        },
        {
          "internalType": "contract ExchangeRates",
          "name": "_exchangeRates",
          "type": "address"
        },
        {
          "internalType": "contract IFeePool",
          "name": "_feePool",
          "type": "address"
        },
        {
          "internalType": "contract SupplySchedule",
          "name": "_supplySchedule",
          "type": "address"
        },
        {
          "internalType": "contract ISynthetixEscrow",
          "name": "_rewardEscrow",
          "type": "address"
        },
        {
          "internalType": "contract ISynthetixEscrow",
          "name": "_escrow",
          "type": "address"
        },
        {
          "internalType": "uint256",
          "name": "_totalSupply",
          "type": "uint256"
        }
      ],
      "stateMutability": "nonpayable",
      "type": "constructor"
    },
    {
      "anonymous": false,
      "inputs": [
        {
          "indexed": true,
          "internalType": "address",
          "name": "owner",
          "type": "address"
        },
        {
          "indexed": true,
          "internalType": "address",
          "name": "spender",
          "type": "address"
        },
        {
          "indexed": false,
          "internalType": "uint256",
          "name": "value",
          "type": "uint256"
        }
      ],
      "name": "Approval",
      "type": "event"
    },
    {
      "anonymous": false,
      "inputs": [
        {
          "indexed": false,
          "internalType": "address",
          "name": "oldOwner",
          "type": "address"
        },
        {
          "indexed": false,
          "internalType": "address",
          "name": "newOwner",
          "type": "address"
        }
      ],
      "name": "OwnerChanged",
      "type": "event"
    },
    {
      "anonymous": false,
      "inputs": [
        {
          "indexed": false,
          "internalType": "address",
          "name": "newOwner",
          "type": "address"
        }
      ],
      "name": "OwnerNominated",
      "type": "event"
    },
    {
      "anonymous": false,
      "inputs": [
        {
          "indexed": false,
          "internalType": "address",
          "name": "proxyAddress",
          "type": "address"
        }
      ],
      "name": "ProxyUpdated",
      "type": "event"
    },
    {
      "anonymous": false,
      "inputs": [
        {
          "indexed": false,
          "internalType": "address",
          "name": "newBeneficiary",
          "type": "address"
        }
      ],
      "name": "SelfDestructBeneficiaryUpdated",
      "type": "event"
    },
    {
      "anonymous": false,
      "inputs": [
        {
          "indexed": false,
          "internalType": "uint256",
          "name": "selfDestructDelay",
          "type": "uint256"
        }
      ],
      "name": "SelfDestructInitiated",
      "type": "event"
    },
    {
      "anonymous": false,
      "inputs": [],
      "name": "SelfDestructTerminated",
      "type": "event"
    },
    {
      "anonymous": false,
      "inputs": [
        {
          "indexed": false,
          "internalType": "address",
          "name": "beneficiary",
          "type": "address"
        }
      ],
      "name": "SelfDestructed",
      "type": "event"
    },
    {
      "anonymous": false,
      "inputs": [
        {
          "indexed": true,
          "internalType": "address",
          "name": "account",
          "type": "address"
        },
        {
          "indexed": false,
          "internalType": "bytes4",
          "name": "fromCurrencyKey",
          "type": "bytes4"
        },
        {
          "indexed": false,
          "internalType": "uint256",
          "name": "fromAmount",
          "type": "uint256"
        },
        {
          "indexed": false,
          "internalType": "bytes4",
          "name": "toCurrencyKey",
          "type": "bytes4"
        },
        {
          "indexed": false,
          "internalType": "uint256",
          "name": "toAmount",
          "type": "uint256"
        },
        {
          "indexed": false,
          "internalType": "address",
          "name": "toAddress",
          "type": "address"
        }
      ],
      "name": "SynthExchange",
      "type": "event"
    },
    {
      "anonymous": false,
      "inputs": [
        {
          "indexed": false,
          "internalType": "address",
          "name": "newTokenState",
          "type": "address"
        }
      ],
      "name": "TokenStateUpdated",
      "type": "event"
    },
    {
      "anonymous": false,
      "inputs": [
        {
          "indexed": true,
          "internalType": "address",
          "name": "from",
          "type": "address"
        },
        {
          "indexed": true,
          "internalType": "address",
          "name": "to",
          "type": "address"
        },
        {
          "indexed": false,
          "internalType": "uint256",
          "name": "value",
          "type": "uint256"
        }
      ],
      "name": "Transfer",
      "type": "event"
    },
    {
      "inputs": [],
      "name": "SELFDESTRUCT_DELAY",
      "outputs": [
        {
          "internalType": "uint256",
          "name": "",
          "type": "uint256"
        }
      ],
      "stateMutability": "view",
      "type": "function"
    },
    {
      "inputs": [],
      "name": "acceptOwnership",
      "outputs": [],
      "stateMutability": "nonpayable",
      "type": "function"
    },
    {
      "inputs": [
        {
          "internalType": "contract Synth",
          "name": "synth",
          "type": "address"
        }
      ],
      "name": "addSynth",
      "outputs": [],
      "stateMutability": "nonpayable",
      "type": "function"
    },
    {
      "inputs": [
        {
          "internalType": "address",
          "name": "owner",
          "type": "address"
        },
        {
          "internalType": "address",
          "name": "spender",
          "type": "address"
        }
      ],
      "name": "allowance",
      "outputs": [
        {
          "internalType": "uint256",
          "name": "",
          "type": "uint256"
        }
      ],
      "stateMutability": "view",
      "type": "function"
    },
    {
      "inputs": [
        {
          "internalType": "address",
          "name": "spender",
          "type": "address"
        },
        {
          "internalType": "uint256",
          "name": "value",
          "type": "uint256"
        }
      ],
      "name": "approve",
      "outputs": [
        {
          "internalType": "bool",
          "name": "",
          "type": "bool"
        }
      ],
      "stateMutability": "nonpayable",
      "type": "function"
    },
    {
      "inputs": [],
      "name": "availableSynthCount",
      "outputs": [
        {
          "internalType": "uint256",
          "name": "",
          "type": "uint256"
        }
      ],
      "stateMutability": "view",
      "type": "function"
    },
    {
      "inputs": [
        {
          "internalType": "uint256",
          "name": "",
          "type": "uint256"
        }
      ],
      "name": "availableSynths",
      "outputs": [
        {
          "internalType": "contract Synth",
          "name": "",
          "type": "address"
        }
      ],
      "stateMutability": "view",
      "type": "function"
    },
    {
      "inputs": [
        {
          "internalType": "address",
          "name": "account",
          "type": "address"
        }
      ],
      "name": "balanceOf",
      "outputs": [
        {
          "internalType": "uint256",
          "name": "",
          "type": "uint256"
        }
      ],
      "stateMutability": "view",
      "type": "function"
    },
    {
      "inputs": [
        {
          "internalType": "bytes4",
          "name": "currencyKey",
          "type": "bytes4"
        },
        {
          "internalType": "uint256",
          "name": "amount",
          "type": "uint256"
        }
      ],
      "name": "burnSynths",
      "outputs": [],
      "stateMutability": "nonpayable",
      "type": "function"
    },
    {
      "inputs": [
        {
          "internalType": "address",
          "name": "account",
          "type": "address"
        }
      ],
      "name": "collateral",
      "outputs": [
        {
          "internalType": "uint256",
          "name": "",
          "type": "uint256"
        }
      ],
      "stateMutability": "view",
      "type": "function"
    },
    {
      "inputs": [
        {
          "internalType": "address",
          "name": "issuer",
          "type": "address"
        }
      ],
      "name": "collateralisationRatio",
      "outputs": [
        {
          "internalType": "uint256",
          "name": "",
          "type": "uint256"
        }
      ],
      "stateMutability": "view",
      "type": "function"
    },
    {
      "inputs": [
        {
          "internalType": "address",
          "name": "issuer",
          "type": "address"
        },
        {
          "internalType": "bytes4",
          "name": "currencyKey",
          "type": "bytes4"
        }
      ],
      "name": "debtBalanceOf",
      "outputs": [
        {
          "internalType": "uint256",
          "name": "",
          "type": "uint256"
        }
      ],
      "stateMutability": "view",
      "type": "function"
    },
    {
      "inputs": [],
      "name": "decimals",
      "outputs": [
        {
          "internalType": "uint8",
          "name": "",
          "type": "uint8"
        }
      ],
      "stateMutability": "view",
      "type": "function"
    },
    {
      "inputs": [
        {
          "internalType": "bytes4",
          "name": "sourceCurrencyKey",
          "type": "bytes4"
        },
        {
          "internalType": "uint256",
          "name": "sourceAmount",
          "type": "uint256"
        },
        {
          "internalType": "bytes4",
          "name": "destinationCurrencyKey",
          "type": "bytes4"
        }
      ],
      "name": "effectiveValue",
      "outputs": [
        {
          "internalType": "uint256",
          "name": "",
          "type": "uint256"
        }
      ],
      "stateMutability": "view",
      "type": "function"
    },
    {
      "inputs": [],
      "name": "escrow",
      "outputs": [
        {
          "internalType": "contract ISynthetixEscrow",
          "name": "",
          "type": "address"
        }
      ],
      "stateMutability": "view",
      "type": "function"
    },
    {
      "inputs": [
        {
          "internalType": "bytes4",
          "name": "sourceCurrencyKey",
          "type": "bytes4"
        },
        {
          "internalType": "uint256",
          "name": "sourceAmount",
          "type": "uint256"
        },
        {
          "internalType": "bytes4",
          "name": "destinationCurrencyKey",
          "type": "bytes4"
        },
        {
          "internalType": "address",
          "name": "destinationAddress",
          "type": "address"
        }
      ],
      "name": "exchange",
      "outputs": [
        {
          "internalType": "bool",
          "name": "",
          "type": "bool"
        }
      ],
      "stateMutability": "nonpayable",
      "type": "function"
    },
    {
      "inputs": [],
      "name": "exchangeRates",
      "outputs": [
        {
          "internalType": "contract ExchangeRates",
          "name": "",
          "type": "address"
        }
      ],
      "stateMutability": "view",
      "type": "function"
    },
    {
      "inputs": [],
      "name": "feePool",
      "outputs": [
        {
          "internalType": "contract IFeePool",
          "name": "",
          "type": "address"
        }
      ],
      "stateMutability": "view",
      "type": "function"
    },
    {
      "inputs": [],
      "name": "initiateSelfDestruct",
      "outputs": [],
      "stateMutability": "nonpayable",
      "type": "function"
    },
    {
      "inputs": [],
      "name": "initiationTime",
      "outputs": [
        {
          "internalType": "uint256",
          "name": "",
          "type": "uint256"
        }
      ],
      "stateMutability": "view",
      "type": "function"
    },
    {
      "inputs": [
        {
          "internalType": "bytes4",
          "name": "currencyKey",
          "type": "bytes4"
        }
      ],
      "name": "issueMaxSynths",
      "outputs": [],
      "stateMutability": "nonpayable",
      "type": "function"
    },
    {
      "inputs": [
        {
          "internalType": "bytes4",
          "name": "currencyKey",
          "type": "bytes4"
        },
        {
          "internalType": "uint256",
          "name": "amount",
          "type": "uint256"
        }
      ],
      "name": "issueSynths",
      "outputs": [],
      "stateMutability": "nonpayable",
      "type": "function"
    },
    {
      "inputs": [
        {
          "internalType": "address",
          "name": "issuer",
          "type": "address"
        },
        {
          "internalType": "bytes4",
          "name": "currencyKey",
          "type": "bytes4"
        }
      ],
      "name": "maxIssuableSynths",
      "outputs": [
        {
          "internalType": "uint256",
          "name": "",
          "type": "uint256"
        }
      ],
      "stateMutability": "view",
      "type": "function"
    },
    {
      "inputs": [],
      "name": "mint",
      "outputs": [
        {
          "internalType": "bool",
          "name": "",
          "type": "bool"
        }
      ],
      "stateMutability": "nonpayable",
      "type": "function"
    },
    {
      "inputs": [],
      "name": "name",
      "outputs": [
        {
          "internalType": "string",
          "name": "",
          "type": "string"
        }
      ],
      "stateMutability": "view",
      "type": "function"
    },
    {
      "inputs": [
        {
          "internalType": "address",
          "name": "_owner",
          "type": "address"
        }
      ],
      "name": "nominateNewOwner",
      "outputs": [],
      "stateMutability": "nonpayable",
      "type": "function"
    },
    {
      "inputs": [],
      "name": "nominatedOwner",
      "outputs": [
        {
          "internalType": "address",
          "name": "",
          "type": "address"
        }
      ],
      "stateMutability": "view",
      "type": "function"
    },
    {
      "inputs": [],
      "name": "owner",
      "outputs": [
        {
          "internalType": "address",
          "name": "",
          "type": "address"
        }
      ],
      "stateMutability": "view",
      "type": "function"
    },
    {
      "inputs": [],
      "name": "proxy",
      "outputs": [
        {
          "internalType": "contract Proxy",
          "name": "",
          "type": "address"
        }
      ],
      "stateMutability": "view",
      "type": "function"
    },
    {
      "inputs": [
        {
          "internalType": "address",
          "name": "issuer",
          "type": "address"
        },
        {
          "internalType": "bytes4",
          "name": "currencyKey",
          "type": "bytes4"
        }
      ],
      "name": "remainingIssuableSynths",
      "outputs": [
        {
          "internalType": "uint256",
          "name": "",
          "type": "uint256"
        }
      ],
      "stateMutability": "view",
      "type": "function"
    },
    {
      "inputs": [
        {
          "internalType": "bytes4",
          "name": "currencyKey",
          "type": "bytes4"
        }
      ],
      "name": "removeSynth",
      "outputs": [],
      "stateMutability": "nonpayable",
      "type": "function"
    },
    {
      "inputs": [],
      "name": "rewardEscrow",
      "outputs": [
        {
          "internalType": "contract ISynthetixEscrow",
          "name": "",
          "type": "address"
        }
      ],
      "stateMutability": "view",
      "type": "function"
    },
    {
      "inputs": [],
      "name": "selfDestruct",
      "outputs": [],
      "stateMutability": "nonpayable",
      "type": "function"
    },
    {
      "inputs": [],
      "name": "selfDestructBeneficiary",
      "outputs": [
        {
          "internalType": "address",
          "name": "",
          "type": "address"
        }
      ],
      "stateMutability": "view",
      "type": "function"
    },
    {
      "inputs": [],
      "name": "selfDestructInitiated",
      "outputs": [
        {
          "internalType": "bool",
          "name": "",
          "type": "bool"
        }
      ],
      "stateMutability": "view",
      "type": "function"
    },
    {
      "inputs": [
        {
          "internalType": "contract ExchangeRates",
          "name": "_exchangeRates",
          "type": "address"
        }
      ],
      "name": "setExchangeRates",
      "outputs": [],
      "stateMutability": "nonpayable",
      "type": "function"
    },
    {
      "inputs": [
        {
          "internalType": "contract IFeePool",
          "name": "_feePool",
          "type": "address"
        }
      ],
      "name": "setFeePool",
      "outputs": [],
      "stateMutability": "nonpayable",
      "type": "function"
    },
    {
      "inputs": [
        {
          "internalType": "address",
          "name": "sender",
          "type": "address"
        }
      ],
      "name": "setMessageSender",
      "outputs": [],
      "stateMutability": "nonpayable",
      "type": "function"
    },
    {
      "inputs": [
        {
          "internalType": "address payable",
          "name": "_proxy",
          "type": "address"
        }
      ],
      "name": "setProxy",
      "outputs": [],
      "stateMutability": "nonpayable",
      "type": "function"
    },
    {
      "inputs": [
        {
          "internalType": "address",
          "name": "_beneficiary",
          "type": "address"
        }
      ],
      "name": "setSelfDestructBeneficiary",
      "outputs": [],
      "stateMutability": "nonpayable",
      "type": "function"
    },
    {
      "inputs": [
        {
          "internalType": "contract TokenState",
          "name": "_tokenState",
          "type": "address"
        }
      ],
      "name": "setTokenState",
      "outputs": [],
      "stateMutability": "nonpayable",
      "type": "function"
    },
    {
      "inputs": [],
      "name": "supplySchedule",
      "outputs": [
        {
          "internalType": "contract SupplySchedule",
          "name": "",
          "type": "address"
        }
      ],
      "stateMutability": "view",
      "type": "function"
    },
    {
      "inputs": [],
      "name": "symbol",
      "outputs": [
        {
          "internalType": "string",
          "name": "",
          "type": "string"
        }
      ],
      "stateMutability": "view",
      "type": "function"
    },
    {
      "inputs": [
        {
          "internalType": "address",
          "name": "from",
          "type": "address"
        },
        {
          "internalType": "bytes4",
          "name": "sourceCurrencyKey",
          "type": "bytes4"
        },
        {
          "internalType": "uint256",
          "name": "sourceAmount",
          "type": "uint256"
        },
        {
          "internalType": "bytes4",
          "name": "destinationCurrencyKey",
          "type": "bytes4"
        },
        {
          "internalType": "address",
          "name": "destinationAddress",
          "type": "address"
        }
      ],
      "name": "synthInitiatedExchange",
      "outputs": [
        {
          "internalType": "bool",
          "name": "",
          "type": "bool"
        }
      ],
      "stateMutability": "nonpayable",
      "type": "function"
    },
    {
      "inputs": [
        {
          "internalType": "address",
          "name": "from",
          "type": "address"
        },
        {
          "internalType": "bytes4",
          "name": "sourceCurrencyKey",
          "type": "bytes4"
        },
        {
          "internalType": "uint256",
          "name": "sourceAmount",
          "type": "uint256"
        }
      ],
      "name": "synthInitiatedFeePayment",
      "outputs": [
        {
          "internalType": "bool",
          "name": "",
          "type": "bool"
        }
      ],
      "stateMutability": "nonpayable",
      "type": "function"
    },
    {
      "inputs": [],
      "name": "synthetixState",
      "outputs": [
        {
          "internalType": "contract SynthetixState",
          "name": "",
          "type": "address"
        }
      ],
      "stateMutability": "view",
      "type": "function"
    },
    {
      "inputs": [
        {
          "internalType": "bytes4",
          "name": "",
          "type": "bytes4"
        }
      ],
      "name": "synths",
      "outputs": [
        {
          "internalType": "contract Synth",
          "name": "",
          "type": "address"
        }
      ],
      "stateMutability": "view",
      "type": "function"
    },
    {
      "inputs": [],
      "name": "terminateSelfDestruct",
      "outputs": [],
      "stateMutability": "nonpayable",
      "type": "function"
    },
    {
      "inputs": [],
      "name": "tokenState",
      "outputs": [
        {
          "internalType": "contract TokenState",
          "name": "",
          "type": "address"
        }
      ],
      "stateMutability": "view",
      "type": "function"
    },
    {
      "inputs": [
        {
          "internalType": "bytes4",
          "name": "currencyKey",
          "type": "bytes4"
        }
      ],
      "name": "totalIssuedSynths",
      "outputs": [
        {
          "internalType": "uint256",
          "name": "",
          "type": "uint256"
        }
      ],
      "stateMutability": "view",
      "type": "function"
    },
    {
      "inputs": [],
      "name": "totalSupply",
      "outputs": [
        {
          "internalType": "uint256",
          "name": "",
          "type": "uint256"
        }
      ],
      "stateMutability": "view",
      "type": "function"
    },
    {
      "inputs": [
        {
          "internalType": "address",
          "name": "to",
          "type": "address"
        },
        {
          "internalType": "uint256",
          "name": "value",
          "type": "uint256"
        }
      ],
      "name": "transfer",
      "outputs": [
        {
          "internalType": "bool",
          "name": "",
          "type": "bool"
        }
      ],
      "stateMutability": "nonpayable",
      "type": "function"
    },
    {
      "inputs": [
        {
          "internalType": "address",
          "name": "to",
          "type": "address"
        },
        {
          "internalType": "uint256",
          "name": "value",
          "type": "uint256"
        },
        {
          "internalType": "bytes",
          "name": "data",
          "type": "bytes"
        }
      ],
      "name": "transfer",
      "outputs": [
        {
          "internalType": "bool",
          "name": "",
          "type": "bool"
        }
      ],
      "stateMutability": "nonpayable",
      "type": "function"
    },
    {
      "inputs": [
        {
          "internalType": "address",
          "name": "from",
          "type": "address"
        },
        {
          "internalType": "address",
          "name": "to",
          "type": "address"
        },
        {
          "internalType": "uint256",
          "name": "value",
          "type": "uint256"
        }
      ],
      "name": "transferFrom",
      "outputs": [
        {
          "internalType": "bool",
          "name": "",
          "type": "bool"
        }
      ],
      "stateMutability": "nonpayable",
      "type": "function"
    },
    {
      "inputs": [
        {
          "internalType": "address",
          "name": "from",
          "type": "address"
        },
        {
          "internalType": "address",
          "name": "to",
          "type": "address"
        },
        {
          "internalType": "uint256",
          "name": "value",
          "type": "uint256"
        },
        {
          "internalType": "bytes",
          "name": "data",
          "type": "bytes"
        }
      ],
      "name": "transferFrom",
      "outputs": [
        {
          "internalType": "bool",
          "name": "",
          "type": "bool"
        }
      ],
      "stateMutability": "nonpayable",
      "type": "function"
    },
    {
      "inputs": [
        {
          "internalType": "address",
          "name": "account",
          "type": "address"
        }
      ],
      "name": "transferableSynthetix",
      "outputs": [
        {
          "internalType": "uint256",
          "name": "",
          "type": "uint256"
        }
      ],
      "stateMutability": "view",
      "type": "function"
    }
  ],
  "bytecode": "0x60806040526000600560146101000a81548160ff0219169083151502179055503480156200002c57600080fd5b506040516200ab633803806200ab6383398181016040528101906200005291906200074d565b89896040518060400160405280601781526020017f53796e746865746978204e6574776f726b20546f6b656e0000000000000000008152506040518060400160405280600381526020017f534e5800000000000000000000000000000000000000000000000000000000008152508460128c868180600073ffffffffffffffffffffffffffffffffffffffff168173ffffffffffffffffffffffffffffffffffffffff1614156200013a576040517f08c379a000000000000000000000000000000000000000000000000000000000815260040162000131906200097f565b60405180910390fd5b806000806101000a81548173ffffffffffffffffffffffffffffffffffffffff021916908373ffffffffffffffffffffffffffffffffffffffff1602179055507fb532073b38c83145e3e5135377a08bf9aab55bc0fd7c1179cd4fb995d2a5159c600082604051620001ae9291906200090e565b60405180910390a150600073ffffffffffffffffffffffffffffffffffffffff168173ffffffffffffffffffffffffffffffffffffffff1614156200022a576040517f08c379a000000000000000000000000000000000000000000000000000000000815260040162000221906200093b565b60405180910390fd5b80600360016101000a81548173ffffffffffffffffffffffffffffffffffffffff021916908373ffffffffffffffffffffffffffffffffffffffff1602179055507fd5da63a0b864b315bc04128dedbc93888c8529ee6cf47ce664dc204339228c53816040516200029c9190620008d4565b60405180910390a150600073ffffffffffffffffffffffffffffffffffffffff1660008054906101000a900473ffffffffffffffffffffffffffffffffffffffff1673ffffffffffffffffffffffffffffffffffffffff16141562000338576040517f08c379a00000000000000000000000000000000000000000000000000000000081526004016200032f906200095d565b60405180910390fd5b80600460006101000a81548173ffffffffffffffffffffffffffffffffffffffff021916908373ffffffffffffffffffffffffffffffffffffffff1602179055507ffc80377ca9c49cc11ae6982f390a42db976d5530af7c43889264b13fbbd7c57e81604051620003aa9190620008f1565b60405180910390a15085600660006101000a81548173ffffffffffffffffffffffffffffffffffffffff021916908373ffffffffffffffffffffffffffffffffffffffff16021790555084600790805190602001906200040c929190620005e5565b50836008908051906020019062000425929190620005e5565b508260098190555081600a60006101000a81548160ff021916908360ff1602179055505050505050505087601160006101000a81548173ffffffffffffffffffffffffffffffffffffffff021916908373ffffffffffffffffffffffffffffffffffffffff16021790555085601060006101000a81548173ffffffffffffffffffffffffffffffffffffffff021916908373ffffffffffffffffffffffffffffffffffffffff16021790555084600d60006101000a81548173ffffffffffffffffffffffffffffffffffffffff021916908373ffffffffffffffffffffffffffffffffffffffff16021790555083601260006101000a81548173ffffffffffffffffffffffffffffffffffffffff021916908373ffffffffffffffffffffffffffffffffffffffff16021790555082600f60006101000a81548173ffffffffffffffffffffffffffffffffffffffff021916908373ffffffffffffffffffffffffffffffffffffffff16021790555081600e60006101000a81548173ffffffffffffffffffffffffffffffffffffffff021916908373ffffffffffffffffffffffffffffffffffffffff1602179055505050505050505050505062000c7a565b828054620005f39062000aa4565b90600052602060002090601f01602090048101928262000617576000855562000663565b82601f106200063257805160ff191683800117855562000663565b8280016001018555821562000663579182015b828111156200066257825182559160200191906001019062000645565b5b50905062000672919062000676565b5090565b5b808211156200069157600081600090555060010162000677565b5090565b600081519050620006a68162000baa565b92915050565b600081519050620006bd8162000bc4565b92915050565b600081519050620006d48162000bde565b92915050565b600081519050620006eb8162000bf8565b92915050565b600081519050620007028162000c12565b92915050565b600081519050620007198162000c2c565b92915050565b600081519050620007308162000c46565b92915050565b600081519050620007478162000c60565b92915050565b6000806000806000806000806000806101408b8d0312156200076e57600080fd5b60006200077e8d828e0162000695565b9a50506020620007918d828e016200071f565b9950506040620007a48d828e0162000708565b9850506060620007b78d828e0162000695565b9750506080620007ca8d828e01620006ac565b96505060a0620007dd8d828e01620006c3565b95505060c0620007f08d828e01620006f1565b94505060e0620008038d828e01620006da565b935050610100620008178d828e01620006da565b9250506101206200082b8d828e0162000736565b9150509295989b9194979a5092959850565b620008488162000a68565b82525050565b6200085981620009b2565b82525050565b60006200086e602283620009a1565b91506200087b8262000b09565b604082019050919050565b600062000895601183620009a1565b9150620008a28262000b58565b602082019050919050565b6000620008bc601983620009a1565b9150620008c98262000b81565b602082019050919050565b6000602082019050620008eb60008301846200084e565b92915050565b60006020820190506200090860008301846200083d565b92915050565b60006040820190506200092560008301856200084e565b6200093460208301846200084e565b9392505050565b6000602082019050818103600083015262000956816200085f565b9050919050565b60006020820190508181036000830152620009788162000886565b9050919050565b600060208201905081810360008301526200099a81620008ad565b9050919050565b600082825260208201905092915050565b6000620009bf8262000a3e565b9050919050565b6000620009d382620009b2565b9050919050565b6000620009e782620009b2565b9050919050565b6000620009fb82620009b2565b9050919050565b600062000a0f82620009b2565b9050919050565b600062000a2382620009b2565b9050919050565b600062000a3782620009b2565b9050919050565b600073ffffffffffffffffffffffffffffffffffffffff82169050919050565b6000819050919050565b600062000a758262000a7c565b9050919050565b600062000a898262000a90565b9050919050565b600062000a9d8262000a3e565b9050919050565b6000600282049050600182168062000abd57607f821691505b6020821081141562000ad45762000ad362000ada565b5b50919050565b7f4e487b7100000000000000000000000000000000000000000000000000000000600052602260045260246000fd5b7f4f776e6572206d757374206e6f7420626520746865207a65726f20616464726560008201527f7373000000000000000000000000000000000000000000000000000000000000602082015250565b7f4f776e6572206d75737420626520736574000000000000000000000000000000600082015250565b7f4f776e657220616464726573732063616e6e6f74206265203000000000000000600082015250565b62000bb581620009b2565b811462000bc157600080fd5b50565b62000bcf81620009c6565b811462000bdb57600080fd5b50565b62000be981620009da565b811462000bf557600080fd5b50565b62000c0381620009ee565b811462000c0f57600080fd5b50565b62000c1d8162000a02565b811462000c2957600080fd5b50565b62000c378162000a16565b811462000c4357600080fd5b50565b62000c518162000a2a565b811462000c5d57600080fd5b50565b62000c6b8162000a5e565b811462000c7757600080fd5b50565b619ed98062000c8a6000396000f3fe608060405234801561001057600080fd5b50600436106103785760003560e01c806395d89b41116101d3578063b8225dec11610104578063c58aaae6116100a2578063dd62ed3e1161007c578063dd62ed3e14610a83578063e2fdcc1714610ab3578063e90dd9e214610ad1578063ec55688914610aef57610378565b8063c58aaae614610a29578063dbd4a42214610a47578063dbf6334014610a6557610378565b8063be0ecd32116100de578063be0ecd321461097b578063be45fd62146109ab578063be576364146109db578063c40dd66f14610a0b57610378565b8063b8225dec14610937578063bc67f83214610955578063bd32aa441461097157610378565b8063a430be6c11610171578063a9059cbb1161014b578063a9059cbb1461089d578063ab67aa58146108cd578063ae2e933b146108fd578063af0233351461091b57610378565b8063a430be6c14610831578063a461fc821461084f578063a5fdc5de1461086d57610378565b80639f769807116101ad5780639f769807146107995780639f9f83dd146107b55780639ff8c63f146107e5578063a311c7c21461080157610378565b806395d89b411461075557806397107d6d146107735780639cb8a26a1461078f57610378565b8063405d3adf116102ad57806370a082311161024b578063835e119c11610225578063835e119c146106cf578063849cf588146106ff57806384dcde971461071b5780638da5cb5b1461073757610378565b806370a082311461066557806379ba509714610695578063807d94a71461069f57610378565b8063502b8bda11610287578063502b8bda146105cb57806353a47bb7146105fb57806356e44954146106195780636ac0bf9c1461063557610378565b8063405d3adf1461056157806349755b9e146105915780634ffcd9df146105ad57610378565b806320714f881161031a578063313ce567116102f4578063313ce567146104d95780633278c960146104f757806339d66fc014610501578063403dca551461053157610378565b806320714f881461045d57806323b872dd14610479578063274ed288146104a957610378565b80631627540c116103565780631627540c146103e957806317c70de41461040557806318160ddd1461042357806319db22281461044157610378565b806306fdde031461037d578063095ea7b31461039b5780631249c58b146103cb575b600080fd5b610385610b0d565b6040516103929190618a9c565b60405180910390f35b6103b560048036038101906103b09190617c4f565b610b9b565b6040516103c291906187da565b60405180910390f35b6103d3610d02565b6040516103e091906187da565b60405180910390f35b61040360048036038101906103fe91906179cc565b61138e565b005b61040d611497565b60405161041a9190618ec5565b60405180910390f35b61042b61149d565b6040516104389190618ec5565b60405180910390f35b61045b60048036038101906104569190617e84565b6114a3565b005b610477600480360381019061047291906179cc565b61162e565b005b610493600480360381019061048e9190617a83565b6117a7565b6040516104a091906187da565b60405180910390f35b6104c360048036038101906104be9190617b4d565b6117c1565b6040516104d09190618ec5565b60405180910390f35b6104e1611a41565b6040516104ee9190618ee0565b60405180910390f35b6104ff611a54565b005b61051b60048036038101906105169190617da9565b611b33565b6040516105289190618ec5565b60405180910390f35b61054b60048036038101906105469190617d1b565b611ee0565b6040516105589190618ec5565b60405180910390f35b61057b60048036038101906105769190617df8565b61244c565b60405161058891906187da565b60405180910390f35b6105ab60048036038101906105a69190617d6d565b612641565b005b6105b561285c565b6040516105c291906189c4565b60405180910390f35b6105e560048036038101906105e09190617d1b565b612882565b6040516105f29190618a4b565b60405180910390f35b6106036128b5565b604051610610919061865b565b60405180910390f35b610633600480360381019061062e9190617e5b565b6128db565b005b61064f600480360381019061064a91906179cc565b612a66565b60405161065c9190618ec5565b60405180910390f35b61067f600480360381019061067a91906179cc565b612d2b565b60405161068c9190618ec5565b60405180910390f35b61069d612ddf565b005b6106b960048036038101906106b49190617b4d565b612f90565b6040516106c69190618ec5565b60405180910390f35b6106e960048036038101906106e49190617eff565b613083565b6040516106f69190618a4b565b60405180910390f35b61071960048036038101906107149190617ead565b6130c2565b005b61073560048036038101906107309190617d1b565b613462565b005b61073f613bc4565b60405161074c919061865b565b60405180910390f35b61075d613be8565b60405161076a9190618a9c565b60405180910390f35b61078d60048036038101906107889190617a1e565b613c76565b005b610797613d7f565b005b6107b360048036038101906107ae9190617ed6565b613f25565b005b6107cf60048036038101906107ca9190617b4d565b6140b9565b6040516107dc9190618ec5565b60405180910390f35b6107ff60048036038101906107fa9190617d1b565b6140ff565b005b61081b600480360381019061081691906179cc565b6141d4565b6040516108289190618ec5565b60405180910390f35b610839614240565b60405161084691906189fa565b60405180910390f35b610857614266565b6040516108649190618ec5565b60405180910390f35b610887600480360381019061088291906179cc565b61426d565b6040516108949190618ec5565b60405180910390f35b6108b760048036038101906108b29190617c4f565b614544565b6040516108c491906187da565b60405180910390f35b6108e760048036038101906108e29190617ad2565b61455c565b6040516108f491906187da565b60405180910390f35b61090561467c565b60405161091291906189df565b60405180910390f35b61093560048036038101906109309190617d6d565b6146a2565b005b61093f61496b565b60405161094c91906187da565b60405180910390f35b61096f600480360381019061096a91906179cc565b61497e565b005b610979614a52565b005b61099560048036038101906109909190617bd8565b614b3e565b6040516109a291906187da565b60405180910390f35b6109c560048036038101906109c09190617c8b565b614d2f565b6040516109d291906187da565b60405180910390f35b6109f560048036038101906109f09190617b89565b614e6f565b604051610a0291906187da565b60405180910390f35b610a13615144565b604051610a209190618a30565b60405180910390f35b610a3161516a565b604051610a3e919061865b565b60405180910390f35b610a4f615190565b604051610a5c9190618a66565b60405180910390f35b610a6d6151b6565b604051610a7a9190618ec5565b60405180910390f35b610a9d6004803603810190610a989190617a47565b6151c3565b604051610aaa9190618ec5565b60405180910390f35b610abb61527a565b604051610ac891906189fa565b60405180910390f35b610ad96152a0565b604051610ae69190618a81565b60405180910390f35b610af76152c6565b604051610b049190618a15565b60405180910390f35b60078054610b1a90619570565b80601f0160208091040260200160405190810160405280929190818152602001828054610b4690619570565b8015610b935780601f10610b6857610100808354040283529160200191610b93565b820191906000526020600020905b815481529060010190602001808311610b7657829003601f168201915b505050505081565b6000600460009054906101000a900473ffffffffffffffffffffffffffffffffffffffff1673ffffffffffffffffffffffffffffffffffffffff163373ffffffffffffffffffffffffffffffffffffffff1614610c345733600560006101000a81548173ffffffffffffffffffffffffffffffffffffffff021916908373ffffffffffffffffffffffffffffffffffffffff1602179055505b6000600560009054906101000a900473ffffffffffffffffffffffffffffffffffffffff169050600660009054906101000a900473ffffffffffffffffffffffffffffffffffffffff1673ffffffffffffffffffffffffffffffffffffffff1663da46098c8286866040518463ffffffff1660e01b8152600401610cba939291906186ba565b600060405180830381600087803b158015610cd457600080fd5b505af1158015610ce8573d6000803e3d6000fd5b50505050610cf78185856152ec565b600191505092915050565b60008073ffffffffffffffffffffffffffffffffffffffff16600f60009054906101000a900473ffffffffffffffffffffffffffffffffffffffff1673ffffffffffffffffffffffffffffffffffffffff161415610d95576040517f08c379a0000000000000000000000000000000000000000000000000000000008152600401610d8c90618b9e565b60405180910390fd5b6000601260009054906101000a900473ffffffffffffffffffffffffffffffffffffffff1673ffffffffffffffffffffffffffffffffffffffff1663cc5c095c6040518163ffffffff1660e01b815260040160206040518083038186803b158015610dff57600080fd5b505afa158015610e13573d6000803e3d6000fd5b505050506040513d601f19601f82011682018060405250810190610e379190617f28565b905060008111610e7c576040517f08c379a0000000000000000000000000000000000000000000000000000000008152600401610e7390618e45565b60405180910390fd5b601260009054906101000a900473ffffffffffffffffffffffffffffffffffffffff1673ffffffffffffffffffffffffffffffffffffffff166349e701596040518163ffffffff1660e01b8152600401602060405180830381600087803b158015610ee657600080fd5b505af1158015610efa573d6000803e3d6000fd5b505050506040513d601f19601f82011682018060405250810190610f1e9190617cf2565b506000601260009054906101000a900473ffffffffffffffffffffffffffffffffffffffff1673ffffffffffffffffffffffffffffffffffffffff16639bdd7ac76040518163ffffffff1660e01b815260040160206040518083038186803b158015610f8957600080fd5b505afa158015610f9d573d6000803e3d6000fd5b505050506040513d601f19601f82011682018060405250810190610fc19190617f28565b9050600660009054906101000a900473ffffffffffffffffffffffffffffffffffffffff1673ffffffffffffffffffffffffffffffffffffffff1663b46310f6600f60009054906101000a900473ffffffffffffffffffffffffffffffffffffffff168385600660009054906101000a900473ffffffffffffffffffffffffffffffffffffffff1673ffffffffffffffffffffffffffffffffffffffff166370a08231600f60009054906101000a900473ffffffffffffffffffffffffffffffffffffffff166040518263ffffffff1660e01b81526004016110a3919061865b565b60206040518083038186803b1580156110bb57600080fd5b505afa1580156110cf573d6000803e3d6000fd5b505050506040513d601f19601f820116820180604052508101906110f39190617f28565b6110fd9190618fcd565b611107919061921f565b6040518363ffffffff1660e01b815260040161112492919061871a565b600060405180830381600087803b15801561113e57600080fd5b505af1158015611152573d6000803e3d6000fd5b5050505061118e30600f60009054906101000a900473ffffffffffffffffffffffffffffffffffffffff168385611189919061921f565b6153d9565b600d60009054906101000a900473ffffffffffffffffffffffffffffffffffffffff1673ffffffffffffffffffffffffffffffffffffffff1663e3f060ae82846111d8919061921f565b6040518263ffffffff1660e01b81526004016111f49190618ec5565b600060405180830381600087803b15801561120e57600080fd5b505af1158015611222573d6000803e3d6000fd5b50505050600660009054906101000a900473ffffffffffffffffffffffffffffffffffffffff1673ffffffffffffffffffffffffffffffffffffffff1663b46310f63383600660009054906101000a900473ffffffffffffffffffffffffffffffffffffffff1673ffffffffffffffffffffffffffffffffffffffff166370a08231336040518263ffffffff1660e01b81526004016112c1919061865b565b60206040518083038186803b1580156112d957600080fd5b505afa1580156112ed573d6000803e3d6000fd5b505050506040513d601f19601f820116820180604052508101906113119190617f28565b61131b9190618fcd565b6040518363ffffffff1660e01b815260040161133892919061871a565b600060405180830381600087803b15801561135257600080fd5b505af1158015611366573d6000803e3d6000fd5b505050506113753033836153d9565b816009546113839190618fcd565b600981905550505090565b60008054906101000a900473ffffffffffffffffffffffffffffffffffffffff1673ffffffffffffffffffffffffffffffffffffffff163373ffffffffffffffffffffffffffffffffffffffff161461141c576040517f08c379a000000000000000000000000000000000000000000000000000000000815260040161141390618d1e565b60405180910390fd5b80600160006101000a81548173ffffffffffffffffffffffffffffffffffffffff021916908373ffffffffffffffffffffffffffffffffffffffff1602179055507f906a1c6bd7e3091ea86693dd029a831c19049ce77f1dce2ce0bab1cacbabce228160405161148c919061865b565b60405180910390a150565b60025481565b60095481565b600460009054906101000a900473ffffffffffffffffffffffffffffffffffffffff1673ffffffffffffffffffffffffffffffffffffffff163373ffffffffffffffffffffffffffffffffffffffff161461153a5733600560006101000a81548173ffffffffffffffffffffffffffffffffffffffff021916908373ffffffffffffffffffffffffffffffffffffffff1602179055505b60008054906101000a900473ffffffffffffffffffffffffffffffffffffffff1673ffffffffffffffffffffffffffffffffffffffff16600560009054906101000a900473ffffffffffffffffffffffffffffffffffffffff1673ffffffffffffffffffffffffffffffffffffffff16146115ea576040517f08c379a00000000000000000000000000000000000000000000000000000000081526004016115e190618d9e565b60405180910390fd5b80600d60006101000a81548173ffffffffffffffffffffffffffffffffffffffff021916908373ffffffffffffffffffffffffffffffffffffffff16021790555050565b60008054906101000a900473ffffffffffffffffffffffffffffffffffffffff1673ffffffffffffffffffffffffffffffffffffffff163373ffffffffffffffffffffffffffffffffffffffff16146116bc576040517f08c379a00000000000000000000000000000000000000000000000000000000081526004016116b390618d1e565b60405180910390fd5b600073ffffffffffffffffffffffffffffffffffffffff168173ffffffffffffffffffffffffffffffffffffffff16141561172c576040517f08c379a000000000000000000000000000000000000000000000000000000000815260040161172390618c9e565b60405180910390fd5b80600360016101000a81548173ffffffffffffffffffffffffffffffffffffffff021916908373ffffffffffffffffffffffffffffffffffffffff1602179055507fd5da63a0b864b315bc04128dedbc93888c8529ee6cf47ce664dc204339228c538160405161179c919061865b565b60405180910390a150565b600060606117b78585858461455c565b9150509392505050565b6000806000601160009054906101000a900473ffffffffffffffffffffffffffffffffffffffff1673ffffffffffffffffffffffffffffffffffffffff16638b3f8088866040518263ffffffff1660e01b8152600401611821919061865b565b604080518083038186803b15801561183857600080fd5b505afa15801561184c573d6000803e3d6000fd5b505050506040513d601f19601f820116820180604052508101906118709190617f51565b8092508193505050600082141561188c57600092505050611a3b565b60006119fc836119ee601160009054906101000a900473ffffffffffffffffffffffffffffffffffffffff1673ffffffffffffffffffffffffffffffffffffffff166308d95cd5866040518263ffffffff1660e01b81526004016118f09190618ec5565b60206040518083038186803b15801561190857600080fd5b505afa15801561191c573d6000803e3d6000fd5b505050506040513d601f19601f820116820180604052508101906119409190617f28565b601160009054906101000a900473ffffffffffffffffffffffffffffffffffffffff1673ffffffffffffffffffffffffffffffffffffffff1663463177126040518163ffffffff1660e01b815260040160206040518083038186803b1580156119a857600080fd5b505afa1580156119bc573d6000803e3d6000fd5b505050506040513d601f19601f820116820180604052508101906119e09190617f28565b6154c690919063ffffffff16565b6154eb90919063ffffffff16565b90506000611a0986611ee0565b90506000611a2883611a1a84615510565b6154eb90919063ffffffff16565b9050611a3381615548565b955050505050505b92915050565b600a60009054906101000a900460ff1681565b60008054906101000a900473ffffffffffffffffffffffffffffffffffffffff1673ffffffffffffffffffffffffffffffffffffffff163373ffffffffffffffffffffffffffffffffffffffff1614611ae2576040517f08c379a0000000000000000000000000000000000000000000000000000000008152600401611ad990618d1e565b60405180910390fd5b60006002819055506000600360006101000a81548160ff0219169083151502179055507f6adcc7125002935e0aa31697538ebbd65cfddf20431eb6ecdcfc3e238bfd082c60405160405180910390a1565b600083601060009054906101000a900473ffffffffffffffffffffffffffffffffffffffff1673ffffffffffffffffffffffffffffffffffffffff1663ea3d4109826040518263ffffffff1660e01b8152600401611b9191906187f5565b60206040518083038186803b158015611ba957600080fd5b505afa158015611bbd573d6000803e3d6000fd5b505050506040513d601f19601f82011682018060405250810190611be19190617cf2565b15611c21576040517f08c379a0000000000000000000000000000000000000000000000000000000008152600401611c1890618b3e565b60405180910390fd5b82601060009054906101000a900473ffffffffffffffffffffffffffffffffffffffff1673ffffffffffffffffffffffffffffffffffffffff1663ea3d4109826040518263ffffffff1660e01b8152600401611c7d91906187f5565b60206040518083038186803b158015611c9557600080fd5b505afa158015611ca9573d6000803e3d6000fd5b505050506040513d601f19601f82011682018060405250810190611ccd9190617cf2565b15611d0d576040517f08c379a0000000000000000000000000000000000000000000000000000000008152600401611d0490618b3e565b60405180910390fd5b837bffffffffffffffffffffffffffffffffffffffffffffffffffffffff1916867bffffffffffffffffffffffffffffffffffffffffffffffffffffffff19161415611d5b57849250611ed7565b611ed4601060009054906101000a900473ffffffffffffffffffffffffffffffffffffffff1673ffffffffffffffffffffffffffffffffffffffff1663af1ff972866040518263ffffffff1660e01b8152600401611db991906187f5565b60206040518083038186803b158015611dd157600080fd5b505afa158015611de5573d6000803e3d6000fd5b505050506040513d601f19601f82011682018060405250810190611e099190617f28565b611ec6601060009054906101000a900473ffffffffffffffffffffffffffffffffffffffff1673ffffffffffffffffffffffffffffffffffffffff1663af1ff9728a6040518263ffffffff1660e01b8152600401611e6791906187f5565b60206040518083038186803b158015611e7f57600080fd5b505afa158015611e93573d6000803e3d6000fd5b505050506040513d601f19601f82011682018060405250810190611eb79190617f28565b886155ba90919063ffffffff16565b6155df90919063ffffffff16565b92505b50509392505050565b600081601060009054906101000a900473ffffffffffffffffffffffffffffffffffffffff1673ffffffffffffffffffffffffffffffffffffffff1663ea3d4109826040518263ffffffff1660e01b8152600401611f3e91906187f5565b60206040518083038186803b158015611f5657600080fd5b505afa158015611f6a573d6000803e3d6000fd5b505050506040513d601f19601f82011682018060405250810190611f8e9190617cf2565b15611fce576040517f08c379a0000000000000000000000000000000000000000000000000000000008152600401611fc590618b3e565b60405180910390fd5b600080601060009054906101000a900473ffffffffffffffffffffffffffffffffffffffff1673ffffffffffffffffffffffffffffffffffffffff1663af1ff972866040518263ffffffff1660e01b815260040161202c91906187f5565b60206040518083038186803b15801561204457600080fd5b505afa158015612058573d6000803e3d6000fd5b505050506040513d601f19601f8201168201806040525081019061207c9190617f28565b9050601060009054906101000a900473ffffffffffffffffffffffffffffffffffffffff1673ffffffffffffffffffffffffffffffffffffffff1663370d62ad6120c4615604565b6040518263ffffffff1660e01b81526004016120e091906187b8565b60206040518083038186803b1580156120f857600080fd5b505afa15801561210c573d6000803e3d6000fd5b505050506040513d601f19601f820116820180604052508101906121309190617cf2565b15612170576040517f08c379a000000000000000000000000000000000000000000000000000000000815260040161216790618afe565b60405180910390fd5b60005b600b805490508160ff16101561244057600061241c8361240e601060009054906101000a900473ffffffffffffffffffffffffffffffffffffffff1673ffffffffffffffffffffffffffffffffffffffff1663af1ff972600b8760ff1681548110612207577f4e487b7100000000000000000000000000000000000000000000000000000000600052603260045260246000fd5b9060005260206000200160009054906101000a900473ffffffffffffffffffffffffffffffffffffffff1673ffffffffffffffffffffffffffffffffffffffff1663dbd06c856040518163ffffffff1660e01b815260040160206040518083038186803b15801561227757600080fd5b505afa15801561228b573d6000803e3d6000fd5b505050506040513d601f19601f820116820180604052508101906122af9190617d44565b6040518263ffffffff1660e01b81526004016122cb91906187f5565b60206040518083038186803b1580156122e357600080fd5b505afa1580156122f7573d6000803e3d6000fd5b505050506040513d601f19601f8201168201806040525081019061231b9190617f28565b600b8660ff1681548110612358577f4e487b7100000000000000000000000000000000000000000000000000000000600052603260045260246000fd5b9060005260206000200160009054906101000a900473ffffffffffffffffffffffffffffffffffffffff1673ffffffffffffffffffffffffffffffffffffffff166318160ddd6040518163ffffffff1660e01b815260040160206040518083038186803b1580156123c857600080fd5b505afa1580156123dc573d6000803e3d6000fd5b505050506040513d601f19601f820116820180604052508101906124009190617f28565b6155ba90919063ffffffff16565b6155df90919063ffffffff16565b9050808461242a9190618fcd565b9350508080612438906195d3565b915050612173565b50819350505050919050565b6000600460009054906101000a900473ffffffffffffffffffffffffffffffffffffffff1673ffffffffffffffffffffffffffffffffffffffff163373ffffffffffffffffffffffffffffffffffffffff16146124e55733600560006101000a81548173ffffffffffffffffffffffffffffffffffffffff021916908373ffffffffffffffffffffffffffffffffffffffff1602179055505b827bffffffffffffffffffffffffffffffffffffffffffffffffffffffff1916857bffffffffffffffffffffffffffffffffffffffffffffffffffffffff19161415612566576040517f08c379a000000000000000000000000000000000000000000000000000000000815260040161255d90618dfe565b60405180910390fd5b600084116125a9576040517f08c379a00000000000000000000000000000000000000000000000000000000081526004016125a090618c1e565b60405180910390fd5b612637600560009054906101000a900473ffffffffffffffffffffffffffffffffffffffff16868686600073ffffffffffffffffffffffffffffffffffffffff168773ffffffffffffffffffffffffffffffffffffffff161461260c5786612630565b600560009054906101000a900473ffffffffffffffffffffffffffffffffffffffff165b6001615819565b9050949350505050565b600460009054906101000a900473ffffffffffffffffffffffffffffffffffffffff1673ffffffffffffffffffffffffffffffffffffffff163373ffffffffffffffffffffffffffffffffffffffff16146126d85733600560006101000a81548173ffffffffffffffffffffffffffffffffffffffff021916908373ffffffffffffffffffffffffffffffffffffffff1602179055505b612704600560009054906101000a900473ffffffffffffffffffffffffffffffffffffffff16836140b9565b811115612746576040517f08c379a000000000000000000000000000000000000000000000000000000000815260040161273d90618bfe565b60405180910390fd5b6127508282616073565b600c6000837bffffffffffffffffffffffffffffffffffffffffffffffffffffffff19167bffffffffffffffffffffffffffffffffffffffffffffffffffffffff1916815260200190815260200160002060009054906101000a900473ffffffffffffffffffffffffffffffffffffffff1673ffffffffffffffffffffffffffffffffffffffff1663867904b4600560009054906101000a900473ffffffffffffffffffffffffffffffffffffffff16836040518363ffffffff1660e01b815260040161281e92919061871a565b600060405180830381600087803b15801561283857600080fd5b505af115801561284c573d6000803e3d6000fd5b50505050612858616795565b5050565b601060009054906101000a900473ffffffffffffffffffffffffffffffffffffffff1681565b600c6020528060005260406000206000915054906101000a900473ffffffffffffffffffffffffffffffffffffffff1681565b600160009054906101000a900473ffffffffffffffffffffffffffffffffffffffff1681565b600460009054906101000a900473ffffffffffffffffffffffffffffffffffffffff1673ffffffffffffffffffffffffffffffffffffffff163373ffffffffffffffffffffffffffffffffffffffff16146129725733600560006101000a81548173ffffffffffffffffffffffffffffffffffffffff021916908373ffffffffffffffffffffffffffffffffffffffff1602179055505b60008054906101000a900473ffffffffffffffffffffffffffffffffffffffff1673ffffffffffffffffffffffffffffffffffffffff16600560009054906101000a900473ffffffffffffffffffffffffffffffffffffffff1673ffffffffffffffffffffffffffffffffffffffff1614612a22576040517f08c379a0000000000000000000000000000000000000000000000000000000008152600401612a1990618d9e565b60405180910390fd5b80601060006101000a81548173ffffffffffffffffffffffffffffffffffffffff021916908373ffffffffffffffffffffffffffffffffffffffff16021790555050565b60007f534e580000000000000000000000000000000000000000000000000000000000601060009054906101000a900473ffffffffffffffffffffffffffffffffffffffff1673ffffffffffffffffffffffffffffffffffffffff1663ea3d4109826040518263ffffffff1660e01b8152600401612ae491906187f5565b60206040518083038186803b158015612afc57600080fd5b505afa158015612b10573d6000803e3d6000fd5b505050506040513d601f19601f82011682018060405250810190612b349190617cf2565b15612b74576040517f08c379a0000000000000000000000000000000000000000000000000000000008152600401612b6b90618b3e565b60405180910390fd5b6000600660009054906101000a900473ffffffffffffffffffffffffffffffffffffffff1673ffffffffffffffffffffffffffffffffffffffff166370a08231856040518263ffffffff1660e01b8152600401612bd1919061865b565b60206040518083038186803b158015612be957600080fd5b505afa158015612bfd573d6000803e3d6000fd5b505050506040513d601f19601f82011682018060405250810190612c219190617f28565b90506000612d00601160009054906101000a900473ffffffffffffffffffffffffffffffffffffffff1673ffffffffffffffffffffffffffffffffffffffff1663b410a0346040518163ffffffff1660e01b815260040160206040518083038186803b158015612c9057600080fd5b505afa158015612ca4573d6000803e3d6000fd5b505050506040513d601f19601f82011682018060405250810190612cc89190617f28565b612cf2877f534e5800000000000000000000000000000000000000000000000000000000006117c1565b6155df90919063ffffffff16565b9050818110612d1457600093505050612d25565b8082612d20919061921f565b935050505b50919050565b6000600660009054906101000a900473ffffffffffffffffffffffffffffffffffffffff1673ffffffffffffffffffffffffffffffffffffffff166370a08231836040518263ffffffff1660e01b8152600401612d88919061865b565b60206040518083038186803b158015612da057600080fd5b505afa158015612db4573d6000803e3d6000fd5b505050506040513d601f19601f82011682018060405250810190612dd89190617f28565b9050919050565b600160009054906101000a900473ffffffffffffffffffffffffffffffffffffffff1673ffffffffffffffffffffffffffffffffffffffff163373ffffffffffffffffffffffffffffffffffffffff1614612e6f576040517f08c379a0000000000000000000000000000000000000000000000000000000008152600401612e6690618ade565b60405180910390fd5b7fb532073b38c83145e3e5135377a08bf9aab55bc0fd7c1179cd4fb995d2a5159c60008054906101000a900473ffffffffffffffffffffffffffffffffffffffff16600160009054906101000a900473ffffffffffffffffffffffffffffffffffffffff16604051612ee2929190618691565b60405180910390a1600160009054906101000a900473ffffffffffffffffffffffffffffffffffffffff166000806101000a81548173ffffffffffffffffffffffffffffffffffffffff021916908373ffffffffffffffffffffffffffffffffffffffff1602179055506000600160006101000a81548173ffffffffffffffffffffffffffffffffffffffff021916908373ffffffffffffffffffffffffffffffffffffffff160217905550565b600080612fc67f534e580000000000000000000000000000000000000000000000000000000000612fc08661426d565b85611b33565b905061307a601160009054906101000a900473ffffffffffffffffffffffffffffffffffffffff1673ffffffffffffffffffffffffffffffffffffffff1663b410a0346040518163ffffffff1660e01b815260040160206040518083038186803b15801561303357600080fd5b505afa158015613047573d6000803e3d6000fd5b505050506040513d601f19601f8201168201806040525081019061306b9190617f28565b8261692390919063ffffffff16565b91505092915050565b600b818154811061309357600080fd5b906000526020600020016000915054906101000a900473ffffffffffffffffffffffffffffffffffffffff1681565b600460009054906101000a900473ffffffffffffffffffffffffffffffffffffffff1673ffffffffffffffffffffffffffffffffffffffff163373ffffffffffffffffffffffffffffffffffffffff16146131595733600560006101000a81548173ffffffffffffffffffffffffffffffffffffffff021916908373ffffffffffffffffffffffffffffffffffffffff1602179055505b60008054906101000a900473ffffffffffffffffffffffffffffffffffffffff1673ffffffffffffffffffffffffffffffffffffffff16600560009054906101000a900473ffffffffffffffffffffffffffffffffffffffff1673ffffffffffffffffffffffffffffffffffffffff1614613209576040517f08c379a000000000000000000000000000000000000000000000000000000000815260040161320090618d9e565b60405180910390fd5b60008173ffffffffffffffffffffffffffffffffffffffff1663dbd06c856040518163ffffffff1660e01b815260040160206040518083038186803b15801561325157600080fd5b505afa158015613265573d6000803e3d6000fd5b505050506040513d601f19601f820116820180604052508101906132899190617d44565b9050600073ffffffffffffffffffffffffffffffffffffffff16600c6000837bffffffffffffffffffffffffffffffffffffffffffffffffffffffff19167bffffffffffffffffffffffffffffffffffffffffffffffffffffffff1916815260200190815260200160002060009054906101000a900473ffffffffffffffffffffffffffffffffffffffff1673ffffffffffffffffffffffffffffffffffffffff161461336b576040517f08c379a000000000000000000000000000000000000000000000000000000000815260040161336290618ea5565b60405180910390fd5b600b829080600181540180825580915050600190039060005260206000200160009091909190916101000a81548173ffffffffffffffffffffffffffffffffffffffff021916908373ffffffffffffffffffffffffffffffffffffffff16021790555081600c6000837bffffffffffffffffffffffffffffffffffffffffffffffffffffffff19167bffffffffffffffffffffffffffffffffffffffffffffffffffffffff1916815260200190815260200160002060006101000a81548173ffffffffffffffffffffffffffffffffffffffff021916908373ffffffffffffffffffffffffffffffffffffffff1602179055505050565b600460009054906101000a900473ffffffffffffffffffffffffffffffffffffffff1673ffffffffffffffffffffffffffffffffffffffff163373ffffffffffffffffffffffffffffffffffffffff16146134f95733600560006101000a81548173ffffffffffffffffffffffffffffffffffffffff021916908373ffffffffffffffffffffffffffffffffffffffff1602179055505b60008054906101000a900473ffffffffffffffffffffffffffffffffffffffff1673ffffffffffffffffffffffffffffffffffffffff16600560009054906101000a900473ffffffffffffffffffffffffffffffffffffffff1673ffffffffffffffffffffffffffffffffffffffff16146135a9576040517f08c379a00000000000000000000000000000000000000000000000000000000081526004016135a090618d9e565b60405180910390fd5b600073ffffffffffffffffffffffffffffffffffffffff16600c6000837bffffffffffffffffffffffffffffffffffffffffffffffffffffffff19167bffffffffffffffffffffffffffffffffffffffffffffffffffffffff1916815260200190815260200160002060009054906101000a900473ffffffffffffffffffffffffffffffffffffffff1673ffffffffffffffffffffffffffffffffffffffff16141561368a576040517f08c379a000000000000000000000000000000000000000000000000000000000815260040161368190618cbe565b60405180910390fd5b6000600c6000837bffffffffffffffffffffffffffffffffffffffffffffffffffffffff19167bffffffffffffffffffffffffffffffffffffffffffffffffffffffff1916815260200190815260200160002060009054906101000a900473ffffffffffffffffffffffffffffffffffffffff1673ffffffffffffffffffffffffffffffffffffffff166318160ddd6040518163ffffffff1660e01b815260040160206040518083038186803b15801561374357600080fd5b505afa158015613757573d6000803e3d6000fd5b505050506040513d601f19601f8201168201806040525081019061377b9190617f28565b146137bb576040517f08c379a00000000000000000000000000000000000000000000000000000000081526004016137b290618e85565b60405180910390fd5b7f5844520000000000000000000000000000000000000000000000000000000000817bffffffffffffffffffffffffffffffffffffffffffffffffffffffff1916141561383d576040517f08c379a000000000000000000000000000000000000000000000000000000000815260040161383490618b5e565b60405180910390fd5b6000600c6000837bffffffffffffffffffffffffffffffffffffffffffffffffffffffff19167bffffffffffffffffffffffffffffffffffffffffffffffffffffffff1916815260200190815260200160002060009054906101000a900473ffffffffffffffffffffffffffffffffffffffff16905060005b600b805490508160ff161015613b4b578173ffffffffffffffffffffffffffffffffffffffff16600b8260ff168154811061391a577f4e487b7100000000000000000000000000000000000000000000000000000000600052603260045260246000fd5b9060005260206000200160009054906101000a900473ffffffffffffffffffffffffffffffffffffffff1673ffffffffffffffffffffffffffffffffffffffff161415613b3857600b8160ff168154811061399e577f4e487b7100000000000000000000000000000000000000000000000000000000600052603260045260246000fd5b9060005260206000200160006101000a81549073ffffffffffffffffffffffffffffffffffffffff0219169055600b6001600b805490506139df919061921f565b81548110613a16577f4e487b7100000000000000000000000000000000000000000000000000000000600052603260045260246000fd5b9060005260206000200160009054906101000a900473ffffffffffffffffffffffffffffffffffffffff16600b8260ff1681548110613a7e577f4e487b7100000000000000000000000000000000000000000000000000000000600052603260045260246000fd5b9060005260206000200160006101000a81548173ffffffffffffffffffffffffffffffffffffffff021916908373ffffffffffffffffffffffffffffffffffffffff160217905550600b805480613afe577f4e487b7100000000000000000000000000000000000000000000000000000000600052603160045260246000fd5b6001900381819060005260206000200160006101000a81549073ffffffffffffffffffffffffffffffffffffffff02191690559055613b4b565b8080613b43906195d3565b9150506138b6565b50600c6000837bffffffffffffffffffffffffffffffffffffffffffffffffffffffff19167bffffffffffffffffffffffffffffffffffffffffffffffffffffffff1916815260200190815260200160002060006101000a81549073ffffffffffffffffffffffffffffffffffffffff02191690555050565b60008054906101000a900473ffffffffffffffffffffffffffffffffffffffff1681565b60088054613bf590619570565b80601f0160208091040260200160405190810160405280929190818152602001828054613c2190619570565b8015613c6e5780601f10613c4357610100808354040283529160200191613c6e565b820191906000526020600020905b815481529060010190602001808311613c5157829003601f168201915b505050505081565b60008054906101000a900473ffffffffffffffffffffffffffffffffffffffff1673ffffffffffffffffffffffffffffffffffffffff163373ffffffffffffffffffffffffffffffffffffffff1614613d04576040517f08c379a0000000000000000000000000000000000000000000000000000000008152600401613cfb90618d1e565b60405180910390fd5b80600460006101000a81548173ffffffffffffffffffffffffffffffffffffffff021916908373ffffffffffffffffffffffffffffffffffffffff1602179055507ffc80377ca9c49cc11ae6982f390a42db976d5530af7c43889264b13fbbd7c57e81604051613d749190618676565b60405180910390a150565b60008054906101000a900473ffffffffffffffffffffffffffffffffffffffff1673ffffffffffffffffffffffffffffffffffffffff163373ffffffffffffffffffffffffffffffffffffffff1614613e0d576040517f08c379a0000000000000000000000000000000000000000000000000000000008152600401613e0490618d1e565b60405180910390fd5b600360009054906101000a900460ff16613e5c576040517f08c379a0000000000000000000000000000000000000000000000000000000008152600401613e5390618d7e565b60405180910390fd5b426224ea00600254613e6e9190618fcd565b10613eae576040517f08c379a0000000000000000000000000000000000000000000000000000000008152600401613ea590618e65565b60405180910390fd5b6000600360019054906101000a900473ffffffffffffffffffffffffffffffffffffffff1690507f8a09e1677ced846cb537dc2b172043bd05a1a81ad7e0033a7ef8ba762df990b781604051613f04919061865b565b60405180910390a18073ffffffffffffffffffffffffffffffffffffffff16ff5b600460009054906101000a900473ffffffffffffffffffffffffffffffffffffffff1673ffffffffffffffffffffffffffffffffffffffff163373ffffffffffffffffffffffffffffffffffffffff1614613fbc5733600560006101000a81548173ffffffffffffffffffffffffffffffffffffffff021916908373ffffffffffffffffffffffffffffffffffffffff1602179055505b60008054906101000a900473ffffffffffffffffffffffffffffffffffffffff1673ffffffffffffffffffffffffffffffffffffffff16600560009054906101000a900473ffffffffffffffffffffffffffffffffffffffff1673ffffffffffffffffffffffffffffffffffffffff161461406c576040517f08c379a000000000000000000000000000000000000000000000000000000000815260040161406390618d9e565b60405180910390fd5b80600660006101000a81548173ffffffffffffffffffffffffffffffffffffffff021916908373ffffffffffffffffffffffffffffffffffffffff1602179055506140b68161695b565b50565b6000806140c684846117c1565b905060006140d48585612f90565b90508082106140e8576000925050506140f9565b81816140f4919061921f565b925050505b92915050565b600460009054906101000a900473ffffffffffffffffffffffffffffffffffffffff1673ffffffffffffffffffffffffffffffffffffffff163373ffffffffffffffffffffffffffffffffffffffff16146141965733600560006101000a81548173ffffffffffffffffffffffffffffffffffffffff021916908373ffffffffffffffffffffffffffffffffffffffff1602179055505b60006141c4600560009054906101000a900473ffffffffffffffffffffffffffffffffffffffff16836140b9565b90506141d08282612641565b5050565b6000806141e08361426d565b905060008114156141f557600091505061423b565b6000614221847f534e5800000000000000000000000000000000000000000000000000000000006117c1565b905061423682826155df90919063ffffffff16565b925050505b919050565b600f60009054906101000a900473ffffffffffffffffffffffffffffffffffffffff1681565b6224ea0081565b600080600660009054906101000a900473ffffffffffffffffffffffffffffffffffffffff1673ffffffffffffffffffffffffffffffffffffffff166370a08231846040518263ffffffff1660e01b81526004016142cb919061865b565b60206040518083038186803b1580156142e357600080fd5b505afa1580156142f7573d6000803e3d6000fd5b505050506040513d601f19601f8201168201806040525081019061431b9190617f28565b9050600073ffffffffffffffffffffffffffffffffffffffff16600e60009054906101000a900473ffffffffffffffffffffffffffffffffffffffff1673ffffffffffffffffffffffffffffffffffffffff161461442c57600e60009054906101000a900473ffffffffffffffffffffffffffffffffffffffff1673ffffffffffffffffffffffffffffffffffffffff166370a08231846040518263ffffffff1660e01b81526004016143ce919061865b565b60206040518083038186803b1580156143e657600080fd5b505afa1580156143fa573d6000803e3d6000fd5b505050506040513d601f19601f8201168201806040525081019061441e9190617f28565b816144299190618fcd565b90505b600073ffffffffffffffffffffffffffffffffffffffff16600f60009054906101000a900473ffffffffffffffffffffffffffffffffffffffff1673ffffffffffffffffffffffffffffffffffffffff161461453b57600f60009054906101000a900473ffffffffffffffffffffffffffffffffffffffff1673ffffffffffffffffffffffffffffffffffffffff166370a08231846040518263ffffffff1660e01b81526004016144dd919061865b565b60206040518083038186803b1580156144f557600080fd5b505afa158015614509573d6000803e3d6000fd5b505050506040513d601f19601f8201168201806040525081019061452d9190617f28565b816145389190618fcd565b90505b80915050919050565b60006060614553848483614d2f565b91505092915050565b6000600460009054906101000a900473ffffffffffffffffffffffffffffffffffffffff1673ffffffffffffffffffffffffffffffffffffffff163373ffffffffffffffffffffffffffffffffffffffff16146145f55733600560006101000a81548173ffffffffffffffffffffffffffffffffffffffff021916908373ffffffffffffffffffffffffffffffffffffffff1602179055505b6145fe85612a66565b831115614640576040517f08c379a000000000000000000000000000000000000000000000000000000000815260040161463790618bde565b60405180910390fd5b61466f600560009054906101000a900473ffffffffffffffffffffffffffffffffffffffff1686868686616a37565b5060019050949350505050565b600d60009054906101000a900473ffffffffffffffffffffffffffffffffffffffff1681565b600460009054906101000a900473ffffffffffffffffffffffffffffffffffffffff1673ffffffffffffffffffffffffffffffffffffffff163373ffffffffffffffffffffffffffffffffffffffff16146147395733600560006101000a81548173ffffffffffffffffffffffffffffffffffffffff021916908373ffffffffffffffffffffffffffffffffffffffff1602179055505b600061476683837f5844520000000000000000000000000000000000000000000000000000000000611b33565b905060006147b6600560009054906101000a900473ffffffffffffffffffffffffffffffffffffffff167f58445200000000000000000000000000000000000000000000000000000000006117c1565b905060006147e6600560009054906101000a900473ffffffffffffffffffffffffffffffffffffffff16866117c1565b90506000821161482b576040517f08c379a000000000000000000000000000000000000000000000000000000000815260040161482290618bbe565b60405180910390fd5b600083831061483a578361483c565b825b905061484781616b9f565b60008583106148565785614858565b825b9050600c6000887bffffffffffffffffffffffffffffffffffffffffffffffffffffffff19167bffffffffffffffffffffffffffffffffffffffffffffffffffffffff1916815260200190815260200160002060009054906101000a900473ffffffffffffffffffffffffffffffffffffffff1673ffffffffffffffffffffffffffffffffffffffff16639dc29fac600560009054906101000a900473ffffffffffffffffffffffffffffffffffffffff16836040518363ffffffff1660e01b815260040161492892919061871a565b600060405180830381600087803b15801561494257600080fd5b505af1158015614956573d6000803e3d6000fd5b50505050614962616795565b50505050505050565b600360009054906101000a900460ff1681565b600460009054906101000a900473ffffffffffffffffffffffffffffffffffffffff1673ffffffffffffffffffffffffffffffffffffffff163373ffffffffffffffffffffffffffffffffffffffff1614614a0e576040517f08c379a0000000000000000000000000000000000000000000000000000000008152600401614a0590618c3e565b60405180910390fd5b80600560006101000a81548173ffffffffffffffffffffffffffffffffffffffff021916908373ffffffffffffffffffffffffffffffffffffffff16021790555050565b60008054906101000a900473ffffffffffffffffffffffffffffffffffffffff1673ffffffffffffffffffffffffffffffffffffffff163373ffffffffffffffffffffffffffffffffffffffff1614614ae0576040517f08c379a0000000000000000000000000000000000000000000000000000000008152600401614ad790618d1e565b60405180910390fd5b426002819055506001600360006101000a81548160ff0219169083151502179055507fcbd94ca75b8dc45c9d80c77e851670e78843c0d75180cb81db3e2158228fa9a66224ea00604051614b349190618ec5565b60405180910390a1565b6000806000905060005b600b805490508160ff161015614c0f573373ffffffffffffffffffffffffffffffffffffffff16600b8260ff1681548110614bac577f4e487b7100000000000000000000000000000000000000000000000000000000600052603260045260246000fd5b9060005260206000200160009054906101000a900473ffffffffffffffffffffffffffffffffffffffff1673ffffffffffffffffffffffffffffffffffffffff161415614bfc5760019150614c0f565b8080614c07906195d3565b915050614b48565b5080614c50576040517f08c379a0000000000000000000000000000000000000000000000000000000008152600401614c4790618d3e565b60405180910390fd5b837bffffffffffffffffffffffffffffffffffffffffffffffffffffffff1916867bffffffffffffffffffffffffffffffffffffffffffffffffffffffff19161415614cd1576040517f08c379a0000000000000000000000000000000000000000000000000000000008152600401614cc890618abe565b60405180910390fd5b60008511614d14576040517f08c379a0000000000000000000000000000000000000000000000000000000008152600401614d0b90618c1e565b60405180910390fd5b614d2387878787876000615819565b91505095945050505050565b6000600460009054906101000a900473ffffffffffffffffffffffffffffffffffffffff1673ffffffffffffffffffffffffffffffffffffffff163373ffffffffffffffffffffffffffffffffffffffff1614614dc85733600560006101000a81548173ffffffffffffffffffffffffffffffffffffffff021916908373ffffffffffffffffffffffffffffffffffffffff1602179055505b614df3600560009054906101000a900473ffffffffffffffffffffffffffffffffffffffff16612a66565b831115614e35576040517f08c379a0000000000000000000000000000000000000000000000000000000008152600401614e2c90618bde565b60405180910390fd5b614e63600560009054906101000a900473ffffffffffffffffffffffffffffffffffffffff16858585617048565b50600190509392505050565b6000806000905060005b600b805490508160ff161015614f40573373ffffffffffffffffffffffffffffffffffffffff16600b8260ff1681548110614edd577f4e487b7100000000000000000000000000000000000000000000000000000000600052603260045260246000fd5b9060005260206000200160009054906101000a900473ffffffffffffffffffffffffffffffffffffffff1673ffffffffffffffffffffffffffffffffffffffff161415614f2d5760019150614f40565b8080614f38906195d3565b915050614e79565b5080614f81576040517f08c379a0000000000000000000000000000000000000000000000000000000008152600401614f7890618d3e565b60405180910390fd5b6000831415614f93576001915061513c565b60008311614fd6576040517f08c379a0000000000000000000000000000000000000000000000000000000008152600401614fcd90618d5e565b60405180910390fd5b60006150a68686867f5844520000000000000000000000000000000000000000000000000000000000600d60009054906101000a900473ffffffffffffffffffffffffffffffffffffffff1673ffffffffffffffffffffffffffffffffffffffff1663eb1edd616040518163ffffffff1660e01b815260040160206040518083038186803b15801561506757600080fd5b505afa15801561507b573d6000803e3d6000fd5b505050506040513d601f19601f8201168201806040525081019061509f91906179f5565b6000615819565b9050600d60009054906101000a900473ffffffffffffffffffffffffffffffffffffffff1673ffffffffffffffffffffffffffffffffffffffff1663a3fd6d0e86866040518363ffffffff1660e01b8152600401615105929190618810565b600060405180830381600087803b15801561511f57600080fd5b505af1158015615133573d6000803e3d6000fd5b50505050809250505b509392505050565b601260009054906101000a900473ffffffffffffffffffffffffffffffffffffffff1681565b600360019054906101000a900473ffffffffffffffffffffffffffffffffffffffff1681565b601160009054906101000a900473ffffffffffffffffffffffffffffffffffffffff1681565b6000600b80549050905090565b6000600660009054906101000a900473ffffffffffffffffffffffffffffffffffffffff1673ffffffffffffffffffffffffffffffffffffffff1663dd62ed3e84846040518363ffffffff1660e01b8152600401615222929190618691565b60206040518083038186803b15801561523a57600080fd5b505afa15801561524e573d6000803e3d6000fd5b505050506040513d601f19601f820116820180604052508101906152729190617f28565b905092915050565b600e60009054906101000a900473ffffffffffffffffffffffffffffffffffffffff1681565b600660009054906101000a900473ffffffffffffffffffffffffffffffffffffffff1681565b600460009054906101000a900473ffffffffffffffffffffffffffffffffffffffff1681565b600460009054906101000a900473ffffffffffffffffffffffffffffffffffffffff1673ffffffffffffffffffffffffffffffffffffffff1663907dff978260405160200161533b9190618ec5565b60405160208183030381529060405260037f8c5be1e5ebec7d5bd14f71427d1e84f3dd0314c0f7b2291e5b200ac8c7c3b92561537688617060565b61537f88617060565b60006040518763ffffffff1660e01b81526004016153a29695949392919061895c565b600060405180830381600087803b1580156153bc57600080fd5b505af11580156153d0573d6000803e3d6000fd5b50505050505050565b600460009054906101000a900473ffffffffffffffffffffffffffffffffffffffff1673ffffffffffffffffffffffffffffffffffffffff1663907dff97826040516020016154289190618ec5565b60405160208183030381529060405260037fddf252ad1be2c89b69c2b068fc378daa952ba7f163c4a11628f55a4df523b3ef61546388617060565b61546c88617060565b60006040518763ffffffff1660e01b815260040161548f9695949392919061895c565b600060405180830381600087803b1580156154a957600080fd5b505af11580156154bd573d6000803e3d6000fd5b50505050505050565b60006154e38383601b60ff16600a6154de91906190a7565b617083565b905092915050565b60006155088383601b60ff16600a61550391906190a7565b6170f4565b905092915050565b60006155416012601b6155239190619253565b60ff16600a61553291906190a7565b8361715e90919063ffffffff16565b9050919050565b600080600a6012601b61555b9190619253565b60ff16600a61556a91906190a7565b6155749190619023565b8361557f9190619023565b90506005600a8261559091906195fd565b106155a557600a816155a29190618fcd565b90505b600a816155b29190619023565b915050919050565b60006155d78383601260ff16600a6155d291906190a7565b6170f4565b905092915050565b60006155fc8383601260ff16600a6155f791906190a7565b617083565b905092915050565b60606000600b8054905067ffffffffffffffff81111561564d577f4e487b7100000000000000000000000000000000000000000000000000000000600052604160045260246000fd5b60405190808252806020026020018201604052801561567b5781602001602082028036833780820191505090505b50905060005b600b805490508160ff16101561581157600b8160ff16815481106156ce577f4e487b7100000000000000000000000000000000000000000000000000000000600052603260045260246000fd5b9060005260206000200160009054906101000a900473ffffffffffffffffffffffffffffffffffffffff1673ffffffffffffffffffffffffffffffffffffffff1663dbd06c856040518163ffffffff1660e01b815260040160206040518083038186803b15801561573e57600080fd5b505afa158015615752573d6000803e3d6000fd5b505050506040513d601f19601f820116820180604052508101906157769190617d44565b828260ff16815181106157b2577f4e487b7100000000000000000000000000000000000000000000000000000000600052603260045260246000fd5b60200260200101907bffffffffffffffffffffffffffffffffffffffffffffffffffffffff191690817bffffffffffffffffffffffffffffffffffffffffffffffffffffffff1916815250508080615809906195d3565b915050615681565b508091505090565b600086600d60009054906101000a900473ffffffffffffffffffffffffffffffffffffffff1673ffffffffffffffffffffffffffffffffffffffff1663eb1edd616040518163ffffffff1660e01b815260040160206040518083038186803b15801561588457600080fd5b505afa158015615898573d6000803e3d6000fd5b505050506040513d601f19601f820116820180604052508101906158bc91906179f5565b73ffffffffffffffffffffffffffffffffffffffff168173ffffffffffffffffffffffffffffffffffffffff16141561592a576040517f08c379a000000000000000000000000000000000000000000000000000000000815260040161592190618dde565b60405180910390fd5b600073ffffffffffffffffffffffffffffffffffffffff168473ffffffffffffffffffffffffffffffffffffffff16141561599a576040517f08c379a000000000000000000000000000000000000000000000000000000000815260040161599190618c7e565b60405180910390fd5b3073ffffffffffffffffffffffffffffffffffffffff168473ffffffffffffffffffffffffffffffffffffffff161415615a09576040517f08c379a0000000000000000000000000000000000000000000000000000000008152600401615a0090618cde565b60405180910390fd5b600460009054906101000a900473ffffffffffffffffffffffffffffffffffffffff1673ffffffffffffffffffffffffffffffffffffffff168473ffffffffffffffffffffffffffffffffffffffff161415615a9a576040517f08c379a0000000000000000000000000000000000000000000000000000000008152600401615a9190618cfe565b60405180910390fd5b600c6000887bffffffffffffffffffffffffffffffffffffffffffffffffffffffff19167bffffffffffffffffffffffffffffffffffffffffffffffffffffffff1916815260200190815260200160002060009054906101000a900473ffffffffffffffffffffffffffffffffffffffff1673ffffffffffffffffffffffffffffffffffffffff16639dc29fac89886040518363ffffffff1660e01b8152600401615b4692919061871a565b600060405180830381600087803b158015615b6057600080fd5b505af1158015615b74573d6000803e3d6000fd5b505050506000615b85888888611b33565b9050600081905060008515615c5057600d60009054906101000a900473ffffffffffffffffffffffffffffffffffffffff1673ffffffffffffffffffffffffffffffffffffffff1663e05bac82846040518263ffffffff1660e01b8152600401615bef9190618ec5565b60206040518083038186803b158015615c0757600080fd5b505afa158015615c1b573d6000803e3d6000fd5b505050506040513d601f19601f82011682018060405250810190615c3f9190617f28565b91508183615c4d919061921f565b90505b600c6000897bffffffffffffffffffffffffffffffffffffffffffffffffffffffff19167bffffffffffffffffffffffffffffffffffffffffffffffffffffffff1916815260200190815260200160002060009054906101000a900473ffffffffffffffffffffffffffffffffffffffff1673ffffffffffffffffffffffffffffffffffffffff1663867904b488846040518363ffffffff1660e01b8152600401615cfc92919061871a565b600060405180830381600087803b158015615d1657600080fd5b505af1158015615d2a573d6000803e3d6000fd5b505050506000811115615f73576000615d6489837f5844520000000000000000000000000000000000000000000000000000000000611b33565b9050600c60007f58445200000000000000000000000000000000000000000000000000000000007bffffffffffffffffffffffffffffffffffffffffffffffffffffffff1916815260200190815260200160002060009054906101000a900473ffffffffffffffffffffffffffffffffffffffff1673ffffffffffffffffffffffffffffffffffffffff1663867904b4600d60009054906101000a900473ffffffffffffffffffffffffffffffffffffffff1673ffffffffffffffffffffffffffffffffffffffff1663eb1edd616040518163ffffffff1660e01b815260040160206040518083038186803b158015615e5c57600080fd5b505afa158015615e70573d6000803e3d6000fd5b505050506040513d601f19601f82011682018060405250810190615e9491906179f5565b836040518363ffffffff1660e01b8152600401615eb292919061871a565b600060405180830381600087803b158015615ecc57600080fd5b505af1158015615ee0573d6000803e3d6000fd5b50505050600d60009054906101000a900473ffffffffffffffffffffffffffffffffffffffff1673ffffffffffffffffffffffffffffffffffffffff1663a3fd6d0e826040518263ffffffff1660e01b8152600401615f3f9190618e1e565b600060405180830381600087803b158015615f5957600080fd5b505af1158015615f6d573d6000803e3d6000fd5b50505050505b600c6000897bffffffffffffffffffffffffffffffffffffffffffffffffffffffff19167bffffffffffffffffffffffffffffffffffffffffffffffffffffffff1916815260200190815260200160002060009054906101000a900473ffffffffffffffffffffffffffffffffffffffff1673ffffffffffffffffffffffffffffffffffffffff1663eb6ecc038c89856040518463ffffffff1660e01b8152600401616021939291906186ba565b600060405180830381600087803b15801561603b57600080fd5b505af115801561604f573d6000803e3d6000fd5b505050506160618b8b8b8b868c617174565b60019450505050509695505050505050565b600460009054906101000a900473ffffffffffffffffffffffffffffffffffffffff1673ffffffffffffffffffffffffffffffffffffffff163373ffffffffffffffffffffffffffffffffffffffff161461610a5733600560006101000a81548173ffffffffffffffffffffffffffffffffffffffff021916908373ffffffffffffffffffffffffffffffffffffffff1602179055505b600061613783837f5844520000000000000000000000000000000000000000000000000000000000611b33565b905060006161647f5844520000000000000000000000000000000000000000000000000000000000611ee0565b9050600081836161749190618fcd565b9050600061618b82856154c690919063ffffffff16565b905060008173__$b8d33eeb36ac0d1e81cd70156e0043e778$__63d5e5e6e66040518163ffffffff1660e01b815260040160206040518083038186803b1580156161d457600080fd5b505af41580156161e8573d6000803e3d6000fd5b505050506040513d601f19601f8201168201806040525081019061620c9190617f28565b616216919061921f565b90506000616266600560009054906101000a900473ffffffffffffffffffffffffffffffffffffffff167f58445200000000000000000000000000000000000000000000000000000000006117c1565b905060008111156162925761628f8482886162819190618fcd565b6154c690919063ffffffff16565b92505b601160009054906101000a900473ffffffffffffffffffffffffffffffffffffffff1673ffffffffffffffffffffffffffffffffffffffff1663b992812e600560009054906101000a900473ffffffffffffffffffffffffffffffffffffffff166040518263ffffffff1660e01b815260040161630f919061865b565b60206040518083038186803b15801561632757600080fd5b505afa15801561633b573d6000803e3d6000fd5b505050506040513d601f19601f8201168201806040525081019061635f9190617cf2565b6163e657601160009054906101000a900473ffffffffffffffffffffffffffffffffffffffff1673ffffffffffffffffffffffffffffffffffffffff16631bfba5956040518163ffffffff1660e01b8152600401600060405180830381600087803b1580156163cd57600080fd5b505af11580156163e1573d6000803e3d6000fd5b505050505b601160009054906101000a900473ffffffffffffffffffffffffffffffffffffffff1673ffffffffffffffffffffffffffffffffffffffff1663a764eb45600560009054906101000a900473ffffffffffffffffffffffffffffffffffffffff16856040518363ffffffff1660e01b815260040161646592919061871a565b600060405180830381600087803b15801561647f57600080fd5b505af1158015616493573d6000803e3d6000fd5b505050506000601160009054906101000a900473ffffffffffffffffffffffffffffffffffffffff1673ffffffffffffffffffffffffffffffffffffffff1663cd92eba96040518163ffffffff1660e01b815260040160206040518083038186803b15801561650157600080fd5b505afa158015616515573d6000803e3d6000fd5b505050506040513d601f19601f820116820180604052508101906165399190617f28565b111561668257601160009054906101000a900473ffffffffffffffffffffffffffffffffffffffff1673ffffffffffffffffffffffffffffffffffffffff16633d31e97b61662f84601160009054906101000a900473ffffffffffffffffffffffffffffffffffffffff1673ffffffffffffffffffffffffffffffffffffffff1663463177126040518163ffffffff1660e01b815260040160206040518083038186803b1580156165e957600080fd5b505afa1580156165fd573d6000803e3d6000fd5b505050506040513d601f19601f820116820180604052508101906166219190617f28565b6154eb90919063ffffffff16565b6040518263ffffffff1660e01b815260040161664b9190618ec5565b600060405180830381600087803b15801561666557600080fd5b505af1158015616679573d6000803e3d6000fd5b5050505061678b565b601160009054906101000a900473ffffffffffffffffffffffffffffffffffffffff1673ffffffffffffffffffffffffffffffffffffffff16633d31e97b73__$b8d33eeb36ac0d1e81cd70156e0043e778$__63d5e5e6e66040518163ffffffff1660e01b815260040160206040518083038186803b15801561670457600080fd5b505af4158015616718573d6000803e3d6000fd5b505050506040513d601f19601f8201168201806040525081019061673c9190617f28565b6040518263ffffffff1660e01b81526004016167589190618ec5565b600060405180830381600087803b15801561677257600080fd5b505af1158015616786573d6000803e3d6000fd5b505050505b5050505050505050565b600080601160009054906101000a900473ffffffffffffffffffffffffffffffffffffffff1673ffffffffffffffffffffffffffffffffffffffff16638b3f8088600560009054906101000a900473ffffffffffffffffffffffffffffffffffffffff166040518263ffffffff1660e01b8152600401616815919061865b565b604080518083038186803b15801561682c57600080fd5b505afa158015616840573d6000803e3d6000fd5b505050506040513d601f19601f820116820180604052508101906168649190617f51565b8092508193505050600d60009054906101000a900473ffffffffffffffffffffffffffffffffffffffff1673ffffffffffffffffffffffffffffffffffffffff166386645274600560009054906101000a900473ffffffffffffffffffffffffffffffffffffffff1684846040518463ffffffff1660e01b81526004016168ed93929190618781565b600060405180830381600087803b15801561690757600080fd5b505af115801561691b573d6000803e3d6000fd5b505050505050565b6000601260ff16600a61693691906190a7565b616949838561715e90919063ffffffff16565b6169539190619023565b905092915050565b600460009054906101000a900473ffffffffffffffffffffffffffffffffffffffff1673ffffffffffffffffffffffffffffffffffffffff1663907dff97826040516020016169aa919061865b565b60405160208183030381529060405260017fa538c4dcfe9fb148efee2952bafe34982d2d07d5fbb38ae5b44abf659a46bfd860008060006040518763ffffffff1660e01b8152600401616a029695949392919061888c565b600060405180830381600087803b158015616a1c57600080fd5b505af1158015616a30573d6000803e3d6000fd5b5050505050565b6000600660009054906101000a900473ffffffffffffffffffffffffffffffffffffffff1673ffffffffffffffffffffffffffffffffffffffff1663da46098c8688616b3887600660009054906101000a900473ffffffffffffffffffffffffffffffffffffffff1673ffffffffffffffffffffffffffffffffffffffff1663dd62ed3e8c8e6040518363ffffffff1660e01b8152600401616ada929190618691565b60206040518083038186803b158015616af257600080fd5b505afa158015616b06573d6000803e3d6000fd5b505050506040513d601f19601f82011682018060405250810190616b2a9190617f28565b61726490919063ffffffff16565b6040518463ffffffff1660e01b8152600401616b56939291906186ba565b600060405180830381600087803b158015616b7057600080fd5b505af1158015616b84573d6000803e3d6000fd5b50505050616b948585858561727a565b905095945050505050565b60008190506000616bf2600560009054906101000a900473ffffffffffffffffffffffffffffffffffffffff167f58445200000000000000000000000000000000000000000000000000000000006117c1565b90506000616c1f7f5844520000000000000000000000000000000000000000000000000000000000611ee0565b905060008382616c2f919061921f565b9050600080821115616ce1576000616c5083876154c690919063ffffffff16565b90508073__$b8d33eeb36ac0d1e81cd70156e0043e778$__63d5e5e6e66040518163ffffffff1660e01b815260040160206040518083038186803b158015616c9757600080fd5b505af4158015616cab573d6000803e3d6000fd5b505050506040513d601f19601f82011682018060405250810190616ccf9190617f28565b616cd99190618fcd565b915050616ce6565b600090505b83851415616e2757601160009054906101000a900473ffffffffffffffffffffffffffffffffffffffff1673ffffffffffffffffffffffffffffffffffffffff1663a764eb45600560009054906101000a900473ffffffffffffffffffffffffffffffffffffffff1660006040518363ffffffff1660e01b8152600401616d6e9291906186f1565b600060405180830381600087803b158015616d8857600080fd5b505af1158015616d9c573d6000803e3d6000fd5b50505050601160009054906101000a900473ffffffffffffffffffffffffffffffffffffffff1673ffffffffffffffffffffffffffffffffffffffff1663ba08f2996040518163ffffffff1660e01b8152600401600060405180830381600087803b158015616e0a57600080fd5b505af1158015616e1e573d6000803e3d6000fd5b50505050616f02565b60008585616e35919061921f565b90506000616e4c84836154c690919063ffffffff16565b9050601160009054906101000a900473ffffffffffffffffffffffffffffffffffffffff1673ffffffffffffffffffffffffffffffffffffffff1663a764eb45600560009054906101000a900473ffffffffffffffffffffffffffffffffffffffff16836040518363ffffffff1660e01b8152600401616ecd92919061871a565b600060405180830381600087803b158015616ee757600080fd5b505af1158015616efb573d6000803e3d6000fd5b5050505050505b601160009054906101000a900473ffffffffffffffffffffffffffffffffffffffff1673ffffffffffffffffffffffffffffffffffffffff16633d31e97b616ff283601160009054906101000a900473ffffffffffffffffffffffffffffffffffffffff1673ffffffffffffffffffffffffffffffffffffffff1663463177126040518163ffffffff1660e01b815260040160206040518083038186803b158015616fac57600080fd5b505afa158015616fc0573d6000803e3d6000fd5b505050506040513d601f19601f82011682018060405250810190616fe49190617f28565b6154eb90919063ffffffff16565b6040518263ffffffff1660e01b815260040161700e9190618ec5565b600060405180830381600087803b15801561702857600080fd5b505af115801561703c573d6000803e3d6000fd5b50505050505050505050565b60006170568585858561727a565b9050949350505050565b60008173ffffffffffffffffffffffffffffffffffffffff1660001b9050919050565b6000806170b7846170a9600a8661709a91906191c5565b8861715e90919063ffffffff16565b6176a490919063ffffffff16565b90506005600a826170c891906195fd565b106170dd57600a816170da9190618fcd565b90505b600a816170ea9190619023565b9150509392505050565b600080600a836171049190619023565b617117858761715e90919063ffffffff16565b6171219190619023565b90506005600a8261713291906195fd565b1061714757600a816171449190618fcd565b90505b600a816171549190619023565b9150509392505050565b6000818361716c91906191c5565b905092915050565b600460009054906101000a900473ffffffffffffffffffffffffffffffffffffffff1673ffffffffffffffffffffffffffffffffffffffff1663907dff9786868686866040516020016171cb959493929190618839565b60405160208183030381529060405260027f39c45ff1d0f1b38968efe499465b2cefd52232ee48ae295f4abd485a6c1189016172068b617060565b6000806040518763ffffffff1660e01b815260040161722a969594939291906188f4565b600060405180830381600087803b15801561724457600080fd5b505af1158015617258573d6000803e3d6000fd5b50505050505050505050565b60008183617272919061921f565b905092915050565b60008073ffffffffffffffffffffffffffffffffffffffff168473ffffffffffffffffffffffffffffffffffffffff1614156172eb576040517f08c379a00000000000000000000000000000000000000000000000000000000081526004016172e290618b1e565b60405180910390fd5b3073ffffffffffffffffffffffffffffffffffffffff168473ffffffffffffffffffffffffffffffffffffffff16141561735a576040517f08c379a000000000000000000000000000000000000000000000000000000000815260040161735190618dbe565b60405180910390fd5b600460009054906101000a900473ffffffffffffffffffffffffffffffffffffffff1673ffffffffffffffffffffffffffffffffffffffff168473ffffffffffffffffffffffffffffffffffffffff1614156173eb576040517f08c379a00000000000000000000000000000000000000000000000000000000081526004016173e290618b7e565b60405180910390fd5b600660009054906101000a900473ffffffffffffffffffffffffffffffffffffffff1673ffffffffffffffffffffffffffffffffffffffff1663b46310f6866174e786600660009054906101000a900473ffffffffffffffffffffffffffffffffffffffff1673ffffffffffffffffffffffffffffffffffffffff166370a082318b6040518263ffffffff1660e01b8152600401617489919061865b565b60206040518083038186803b1580156174a157600080fd5b505afa1580156174b5573d6000803e3d6000fd5b505050506040513d601f19601f820116820180604052508101906174d99190617f28565b61726490919063ffffffff16565b6040518363ffffffff1660e01b815260040161750492919061871a565b600060405180830381600087803b15801561751e57600080fd5b505af1158015617532573d6000803e3d6000fd5b50505050600660009054906101000a900473ffffffffffffffffffffffffffffffffffffffff1673ffffffffffffffffffffffffffffffffffffffff1663b46310f68561763286600660009054906101000a900473ffffffffffffffffffffffffffffffffffffffff1673ffffffffffffffffffffffffffffffffffffffff166370a082318a6040518263ffffffff1660e01b81526004016175d4919061865b565b60206040518083038186803b1580156175ec57600080fd5b505afa158015617600573d6000803e3d6000fd5b505050506040513d601f19601f820116820180604052508101906176249190617f28565b6176ba90919063ffffffff16565b6040518363ffffffff1660e01b815260040161764f92919061871a565b600060405180830381600087803b15801561766957600080fd5b505af115801561767d573d6000803e3d6000fd5b5050505061768d858585856176d0565b6176988585856153d9565b60019050949350505050565b600081836176b29190619023565b905092915050565b600081836176c89190618fcd565b905092915050565b600560149054906101000a900460ff1615617720576040517f08c379a000000000000000000000000000000000000000000000000000000000815260040161771790618c5e565b60405180910390fd5b6001600560146101000a81548160ff0219169083151502179055506000833b90506000811115617846578373ffffffffffffffffffffffffffffffffffffffff1685848460405160240161777693929190618743565b6040516020818303038152906040527fc0ee0b8a000000000000000000000000000000000000000000000000000000007bffffffffffffffffffffffffffffffffffffffffffffffffffffffff19166020820180517bffffffffffffffffffffffffffffffffffffffffffffffffffffffff83818316178352505050506040516178009190618644565b6000604051808303816000865af19150503d806000811461783d576040519150601f19603f3d011682016040523d82523d6000602084013e617842565b606091505b5050505b506000600560146101000a81548160ff02191690831515021790555050505050565b600061787b61787684618f20565b618efb565b90508281526020810184848401111561789357600080fd5b61789e84828561952e565b509392505050565b6000813590506178b581619dd4565b92915050565b6000815190506178ca81619dd4565b92915050565b6000813590506178df81619deb565b92915050565b6000815190506178f481619e02565b92915050565b60008135905061790981619e19565b92915050565b60008151905061791e81619e19565b92915050565b600082601f83011261793557600080fd5b8135617945848260208601617868565b91505092915050565b60008135905061795d81619e30565b92915050565b60008135905061797281619e47565b92915050565b60008135905061798781619e5e565b92915050565b60008135905061799c81619e75565b92915050565b6000813590506179b181619e8c565b92915050565b6000815190506179c681619e8c565b92915050565b6000602082840312156179de57600080fd5b60006179ec848285016178a6565b91505092915050565b600060208284031215617a0757600080fd5b6000617a15848285016178bb565b91505092915050565b600060208284031215617a3057600080fd5b6000617a3e848285016178d0565b91505092915050565b60008060408385031215617a5a57600080fd5b6000617a68858286016178a6565b9250506020617a79858286016178a6565b9150509250929050565b600080600060608486031215617a9857600080fd5b6000617aa6868287016178a6565b9350506020617ab7868287016178a6565b9250506040617ac8868287016179a2565b9150509250925092565b60008060008060808587031215617ae857600080fd5b6000617af6878288016178a6565b9450506020617b07878288016178a6565b9350506040617b18878288016179a2565b925050606085013567ffffffffffffffff811115617b3557600080fd5b617b4187828801617924565b91505092959194509250565b60008060408385031215617b6057600080fd5b6000617b6e858286016178a6565b9250506020617b7f858286016178fa565b9150509250929050565b600080600060608486031215617b9e57600080fd5b6000617bac868287016178a6565b9350506020617bbd868287016178fa565b9250506040617bce868287016179a2565b9150509250925092565b600080600080600060a08688031215617bf057600080fd5b6000617bfe888289016178a6565b9550506020617c0f888289016178fa565b9450506040617c20888289016179a2565b9350506060617c31888289016178fa565b9250506080617c42888289016178a6565b9150509295509295909350565b60008060408385031215617c6257600080fd5b6000617c70858286016178a6565b9250506020617c81858286016179a2565b9150509250929050565b600080600060608486031215617ca057600080fd5b6000617cae868287016178a6565b9350506020617cbf868287016179a2565b925050604084013567ffffffffffffffff811115617cdc57600080fd5b617ce886828701617924565b9150509250925092565b600060208284031215617d0457600080fd5b6000617d12848285016178e5565b91505092915050565b600060208284031215617d2d57600080fd5b6000617d3b848285016178fa565b91505092915050565b600060208284031215617d5657600080fd5b6000617d648482850161790f565b91505092915050565b60008060408385031215617d8057600080fd5b6000617d8e858286016178fa565b9250506020617d9f858286016179a2565b9150509250929050565b600080600060608486031215617dbe57600080fd5b6000617dcc868287016178fa565b9350506020617ddd868287016179a2565b9250506040617dee868287016178fa565b9150509250925092565b60008060008060808587031215617e0e57600080fd5b6000617e1c878288016178fa565b9450506020617e2d878288016179a2565b9350506040617e3e878288016178fa565b9250506060617e4f878288016178a6565b91505092959194509250565b600060208284031215617e6d57600080fd5b6000617e7b8482850161794e565b91505092915050565b600060208284031215617e9657600080fd5b6000617ea484828501617963565b91505092915050565b600060208284031215617ebf57600080fd5b6000617ecd84828501617978565b91505092915050565b600060208284031215617ee857600080fd5b6000617ef68482850161798d565b91505092915050565b600060208284031215617f1157600080fd5b6000617f1f848285016179a2565b91505092915050565b600060208284031215617f3a57600080fd5b6000617f48848285016179b7565b91505092915050565b60008060408385031215617f6457600080fd5b6000617f72858286016179b7565b9250506020617f83858286016179b7565b9150509250929050565b6000617f99838361803f565b60208301905092915050565b617fae81619376565b82525050565b617fbd81619287565b82525050565b6000617fce82618f61565b617fd88185618f8f565b9350617fe383618f51565b8060005b83811015618014578151617ffb8882617f8d565b975061800683618f82565b925050600181019050617fe7565b5085935050505092915050565b61802a816192ab565b82525050565b618039816192b7565b82525050565b618048816192c1565b82525050565b618057816192c1565b82525050565b600061806882618f6c565b6180728185618fa0565b935061808281856020860161953d565b61808b816196ea565b840191505092915050565b60006180a182618f6c565b6180ab8185618fb1565b93506180bb81856020860161953d565b80840191505092915050565b6180d081619388565b82525050565b6180df816193ac565b82525050565b6180ee816193d0565b82525050565b6180fd816193f4565b82525050565b61810c81619418565b82525050565b61811b8161943c565b82525050565b61812a81619460565b82525050565b61813981619484565b82525050565b618148816194a8565b82525050565b618157816194c2565b82525050565b618166816194d4565b82525050565b618175816194e6565b82525050565b618184816194f8565b82525050565b600061819582618f77565b61819f8185618fbc565b93506181af81856020860161953d565b6181b8816196ea565b840191505092915050565b60006181d0601383618fbc565b91506181db82619715565b602082019050919050565b60006181f3603583618fbc565b91506181fe8261973e565b604082019050919050565b6000618216600f83618fbc565b91506182218261978d565b602082019050919050565b6000618239602083618fbc565b9150618244826197b6565b602082019050919050565b600061825c602283618fbc565b9150618267826197df565b604082019050919050565b600061827f601783618fbc565b915061828a8261982e565b602082019050919050565b60006182a2602583618fbc565b91506182ad82619857565b604082019050919050565b60006182c5602183618fbc565b91506182d0826198a6565b604082019050919050565b60006182e8601283618fbc565b91506182f3826198f5565b602082019050919050565b600061830b601483618fbc565b91506183168261991e565b602082019050919050565b600061832e601083618fbc565b915061833982619947565b602082019050919050565b6000618351600b83618fbc565b915061835c82619970565b602082019050919050565b6000618374602583618fbc565b915061837f82619999565b604082019050919050565b6000618397601e83618fbc565b91506183a2826199e8565b602082019050919050565b60006183ba601083618fbc565b91506183c582619a11565b602082019050919050565b60006183dd602883618fbc565b91506183e882619a3a565b604082019050919050565b6000618400601483618fbc565b915061840b82619a89565b602082019050919050565b6000618423602083618fbc565b915061842e82619ab2565b602082019050919050565b6000618446601c83618fbc565b915061845182619adb565b602082019050919050565b6000618469602f83618fbc565b915061847482619b04565b604082019050919050565b600061848c601283618fbc565b915061849782619b53565b602082019050919050565b60006184af601183618fbc565b91506184ba82619b7c565b602082019050919050565b60006184d2602883618fbc565b91506184dd82619ba5565b604082019050919050565b60006184f5602e83618fbc565b915061850082619bf4565b604082019050919050565b6000618518602a83618fbc565b915061852382619c43565b604082019050919050565b600061853b601783618fbc565b915061854682619c92565b602082019050919050565b600061855e602283618fbc565b915061856982619cbb565b604082019050919050565b7f5844520000000000000000000000000000000000000000000000000000000000815250565b60006185a7601583618fbc565b91506185b282619d0a565b602082019050919050565b60006185ca602783618fbc565b91506185d582619d33565b604082019050919050565b60006185ed601383618fbc565b91506185f882619d82565b602082019050919050565b6000618610601483618fbc565b915061861b82619dab565b602082019050919050565b61862f8161935f565b82525050565b61863e81619369565b82525050565b60006186508284618096565b915081905092915050565b60006020820190506186706000830184617fb4565b92915050565b600060208201905061868b6000830184617fa5565b92915050565b60006040820190506186a66000830185617fb4565b6186b36020830184617fb4565b9392505050565b60006060820190506186cf6000830186617fb4565b6186dc6020830185617fb4565b6186e96040830184618626565b949350505050565b60006040820190506187066000830185617fb4565b618713602083018461814e565b9392505050565b600060408201905061872f6000830185617fb4565b61873c6020830184618626565b9392505050565b60006060820190506187586000830186617fb4565b6187656020830185618626565b8181036040830152618777818461805d565b9050949350505050565b60006060820190506187966000830186617fb4565b6187a36020830185618626565b6187b06040830184618626565b949350505050565b600060208201905081810360008301526187d28184617fc3565b905092915050565b60006020820190506187ef6000830184618021565b92915050565b600060208201905061880a600083018461804e565b92915050565b6000604082019050618825600083018561804e565b6188326020830184618626565b9392505050565b600060a08201905061884e600083018861804e565b61885b6020830187618626565b618868604083018661804e565b6188756060830185618626565b6188826080830184617fb4565b9695505050505050565b600060c08201905081810360008301526188a6818961805d565b90506188b5602083018861815d565b6188c26040830187618030565b6188cf606083018661813f565b6188dc608083018561813f565b6188e960a083018461813f565b979650505050505050565b600060c082019050818103600083015261890e818961805d565b905061891d602083018861816c565b61892a6040830187618030565b6189376060830186618030565b618944608083018561813f565b61895160a083018461813f565b979650505050505050565b600060c0820190508181036000830152618976818961805d565b9050618985602083018861817b565b6189926040830187618030565b61899f6060830186618030565b6189ac6080830185618030565b6189b960a083018461813f565b979650505050505050565b60006020820190506189d960008301846180c7565b92915050565b60006020820190506189f460008301846180d6565b92915050565b6000602082019050618a0f60008301846180e5565b92915050565b6000602082019050618a2a60008301846180f4565b92915050565b6000602082019050618a456000830184618103565b92915050565b6000602082019050618a606000830184618112565b92915050565b6000602082019050618a7b6000830184618121565b92915050565b6000602082019050618a966000830184618130565b92915050565b60006020820190508181036000830152618ab6818461818a565b905092915050565b60006020820190508181036000830152618ad7816181c3565b9050919050565b60006020820190508181036000830152618af7816181e6565b9050919050565b60006020820190508181036000830152618b1781618209565b9050919050565b60006020820190508181036000830152618b378161822c565b9050919050565b60006020820190508181036000830152618b578161824f565b9050919050565b60006020820190508181036000830152618b7781618272565b9050919050565b60006020820190508181036000830152618b9781618295565b9050919050565b60006020820190508181036000830152618bb7816182b8565b9050919050565b60006020820190508181036000830152618bd7816182db565b9050919050565b60006020820190508181036000830152618bf7816182fe565b9050919050565b60006020820190508181036000830152618c1781618321565b9050919050565b60006020820190508181036000830152618c3781618344565b9050919050565b60006020820190508181036000830152618c5781618367565b9050919050565b60006020820190508181036000830152618c778161838a565b9050919050565b60006020820190508181036000830152618c97816183ad565b9050919050565b60006020820190508181036000830152618cb7816183d0565b9050919050565b60006020820190508181036000830152618cd7816183f3565b9050919050565b60006020820190508181036000830152618cf781618416565b9050919050565b60006020820190508181036000830152618d1781618439565b9050919050565b60006020820190508181036000830152618d378161845c565b9050919050565b60006020820190508181036000830152618d578161847f565b9050919050565b60006020820190508181036000830152618d77816184a2565b9050919050565b60006020820190508181036000830152618d97816184c5565b9050919050565b60006020820190508181036000830152618db7816184e8565b9050919050565b60006020820190508181036000830152618dd78161850b565b9050919050565b60006020820190508181036000830152618df78161852e565b9050919050565b60006020820190508181036000830152618e1781618551565b9050919050565b6000604082019050618e3260008301618574565b618e3f6020830184618626565b92915050565b60006020820190508181036000830152618e5e8161859a565b9050919050565b60006020820190508181036000830152618e7e816185bd565b9050919050565b60006020820190508181036000830152618e9e816185e0565b9050919050565b60006020820190508181036000830152618ebe81618603565b9050919050565b6000602082019050618eda6000830184618626565b92915050565b6000602082019050618ef56000830184618635565b92915050565b6000618f05618f16565b9050618f1182826195a2565b919050565b6000604051905090565b600067ffffffffffffffff821115618f3b57618f3a6196bb565b5b618f44826196ea565b9050602081019050919050565b6000819050602082019050919050565b600081519050919050565b600081519050919050565b600081519050919050565b6000602082019050919050565b600082825260208201905092915050565b600082825260208201905092915050565b600081905092915050565b600082825260208201905092915050565b6000618fd88261935f565b9150618fe38361935f565b9250827fffffffffffffffffffffffffffffffffffffffffffffffffffffffffffffffff038211156190185761901761962e565b5b828201905092915050565b600061902e8261935f565b91506190398361935f565b9250826190495761904861965d565b5b828204905092915050565b6000808291508390505b600185111561909e5780860481111561907a5761907961962e565b5b60018516156190895780820291505b808102905061909785619708565b945061905e565b94509492505050565b60006190b28261935f565b91506190bd8361935f565b92506190ea7fffffffffffffffffffffffffffffffffffffffffffffffffffffffffffffffff84846190f2565b905092915050565b60008261910257600190506191be565b8161911057600090506191be565b816001811461912657600281146191305761915f565b60019150506191be565b60ff8411156191425761914161962e565b5b8360020a9150848211156191595761915861962e565b5b506191be565b5060208310610133831016604e8410600b84101617156191945782820a90508381111561918f5761918e61962e565b5b6191be565b6191a18484846001619054565b925090508184048111156191b8576191b761962e565b5b81810290505b9392505050565b60006191d08261935f565b91506191db8361935f565b9250817fffffffffffffffffffffffffffffffffffffffffffffffffffffffffffffffff04831182151516156192145761921361962e565b5b828202905092915050565b600061922a8261935f565b91506192358361935f565b9250828210156192485761924761962e565b5b828203905092915050565b600061925e82619369565b915061926983619369565b92508282101561927c5761927b61962e565b5b828203905092915050565b60006192928261933f565b9050919050565b60006192a48261933f565b9050919050565b60008115159050919050565b6000819050919050565b60007fffffffff0000000000000000000000000000000000000000000000000000000082169050919050565b60006192f882619287565b9050919050565b600061930a82619287565b9050919050565b600061931c82619287565b9050919050565b600061932e82619287565b9050919050565b6000819050919050565b600073ffffffffffffffffffffffffffffffffffffffff82169050919050565b6000819050919050565b600060ff82169050919050565b60006193818261950a565b9050919050565b60006193938261939a565b9050919050565b60006193a58261933f565b9050919050565b60006193b7826193be565b9050919050565b60006193c98261933f565b9050919050565b60006193db826193e2565b9050919050565b60006193ed8261933f565b9050919050565b60006193ff82619406565b9050919050565b60006194118261933f565b9050919050565b60006194238261942a565b9050919050565b60006194358261933f565b9050919050565b60006194478261944e565b9050919050565b60006194598261933f565b9050919050565b600061946b82619472565b9050919050565b600061947d8261933f565b9050919050565b600061948f82619496565b9050919050565b60006194a18261933f565b9050919050565b60006194bb6194b683619335565b6196fb565b9050919050565b60006194cd8261935f565b9050919050565b60006194df8261935f565b9050919050565b60006194f18261935f565b9050919050565b60006195038261935f565b9050919050565b60006195158261951c565b9050919050565b60006195278261933f565b9050919050565b82818337600083830152505050565b60005b8381101561955b578082015181840152602081019050619540565b8381111561956a576000848401525b50505050565b6000600282049050600182168061958857607f821691505b6020821081141561959c5761959b61968c565b5b50919050565b6195ab826196ea565b810181811067ffffffffffffffff821117156195ca576195c96196bb565b5b80604052505050565b60006195de82619369565b915060ff8214156195f2576195f161962e565b5b600182019050919050565b60006196088261935f565b91506196138361935f565b9250826196235761962261965d565b5b828206905092915050565b7f4e487b7100000000000000000000000000000000000000000000000000000000600052601160045260246000fd5b7f4e487b7100000000000000000000000000000000000000000000000000000000600052601260045260246000fd5b7f4e487b7100000000000000000000000000000000000000000000000000000000600052602260045260246000fd5b7f4e487b7100000000000000000000000000000000000000000000000000000000600052604160045260246000fd5b6000601f19601f8301169050919050565b60008160001b9050919050565b60008160011c9050919050565b7f43616e27742062652073616d652073796e746800000000000000000000000000600082015250565b7f596f75206d757374206265206e6f6d696e61746564206265666f726520796f7560008201527f2063616e20616363657074206f776e6572736869700000000000000000000000602082015250565b7f526174657320617265207374616c650000000000000000000000000000000000600082015250565b7f43616e6e6f74207472616e7366657220746f2074686520302061646472657373600082015250565b7f52617465207374616c65206f72206e6f6e6578697374616e742063757272656e60008201527f6379000000000000000000000000000000000000000000000000000000000000602082015250565b7f43616e6e6f742072656d6f7665205844522073796e7468000000000000000000600082015250565b7f43616e6e6f74207472616e7366657220746f207468652070726f787920636f6e60008201527f7472616374000000000000000000000000000000000000000000000000000000602082015250565b7f52657761726420457363726f772064657374696e6174696f6e206d697373696e60008201527f6700000000000000000000000000000000000000000000000000000000000000602082015250565b7f4e6f206465627420746f20666f72676976650000000000000000000000000000600082015250565b7f496e73756666696369656e742062616c616e6365000000000000000000000000600082015250565b7f416d6f756e7420746f6f206c6172676500000000000000000000000000000000600082015250565b7f5a65726f20616d6f756e74000000000000000000000000000000000000000000600082015250565b7f4f6e6c79207468652070726f78792063616e2063616c6c20746869732066756e60008201527f6374696f6e000000000000000000000000000000000000000000000000000000602082015250565b7f526576657274656420746f2070726576656e74207265656e7472616e63790000600082015250565b7f5a65726f2064657374696e6174696f6e00000000000000000000000000000000600082015250565b7f42656e6566696369617279206d757374206e6f7420626520746865207a65726f60008201527f2061646472657373000000000000000000000000000000000000000000000000602082015250565b7f53796e746820646f6573206e6f74206578697374000000000000000000000000600082015250565b7f53796e74686574697820697320696e76616c69642064657374696e6174696f6e600082015250565b7f50726f787920697320696e76616c69642064657374696e6174696f6e00000000600082015250565b7f4f6e6c792074686520636f6e7472616374206f776e6572206d6179207065726660008201527f6f726d207468697320616374696f6e0000000000000000000000000000000000602082015250565b7f4f6e6c792073796e746820616c6c6f7765640000000000000000000000000000600082015250565b7f536f757263652063616e27742062652030000000000000000000000000000000600082015250565b7f53656c6620646573747275637420686173206e6f7420796574206265656e206960008201527f6e69746961746564000000000000000000000000000000000000000000000000602082015250565b7f5468697320616374696f6e2063616e206f6e6c7920626520706572666f726d6560008201527f6420627920746865206f776e6572000000000000000000000000000000000000602082015250565b7f43616e6e6f74207472616e7366657220746f2074686520756e6465726c79696e60008201527f6720636f6e747261637400000000000000000000000000000000000000000000602082015250565b7f4665652061646472657373206e6f7420616c6c6f776564000000000000000000600082015250565b7f45786368616e6765206d7573742075736520646966666572656e742073796e7460008201527f6873000000000000000000000000000000000000000000000000000000000000602082015250565b7f4e6f20737570706c79206973206d696e7461626c650000000000000000000000600082015250565b7f53656c662064657374727563742064656c617920686173206e6f74207965742060008201527f656c617073656400000000000000000000000000000000000000000000000000602082015250565b7f53796e746820737570706c792065786973747300000000000000000000000000600082015250565b7f53796e746820616c726561647920657869737473000000000000000000000000600082015250565b619ddd81619287565b8114619de857600080fd5b50565b619df481619299565b8114619dff57600080fd5b50565b619e0b816192ab565b8114619e1657600080fd5b50565b619e22816192c1565b8114619e2d57600080fd5b50565b619e39816192ed565b8114619e4457600080fd5b50565b619e50816192ff565b8114619e5b57600080fd5b50565b619e6781619311565b8114619e7257600080fd5b50565b619e7e81619323565b8114619e8957600080fd5b50565b619e958161935f565b8114619ea057600080fd5b5056fea2646970667358221220c76a0eec31e44ab6256442d638dc41f76d1a48049f63f0a52a70c659018a93e664736f6c63430008040033",
  "linkReferences": {
    "contracts/SafeDecimalMath.sol": {
      "SafeDecimalMath": [
        {
          "length": 20,
          "start": 28188
        },
        {
          "length": 20,
          "start": 29516
        },
        {
          "length": 20,
          "start": 30943
        }
      ]
    }
  },
  "deployedLinkReferences": {
    "contracts/SafeDecimalMath.sol": {
      "SafeDecimalMath": [
        {
          "length": 20,
          "start": 24978
        },
        {
          "length": 20,
          "start": 26306
        },
        {
          "length": 20,
          "start": 27733
        }
      ]
    }
  }
}