{
  "_format": "hh-sol-artifact-1",
  "contractName": "Synthetix",
  "sourceName": "contracts/Synthetix.sol",
  "abi": [
    {
      "inputs": [
        {
          "internalType": "address",
          "name": "_proxy",
          "type": "address"
        },
        {
          "internalType": "contract TokenState",
          "name": "_tokenState",
          "type": "address"
        },
        {
          "internalType": "contract SynthetixState",
          "name": "_synthetixState",
          "type": "address"
        },
        {
          "internalType": "address",
          "name": "_owner",
          "type": "address"
        },
        {
          "internalType": "contract ExchangeRates",
          "name": "_exchangeRates",
          "type": "address"
        },
        {
          "internalType": "contract IFeePool",
          "name": "_feePool",
          "type": "address"
        },
        {
          "internalType": "contract SupplySchedule",
          "name": "_supplySchedule",
          "type": "address"
        },
        {
          "internalType": "contract ISynthetixEscrow",
          "name": "_rewardEscrow",
          "type": "address"
        },
        {
          "internalType": "contract ISynthetixEscrow",
          "name": "_escrow",
          "type": "address"
        },
        {
          "internalType": "uint256",
          "name": "_totalSupply",
          "type": "uint256"
        }
      ],
      "stateMutability": "nonpayable",
      "type": "constructor"
    },
    {
      "anonymous": false,
      "inputs": [
        {
          "indexed": true,
          "internalType": "address",
          "name": "owner",
          "type": "address"
        },
        {
          "indexed": true,
          "internalType": "address",
          "name": "spender",
          "type": "address"
        },
        {
          "indexed": false,
          "internalType": "uint256",
          "name": "value",
          "type": "uint256"
        }
      ],
      "name": "Approval",
      "type": "event"
    },
    {
      "anonymous": false,
      "inputs": [
        {
          "indexed": false,
          "internalType": "address",
          "name": "oldOwner",
          "type": "address"
        },
        {
          "indexed": false,
          "internalType": "address",
          "name": "newOwner",
          "type": "address"
        }
      ],
      "name": "OwnerChanged",
      "type": "event"
    },
    {
      "anonymous": false,
      "inputs": [
        {
          "indexed": false,
          "internalType": "address",
          "name": "newOwner",
          "type": "address"
        }
      ],
      "name": "OwnerNominated",
      "type": "event"
    },
    {
      "anonymous": false,
      "inputs": [
        {
          "indexed": false,
          "internalType": "address",
          "name": "proxyAddress",
          "type": "address"
        }
      ],
      "name": "ProxyUpdated",
      "type": "event"
    },
    {
      "anonymous": false,
      "inputs": [
        {
          "indexed": false,
          "internalType": "address",
          "name": "newBeneficiary",
          "type": "address"
        }
      ],
      "name": "SelfDestructBeneficiaryUpdated",
      "type": "event"
    },
    {
      "anonymous": false,
      "inputs": [
        {
          "indexed": false,
          "internalType": "uint256",
          "name": "selfDestructDelay",
          "type": "uint256"
        }
      ],
      "name": "SelfDestructInitiated",
      "type": "event"
    },
    {
      "anonymous": false,
      "inputs": [],
      "name": "SelfDestructTerminated",
      "type": "event"
    },
    {
      "anonymous": false,
      "inputs": [
        {
          "indexed": false,
          "internalType": "address",
          "name": "beneficiary",
          "type": "address"
        }
      ],
      "name": "SelfDestructed",
      "type": "event"
    },
    {
      "anonymous": false,
      "inputs": [
        {
          "indexed": true,
          "internalType": "address",
          "name": "account",
          "type": "address"
        },
        {
          "indexed": false,
          "internalType": "bytes4",
          "name": "fromCurrencyKey",
          "type": "bytes4"
        },
        {
          "indexed": false,
          "internalType": "uint256",
          "name": "fromAmount",
          "type": "uint256"
        },
        {
          "indexed": false,
          "internalType": "bytes4",
          "name": "toCurrencyKey",
          "type": "bytes4"
        },
        {
          "indexed": false,
          "internalType": "uint256",
          "name": "toAmount",
          "type": "uint256"
        },
        {
          "indexed": false,
          "internalType": "address",
          "name": "toAddress",
          "type": "address"
        }
      ],
      "name": "SynthExchange",
      "type": "event"
    },
    {
      "anonymous": false,
      "inputs": [
        {
          "indexed": false,
          "internalType": "address",
          "name": "newTokenState",
          "type": "address"
        }
      ],
      "name": "TokenStateUpdated",
      "type": "event"
    },
    {
      "anonymous": false,
      "inputs": [
        {
          "indexed": true,
          "internalType": "address",
          "name": "from",
          "type": "address"
        },
        {
          "indexed": true,
          "internalType": "address",
          "name": "to",
          "type": "address"
        },
        {
          "indexed": false,
          "internalType": "uint256",
          "name": "value",
          "type": "uint256"
        }
      ],
      "name": "Transfer",
      "type": "event"
    },
    {
      "inputs": [],
      "name": "SELFDESTRUCT_DELAY",
      "outputs": [
        {
          "internalType": "uint256",
          "name": "",
          "type": "uint256"
        }
      ],
      "stateMutability": "view",
      "type": "function"
    },
    {
      "inputs": [],
      "name": "acceptOwnership",
      "outputs": [],
      "stateMutability": "nonpayable",
      "type": "function"
    },
    {
      "inputs": [
        {
          "internalType": "contract Synth",
          "name": "synth",
          "type": "address"
        }
      ],
      "name": "addSynth",
      "outputs": [],
      "stateMutability": "nonpayable",
      "type": "function"
    },
    {
      "inputs": [
        {
          "internalType": "address",
          "name": "owner",
          "type": "address"
        },
        {
          "internalType": "address",
          "name": "spender",
          "type": "address"
        }
      ],
      "name": "allowance",
      "outputs": [
        {
          "internalType": "uint256",
          "name": "",
          "type": "uint256"
        }
      ],
      "stateMutability": "view",
      "type": "function"
    },
    {
      "inputs": [
        {
          "internalType": "address",
          "name": "spender",
          "type": "address"
        },
        {
          "internalType": "uint256",
          "name": "value",
          "type": "uint256"
        }
      ],
      "name": "approve",
      "outputs": [
        {
          "internalType": "bool",
          "name": "",
          "type": "bool"
        }
      ],
      "stateMutability": "nonpayable",
      "type": "function"
    },
    {
      "inputs": [],
      "name": "availableSynthCount",
      "outputs": [
        {
          "internalType": "uint256",
          "name": "",
          "type": "uint256"
        }
      ],
      "stateMutability": "view",
      "type": "function"
    },
    {
      "inputs": [
        {
          "internalType": "uint256",
          "name": "",
          "type": "uint256"
        }
      ],
      "name": "availableSynths",
      "outputs": [
        {
          "internalType": "contract Synth",
          "name": "",
          "type": "address"
        }
      ],
      "stateMutability": "view",
      "type": "function"
    },
    {
      "inputs": [
        {
          "internalType": "address",
          "name": "account",
          "type": "address"
        }
      ],
      "name": "balanceOf",
      "outputs": [
        {
          "internalType": "uint256",
          "name": "",
          "type": "uint256"
        }
      ],
      "stateMutability": "view",
      "type": "function"
    },
    {
      "inputs": [
        {
          "internalType": "bytes4",
          "name": "currencyKey",
          "type": "bytes4"
        },
        {
          "internalType": "uint256",
          "name": "amount",
          "type": "uint256"
        }
      ],
      "name": "burnSynths",
      "outputs": [],
      "stateMutability": "nonpayable",
      "type": "function"
    },
    {
      "inputs": [
        {
          "internalType": "address",
          "name": "account",
          "type": "address"
        }
      ],
      "name": "collateral",
      "outputs": [
        {
          "internalType": "uint256",
          "name": "",
          "type": "uint256"
        }
      ],
      "stateMutability": "view",
      "type": "function"
    },
    {
      "inputs": [
        {
          "internalType": "address",
          "name": "issuer",
          "type": "address"
        }
      ],
      "name": "collateralisationRatio",
      "outputs": [
        {
          "internalType": "uint256",
          "name": "",
          "type": "uint256"
        }
      ],
      "stateMutability": "view",
      "type": "function"
    },
    {
      "inputs": [
        {
          "internalType": "address",
          "name": "issuer",
          "type": "address"
        },
        {
          "internalType": "bytes4",
          "name": "currencyKey",
          "type": "bytes4"
        }
      ],
      "name": "debtBalanceOf",
      "outputs": [
        {
          "internalType": "uint256",
          "name": "",
          "type": "uint256"
        }
      ],
      "stateMutability": "view",
      "type": "function"
    },
    {
      "inputs": [],
      "name": "decimals",
      "outputs": [
        {
          "internalType": "uint8",
          "name": "",
          "type": "uint8"
        }
      ],
      "stateMutability": "view",
      "type": "function"
    },
    {
      "inputs": [
        {
          "internalType": "bytes4",
          "name": "sourceCurrencyKey",
          "type": "bytes4"
        },
        {
          "internalType": "uint256",
          "name": "sourceAmount",
          "type": "uint256"
        },
        {
          "internalType": "bytes4",
          "name": "destinationCurrencyKey",
          "type": "bytes4"
        }
      ],
      "name": "effectiveValue",
      "outputs": [
        {
          "internalType": "uint256",
          "name": "",
          "type": "uint256"
        }
      ],
      "stateMutability": "view",
      "type": "function"
    },
    {
      "inputs": [],
      "name": "escrow",
      "outputs": [
        {
          "internalType": "contract ISynthetixEscrow",
          "name": "",
          "type": "address"
        }
      ],
      "stateMutability": "view",
      "type": "function"
    },
    {
      "inputs": [
        {
          "internalType": "bytes4",
          "name": "sourceCurrencyKey",
          "type": "bytes4"
        },
        {
          "internalType": "uint256",
          "name": "sourceAmount",
          "type": "uint256"
        },
        {
          "internalType": "bytes4",
          "name": "destinationCurrencyKey",
          "type": "bytes4"
        },
        {
          "internalType": "address",
          "name": "destinationAddress",
          "type": "address"
        }
      ],
      "name": "exchange",
      "outputs": [
        {
          "internalType": "bool",
          "name": "",
          "type": "bool"
        }
      ],
      "stateMutability": "nonpayable",
      "type": "function"
    },
    {
      "inputs": [],
      "name": "exchangeRates",
      "outputs": [
        {
          "internalType": "contract ExchangeRates",
          "name": "",
          "type": "address"
        }
      ],
      "stateMutability": "view",
      "type": "function"
    },
    {
      "inputs": [],
      "name": "feePool",
      "outputs": [
        {
          "internalType": "contract IFeePool",
          "name": "",
          "type": "address"
        }
      ],
      "stateMutability": "view",
      "type": "function"
    },
    {
      "inputs": [],
      "name": "initiateSelfDestruct",
      "outputs": [],
      "stateMutability": "nonpayable",
      "type": "function"
    },
    {
      "inputs": [],
      "name": "initiationTime",
      "outputs": [
        {
          "internalType": "uint256",
          "name": "",
          "type": "uint256"
        }
      ],
      "stateMutability": "view",
      "type": "function"
    },
    {
      "inputs": [
        {
          "internalType": "bytes4",
          "name": "currencyKey",
          "type": "bytes4"
        }
      ],
      "name": "issueMaxSynths",
      "outputs": [],
      "stateMutability": "nonpayable",
      "type": "function"
    },
    {
      "inputs": [
        {
          "internalType": "bytes4",
          "name": "currencyKey",
          "type": "bytes4"
        },
        {
          "internalType": "uint256",
          "name": "amount",
          "type": "uint256"
        }
      ],
      "name": "issueSynths",
      "outputs": [],
      "stateMutability": "nonpayable",
      "type": "function"
    },
    {
      "inputs": [
        {
          "internalType": "address",
          "name": "issuer",
          "type": "address"
        },
        {
          "internalType": "bytes4",
          "name": "currencyKey",
          "type": "bytes4"
        }
      ],
      "name": "maxIssuableSynths",
      "outputs": [
        {
          "internalType": "uint256",
          "name": "",
          "type": "uint256"
        }
      ],
      "stateMutability": "view",
      "type": "function"
    },
    {
      "inputs": [],
      "name": "mint",
      "outputs": [
        {
          "internalType": "bool",
          "name": "",
          "type": "bool"
        }
      ],
      "stateMutability": "nonpayable",
      "type": "function"
    },
    {
      "inputs": [],
      "name": "name",
      "outputs": [
        {
          "internalType": "string",
          "name": "",
          "type": "string"
        }
      ],
      "stateMutability": "view",
      "type": "function"
    },
    {
      "inputs": [
        {
          "internalType": "address",
          "name": "_owner",
          "type": "address"
        }
      ],
      "name": "nominateNewOwner",
      "outputs": [],
      "stateMutability": "nonpayable",
      "type": "function"
    },
    {
      "inputs": [],
      "name": "nominatedOwner",
      "outputs": [
        {
          "internalType": "address",
          "name": "",
          "type": "address"
        }
      ],
      "stateMutability": "view",
      "type": "function"
    },
    {
      "inputs": [],
      "name": "owner",
      "outputs": [
        {
          "internalType": "address",
          "name": "",
          "type": "address"
        }
      ],
      "stateMutability": "view",
      "type": "function"
    },
    {
      "inputs": [],
      "name": "proxy",
      "outputs": [
        {
          "internalType": "contract Proxy",
          "name": "",
          "type": "address"
        }
      ],
      "stateMutability": "view",
      "type": "function"
    },
    {
      "inputs": [
        {
          "internalType": "address",
          "name": "issuer",
          "type": "address"
        },
        {
          "internalType": "bytes4",
          "name": "currencyKey",
          "type": "bytes4"
        }
      ],
      "name": "remainingIssuableSynths",
      "outputs": [
        {
          "internalType": "uint256",
          "name": "",
          "type": "uint256"
        }
      ],
      "stateMutability": "view",
      "type": "function"
    },
    {
      "inputs": [
        {
          "internalType": "bytes4",
          "name": "currencyKey",
          "type": "bytes4"
        }
      ],
      "name": "removeSynth",
      "outputs": [],
      "stateMutability": "nonpayable",
      "type": "function"
    },
    {
      "inputs": [],
      "name": "rewardEscrow",
      "outputs": [
        {
          "internalType": "contract ISynthetixEscrow",
          "name": "",
          "type": "address"
        }
      ],
      "stateMutability": "view",
      "type": "function"
    },
    {
      "inputs": [],
      "name": "selfDestruct",
      "outputs": [],
      "stateMutability": "nonpayable",
      "type": "function"
    },
    {
      "inputs": [],
      "name": "selfDestructBeneficiary",
      "outputs": [
        {
          "internalType": "address",
          "name": "",
          "type": "address"
        }
      ],
      "stateMutability": "view",
      "type": "function"
    },
    {
      "inputs": [],
      "name": "selfDestructInitiated",
      "outputs": [
        {
          "internalType": "bool",
          "name": "",
          "type": "bool"
        }
      ],
      "stateMutability": "view",
      "type": "function"
    },
    {
      "inputs": [
        {
          "internalType": "contract ExchangeRates",
          "name": "_exchangeRates",
          "type": "address"
        }
      ],
      "name": "setExchangeRates",
      "outputs": [],
      "stateMutability": "nonpayable",
      "type": "function"
    },
    {
      "inputs": [
        {
          "internalType": "contract IFeePool",
          "name": "_feePool",
          "type": "address"
        }
      ],
      "name": "setFeePool",
      "outputs": [],
      "stateMutability": "nonpayable",
      "type": "function"
    },
    {
      "inputs": [
        {
          "internalType": "address",
          "name": "sender",
          "type": "address"
        }
      ],
      "name": "setMessageSender",
      "outputs": [],
      "stateMutability": "nonpayable",
      "type": "function"
    },
    {
      "inputs": [
        {
          "internalType": "address payable",
          "name": "_proxy",
          "type": "address"
        }
      ],
      "name": "setProxy",
      "outputs": [],
      "stateMutability": "nonpayable",
      "type": "function"
    },
    {
      "inputs": [
        {
          "internalType": "address",
          "name": "_beneficiary",
          "type": "address"
        }
      ],
      "name": "setSelfDestructBeneficiary",
      "outputs": [],
      "stateMutability": "nonpayable",
      "type": "function"
    },
    {
      "inputs": [
        {
          "internalType": "contract TokenState",
          "name": "_tokenState",
          "type": "address"
        }
      ],
      "name": "setTokenState",
      "outputs": [],
      "stateMutability": "nonpayable",
      "type": "function"
    },
    {
      "inputs": [],
      "name": "supplySchedule",
      "outputs": [
        {
          "internalType": "contract SupplySchedule",
          "name": "",
          "type": "address"
        }
      ],
      "stateMutability": "view",
      "type": "function"
    },
    {
      "inputs": [],
      "name": "symbol",
      "outputs": [
        {
          "internalType": "string",
          "name": "",
          "type": "string"
        }
      ],
      "stateMutability": "view",
      "type": "function"
    },
    {
      "inputs": [
        {
          "internalType": "address",
          "name": "from",
          "type": "address"
        },
        {
          "internalType": "bytes4",
          "name": "sourceCurrencyKey",
          "type": "bytes4"
        },
        {
          "internalType": "uint256",
          "name": "sourceAmount",
          "type": "uint256"
        },
        {
          "internalType": "bytes4",
          "name": "destinationCurrencyKey",
          "type": "bytes4"
        },
        {
          "internalType": "address",
          "name": "destinationAddress",
          "type": "address"
        }
      ],
      "name": "synthInitiatedExchange",
      "outputs": [
        {
          "internalType": "bool",
          "name": "",
          "type": "bool"
        }
      ],
      "stateMutability": "nonpayable",
      "type": "function"
    },
    {
      "inputs": [
        {
          "internalType": "address",
          "name": "from",
          "type": "address"
        },
        {
          "internalType": "bytes4",
          "name": "sourceCurrencyKey",
          "type": "bytes4"
        },
        {
          "internalType": "uint256",
          "name": "sourceAmount",
          "type": "uint256"
        }
      ],
      "name": "synthInitiatedFeePayment",
      "outputs": [
        {
          "internalType": "bool",
          "name": "",
          "type": "bool"
        }
      ],
      "stateMutability": "nonpayable",
      "type": "function"
    },
    {
      "inputs": [],
      "name": "synthetixState",
      "outputs": [
        {
          "internalType": "contract SynthetixState",
          "name": "",
          "type": "address"
        }
      ],
      "stateMutability": "view",
      "type": "function"
    },
    {
      "inputs": [
        {
          "internalType": "bytes4",
          "name": "",
          "type": "bytes4"
        }
      ],
      "name": "synths",
      "outputs": [
        {
          "internalType": "contract Synth",
          "name": "",
          "type": "address"
        }
      ],
      "stateMutability": "view",
      "type": "function"
    },
    {
      "inputs": [],
      "name": "terminateSelfDestruct",
      "outputs": [],
      "stateMutability": "nonpayable",
      "type": "function"
    },
    {
      "inputs": [],
      "name": "tokenState",
      "outputs": [
        {
          "internalType": "contract TokenState",
          "name": "",
          "type": "address"
        }
      ],
      "stateMutability": "view",
      "type": "function"
    },
    {
      "inputs": [
        {
          "internalType": "bytes4",
          "name": "currencyKey",
          "type": "bytes4"
        }
      ],
      "name": "totalIssuedSynths",
      "outputs": [
        {
          "internalType": "uint256",
          "name": "",
          "type": "uint256"
        }
      ],
      "stateMutability": "view",
      "type": "function"
    },
    {
      "inputs": [],
      "name": "totalSupply",
      "outputs": [
        {
          "internalType": "uint256",
          "name": "",
          "type": "uint256"
        }
      ],
      "stateMutability": "view",
      "type": "function"
    },
    {
      "inputs": [
        {
          "internalType": "address",
          "name": "to",
          "type": "address"
        },
        {
          "internalType": "uint256",
          "name": "value",
          "type": "uint256"
        }
      ],
      "name": "transfer",
      "outputs": [
        {
          "internalType": "bool",
          "name": "",
          "type": "bool"
        }
      ],
      "stateMutability": "nonpayable",
      "type": "function"
    },
    {
      "inputs": [
        {
          "internalType": "address",
          "name": "to",
          "type": "address"
        },
        {
          "internalType": "uint256",
          "name": "value",
          "type": "uint256"
        },
        {
          "internalType": "bytes",
          "name": "data",
          "type": "bytes"
        }
      ],
      "name": "transfer",
      "outputs": [
        {
          "internalType": "bool",
          "name": "",
          "type": "bool"
        }
      ],
      "stateMutability": "nonpayable",
      "type": "function"
    },
    {
      "inputs": [
        {
          "internalType": "address",
          "name": "from",
          "type": "address"
        },
        {
          "internalType": "address",
          "name": "to",
          "type": "address"
        },
        {
          "internalType": "uint256",
          "name": "value",
          "type": "uint256"
        }
      ],
      "name": "transferFrom",
      "outputs": [
        {
          "internalType": "bool",
          "name": "",
          "type": "bool"
        }
      ],
      "stateMutability": "nonpayable",
      "type": "function"
    },
    {
      "inputs": [
        {
          "internalType": "address",
          "name": "from",
          "type": "address"
        },
        {
          "internalType": "address",
          "name": "to",
          "type": "address"
        },
        {
          "internalType": "uint256",
          "name": "value",
          "type": "uint256"
        },
        {
          "internalType": "bytes",
          "name": "data",
          "type": "bytes"
        }
      ],
      "name": "transferFrom",
      "outputs": [
        {
          "internalType": "bool",
          "name": "",
          "type": "bool"
        }
      ],
      "stateMutability": "nonpayable",
      "type": "function"
    },
    {
      "inputs": [
        {
          "internalType": "address",
          "name": "account",
          "type": "address"
        }
      ],
      "name": "transferableSynthetix",
      "outputs": [
        {
          "internalType": "uint256",
          "name": "",
          "type": "uint256"
        }
      ],
      "stateMutability": "view",
      "type": "function"
    }
  ],
  "bytecode": "0x60806040526005805460ff60a01b191690553480156200001e57600080fd5b50604051620058e4380380620058e483398101604081905262000041916200043e565b89896040518060400160405280601581526020017f446572697665642046696e616e636520546f6b656e000000000000000000000081525060405180604001604052806004815260200163088ac88b60e31b8152508460128c86818060006001600160a01b0316816001600160a01b03161415620001065760405162461bcd60e51b815260206004820152601960248201527f4f776e657220616464726573732063616e6e6f7420626520300000000000000060448201526064015b60405180910390fd5b600080546001600160a01b0319166001600160a01b03831690811782556040805192835260208301919091527fb532073b38c83145e3e5135377a08bf9aab55bc0fd7c1179cd4fb995d2a5159c910160405180910390a1506001600160a01b038116620001c15760405162461bcd60e51b815260206004820152602260248201527f4f776e6572206d757374206e6f7420626520746865207a65726f206164647265604482015261737360f01b6064820152608401620000fd565b60038054610100600160a81b0319166101006001600160a01b038416908102919091179091556040519081527fd5da63a0b864b315bc04128dedbc93888c8529ee6cf47ce664dc204339228c539060200160405180910390a1506000546001600160a01b0316620002695760405162461bcd60e51b815260206004820152601160248201527013dddb995c881b5d5cdd081899481cd95d607a1b6044820152606401620000fd565b600480546001600160a01b0319166001600160a01b0383169081179091556040519081527ffc80377ca9c49cc11ae6982f390a42db976d5530af7c43889264b13fbbd7c57e9060200160405180910390a150600680546001600160a01b0319166001600160a01b0388161790558451620002eb90600790602088019062000398565b5083516200030190600890602087019062000398565b5050600991909155600a805460ff191660ff9092169190911790555050601180546001600160a01b03199081166001600160a01b039c8d1617909155601080548216998c16999099179098555050600d805487169589169590951790945560128054861693881693909317909255600f80548516918716919091179055600e80549093169416939093179055506200057592505050565b828054620003a6906200051f565b90600052602060002090601f016020900481019282620003ca576000855562000415565b82601f10620003e557805160ff191683800117855562000415565b8280016001018555821562000415579182015b8281111562000415578251825591602001919060010190620003f8565b506200042392915062000427565b5090565b5b8082111562000423576000815560010162000428565b6000806000806000806000806000806101408b8d0312156200045e578586fd5b8a516200046b816200055c565b60208c0151909a506200047e816200055c565b60408c015190995062000491816200055c565b60608c0151909850620004a4816200055c565b60808c0151909750620004b7816200055c565b60a08c0151909650620004ca816200055c565b60c08c0151909550620004dd816200055c565b60e08c0151909450620004f0816200055c565b6101008c015190935062000504816200055c565b809250506101208b015190509295989b9194979a5092959850565b600181811c908216806200053457607f821691505b602082108114156200055657634e487b7160e01b600052602260045260246000fd5b50919050565b6001600160a01b03811681146200057257600080fd5b50565b61535f80620005856000396000f3fe608060405234801561001057600080fd5b50600436106103785760003560e01c806395d89b41116101d3578063b8225dec11610104578063c58aaae6116100a2578063dd62ed3e1161007c578063dd62ed3e14610753578063e2fdcc1714610766578063e90dd9e214610779578063ec5568891461078c57600080fd5b8063c58aaae614610720578063dbd4a42214610738578063dbf633401461074b57600080fd5b8063be0ecd32116100de578063be0ecd32146106d4578063be45fd62146106e7578063be576364146106fa578063c40dd66f1461070d57600080fd5b8063b8225dec146106ac578063bc67f832146106b9578063bd32aa44146106cc57600080fd5b8063a430be6c11610171578063a9059cbb1161014b578063a9059cbb14610660578063ab67aa5814610673578063ae2e933b14610686578063af0233351461069957600080fd5b8063a430be6c14610630578063a461fc8214610643578063a5fdc5de1461064d57600080fd5b80639f769807116101ad5780639f769807146105e45780639f9f83dd146105f75780639ff8c63f1461060a578063a311c7c21461061d57600080fd5b806395d89b41146105c157806397107d6d146105c95780639cb8a26a146105dc57600080fd5b8063405d3adf116102ad57806370a082311161024b578063835e119c11610225578063835e119c14610575578063849cf5881461058857806384dcde971461059b5780638da5cb5b146105ae57600080fd5b806370a082311461054757806379ba50971461055a578063807d94a71461056257600080fd5b8063502b8bda11610287578063502b8bda146104e557806353a47bb71461050e57806356e44954146105215780636ac0bf9c1461053457600080fd5b8063405d3adf1461049457806349755b9e146104a75780634ffcd9df146104ba57600080fd5b806320714f881161031a578063313ce567116102f4578063313ce567146104475780633278c9601461046657806339d66fc01461046e578063403dca551461048157600080fd5b806320714f881461040e57806323b872dd14610421578063274ed2881461043457600080fd5b80631627540c116103565780631627540c146103c657806317c70de4146103db57806318160ddd146103f257806319db2228146103fb57600080fd5b806306fdde031461037d578063095ea7b31461039b5780631249c58b146103be575b600080fd5b61038561079f565b6040516103929190614fc1565b60405180910390f35b6103ae6103a9366004614cbd565b61082d565b6040519015158152602001610392565b6103ae6108e0565b6103d96103d4366004614ae0565b610d99565b005b6103e460025481565b604051908152602001610392565b6103e460095481565b6103d9610409366004614ae0565b610e18565b6103d961041c366004614ae0565b610e8f565b6103ae61042f366004614b50565b610f76565b6103e4610442366004614bfa565b610f8f565b600a546104549060ff1681565b60405160ff9091168152602001610392565b6103d9611177565b6103e461047c366004614db4565b6111db565b6103e461048f366004614d5f565b611454565b6103ae6104a2366004614df5565b61185d565b6103d96104b5366004614d97565b611965565b6010546104cd906001600160a01b031681565b6040516001600160a01b039091168152602001610392565b6104cd6104f3366004614d5f565b600c602052600090815260409020546001600160a01b031681565b6001546104cd906001600160a01b031681565b6103d961052f366004614ae0565b611a78565b6103e4610542366004614ae0565b611aef565b6103e4610555366004614ae0565b611cdb565b6103d9611d59565b6103e4610570366004614bfa565b611e43565b6104cd610583366004614e47565b611efa565b6103d9610596366004614ae0565b611f24565b6103d96105a9366004614d5f565b6120c5565b6000546104cd906001600160a01b031681565b610385612488565b6103d96105d7366004614ae0565b612495565b6103d961250d565b6103d96105f2366004614ae0565b61265b565b6103e4610605366004614bfa565b6126d7565b6103d9610618366004614d5f565b612719565b6103e461062b366004614ae0565b612763565b600f546104cd906001600160a01b031681565b6103e46224ea0081565b6103e461065b366004614ae0565b61279e565b6103ae61066e366004614cbd565b61295c565b6103ae610681366004614b90565b61296b565b600d546104cd906001600160a01b031681565b6103d96106a7366004614d97565b612a07565b6003546103ae9060ff1681565b6103d96106c7366004614ae0565b612b84565b6103d9612c0e565b6103ae6106e2366004614c56565b612c88565b6103ae6106f5366004614ce8565b612dec565b6103ae610708366004614c27565b612e92565b6012546104cd906001600160a01b031681565b6003546104cd9061010090046001600160a01b031681565b6011546104cd906001600160a01b031681565b600b546103e4565b6103e4610761366004614b18565b6130b4565b600e546104cd906001600160a01b031681565b6006546104cd906001600160a01b031681565b6004546104cd906001600160a01b031681565b600780546107ac90615253565b80601f01602080910402602001604051908101604052809291908181526020018280546107d890615253565b80156108255780601f106107fa57610100808354040283529160200191610825565b820191906000526020600020905b81548152906001019060200180831161080857829003601f168201915b505050505081565b6004546000906001600160a01b0316331461085557600580546001600160a01b031916331790555b600554600654604051633691826360e21b81526001600160a01b0392831660048201819052868416602483015260448201869052929091169063da46098c90606401600060405180830381600087803b1580156108b157600080fd5b505af11580156108c5573d6000803e3d6000fd5b505050506108d481858561313a565b60019150505b92915050565b600f546000906001600160a01b031661094a5760405162461bcd60e51b815260206004820152602160248201527f52657761726420457363726f772064657374696e6174696f6e206d697373696e6044820152606760f81b60648201526084015b60405180910390fd5b60125460408051633317025760e21b815290516000926001600160a01b03169163cc5c095c916004808301926020929190829003018186803b15801561098f57600080fd5b505afa1580156109a3573d6000803e3d6000fd5b505050506040513d601f19601f820116820180604052508101906109c79190614e5f565b905060008111610a115760405162461bcd60e51b81526020600482015260156024820152744e6f20737570706c79206973206d696e7461626c6560581b6044820152606401610941565b601260009054906101000a90046001600160a01b03166001600160a01b03166349e701596040518163ffffffff1660e01b8152600401602060405180830381600087803b158015610a6157600080fd5b505af1158015610a75573d6000803e3d6000fd5b505050506040513d601f19601f82011682018060405250810190610a999190614d3f565b5060125460408051639bdd7ac760e01b815290516000926001600160a01b031691639bdd7ac7916004808301926020929190829003018186803b158015610adf57600080fd5b505afa158015610af3573d6000803e3d6000fd5b505050506040513d601f19601f82011682018060405250810190610b179190614e5f565b600654600f546040516370a0823160e01b81526001600160a01b039182166004820181905293945091169163b46310f6918490869085906370a082319060240160206040518083038186803b158015610b6f57600080fd5b505afa158015610b83573d6000803e3d6000fd5b505050506040513d601f19601f82011682018060405250810190610ba79190614e5f565b610bb191906150b3565b610bbb91906151e9565b6040518363ffffffff1660e01b8152600401610bd8929190614ee2565b600060405180830381600087803b158015610bf257600080fd5b505af1158015610c06573d6000803e3d6000fd5b5050600f54610c2b92503091506001600160a01b0316610c2684866151e9565b6131f8565b600d546001600160a01b031663e3f060ae610c4683856151e9565b6040518263ffffffff1660e01b8152600401610c6491815260200190565b600060405180830381600087803b158015610c7e57600080fd5b505af1158015610c92573d6000803e3d6000fd5b50506006546040516370a0823160e01b815233600482018190526001600160a01b03909216935063b46310f69250849084906370a082319060240160206040518083038186803b158015610ce557600080fd5b505afa158015610cf9573d6000803e3d6000fd5b505050506040513d601f19601f82011682018060405250810190610d1d9190614e5f565b610d2791906150b3565b6040518363ffffffff1660e01b8152600401610d44929190614ee2565b600060405180830381600087803b158015610d5e57600080fd5b505af1158015610d72573d6000803e3d6000fd5b50505050610d813033836131f8565b81600954610d8f91906150b3565b6009555090919050565b6000546001600160a01b03163314610dc35760405162461bcd60e51b815260040161094190615016565b600180546001600160a01b0319166001600160a01b0383169081179091556040519081527f906a1c6bd7e3091ea86693dd029a831c19049ce77f1dce2ce0bab1cacbabce22906020015b60405180910390a150565b6004546001600160a01b03163314610e3d57600580546001600160a01b031916331790555b6000546005546001600160a01b03908116911614610e6d5760405162461bcd60e51b815260040161094190615065565b600d80546001600160a01b0319166001600160a01b0392909216919091179055565b6000546001600160a01b03163314610eb95760405162461bcd60e51b815260040161094190615016565b6001600160a01b038116610f205760405162461bcd60e51b815260206004820152602860248201527f42656e6566696369617279206d757374206e6f7420626520746865207a65726f604482015267206164647265737360c01b6064820152608401610941565b60038054610100600160a81b0319166101006001600160a01b038416908102919091179091556040519081527fd5da63a0b864b315bc04128dedbc93888c8529ee6cf47ce664dc204339228c5390602001610e0d565b60006060610f868585858461296b565b95945050505050565b601154604051631167f01160e31b81526001600160a01b0384811660048301526000928392839290911690638b3f808890602401604080518083038186803b158015610fda57600080fd5b505afa158015610fee573d6000803e3d6000fd5b505050506040513d601f19601f820116820180604052508101906110129190614e77565b909250905081611027576000925050506108da565b6011546040516308d95cd560e01b81526004810183905260009161114291859161113c916001600160a01b03909116906308d95cd59060240160206040518083038186803b15801561107857600080fd5b505afa15801561108c573d6000803e3d6000fd5b505050506040513d601f19601f820116820180604052508101906110b09190614e5f565b601160009054906101000a90046001600160a01b03166001600160a01b031663463177126040518163ffffffff1660e01b815260040160206040518083038186803b1580156110fe57600080fd5b505afa158015611112573d6000803e3d6000fd5b505050506040513d601f19601f820116820180604052508101906111369190614e5f565b9061325b565b90613273565b9050600061114f86611454565b905060006111608361113c8461328b565b905061116b816132b1565b98975050505050505050565b6000546001600160a01b031633146111a15760405162461bcd60e51b815260040161094190615016565b600060028190556003805460ff191690556040517f6adcc7125002935e0aa31697538ebbd65cfddf20431eb6ecdcfc3e238bfd082c9190a1565b60105460405163ea3d410960e01b815260009185916001600160a01b039091169063ea3d410990611210908490600401614f70565b60206040518083038186803b15801561122857600080fd5b505afa15801561123c573d6000803e3d6000fd5b505050506040513d601f19601f820116820180604052508101906112609190614d3f565b1561127d5760405162461bcd60e51b815260040161094190614fd4565b60105460405163ea3d410960e01b815284916001600160a01b03169063ea3d4109906112ad908490600401614f70565b60206040518083038186803b1580156112c557600080fd5b505afa1580156112d9573d6000803e3d6000fd5b505050506040513d601f19601f820116820180604052508101906112fd9190614d3f565b1561131a5760405162461bcd60e51b815260040161094190614fd4565b6001600160e01b031986811690851614156113375784925061144b565b60105460405163578ffcb960e11b8152611448916001600160a01b03169063af1ff97290611369908890600401614f70565b60206040518083038186803b15801561138157600080fd5b505afa158015611395573d6000803e3d6000fd5b505050506040513d601f19601f820116820180604052508101906113b99190614e5f565b60105460405163578ffcb960e11b8152611442916001600160a01b03169063af1ff972906113eb908c90600401614f70565b60206040518083038186803b15801561140357600080fd5b505afa158015611417573d6000803e3d6000fd5b505050506040513d601f19601f8201168201806040525081019061143b9190614e5f565b8890613311565b90613324565b92505b50509392505050565b60105460405163ea3d410960e01b815260009183916001600160a01b039091169063ea3d410990611489908490600401614f70565b60206040518083038186803b1580156114a157600080fd5b505afa1580156114b5573d6000803e3d6000fd5b505050506040513d601f19601f820116820180604052508101906114d99190614d3f565b156114f65760405162461bcd60e51b815260040161094190614fd4565b60105460405163578ffcb960e11b815260009182916001600160a01b039091169063af1ff9729061152b908890600401614f70565b60206040518083038186803b15801561154357600080fd5b505afa158015611557573d6000803e3d6000fd5b505050506040513d601f19601f8201168201806040525081019061157b9190614e5f565b6010549091506001600160a01b031663370d62ad611597613337565b6040518263ffffffff1660e01b81526004016115b39190614f22565b60206040518083038186803b1580156115cb57600080fd5b505afa1580156115df573d6000803e3d6000fd5b505050506040513d601f19601f820116820180604052508101906116039190614d3f565b156116425760405162461bcd60e51b815260206004820152600f60248201526e526174657320617265207374616c6560881b6044820152606401610941565b60005b600b5460ff8216101561185157601054600b805460009261182f928692611442926001600160a01b03169163af1ff9729160ff891690811061169757634e487b7160e01b600052603260045260246000fd5b600091825260209182902001546040805163dbd06c8560e01b815290516001600160a01b039092169263dbd06c8592600480840193829003018186803b1580156116e057600080fd5b505afa1580156116f4573d6000803e3d6000fd5b505050506040513d601f19601f820116820180604052508101906117189190614d7b565b6040518263ffffffff1660e01b81526004016117349190614f70565b60206040518083038186803b15801561174c57600080fd5b505afa158015611760573d6000803e3d6000fd5b505050506040513d601f19601f820116820180604052508101906117849190614e5f565b600b8660ff16815481106117a857634e487b7160e01b600052603260045260246000fd5b60009182526020918290200154604080516318160ddd60e01b815290516001600160a01b03909216926318160ddd92600480840193829003018186803b1580156117f157600080fd5b505afa158015611805573d6000803e3d6000fd5b505050506040513d601f19601f820116820180604052508101906118299190614e5f565b90613311565b905061183b81856150b3565b935050808061184990615288565b915050611645565b50909250505b50919050565b6004546000906001600160a01b0316331461188557600580546001600160a01b031916331790555b6001600160e01b031985811690841614156118ed5760405162461bcd60e51b815260206004820152602260248201527f45786368616e6765206d7573742075736520646966666572656e742073796e74604482015261687360f01b6064820152608401610941565b6000841161192b5760405162461bcd60e51b815260206004820152600b60248201526a16995c9bc8185b5bdd5b9d60aa1b6044820152606401610941565b600554610f86906001600160a01b0390811690879087908790871615611951578661195e565b6005546001600160a01b03165b6001613495565b6004546001600160a01b0316331461198a57600580546001600160a01b031916331790555b6005546119a0906001600160a01b0316836126d7565b8111156119e25760405162461bcd60e51b815260206004820152601060248201526f416d6f756e7420746f6f206c6172676560801b6044820152606401610941565b6119ec8282613a4f565b6001600160e01b031982166000908152600c60205260409081902054600554915163219e412d60e21b81526001600160a01b039182169263867904b492611a3a929116908590600401614ee2565b600060405180830381600087803b158015611a5457600080fd5b505af1158015611a68573d6000803e3d6000fd5b50505050611a74613f39565b5050565b6004546001600160a01b03163314611a9d57600580546001600160a01b031916331790555b6000546005546001600160a01b03908116911614611acd5760405162461bcd60e51b815260040161094190615065565b601080546001600160a01b0319166001600160a01b0392909216919091179055565b60105460405163ea3d410960e01b815260009163088ac88b60e31b916001600160a01b039091169063ea3d410990611b2b908490600401614f70565b60206040518083038186803b158015611b4357600080fd5b505afa158015611b57573d6000803e3d6000fd5b505050506040513d601f19601f82011682018060405250810190611b7b9190614d3f565b15611b985760405162461bcd60e51b815260040161094190614fd4565b6006546040516370a0823160e01b81526001600160a01b03858116600483015260009216906370a082319060240160206040518083038186803b158015611bde57600080fd5b505afa158015611bf2573d6000803e3d6000fd5b505050506040513d601f19601f82011682018060405250810190611c169190614e5f565b90506000611cb4601160009054906101000a90046001600160a01b03166001600160a01b031663b410a0346040518163ffffffff1660e01b815260040160206040518083038186803b158015611c6b57600080fd5b505afa158015611c7f573d6000803e3d6000fd5b505050506040513d601f19601f82011682018060405250810190611ca39190614e5f565b6114428763088ac88b60e31b610f8f565b9050818110611cc857600093505050611857565b611cd281836151e9565b93505050611857565b6006546040516370a0823160e01b81526001600160a01b03838116600483015260009216906370a082319060240160206040518083038186803b158015611d2157600080fd5b505afa158015611d35573d6000803e3d6000fd5b505050506040513d601f19601f820116820180604052508101906108da9190614e5f565b6001546001600160a01b03163314611dd15760405162461bcd60e51b815260206004820152603560248201527f596f75206d757374206265206e6f6d696e61746564206265666f726520796f7560448201527402063616e20616363657074206f776e65727368697605c1b6064820152608401610941565b600054600154604080516001600160a01b0393841681529290911660208301527fb532073b38c83145e3e5135377a08bf9aab55bc0fd7c1179cd4fb995d2a5159c910160405180910390a160018054600080546001600160a01b03199081166001600160a01b03841617909155169055565b600080611e6063088ac88b60e31b611e5a8661279e565b856111db565b9050611ef2601160009054906101000a90046001600160a01b03166001600160a01b031663b410a0346040518163ffffffff1660e01b815260040160206040518083038186803b158015611eb357600080fd5b505afa158015611ec7573d6000803e3d6000fd5b505050506040513d601f19601f82011682018060405250810190611eeb9190614e5f565b8290614033565b949350505050565b600b8181548110611f0a57600080fd5b6000918252602090912001546001600160a01b0316905081565b6004546001600160a01b03163314611f4957600580546001600160a01b031916331790555b6000546005546001600160a01b03908116911614611f795760405162461bcd60e51b815260040161094190615065565b6000816001600160a01b031663dbd06c856040518163ffffffff1660e01b815260040160206040518083038186803b158015611fb457600080fd5b505afa158015611fc8573d6000803e3d6000fd5b505050506040513d601f19601f82011682018060405250810190611fec9190614d7b565b6001600160e01b031981166000908152600c60205260409020549091506001600160a01b0316156120565760405162461bcd60e51b815260206004820152601460248201527353796e746820616c72656164792065786973747360601b6044820152606401610941565b600b8054600181019091557f0175b7a638427703f0dbe7bb9bbf987a2551717b34e79f33b5b1008d1fa01db90180546001600160a01b039093166001600160a01b031993841681179091556001600160e01b03199091166000908152600c602052604090208054909216179055565b6004546001600160a01b031633146120ea57600580546001600160a01b031916331790555b6000546005546001600160a01b0390811691161461211a5760405162461bcd60e51b815260040161094190615065565b6001600160e01b031981166000908152600c60205260409020546001600160a01b03166121805760405162461bcd60e51b815260206004820152601460248201527314de5b9d1a08191bd95cc81b9bdd08195e1a5cdd60621b6044820152606401610941565b6001600160e01b031981166000908152600c60209081526040918290205482516318160ddd60e01b815292516001600160a01b03909116926318160ddd926004808301939192829003018186803b1580156121da57600080fd5b505afa1580156121ee573d6000803e3d6000fd5b505050506040513d601f19601f820116820180604052508101906122129190614e5f565b156122555760405162461bcd60e51b815260206004820152601360248201527253796e746820737570706c792065786973747360681b6044820152606401610941565b622c222960e91b6001600160e01b0319821614156122b55760405162461bcd60e51b815260206004820152601760248201527f43616e6e6f742072656d6f7665205844522073796e74680000000000000000006044820152606401610941565b6001600160e01b031981166000908152600c60205260408120546001600160a01b0316905b600b5460ff8216101561245e57816001600160a01b0316600b8260ff168154811061231557634e487b7160e01b600052603260045260246000fd5b6000918252602090912001546001600160a01b0316141561244c57600b8160ff168154811061235457634e487b7160e01b600052603260045260246000fd5b600091825260209091200180546001600160a01b0319169055600b805461237d906001906151e9565b8154811061239b57634e487b7160e01b600052603260045260246000fd5b600091825260209091200154600b80546001600160a01b039092169160ff84169081106123d857634e487b7160e01b600052603260045260246000fd5b9060005260206000200160006101000a8154816001600160a01b0302191690836001600160a01b03160217905550600b80548061242557634e487b7160e01b600052603160045260246000fd5b600082815260209020810160001990810180546001600160a01b031916905501905561245e565b8061245681615288565b9150506122da565b50506001600160e01b0319166000908152600c6020526040902080546001600160a01b0319169055565b600880546107ac90615253565b6000546001600160a01b031633146124bf5760405162461bcd60e51b815260040161094190615016565b600480546001600160a01b0319166001600160a01b0383169081179091556040519081527ffc80377ca9c49cc11ae6982f390a42db976d5530af7c43889264b13fbbd7c57e90602001610e0d565b6000546001600160a01b031633146125375760405162461bcd60e51b815260040161094190615016565b60035460ff1661259a5760405162461bcd60e51b815260206004820152602860248201527f53656c6620646573747275637420686173206e6f7420796574206265656e20696044820152671b9a5d1a585d195960c21b6064820152608401610941565b426224ea006002546125ac91906150b3565b106126095760405162461bcd60e51b815260206004820152602760248201527f53656c662064657374727563742064656c617920686173206e6f742079657420604482015266195b185c1cd95960ca1b6064820152608401610941565b6003546040516101009091046001600160a01b0316808252907f8a09e1677ced846cb537dc2b172043bd05a1a81ad7e0033a7ef8ba762df990b79060200160405180910390a1806001600160a01b0316ff5b6004546001600160a01b0316331461268057600580546001600160a01b031916331790555b6000546005546001600160a01b039081169116146126b05760405162461bcd60e51b815260040161094190615065565b600680546001600160a01b0319166001600160a01b0383161790556126d481614055565b50565b6000806126e48484610f8f565b905060006126f28585611e43565b9050808210612706576000925050506108da565b61271082826151e9565b925050506108da565b6004546001600160a01b0316331461273e57600580546001600160a01b031916331790555b600554600090612757906001600160a01b0316836126d7565b9050611a748282611965565b60008061276f8361279e565b90508061277f5750600092915050565b60006127928463088ac88b60e31b610f8f565b9050611ef28183613324565b6006546040516370a0823160e01b81526001600160a01b03838116600483015260009283929116906370a082319060240160206040518083038186803b1580156127e757600080fd5b505afa1580156127fb573d6000803e3d6000fd5b505050506040513d601f19601f8201168201806040525081019061281f9190614e5f565b600e549091506001600160a01b0316156128bd57600e546040516370a0823160e01b81526001600160a01b038581166004830152909116906370a082319060240160206040518083038186803b15801561287857600080fd5b505afa15801561288c573d6000803e3d6000fd5b505050506040513d601f19601f820116820180604052508101906128b09190614e5f565b6128ba90826150b3565b90505b600f546001600160a01b0316156108da57600f546040516370a0823160e01b81526001600160a01b038581166004830152909116906370a082319060240160206040518083038186803b15801561291357600080fd5b505afa158015612927573d6000803e3d6000fd5b505050506040513d601f19601f8201168201806040525081019061294b9190614e5f565b61295590826150b3565b9392505050565b60006060611ef2848483612dec565b6004546000906001600160a01b0316331461299357600580546001600160a01b031916331790555b61299c85611aef565b8311156129e25760405162461bcd60e51b8152602060048201526014602482015273496e73756666696369656e742062616c616e636560601b6044820152606401610941565b6005546129fb906001600160a01b031686868686614104565b50600195945050505050565b6004546001600160a01b03163314612a2c57600580546001600160a01b031916331790555b6000612a3f8383622c222960e91b6111db565b600554909150600090612a61906001600160a01b0316622c222960e91b610f8f565b600554909150600090612a7d906001600160a01b031686610f8f565b905060008211612ac45760405162461bcd60e51b81526020600482015260126024820152714e6f206465627420746f20666f726769766560701b6044820152606401610941565b6000838310612ad35783612ad5565b825b9050612ae081614220565b6000858310612aef5785612af1565b825b6001600160e01b031988166000908152600c602052604090819020546005549151632770a7eb60e21b81529293506001600160a01b0390811692639dc29fac92612b419216908590600401614ee2565b600060405180830381600087803b158015612b5b57600080fd5b505af1158015612b6f573d6000803e3d6000fd5b50505050612b7b613f39565b50505050505050565b6004546001600160a01b03163314612bec5760405162461bcd60e51b815260206004820152602560248201527f4f6e6c79207468652070726f78792063616e2063616c6c20746869732066756e60448201526431ba34b7b760d91b6064820152608401610941565b600580546001600160a01b0319166001600160a01b0392909216919091179055565b6000546001600160a01b03163314612c385760405162461bcd60e51b815260040161094190615016565b426002556003805460ff191660011790556040517fcbd94ca75b8dc45c9d80c77e851670e78843c0d75180cb81db3e2158228fa9a690612c7e906224ea00815260200190565b60405180910390a1565b600080805b600b5460ff82161015612cfe57336001600160a01b0316600b8260ff1681548110612cc857634e487b7160e01b600052603260045260246000fd5b6000918252602090912001546001600160a01b03161415612cec5760019150612cfe565b80612cf681615288565b915050612c8d565b5080612d415760405162461bcd60e51b815260206004820152601260248201527113db9b1e481cde5b9d1a08185b1b1bddd95960721b6044820152606401610941565b6001600160e01b03198681169085161415612d945760405162461bcd60e51b8152602060048201526013602482015272086c2dc4ee840c4ca40e6c2daca40e6f2dce8d606b1b6044820152606401610941565b60008511612dd25760405162461bcd60e51b815260206004820152600b60248201526a16995c9bc8185b5bdd5b9d60aa1b6044820152606401610941565b612de187878787876000613495565b979650505050505050565b6004546000906001600160a01b03163314612e1457600580546001600160a01b031916331790555b600554612e29906001600160a01b0316611aef565b831115612e6f5760405162461bcd60e51b8152602060048201526014602482015273496e73756666696369656e742062616c616e636560601b6044820152606401610941565b600554612e87906001600160a01b031685858561451d565b506001949350505050565b600080805b600b5460ff82161015612f0857336001600160a01b0316600b8260ff1681548110612ed257634e487b7160e01b600052603260045260246000fd5b6000918252602090912001546001600160a01b03161415612ef65760019150612f08565b80612f0081615288565b915050612e97565b5080612f4b5760405162461bcd60e51b815260206004820152601260248201527113db9b1e481cde5b9d1a08185b1b1bddd95960721b6044820152606401610941565b82612f5957600191506130ac565b60008311612f9d5760405162461bcd60e51b81526020600482015260116024820152700536f757263652063616e2774206265203607c1b6044820152606401610941565b6000613039868686622c222960e91b600d60009054906101000a90046001600160a01b03166001600160a01b031663eb1edd616040518163ffffffff1660e01b815260040160206040518083038186803b158015612ffa57600080fd5b505afa15801561300e573d6000803e3d6000fd5b505050506040513d601f19601f820116820180604052508101906130329190614afc565b6000613495565b600d546040516351feb68760e11b81526001600160e01b031988166004820152602481018790529192506001600160a01b03169063a3fd6d0e90604401600060405180830381600087803b15801561309057600080fd5b505af11580156130a4573d6000803e3d6000fd5b509294505050505b509392505050565b600654604051636eb1769f60e11b81526001600160a01b0384811660048301528381166024830152600092169063dd62ed3e9060440160206040518083038186803b15801561310257600080fd5b505afa158015613116573d6000803e3d6000fd5b505050506040513d601f19601f820116820180604052508101906129559190614e5f565b60045460408051602081018490526001600160a01b039092169163907dff97910160405160208183030381529060405260037f8c5be1e5ebec7d5bd14f71427d1e84f3dd0314c0f7b2291e5b200ac8c7c3b92561319d886001600160a01b031690565b6001600160a01b03881660006040518763ffffffff1660e01b81526004016131ca96959493929190614f85565b600060405180830381600087803b1580156131e457600080fd5b505af1158015612b7b573d6000803e3d6000fd5b60045460408051602081018490526001600160a01b039092169163907dff97910160405160208183030381529060405260037fddf252ad1be2c89b69c2b068fc378daa952ba7f163c4a11628f55a4df523b3ef61319d886001600160a01b031690565b6000612955838361326e601b600a615122565b61452b565b60006129558383613286601b600a615122565b61457a565b60006108da61329c6012601b615200565b6132aa9060ff16600a615122565b839061459c565b600080600a6132c26012601b615200565b6132d09060ff16600a615122565b6132da91906150cb565b6132e490846150cb565b905060056132f3600a836152a8565b1061330657613303600a826150b3565b90505b612955600a826150cb565b600061295583836132866012600a615122565b6000612955838361326e6012600a615122565b600b5460609060009067ffffffffffffffff81111561336657634e487b7160e01b600052604160045260246000fd5b60405190808252806020026020018201604052801561338f578160200160208202803683370190505b50905060005b600b5460ff8216101561185757600b8160ff16815481106133c657634e487b7160e01b600052603260045260246000fd5b600091825260209182902001546040805163dbd06c8560e01b815290516001600160a01b039092169263dbd06c8592600480840193829003018186803b15801561340f57600080fd5b505afa158015613423573d6000803e3d6000fd5b505050506040513d601f19601f820116820180604052508101906134479190614d7b565b828260ff168151811061346a57634e487b7160e01b600052603260045260246000fd5b6001600160e01b0319909216602092830291909101909101528061348d81615288565b915050613395565b600086600d60009054906101000a90046001600160a01b03166001600160a01b031663eb1edd616040518163ffffffff1660e01b815260040160206040518083038186803b1580156134e657600080fd5b505afa1580156134fa573d6000803e3d6000fd5b505050506040513d601f19601f8201168201806040525081019061351e9190614afc565b6001600160a01b0316816001600160a01b0316141561357f5760405162461bcd60e51b815260206004820152601760248201527f4665652061646472657373206e6f7420616c6c6f7765640000000000000000006044820152606401610941565b6001600160a01b0384166135c85760405162461bcd60e51b815260206004820152601060248201526f2d32b937903232b9ba34b730ba34b7b760811b6044820152606401610941565b6001600160a01b0384163014156136215760405162461bcd60e51b815260206004820181905260248201527f53796e74686574697820697320696e76616c69642064657374696e6174696f6e6044820152606401610941565b6004546001600160a01b038581169116141561367f5760405162461bcd60e51b815260206004820152601c60248201527f50726f787920697320696e76616c69642064657374696e6174696f6e000000006044820152606401610941565b6001600160e01b031987166000908152600c602052604090819020549051632770a7eb60e21b81526001600160a01b0390911690639dc29fac906136c9908b908a90600401614ee2565b600060405180830381600087803b1580156136e357600080fd5b505af11580156136f7573d6000803e3d6000fd5b5050505060006137088888886111db565b9050806000851561379e57600d5460405163702dd64160e11b8152600481018590526001600160a01b039091169063e05bac829060240160206040518083038186803b15801561375757600080fd5b505afa15801561376b573d6000803e3d6000fd5b505050506040513d601f19601f8201168201806040525081019061378f9190614e5f565b915061379b82846151e9565b90505b6001600160e01b031988166000908152600c60205260409081902054905163219e412d60e21b81526001600160a01b039091169063867904b4906137e8908a908690600401614ee2565b600060405180830381600087803b15801561380257600080fd5b505af1158015613816573d6000803e3d6000fd5b5050505060008111156139aa5760006138368983622c222960e91b6111db565b622c222960e91b600052600c60209081527f45a9f72b289ce6682e761d7c5cca99acc283f3b6a9e0fc08d4369cafefd7ef1954600d546040805163eb1edd6160e01b815290519495506001600160a01b039283169463867904b494939092169263eb1edd6192600480840193829003018186803b1580156138b657600080fd5b505afa1580156138ca573d6000803e3d6000fd5b505050506040513d601f19601f820116820180604052508101906138ee9190614afc565b836040518363ffffffff1660e01b815260040161390c929190614ee2565b600060405180830381600087803b15801561392657600080fd5b505af115801561393a573d6000803e3d6000fd5b5050600d546040516351feb68760e11b8152622c222960e91b6004820152602481018590526001600160a01b03909116925063a3fd6d0e9150604401600060405180830381600087803b15801561399057600080fd5b505af11580156139a4573d6000803e3d6000fd5b50505050505b6001600160e01b031988166000908152600c60205260409081902054905163eb6ecc0360e01b81526001600160a01b038d811660048301528981166024830152604482018590529091169063eb6ecc0390606401600060405180830381600087803b158015613a1857600080fd5b505af1158015613a2c573d6000803e3d6000fd5b50505050613a3e8b8b8b8b868c6145a8565b5060019a9950505050505050505050565b6004546001600160a01b03163314613a7457600580546001600160a01b031916331790555b6000613a878383622c222960e91b6111db565b90506000613a9a622c222960e91b611454565b90506000613aa882846150b3565b90506000613ab6848361325b565b905060008173__$b8d33eeb36ac0d1e81cd70156e0043e778$__63d5e5e6e66040518163ffffffff1660e01b815260040160206040518083038186803b158015613aff57600080fd5b505af4158015613b13573d6000803e3d6000fd5b505050506040513d601f19601f82011682018060405250810190613b379190614e5f565b613b4191906151e9565b600554909150600090613b63906001600160a01b0316622c222960e91b610f8f565b90508015613b7c57613b798461113683896150b3565b92505b601154600554604051635cc9409760e11b81526001600160a01b03918216600482015291169063b992812e9060240160206040518083038186803b158015613bc357600080fd5b505afa158015613bd7573d6000803e3d6000fd5b505050506040513d601f19601f82011682018060405250810190613bfb9190614d3f565b613c6857601160009054906101000a90046001600160a01b03166001600160a01b0316631bfba5956040518163ffffffff1660e01b8152600401600060405180830381600087803b158015613c4f57600080fd5b505af1158015613c63573d6000803e3d6000fd5b505050505b60115460055460405163a764eb4560e01b81526001600160a01b039283169263a764eb4592613c9e929116908790600401614ee2565b600060405180830381600087803b158015613cb857600080fd5b505af1158015613ccc573d6000803e3d6000fd5b505050506000601160009054906101000a90046001600160a01b03166001600160a01b031663cd92eba96040518163ffffffff1660e01b815260040160206040518083038186803b158015613d2057600080fd5b505afa158015613d34573d6000803e3d6000fd5b505050506040513d601f19601f82011682018060405250810190613d589190614e5f565b1115613e3e5760115460408051632318bb8960e11b815290516001600160a01b0390921691633d31e97b91613de99186918591634631771291600480820192602092909190829003018186803b158015613db157600080fd5b505afa158015613dc5573d6000803e3d6000fd5b505050506040513d601f19601f8201168201806040525081019061113c9190614e5f565b6040518263ffffffff1660e01b8152600401613e0791815260200190565b600060405180830381600087803b158015613e2157600080fd5b505af1158015613e35573d6000803e3d6000fd5b50505050613f2f565b601160009054906101000a90046001600160a01b03166001600160a01b0316633d31e97b73__$b8d33eeb36ac0d1e81cd70156e0043e778$__63d5e5e6e66040518163ffffffff1660e01b815260040160206040518083038186803b158015613ea657600080fd5b505af4158015613eba573d6000803e3d6000fd5b505050506040513d601f19601f82011682018060405250810190613ede9190614e5f565b6040518263ffffffff1660e01b8152600401613efc91815260200190565b600060405180830381600087803b158015613f1657600080fd5b505af1158015613f2a573d6000803e3d6000fd5b505050505b5050505050505050565b601154600554604051631167f01160e31b81526001600160a01b03918216600482015260009283921690638b3f808890602401604080518083038186803b158015613f8357600080fd5b505afa158015613f97573d6000803e3d6000fd5b505050506040513d601f19601f82011682018060405250810190613fbb9190614e77565b600d54600554604051632199149d60e21b81526001600160a01b03918216600482015260248101859052604481018490529395509193501690638664527490606401600060405180830381600087803b15801561401757600080fd5b505af115801561402b573d6000803e3d6000fd5b505050505050565b60006140416012600a615122565b61404b848461459c565b61295591906150cb565b600454604080516001600160a01b0384811660208301529092169163907dff97910160405160208183030381529060405260017fa538c4dcfe9fb148efee2952bafe34982d2d07d5fbb38ae5b44abf659a46bfd860008060006040518763ffffffff1660e01b81526004016140cf96959493929190614f85565b600060405180830381600087803b1580156140e957600080fd5b505af11580156140fd573d6000803e3d6000fd5b5050505050565b600654604051636eb1769f60e11b81526001600160a01b0386811660048301528781166024830152600092169063da46098c90879089906141a3908890869063dd62ed3e906044015b60206040518083038186803b15801561416557600080fd5b505afa158015614179573d6000803e3d6000fd5b505050506040513d601f19601f8201168201806040525081019061419d9190614e5f565b90614658565b6040516001600160e01b031960e086901b1681526001600160a01b0393841660048201529290911660248301526044820152606401600060405180830381600087803b1580156141f257600080fd5b505af1158015614206573d6000803e3d6000fd5b5050505061421685858585614664565b9695505050505050565b6005548190600090614241906001600160a01b0316622c222960e91b610f8f565b90506000614254622c222960e91b611454565b9050600061426284836151e9565b905060008115614309576000614278868461325b565b90508073__$b8d33eeb36ac0d1e81cd70156e0043e778$__63d5e5e6e66040518163ffffffff1660e01b815260040160206040518083038186803b1580156142bf57600080fd5b505af41580156142d3573d6000803e3d6000fd5b505050506040513d601f19601f820116820180604052508101906142f79190614e5f565b61430191906150b3565b91505061430d565b5060005b838514156143eb5760115460055460405163a764eb4560e01b81526001600160a01b039283169263a764eb459261434c92911690600090600401614ee2565b600060405180830381600087803b15801561436657600080fd5b505af115801561437a573d6000803e3d6000fd5b50505050601160009054906101000a90046001600160a01b03166001600160a01b031663ba08f2996040518163ffffffff1660e01b8152600401600060405180830381600087803b1580156143ce57600080fd5b505af11580156143e2573d6000803e3d6000fd5b50505050614472565b60006143f786866151e9565b90506000614405828561325b565b60115460055460405163a764eb4560e01b81529293506001600160a01b039182169263a764eb459261443d9216908590600401614ee2565b600060405180830381600087803b15801561445757600080fd5b505af115801561446b573d6000803e3d6000fd5b5050505050505b60115460408051632318bb8960e11b815290516001600160a01b0390921691633d31e97b916144c59185918591634631771291600480820192602092909190829003018186803b158015613db157600080fd5b6040518263ffffffff1660e01b81526004016144e391815260200190565b600060405180830381600087803b1580156144fd57600080fd5b505af1158015614511573d6000803e3d6000fd5b50505050505050505050565b6000610f8685858585614664565b60008061454d8461454761454086600a6151ca565b889061459c565b9061491e565b9050600561455c600a836152a8565b1061456f5761456c600a826150b3565b90505b610f86600a826150cb565b600080614588600a846150cb565b614592868661459c565b61454d91906150cb565b600061295582846151ca565b600454604080516001600160e01b031980891660208301529181018790529085166060820152608081018490526001600160a01b0383811660a08301529091169063907dff979060c00160405160208183030381529060405260027f39c45ff1d0f1b38968efe499465b2cefd52232ee48ae295f4abd485a6c1189016146348b6001600160a01b031690565b6000806040518763ffffffff1660e01b81526004016144e396959493929190614f85565b600061295582846151e9565b60006001600160a01b0384166146bc5760405162461bcd60e51b815260206004820181905260248201527f43616e6e6f74207472616e7366657220746f20746865203020616464726573736044820152606401610941565b6001600160a01b0384163014156147285760405162461bcd60e51b815260206004820152602a60248201527f43616e6e6f74207472616e7366657220746f2074686520756e6465726c79696e60448201526919c818dbdb9d1c9858dd60b21b6064820152608401610941565b6004546001600160a01b03858116911614156147945760405162461bcd60e51b815260206004820152602560248201527f43616e6e6f74207472616e7366657220746f207468652070726f787920636f6e6044820152641d1c9858dd60da1b6064820152608401610941565b6006546040516370a0823160e01b81526001600160a01b0387811660048301529091169063b46310f69087906147d690879085906370a082319060240161414d565b6040518363ffffffff1660e01b81526004016147f3929190614ee2565b600060405180830381600087803b15801561480d57600080fd5b505af1158015614821573d6000803e3d6000fd5b50506006546040516370a0823160e01b81526001600160a01b038881166004830152909116925063b46310f6915086906148b890879085906370a082319060240160206040518083038186803b15801561487a57600080fd5b505afa15801561488e573d6000803e3d6000fd5b505050506040513d601f19601f820116820180604052508101906148b29190614e5f565b9061492a565b6040518363ffffffff1660e01b81526004016148d5929190614ee2565b600060405180830381600087803b1580156148ef57600080fd5b505af1158015614903573d6000803e3d6000fd5b5050505061491385858585614936565b612e878585856131f8565b600061295582846150cb565b600061295582846150b3565b600554600160a01b900460ff16156149905760405162461bcd60e51b815260206004820152601e60248201527f526576657274656420746f2070726576656e74207265656e7472616e637900006044820152606401610941565b6005805460ff60a01b1916600160a01b179055823b8015614a4557836001600160a01b03168584846040516024016149ca93929190614efb565b60408051601f198184030181529181526020820180516001600160e01b031663607705c560e11b179052516149ff9190614ec6565b6000604051808303816000865af19150503d8060008114614a3c576040519150601f19603f3d011682016040523d82523d6000602084013e614a41565b606091505b5050505b50506005805460ff60a01b19169055505050565b600082601f830112614a69578081fd5b813567ffffffffffffffff80821115614a8457614a846152e8565b604051601f8301601f19908116603f01168101908282118183101715614aac57614aac6152e8565b81604052838152866020858801011115614ac4578485fd5b8360208701602083013792830160200193909352509392505050565b600060208284031215614af1578081fd5b8135612955816152fe565b600060208284031215614b0d578081fd5b8151612955816152fe565b60008060408385031215614b2a578081fd5b8235614b35816152fe565b91506020830135614b45816152fe565b809150509250929050565b600080600060608486031215614b64578081fd5b8335614b6f816152fe565b92506020840135614b7f816152fe565b929592945050506040919091013590565b60008060008060808587031215614ba5578081fd5b8435614bb0816152fe565b93506020850135614bc0816152fe565b925060408501359150606085013567ffffffffffffffff811115614be2578182fd5b614bee87828801614a59565b91505092959194509250565b60008060408385031215614c0c578182fd5b8235614c17816152fe565b91506020830135614b4581615313565b600080600060608486031215614c3b578283fd5b8335614c46816152fe565b92506020840135614b7f81615313565b600080600080600060a08688031215614c6d578081fd5b8535614c78816152fe565b94506020860135614c8881615313565b9350604086013592506060860135614c9f81615313565b91506080860135614caf816152fe565b809150509295509295909350565b60008060408385031215614ccf578182fd5b8235614cda816152fe565b946020939093013593505050565b600080600060608486031215614cfc578081fd5b8335614d07816152fe565b925060208401359150604084013567ffffffffffffffff811115614d29578182fd5b614d3586828701614a59565b9150509250925092565b600060208284031215614d50578081fd5b81518015158114612955578182fd5b600060208284031215614d70578081fd5b813561295581615313565b600060208284031215614d8c578081fd5b815161295581615313565b60008060408385031215614da9578182fd5b8235614cda81615313565b600080600060608486031215614dc8578081fd5b8335614dd381615313565b9250602084013591506040840135614dea81615313565b809150509250925092565b60008060008060808587031215614e0a578182fd5b8435614e1581615313565b9350602085013592506040850135614e2c81615313565b91506060850135614e3c816152fe565b939692955090935050565b600060208284031215614e58578081fd5b5035919050565b600060208284031215614e70578081fd5b5051919050565b60008060408385031215614e89578182fd5b505080516020909101519092909150565b60008151808452614eb2816020860160208601615223565b601f01601f19169290920160200192915050565b60008251614ed8818460208701615223565b9190910192915050565b6001600160a01b03929092168252602082015260400190565b60018060a01b0384168152826020820152606060408201526000610f866060830184614e9a565b6020808252825182820181905260009190848201906040850190845b81811015614f645783516001600160e01b03191683529284019291840191600101614f3e565b50909695505050505050565b6001600160e01b031991909116815260200190565b60c081526000614f9860c0830189614e9a565b60208301979097525060408101949094526060840192909252608083015260a090910152919050565b6020815260006129556020830184614e9a565b60208082526022908201527f52617465207374616c65206f72206e6f6e6578697374616e742063757272656e604082015261637960f01b606082015260800190565b6020808252602f908201527f4f6e6c792074686520636f6e7472616374206f776e6572206d6179207065726660408201526e37b936903a3434b99030b1ba34b7b760891b606082015260800190565b6020808252602e908201527f5468697320616374696f6e2063616e206f6e6c7920626520706572666f726d6560408201526d3210313c903a34329037bbb732b960911b606082015260800190565b600082198211156150c6576150c66152bc565b500190565b6000826150da576150da6152d2565b500490565b600181815b8085111561511a578160001904821115615100576151006152bc565b8085161561510d57918102915b93841c93908002906150e4565b509250929050565b60006129558383600082615138575060016108da565b81615145575060006108da565b816001811461515b576002811461516557615181565b60019150506108da565b60ff841115615176576151766152bc565b50506001821b6108da565b5060208310610133831016604e8410600b84101617156151a4575081810a6108da565b6151ae83836150df565b80600019048211156151c2576151c26152bc565b029392505050565b60008160001904831182151516156151e4576151e46152bc565b500290565b6000828210156151fb576151fb6152bc565b500390565b600060ff821660ff84168082101561521a5761521a6152bc565b90039392505050565b60005b8381101561523e578181015183820152602001615226565b8381111561524d576000848401525b50505050565b600181811c9082168061526757607f821691505b6020821081141561185757634e487b7160e01b600052602260045260246000fd5b600060ff821660ff81141561529f5761529f6152bc565b60010192915050565b6000826152b7576152b76152d2565b500690565b634e487b7160e01b600052601160045260246000fd5b634e487b7160e01b600052601260045260246000fd5b634e487b7160e01b600052604160045260246000fd5b6001600160a01b03811681146126d457600080fd5b6001600160e01b0319811681146126d457600080fdfea264697066735822122079d715f5a3acc54dbbcca47057d6b0cf7be5596a93baf7abe4418b1c91e5a49f64736f6c63430008040033",
  "linkReferences": {
    "contracts/SafeDecimalMath.sol": {
      "SafeDecimalMath": [
        {
          "length": 20,
          "start": 16450
        },
        {
          "length": 20,
          "start": 17385
        },
        {
          "length": 20,
          "start": 18434
        }
      ]
    }
  },
  "deployedLinkReferences": {
    "contracts/SafeDecimalMath.sol": {
      "SafeDecimalMath": [
        {
          "length": 20,
          "start": 15037
        },
        {
          "length": 20,
          "start": 15972
        },
        {
          "length": 20,
          "start": 17021
        }
      ]
    }
  }
}